{
  "contractName": "RewardPool",
  "abi": [
    {
      "constant": true,
      "inputs": [],
      "name": "creator",
      "outputs": [
        {
          "name": "",
          "type": "address"
        }
      ],
      "payable": false,
      "stateMutability": "view",
      "type": "function"
    },
    {
      "constant": true,
      "inputs": [
        {
          "name": "",
          "type": "uint256"
        }
      ],
      "name": "rules",
      "outputs": [
        {
          "name": "id",
          "type": "uint256"
        },
        {
          "name": "amount",
          "type": "uint256"
        },
        {
          "name": "state",
          "type": "uint8"
        },
        {
          "name": "poll",
          "type": "address"
        },
        {
          "name": "creator",
          "type": "address"
        },
        {
          "name": "created",
          "type": "uint256"
        }
      ],
      "payable": false,
      "stateMutability": "view",
      "type": "function"
    },
    {
      "constant": true,
      "inputs": [],
      "name": "name",
      "outputs": [
        {
          "name": "",
          "type": "string"
        }
      ],
      "payable": false,
      "stateMutability": "view",
      "type": "function"
    },
    {
      "constant": false,
      "inputs": [
        {
          "name": "account",
          "type": "address"
        }
      ],
      "name": "addManager",
      "outputs": [],
      "payable": false,
      "stateMutability": "nonpayable",
      "type": "function"
    },
    {
      "constant": true,
      "inputs": [],
      "name": "countRules",
      "outputs": [
        {
          "name": "",
          "type": "uint256"
        }
      ],
      "payable": false,
      "stateMutability": "view",
      "type": "function"
    },
    {
      "constant": true,
      "inputs": [
        {
          "name": "",
          "type": "address"
        },
        {
          "name": "",
          "type": "uint256"
        }
      ],
      "name": "rewardsOf",
      "outputs": [
        {
          "name": "",
          "type": "address"
        }
      ],
      "payable": false,
      "stateMutability": "view",
      "type": "function"
    },
    {
      "constant": true,
      "inputs": [
        {
          "name": "",
          "type": "uint256"
        }
      ],
      "name": "managers",
      "outputs": [
        {
          "name": "",
          "type": "address"
        }
      ],
      "payable": false,
      "stateMutability": "view",
      "type": "function"
    },
    {
      "constant": true,
      "inputs": [],
      "name": "RULE_POLL_DURATION",
      "outputs": [
        {
          "name": "",
          "type": "uint256"
        }
      ],
      "payable": false,
      "stateMutability": "view",
      "type": "function"
    },
    {
      "constant": true,
      "inputs": [
        {
          "name": "",
          "type": "address"
        },
        {
          "name": "",
          "type": "uint256"
        }
      ],
      "name": "withdrawels",
      "outputs": [
        {
          "name": "amount",
          "type": "uint256"
        },
        {
          "name": "receiver",
          "type": "address"
        },
        {
          "name": "created",
          "type": "uint256"
        }
      ],
      "payable": false,
      "stateMutability": "view",
      "type": "function"
    },
    {
      "constant": false,
      "inputs": [
        {
          "name": "id",
          "type": "uint256"
        },
        {
          "name": "proposedAmount",
          "type": "uint256"
        }
      ],
      "name": "startRulePoll",
      "outputs": [],
      "payable": false,
      "stateMutability": "nonpayable",
      "type": "function"
    },
    {
      "constant": true,
      "inputs": [
        {
          "name": "",
          "type": "uint256"
        }
      ],
      "name": "members",
      "outputs": [
        {
          "name": "",
          "type": "address"
        }
      ],
      "payable": false,
      "stateMutability": "view",
      "type": "function"
    },
    {
      "constant": false,
      "inputs": [
        {
          "name": "id",
          "type": "uint256"
        },
        {
          "name": "agree",
          "type": "bool"
        },
        {
          "name": "proposedAmount",
          "type": "uint256"
        }
      ],
      "name": "onRulePollFinish",
      "outputs": [],
      "payable": false,
      "stateMutability": "nonpayable",
      "type": "function"
    },
    {
      "constant": false,
      "inputs": [],
      "name": "createRule",
      "outputs": [],
      "payable": false,
      "stateMutability": "nonpayable",
      "type": "function"
    },
    {
      "constant": true,
      "inputs": [],
      "name": "minVotedTokensPerc",
      "outputs": [
        {
          "name": "",
          "type": "uint256"
        }
      ],
      "payable": false,
      "stateMutability": "view",
      "type": "function"
    },
    {
      "constant": true,
      "inputs": [],
      "name": "MAX_VOTED_TOKEN_PERC",
      "outputs": [
        {
          "name": "",
          "type": "uint256"
        }
      ],
      "payable": false,
      "stateMutability": "view",
      "type": "function"
    },
    {
      "constant": true,
      "inputs": [
        {
          "name": "account",
          "type": "address"
        }
      ],
      "name": "isMember",
      "outputs": [
        {
          "name": "",
          "type": "bool"
        }
      ],
      "payable": false,
      "stateMutability": "view",
      "type": "function"
    },
    {
      "constant": false,
      "inputs": [
        {
          "name": "id",
          "type": "uint256"
        }
      ],
      "name": "revokeVoteForRule",
      "outputs": [],
      "payable": false,
      "stateMutability": "nonpayable",
      "type": "function"
    },
    {
      "constant": false,
      "inputs": [],
      "name": "renounceMember",
      "outputs": [],
      "payable": false,
      "stateMutability": "nonpayable",
      "type": "function"
    },
    {
      "constant": false,
      "inputs": [
        {
          "name": "account",
          "type": "address"
        }
      ],
      "name": "addMember",
      "outputs": [],
      "payable": false,
      "stateMutability": "nonpayable",
      "type": "function"
    },
    {
      "constant": true,
      "inputs": [
        {
          "name": "",
          "type": "address"
        },
        {
          "name": "",
          "type": "uint256"
        }
      ],
      "name": "deposits",
      "outputs": [
        {
          "name": "amount",
          "type": "uint256"
        },
        {
          "name": "sender",
          "type": "address"
        },
        {
          "name": "created",
          "type": "uint256"
        }
      ],
      "payable": false,
      "stateMutability": "view",
      "type": "function"
    },
    {
      "constant": false,
      "inputs": [
        {
          "name": "id",
          "type": "uint256"
        },
        {
          "name": "agree",
          "type": "bool"
        }
      ],
      "name": "voteForRule",
      "outputs": [],
      "payable": false,
      "stateMutability": "nonpayable",
      "type": "function"
    },
    {
      "constant": true,
      "inputs": [
        {
          "name": "",
          "type": "uint256"
        }
      ],
      "name": "rewards",
      "outputs": [
        {
          "name": "",
          "type": "address"
        }
      ],
      "payable": false,
      "stateMutability": "view",
      "type": "function"
    },
    {
      "constant": true,
      "inputs": [
        {
          "name": "account",
          "type": "address"
        }
      ],
      "name": "isManager",
      "outputs": [
        {
          "name": "",
          "type": "bool"
        }
      ],
      "payable": false,
      "stateMutability": "view",
      "type": "function"
    },
    {
      "constant": false,
      "inputs": [],
      "name": "renounceManager",
      "outputs": [],
      "payable": false,
      "stateMutability": "nonpayable",
      "type": "function"
    },
    {
      "constant": true,
      "inputs": [],
      "name": "token",
      "outputs": [
        {
          "name": "",
          "type": "address"
        }
      ],
      "payable": false,
      "stateMutability": "view",
      "type": "function"
    },
    {
      "inputs": [
        {
          "name": "_name",
          "type": "string"
        },
        {
          "name": "_tokenAddress",
          "type": "address"
        }
      ],
      "payable": false,
      "stateMutability": "nonpayable",
      "type": "constructor"
    },
    {
      "anonymous": false,
      "inputs": [
        {
          "indexed": true,
          "name": "sender",
          "type": "address"
        },
        {
          "indexed": false,
          "name": "amount",
          "type": "uint256"
        }
      ],
      "name": "Deposited",
      "type": "event"
    },
    {
      "anonymous": false,
      "inputs": [
        {
          "indexed": true,
          "name": "beneficiary",
          "type": "address"
        },
        {
          "indexed": false,
          "name": "reward",
          "type": "uint256"
        }
      ],
      "name": "Withdrawn",
      "type": "event"
    },
    {
      "anonymous": false,
      "inputs": [
        {
          "indexed": false,
          "name": "id",
          "type": "uint256"
        },
        {
          "indexed": false,
          "name": "reward",
          "type": "address"
        }
      ],
      "name": "RewardPollCreated",
      "type": "event"
    },
    {
      "anonymous": false,
      "inputs": [
        {
          "indexed": false,
          "name": "id",
          "type": "uint256"
        },
        {
          "indexed": false,
          "name": "reward",
          "type": "address"
        },
        {
          "indexed": false,
          "name": "approved",
          "type": "bool"
        }
      ],
      "name": "RewardPollFinished",
      "type": "event"
    },
    {
      "anonymous": false,
      "inputs": [
        {
          "indexed": false,
          "name": "id",
          "type": "uint256"
        },
        {
          "indexed": false,
          "name": "proposedAmount",
          "type": "uint256"
        },
        {
          "indexed": false,
          "name": "sender",
          "type": "address"
        }
      ],
      "name": "RulePollCreated",
      "type": "event"
    },
    {
      "anonymous": false,
      "inputs": [
        {
          "indexed": false,
          "name": "id",
          "type": "uint256"
        },
        {
          "indexed": false,
          "name": "approved",
          "type": "bool"
        },
        {
          "indexed": false,
          "name": "sender",
          "type": "address"
        }
      ],
      "name": "RulePollFinished",
      "type": "event"
    },
    {
      "anonymous": false,
      "inputs": [
        {
          "indexed": false,
          "name": "id",
          "type": "uint256"
        },
        {
          "indexed": false,
          "name": "state",
          "type": "uint8"
        },
        {
          "indexed": false,
          "name": "sender",
          "type": "address"
        }
      ],
      "name": "RuleStateChanged",
      "type": "event"
    },
    {
      "anonymous": false,
      "inputs": [
        {
          "indexed": true,
          "name": "account",
          "type": "address"
        }
      ],
      "name": "MemberAdded",
      "type": "event"
    },
    {
      "anonymous": false,
      "inputs": [
        {
          "indexed": true,
          "name": "account",
          "type": "address"
        }
      ],
      "name": "MemberRemoved",
      "type": "event"
    },
    {
      "anonymous": false,
      "inputs": [
        {
          "indexed": true,
          "name": "account",
          "type": "address"
        }
      ],
      "name": "ManagerAdded",
      "type": "event"
    },
    {
      "anonymous": false,
      "inputs": [
        {
          "indexed": true,
          "name": "account",
          "type": "address"
        }
      ],
      "name": "ManagerRemoved",
      "type": "event"
    },
    {
      "constant": false,
      "inputs": [
        {
          "name": "value",
          "type": "string"
        }
      ],
      "name": "updatePoolName",
      "outputs": [],
      "payable": false,
      "stateMutability": "nonpayable",
      "type": "function"
    },
    {
      "constant": false,
      "inputs": [
        {
          "name": "amount",
          "type": "uint256"
        }
      ],
      "name": "deposit",
      "outputs": [],
      "payable": false,
      "stateMutability": "nonpayable",
      "type": "function"
    },
    {
      "constant": true,
      "inputs": [],
      "name": "countRewards",
      "outputs": [
        {
          "name": "",
          "type": "uint256"
        }
      ],
      "payable": false,
      "stateMutability": "view",
      "type": "function"
    },
    {
      "constant": true,
      "inputs": [
        {
          "name": "beneficiary",
          "type": "address"
        }
      ],
      "name": "countRewardsOf",
      "outputs": [
        {
          "name": "",
          "type": "uint256"
        }
      ],
      "payable": false,
      "stateMutability": "view",
      "type": "function"
    },
    {
      "constant": true,
      "inputs": [
        {
          "name": "sender",
          "type": "address"
        }
      ],
      "name": "countDeposits",
      "outputs": [
        {
          "name": "",
          "type": "uint256"
        }
      ],
      "payable": false,
      "stateMutability": "view",
      "type": "function"
    },
    {
      "constant": true,
      "inputs": [
        {
          "name": "receiver",
          "type": "address"
        }
      ],
      "name": "countWithdrawels",
      "outputs": [
        {
          "name": "",
          "type": "uint256"
        }
      ],
      "payable": false,
      "stateMutability": "view",
      "type": "function"
    },
    {
      "constant": false,
      "inputs": [
        {
          "name": "rule",
          "type": "uint256"
        },
        {
          "name": "account",
          "type": "address"
        }
      ],
      "name": "createReward",
      "outputs": [],
      "payable": false,
      "stateMutability": "nonpayable",
      "type": "function"
    },
    {
      "constant": false,
      "inputs": [
        {
          "name": "id",
          "type": "uint256"
        },
        {
          "name": "agree",
          "type": "bool"
        }
      ],
      "name": "voteForReward",
      "outputs": [],
      "payable": false,
      "stateMutability": "nonpayable",
      "type": "function"
    },
    {
      "constant": false,
      "inputs": [
        {
          "name": "id",
          "type": "uint256"
        }
      ],
      "name": "revokeVoteForReward",
      "outputs": [],
      "payable": false,
      "stateMutability": "nonpayable",
      "type": "function"
    },
    {
      "constant": false,
      "inputs": [
        {
          "name": "id",
          "type": "uint256"
        },
        {
          "name": "agree",
          "type": "bool"
        }
      ],
      "name": "onRewardPollFinish",
      "outputs": [],
      "payable": false,
      "stateMutability": "nonpayable",
      "type": "function"
    },
    {
      "constant": false,
      "inputs": [
        {
          "name": "receiver",
          "type": "address"
        },
        {
          "name": "amount",
          "type": "uint256"
        },
        {
          "name": "created",
          "type": "uint256"
        }
      ],
      "name": "onWithdrawel",
      "outputs": [],
      "payable": false,
      "stateMutability": "nonpayable",
      "type": "function"
    }
  ],
  "bytecode": "0x608060405260006005553480156200001657600080fd5b506040516200420938038062004209833981018060405260408110156200003c57600080fd5b8101908080516401000000008111156200005557600080fd5b820160208101848111156200006957600080fd5b81516401000000008111828201871017156200008457600080fd5b5050602090910151909250905080620000a63364010000000062000120810204565b620000ba33640100000000620001b2810204565b60048054600160a060020a031916600160a060020a03929092169190911790558151620000ef906008906020850190620002d8565b5060078054600160a060020a03909216600160a060020a03199283161790556009805490911633179055506200037d565b6200013b60008264010000000062001fe86200024582021704565b60018054808201825560009182527fb10e2d527612073b26eecdfd717e6a320cf44b4afac2b0732d9fcbe2b7fa0cf6018054600160a060020a031916600160a060020a03841690811790915560405190917f3b4a40cccf2058c593542587329dd385be4f0b588db5471fbd9598e56dd7093a91a250565b620001cd60028264010000000062001fe86200024582021704565b6003805460018101825560009182527fc2575a0e9e593c00f959f8c92f12db2869c3395a3b0502d05e2516446f71f85b018054600160a060020a031916600160a060020a03841690811790915560405190917fb251eb052afc73ffd02ffe85ad79990a8b3fed60d76dbc2fa2fdd7123dffd91491a250565b600160a060020a03811615156200025b57600080fd5b620002708282640100000000620002a0810204565b156200027b57600080fd5b600160a060020a0316600090815260209190915260409020805460ff19166001179055565b6000600160a060020a0382161515620002b857600080fd5b50600160a060020a03166000908152602091909152604090205460ff1690565b828054600181600116156101000203166002900490600052602060002090601f016020900481019282601f106200031b57805160ff19168380011785556200034b565b828001600101855582156200034b579182015b828111156200034b5782518255916020019190600101906200032e565b50620003599291506200035d565b5090565b6200037a91905b8082111562000359576000815560010162000364565b90565b613e7c806200038d6000396000f3fe608060405260043610620001cd5763ffffffff60e060020a60003504166302d05d3f8114620001d2578063041d2641146200020657806304d6ded4146200024f57806306fdde0314620002e95780630bd028c014620003795780632d06177a146200039157806331c5403214620003ca57806335941b1c14620003e25780633d39c260146200041f578063439c6f17146200044d578063505e4b4a1462000465578063563b373d14620004c85780635daf08ca14620004fc578063607ca15b146200052a5780636721819514620005665780637370407d146200059c57806375d74bed14620005d25780637895a0c5146200060057806383e7eb87146200063757806384219204146200064f578063962c9c8d1462000667578063a230c524146200067f578063b32d89bf14620006ca578063b6b55f251462000707578063b8771a341462000735578063bad5ba011462000763578063c18b0180146200077b578063ca6d56dc14620007be578063d6d6817714620007f5578063e213cf0f1462000832578063e51896cc1462000868578063f0b33435146200089f578063f301af421462000959578063f3ae24151462000987578063f8b91abe14620009be578063fc0c546a14620009d6575b600080fd5b348015620001df57600080fd5b50620001ea620009ee565b60408051600160a060020a039092168252519081900360200190f35b3480156200021357600080fd5b506200023d600480360360208110156200022c57600080fd5b5035600160a060020a0316620009fd565b60408051918252519081900360200190f35b3480156200025c57600080fd5b506200027d600480360360208110156200027557600080fd5b503562000a18565b604051808781526020018681526020018560018111156200029a57fe5b60ff16815260200184600160a060020a0316600160a060020a0316815260200183600160a060020a0316600160a060020a03168152602001828152602001965050505050505060405180910390f35b348015620002f657600080fd5b506200030162000a70565b6040805160208082528351818301528351919283929083019185019080838360005b838110156200033d57818101518382015260200162000323565b50505050905090810190601f1680156200036b5780820380516001836020036101000a031916815260200191505b509250505060405180910390f35b3480156200038657600080fd5b506200023d62000b02565b3480156200039e57600080fd5b50620003c860048036036020811015620003b757600080fd5b5035600160a060020a031662000b09565b005b348015620003d757600080fd5b506200023d62000b2e565b348015620003ef57600080fd5b50620001ea600480360360408110156200040857600080fd5b50600160a060020a03813516906020013562000b34565b3480156200042c57600080fd5b50620001ea600480360360208110156200044557600080fd5b503562000b6c565b3480156200045a57600080fd5b506200023d62000b95565b3480156200047257600080fd5b50620004a2600480360360408110156200048b57600080fd5b50600160a060020a03813516906020013562000b9a565b60408051938452600160a060020a03909216602084015282820152519081900360600190f35b348015620004d557600080fd5b50620003c860048036036040811015620004ee57600080fd5b508035906020013562000be6565b3480156200050957600080fd5b50620001ea600480360360208110156200052257600080fd5b503562000e35565b3480156200053757600080fd5b50620003c8600480360360608110156200055057600080fd5b5080359060208101351515906040013562000e44565b3480156200057357600080fd5b50620003c8600480360360408110156200058c57600080fd5b5080359060200135151562001069565b348015620005a957600080fd5b50620003c860048036036040811015620005c257600080fd5b508035906020013515156200111c565b348015620005df57600080fd5b50620003c860048036036020811015620005f857600080fd5b503562001189565b3480156200060d57600080fd5b506200023d600480360360208110156200062657600080fd5b5035600160a060020a031662001233565b3480156200064457600080fd5b50620003c86200124e565b3480156200065c57600080fd5b506200023d620013f2565b3480156200067457600080fd5b506200023d620013f8565b3480156200068c57600080fd5b50620006b660048036036020811015620006a557600080fd5b5035600160a060020a0316620013fd565b604080519115158252519081900360200190f35b348015620006d757600080fd5b50620003c860048036036040811015620006f057600080fd5b5080359060200135600160a060020a031662001418565b3480156200071457600080fd5b50620003c8600480360360208110156200072d57600080fd5b503562001586565b3480156200074257600080fd5b50620003c8600480360360208110156200075b57600080fd5b50356200182c565b3480156200077057600080fd5b50620003c862001908565b3480156200078857600080fd5b50620003c860048036036060811015620007a157600080fd5b50600160a060020a03813516906020810135906040013562001915565b348015620007cb57600080fd5b50620003c860048036036020811015620007e457600080fd5b5035600160a060020a031662001a6b565b3480156200080257600080fd5b50620004a2600480360360408110156200081b57600080fd5b50600160a060020a03813516906020013562001a8d565b3480156200083f57600080fd5b50620003c8600480360360408110156200085857600080fd5b5080359060200135151562001aa9565b3480156200087557600080fd5b506200023d600480360360208110156200088e57600080fd5b5035600160a060020a031662001b8d565b348015620008ac57600080fd5b50620003c860048036036020811015620008c557600080fd5b810190602081018135640100000000811115620008e157600080fd5b820183602082011115620008f457600080fd5b803590602001918460018302840111640100000000831117156200091757600080fd5b91908080601f01602080910402602001604051908101604052809392919081815260200183838082843760009201919091525092955062001ba8945050505050565b3480156200096657600080fd5b50620001ea600480360360208110156200097f57600080fd5b503562001bd8565b3480156200099457600080fd5b50620006b660048036036020811015620009ad57600080fd5b5035600160a060020a031662001be7565b348015620009cb57600080fd5b50620003c862001bfb565b348015620009e357600080fd5b50620001ea62001c06565b600954600160a060020a031681565b600160a060020a03166000908152600b602052604090205490565b600680548290811062000a2757fe5b600091825260209091206005909102018054600182015460028301546003840154600490940154929450909260ff821692610100909204600160a060020a039081169291169086565b6008805460408051602060026001851615610100026000190190941693909304601f8101849004840282018401909252818152929183018282801562000afa5780601f1062000ace5761010080835404028352916020019162000afa565b820191906000526020600020905b81548152906001019060200180831162000adc57829003601f168201915b505050505081565b600a545b90565b62000b143362001be7565b151562000b2057600080fd5b62000b2b8162001c15565b50565b60065490565b600d6020528160005260406000208181548110151562000b5057fe5b600091825260209091200154600160a060020a03169150829050565b600180548290811062000b7b57fe5b600091825260209091200154600160a060020a0316905081565b603c81565b600c6020528160005260406000208181548110151562000bb657fe5b6000918252602090912060039091020180546001820154600290920154909350600160a060020a03909116915083565b62000bf133620013fd565b151562000bfd57600080fd5b60068054600091908490811062000c1057fe5b60009182526020909120600590910201600201546101009004600160a060020a0316148062000cd95750600680548390811062000c4957fe5b906000526020600020906005020160020160019054906101000a9004600160a060020a0316600160a060020a031663b3f05b976040518163ffffffff1660e060020a02815260040160206040518083038186803b15801562000caa57600080fd5b505afa15801562000cbf573d6000803e3d6000fd5b505050506040513d602081101562000cd657600080fd5b50515b151562000ce557600080fd5b600680548390811062000cf457fe5b906000526020600020906005020160010154811415151562000d1557600080fd5b6004546005544291603c83019185918591600160a060020a0390911690859085903062000d41620020b0565b9687526020870195909552600160a060020a039384166040808801919091526060870193909352608086019190915260a0850152911660c0830152519081900360e001906000f08015801562000d9b573d6000803e3d6000fd5b50600680548690811062000dab57fe5b60009182526020918290206002600590920201018054600160a060020a03939093166101000274ffffffffffffffffffffffffffffffffffffffff001990931692909217909155604080518681529182018590523382820152517fdeea9f03d34191891f4d710d13235d67f125d54b82595f43bd61bb85eee1361e9181900360600190a150505050565b600380548290811062000b7b57fe5b600680548490811062000e5357fe5b60009182526020909120600590910201600201546101009004600160a060020a03163314801562000f1e5750600680548490811062000e8e57fe5b906000526020600020906005020160020160019054906101000a9004600160a060020a0316600160a060020a031663b3f05b976040518163ffffffff1660e060020a02815260040160206040518083038186803b15801562000eef57600080fd5b505afa15801562000f04573d6000803e3d6000fd5b505050506040513d602081101562000f1b57600080fd5b50515b151562000f2a57600080fd5b811562000f3d5762000f3d838262001cac565b62000fe660068481548110151562000f5157fe5b906000526020600020906005020160020160019054906101000a9004600160a060020a0316600160a060020a0316632c24909c6040518163ffffffff1660e060020a02815260040160206040518083038186803b15801562000fb257600080fd5b505afa15801562000fc7573d6000803e3d6000fd5b505050506040513d602081101562000fde57600080fd5b505162001e51565b604080518481528315156020820152338183015290517fa90fbb743f484212bbeda1b7afa164217b7fec13335136f21f67705f327978549181900360600190a160068054849081106200103557fe5b60009182526020909120600260059092020101805474ffffffffffffffffffffffffffffffffffffffff0019169055505050565b620010743362001be7565b15156200108057600080fd5b600a8054839081106200108f57fe5b6000918252602082200154604080517fbd041c4d00000000000000000000000000000000000000000000000000000000815233600482015284151560248201529051600160a060020a039092169263bd041c4d9260448084019382900301818387803b158015620010ff57600080fd5b505af115801562001114573d6000803e3d6000fd5b505050505050565b7fda10dbde7dcd9aeaf3e6ccca007d99ade51185f2ae9ff80c63fb8d98d7f6ce2e82600a848154811015156200114e57fe5b6000918252602091829020015460408051938452600160a060020a039091169183019190915283151582820152519081900360600190a15050565b620011943362001be7565b1515620011a057600080fd5b600a805482908110620011af57fe5b6000918252602082200154604080517f0519bac30000000000000000000000000000000000000000000000000000000081523360048201529051600160a060020a0390921692630519bac39260248084019382900301818387803b1580156200121757600080fd5b505af11580156200122c573d6000803e3d6000fd5b5050505050565b600160a060020a03166000908152600d602052604090205490565b620012593362001be7565b15156200126557600080fd5b6200126f620020c1565b60065480825260006020808401919091526001604080850182905233608086018190524260a087015281519485529284019190915282810191909152517f37aec22f64fe69a8fd1e8fd9b7fdb5803c56fb5f8794371fbcf23e4337f78dcb9181900360600190a1600680546001818101808455600093909352835160059092027ff652222313e28459528d920b65115c16c04f3efc82aaedc97be59f3f377c0d3f810192835560208501517ff652222313e28459528d920b65115c16c04f3efc82aaedc97be59f3f377c0d4082015560408501517ff652222313e28459528d920b65115c16c04f3efc82aaedc97be59f3f377c0d41909101805486949360ff199091169083818111156200137f57fe5b0217905550606082015160028201805474ffffffffffffffffffffffffffffffffffffffff001916610100600160a060020a0393841602179055608083015160038301805473ffffffffffffffffffffffffffffffffffffffff19169190921617905560a0909101516004909101555050565b60055481565b600a81565b60006200141260028363ffffffff62001e8416565b92915050565b6000600a805490508383336006878154811015156200143357fe5b6000918252602090912060016005909202010154600754600160a060020a0316306200145e620020f7565b9687526020870195909552600160a060020a0393841660408088019190915292841660608701526080860191909152821660a0850152911660c0830152519081900360e001906000f080158015620014ba573d6000803e3d6000fd5b50600a5460408051918252600160a060020a038316602083015280519293507f5b46473bab12662e0e8c0df10d5d02697959545dc4bfd732541dd4f4b64798de92918290030190a1600a805460018181019092557fc65a7bb8d6351c1cf70c95a316cc6a92839c986682d98bc35f958f4883f9d2a8018054600160a060020a0393841673ffffffffffffffffffffffffffffffffffffffff199182168117909255939092166000908152600d602090815260408220805493840181558252902001805490921617905550565b600754604080517f70a082310000000000000000000000000000000000000000000000000000000081523360048201529051600092600160a060020a0316916370a08231916024808301926020929190829003018186803b158015620015eb57600080fd5b505afa15801562001600573d6000803e3d6000fd5b505050506040513d60208110156200161757600080fd5b5051116200162457600080fd5b600081116200163257600080fd5b600754604080517f1302afc2000000000000000000000000000000000000000000000000000000008152336004820152306024820152604481018490529051600160a060020a0390921691631302afc2916064808201926020929091908290030181600087803b158015620016a657600080fd5b505af1158015620016bb573d6000803e3d6000fd5b505050506040513d6020811015620016d257600080fd5b5050600754604080517f62cd70e2000000000000000000000000000000000000000000000000000000008152336004820152306024820152604481018490529051600160a060020a03909216916362cd70e2916064808201926020929091908290030181600087803b1580156200174857600080fd5b505af11580156200175d573d6000803e3d6000fd5b505050506040513d60208110156200177457600080fd5b5062001781905062002108565b8181523360208083018281524260408086019182526000948552600b84528085208054600180820183559187529585902087516003909702018681559351908401805473ffffffffffffffffffffffffffffffffffffffff1916600160a060020a03909216918217905591516002909301929092558151938452905190927f2da466a7b24304f47e87fa2e1e5a81b9831ce54fec19055ce277ca2f39ba42c492908290030190a25050565b6200183733620013fd565b15156200184357600080fd5b6006805460009190839081106200185657fe5b60009182526020909120600590910201600201546101009004600160a060020a031614156200188457600080fd5b60068054829081106200189357fe5b6000918252602082206005919091020160020154604080517f0519bac30000000000000000000000000000000000000000000000000000000081523360048201529051610100909204600160a060020a031692630519bac39260248084019382900301818387803b1580156200121757600080fd5b620019133362001ebc565b565b600754604080517fa9059cbb000000000000000000000000000000000000000000000000000000008152600160a060020a038681166004830152602482018690529151919092169163a9059cbb9160448083019260209291908290030181600087803b1580156200198557600080fd5b505af11580156200199a573d6000803e3d6000fd5b505050506040513d6020811015620019b157600080fd5b50620019be905062002108565b828152600160a060020a03848116602080840182815260408086018781526000948552600c84528185208054600180820183559187529585902088516003909702018681559351908401805473ffffffffffffffffffffffffffffffffffffffff191691909716908117909655516002909201919091558051928352517f7084f5476618d8e60b11ef0d7d3f06914655adb8793e28ff7f018d4c76d505d59281900390910190a250505050565b62001a7633620013fd565b151562001a8257600080fd5b62000b2b8162001f06565b600b6020528160005260406000208181548110151562000bb657fe5b62001ab433620013fd565b151562001ac057600080fd5b60068054600091908490811062001ad357fe5b60009182526020909120600590910201600201546101009004600160a060020a0316141562001b0157600080fd5b600680548390811062001b1057fe5b6000918252602082206005919091020160020154604080517fbd041c4d00000000000000000000000000000000000000000000000000000000815233600482015284151560248201529051610100909204600160a060020a03169263bd041c4d9260448084019382900301818387803b158015620010ff57600080fd5b600160a060020a03166000908152600c602052604090205490565b62001bb33362001be7565b151562001bbf57600080fd5b805162001bd490600890602084019062002133565b5050565b600a80548290811062000b7b57fe5b600062001412818363ffffffff62001e8416565b620019133362001f9e565b600754600160a060020a031681565b62001c2860008263ffffffff62001fe816565b60018054808201825560009182527fb10e2d527612073b26eecdfd717e6a320cf44b4afac2b0732d9fcbe2b7fa0cf601805473ffffffffffffffffffffffffffffffffffffffff1916600160a060020a03841690811790915560405190917f3b4a40cccf2058c593542587329dd385be4f0b588db5471fbd9598e56dd7093a91a250565b80151562001cf357600160068381548110151562001cc657fe5b60009182526020909120600260059092020101805460ff19166001838181111562001ced57fe5b02179055505b801580159062001d3457506001600680548490811062001d0f57fe5b600091825260209091206002600590920201015460ff16600181111562001d3257fe5b145b1562001d7957600060068381548110151562001d4c57fe5b60009182526020909120600260059092020101805460ff19166001838181111562001d7357fe5b02179055505b8060068381548110151562001d8a57fe5b9060005260206000209060050201600101819055507f37aec22f64fe69a8fd1e8fd9b7fdb5803c56fb5f8794371fbcf23e4337f78dcb60068381548110151562001dd057fe5b90600052602060002090600502016000015460068481548110151562001df257fe5b906000526020600020906005020160020160009054906101000a900460ff16336040518084815260200183600181111562001e2957fe5b60ff168152600160a060020a0390921660208301525060408051918290030192509050a15050565b600062001e6682600263ffffffff6200203a16565b9050600a81111562001e7e5750600a60055562000b2b565b60055550565b6000600160a060020a038216151562001e9c57600080fd5b50600160a060020a03166000908152602091909152604090205460ff1690565b62001ecf60028263ffffffff6200206016565b604051600160a060020a038216907f6e76fb4c77256006d9c38ec7d82b45a8c8f3c27b1d6766fffc42dfb8de68449290600090a250565b62001f1960028263ffffffff62001fe816565b6003805460018101825560009182527fc2575a0e9e593c00f959f8c92f12db2869c3395a3b0502d05e2516446f71f85b01805473ffffffffffffffffffffffffffffffffffffffff1916600160a060020a03841690811790915560405190917fb251eb052afc73ffd02ffe85ad79990a8b3fed60d76dbc2fa2fdd7123dffd91491a250565b62001fb160008263ffffffff6200206016565b604051600160a060020a038216907fef69f7d97228658c92417be1b16b19058315de71fecb435d07b7d23728b6bd3190600090a250565b600160a060020a038116151562001ffe57600080fd5b6200200a828262001e84565b156200201557600080fd5b600160a060020a0316600090815260209190915260409020805460ff19166001179055565b60008082116200204957600080fd5b600082848115156200205757fe5b04949350505050565b600160a060020a03811615156200207657600080fd5b62002082828262001e84565b15156200208e57600080fd5b600160a060020a0316600090815260209190915260409020805460ff19169055565b604051610a7980620021d683390190565b6040805160c081018252600080825260208201819052909182019081526000602082018190526040820181905260609091015290565b6040516112028062002c4f83390190565b606060405190810160405280600081526020016000600160a060020a03168152602001600081525090565b828054600181600116156101000203166002900490600052602060002090601f016020900481019282601f106200217657805160ff1916838001178555620021a6565b82800160010185558215620021a6579182015b82811115620021a657825182559160200191906001019062002189565b50620021b4929150620021b8565b5090565b62000b0691905b80821115620021b45760008155600101620021bf56fe60806040526000600555600060065560006007556000600a5534801561002457600080fd5b5060405160e080610a79833981018060405260e081101561004457600080fd5b508051602082015160408301516060840151608085015160a086015160c0909601519495939492939192909190848185856000600160a060020a038516151561008c57600080fd5b42831015801561009b57508282115b15156100a657600080fd5b60008054600160a060020a0319908116600160a060020a03978816178255600180548216968816969096179095556002939093556003919091556008805460ff1990811690915560048054909116911515919091179055600b99909955600a93909355600c96909655600d805490921695169490941790935550610947928392506101329150396000f3fe6080604052600436106100fb5763ffffffff7c01000000000000000000000000000000000000000000000000000000006000350416630519bac3811461010057806316f0115b146101355780632c24909c146101665780633197cbb61461018d57806336181026146101a257806341fdade6146101cb5780634e9e8e73146101e057806364a90292146101f55780636f6a97621461020a57806378e979251461021f57806380322cbd14610234578063a7491b4814610249578063af640d0f1461029c578063b3a2273f146102b1578063b3f05b97146102c6578063bd041c4d146102db578063d74689e414610316578063fc0c546a1461032b575b600080fd5b34801561010c57600080fd5b506101336004803603602081101561012357600080fd5b5035600160a060020a0316610340565b005b34801561014157600080fd5b5061014a61040f565b60408051600160a060020a039092168252519081900360200190f35b34801561017257600080fd5b5061017b61041e565b60408051918252519081900360200190f35b34801561019957600080fd5b5061017b6104f6565b3480156101ae57600080fd5b506101b76104fc565b604080519115158252519081900360200190f35b3480156101d757600080fd5b5061017b610544565b3480156101ec57600080fd5b5061017b61054a565b34801561020157600080fd5b5061017b610550565b34801561021657600080fd5b5061017b610556565b34801561022b57600080fd5b5061017b61055c565b34801561024057600080fd5b506101b7610562565b34801561025557600080fd5b5061027c6004803603602081101561026c57600080fd5b5035600160a060020a0316610571565b604080519384526020840192909252151582820152519081900360600190f35b3480156102a857600080fd5b5061017b610595565b3480156102bd57600080fd5b5061017b61059b565b3480156102d257600080fd5b506101b76105a1565b3480156102e757600080fd5b50610133600480360360408110156102fe57600080fd5b50600160a060020a03813516906020013515156105aa565b34801561032257600080fd5b5061017b6107cb565b34801561033757600080fd5b5061014a6107d1565b600254421015801561035457506003544211155b151561035f57600080fd5b600160a060020a0381166000908152600960205260408120541161038257600080fd5b600160a060020a038116600090815260096020526040812060018082018054600284018054948690559490915560ff19831690935560075460ff909216916103cf9163ffffffff6107e016565b60075580156103f3576005546103eb908363ffffffff6107e016565b60055561040a565b600654610406908363ffffffff6107e016565b6006555b505050565b600d54600160a060020a031681565b6000806104386006546005546107fa90919063ffffffff16565b90506104ef6000809054906101000a9004600160a060020a0316600160a060020a03166318160ddd6040518163ffffffff167c010000000000000000000000000000000000000000000000000000000002815260040160206040518083038186803b1580156104a657600080fd5b505afa1580156104ba573d6000803e3d6000fd5b505050506040513d60208110156104d057600080fd5b50516104e383606463ffffffff61081316565b9063ffffffff61083e16565b9150505b90565b60035481565b60085460009060ff161561050f57600080fd5b600354421015610521575060006104f3565b6008805460ff1916600117905561053e610539610862565b610884565b50600190565b6103e881565b600c5481565b60065481565b600a5481565b60025481565b600061056c610862565b905090565b60096020526000908152604090208054600182015460029092015490919060ff1683565b600b5481565b60075481565b60085460ff1681565b60025442101580156105be57506003544211155b15156105c957600080fd5b600160a060020a03821615156105de57600080fd5b600160a060020a0382166000908152600960205260409020541561060157600080fd5b60008054604080517f70a08231000000000000000000000000000000000000000000000000000000008152600160a060020a038681166004830152915191909216916370a08231916024808301926020929190829003018186803b15801561066857600080fd5b505afa15801561067c573d6000803e3d6000fd5b505050506040513d602081101561069257600080fd5b505160008054604080517f18160ddd00000000000000000000000000000000000000000000000000000000815290519394509192610736926103e892600160a060020a0316916318160ddd91600480820192602092909190829003018186803b1580156106fe57600080fd5b505afa158015610712573d6000803e3d6000fd5b505050506040513d602081101561072857600080fd5b50519063ffffffff61083e16565b9050808211156107465780610748565b815b9150821561076b57600554610763908363ffffffff6107fa16565b600555610782565b60065461077e908363ffffffff6107fa16565b6006555b600160a060020a038416600090815260096020526040902042815560018082018490556002909101805460ff19168515151790556007546107c2916107fa565b60075550505050565b60055481565b600054600160a060020a031681565b6000828211156107ef57600080fd5b508082035b92915050565b60008282018381101561080c57600080fd5b9392505050565b6000821515610824575060006107f4565b82820282848281151561083357fe5b041461080c57600080fd5b600080821161084c57600080fd5b6000828481151561085957fe5b04949350505050565b600060065460055411801561056c5750600a5461087d61041e565b1015905090565b600d54600b54600c54604080517f607ca15b00000000000000000000000000000000000000000000000000000000815260048101939093528415156024840152604483019190915251600160a060020a039092169163607ca15b9160648082019260009290919082900301818387803b15801561090057600080fd5b505af1158015610914573d6000803e3d6000fd5b505050505056fea165627a7a72305820dfb6199f83c7ac3f0a02e0659882cd305b1c9fcde6cb779f9f089ee9302fc073002960806040526000600555600060065560006007553480156200002057600080fd5b5060405160e08062001202833981018060405260e08110156200004257600080fd5b508051602082015160408301516060840151608085015160a086015160c090960151949593949293919290919081814260b481016000600160a060020a03851615156200008e57600080fd5b4283101580156200009e57508282115b1515620000aa57600080fd5b60008054600160a060020a03968716600160a060020a03199182161790915560018054959096169416939093179093556002556003919091556008805460ff1990811690915560048054921515929091169190911790556200011533640100000000620001ca810204565b62000129336401000000006200025d810204565b15156200013557600080fd5b600c879055600d869055600e8054600160a060020a03878116600160a060020a031992831617909255600f80549287169290911691909117905560108390556011805460ff1916905542601255604080518881526000602082015281517f90ab42752b8b3a3e8bcb9cba7d57f5bf87db421f9885bb1c203f08d0ef199c20929181900390910190a15050505050505062000313565b620001e5600a8264010000000062000e656200028082021704565b600b805460018101825560009182527f0175b7a638427703f0dbe7bb9bbf987a2551717b34e79f33b5b1008d1fa01db9018054600160a060020a031916600160a060020a03841690811790915560405190917fb251eb052afc73ffd02ffe85ad79990a8b3fed60d76dbc2fa2fdd7123dffd91491a250565b60006200027a600a8364010000000062000c46620002db82021704565b92915050565b600160a060020a03811615156200029657600080fd5b620002ab8282640100000000620002db810204565b15620002b657600080fd5b600160a060020a0316600090815260209190915260409020805460ff19166001179055565b6000600160a060020a0382161515620002f357600080fd5b50600160a060020a03166000908152602091909152604090205460ff1690565b610edf80620003236000396000f3fe6080604052600436106101745763ffffffff7c01000000000000000000000000000000000000000000000000000000006000350416630519bac3811461017957806316f0115b146101ae57806325e3d522146101df57806328d21990146102065780633197cbb61461021b578063325a19f114610230578063361810261461024557806338af3eed1461026e5780633ccfd60b1461028357806341fdade6146102985780635c134d66146102ad5780635daf08ca146102e657806364a902921461031057806378e979251461032557806380322cbd1461033a5780638a81694c1461034f578063a1d1936114610364578063a230c52414610379578063a7491b48146103ac578063aa8c217c146103ff578063af640d0f14610414578063b3a2273f14610429578063b3f05b971461043e578063bad5ba0114610453578063bd041c4d14610468578063c19d93fb146104a3578063ca6d56dc146104dc578063d74689e41461050f578063fc0c546a14610524575b600080fd5b34801561018557600080fd5b506101ac6004803603602081101561019c57600080fd5b5035600160a060020a0316610539565b005b3480156101ba57600080fd5b506101c3610608565b60408051600160a060020a039092168252519081900360200190f35b3480156101eb57600080fd5b506101f4610617565b60408051918252519081900360200190f35b34801561021257600080fd5b506101f461061d565b34801561022757600080fd5b506101f4610622565b34801561023c57600080fd5b506101f4610628565b34801561025157600080fd5b5061025a61062e565b604080519115158252519081900360200190f35b34801561027a57600080fd5b506101c3610677565b34801561028f57600080fd5b506101ac610686565b3480156102a457600080fd5b506101f461080d565b3480156102b957600080fd5b506101f4600480360360408110156102d057600080fd5b50600160a060020a038135169060200135610813565b3480156102f257600080fd5b506101c36004803603602081101561030957600080fd5b5035610843565b34801561031c57600080fd5b506101f461086b565b34801561033157600080fd5b506101f4610871565b34801561034657600080fd5b5061025a610877565b34801561035b57600080fd5b506101c3610886565b34801561037057600080fd5b5061025a610895565b34801561038557600080fd5b5061025a6004803603602081101561039c57600080fd5b5035600160a060020a03166108b0565b3480156103b857600080fd5b506103df600480360360208110156103cf57600080fd5b5035600160a060020a03166108c9565b604080519384526020840192909252151582820152519081900360600190f35b34801561040b57600080fd5b506101f46108ed565b34801561042057600080fd5b506101f46108f3565b34801561043557600080fd5b506101f46108f9565b34801561044a57600080fd5b5061025a6108ff565b34801561045f57600080fd5b506101ac610908565b34801561047457600080fd5b506101ac6004803603604081101561048b57600080fd5b50600160a060020a0381351690602001351515610913565b3480156104af57600080fd5b506104b8610b34565b604051808260038111156104c857fe5b60ff16815260200191505060405180910390f35b3480156104e857600080fd5b506101ac600480360360208110156104ff57600080fd5b5035600160a060020a0316610b3d565b34801561051b57600080fd5b506101f4610b5d565b34801561053057600080fd5b506101c3610b63565b600254421015801561054d57506003544211155b151561055857600080fd5b600160a060020a0381166000908152600960205260408120541161057b57600080fd5b600160a060020a038116600090815260096020526040812060018082018054600284018054948690559490915560ff19831690935560075460ff909216916105c89163ffffffff610b7216565b60075580156105ec576005546105e4908363ffffffff610b7216565b600555610603565b6006546105ff908363ffffffff610b7216565b6006555b505050565b600154600160a060020a031681565b600d5481565b60b481565b60035481565b60125481565b60085460009060ff161561064157600080fd5b60035442101561065357506000610674565b6008805460ff1916600117905561067061066b610b87565b610b91565b5060015b90565b600e54600160a060020a031681565b60008054600154604080517f70a08231000000000000000000000000000000000000000000000000000000008152600160a060020a039283166004820152905191909216916370a08231916024808301926020929190829003018186803b1580156106f057600080fd5b505afa158015610704573d6000803e3d6000fd5b505050506040513d602081101561071a57600080fd5b50519050610726610895565b151561073157600080fd5b600e54600160a060020a0316331461074857600080fd5b60105460001061075757600080fd5b60105481101561076657600080fd5b600154600e54601054601254604080517fc18b0180000000000000000000000000000000000000000000000000000000008152600160a060020a0394851660048201526024810193909352604483019190915251919092169163c18b018091606480830192600092919082900301818387803b1580156107e557600080fd5b505af11580156107f9573d6000803e3d6000fd5b50506011805460ff19166003179055505050565b6103e881565b60136020528160005260406000208181548110151561082e57fe5b90600052602060002001600091509150505481565b600b80548290811061085157fe5b600091825260209091200154600160a060020a0316905081565b60065481565b60025481565b6000610881610b87565b905090565b600f54600160a060020a031681565b6000600160115460ff1660038111156108aa57fe5b14905090565b60006108c3600a8363ffffffff610c4616565b92915050565b60096020526000908152604090208054600182015460029092015490919060ff1683565b60105481565b600c5481565b60075481565b60085460ff1681565b61091133610c7d565b565b600254421015801561092757506003544211155b151561093257600080fd5b600160a060020a038216151561094757600080fd5b600160a060020a0382166000908152600960205260409020541561096a57600080fd5b60008054604080517f70a08231000000000000000000000000000000000000000000000000000000008152600160a060020a038681166004830152915191909216916370a08231916024808301926020929190829003018186803b1580156109d157600080fd5b505afa1580156109e5573d6000803e3d6000fd5b505050506040513d60208110156109fb57600080fd5b505160008054604080517f18160ddd00000000000000000000000000000000000000000000000000000000815290519394509192610a9f926103e892600160a060020a0316916318160ddd91600480820192602092909190829003018186803b158015610a6757600080fd5b505afa158015610a7b573d6000803e3d6000fd5b505050506040513d6020811015610a9157600080fd5b50519063ffffffff610cc516565b905080821115610aaf5780610ab1565b815b91508215610ad457600554610acc908363ffffffff610ce916565b600555610aeb565b600654610ae7908363ffffffff610ce916565b6006555b600160a060020a038416600090815260096020526040902042815560018082018490556002909101805460ff1916851515179055600754610b2b91610ce9565b60075550505050565b60115460ff1681565b610b46336108b0565b1515610b5157600080fd5b610b5a81610d02565b50565b60055481565b600054600160a060020a031681565b600082821115610b8157600080fd5b50900390565b6006546005541190565b808015610ba0575060085460ff165b15610bb257610bad610d98565b610bba565b610bba610e05565b600154600c54604080517f7370407d0000000000000000000000000000000000000000000000000000000081526004810192909252831515602483015251600160a060020a0390921691637370407d9160448082019260009290919082900301818387803b158015610c2b57600080fd5b505af1158015610c3f573d6000803e3d6000fd5b5050505050565b6000600160a060020a0382161515610c5d57600080fd5b50600160a060020a03166000908152602091909152604090205460ff1690565b610c8e600a8263ffffffff610e1916565b604051600160a060020a038216907f6e76fb4c77256006d9c38ec7d82b45a8c8f3c27b1d6766fffc42dfb8de68449290600090a250565b6000808211610cd357600080fd5b60008284811515610ce057fe5b04949350505050565b600082820183811015610cfb57600080fd5b9392505050565b610d13600a8263ffffffff610e6516565b600b805460018101825560009182527f0175b7a638427703f0dbe7bb9bbf987a2551717b34e79f33b5b1008d1fa01db901805473ffffffffffffffffffffffffffffffffffffffff1916600160a060020a03841690811790915560405190917fb251eb052afc73ffd02ffe85ad79990a8b3fed60d76dbc2fa2fdd7123dffd91491a250565b601180546001919060ff191682805b0217905550600c546011546040518281527f90ab42752b8b3a3e8bcb9cba7d57f5bf87db421f9885bb1c203f08d0ef199c20929160ff169060208101826003811115610def57fe5b60ff1681526020019250505060405180910390a1565b601180546002919060ff1916600183610da7565b600160a060020a0381161515610e2e57600080fd5b610e388282610c46565b1515610e4357600080fd5b600160a060020a0316600090815260209190915260409020805460ff19169055565b600160a060020a0381161515610e7a57600080fd5b610e848282610c46565b15610e8e57600080fd5b600160a060020a0316600090815260209190915260409020805460ff1916600117905556fea165627a7a72305820222b06412a5d698197540ad17c1bc30b7af62bb79cd92b9db7b0a1f529ac806e0029a165627a7a723058200ad77d01875c919d3e90efc98f0fe872eb6b1f85e5e233966c719eed7990a1880029",
  "source": "pragma solidity ^0.5.0;\n\nimport './reward/Reward.sol';\nimport './rule/Rules.sol';\nimport './THXToken.sol';\n\ncontract RewardPool is Rules {\n\n    event Deposited(address indexed sender, uint256 amount);\n    event Withdrawn(address indexed beneficiary, uint256 reward);\n\n    event RewardPollCreated(uint256 id, address reward);\n    event RewardPollFinished(uint256 id, address reward, bool approved);\n\n    THXToken public token;\n    string public name;\n    address public creator;\n\n    Reward[] public rewards;\n\n    struct Deposit {\n        uint256 amount;\n        address sender;\n        uint256 created;\n    }\n\n    struct Withdrawel {\n        uint256 amount;\n        address receiver;\n        uint256 created;\n    }\n\n    mapping (address => Deposit[]) public deposits;\n    mapping (address => Withdrawel[]) public withdrawels;\n    mapping (address => Reward[]) public rewardsOf;\n\n    constructor(\n        string memory _name,\n        address _tokenAddress\n    ) public\n        Rules(_tokenAddress)\n    {\n        name = _name;\n        token = THXToken(_tokenAddress);\n        creator = msg.sender;\n    }\n\n    /**\n    * @dev Updates the pool name set initially through the constructor.\n    * @param value The new pool name.\n    */\n    function updatePoolName(string memory value) public onlyManager {\n        name = value;\n    }\n\n    /**\n    * @dev Stores the sent amount as tokens in the Reward Pool.\n    * @param amount The amount the sender deposited.\n    */\n    function deposit(uint256 amount) public {\n        require(token.balanceOf(msg.sender) > 0);\n        require(amount > 0);\n\n        // Approve the token transaction.\n        token.approveDeposit(msg.sender, address(this), amount);\n\n        // Transfer the tokens from the sender to the pool\n        token.transferDeposit(msg.sender, address(this), amount);\n\n        Deposit memory d;\n        d.amount = amount;\n        d.sender = msg.sender;\n        d.created = now;\n\n        deposits[msg.sender].push(d);\n\n        emit Deposited(d.sender, d.amount);\n    }\n\n    /**\n    * @dev Counts the amount of Rewards.\n    */\n    function countRewards() public view returns (uint256) {\n        return rewards.length;\n    }\n\n    /**\n    * @dev Counts the amount of Rewards.\n    */\n    function countRewardsOf(address beneficiary) public view returns (uint256) {\n        return rewardsOf[beneficiary].length;\n    }\n\n    /**\n    * @dev Counts the amount of Deposits for an address.\n    */\n    function countDeposits(address sender) public view returns (uint256) {\n        return deposits[sender].length;\n    }\n\n    /**\n    * @dev Counts the amount of Withdrawels for an address.\n    */\n    function countWithdrawels(address receiver) public view returns (uint256) {\n        return withdrawels[receiver].length;\n    }\n\n    /**\n    * @dev Creates the suggested reward.\n    * @param rule Reference id of the rule\n    * @param account Address of the beneficiary\n    */\n    function createReward(uint256 rule, address account) public {\n        Reward reward = new Reward(rewards.length, rule, account, msg.sender, rules[rule].amount, address(token), address(this));\n\n        emit RewardPollCreated(rewards.length, address(reward));\n\n        rewards.push(reward);\n        rewardsOf[account].push(reward);\n    }\n\n    /**\n    * @dev Vote for the suggested reward.\n    * @param id Referenced Reward\n    * @param agree Approve or reject reward.\n    */\n    function voteForReward(uint256 id, bool agree) public onlyManager {\n        rewards[id].vote(msg.sender, agree);\n    }\n\n    /**\n    * @dev Vote for the suggested reward.\n    * @param id Reference to thte reward\n    */\n    function revokeVoteForReward(uint256 id) public onlyManager {\n        rewards[id].revokeVote(msg.sender);\n    }\n\n    /**\n    * @dev Called when poll is finished\n    * @param id Reference to the reward rule\n    * @param agree Bool for checking the result of the poll.\n    */\n    function onRewardPollFinish(uint256 id, bool agree) external {\n        emit RewardPollFinished(id, address(rewards[id]), agree);\n    }\n\n    /**\n    * @dev callback called after reward is withdrawn\n    */\n    function onWithdrawel(address receiver, uint256 amount, uint256 created) external {\n        token.transfer(receiver, amount);\n\n        Withdrawel memory w;\n        w.amount = amount;\n        w.receiver = receiver;\n        w.created = created;\n\n        withdrawels[receiver].push(w);\n\n        emit Withdrawn(w.receiver, w.amount);\n    }\n\n}\n",
  "sourcePath": "/Users/peterpolman/Sites/thx/wallet/contracts/RewardPool.sol",
  "compiler": {
    "name": "solc",
    "version": "0.5.0+commit.1d4f565a.Emscripten.clang"
  },
  "schemaVersion": "3.0.1",
  "updatedAt": "2020-03-31T16:40:02.782Z",
  "devdoc": {
    "methods": {
      "countDeposits(address)": {
        "details": "Counts the amount of Deposits for an address."
      },
      "countRewards()": {
        "details": "Counts the amount of Rewards."
      },
      "countRewardsOf(address)": {
        "details": "Counts the amount of Rewards."
      },
      "countRules()": {
        "details": "Counts the amount of rules."
      },
      "countWithdrawels(address)": {
        "details": "Counts the amount of Withdrawels for an address."
      },
      "createReward(uint256,address)": {
        "details": "Creates the suggested reward.",
        "params": {
          "account": "Address of the beneficiary",
          "rule": "Reference id of the rule"
        }
      },
      "createRule()": {
        "details": "Creates the initial reward rule."
      },
      "deposit(uint256)": {
        "details": "Stores the sent amount as tokens in the Reward Pool.",
        "params": {
          "amount": "The amount the sender deposited."
        }
      },
      "onRewardPollFinish(uint256,bool)": {
        "details": "Called when poll is finished",
        "params": {
          "agree": "Bool for checking the result of the poll.",
          "id": "Reference to the reward rule"
        }
      },
      "onRulePollFinish(uint256,bool,uint256)": {
        "details": "Called when poll is finished",
        "params": {
          "agree": "Bool for checking the result of the poll.",
          "id": "Referenced reward rule",
          "proposedAmount": "The proposed reward size."
        }
      },
      "onWithdrawel(address,uint256,uint256)": {
        "details": "callback called after reward is withdrawn"
      },
      "revokeVoteForReward(uint256)": {
        "details": "Vote for the suggested reward.",
        "params": {
          "id": "Reference to thte reward"
        }
      },
      "revokeVoteForRule(uint256)": {
        "details": "Vote for the suggested rule.",
        "params": {
          "id": "reference to the rule that the poll runs for"
        }
      },
      "startRulePoll(uint256,uint256)": {
        "details": "Starts the rule poll for chaning the amount.",
        "params": {
          "id": "The new amount for the rule."
        }
      },
      "updatePoolName(string)": {
        "details": "Updates the pool name set initially through the constructor.",
        "params": {
          "value": "The new pool name."
        }
      },
      "voteForReward(uint256,bool)": {
        "details": "Vote for the suggested reward.",
        "params": {
          "agree": "Approve or reject reward.",
          "id": "Referenced Reward"
        }
      },
      "voteForRule(uint256,bool)": {
        "details": "Vote for the suggested rule.",
        "params": {
          "agree": "Approve or reject rule.",
          "id": "reference to the rule that the poll runs for"
        }
      }
    }
  },
  "userdoc": {
    "methods": {}
  }
}