{
  "_format": "hh-sol-artifact-1",
  "contractName": "WithdrawPoll",
  "sourceName": "contracts/contracts/05-Withdraw/WithdrawPoll.sol",
  "abi": [
    {
      "anonymous": false,
      "inputs": [
        {
          "indexed": true,
          "internalType": "bytes32",
          "name": "role",
          "type": "bytes32"
        },
        {
          "indexed": true,
          "internalType": "bytes32",
          "name": "previousAdminRole",
          "type": "bytes32"
        },
        {
          "indexed": true,
          "internalType": "bytes32",
          "name": "newAdminRole",
          "type": "bytes32"
        }
      ],
      "name": "RoleAdminChanged",
      "type": "event"
    },
    {
      "anonymous": false,
      "inputs": [
        {
          "indexed": true,
          "internalType": "bytes32",
          "name": "role",
          "type": "bytes32"
        },
        {
          "indexed": true,
          "internalType": "address",
          "name": "account",
          "type": "address"
        },
        {
          "indexed": true,
          "internalType": "address",
          "name": "sender",
          "type": "address"
        }
      ],
      "name": "RoleGranted",
      "type": "event"
    },
    {
      "anonymous": false,
      "inputs": [
        {
          "indexed": true,
          "internalType": "bytes32",
          "name": "role",
          "type": "bytes32"
        },
        {
          "indexed": true,
          "internalType": "address",
          "name": "account",
          "type": "address"
        },
        {
          "indexed": true,
          "internalType": "address",
          "name": "sender",
          "type": "address"
        }
      ],
      "name": "RoleRevoked",
      "type": "event"
    },
    {
      "anonymous": false,
      "inputs": [
        {
          "indexed": false,
          "internalType": "uint256",
          "name": "id",
          "type": "uint256"
        },
        {
          "indexed": false,
          "internalType": "bool",
          "name": "approved",
          "type": "bool"
        }
      ],
      "name": "WithdrawPollFinalized",
      "type": "event"
    },
    {
      "anonymous": false,
      "inputs": [
        {
          "indexed": false,
          "internalType": "uint256",
          "name": "id",
          "type": "uint256"
        },
        {
          "indexed": true,
          "internalType": "address",
          "name": "member",
          "type": "address"
        }
      ],
      "name": "WithdrawPollRevokedVote",
      "type": "event"
    },
    {
      "anonymous": false,
      "inputs": [
        {
          "indexed": false,
          "internalType": "uint256",
          "name": "id",
          "type": "uint256"
        },
        {
          "indexed": true,
          "internalType": "address",
          "name": "member",
          "type": "address"
        },
        {
          "indexed": false,
          "internalType": "bool",
          "name": "vote",
          "type": "bool"
        }
      ],
      "name": "WithdrawPollVoted",
      "type": "event"
    },
    {
      "anonymous": false,
      "inputs": [
        {
          "indexed": false,
          "internalType": "uint256",
          "name": "id",
          "type": "uint256"
        },
        {
          "indexed": true,
          "internalType": "address",
          "name": "member",
          "type": "address"
        },
        {
          "indexed": false,
          "internalType": "uint256",
          "name": "reward",
          "type": "uint256"
        }
      ],
      "name": "Withdrawn",
      "type": "event"
    },
    {
      "inputs": [],
      "name": "_withdrawPollApprovalState",
      "outputs": [
        {
          "internalType": "bool",
          "name": "",
          "type": "bool"
        }
      ],
      "stateMutability": "view",
      "type": "function"
    },
    {
      "inputs": [],
      "name": "_withdrawPollFinalize",
      "outputs": [],
      "stateMutability": "nonpayable",
      "type": "function"
    },
    {
      "inputs": [],
      "name": "_withdrawPollRevokeVote",
      "outputs": [],
      "stateMutability": "nonpayable",
      "type": "function"
    },
    {
      "inputs": [
        {
          "internalType": "bool",
          "name": "_agree",
          "type": "bool"
        }
      ],
      "name": "_withdrawPollVote",
      "outputs": [],
      "stateMutability": "nonpayable",
      "type": "function"
    },
    {
      "inputs": [
        {
          "internalType": "uint256",
          "name": "_id",
          "type": "uint256"
        }
      ],
      "name": "getAmount",
      "outputs": [
        {
          "internalType": "uint256",
          "name": "",
          "type": "uint256"
        }
      ],
      "stateMutability": "view",
      "type": "function"
    },
    {
      "inputs": [
        {
          "internalType": "uint256",
          "name": "_id",
          "type": "uint256"
        }
      ],
      "name": "getBeneficiary",
      "outputs": [
        {
          "internalType": "uint256",
          "name": "",
          "type": "uint256"
        }
      ],
      "stateMutability": "view",
      "type": "function"
    }
  ],
  "bytecode": "0x608060405234801561001057600080fd5b50611400806100206000396000f3fe608060405234801561001057600080fd5b50600436106100625760003560e01c8063302df083146100675780637bfefd65146100975780637dad9c39146100b55780639980ec86146100bf578063b414838f146100ef578063d18faaa81461010b575b600080fd5b610081600480360381019061007c9190611155565b610115565b60405161008e91906112af565b60405180910390f35b61009f61012b565b6040516100ac9190611254565b60405180910390f35b6100bd6101b0565b005b6100d960048036038101906100d49190611155565b610221565b6040516100e691906112af565b60405180910390f35b61010960048036038101906101049190611103565b610237565b005b61011361030c565b005b6000610120826103dd565b600001549050919050565b6000806101366103f4565b9050600061014782600001546103dd565b9050600081600001541415610191576040517f08c379a00000000000000000000000000000000000000000000000000000000081526004016101889061126f565b60405180910390fd5b600061019b6103f4565b90508060040154816003015411935050505090565b60006101ba6103f4565b905060006101cb82600001546103dd565b9050600081600001541415610215576040517f08c379a000000000000000000000000000000000000000000000000000000000815260040161020c9061126f565b60405180910390fd5b61021d61040b565b5050565b600061022c826103dd565b600101549050919050565b60006102416103f4565b9050600061025282600001546103dd565b905060008160000154141561029c576040517f08c379a00000000000000000000000000000000000000000000000000000000081526004016102939061126f565b60405180910390fd5b6102a5836104d1565b6102ad6107be565b73ffffffffffffffffffffffffffffffffffffffff167fa9fd0834e2afbba73e314f3cf92c04a694d27ab99e31eb4ce8e51d57f7890d596102ec6103f4565b60000154856040516102ff9291906112ca565b60405180910390a2505050565b60006103166103f4565b9050600061032782600001546103dd565b9050600081600001541415610371576040517f08c379a00000000000000000000000000000000000000000000000000000000081526004016103689061126f565b60405180910390fd5b610379610833565b6103816107be565b73ffffffffffffffffffffffffffffffffffffffff167fee64e7a6623d1cff201c83363d0162fe855c5f1b7fc38f48bdb14968a1c8fb576103c06103f4565b600001546040516103d191906112af565b60405180910390a25050565b6000806103e983610b9c565b905080915050919050565b6000610406610401610be8565b610c4b565b905090565b60006104156103f4565b90508060020154421015610491576040517f08c379a000000000000000000000000000000000000000000000000000000000815260040180806020018281038252600b8152602001807f57524f4e475f535441544500000000000000000000000000000000000000000081525060200191505060405180910390fd5b61049e8160000154610c55565b80600001600090558060010160009055806002016000905580600301600090558060040160009055806005016000905550565b60006104db6103f4565b9050806001015442101580156104f5575080600201544211155b610567576040517f08c379a00000000000000000000000000000000000000000000000000000000081526004018080602001828103825260108152602001807f49535f4e4f5f56414c49445f54494d450000000000000000000000000000000081525060200191505060405180910390fd5b610578826105736107be565b610e20565b60006105826103f4565b905060008160060160006105946107be565b73ffffffffffffffffffffffffffffffffffffffff1673ffffffffffffffffffffffffffffffffffffffff1681526020019081526020016000206000015414610645576040517f08c379a00000000000000000000000000000000000000000000000000000000081526004018080602001828103825260098152602001807f4841535f564f544544000000000000000000000000000000000000000000000081525060200191505060405180910390fd5b600060019050831561067557610668818360030154610e6c90919063ffffffff16565b8260030181905550610695565b61068c818360040154610e6c90919063ffffffff16565b82600401819055505b428260060160006106a46107be565b73ffffffffffffffffffffffffffffffffffffffff1673ffffffffffffffffffffffffffffffffffffffff16815260200190815260200160002060000181905550808260060160006106f46107be565b73ffffffffffffffffffffffffffffffffffffffff1673ffffffffffffffffffffffffffffffffffffffff16815260200190815260200160002060010181905550838260060160006107446107be565b73ffffffffffffffffffffffffffffffffffffffff1673ffffffffffffffffffffffffffffffffffffffff16815260200190815260200160002060020160006101000a81548160ff0219169083151502179055506107b060018360050154610e6c90919063ffffffff16565b826005018190555050505050565b600060606000368080601f016020809104026020016040519081016040528093929190818152602001838380828437600081840152601f19601f820116905080830192505050505050509050600080369050905073ffffffffffffffffffffffffffffffffffffffff81830151169250505090565b600061083d6103f4565b905080600101544210158015610857575080600201544211155b6108c9576040517f08c379a00000000000000000000000000000000000000000000000000000000081526004018080602001828103825260108152602001807f49535f4e4f5f56414c49445f54494d450000000000000000000000000000000081525060200191505060405180910390fd5b60006108d36103f4565b905060006108df6107be565b905060008260060160008373ffffffffffffffffffffffffffffffffffffffff1673ffffffffffffffffffffffffffffffffffffffff168152602001908152602001600020600001541161099b576040517f08c379a000000000000000000000000000000000000000000000000000000000815260040180806020018281038252600d8152602001807f4841535f4e4f545f564f5445440000000000000000000000000000000000000081525060200191505060405180910390fd5b60008260060160008373ffffffffffffffffffffffffffffffffffffffff1673ffffffffffffffffffffffffffffffffffffffff16815260200190815260200160002060010154905060008360060160008473ffffffffffffffffffffffffffffffffffffffff1673ffffffffffffffffffffffffffffffffffffffff16815260200190815260200160002060020160009054906101000a900460ff16905060008460060160008573ffffffffffffffffffffffffffffffffffffffff1673ffffffffffffffffffffffffffffffffffffffff1681526020019081526020016000206000018190555060008460060160008573ffffffffffffffffffffffffffffffffffffffff1673ffffffffffffffffffffffffffffffffffffffff1681526020019081526020016000206001018190555060008460060160008573ffffffffffffffffffffffffffffffffffffffff1673ffffffffffffffffffffffffffffffffffffffff16815260200190815260200160002060020160006101000a81548160ff021916908315150217905550610b4360018560050154610ef490919063ffffffff16565b84600501819055508015610b7557610b68828560030154610ef490919063ffffffff16565b8460030181905550610b95565b610b8c828560040154610ef490919063ffffffff16565b84600401819055505b5050505050565b6000816040516020018080602001838152602001828103825260278152602001806113a46027913960400192505050604051602081830303815290604052805190602001209050919050565b600060606000368080601f016020809104026020016040519081016040528093929190818152602001838380828437600081840152601f19601f820116905080830192505050505050509050600060146000369050039050808201519250505090565b6000819050919050565b6000610c5f61012b565b90506000610c6c836103dd565b90508115610dd2576000610c7e610f77565b60000160009054906101000a900473ffffffffffffffffffffffffffffffffffffffff1690506000610cae610fa4565b60020160008460000154815260200190815260200160002060009054906101000a900473ffffffffffffffffffffffffffffffffffffffff1690508173ffffffffffffffffffffffffffffffffffffffff1663a9059cbb8285600101546040518363ffffffff1660e01b8152600401610d2892919061122b565b602060405180830381600087803b158015610d4257600080fd5b505af1158015610d56573d6000803e3d6000fd5b505050506040513d601f19601f82011682018060405250810190610d7a919061112c565b508073ffffffffffffffffffffffffffffffffffffffff167fcf7d23a3cbe4e8b36ff82fd1b05b1b17373dc7804b4ebbd6e2356716ef202372868560010154604051610dc79291906112f3565b60405180910390a250505b7fa207d5145c3030050ff72fa91f5f37445b6aa4850cf1f03c11c24b5f7dd458338383604051610e039291906112ca565b60405180910390a180600001600090558060010160009055505050565b610e2981610fd1565b610e68576040517f08c379a0000000000000000000000000000000000000000000000000000000008152600401610e5f9061128f565b60405180910390fd5b5050565b600080828401905083811015610eea576040517f08c379a000000000000000000000000000000000000000000000000000000000815260040180806020018281038252601b8152602001807f536166654d6174683a206164646974696f6e206f766572666c6f77000000000081525060200191505060405180910390fd5b8091505092915050565b600082821115610f6c576040517f08c379a000000000000000000000000000000000000000000000000000000000815260040180806020018281038252601e8152602001807f536166654d6174683a207375627472616374696f6e206f766572666c6f77000081525060200191505060405180910390fd5b818303905092915050565b6000807fa716b7cce20ffbe12e5c0af3eb2f57d81251cd975b53428558ae4ad51b4f942590508091505090565b6000807faa97fdeef5de5607974189e6a2429d502dcc32b43d658c3c065d5ca083ee1fab90508091505090565b6000610ffd7f241ecf16d79d0f8dbfb92cbc07fe17840425976cf0667f022fe9877caa831b0883611004565b9050919050565b60008061100f611044565b905061103b8382600001600087815260200190815260200160002060000161107190919063ffffffff16565b91505092915050565b6000807f6282190449f76f72a9f692e4d8619a03764b7253394788948e36a7a57ba4a00e90508091505090565b6000611099836000018373ffffffffffffffffffffffffffffffffffffffff1660001b6110a1565b905092915050565b600080836001016000848152602001908152602001600020541415905092915050565b6000813590506110d381611375565b92915050565b6000815190506110e881611375565b92915050565b6000813590506110fd8161138c565b92915050565b60006020828403121561111557600080fd5b6000611123848285016110c4565b91505092915050565b60006020828403121561113e57600080fd5b600061114c848285016110d9565b91505092915050565b60006020828403121561116757600080fd5b6000611175848285016110ee565b91505092915050565b6111878161132d565b82525050565b6111968161133f565b82525050565b60006111a960118361131c565b91507f4e4f545f57495448445241575f504f4c4c0000000000000000000000000000006000830152602082019050919050565b60006111e9600a8361131c565b91507f4e4f5f4d414e41474552000000000000000000000000000000000000000000006000830152602082019050919050565b6112258161136b565b82525050565b6000604082019050611240600083018561117e565b61124d602083018461121c565b9392505050565b6000602082019050611269600083018461118d565b92915050565b600060208201905081810360008301526112888161119c565b9050919050565b600060208201905081810360008301526112a8816111dc565b9050919050565b60006020820190506112c4600083018461121c565b92915050565b60006040820190506112df600083018561121c565b6112ec602083018461118d565b9392505050565b6000604082019050611308600083018561121c565b611315602083018461121c565b9392505050565b600082825260208201905092915050565b60006113388261134b565b9050919050565b60008115159050919050565b600073ffffffffffffffffffffffffffffffffffffffff82169050919050565b6000819050919050565b61137e8161133f565b811461138957600080fd5b50565b6113958161136b565b81146113a057600080fd5b5056fe6469616d6f6e642e636f6e74726163742e6173736574706f6f6c2e7769746864726177706f6c6ca26469706673582212208e920c0258d0a775651ed2f09abe1bbeb5a85ef8e58ffb80a9641bc36809918364736f6c63430007040033",
  "linkReferences": {},
  "deployedLinkReferences": {}
}