{
  "_format": "hh-sol-artifact-1",
  "contractName": "WithdrawByPoll",
  "sourceName": "contracts/contracts/09-WithdrawBypass/WithdrawByPoll.sol",
  "abi": [
    {
      "anonymous": false,
      "inputs": [
        {
          "indexed": true,
          "internalType": "bytes32",
          "name": "role",
          "type": "bytes32"
        },
        {
          "indexed": true,
          "internalType": "bytes32",
          "name": "previousAdminRole",
          "type": "bytes32"
        },
        {
          "indexed": true,
          "internalType": "bytes32",
          "name": "newAdminRole",
          "type": "bytes32"
        }
      ],
      "name": "RoleAdminChanged",
      "type": "event"
    },
    {
      "anonymous": false,
      "inputs": [
        {
          "indexed": true,
          "internalType": "bytes32",
          "name": "role",
          "type": "bytes32"
        },
        {
          "indexed": true,
          "internalType": "address",
          "name": "account",
          "type": "address"
        },
        {
          "indexed": true,
          "internalType": "address",
          "name": "sender",
          "type": "address"
        }
      ],
      "name": "RoleGranted",
      "type": "event"
    },
    {
      "anonymous": false,
      "inputs": [
        {
          "indexed": true,
          "internalType": "bytes32",
          "name": "role",
          "type": "bytes32"
        },
        {
          "indexed": true,
          "internalType": "address",
          "name": "account",
          "type": "address"
        },
        {
          "indexed": true,
          "internalType": "address",
          "name": "sender",
          "type": "address"
        }
      ],
      "name": "RoleRevoked",
      "type": "event"
    },
    {
      "anonymous": false,
      "inputs": [
        {
          "indexed": false,
          "internalType": "uint256",
          "name": "id",
          "type": "uint256"
        },
        {
          "indexed": false,
          "internalType": "bool",
          "name": "approved",
          "type": "bool"
        }
      ],
      "name": "WithdrawPollFinalized",
      "type": "event"
    },
    {
      "anonymous": false,
      "inputs": [
        {
          "indexed": false,
          "internalType": "uint256",
          "name": "id",
          "type": "uint256"
        },
        {
          "indexed": true,
          "internalType": "address",
          "name": "member",
          "type": "address"
        }
      ],
      "name": "WithdrawPollRevokedVote",
      "type": "event"
    },
    {
      "anonymous": false,
      "inputs": [
        {
          "indexed": false,
          "internalType": "uint256",
          "name": "id",
          "type": "uint256"
        },
        {
          "indexed": true,
          "internalType": "address",
          "name": "member",
          "type": "address"
        },
        {
          "indexed": false,
          "internalType": "bool",
          "name": "vote",
          "type": "bool"
        }
      ],
      "name": "WithdrawPollVoted",
      "type": "event"
    },
    {
      "anonymous": false,
      "inputs": [
        {
          "indexed": false,
          "internalType": "uint256",
          "name": "id",
          "type": "uint256"
        },
        {
          "indexed": true,
          "internalType": "address",
          "name": "member",
          "type": "address"
        },
        {
          "indexed": false,
          "internalType": "uint256",
          "name": "reward",
          "type": "uint256"
        }
      ],
      "name": "Withdrawn",
      "type": "event"
    },
    {
      "inputs": [],
      "name": "_withdrawPollApprovalState",
      "outputs": [
        {
          "internalType": "bool",
          "name": "",
          "type": "bool"
        }
      ],
      "stateMutability": "view",
      "type": "function"
    },
    {
      "inputs": [],
      "name": "_withdrawPollFinalize",
      "outputs": [],
      "stateMutability": "nonpayable",
      "type": "function"
    },
    {
      "inputs": [],
      "name": "_withdrawPollRevokeVote",
      "outputs": [],
      "stateMutability": "nonpayable",
      "type": "function"
    },
    {
      "inputs": [
        {
          "internalType": "bool",
          "name": "_agree",
          "type": "bool"
        }
      ],
      "name": "_withdrawPollVote",
      "outputs": [],
      "stateMutability": "nonpayable",
      "type": "function"
    },
    {
      "inputs": [
        {
          "internalType": "uint256",
          "name": "_id",
          "type": "uint256"
        }
      ],
      "name": "getAmount",
      "outputs": [
        {
          "internalType": "uint256",
          "name": "",
          "type": "uint256"
        }
      ],
      "stateMutability": "view",
      "type": "function"
    },
    {
      "inputs": [
        {
          "internalType": "uint256",
          "name": "_id",
          "type": "uint256"
        }
      ],
      "name": "getBeneficiary",
      "outputs": [
        {
          "internalType": "uint256",
          "name": "",
          "type": "uint256"
        }
      ],
      "stateMutability": "view",
      "type": "function"
    }
  ],
  "bytecode": "0x608060405234801561001057600080fd5b506117a2806100206000396000f3fe608060405234801561001057600080fd5b50600436106100625760003560e01c8063302df083146100675780637bfefd65146100975780637dad9c39146100b55780639980ec86146100bf578063b414838f146100ef578063d18faaa81461010b575b600080fd5b610081600480360381019061007c9190611511565b610115565b60405161008e9190611633565b60405180910390f35b61009f61012b565b6040516100ac91906115d8565b60405180910390f35b6100bd61019a565b005b6100d960048036038101906100d49190611511565b61020b565b6040516100e69190611633565b60405180910390f35b610109600480360381019061010491906114e8565b610221565b005b6101136102f6565b005b6000610120826103c7565b600001549050919050565b6000806101366103de565b9050600061014782600001546103c7565b9050600081600001541415610191576040517f08c379a0000000000000000000000000000000000000000000000000000000008152600401610188906115f3565b60405180910390fd5b60019250505090565b60006101a46103de565b905060006101b582600001546103c7565b90506000816000015414156101ff576040517f08c379a00000000000000000000000000000000000000000000000000000000081526004016101f6906115f3565b60405180910390fd5b6102076103f5565b5050565b6000610216826103c7565b600101549050919050565b600061022b6103de565b9050600061023c82600001546103c7565b9050600081600001541415610286576040517f08c379a000000000000000000000000000000000000000000000000000000000815260040161027d906115f3565b60405180910390fd5b61028f836104bb565b6102976107a8565b73ffffffffffffffffffffffffffffffffffffffff167fa9fd0834e2afbba73e314f3cf92c04a694d27ab99e31eb4ce8e51d57f7890d596102d66103de565b60000154856040516102e992919061164e565b60405180910390a2505050565b60006103006103de565b9050600061031182600001546103c7565b905060008160000154141561035b576040517f08c379a0000000000000000000000000000000000000000000000000000000008152600401610352906115f3565b60405180910390fd5b61036361081d565b61036b6107a8565b73ffffffffffffffffffffffffffffffffffffffff167fee64e7a6623d1cff201c83363d0162fe855c5f1b7fc38f48bdb14968a1c8fb576103aa6103de565b600001546040516103bb9190611633565b60405180910390a25050565b6000806103d383610b86565b905080915050919050565b60006103f06103eb610bd2565b610c35565b905090565b60006103ff6103de565b9050806002015442101561047b576040517f08c379a000000000000000000000000000000000000000000000000000000000815260040180806020018281038252600b8152602001807f57524f4e475f535441544500000000000000000000000000000000000000000081525060200191505060405180910390fd5b6104888160000154610c3f565b80600001600090558060010160009055806002016000905580600301600090558060040160009055806005016000905550565b60006104c56103de565b9050806001015442101580156104df575080600201544211155b610551576040517f08c379a00000000000000000000000000000000000000000000000000000000081526004018080602001828103825260108152602001807f49535f4e4f5f56414c49445f54494d450000000000000000000000000000000081525060200191505060405180910390fd5b6105628261055d6107a8565b610de9565b600061056c6103de565b9050600081600601600061057e6107a8565b73ffffffffffffffffffffffffffffffffffffffff1673ffffffffffffffffffffffffffffffffffffffff168152602001908152602001600020600001541461062f576040517f08c379a00000000000000000000000000000000000000000000000000000000081526004018080602001828103825260098152602001807f4841535f564f544544000000000000000000000000000000000000000000000081525060200191505060405180910390fd5b600060019050831561065f57610652818360030154610e3590919063ffffffff16565b826003018190555061067f565b610676818360040154610e3590919063ffffffff16565b82600401819055505b4282600601600061068e6107a8565b73ffffffffffffffffffffffffffffffffffffffff1673ffffffffffffffffffffffffffffffffffffffff16815260200190815260200160002060000181905550808260060160006106de6107a8565b73ffffffffffffffffffffffffffffffffffffffff1673ffffffffffffffffffffffffffffffffffffffff168152602001908152602001600020600101819055508382600601600061072e6107a8565b73ffffffffffffffffffffffffffffffffffffffff1673ffffffffffffffffffffffffffffffffffffffff16815260200190815260200160002060020160006101000a81548160ff02191690831515021790555061079a60018360050154610e3590919063ffffffff16565b826005018190555050505050565b600060606000368080601f016020809104026020016040519081016040528093929190818152602001838380828437600081840152601f19601f820116905080830192505050505050509050600080369050905073ffffffffffffffffffffffffffffffffffffffff81830151169250505090565b60006108276103de565b905080600101544210158015610841575080600201544211155b6108b3576040517f08c379a00000000000000000000000000000000000000000000000000000000081526004018080602001828103825260108152602001807f49535f4e4f5f56414c49445f54494d450000000000000000000000000000000081525060200191505060405180910390fd5b60006108bd6103de565b905060006108c96107a8565b905060008260060160008373ffffffffffffffffffffffffffffffffffffffff1673ffffffffffffffffffffffffffffffffffffffff1681526020019081526020016000206000015411610985576040517f08c379a000000000000000000000000000000000000000000000000000000000815260040180806020018281038252600d8152602001807f4841535f4e4f545f564f5445440000000000000000000000000000000000000081525060200191505060405180910390fd5b60008260060160008373ffffffffffffffffffffffffffffffffffffffff1673ffffffffffffffffffffffffffffffffffffffff16815260200190815260200160002060010154905060008360060160008473ffffffffffffffffffffffffffffffffffffffff1673ffffffffffffffffffffffffffffffffffffffff16815260200190815260200160002060020160009054906101000a900460ff16905060008460060160008573ffffffffffffffffffffffffffffffffffffffff1673ffffffffffffffffffffffffffffffffffffffff1681526020019081526020016000206000018190555060008460060160008573ffffffffffffffffffffffffffffffffffffffff1673ffffffffffffffffffffffffffffffffffffffff1681526020019081526020016000206001018190555060008460060160008573ffffffffffffffffffffffffffffffffffffffff1673ffffffffffffffffffffffffffffffffffffffff16815260200190815260200160002060020160006101000a81548160ff021916908315150217905550610b2d60018560050154610ebd90919063ffffffff16565b84600501819055508015610b5f57610b52828560030154610ebd90919063ffffffff16565b8460030181905550610b7f565b610b76828560040154610ebd90919063ffffffff16565b84600401819055505b5050505050565b60008160405160200180806020018381526020018281038252602781526020018061171c6027913960400192505050604051602081830303815290604052805190602001209050919050565b600060606000368080601f016020809104026020016040519081016040528093929190818152602001838380828437600081840152601f19601f820116905080830192505050505050509050600060146000369050039050808201519250505090565b6000819050919050565b6000610c4961012b565b90506000610c56836103c7565b90508115610d9b576000610c68610f40565b90508160010154816001015410610ca157610c9482600101548260010154610ebd90919063ffffffff16565b8160010181905550610cac565b600081600101819055505b6000610cb6610f6d565b60020160008460000154815260200190815260200160002060009054906101000a900473ffffffffffffffffffffffffffffffffffffffff169050610d448184600101548460020160009054906101000a900473ffffffffffffffffffffffffffffffffffffffff1673ffffffffffffffffffffffffffffffffffffffff16610f9a9092919063ffffffff16565b8073ffffffffffffffffffffffffffffffffffffffff167fcf7d23a3cbe4e8b36ff82fd1b05b1b17373dc7804b4ebbd6e2356716ef202372868560010154604051610d90929190611677565b60405180910390a250505b7fa207d5145c3030050ff72fa91f5f37445b6aa4850cf1f03c11c24b5f7dd458338383604051610dcc92919061164e565b60405180910390a180600001600090558060010160009055505050565b610df28161103c565b610e31576040517f08c379a0000000000000000000000000000000000000000000000000000000008152600401610e2890611613565b60405180910390fd5b5050565b600080828401905083811015610eb3576040517f08c379a000000000000000000000000000000000000000000000000000000000815260040180806020018281038252601b8152602001807f536166654d6174683a206164646974696f6e206f766572666c6f77000000000081525060200191505060405180910390fd5b8091505092915050565b600082821115610f35576040517f08c379a000000000000000000000000000000000000000000000000000000000815260040180806020018281038252601e8152602001807f536166654d6174683a207375627472616374696f6e206f766572666c6f77000081525060200191505060405180910390fd5b818303905092915050565b6000807fa716b7cce20ffbe12e5c0af3eb2f57d81251cd975b53428558ae4ad51b4f942590508091505090565b6000807faa97fdeef5de5607974189e6a2429d502dcc32b43d658c3c065d5ca083ee1fab90508091505090565b6110378363a9059cbb60e01b8484604051602401808373ffffffffffffffffffffffffffffffffffffffff16815260200182815260200192505050604051602081830303815290604052907bffffffffffffffffffffffffffffffffffffffffffffffffffffffff19166020820180517bffffffffffffffffffffffffffffffffffffffffffffffffffffffff838183161783525050505061106f565b505050565b60006110687f241ecf16d79d0f8dbfb92cbc07fe17840425976cf0667f022fe9877caa831b088361115e565b9050919050565b60606110d1826040518060400160405280602081526020017f5361666545524332303a206c6f772d6c6576656c2063616c6c206661696c65648152508573ffffffffffffffffffffffffffffffffffffffff1661119e9092919063ffffffff16565b9050600081511115611159578080602001905160208110156110f257600080fd5b8101908080519060200190929190505050611158576040517f08c379a000000000000000000000000000000000000000000000000000000000815260040180806020018281038252602a815260200180611743602a913960400191505060405180910390fd5b5b505050565b6000806111696111b6565b9050611195838260000160008781526020019081526020016000206000016111e390919063ffffffff16565b91505092915050565b60606111ad8484600085611213565b90509392505050565b6000807f6282190449f76f72a9f692e4d8619a03764b7253394788948e36a7a57ba4a00e90508091505090565b600061120b836000018373ffffffffffffffffffffffffffffffffffffffff1660001b6113bc565b905092915050565b60608247101561126e576040517f08c379a00000000000000000000000000000000000000000000000000000000081526004018080602001828103825260268152602001806116f66026913960400191505060405180910390fd5b611277856113df565b6112e9576040517f08c379a000000000000000000000000000000000000000000000000000000000815260040180806020018281038252601d8152602001807f416464726573733a2063616c6c20746f206e6f6e2d636f6e747261637400000081525060200191505060405180910390fd5b600060608673ffffffffffffffffffffffffffffffffffffffff1685876040518082805190602001908083835b602083106113395780518252602082019150602081019050602083039250611316565b6001836020036101000a03801982511681845116808217855250505050505090500191505060006040518083038185875af1925050503d806000811461139b576040519150601f19603f3d011682016040523d82523d6000602084013e6113a0565b606091505b50915091506113b08282866113f2565b92505050949350505050565b600080836001016000848152602001908152602001600020541415905092915050565b600080823b905060008111915050919050565b60608315611402578290506114b7565b6000835111156114155782518084602001fd5b816040517f08c379a00000000000000000000000000000000000000000000000000000000081526004018080602001828103825283818151815260200191508051906020019080838360005b8381101561147c578082015181840152602081019050611461565b50505050905090810190601f1680156114a95780820380516001836020036101000a031916815260200191505b509250505060405180910390fd5b9392505050565b6000813590506114cd816116c7565b92915050565b6000813590506114e2816116de565b92915050565b6000602082840312156114fa57600080fd5b6000611508848285016114be565b91505092915050565b60006020828403121561152357600080fd5b6000611531848285016114d3565b91505092915050565b611543816116b1565b82525050565b60006115566011836116a0565b91507f4e4f545f57495448445241575f504f4c4c0000000000000000000000000000006000830152602082019050919050565b6000611596600a836116a0565b91507f4e4f5f4d414e41474552000000000000000000000000000000000000000000006000830152602082019050919050565b6115d2816116bd565b82525050565b60006020820190506115ed600083018461153a565b92915050565b6000602082019050818103600083015261160c81611549565b9050919050565b6000602082019050818103600083015261162c81611589565b9050919050565b600060208201905061164860008301846115c9565b92915050565b600060408201905061166360008301856115c9565b611670602083018461153a565b9392505050565b600060408201905061168c60008301856115c9565b61169960208301846115c9565b9392505050565b600082825260208201905092915050565b60008115159050919050565b6000819050919050565b6116d0816116b1565b81146116db57600080fd5b50565b6116e7816116bd565b81146116f257600080fd5b5056fe416464726573733a20696e73756666696369656e742062616c616e636520666f722063616c6c6469616d6f6e642e636f6e74726163742e6173736574706f6f6c2e7769746864726177706f6c6c5361666545524332303a204552433230206f7065726174696f6e20646964206e6f742073756363656564a2646970667358221220e053f6e0526700eacf590337cf375119686deb2f34d41cbb757794379cd76a1464736f6c63430007040033",
  "linkReferences": {},
  "deployedLinkReferences": {}
}