{
  "contractName": "RewardPool",
  "abi": [
    {
      "constant": true,
      "inputs": [],
      "name": "creator",
      "outputs": [
        {
          "name": "",
          "type": "address"
        }
      ],
      "payable": false,
      "stateMutability": "view",
      "type": "function",
      "signature": "0x02d05d3f"
    },
    {
      "constant": true,
      "inputs": [
        {
          "name": "",
          "type": "uint256"
        }
      ],
      "name": "rules",
      "outputs": [
        {
          "name": "id",
          "type": "uint256"
        },
        {
          "name": "amount",
          "type": "uint256"
        },
        {
          "name": "state",
          "type": "uint8"
        },
        {
          "name": "poll",
          "type": "address"
        },
        {
          "name": "creator",
          "type": "address"
        },
        {
          "name": "created",
          "type": "uint256"
        }
      ],
      "payable": false,
      "stateMutability": "view",
      "type": "function",
      "signature": "0x04d6ded4"
    },
    {
      "constant": true,
      "inputs": [],
      "name": "name",
      "outputs": [
        {
          "name": "",
          "type": "string"
        }
      ],
      "payable": false,
      "stateMutability": "view",
      "type": "function",
      "signature": "0x06fdde03"
    },
    {
      "constant": false,
      "inputs": [
        {
          "name": "account",
          "type": "address"
        }
      ],
      "name": "addManager",
      "outputs": [],
      "payable": false,
      "stateMutability": "nonpayable",
      "type": "function",
      "signature": "0x2d06177a"
    },
    {
      "constant": true,
      "inputs": [],
      "name": "countRules",
      "outputs": [
        {
          "name": "",
          "type": "uint256"
        }
      ],
      "payable": false,
      "stateMutability": "view",
      "type": "function",
      "signature": "0x31c54032"
    },
    {
      "constant": true,
      "inputs": [],
      "name": "RULE_POLL_DURATION",
      "outputs": [
        {
          "name": "",
          "type": "uint256"
        }
      ],
      "payable": false,
      "stateMutability": "view",
      "type": "function",
      "signature": "0x439c6f17"
    },
    {
      "constant": true,
      "inputs": [
        {
          "name": "",
          "type": "address"
        },
        {
          "name": "",
          "type": "uint256"
        }
      ],
      "name": "withdrawels",
      "outputs": [
        {
          "name": "amount",
          "type": "uint256"
        },
        {
          "name": "receiver",
          "type": "address"
        },
        {
          "name": "created",
          "type": "uint256"
        }
      ],
      "payable": false,
      "stateMutability": "view",
      "type": "function",
      "signature": "0x505e4b4a"
    },
    {
      "constant": false,
      "inputs": [
        {
          "name": "id",
          "type": "uint256"
        },
        {
          "name": "proposedAmount",
          "type": "uint256"
        }
      ],
      "name": "startRulePoll",
      "outputs": [],
      "payable": false,
      "stateMutability": "nonpayable",
      "type": "function",
      "signature": "0x563b373d"
    },
    {
      "constant": false,
      "inputs": [
        {
          "name": "id",
          "type": "uint256"
        },
        {
          "name": "agree",
          "type": "bool"
        },
        {
          "name": "proposedAmount",
          "type": "uint256"
        }
      ],
      "name": "onRulePollFinish",
      "outputs": [],
      "payable": false,
      "stateMutability": "nonpayable",
      "type": "function",
      "signature": "0x607ca15b"
    },
    {
      "constant": false,
      "inputs": [],
      "name": "createRule",
      "outputs": [],
      "payable": false,
      "stateMutability": "nonpayable",
      "type": "function",
      "signature": "0x83e7eb87"
    },
    {
      "constant": true,
      "inputs": [],
      "name": "minVotedTokensPerc",
      "outputs": [
        {
          "name": "",
          "type": "uint256"
        }
      ],
      "payable": false,
      "stateMutability": "view",
      "type": "function",
      "signature": "0x84219204"
    },
    {
      "constant": true,
      "inputs": [],
      "name": "MAX_VOTED_TOKEN_PERC",
      "outputs": [
        {
          "name": "",
          "type": "uint256"
        }
      ],
      "payable": false,
      "stateMutability": "view",
      "type": "function",
      "signature": "0x962c9c8d"
    },
    {
      "constant": true,
      "inputs": [
        {
          "name": "account",
          "type": "address"
        }
      ],
      "name": "isMember",
      "outputs": [
        {
          "name": "",
          "type": "bool"
        }
      ],
      "payable": false,
      "stateMutability": "view",
      "type": "function",
      "signature": "0xa230c524"
    },
    {
      "constant": false,
      "inputs": [
        {
          "name": "id",
          "type": "uint256"
        }
      ],
      "name": "revokeVoteForRule",
      "outputs": [],
      "payable": false,
      "stateMutability": "nonpayable",
      "type": "function",
      "signature": "0xb8771a34"
    },
    {
      "constant": false,
      "inputs": [],
      "name": "renounceMember",
      "outputs": [],
      "payable": false,
      "stateMutability": "nonpayable",
      "type": "function",
      "signature": "0xbad5ba01"
    },
    {
      "constant": false,
      "inputs": [
        {
          "name": "account",
          "type": "address"
        }
      ],
      "name": "addMember",
      "outputs": [],
      "payable": false,
      "stateMutability": "nonpayable",
      "type": "function",
      "signature": "0xca6d56dc"
    },
    {
      "constant": true,
      "inputs": [
        {
          "name": "",
          "type": "address"
        },
        {
          "name": "",
          "type": "uint256"
        }
      ],
      "name": "deposits",
      "outputs": [
        {
          "name": "amount",
          "type": "uint256"
        },
        {
          "name": "sender",
          "type": "address"
        },
        {
          "name": "created",
          "type": "uint256"
        }
      ],
      "payable": false,
      "stateMutability": "view",
      "type": "function",
      "signature": "0xd6d68177"
    },
    {
      "constant": false,
      "inputs": [
        {
          "name": "id",
          "type": "uint256"
        },
        {
          "name": "agree",
          "type": "bool"
        }
      ],
      "name": "voteForRule",
      "outputs": [],
      "payable": false,
      "stateMutability": "nonpayable",
      "type": "function",
      "signature": "0xe213cf0f"
    },
    {
      "constant": true,
      "inputs": [
        {
          "name": "",
          "type": "uint256"
        }
      ],
      "name": "rewards",
      "outputs": [
        {
          "name": "",
          "type": "address"
        }
      ],
      "payable": false,
      "stateMutability": "view",
      "type": "function",
      "signature": "0xf301af42"
    },
    {
      "constant": true,
      "inputs": [
        {
          "name": "account",
          "type": "address"
        }
      ],
      "name": "isManager",
      "outputs": [
        {
          "name": "",
          "type": "bool"
        }
      ],
      "payable": false,
      "stateMutability": "view",
      "type": "function",
      "signature": "0xf3ae2415"
    },
    {
      "constant": false,
      "inputs": [],
      "name": "renounceManager",
      "outputs": [],
      "payable": false,
      "stateMutability": "nonpayable",
      "type": "function",
      "signature": "0xf8b91abe"
    },
    {
      "constant": true,
      "inputs": [],
      "name": "token",
      "outputs": [
        {
          "name": "",
          "type": "address"
        }
      ],
      "payable": false,
      "stateMutability": "view",
      "type": "function",
      "signature": "0xfc0c546a"
    },
    {
      "inputs": [
        {
          "name": "_name",
          "type": "string"
        },
        {
          "name": "_tokenAddress",
          "type": "address"
        }
      ],
      "payable": false,
      "stateMutability": "nonpayable",
      "type": "constructor",
      "signature": "constructor"
    },
    {
      "anonymous": false,
      "inputs": [
        {
          "indexed": true,
          "name": "sender",
          "type": "address"
        },
        {
          "indexed": false,
          "name": "amount",
          "type": "uint256"
        }
      ],
      "name": "Deposited",
      "type": "event",
      "signature": "0x2da466a7b24304f47e87fa2e1e5a81b9831ce54fec19055ce277ca2f39ba42c4"
    },
    {
      "anonymous": false,
      "inputs": [
        {
          "indexed": true,
          "name": "beneficiary",
          "type": "address"
        },
        {
          "indexed": false,
          "name": "reward",
          "type": "uint256"
        }
      ],
      "name": "Withdrawn",
      "type": "event",
      "signature": "0x7084f5476618d8e60b11ef0d7d3f06914655adb8793e28ff7f018d4c76d505d5"
    },
    {
      "anonymous": false,
      "inputs": [
        {
          "indexed": false,
          "name": "reward",
          "type": "uint256"
        }
      ],
      "name": "RewardPollCreated",
      "type": "event",
      "signature": "0x9382aa1d8d4a35a4ccc672d4d773bffd21d7d563d7f4743adc182a42663fdcfc"
    },
    {
      "anonymous": false,
      "inputs": [
        {
          "indexed": false,
          "name": "reward",
          "type": "uint256"
        },
        {
          "indexed": false,
          "name": "approved",
          "type": "bool"
        }
      ],
      "name": "RewardPollFinished",
      "type": "event",
      "signature": "0xb07b6a4d3da57c26eeed54737d6979b2a65101898160f7eb26d9e58626a70c14"
    },
    {
      "anonymous": false,
      "inputs": [
        {
          "indexed": false,
          "name": "id",
          "type": "uint256"
        },
        {
          "indexed": false,
          "name": "proposedAmount",
          "type": "uint256"
        },
        {
          "indexed": false,
          "name": "sender",
          "type": "address"
        }
      ],
      "name": "RulePollCreated",
      "type": "event",
      "signature": "0xdeea9f03d34191891f4d710d13235d67f125d54b82595f43bd61bb85eee1361e"
    },
    {
      "anonymous": false,
      "inputs": [
        {
          "indexed": false,
          "name": "id",
          "type": "uint256"
        },
        {
          "indexed": false,
          "name": "approved",
          "type": "bool"
        },
        {
          "indexed": false,
          "name": "sender",
          "type": "address"
        }
      ],
      "name": "RulePollFinished",
      "type": "event",
      "signature": "0xa90fbb743f484212bbeda1b7afa164217b7fec13335136f21f67705f32797854"
    },
    {
      "anonymous": false,
      "inputs": [
        {
          "indexed": false,
          "name": "id",
          "type": "uint256"
        },
        {
          "indexed": false,
          "name": "state",
          "type": "uint8"
        },
        {
          "indexed": false,
          "name": "sender",
          "type": "address"
        }
      ],
      "name": "RuleStateChanged",
      "type": "event",
      "signature": "0x37aec22f64fe69a8fd1e8fd9b7fdb5803c56fb5f8794371fbcf23e4337f78dcb"
    },
    {
      "anonymous": false,
      "inputs": [
        {
          "indexed": true,
          "name": "account",
          "type": "address"
        }
      ],
      "name": "MemberAdded",
      "type": "event",
      "signature": "0xb251eb052afc73ffd02ffe85ad79990a8b3fed60d76dbc2fa2fdd7123dffd914"
    },
    {
      "anonymous": false,
      "inputs": [
        {
          "indexed": true,
          "name": "account",
          "type": "address"
        }
      ],
      "name": "MemberRemoved",
      "type": "event",
      "signature": "0x6e76fb4c77256006d9c38ec7d82b45a8c8f3c27b1d6766fffc42dfb8de684492"
    },
    {
      "anonymous": false,
      "inputs": [
        {
          "indexed": true,
          "name": "account",
          "type": "address"
        }
      ],
      "name": "ManagerAdded",
      "type": "event",
      "signature": "0x3b4a40cccf2058c593542587329dd385be4f0b588db5471fbd9598e56dd7093a"
    },
    {
      "anonymous": false,
      "inputs": [
        {
          "indexed": true,
          "name": "account",
          "type": "address"
        }
      ],
      "name": "ManagerRemoved",
      "type": "event",
      "signature": "0xef69f7d97228658c92417be1b16b19058315de71fecb435d07b7d23728b6bd31"
    },
    {
      "constant": false,
      "inputs": [
        {
          "name": "value",
          "type": "string"
        }
      ],
      "name": "updatePoolName",
      "outputs": [],
      "payable": false,
      "stateMutability": "nonpayable",
      "type": "function",
      "signature": "0xf0b33435"
    },
    {
      "constant": false,
      "inputs": [
        {
          "name": "amount",
          "type": "uint256"
        }
      ],
      "name": "deposit",
      "outputs": [],
      "payable": false,
      "stateMutability": "nonpayable",
      "type": "function",
      "signature": "0xb6b55f25"
    },
    {
      "constant": true,
      "inputs": [],
      "name": "countRewards",
      "outputs": [
        {
          "name": "",
          "type": "uint256"
        }
      ],
      "payable": false,
      "stateMutability": "view",
      "type": "function",
      "signature": "0x0bd028c0"
    },
    {
      "constant": true,
      "inputs": [
        {
          "name": "sender",
          "type": "address"
        }
      ],
      "name": "countDeposits",
      "outputs": [
        {
          "name": "",
          "type": "uint256"
        }
      ],
      "payable": false,
      "stateMutability": "view",
      "type": "function",
      "signature": "0x041d2641"
    },
    {
      "constant": true,
      "inputs": [
        {
          "name": "receiver",
          "type": "address"
        }
      ],
      "name": "countWithdrawels",
      "outputs": [
        {
          "name": "",
          "type": "uint256"
        }
      ],
      "payable": false,
      "stateMutability": "view",
      "type": "function",
      "signature": "0xe51896cc"
    },
    {
      "constant": false,
      "inputs": [
        {
          "name": "rule",
          "type": "uint256"
        }
      ],
      "name": "createReward",
      "outputs": [],
      "payable": false,
      "stateMutability": "nonpayable",
      "type": "function",
      "signature": "0x1a6a8199"
    },
    {
      "constant": false,
      "inputs": [
        {
          "name": "id",
          "type": "uint256"
        },
        {
          "name": "agree",
          "type": "bool"
        }
      ],
      "name": "voteForReward",
      "outputs": [],
      "payable": false,
      "stateMutability": "nonpayable",
      "type": "function",
      "signature": "0x67218195"
    },
    {
      "constant": false,
      "inputs": [
        {
          "name": "id",
          "type": "uint256"
        }
      ],
      "name": "revokeVoteForReward",
      "outputs": [],
      "payable": false,
      "stateMutability": "nonpayable",
      "type": "function",
      "signature": "0x75d74bed"
    },
    {
      "constant": false,
      "inputs": [
        {
          "name": "id",
          "type": "uint256"
        },
        {
          "name": "agree",
          "type": "bool"
        }
      ],
      "name": "onRewardPollFinish",
      "outputs": [],
      "payable": false,
      "stateMutability": "nonpayable",
      "type": "function",
      "signature": "0x7370407d"
    },
    {
      "constant": false,
      "inputs": [
        {
          "name": "receiver",
          "type": "address"
        },
        {
          "name": "amount",
          "type": "uint256"
        },
        {
          "name": "created",
          "type": "uint256"
        }
      ],
      "name": "onWithdrawel",
      "outputs": [],
      "payable": false,
      "stateMutability": "nonpayable",
      "type": "function",
      "signature": "0xc18b0180"
    }
  ],
  "bytecode": "0x608060405260006003553480156200001657600080fd5b5060405162003dcb38038062003dcb833981018060405260408110156200003c57600080fd5b8101908080516401000000008111156200005557600080fd5b820160208101848111156200006957600080fd5b81516401000000008111828201871017156200008457600080fd5b5050602090910151909250905080620000a63364010000000062000120810204565b620000ba3364010000000062000172810204565b60028054600160a060020a031916600160a060020a03929092169190911790558151620000ef90600690602085019062000257565b5060058054600160a060020a03909216600160a060020a0319928316179055600780549091163317905550620002fc565b6200013b60008264010000000062001d64620001c482021704565b604051600160a060020a038216907f3b4a40cccf2058c593542587329dd385be4f0b588db5471fbd9598e56dd7093a90600090a250565b6200018d60018264010000000062001d64620001c482021704565b604051600160a060020a038216907fb251eb052afc73ffd02ffe85ad79990a8b3fed60d76dbc2fa2fdd7123dffd91490600090a250565b600160a060020a0381161515620001da57600080fd5b620001ef82826401000000006200021f810204565b15620001fa57600080fd5b600160a060020a0316600090815260209190915260409020805460ff19166001179055565b6000600160a060020a03821615156200023757600080fd5b50600160a060020a03166000908152602091909152604090205460ff1690565b828054600181600116156101000203166002900490600052602060002090601f016020900481019282601f106200029a57805160ff1916838001178555620002ca565b82800160010185558215620002ca579182015b82811115620002ca578251825591602001919060010190620002ad565b50620002d8929150620002dc565b5090565b620002f991905b80821115620002d85760008155600101620002e3565b90565b613abf806200030c6000396000f3fe6080604052600436106200019d5763ffffffff60e060020a60003504166302d05d3f8114620001a2578063041d264114620001d657806304d6ded4146200021f57806306fdde0314620002b95780630bd028c014620003495780631a6a819914620003615780632d06177a146200039157806331c5403214620003c8578063439c6f1714620003e0578063505e4b4a14620003f8578063563b373d146200045b578063607ca15b146200048f5780636721819514620004cb5780637370407d146200050157806375d74bed146200053757806383e7eb87146200056557806384219204146200057d578063962c9c8d1462000595578063a230c52414620005ad578063b6b55f2514620005f8578063b8771a341462000626578063bad5ba011462000654578063c18b0180146200066c578063ca6d56dc14620006af578063d6d6817714620006e6578063e213cf0f1462000723578063e51896cc1462000759578063f0b334351462000790578063f301af42146200084a578063f3ae24151462000878578063f8b91abe14620008af578063fc0c546a14620008c7575b600080fd5b348015620001af57600080fd5b50620001ba620008df565b60408051600160a060020a039092168252519081900360200190f35b348015620001e357600080fd5b506200020d60048036036020811015620001fc57600080fd5b5035600160a060020a0316620008ee565b60408051918252519081900360200190f35b3480156200022c57600080fd5b506200024d600480360360208110156200024557600080fd5b503562000909565b604051808781526020018681526020018560018111156200026a57fe5b60ff16815260200184600160a060020a0316600160a060020a0316815260200183600160a060020a0316600160a060020a03168152602001828152602001965050505050505060405180910390f35b348015620002c657600080fd5b50620002d162000961565b6040805160208082528351818301528351919283929083019185019080838360005b838110156200030d578181015183820152602001620002f3565b50505050905090810190601f1680156200033b5780820380516001836020036101000a031916815260200191505b509250505060405180910390f35b3480156200035657600080fd5b506200020d620009f3565b3480156200036e57600080fd5b506200038f600480360360208110156200038757600080fd5b5035620009fa565b005b3480156200039e57600080fd5b506200038f60048036036020811015620003b757600080fd5b5035600160a060020a031662000b2c565b348015620003d557600080fd5b506200020d62000b51565b348015620003ed57600080fd5b506200020d62000b57565b3480156200040557600080fd5b5062000435600480360360408110156200041e57600080fd5b50600160a060020a03813516906020013562000b5c565b60408051938452600160a060020a03909216602084015282820152519081900360600190f35b3480156200046857600080fd5b506200038f600480360360408110156200048157600080fd5b508035906020013562000ba8565b3480156200049c57600080fd5b506200038f60048036036060811015620004b557600080fd5b5080359060208101351515906040013562000df7565b348015620004d857600080fd5b506200038f60048036036040811015620004f157600080fd5b508035906020013515156200101c565b3480156200050e57600080fd5b506200038f600480360360408110156200052757600080fd5b50803590602001351515620010cf565b3480156200054457600080fd5b506200038f600480360360208110156200055d57600080fd5b50356200110f565b3480156200057257600080fd5b506200038f620011b9565b3480156200058a57600080fd5b506200020d6200135d565b348015620005a257600080fd5b506200020d62001363565b348015620005ba57600080fd5b50620005e460048036036020811015620005d357600080fd5b5035600160a060020a031662001368565b604080519115158252519081900360200190f35b3480156200060557600080fd5b506200038f600480360360208110156200061e57600080fd5b503562001383565b3480156200063357600080fd5b506200038f600480360360208110156200064c57600080fd5b503562001629565b3480156200066157600080fd5b506200038f62001705565b3480156200067957600080fd5b506200038f600480360360608110156200069257600080fd5b50600160a060020a03813516906020810135906040013562001712565b348015620006bc57600080fd5b506200038f60048036036020811015620006d557600080fd5b5035600160a060020a031662001868565b348015620006f357600080fd5b5062000435600480360360408110156200070c57600080fd5b50600160a060020a0381351690602001356200188a565b3480156200073057600080fd5b506200038f600480360360408110156200074957600080fd5b50803590602001351515620018a6565b3480156200076657600080fd5b506200020d600480360360208110156200077f57600080fd5b5035600160a060020a03166200198a565b3480156200079d57600080fd5b506200038f60048036036020811015620007b657600080fd5b810190602081018135640100000000811115620007d257600080fd5b820183602082011115620007e557600080fd5b803590602001918460018302840111640100000000831117156200080857600080fd5b91908080601f016020809104026020016040519081016040528093929190818152602001838380828437600092019190915250929550620019a5945050505050565b3480156200085757600080fd5b50620001ba600480360360208110156200087057600080fd5b5035620019d5565b3480156200088557600080fd5b50620005e4600480360360208110156200089e57600080fd5b5035600160a060020a0316620019fe565b348015620008bc57600080fd5b506200038f62001a12565b348015620008d457600080fd5b50620001ba62001a1d565b600754600160a060020a031681565b600160a060020a031660009081526009602052604090205490565b60048054829081106200091857fe5b600091825260209091206005909102018054600182015460028301546003840154600490940154929450909260ff821692610100909204600160a060020a039081169291169086565b6006805460408051602060026001851615610100026000190190941693909304601f81018490048402820184019092528181529291830182828015620009eb5780601f10620009bf57610100808354040283529160200191620009eb565b820191906000526020600020905b815481529060010190602001808311620009cd57829003601f168201915b505050505081565b6008545b90565b6000600880549050823360048581548110151562000a1457fe5b60009182526020909120600591820201600101549054600160a060020a03163062000a3e62001e2c565b9586526020860194909452600160a060020a03928316604080870191909152606086019290925282166080850152911660a0830152519081900360c001906000f08015801562000a92573d6000803e3d6000fd5b5060085460408051918252519192507f9382aa1d8d4a35a4ccc672d4d773bffd21d7d563d7f4743adc182a42663fdcfc919081900360200190a1600880546001810182556000919091527ff3f7a9fe364faab93b216da50a3214154f22a0a2b415b23a84c8169e8b636ee301805473ffffffffffffffffffffffffffffffffffffffff1916600160a060020a039290921691909117905550565b62000b3733620019fe565b151562000b4357600080fd5b62000b4e8162001a2c565b50565b60045490565b603c81565b600a6020528160005260406000208181548110151562000b7857fe5b6000918252602090912060039091020180546001820154600290920154909350600160a060020a03909116915083565b62000bb33362001368565b151562000bbf57600080fd5b60048054600091908490811062000bd257fe5b60009182526020909120600590910201600201546101009004600160a060020a0316148062000c9b5750600480548390811062000c0b57fe5b906000526020600020906005020160020160019054906101000a9004600160a060020a0316600160a060020a031663b3f05b976040518163ffffffff1660e060020a02815260040160206040518083038186803b15801562000c6c57600080fd5b505afa15801562000c81573d6000803e3d6000fd5b505050506040513d602081101562000c9857600080fd5b50515b151562000ca757600080fd5b600480548390811062000cb657fe5b906000526020600020906005020160010154811415151562000cd757600080fd5b6002546003544291603c83019185918591600160a060020a0390911690859085903062000d0362001e3d565b9687526020870195909552600160a060020a039384166040808801919091526060870193909352608086019190915260a0850152911660c0830152519081900360e001906000f08015801562000d5d573d6000803e3d6000fd5b50600480548690811062000d6d57fe5b60009182526020918290206002600590920201018054600160a060020a03939093166101000274ffffffffffffffffffffffffffffffffffffffff001990931692909217909155604080518681529182018590523382820152517fdeea9f03d34191891f4d710d13235d67f125d54b82595f43bd61bb85eee1361e9181900360600190a150505050565b600480548490811062000e0657fe5b60009182526020909120600590910201600201546101009004600160a060020a03163314801562000ed15750600480548490811062000e4157fe5b906000526020600020906005020160020160019054906101000a9004600160a060020a0316600160a060020a031663b3f05b976040518163ffffffff1660e060020a02815260040160206040518083038186803b15801562000ea257600080fd5b505afa15801562000eb7573d6000803e3d6000fd5b505050506040513d602081101562000ece57600080fd5b50515b151562000edd57600080fd5b811562000ef05762000ef0838262001a76565b62000f9960048481548110151562000f0457fe5b906000526020600020906005020160020160019054906101000a9004600160a060020a0316600160a060020a0316632c24909c6040518163ffffffff1660e060020a02815260040160206040518083038186803b15801562000f6557600080fd5b505afa15801562000f7a573d6000803e3d6000fd5b505050506040513d602081101562000f9157600080fd5b505162001c1b565b604080518481528315156020820152338183015290517fa90fbb743f484212bbeda1b7afa164217b7fec13335136f21f67705f327978549181900360600190a1600480548490811062000fe857fe5b60009182526020909120600260059092020101805474ffffffffffffffffffffffffffffffffffffffff0019169055505050565b6200102733620019fe565b15156200103357600080fd5b60088054839081106200104257fe5b6000918252602082200154604080517fbd041c4d00000000000000000000000000000000000000000000000000000000815233600482015284151560248201529051600160a060020a039092169263bd041c4d9260448084019382900301818387803b158015620010b257600080fd5b505af1158015620010c7573d6000803e3d6000fd5b505050505050565b60408051838152821515602082015281517fb07b6a4d3da57c26eeed54737d6979b2a65101898160f7eb26d9e58626a70c14929181900390910190a15050565b6200111a33620019fe565b15156200112657600080fd5b60088054829081106200113557fe5b6000918252602082200154604080517f0519bac30000000000000000000000000000000000000000000000000000000081523360048201529051600160a060020a0390921692630519bac39260248084019382900301818387803b1580156200119d57600080fd5b505af1158015620011b2573d6000803e3d6000fd5b5050505050565b620011c433620019fe565b1515620011d057600080fd5b620011da62001e4e565b60045480825260006020808401919091526001604080850182905233608086018190524260a087015281519485529284019190915282810191909152517f37aec22f64fe69a8fd1e8fd9b7fdb5803c56fb5f8794371fbcf23e4337f78dcb9181900360600190a1600480546001818101808455600093909352835160059092027f8a35acfbc15ff81a39ae7d344fd709f28e8600b4aa8c65c6b64bfe7fe36bd19b810192835560208501517f8a35acfbc15ff81a39ae7d344fd709f28e8600b4aa8c65c6b64bfe7fe36bd19c82015560408501517f8a35acfbc15ff81a39ae7d344fd709f28e8600b4aa8c65c6b64bfe7fe36bd19d909101805486949360ff19909116908381811115620012ea57fe5b0217905550606082015160028201805474ffffffffffffffffffffffffffffffffffffffff001916610100600160a060020a0393841602179055608083015160038301805473ffffffffffffffffffffffffffffffffffffffff19169190921617905560a0909101516004909101555050565b60035481565b600a81565b60006200137d60018363ffffffff62001c4e16565b92915050565b600554604080517f70a082310000000000000000000000000000000000000000000000000000000081523360048201529051600092600160a060020a0316916370a08231916024808301926020929190829003018186803b158015620013e857600080fd5b505afa158015620013fd573d6000803e3d6000fd5b505050506040513d60208110156200141457600080fd5b5051116200142157600080fd5b600081116200142f57600080fd5b600554604080517f1302afc2000000000000000000000000000000000000000000000000000000008152336004820152306024820152604481018490529051600160a060020a0390921691631302afc2916064808201926020929091908290030181600087803b158015620014a357600080fd5b505af1158015620014b8573d6000803e3d6000fd5b505050506040513d6020811015620014cf57600080fd5b5050600554604080517f62cd70e2000000000000000000000000000000000000000000000000000000008152336004820152306024820152604481018490529051600160a060020a03909216916362cd70e2916064808201926020929091908290030181600087803b1580156200154557600080fd5b505af11580156200155a573d6000803e3d6000fd5b505050506040513d60208110156200157157600080fd5b506200157e905062001e84565b8181523360208083018281524260408086019182526000948552600984528085208054600180820183559187529585902087516003909702018681559351908401805473ffffffffffffffffffffffffffffffffffffffff1916600160a060020a03909216918217905591516002909301929092558151938452905190927f2da466a7b24304f47e87fa2e1e5a81b9831ce54fec19055ce277ca2f39ba42c492908290030190a25050565b620016343362001368565b15156200164057600080fd5b6004805460009190839081106200165357fe5b60009182526020909120600590910201600201546101009004600160a060020a031614156200168157600080fd5b60048054829081106200169057fe5b6000918252602082206005919091020160020154604080517f0519bac30000000000000000000000000000000000000000000000000000000081523360048201529051610100909204600160a060020a031692630519bac39260248084019382900301818387803b1580156200119d57600080fd5b620017103362001c86565b565b600554604080517fa9059cbb000000000000000000000000000000000000000000000000000000008152600160a060020a038681166004830152602482018690529151919092169163a9059cbb9160448083019260209291908290030181600087803b1580156200178257600080fd5b505af115801562001797573d6000803e3d6000fd5b505050506040513d6020811015620017ae57600080fd5b50620017bb905062001e84565b828152600160a060020a03848116602080840182815260408086018781526000948552600a84528185208054600180820183559187529585902088516003909702018681559351908401805473ffffffffffffffffffffffffffffffffffffffff191691909716908117909655516002909201919091558051928352517f7084f5476618d8e60b11ef0d7d3f06914655adb8793e28ff7f018d4c76d505d59281900390910190a250505050565b620018733362001368565b15156200187f57600080fd5b62000b4e8162001cd0565b60096020528160005260406000208181548110151562000b7857fe5b620018b13362001368565b1515620018bd57600080fd5b600480546000919084908110620018d057fe5b60009182526020909120600590910201600201546101009004600160a060020a03161415620018fe57600080fd5b60048054839081106200190d57fe5b6000918252602082206005919091020160020154604080517fbd041c4d00000000000000000000000000000000000000000000000000000000815233600482015284151560248201529051610100909204600160a060020a03169263bd041c4d9260448084019382900301818387803b158015620010b257600080fd5b600160a060020a03166000908152600a602052604090205490565b620019b033620019fe565b1515620019bc57600080fd5b8051620019d190600690602084019062001eaf565b5050565b6008805482908110620019e457fe5b600091825260209091200154600160a060020a0316905081565b60006200137d818363ffffffff62001c4e16565b620017103362001d1a565b600554600160a060020a031681565b62001a3f60008263ffffffff62001d6416565b604051600160a060020a038216907f3b4a40cccf2058c593542587329dd385be4f0b588db5471fbd9598e56dd7093a90600090a250565b80151562001abd57600160048381548110151562001a9057fe5b60009182526020909120600260059092020101805460ff19166001838181111562001ab757fe5b02179055505b801580159062001afe57506001600480548490811062001ad957fe5b600091825260209091206002600590920201015460ff16600181111562001afc57fe5b145b1562001b4357600060048381548110151562001b1657fe5b60009182526020909120600260059092020101805460ff19166001838181111562001b3d57fe5b02179055505b8060048381548110151562001b5457fe5b9060005260206000209060050201600101819055507f37aec22f64fe69a8fd1e8fd9b7fdb5803c56fb5f8794371fbcf23e4337f78dcb60048381548110151562001b9a57fe5b90600052602060002090600502016000015460048481548110151562001bbc57fe5b906000526020600020906005020160020160009054906101000a900460ff16336040518084815260200183600181111562001bf357fe5b60ff168152600160a060020a0390921660208301525060408051918290030192509050a15050565b600062001c3082600263ffffffff62001db616565b9050600a81111562001c485750600a60035562000b4e565b60035550565b6000600160a060020a038216151562001c6657600080fd5b50600160a060020a03166000908152602091909152604090205460ff1690565b62001c9960018263ffffffff62001ddc16565b604051600160a060020a038216907f6e76fb4c77256006d9c38ec7d82b45a8c8f3c27b1d6766fffc42dfb8de68449290600090a250565b62001ce360018263ffffffff62001d6416565b604051600160a060020a038216907fb251eb052afc73ffd02ffe85ad79990a8b3fed60d76dbc2fa2fdd7123dffd91490600090a250565b62001d2d60008263ffffffff62001ddc16565b604051600160a060020a038216907fef69f7d97228658c92417be1b16b19058315de71fecb435d07b7d23728b6bd3190600090a250565b600160a060020a038116151562001d7a57600080fd5b62001d86828262001c4e565b1562001d9157600080fd5b600160a060020a0316600090815260209190915260409020805460ff19166001179055565b600080821162001dc557600080fd5b6000828481151562001dd357fe5b04949350505050565b600160a060020a038116151562001df257600080fd5b62001dfe828262001c4e565b151562001e0a57600080fd5b600160a060020a0316600090815260209190915260409020805460ff19169055565b6040516110c98062001f5283390190565b604051610a79806200301b83390190565b6040805160c081018252600080825260208201819052909182019081526000602082018190526040820181905260609091015290565b606060405190810160405280600081526020016000600160a060020a03168152602001600081525090565b828054600181600116156101000203166002900490600052602060002090601f016020900481019282601f1062001ef257805160ff191683800117855562001f22565b8280016001018555821562001f22579182015b8281111562001f2257825182559160200191906001019062001f05565b5062001f3092915062001f34565b5090565b620009f791905b8082111562001f30576000815560010162001f3b56fe60806040526000600555600060065560006007553480156200002057600080fd5b5060405160c080620010c9833981018060405260c08110156200004257600080fd5b508051602082015160408301516060840151608085015160a090950151939492939192909181814260b481016000600160a060020a03851615156200008657600080fd5b4283101580156200009657508282115b1515620000a257600080fd5b60008054600160a060020a03968716600160a060020a03199182161790915560018054959096169416939093179093556002556003919091556008805460ff1990811690915560048054921515929091169190911790556200010d33640100000000620001ac810204565b6200012133640100000000620001fe810204565b15156200012d57600080fd5b600b869055600c859055600d8054600160a060020a031916600160a060020a038616179055600e839055600f805460ff1916905542601055604080518781526000602082015281517f90ab42752b8b3a3e8bcb9cba7d57f5bf87db421f9885bb1c203f08d0ef199c20929181900390910190a1505050505050620002b4565b620001c7600a8264010000000062000d8b6200022182021704565b604051600160a060020a038216907fb251eb052afc73ffd02ffe85ad79990a8b3fed60d76dbc2fa2fdd7123dffd91490600090a250565b60006200021b600a8364010000000062000bba6200027c82021704565b92915050565b600160a060020a03811615156200023757600080fd5b6200024c82826401000000006200027c810204565b156200025757600080fd5b600160a060020a0316600090815260209190915260409020805460ff19166001179055565b6000600160a060020a03821615156200029457600080fd5b50600160a060020a03166000908152602091909152604090205460ff1690565b610e0580620002c46000396000f3fe60806040526004361061015e5763ffffffff7c01000000000000000000000000000000000000000000000000000000006000350416630519bac3811461016357806316f0115b1461019857806325e3d522146101c957806328d21990146101f05780633197cbb614610205578063325a19f11461021a578063361810261461022f57806338af3eed146102585780633ccfd60b1461026d57806341fdade6146102825780635c134d661461029757806364a90292146102d057806378e97925146102e557806380322cbd146102fa578063a1d193611461030f578063a230c52414610324578063a7491b4814610357578063aa8c217c146103aa578063af640d0f146103bf578063b3a2273f146103d4578063b3f05b97146103e9578063bad5ba01146103fe578063bd041c4d14610413578063c19d93fb1461044e578063ca6d56dc14610487578063d74689e4146104ba578063fc0c546a146104cf575b600080fd5b34801561016f57600080fd5b506101966004803603602081101561018657600080fd5b5035600160a060020a03166104e4565b005b3480156101a457600080fd5b506101ad6105b3565b60408051600160a060020a039092168252519081900360200190f35b3480156101d557600080fd5b506101de6105c2565b60408051918252519081900360200190f35b3480156101fc57600080fd5b506101de6105c8565b34801561021157600080fd5b506101de6105cd565b34801561022657600080fd5b506101de6105d3565b34801561023b57600080fd5b506102446105d9565b604080519115158252519081900360200190f35b34801561026457600080fd5b506101ad610622565b34801561027957600080fd5b50610196610631565b34801561028e57600080fd5b506101de6107b8565b3480156102a357600080fd5b506101de600480360360408110156102ba57600080fd5b50600160a060020a0381351690602001356107be565b3480156102dc57600080fd5b506101de6107ee565b3480156102f157600080fd5b506101de6107f4565b34801561030657600080fd5b506102446107fa565b34801561031b57600080fd5b50610244610809565b34801561033057600080fd5b506102446004803603602081101561034757600080fd5b5035600160a060020a0316610824565b34801561036357600080fd5b5061038a6004803603602081101561037a57600080fd5b5035600160a060020a031661083d565b604080519384526020840192909252151582820152519081900360600190f35b3480156103b657600080fd5b506101de610861565b3480156103cb57600080fd5b506101de610867565b3480156103e057600080fd5b506101de61086d565b3480156103f557600080fd5b50610244610873565b34801561040a57600080fd5b5061019661087c565b34801561041f57600080fd5b506101966004803603604081101561043657600080fd5b50600160a060020a0381351690602001351515610887565b34801561045a57600080fd5b50610463610aa8565b6040518082600381111561047357fe5b60ff16815260200191505060405180910390f35b34801561049357600080fd5b50610196600480360360208110156104aa57600080fd5b5035600160a060020a0316610ab1565b3480156104c657600080fd5b506101de610ad1565b3480156104db57600080fd5b506101ad610ad7565b60025442101580156104f857506003544211155b151561050357600080fd5b600160a060020a0381166000908152600960205260408120541161052657600080fd5b600160a060020a038116600090815260096020526040812060018082018054600284018054948690559490915560ff19831690935560075460ff909216916105739163ffffffff610ae616565b60075580156105975760055461058f908363ffffffff610ae616565b6005556105ae565b6006546105aa908363ffffffff610ae616565b6006555b505050565b600154600160a060020a031681565b600c5481565b60b481565b60035481565b60105481565b60085460009060ff16156105ec57600080fd5b6003544210156105fe5750600061061f565b6008805460ff1916600117905561061b610616610afb565b610b05565b5060015b90565b600d54600160a060020a031681565b60008054600154604080517f70a08231000000000000000000000000000000000000000000000000000000008152600160a060020a039283166004820152905191909216916370a08231916024808301926020929190829003018186803b15801561069b57600080fd5b505afa1580156106af573d6000803e3d6000fd5b505050506040513d60208110156106c557600080fd5b505190506106d1610809565b15156106dc57600080fd5b600d54600160a060020a031633146106f357600080fd5b600e5460001061070257600080fd5b600e5481101561071157600080fd5b600154600d54600e54601054604080517fc18b0180000000000000000000000000000000000000000000000000000000008152600160a060020a0394851660048201526024810193909352604483019190915251919092169163c18b018091606480830192600092919082900301818387803b15801561079057600080fd5b505af11580156107a4573d6000803e3d6000fd5b5050600f805460ff19166003179055505050565b6103e881565b6011602052816000526040600020818154811015156107d957fe5b90600052602060002001600091509150505481565b60065481565b60025481565b6000610804610afb565b905090565b60006001600f5460ff16600381111561081e57fe5b14905090565b6000610837600a8363ffffffff610bba16565b92915050565b60096020526000908152604090208054600182015460029092015490919060ff1683565b600e5481565b600b5481565b60075481565b60085460ff1681565b61088533610bf1565b565b600254421015801561089b57506003544211155b15156108a657600080fd5b600160a060020a03821615156108bb57600080fd5b600160a060020a038216600090815260096020526040902054156108de57600080fd5b60008054604080517f70a08231000000000000000000000000000000000000000000000000000000008152600160a060020a038681166004830152915191909216916370a08231916024808301926020929190829003018186803b15801561094557600080fd5b505afa158015610959573d6000803e3d6000fd5b505050506040513d602081101561096f57600080fd5b505160008054604080517f18160ddd00000000000000000000000000000000000000000000000000000000815290519394509192610a13926103e892600160a060020a0316916318160ddd91600480820192602092909190829003018186803b1580156109db57600080fd5b505afa1580156109ef573d6000803e3d6000fd5b505050506040513d6020811015610a0557600080fd5b50519063ffffffff610c3916565b905080821115610a235780610a25565b815b91508215610a4857600554610a40908363ffffffff610c5d16565b600555610a5f565b600654610a5b908363ffffffff610c5d16565b6006555b600160a060020a038416600090815260096020526040902042815560018082018490556002909101805460ff1916851515179055600754610a9f91610c5d565b60075550505050565b600f5460ff1681565b610aba33610824565b1515610ac557600080fd5b610ace81610c76565b50565b60055481565b600054600160a060020a031681565b600082821115610af557600080fd5b50900390565b6006546005541190565b808015610b14575060085460ff165b15610b2657610b21610cbe565b610b2e565b610b2e610d2b565b600154600b54604080517f7370407d0000000000000000000000000000000000000000000000000000000081526004810192909252831515602483015251600160a060020a0390921691637370407d9160448082019260009290919082900301818387803b158015610b9f57600080fd5b505af1158015610bb3573d6000803e3d6000fd5b5050505050565b6000600160a060020a0382161515610bd157600080fd5b50600160a060020a03166000908152602091909152604090205460ff1690565b610c02600a8263ffffffff610d3f16565b604051600160a060020a038216907f6e76fb4c77256006d9c38ec7d82b45a8c8f3c27b1d6766fffc42dfb8de68449290600090a250565b6000808211610c4757600080fd5b60008284811515610c5457fe5b04949350505050565b600082820183811015610c6f57600080fd5b9392505050565b610c87600a8263ffffffff610d8b16565b604051600160a060020a038216907fb251eb052afc73ffd02ffe85ad79990a8b3fed60d76dbc2fa2fdd7123dffd91490600090a250565b600f80546001919060ff191682805b0217905550600b54600f546040518281527f90ab42752b8b3a3e8bcb9cba7d57f5bf87db421f9885bb1c203f08d0ef199c20929160ff169060208101826003811115610d1557fe5b60ff1681526020019250505060405180910390a1565b600f80546002919060ff1916600183610ccd565b600160a060020a0381161515610d5457600080fd5b610d5e8282610bba565b1515610d6957600080fd5b600160a060020a0316600090815260209190915260409020805460ff19169055565b600160a060020a0381161515610da057600080fd5b610daa8282610bba565b15610db457600080fd5b600160a060020a0316600090815260209190915260409020805460ff1916600117905556fea165627a7a72305820cfe1dcac4650a4a9bdf1d53d0f6da2543d1fa605023639b5a1a0dc060f43912f002960806040526000600555600060065560006007556000600a5534801561002457600080fd5b5060405160e080610a79833981018060405260e081101561004457600080fd5b508051602082015160408301516060840151608085015160a086015160c0909601519495939492939192909190848185856000600160a060020a038516151561008c57600080fd5b42831015801561009b57508282115b15156100a657600080fd5b60008054600160a060020a0319908116600160a060020a03978816178255600180548216968816969096179095556002939093556003919091556008805460ff1990811690915560048054909116911515919091179055600b99909955600a93909355600c96909655600d805490921695169490941790935550610947928392506101329150396000f3fe6080604052600436106100fb5763ffffffff7c01000000000000000000000000000000000000000000000000000000006000350416630519bac3811461010057806316f0115b146101355780632c24909c146101665780633197cbb61461018d57806336181026146101a257806341fdade6146101cb5780634e9e8e73146101e057806364a90292146101f55780636f6a97621461020a57806378e979251461021f57806380322cbd14610234578063a7491b4814610249578063af640d0f1461029c578063b3a2273f146102b1578063b3f05b97146102c6578063bd041c4d146102db578063d74689e414610316578063fc0c546a1461032b575b600080fd5b34801561010c57600080fd5b506101336004803603602081101561012357600080fd5b5035600160a060020a0316610340565b005b34801561014157600080fd5b5061014a61040f565b60408051600160a060020a039092168252519081900360200190f35b34801561017257600080fd5b5061017b61041e565b60408051918252519081900360200190f35b34801561019957600080fd5b5061017b6104f6565b3480156101ae57600080fd5b506101b76104fc565b604080519115158252519081900360200190f35b3480156101d757600080fd5b5061017b610544565b3480156101ec57600080fd5b5061017b61054a565b34801561020157600080fd5b5061017b610550565b34801561021657600080fd5b5061017b610556565b34801561022b57600080fd5b5061017b61055c565b34801561024057600080fd5b506101b7610562565b34801561025557600080fd5b5061027c6004803603602081101561026c57600080fd5b5035600160a060020a0316610571565b604080519384526020840192909252151582820152519081900360600190f35b3480156102a857600080fd5b5061017b610595565b3480156102bd57600080fd5b5061017b61059b565b3480156102d257600080fd5b506101b76105a1565b3480156102e757600080fd5b50610133600480360360408110156102fe57600080fd5b50600160a060020a03813516906020013515156105aa565b34801561032257600080fd5b5061017b6107cb565b34801561033757600080fd5b5061014a6107d1565b600254421015801561035457506003544211155b151561035f57600080fd5b600160a060020a0381166000908152600960205260408120541161038257600080fd5b600160a060020a038116600090815260096020526040812060018082018054600284018054948690559490915560ff19831690935560075460ff909216916103cf9163ffffffff6107e016565b60075580156103f3576005546103eb908363ffffffff6107e016565b60055561040a565b600654610406908363ffffffff6107e016565b6006555b505050565b600d54600160a060020a031681565b6000806104386006546005546107fa90919063ffffffff16565b90506104ef6000809054906101000a9004600160a060020a0316600160a060020a03166318160ddd6040518163ffffffff167c010000000000000000000000000000000000000000000000000000000002815260040160206040518083038186803b1580156104a657600080fd5b505afa1580156104ba573d6000803e3d6000fd5b505050506040513d60208110156104d057600080fd5b50516104e383606463ffffffff61081316565b9063ffffffff61083e16565b9150505b90565b60035481565b60085460009060ff161561050f57600080fd5b600354421015610521575060006104f3565b6008805460ff1916600117905561053e610539610862565b610884565b50600190565b6103e881565b600c5481565b60065481565b600a5481565b60025481565b600061056c610862565b905090565b60096020526000908152604090208054600182015460029092015490919060ff1683565b600b5481565b60075481565b60085460ff1681565b60025442101580156105be57506003544211155b15156105c957600080fd5b600160a060020a03821615156105de57600080fd5b600160a060020a0382166000908152600960205260409020541561060157600080fd5b60008054604080517f70a08231000000000000000000000000000000000000000000000000000000008152600160a060020a038681166004830152915191909216916370a08231916024808301926020929190829003018186803b15801561066857600080fd5b505afa15801561067c573d6000803e3d6000fd5b505050506040513d602081101561069257600080fd5b505160008054604080517f18160ddd00000000000000000000000000000000000000000000000000000000815290519394509192610736926103e892600160a060020a0316916318160ddd91600480820192602092909190829003018186803b1580156106fe57600080fd5b505afa158015610712573d6000803e3d6000fd5b505050506040513d602081101561072857600080fd5b50519063ffffffff61083e16565b9050808211156107465780610748565b815b9150821561076b57600554610763908363ffffffff6107fa16565b600555610782565b60065461077e908363ffffffff6107fa16565b6006555b600160a060020a038416600090815260096020526040902042815560018082018490556002909101805460ff19168515151790556007546107c2916107fa565b60075550505050565b60055481565b600054600160a060020a031681565b6000828211156107ef57600080fd5b508082035b92915050565b60008282018381101561080c57600080fd5b9392505050565b6000821515610824575060006107f4565b82820282848281151561083357fe5b041461080c57600080fd5b600080821161084c57600080fd5b6000828481151561085957fe5b04949350505050565b600060065460055411801561056c5750600a5461087d61041e565b1015905090565b600d54600b54600c54604080517f607ca15b00000000000000000000000000000000000000000000000000000000815260048101939093528415156024840152604483019190915251600160a060020a039092169163607ca15b9160648082019260009290919082900301818387803b15801561090057600080fd5b505af1158015610914573d6000803e3d6000fd5b505050505056fea165627a7a72305820204ed578968633adb051122328a6916c4f3a3312cf553a87118fcb62a20eb1cf0029a165627a7a723058209dd143d3dca82a2fdc5388b6773bc5b5a35542ae72b61680984d055215c4a07a0029",
  "source": "pragma solidity ^0.5.0;\n\nimport './reward/Reward.sol';\nimport './rule/Rules.sol';\nimport './THXToken.sol';\n\ncontract RewardPool is Rules {\n\n    event Deposited(address indexed sender, uint256 amount);\n    event Withdrawn(address indexed beneficiary, uint256 reward);\n\n    event RewardPollCreated(uint256 reward);\n    event RewardPollFinished(uint256 reward, bool approved);\n\n    THXToken public token;\n    string public name;\n    address public creator;\n\n    Reward[] public rewards;\n\n    struct Deposit {\n        uint256 amount;\n        address sender;\n        uint256 created;\n    }\n\n    struct Withdrawel {\n        uint256 amount;\n        address receiver;\n        uint256 created;\n    }\n\n    mapping (address => Deposit[]) public deposits;\n    mapping (address => Withdrawel[]) public withdrawels;\n\n    constructor(\n        string memory _name,\n        address _tokenAddress\n    ) public\n        Rules(_tokenAddress)\n    {\n        name = _name;\n        token = THXToken(_tokenAddress);\n        creator = msg.sender;\n    }\n\n    /**\n    * @dev Updates the pool name set initially through the constructor.\n    * @param value The new pool name.\n    */\n    function updatePoolName(string memory value) public onlyManager {\n        name = value;\n    }\n\n    /**\n    * @dev Stores the sent amount as tokens in the Reward Pool.\n    * @param amount The amount the sender deposited.\n    */\n    function deposit(uint256 amount) public {\n        require(token.balanceOf(msg.sender) > 0);\n        require(amount > 0);\n\n        // Approve the token transaction.\n        token.approveDeposit(msg.sender, address(this), amount);\n\n        // Transfer the tokens from the sender to the pool\n        token.transferDeposit(msg.sender, address(this), amount);\n\n        Deposit memory d;\n        d.amount = amount;\n        d.sender = msg.sender;\n        d.created = now;\n\n        deposits[msg.sender].push(d);\n\n        emit Deposited(d.sender, d.amount);\n    }\n\n    /**\n    * @dev Counts the amount of Rewards.\n    */\n    function countRewards() public view returns (uint256) {\n        return rewards.length;\n    }\n\n    /**\n    * @dev Counts the amount of Deposits for an address.\n    */\n    function countDeposits(address sender) public view returns (uint256) {\n        return deposits[sender].length;\n    }\n\n    /**\n    * @dev Counts the amount of Withdrawels for an address.\n    */\n    function countWithdrawels(address receiver) public view returns (uint256) {\n        return withdrawels[receiver].length;\n    }\n\n    /**\n    * @dev Creates the suggested reward.\n    * @param rule Reference id of the rule\n    */\n    function createReward(uint256 rule) public {\n        Reward reward = new Reward(rewards.length, rule, msg.sender, rules[rule].amount, address(token), address(this));\n\n        emit RewardPollCreated(rewards.length);\n\n        rewards.push(reward);\n    }\n\n    /**\n    * @dev Vote for the suggested reward.\n    * @param id Referenced Reward\n    * @param agree Approve or reject reward.\n    */\n    function voteForReward(uint256 id, bool agree) public onlyManager {\n        rewards[id].vote(msg.sender, agree);\n    }\n\n    /**\n    * @dev Vote for the suggested reward.\n    * @param id Reference to thte reward\n    */\n    function revokeVoteForReward(uint256 id) public onlyManager {\n        rewards[id].revokeVote(msg.sender);\n    }\n\n    /**\n    * @dev Called when poll is finished\n    * @param id Reference to the reward rule\n    * @param agree Bool for checking the result of the poll.\n    */\n    function onRewardPollFinish(uint256 id, bool agree) external {\n        emit RewardPollFinished(id, agree);\n    }\n\n    /**\n    * @dev callback called after reward is withdrawn\n    */\n    function onWithdrawel(address receiver, uint256 amount, uint256 created) external {\n        token.transfer(receiver, amount);\n\n        Withdrawel memory w;\n        w.amount = amount;\n        w.receiver = receiver;\n        w.created = created;\n\n        withdrawels[receiver].push(w);\n\n        emit Withdrawn(w.receiver, w.amount);\n    }\n\n}\n",
  "sourcePath": "/Users/peterpolman/Sites/thx/thx-wallet/contracts/RewardPool.sol",
  "compiler": {
    "name": "solc",
    "version": "0.5.0+commit.1d4f565a.Emscripten.clang"
  },
  "schemaVersion": "3.0.1",
  "updatedAt": "2020-02-04T13:12:07.043Z",
  "devdoc": {
    "methods": {
      "countDeposits(address)": {
        "details": "Counts the amount of Deposits for an address."
      },
      "countRewards()": {
        "details": "Counts the amount of Rewards."
      },
      "countRules()": {
        "details": "Counts the amount of rules."
      },
      "countWithdrawels(address)": {
        "details": "Counts the amount of Withdrawels for an address."
      },
      "createReward(uint256)": {
        "details": "Creates the suggested reward.",
        "params": {
          "rule": "Reference id of the rule"
        }
      },
      "createRule()": {
        "details": "Creates the initial reward rule."
      },
      "deposit(uint256)": {
        "details": "Stores the sent amount as tokens in the Reward Pool.",
        "params": {
          "amount": "The amount the sender deposited."
        }
      },
      "onRewardPollFinish(uint256,bool)": {
        "details": "Called when poll is finished",
        "params": {
          "agree": "Bool for checking the result of the poll.",
          "id": "Reference to the reward rule"
        }
      },
      "onRulePollFinish(uint256,bool,uint256)": {
        "details": "Called when poll is finished",
        "params": {
          "agree": "Bool for checking the result of the poll.",
          "id": "Referenced reward rule",
          "proposedAmount": "The proposed reward size."
        }
      },
      "onWithdrawel(address,uint256,uint256)": {
        "details": "callback called after reward is withdrawn"
      },
      "revokeVoteForReward(uint256)": {
        "details": "Vote for the suggested reward.",
        "params": {
          "id": "Reference to thte reward"
        }
      },
      "revokeVoteForRule(uint256)": {
        "details": "Vote for the suggested rule.",
        "params": {
          "id": "reference to the rule that the poll runs for"
        }
      },
      "startRulePoll(uint256,uint256)": {
        "details": "Starts the rule poll for chaning the amount.",
        "params": {
          "id": "The new amount for the rule."
        }
      },
      "updatePoolName(string)": {
        "details": "Updates the pool name set initially through the constructor.",
        "params": {
          "value": "The new pool name."
        }
      },
      "voteForReward(uint256,bool)": {
        "details": "Vote for the suggested reward.",
        "params": {
          "agree": "Approve or reject reward.",
          "id": "Referenced Reward"
        }
      },
      "voteForRule(uint256,bool)": {
        "details": "Vote for the suggested rule.",
        "params": {
          "agree": "Approve or reject rule.",
          "id": "reference to the rule that the poll runs for"
        }
      }
    }
  },
  "userdoc": {
    "methods": {}
  }
}