{
  "contractName": "Rules",
  "abi": [
    {
      "constant": true,
      "inputs": [
        {
          "name": "",
          "type": "uint256"
        }
      ],
      "name": "rules",
      "outputs": [
        {
          "name": "id",
          "type": "uint256"
        },
        {
          "name": "amount",
          "type": "uint256"
        },
        {
          "name": "state",
          "type": "uint8"
        },
        {
          "name": "poll",
          "type": "address"
        },
        {
          "name": "creator",
          "type": "address"
        },
        {
          "name": "created",
          "type": "uint256"
        }
      ],
      "payable": false,
      "stateMutability": "view",
      "type": "function"
    },
    {
      "constant": false,
      "inputs": [
        {
          "name": "account",
          "type": "address"
        }
      ],
      "name": "addManager",
      "outputs": [],
      "payable": false,
      "stateMutability": "nonpayable",
      "type": "function"
    },
    {
      "constant": true,
      "inputs": [],
      "name": "RULE_POLL_DURATION",
      "outputs": [
        {
          "name": "",
          "type": "uint256"
        }
      ],
      "payable": false,
      "stateMutability": "view",
      "type": "function"
    },
    {
      "constant": true,
      "inputs": [],
      "name": "minVotedTokensPerc",
      "outputs": [
        {
          "name": "",
          "type": "uint256"
        }
      ],
      "payable": false,
      "stateMutability": "view",
      "type": "function"
    },
    {
      "constant": true,
      "inputs": [],
      "name": "MAX_VOTED_TOKEN_PERC",
      "outputs": [
        {
          "name": "",
          "type": "uint256"
        }
      ],
      "payable": false,
      "stateMutability": "view",
      "type": "function"
    },
    {
      "constant": true,
      "inputs": [
        {
          "name": "account",
          "type": "address"
        }
      ],
      "name": "isMember",
      "outputs": [
        {
          "name": "",
          "type": "bool"
        }
      ],
      "payable": false,
      "stateMutability": "view",
      "type": "function"
    },
    {
      "constant": false,
      "inputs": [],
      "name": "renounceMember",
      "outputs": [],
      "payable": false,
      "stateMutability": "nonpayable",
      "type": "function"
    },
    {
      "constant": false,
      "inputs": [
        {
          "name": "account",
          "type": "address"
        }
      ],
      "name": "addMember",
      "outputs": [],
      "payable": false,
      "stateMutability": "nonpayable",
      "type": "function"
    },
    {
      "constant": true,
      "inputs": [
        {
          "name": "account",
          "type": "address"
        }
      ],
      "name": "isManager",
      "outputs": [
        {
          "name": "",
          "type": "bool"
        }
      ],
      "payable": false,
      "stateMutability": "view",
      "type": "function"
    },
    {
      "constant": false,
      "inputs": [],
      "name": "renounceManager",
      "outputs": [],
      "payable": false,
      "stateMutability": "nonpayable",
      "type": "function"
    },
    {
      "constant": true,
      "inputs": [],
      "name": "token",
      "outputs": [
        {
          "name": "",
          "type": "address"
        }
      ],
      "payable": false,
      "stateMutability": "view",
      "type": "function"
    },
    {
      "inputs": [
        {
          "name": "_tokenAddress",
          "type": "address"
        }
      ],
      "payable": false,
      "stateMutability": "nonpayable",
      "type": "constructor"
    },
    {
      "anonymous": false,
      "inputs": [
        {
          "indexed": false,
          "name": "id",
          "type": "uint256"
        },
        {
          "indexed": false,
          "name": "proposedAmount",
          "type": "uint256"
        },
        {
          "indexed": false,
          "name": "sender",
          "type": "address"
        }
      ],
      "name": "RulePollCreated",
      "type": "event"
    },
    {
      "anonymous": false,
      "inputs": [
        {
          "indexed": false,
          "name": "id",
          "type": "uint256"
        },
        {
          "indexed": false,
          "name": "approved",
          "type": "bool"
        },
        {
          "indexed": false,
          "name": "sender",
          "type": "address"
        }
      ],
      "name": "RulePollFinished",
      "type": "event"
    },
    {
      "anonymous": false,
      "inputs": [
        {
          "indexed": false,
          "name": "id",
          "type": "uint256"
        },
        {
          "indexed": false,
          "name": "state",
          "type": "uint8"
        },
        {
          "indexed": false,
          "name": "sender",
          "type": "address"
        }
      ],
      "name": "RuleStateChanged",
      "type": "event"
    },
    {
      "anonymous": false,
      "inputs": [
        {
          "indexed": true,
          "name": "account",
          "type": "address"
        }
      ],
      "name": "MemberAdded",
      "type": "event"
    },
    {
      "anonymous": false,
      "inputs": [
        {
          "indexed": true,
          "name": "account",
          "type": "address"
        }
      ],
      "name": "MemberRemoved",
      "type": "event"
    },
    {
      "anonymous": false,
      "inputs": [
        {
          "indexed": true,
          "name": "account",
          "type": "address"
        }
      ],
      "name": "ManagerAdded",
      "type": "event"
    },
    {
      "anonymous": false,
      "inputs": [
        {
          "indexed": true,
          "name": "account",
          "type": "address"
        }
      ],
      "name": "ManagerRemoved",
      "type": "event"
    },
    {
      "constant": false,
      "inputs": [],
      "name": "createRule",
      "outputs": [],
      "payable": false,
      "stateMutability": "nonpayable",
      "type": "function"
    },
    {
      "constant": false,
      "inputs": [
        {
          "name": "id",
          "type": "uint256"
        },
        {
          "name": "agree",
          "type": "bool"
        }
      ],
      "name": "voteForRule",
      "outputs": [],
      "payable": false,
      "stateMutability": "nonpayable",
      "type": "function"
    },
    {
      "constant": false,
      "inputs": [
        {
          "name": "id",
          "type": "uint256"
        }
      ],
      "name": "revokeVoteForRule",
      "outputs": [],
      "payable": false,
      "stateMutability": "nonpayable",
      "type": "function"
    },
    {
      "constant": false,
      "inputs": [
        {
          "name": "id",
          "type": "uint256"
        },
        {
          "name": "proposedAmount",
          "type": "uint256"
        }
      ],
      "name": "startRulePoll",
      "outputs": [],
      "payable": false,
      "stateMutability": "nonpayable",
      "type": "function"
    },
    {
      "constant": false,
      "inputs": [
        {
          "name": "id",
          "type": "uint256"
        },
        {
          "name": "agree",
          "type": "bool"
        },
        {
          "name": "proposedAmount",
          "type": "uint256"
        }
      ],
      "name": "onRulePollFinish",
      "outputs": [],
      "payable": false,
      "stateMutability": "nonpayable",
      "type": "function"
    },
    {
      "constant": true,
      "inputs": [],
      "name": "countRules",
      "outputs": [
        {
          "name": "",
          "type": "uint256"
        }
      ],
      "payable": false,
      "stateMutability": "view",
      "type": "function"
    }
  ],
  "bytecode": "0x608060405260006003553480156200001657600080fd5b5060405160208062001d55833981018060405260208110156200003857600080fd5b50516200004e3364010000000062000088810204565b6200006233640100000000620000da810204565b60028054600160a060020a031916600160a060020a0392909216919091179055620001bf565b620000a360008264010000000062000fdd6200012c82021704565b604051600160a060020a038216907f3b4a40cccf2058c593542587329dd385be4f0b588db5471fbd9598e56dd7093a90600090a250565b620000f560018264010000000062000fdd6200012c82021704565b604051600160a060020a038216907fb251eb052afc73ffd02ffe85ad79990a8b3fed60d76dbc2fa2fdd7123dffd91490600090a250565b600160a060020a03811615156200014257600080fd5b62000157828264010000000062000187810204565b156200016257600080fd5b600160a060020a0316600090815260209190915260409020805460ff19166001179055565b6000600160a060020a03821615156200019f57600080fd5b50600160a060020a03166000908152602091909152604090205460ff1690565b611b8680620001cf6000396000f3fe6080604052600436106100d75763ffffffff60e060020a60003504166304d6ded481146100dc5780632d06177a1461017157806331c54032146101a6578063439c6f17146101cd578063563b373d146101e2578063607ca15b1461021257806383e7eb871461024a578063842192041461025f578063962c9c8d14610274578063a230c52414610289578063b8771a34146102d0578063bad5ba01146102fa578063ca6d56dc1461030f578063e213cf0f14610342578063f3ae241514610374578063f8b91abe146103a7578063fc0c546a146103bc575b600080fd5b3480156100e857600080fd5b50610106600480360360208110156100ff57600080fd5b50356103ed565b6040518087815260200186815260200185600181111561012257fe5b60ff16815260200184600160a060020a0316600160a060020a0316815260200183600160a060020a0316600160a060020a03168152602001828152602001965050505050505060405180910390f35b34801561017d57600080fd5b506101a46004803603602081101561019457600080fd5b5035600160a060020a0316610444565b005b3480156101b257600080fd5b506101bb610464565b60408051918252519081900360200190f35b3480156101d957600080fd5b506101bb61046a565b3480156101ee57600080fd5b506101a46004803603604081101561020557600080fd5b508035906020013561046f565b34801561021e57600080fd5b506101a46004803603606081101561023557600080fd5b508035906020810135151590604001356106ae565b34801561025657600080fd5b506101a46108c2565b34801561026b57600080fd5b506101bb610a60565b34801561028057600080fd5b506101bb610a66565b34801561029557600080fd5b506102bc600480360360208110156102ac57600080fd5b5035600160a060020a0316610a6b565b604080519115158252519081900360200190f35b3480156102dc57600080fd5b506101a4600480360360208110156102f357600080fd5b5035610a84565b34801561030657600080fd5b506101a4610b74565b34801561031b57600080fd5b506101a46004803603602081101561033257600080fd5b5035600160a060020a0316610b7f565b34801561034e57600080fd5b506101a46004803603604081101561036557600080fd5b50803590602001351515610b9c565b34801561038057600080fd5b506102bc6004803603602081101561039757600080fd5b5035600160a060020a0316610c95565b3480156103b357600080fd5b506101a4610ca7565b3480156103c857600080fd5b506103d1610cb0565b60408051600160a060020a039092168252519081900360200190f35b60048054829081106103fb57fe5b600091825260209091206005909102018054600182015460028301546003840154600490940154929450909260ff821692610100909204600160a060020a039081169291169086565b61044d33610c95565b151561045857600080fd5b61046181610cbf565b50565b60045490565b603c81565b61047833610a6b565b151561048357600080fd5b60048054600091908490811061049557fe5b60009182526020909120600590910201600201546101009004600160a060020a03161480610559575060048054839081106104cc57fe5b906000526020600020906005020160020160019054906101000a9004600160a060020a0316600160a060020a031663b3f05b976040518163ffffffff1660e060020a02815260040160206040518083038186803b15801561052c57600080fd5b505afa158015610540573d6000803e3d6000fd5b505050506040513d602081101561055657600080fd5b50515b151561056457600080fd5b600480548390811061057257fe5b906000526020600020906005020160010154811415151561059257600080fd5b6002546003544291603c83019185918591600160a060020a039091169085908590306105bc61109b565b9687526020870195909552600160a060020a039384166040808801919091526060870193909352608086019190915260a0850152911660c0830152519081900360e001906000f080158015610615573d6000803e3d6000fd5b50600480548690811061062457fe5b60009182526020918290206002600590920201018054600160a060020a03939093166101000274ffffffffffffffffffffffffffffffffffffffff001990931692909217909155604080518681529182018590523382820152517fdeea9f03d34191891f4d710d13235d67f125d54b82595f43bd61bb85eee1361e9181900360600190a150505050565b60048054849081106106bc57fe5b60009182526020909120600590910201600201546101009004600160a060020a031633148015610782575060048054849081106106f557fe5b906000526020600020906005020160020160019054906101000a9004600160a060020a0316600160a060020a031663b3f05b976040518163ffffffff1660e060020a02815260040160206040518083038186803b15801561075557600080fd5b505afa158015610769573d6000803e3d6000fd5b505050506040513d602081101561077f57600080fd5b50515b151561078d57600080fd5b811561079d5761079d8382610d07565b6108406004848154811015156107af57fe5b906000526020600020906005020160020160019054906101000a9004600160a060020a0316600160a060020a0316632c24909c6040518163ffffffff1660e060020a02815260040160206040518083038186803b15801561080f57600080fd5b505afa158015610823573d6000803e3d6000fd5b505050506040513d602081101561083957600080fd5b5051610e9f565b604080518481528315156020820152338183015290517fa90fbb743f484212bbeda1b7afa164217b7fec13335136f21f67705f327978549181900360600190a1600480548490811061088e57fe5b60009182526020909120600260059092020101805474ffffffffffffffffffffffffffffffffffffffff0019169055505050565b6108cb33610c95565b15156108d657600080fd5b6108de6110ab565b60045480825260006020808401919091526001604080850182905233608086018190524260a087015281519485529284019190915282810191909152517f37aec22f64fe69a8fd1e8fd9b7fdb5803c56fb5f8794371fbcf23e4337f78dcb9181900360600190a1600480546001818101808455600093909352835160059092027f8a35acfbc15ff81a39ae7d344fd709f28e8600b4aa8c65c6b64bfe7fe36bd19b810192835560208501517f8a35acfbc15ff81a39ae7d344fd709f28e8600b4aa8c65c6b64bfe7fe36bd19c82015560408501517f8a35acfbc15ff81a39ae7d344fd709f28e8600b4aa8c65c6b64bfe7fe36bd19d909101805486949360ff199091169083818111156109ed57fe5b0217905550606082015160028201805474ffffffffffffffffffffffffffffffffffffffff001916610100600160a060020a0393841602179055608083015160038301805473ffffffffffffffffffffffffffffffffffffffff19169190921617905560a0909101516004909101555050565b60035481565b600a81565b6000610a7e60018363ffffffff610ece16565b92915050565b610a8d33610a6b565b1515610a9857600080fd5b600480546000919083908110610aaa57fe5b60009182526020909120600590910201600201546101009004600160a060020a03161415610ad757600080fd5b6004805482908110610ae557fe5b6000918252602082206005919091020160020154604080517f0519bac30000000000000000000000000000000000000000000000000000000081523360048201529051610100909204600160a060020a031692630519bac39260248084019382900301818387803b158015610b5957600080fd5b505af1158015610b6d573d6000803e3d6000fd5b5050505050565b610b7d33610f05565b565b610b8833610a6b565b1515610b9357600080fd5b61046181610f4d565b610ba533610a6b565b1515610bb057600080fd5b600480546000919084908110610bc257fe5b60009182526020909120600590910201600201546101009004600160a060020a03161415610bef57600080fd5b6004805483908110610bfd57fe5b6000918252602082206005919091020160020154604080517fbd041c4d00000000000000000000000000000000000000000000000000000000815233600482015284151560248201529051610100909204600160a060020a03169263bd041c4d9260448084019382900301818387803b158015610c7957600080fd5b505af1158015610c8d573d6000803e3d6000fd5b505050505050565b6000610a7e818363ffffffff610ece16565b610b7d33610f95565b600254600160a060020a031681565b610cd060008263ffffffff610fdd16565b604051600160a060020a038216907f3b4a40cccf2058c593542587329dd385be4f0b588db5471fbd9598e56dd7093a90600090a250565b801515610d4b576001600483815481101515610d1f57fe5b60009182526020909120600260059092020101805460ff191660018381811115610d4557fe5b02179055505b8015801590610d89575060016004805484908110610d6557fe5b600091825260209091206002600590920201015460ff166001811115610d8757fe5b145b15610dcb576000600483815481101515610d9f57fe5b60009182526020909120600260059092020101805460ff191660018381811115610dc557fe5b02179055505b80600483815481101515610ddb57fe5b9060005260206000209060050201600101819055507f37aec22f64fe69a8fd1e8fd9b7fdb5803c56fb5f8794371fbcf23e4337f78dcb600483815481101515610e2057fe5b906000526020600020906005020160000154600484815481101515610e4157fe5b906000526020600020906005020160020160009054906101000a900460ff163360405180848152602001836001811115610e7757fe5b60ff168152600160a060020a0390921660208301525060408051918290030192509050a15050565b6000610eb282600263ffffffff61102b16565b9050600a811115610ec85750600a600355610461565b60035550565b6000600160a060020a0382161515610ee557600080fd5b50600160a060020a03166000908152602091909152604090205460ff1690565b610f1660018263ffffffff61104f16565b604051600160a060020a038216907f6e76fb4c77256006d9c38ec7d82b45a8c8f3c27b1d6766fffc42dfb8de68449290600090a250565b610f5e60018263ffffffff610fdd16565b604051600160a060020a038216907fb251eb052afc73ffd02ffe85ad79990a8b3fed60d76dbc2fa2fdd7123dffd91490600090a250565b610fa660008263ffffffff61104f16565b604051600160a060020a038216907fef69f7d97228658c92417be1b16b19058315de71fecb435d07b7d23728b6bd3190600090a250565b600160a060020a0381161515610ff257600080fd5b610ffc8282610ece565b1561100657600080fd5b600160a060020a0316600090815260209190915260409020805460ff19166001179055565b600080821161103957600080fd5b6000828481151561104657fe5b04949350505050565b600160a060020a038116151561106457600080fd5b61106e8282610ece565b151561107957600080fd5b600160a060020a0316600090815260209190915260409020805460ff19169055565b604051610a79806110e283390190565b6040805160c08101825260008082526020820181905290918201908152600060208201819052604082018190526060909101529056fe60806040526000600555600060065560006007556000600a5534801561002457600080fd5b5060405160e080610a79833981018060405260e081101561004457600080fd5b508051602082015160408301516060840151608085015160a086015160c0909601519495939492939192909190848185856000600160a060020a038516151561008c57600080fd5b42831015801561009b57508282115b15156100a657600080fd5b60008054600160a060020a0319908116600160a060020a03978816178255600180548216968816969096179095556002939093556003919091556008805460ff1990811690915560048054909116911515919091179055600b99909955600a93909355600c96909655600d805490921695169490941790935550610947928392506101329150396000f3fe6080604052600436106100fb5763ffffffff7c01000000000000000000000000000000000000000000000000000000006000350416630519bac3811461010057806316f0115b146101355780632c24909c146101665780633197cbb61461018d57806336181026146101a257806341fdade6146101cb5780634e9e8e73146101e057806364a90292146101f55780636f6a97621461020a57806378e979251461021f57806380322cbd14610234578063a7491b4814610249578063af640d0f1461029c578063b3a2273f146102b1578063b3f05b97146102c6578063bd041c4d146102db578063d74689e414610316578063fc0c546a1461032b575b600080fd5b34801561010c57600080fd5b506101336004803603602081101561012357600080fd5b5035600160a060020a0316610340565b005b34801561014157600080fd5b5061014a61040f565b60408051600160a060020a039092168252519081900360200190f35b34801561017257600080fd5b5061017b61041e565b60408051918252519081900360200190f35b34801561019957600080fd5b5061017b6104f6565b3480156101ae57600080fd5b506101b76104fc565b604080519115158252519081900360200190f35b3480156101d757600080fd5b5061017b610544565b3480156101ec57600080fd5b5061017b61054a565b34801561020157600080fd5b5061017b610550565b34801561021657600080fd5b5061017b610556565b34801561022b57600080fd5b5061017b61055c565b34801561024057600080fd5b506101b7610562565b34801561025557600080fd5b5061027c6004803603602081101561026c57600080fd5b5035600160a060020a0316610571565b604080519384526020840192909252151582820152519081900360600190f35b3480156102a857600080fd5b5061017b610595565b3480156102bd57600080fd5b5061017b61059b565b3480156102d257600080fd5b506101b76105a1565b3480156102e757600080fd5b50610133600480360360408110156102fe57600080fd5b50600160a060020a03813516906020013515156105aa565b34801561032257600080fd5b5061017b6107cb565b34801561033757600080fd5b5061014a6107d1565b600254421015801561035457506003544211155b151561035f57600080fd5b600160a060020a0381166000908152600960205260408120541161038257600080fd5b600160a060020a038116600090815260096020526040812060018082018054600284018054948690559490915560ff19831690935560075460ff909216916103cf9163ffffffff6107e016565b60075580156103f3576005546103eb908363ffffffff6107e016565b60055561040a565b600654610406908363ffffffff6107e016565b6006555b505050565b600d54600160a060020a031681565b6000806104386006546005546107fa90919063ffffffff16565b90506104ef6000809054906101000a9004600160a060020a0316600160a060020a03166318160ddd6040518163ffffffff167c010000000000000000000000000000000000000000000000000000000002815260040160206040518083038186803b1580156104a657600080fd5b505afa1580156104ba573d6000803e3d6000fd5b505050506040513d60208110156104d057600080fd5b50516104e383606463ffffffff61081316565b9063ffffffff61083e16565b9150505b90565b60035481565b60085460009060ff161561050f57600080fd5b600354421015610521575060006104f3565b6008805460ff1916600117905561053e610539610862565b610884565b50600190565b6103e881565b600c5481565b60065481565b600a5481565b60025481565b600061056c610862565b905090565b60096020526000908152604090208054600182015460029092015490919060ff1683565b600b5481565b60075481565b60085460ff1681565b60025442101580156105be57506003544211155b15156105c957600080fd5b600160a060020a03821615156105de57600080fd5b600160a060020a0382166000908152600960205260409020541561060157600080fd5b60008054604080517f70a08231000000000000000000000000000000000000000000000000000000008152600160a060020a038681166004830152915191909216916370a08231916024808301926020929190829003018186803b15801561066857600080fd5b505afa15801561067c573d6000803e3d6000fd5b505050506040513d602081101561069257600080fd5b505160008054604080517f18160ddd00000000000000000000000000000000000000000000000000000000815290519394509192610736926103e892600160a060020a0316916318160ddd91600480820192602092909190829003018186803b1580156106fe57600080fd5b505afa158015610712573d6000803e3d6000fd5b505050506040513d602081101561072857600080fd5b50519063ffffffff61083e16565b9050808211156107465780610748565b815b9150821561076b57600554610763908363ffffffff6107fa16565b600555610782565b60065461077e908363ffffffff6107fa16565b6006555b600160a060020a038416600090815260096020526040902042815560018082018490556002909101805460ff19168515151790556007546107c2916107fa565b60075550505050565b60055481565b600054600160a060020a031681565b6000828211156107ef57600080fd5b508082035b92915050565b60008282018381101561080c57600080fd5b9392505050565b6000821515610824575060006107f4565b82820282848281151561083357fe5b041461080c57600080fd5b600080821161084c57600080fd5b6000828481151561085957fe5b04949350505050565b600060065460055411801561056c5750600a5461087d61041e565b1015905090565b600d54600b54600c54604080517f607ca15b00000000000000000000000000000000000000000000000000000000815260048101939093528415156024840152604483019190915251600160a060020a039092169163607ca15b9160648082019260009290919082900301818387803b15801561090057600080fd5b505af1158015610914573d6000803e3d6000fd5b505050505056fea165627a7a72305820204ed578968633adb051122328a6916c4f3a3312cf553a87118fcb62a20eb1cf0029a165627a7a723058209eb9c2298f1c6b4525a74d8b0d059e747d30cc19f7fe4d8d77f45b4be6b1b5760029",
  "source": "pragma solidity ^0.5.0;\n\nimport '../access/roles/MemberRole.sol';\nimport '../access/roles/ManagerRole.sol';\nimport '../math/SafeMath.sol';\nimport '../token/ERC20/IERC20.sol';\nimport '../poll/polls/RulePoll.sol';\n\ncontract Rules is ManagerRole, MemberRole {\n    using SafeMath for uint256;\n\n    struct Rule {\n        uint256 id;\n        uint256 amount;\n        RuleState state;\n        RulePoll poll;\n        address creator;\n        uint256 created;\n    }\n\n    enum RuleState { Active, Disabled }\n\n    event RulePollCreated(uint256 id, uint256 proposedAmount, address sender);\n    event RulePollFinished(uint256 id, bool approved, address sender);\n    event RuleStateChanged(uint256 id, RuleState state, address sender);\n\n    uint256 public constant RULE_POLL_DURATION = 1 minutes;\n    uint256 public constant MAX_VOTED_TOKEN_PERC = 10;\n\n    IERC20 public token;\n    uint256 public minVotedTokensPerc = 0;\n\n    Rule[] public rules;\n\n    constructor(address _tokenAddress) public {\n        token = IERC20(_tokenAddress);\n    }\n\n    /**\n    * @dev Creates the initial reward rule.\n    */\n    function createRule() public onlyManager {\n        Rule memory rule;\n\n        rule.id = rules.length;\n        rule.amount = 0;\n        rule.state = RuleState.Disabled;\n        rule.creator = msg.sender;\n        rule.created = now;\n\n        emit RuleStateChanged(rule.id, rule.state, msg.sender);\n\n        rules.push(rule);\n    }\n\n    /**\n    * @dev Vote for the suggested rule.\n    * @param id reference to the rule that the poll runs for\n    * @param agree Approve or reject rule.\n    */\n    function voteForRule(uint256 id, bool agree) public onlyMember {\n        require(address(rules[id].poll) != address(0));\n\n        rules[id].poll.vote(msg.sender, agree);\n    }\n\n    /**\n    * @dev Vote for the suggested rule.\n    * @param id reference to the rule that the poll runs for\n    */\n    function revokeVoteForRule(uint256 id) public onlyMember {\n        require(address(rules[id].poll) != address(0));\n\n        rules[id].poll.revokeVote(msg.sender);\n    }\n\n    /**\n    * @dev Starts the rule poll for chaning the amount.\n    * @param id The id of the rule.\n    * @param id The new amount for the rule.\n    */\n    function startRulePoll(uint256 id, uint256 proposedAmount) public onlyMember {\n        require(address(rules[id].poll) == address(0) || rules[id].poll.finalized());\n        require(proposedAmount != rules[id].amount);\n\n        uint256 startTime = now;\n        uint256 endTime = startTime + RULE_POLL_DURATION;\n\n        rules[id].poll = new RulePoll(id, proposedAmount, address(token), startTime, endTime, minVotedTokensPerc, address(this));\n\n        emit RulePollCreated(id, proposedAmount, msg.sender);\n    }\n\n    /**\n    * @dev Approves the suggested rule and sets its state to Active.\n    * @param id The id of the rule.\n    * @param id The new amount for the rule.\n    */\n    function _approve(uint256 id, uint256 proposedAmount) internal {\n        if (proposedAmount == 0) {\n            rules[id].state = RuleState.Disabled;\n        }\n\n        if (proposedAmount != 0 && rules[id].state == RuleState.Disabled) {\n            rules[id].state = RuleState.Active;\n        }\n\n        rules[id].amount = proposedAmount;\n\n        emit RuleStateChanged(rules[id].id, rules[id].state, msg.sender);\n    }\n\n    /**\n    * @dev Rejects the rule and sets the state to Disabled.\n    * @param id The id of the rule.\n    */\n    /* function _reject(uint256 id) internal {\n        require(rules[id].state == RuleState.Pending || rules[id].state == RuleState.Active);\n        rules[id].state = RuleState.Disabled;\n    } */\n\n    /**\n     * @dev Update minVotedTokensPerc value after tap poll.\n     * Set new value == 50% from current voted tokens amount\n     */\n    function updateMinVotedTokens(uint256 _minVotedTokensPerc) internal {\n        uint256 newPerc = _minVotedTokensPerc.div(2);\n        if(newPerc > MAX_VOTED_TOKEN_PERC) {\n            minVotedTokensPerc = MAX_VOTED_TOKEN_PERC;\n            return;\n        }\n        minVotedTokensPerc = newPerc;\n    }\n\n    /**\n    * @dev Called when poll is finished\n    * @param id Referenced reward rule\n    * @param agree Bool for checking the result of the poll.\n    * @param proposedAmount The proposed reward size.\n    */\n    function onRulePollFinish(uint256 id, bool agree, uint256 proposedAmount) external {\n        require(msg.sender == address(rules[id].poll) && rules[id].poll.finalized());\n\n        if(agree) {\n            _approve(id, proposedAmount);\n        }\n\n        updateMinVotedTokens(rules[id].poll.getVotedTokensPerc());\n        emit RulePollFinished(id, agree, msg.sender);\n\n        delete rules[id].poll;\n    }\n\n    /**\n    * @dev Counts the amount of rules.\n    */\n    function countRules() public view returns (uint256) {\n        return rules.length;\n    }\n\n}\n",
  "sourcePath": "/Users/peterpolman/Sites/thx/thx-wallet/contracts/rule/Rules.sol",
  "compiler": {
    "name": "solc",
    "version": "0.5.0+commit.1d4f565a.Emscripten.clang"
  },
  "schemaVersion": "3.0.1",
  "updatedAt": "2020-02-04T08:51:57.386Z",
  "devdoc": {
    "methods": {
      "countRules()": {
        "details": "Counts the amount of rules."
      },
      "createRule()": {
        "details": "Creates the initial reward rule."
      },
      "onRulePollFinish(uint256,bool,uint256)": {
        "details": "Called when poll is finished",
        "params": {
          "agree": "Bool for checking the result of the poll.",
          "id": "Referenced reward rule",
          "proposedAmount": "The proposed reward size."
        }
      },
      "revokeVoteForRule(uint256)": {
        "details": "Vote for the suggested rule.",
        "params": {
          "id": "reference to the rule that the poll runs for"
        }
      },
      "startRulePoll(uint256,uint256)": {
        "details": "Starts the rule poll for chaning the amount.",
        "params": {
          "id": "The new amount for the rule."
        }
      },
      "voteForRule(uint256,bool)": {
        "details": "Vote for the suggested rule.",
        "params": {
          "agree": "Approve or reject rule.",
          "id": "reference to the rule that the poll runs for"
        }
      }
    }
  },
  "userdoc": {
    "methods": {}
  }
}