{
  "contractName": "RewardPool",
  "abi": [
    {
      "constant": true,
      "inputs": [],
      "name": "creator",
      "outputs": [
        {
          "name": "",
          "type": "address"
        }
      ],
      "payable": false,
      "stateMutability": "view",
      "type": "function",
      "signature": "0x02d05d3f"
    },
    {
      "constant": true,
      "inputs": [
        {
          "name": "",
          "type": "uint256"
        }
      ],
      "name": "rules",
      "outputs": [
        {
          "name": "id",
          "type": "uint256"
        },
        {
          "name": "slug",
          "type": "string"
        },
        {
          "name": "amount",
          "type": "uint256"
        },
        {
          "name": "state",
          "type": "uint8"
        },
        {
          "name": "creator",
          "type": "address"
        },
        {
          "name": "created",
          "type": "uint256"
        }
      ],
      "payable": false,
      "stateMutability": "view",
      "type": "function",
      "signature": "0x04d6ded4"
    },
    {
      "constant": true,
      "inputs": [],
      "name": "name",
      "outputs": [
        {
          "name": "",
          "type": "string"
        }
      ],
      "payable": false,
      "stateMutability": "view",
      "type": "function",
      "signature": "0x06fdde03"
    },
    {
      "constant": false,
      "inputs": [
        {
          "name": "account",
          "type": "address"
        }
      ],
      "name": "addManager",
      "outputs": [],
      "payable": false,
      "stateMutability": "nonpayable",
      "type": "function",
      "signature": "0x2d06177a"
    },
    {
      "constant": true,
      "inputs": [],
      "name": "countRules",
      "outputs": [
        {
          "name": "",
          "type": "uint256"
        }
      ],
      "payable": false,
      "stateMutability": "view",
      "type": "function",
      "signature": "0x31c54032"
    },
    {
      "constant": false,
      "inputs": [
        {
          "name": "slug",
          "type": "string"
        },
        {
          "name": "amount",
          "type": "uint256"
        }
      ],
      "name": "createRule",
      "outputs": [],
      "payable": false,
      "stateMutability": "nonpayable",
      "type": "function",
      "signature": "0x35deeb4a"
    },
    {
      "constant": true,
      "inputs": [],
      "name": "RULE_POLL_DURATION",
      "outputs": [
        {
          "name": "",
          "type": "uint256"
        }
      ],
      "payable": false,
      "stateMutability": "view",
      "type": "function",
      "signature": "0x439c6f17"
    },
    {
      "constant": false,
      "inputs": [
        {
          "name": "agree",
          "type": "bool"
        }
      ],
      "name": "voteForRule",
      "outputs": [],
      "payable": false,
      "stateMutability": "nonpayable",
      "type": "function",
      "signature": "0x51fece9d"
    },
    {
      "constant": false,
      "inputs": [
        {
          "name": "id",
          "type": "uint256"
        },
        {
          "name": "proposedAmount",
          "type": "uint256"
        }
      ],
      "name": "startRulePoll",
      "outputs": [],
      "payable": false,
      "stateMutability": "nonpayable",
      "type": "function",
      "signature": "0x563b373d"
    },
    {
      "constant": true,
      "inputs": [
        {
          "name": "",
          "type": "address"
        },
        {
          "name": "",
          "type": "uint256"
        }
      ],
      "name": "voters",
      "outputs": [
        {
          "name": "",
          "type": "uint256"
        }
      ],
      "payable": false,
      "stateMutability": "view",
      "type": "function",
      "signature": "0x5c134d66"
    },
    {
      "constant": true,
      "inputs": [],
      "name": "rulePoll",
      "outputs": [
        {
          "name": "",
          "type": "address"
        }
      ],
      "payable": false,
      "stateMutability": "view",
      "type": "function",
      "signature": "0x6fb1270c"
    },
    {
      "constant": true,
      "inputs": [],
      "name": "minVotedTokensPerc",
      "outputs": [
        {
          "name": "",
          "type": "uint256"
        }
      ],
      "payable": false,
      "stateMutability": "view",
      "type": "function",
      "signature": "0x84219204"
    },
    {
      "constant": true,
      "inputs": [],
      "name": "MAX_VOTED_TOKEN_PERC",
      "outputs": [
        {
          "name": "",
          "type": "uint256"
        }
      ],
      "payable": false,
      "stateMutability": "view",
      "type": "function",
      "signature": "0x962c9c8d"
    },
    {
      "constant": true,
      "inputs": [
        {
          "name": "account",
          "type": "address"
        }
      ],
      "name": "isMember",
      "outputs": [
        {
          "name": "",
          "type": "bool"
        }
      ],
      "payable": false,
      "stateMutability": "view",
      "type": "function",
      "signature": "0xa230c524"
    },
    {
      "constant": false,
      "inputs": [],
      "name": "renounceMember",
      "outputs": [],
      "payable": false,
      "stateMutability": "nonpayable",
      "type": "function",
      "signature": "0xbad5ba01"
    },
    {
      "constant": false,
      "inputs": [],
      "name": "revokeVoteForRule",
      "outputs": [],
      "payable": false,
      "stateMutability": "nonpayable",
      "type": "function",
      "signature": "0xc9b19453"
    },
    {
      "constant": false,
      "inputs": [
        {
          "name": "account",
          "type": "address"
        }
      ],
      "name": "addMember",
      "outputs": [],
      "payable": false,
      "stateMutability": "nonpayable",
      "type": "function",
      "signature": "0xca6d56dc"
    },
    {
      "constant": true,
      "inputs": [
        {
          "name": "",
          "type": "uint256"
        }
      ],
      "name": "rewards",
      "outputs": [
        {
          "name": "",
          "type": "address"
        }
      ],
      "payable": false,
      "stateMutability": "view",
      "type": "function",
      "signature": "0xf301af42"
    },
    {
      "constant": true,
      "inputs": [
        {
          "name": "account",
          "type": "address"
        }
      ],
      "name": "isManager",
      "outputs": [
        {
          "name": "",
          "type": "bool"
        }
      ],
      "payable": false,
      "stateMutability": "view",
      "type": "function",
      "signature": "0xf3ae2415"
    },
    {
      "constant": false,
      "inputs": [],
      "name": "renounceManager",
      "outputs": [],
      "payable": false,
      "stateMutability": "nonpayable",
      "type": "function",
      "signature": "0xf8b91abe"
    },
    {
      "constant": true,
      "inputs": [],
      "name": "token",
      "outputs": [
        {
          "name": "",
          "type": "address"
        }
      ],
      "payable": false,
      "stateMutability": "view",
      "type": "function",
      "signature": "0xfc0c546a"
    },
    {
      "inputs": [
        {
          "name": "_name",
          "type": "string"
        },
        {
          "name": "_tokenAddress",
          "type": "address"
        }
      ],
      "payable": false,
      "stateMutability": "nonpayable",
      "type": "constructor",
      "signature": "constructor"
    },
    {
      "anonymous": false,
      "inputs": [
        {
          "indexed": true,
          "name": "sender",
          "type": "address"
        },
        {
          "indexed": false,
          "name": "amount",
          "type": "uint256"
        },
        {
          "indexed": false,
          "name": "created",
          "type": "uint256"
        }
      ],
      "name": "Deposited",
      "type": "event",
      "signature": "0x73a19dd210f1a7f902193214c0ee91dd35ee5b4d920cba8d519eca65a7b488ca"
    },
    {
      "anonymous": false,
      "inputs": [
        {
          "indexed": true,
          "name": "beneficiary",
          "type": "address"
        },
        {
          "indexed": false,
          "name": "amount",
          "type": "uint256"
        },
        {
          "indexed": false,
          "name": "id",
          "type": "uint256"
        },
        {
          "indexed": false,
          "name": "created",
          "type": "uint256"
        }
      ],
      "name": "Withdrawn",
      "type": "event",
      "signature": "0x75e161b3e824b114fc1a33274bd7091918dd4e639cede50b78b15a4eea956a21"
    },
    {
      "anonymous": false,
      "inputs": [
        {
          "indexed": false,
          "name": "id",
          "type": "uint256"
        },
        {
          "indexed": false,
          "name": "approved",
          "type": "bool"
        }
      ],
      "name": "RewardPollFinished",
      "type": "event",
      "signature": "0xb07b6a4d3da57c26eeed54737d6979b2a65101898160f7eb26d9e58626a70c14"
    },
    {
      "anonymous": false,
      "inputs": [
        {
          "indexed": false,
          "name": "id",
          "type": "uint256"
        },
        {
          "indexed": false,
          "name": "proposedAmount",
          "type": "uint256"
        }
      ],
      "name": "RulePollCreated",
      "type": "event",
      "signature": "0x9bd49e167f8ad588627e6f5b6a02b84c5a6ee245ce327afa99ade561bcbc284d"
    },
    {
      "anonymous": false,
      "inputs": [
        {
          "indexed": false,
          "name": "id",
          "type": "uint256"
        },
        {
          "indexed": false,
          "name": "approved",
          "type": "bool"
        }
      ],
      "name": "RulePollFinished",
      "type": "event",
      "signature": "0x118384964387422ef394126dcae83b6fc97ee2a5c14d8729ebc59cc3d1ce3f44"
    },
    {
      "anonymous": false,
      "inputs": [
        {
          "indexed": false,
          "name": "id",
          "type": "uint256"
        },
        {
          "indexed": false,
          "name": "state",
          "type": "uint8"
        }
      ],
      "name": "RuleStateChanged",
      "type": "event",
      "signature": "0x2da08c9afbca94a7781f242bd0193bf9a13ebd681b7fead14822408e3fbe78e9"
    },
    {
      "anonymous": false,
      "inputs": [
        {
          "indexed": true,
          "name": "account",
          "type": "address"
        }
      ],
      "name": "MemberAdded",
      "type": "event",
      "signature": "0xb251eb052afc73ffd02ffe85ad79990a8b3fed60d76dbc2fa2fdd7123dffd914"
    },
    {
      "anonymous": false,
      "inputs": [
        {
          "indexed": true,
          "name": "account",
          "type": "address"
        }
      ],
      "name": "MemberRemoved",
      "type": "event",
      "signature": "0x6e76fb4c77256006d9c38ec7d82b45a8c8f3c27b1d6766fffc42dfb8de684492"
    },
    {
      "anonymous": false,
      "inputs": [
        {
          "indexed": true,
          "name": "account",
          "type": "address"
        }
      ],
      "name": "ManagerAdded",
      "type": "event",
      "signature": "0x3b4a40cccf2058c593542587329dd385be4f0b588db5471fbd9598e56dd7093a"
    },
    {
      "anonymous": false,
      "inputs": [
        {
          "indexed": true,
          "name": "account",
          "type": "address"
        }
      ],
      "name": "ManagerRemoved",
      "type": "event",
      "signature": "0xef69f7d97228658c92417be1b16b19058315de71fecb435d07b7d23728b6bd31"
    },
    {
      "constant": false,
      "inputs": [
        {
          "name": "value",
          "type": "string"
        }
      ],
      "name": "updatePoolName",
      "outputs": [],
      "payable": false,
      "stateMutability": "nonpayable",
      "type": "function",
      "signature": "0xf0b33435"
    },
    {
      "constant": false,
      "inputs": [
        {
          "name": "amount",
          "type": "uint256"
        }
      ],
      "name": "deposit",
      "outputs": [],
      "payable": false,
      "stateMutability": "nonpayable",
      "type": "function",
      "signature": "0xb6b55f25"
    },
    {
      "constant": true,
      "inputs": [],
      "name": "countRewards",
      "outputs": [
        {
          "name": "",
          "type": "uint256"
        }
      ],
      "payable": false,
      "stateMutability": "view",
      "type": "function",
      "signature": "0x0bd028c0"
    },
    {
      "constant": false,
      "inputs": [
        {
          "name": "slug",
          "type": "string"
        },
        {
          "name": "amount",
          "type": "uint256"
        }
      ],
      "name": "createReward",
      "outputs": [],
      "payable": false,
      "stateMutability": "nonpayable",
      "type": "function",
      "signature": "0x10437844"
    },
    {
      "constant": false,
      "inputs": [
        {
          "name": "id",
          "type": "uint256"
        },
        {
          "name": "agree",
          "type": "bool"
        }
      ],
      "name": "voteForReward",
      "outputs": [],
      "payable": false,
      "stateMutability": "nonpayable",
      "type": "function",
      "signature": "0x67218195"
    },
    {
      "constant": false,
      "inputs": [
        {
          "name": "id",
          "type": "uint256"
        }
      ],
      "name": "revokeVoteForReward",
      "outputs": [],
      "payable": false,
      "stateMutability": "nonpayable",
      "type": "function",
      "signature": "0x75d74bed"
    }
  ],
  "bytecode": "0x608060405260006005553480156200001657600080fd5b506040516200352b3803806200352b833981018060405260408110156200003c57600080fd5b8101908080516401000000008111156200005557600080fd5b820160208101848111156200006957600080fd5b81516401000000008111828201871017156200008457600080fd5b50506020909101519092509050620000a533640100000000620000ff810204565b620000b93364010000000062000151810204565b8151620000ce90600890602085019062000236565b5060078054600160a060020a03909216600160a060020a0319928316179055600980549091163317905550620002db565b6200011a6000826401000000006200164d620001a382021704565b604051600160a060020a038216907f3b4a40cccf2058c593542587329dd385be4f0b588db5471fbd9598e56dd7093a90600090a250565b6200016c6001826401000000006200164d620001a382021704565b604051600160a060020a038216907fb251eb052afc73ffd02ffe85ad79990a8b3fed60d76dbc2fa2fdd7123dffd91490600090a250565b600160a060020a0381161515620001b957600080fd5b620001ce8282640100000000620001fe810204565b15620001d957600080fd5b600160a060020a0316600090815260209190915260409020805460ff19166001179055565b6000600160a060020a03821615156200021657600080fd5b50600160a060020a03166000908152602091909152604090205460ff1690565b828054600181600116156101000203166002900490600052602060002090601f016020900481019282601f106200027957805160ff1916838001178555620002a9565b82800160010185558215620002a9579182015b82811115620002a95782518255916020019190600101906200028c565b50620002b7929150620002bb565b5090565b620002d891905b80821115620002b75760008155600101620002c2565b90565b61324080620002eb6000396000f3fe6080604052600436106200017a5763ffffffff7c010000000000000000000000000000000000000000000000000000000060003504166302d05d3f81146200017f57806304d6ded414620001b357806306fdde0314620002a05780630bd028c0146200033057806310437844146200035a5780632d06177a146200041857806331c54032146200044f57806335deeb4a1462000467578063439c6f17146200052357806351fece9d146200053b578063563b373d146200056b5780635c134d66146200059f5780636721819514620005dc5780636fb1270c146200061257806375d74bed146200062a578063842192041462000658578063962c9c8d1462000670578063a230c5241462000688578063b6b55f2514620006d3578063bad5ba011462000701578063c9b194531462000719578063ca6d56dc1462000731578063f0b334351462000768578063f301af421462000822578063f3ae24151462000850578063f8b91abe1462000887578063fc0c546a146200089f575b600080fd5b3480156200018c57600080fd5b5062000197620008b7565b60408051600160a060020a039092168252519081900360200190f35b348015620001c057600080fd5b50620001e160048036036020811015620001d957600080fd5b5035620008c6565b60405180878152602001806020018681526020018560028111156200020257fe5b60ff16815260200184600160a060020a0316600160a060020a03168152602001838152602001828103825287818151815260200191508051906020019080838360005b838110156200025f57818101518382015260200162000245565b50505050905090810190601f1680156200028d5780820380516001836020036101000a031916815260200191505b5097505050505050505060405180910390f35b348015620002ad57600080fd5b50620002b8620009bc565b6040805160208082528351818301528351919283929083019185019080838360005b83811015620002f4578181015183820152602001620002da565b50505050905090810190601f168015620003225780820380516001836020036101000a031916815260200191505b509250505060405180910390f35b3480156200033d57600080fd5b506200034862000a4e565b60408051918252519081900360200190f35b3480156200036757600080fd5b5062000416600480360360408110156200038057600080fd5b8101906020810181356401000000008111156200039c57600080fd5b820183602082011115620003af57600080fd5b80359060200191846001830284011164010000000083111715620003d257600080fd5b91908080601f016020809104026020016040519081016040528093929190818152602001838380828437600092019190915250929550509135925062000a55915050565b005b3480156200042557600080fd5b5062000416600480360360208110156200043e57600080fd5b5035600160a060020a031662000b97565b3480156200045c57600080fd5b506200034862000bbc565b3480156200047457600080fd5b5062000416600480360360408110156200048d57600080fd5b810190602081018135640100000000811115620004a957600080fd5b820183602082011115620004bc57600080fd5b80359060200191846001830284011164010000000083111715620004df57600080fd5b91908080601f016020809104026020016040519081016040528093929190818152602001838380828437600092019190915250929550509135925062000bc2915050565b3480156200053057600080fd5b506200034862000d55565b3480156200054857600080fd5b5062000416600480360360208110156200056157600080fd5b5035151562000d5c565b3480156200057857600080fd5b5062000416600480360360408110156200059157600080fd5b508035906020013562000e10565b348015620005ac57600080fd5b506200034860048036036040811015620005c557600080fd5b50600160a060020a03813516906020013562000fc9565b348015620005e957600080fd5b5062000416600480360360408110156200060257600080fd5b5080359060200135151562000ffa565b3480156200061f57600080fd5b5062000197620010a7565b3480156200063757600080fd5b5062000416600480360360208110156200065057600080fd5b5035620010b6565b3480156200066557600080fd5b50620003486200113e565b3480156200067d57600080fd5b506200034862001144565b3480156200069557600080fd5b50620006bf60048036036020811015620006ae57600080fd5b5035600160a060020a031662001149565b604080519115158252519081900360200190f35b348015620006e057600080fd5b506200041660048036036020811015620006f957600080fd5b503562001164565b3480156200070e57600080fd5b506200041662001390565b3480156200072657600080fd5b50620004166200139d565b3480156200073e57600080fd5b5062000416600480360360208110156200075757600080fd5b5035600160a060020a031662001444565b3480156200077557600080fd5b5062000416600480360360208110156200078e57600080fd5b810190602081018135640100000000811115620007aa57600080fd5b820183602082011115620007bd57600080fd5b80359060200191846001830284011164010000000083111715620007e057600080fd5b91908080601f01602080910402602001604051908101604052809392919081815260200183838082843760009201919091525092955062001466945050505050565b3480156200082f57600080fd5b5062000197600480360360208110156200084857600080fd5b503562001496565b3480156200085d57600080fd5b50620006bf600480360360208110156200087657600080fd5b5035600160a060020a0316620014bf565b3480156200089457600080fd5b5062000416620014d3565b348015620008ac57600080fd5b5062000197620014de565b600954600160a060020a031681565b6006805482908110620008d557fe5b9060005260206000209060050201600091509050806000015490806001018054600181600116156101000203166002900480601f0160208091040260200160405190810160405280929190818152602001828054600181600116156101000203166002900480156200098b5780601f106200095f576101008083540402835291602001916200098b565b820191906000526020600020905b8154815290600101906020018083116200096d57829003601f168201915b50505050600283015460038401546004909401549293909260ff82169250610100909104600160a060020a03169086565b6008805460408051602060026001851615610100026000190190941693909304601f8101849004840282018401909252818152929183018282801562000a465780601f1062000a1a5761010080835404028352916020019162000a46565b820191906000526020600020905b81548152906001019060200180831162000a2857829003601f168201915b505050505081565b600a545b90565b600a5460075460009190849033908590600160a060020a03163062000a79620016ef565b868152600160a060020a038086166040830152606082018590528381166080830152821660a082015260c06020808301828152885192840192909252875160e084019189019080838360005b8381101562000adf57818101518382015260200162000ac5565b50505050905090810190601f16801562000b0d5780820380516001836020036101000a031916815260200191505b50975050505050505050604051809103906000f08015801562000b34573d6000803e3d6000fd5b50600a80546001810182556000919091527fc65a7bb8d6351c1cf70c95a316cc6a92839c986682d98bc35f958f4883f9d2a801805473ffffffffffffffffffffffffffffffffffffffff1916600160a060020a0392909216919091179055505050565b62000ba233620014bf565b151562000bae57600080fd5b62000bb981620014ed565b50565b60065490565b62000bcd33620014bf565b151562000bd957600080fd5b62000be362001700565b600654808252602080830185905260408084018590526000606085018190523360808601524260a086015281519384529183019190915280517f2da08c9afbca94a7781f242bd0193bf9a13ebd681b7fead14822408e3fbe78e99281900390910190a16006805460018101808355600092909252825160059091027ff652222313e28459528d920b65115c16c04f3efc82aaedc97be59f3f377c0d3f8101918255602080850151805186949362000cc1937ff652222313e28459528d920b65115c16c04f3efc82aaedc97be59f3f377c0d4090910192019062001743565b506040820151816002015560608201518160030160006101000a81548160ff0219169083600281111562000cf157fe5b02179055506080820151600382018054600160a060020a039092166101000274ffffffffffffffffffffffffffffffffffffffff001990921691909117905560a090910151600490910155508051604082015162000d50919062000e10565b505050565b62093a8081565b62000d673362001149565b151562000d7357600080fd5b600454600160a060020a0316151562000d8b57600080fd5b60048054604080517f4b9f5c980000000000000000000000000000000000000000000000000000000081528415159381019390935251600160a060020a0390911691634b9f5c9891602480830192600092919082900301818387803b15801562000df457600080fd5b505af115801562000e09573d6000803e3d6000fd5b5050505050565b62000e1b3362001149565b151562000e2757600080fd5b600454600160a060020a0316158062000ec6575060048054604080517fb3f05b970000000000000000000000000000000000000000000000000000000081529051600160a060020a039092169263b3f05b97928282019260209290829003018186803b15801562000e9757600080fd5b505afa15801562000eac573d6000803e3d6000fd5b505050506040513d602081101562000ec357600080fd5b50515b151562000ed257600080fd5b600354600554429162093a8083019185918591600160a060020a0390911690859085903062000f00620017c8565b9687526020870195909552600160a060020a039384166040808801919091526060870193909352608086019190915260a0850152911660c0830152519081900360e001906000f08015801562000f5a573d6000803e3d6000fd5b506004805473ffffffffffffffffffffffffffffffffffffffff1916600160a060020a0392909216919091179055604080518581526020810185905281517f9bd49e167f8ad588627e6f5b6a02b84c5a6ee245ce327afa99ade561bcbc284d929181900390910190a150505050565b60026020528160005260406000208181548110151562000fe557fe5b90600052602060002001600091509150505481565b6200100533620014bf565b15156200101157600080fd5b600a8054839081106200102057fe5b6000918252602082200154604080517f4b9f5c9800000000000000000000000000000000000000000000000000000000815284151560048201529051600160a060020a0390921692634b9f5c989260248084019382900301818387803b1580156200108a57600080fd5b505af11580156200109f573d6000803e3d6000fd5b505050505050565b600454600160a060020a031681565b620010c133620014bf565b1515620010cd57600080fd5b600a805482908110620010dc57fe5b6000918252602082200154604080517f43c14b220000000000000000000000000000000000000000000000000000000081529051600160a060020a03909216926343c14b229260048084019382900301818387803b15801562000df457600080fd5b60055481565b600a81565b60006200115e60018363ffffffff6200153716565b92915050565b600754604080517f70a082310000000000000000000000000000000000000000000000000000000081523360048201529051600092600160a060020a0316916370a08231916024808301926020929190829003018186803b158015620011c957600080fd5b505afa158015620011de573d6000803e3d6000fd5b505050506040513d6020811015620011f557600080fd5b5051116200120257600080fd5b600081116200121057600080fd5b600754604080517f1302afc2000000000000000000000000000000000000000000000000000000008152336004820152306024820152604481018490529051600160a060020a0390921691631302afc2916064808201926020929091908290030181600087803b1580156200128457600080fd5b505af115801562001299573d6000803e3d6000fd5b505050506040513d6020811015620012b057600080fd5b5050600754604080517f62cd70e2000000000000000000000000000000000000000000000000000000008152336004820152306024820152604481018490529051600160a060020a03909216916362cd70e2916064808201926020929091908290030181600087803b1580156200132657600080fd5b505af11580156200133b573d6000803e3d6000fd5b505050506040513d60208110156200135257600080fd5b505060408051828152426020820152815133927f73a19dd210f1a7f902193214c0ee91dd35ee5b4d920cba8d519eca65a7b488ca928290030190a250565b6200139b336200156f565b565b620013a83362001149565b1515620013b457600080fd5b600454600160a060020a03161515620013cc57600080fd5b60048054604080517f43c14b220000000000000000000000000000000000000000000000000000000081529051600160a060020a03909216926343c14b2292828201926000929082900301818387803b1580156200142957600080fd5b505af11580156200143e573d6000803e3d6000fd5b50505050565b6200144f3362001149565b15156200145b57600080fd5b62000bb981620015b9565b6200147133620014bf565b15156200147d57600080fd5b80516200149290600890602084019062001743565b5050565b600a805482908110620014a557fe5b600091825260209091200154600160a060020a0316905081565b60006200115e818363ffffffff6200153716565b6200139b3362001603565b600754600160a060020a031681565b6200150060008263ffffffff6200164d16565b604051600160a060020a038216907f3b4a40cccf2058c593542587329dd385be4f0b588db5471fbd9598e56dd7093a90600090a250565b6000600160a060020a03821615156200154f57600080fd5b50600160a060020a03166000908152602091909152604090205460ff1690565b6200158260018263ffffffff6200169f16565b604051600160a060020a038216907f6e76fb4c77256006d9c38ec7d82b45a8c8f3c27b1d6766fffc42dfb8de68449290600090a250565b620015cc60018263ffffffff6200164d16565b604051600160a060020a038216907fb251eb052afc73ffd02ffe85ad79990a8b3fed60d76dbc2fa2fdd7123dffd91490600090a250565b6200161660008263ffffffff6200169f16565b604051600160a060020a038216907fef69f7d97228658c92417be1b16b19058315de71fecb435d07b7d23728b6bd3190600090a250565b600160a060020a03811615156200166357600080fd5b6200166f828262001537565b156200167a57600080fd5b600160a060020a0316600090815260209190915260409020805460ff19166001179055565b600160a060020a0381161515620016b557600080fd5b620016c1828262001537565b1515620016cd57600080fd5b600160a060020a0316600090815260209190915260409020805460ff19169055565b60405161102480620017f783390190565b60c060405190810160405280600081526020016060815260200160008152602001600060028111156200172f57fe5b815260006020820181905260409091015290565b828054600181600116156101000203166002900490600052602060002090601f016020900481019282601f106200178657805160ff1916838001178555620017b6565b82800160010185558215620017b6579182015b82811115620017b657825182559160200191906001019062001799565b50620017c4929150620017d9565b5090565b6040516109fa806200281b83390190565b62000a5291905b80821115620017c45760008155600101620017e056fe60806040526000600555600060065560006007553480156200002057600080fd5b506040516200102438038062001024833981018060405260c08110156200004657600080fd5b8151602083018051919392830192916401000000008111156200006857600080fd5b820160208101848111156200007c57600080fd5b81516401000000008111828201871017156200009757600080fd5b50506020820151604083015160608401516080909401519295509093509190814262093a8081016000620000d4336401000000006200021f810204565b600160a060020a0384161515620000ea57600080fd5b428310158015620000fa57508282115b15156200010657600080fd5b60018054600160a060020a031916600160a060020a0395909516949094179093556002919091556003556008805460ff1990811690915560048054909116911515919091179055620001613364010000000062000271810204565b15156200016d57600080fd5b600a86905584516200018790600b90602088019062000326565b50600c8054600160a060020a03868116600160a060020a031992831617909255600d859055600e805460ff1916905542600f5560108054821685841617905560118054909116918316919091179055600a54604080519182526000602083015280517f90ab42752b8b3a3e8bcb9cba7d57f5bf87db421f9885bb1c203f08d0ef199c209281900390910190a1505050505050620003cb565b6200023a60008264010000000062000bcf6200029382021704565b604051600160a060020a038216907fb251eb052afc73ffd02ffe85ad79990a8b3fed60d76dbc2fa2fdd7123dffd91490600090a250565b60006200028d818364010000000062000abc620002ee82021704565b92915050565b600160a060020a0381161515620002a957600080fd5b620002be8282640100000000620002ee810204565b15620002c957600080fd5b600160a060020a0316600090815260209190915260409020805460ff19166001179055565b6000600160a060020a03821615156200030657600080fd5b50600160a060020a03166000908152602091909152604090205460ff1690565b828054600181600116156101000203166002900490600052602060002090601f016020900481019282601f106200036957805160ff191683800117855562000399565b8280016001018555821562000399579182015b82811115620003995782518255916020019190600101906200037c565b50620003a7929150620003ab565b5090565b620003c891905b80821115620003a75760008155600101620003b2565b90565b610c4980620003db6000396000f3fe6080604052600436106101535763ffffffff7c010000000000000000000000000000000000000000000000000000000060003504166316f0115b811461015857806328d21990146101895780633197cbb6146101b0578063325a19f1146101c557806336181026146101da57806338af3eed1461020357806341fdade61461021857806343c14b221461022d5780634b9f5c98146102445780635c134d661461027057806364a90292146102a95780636beb7959146102be57806378e979251461034857806380322cbd1461035d578063a1d1936114610372578063a230c52414610387578063a7491b48146103ba578063aa8c217c1461040d578063af640d0f14610422578063b3a2273f14610437578063b3f05b971461044c578063bad5ba0114610461578063c19d93fb14610476578063ca6d56dc146104af578063d74689e4146104e2578063fc0c546a146104f7575b600080fd5b34801561016457600080fd5b5061016d61050c565b60408051600160a060020a039092168252519081900360200190f35b34801561019557600080fd5b5061019e61051b565b60408051918252519081900360200190f35b3480156101bc57600080fd5b5061019e610522565b3480156101d157600080fd5b5061019e610528565b3480156101e657600080fd5b506101ef61052e565b604080519115158252519081900360200190f35b34801561020f57600080fd5b5061016d610577565b34801561022457600080fd5b5061019e610586565b34801561023957600080fd5b5061024261058c565b005b34801561025057600080fd5b506102426004803603602081101561026757600080fd5b50351515610648565b34801561027c57600080fd5b5061019e6004803603604081101561029357600080fd5b50600160a060020a038135169060200135610840565b3480156102b557600080fd5b5061019e610870565b3480156102ca57600080fd5b506102d3610876565b6040805160208082528351818301528351919283929083019185019080838360005b8381101561030d5781810151838201526020016102f5565b50505050905090810190601f16801561033a5780820380516001836020036101000a031916815260200191505b509250505060405180910390f35b34801561035457600080fd5b5061019e610904565b34801561036957600080fd5b506101ef61090a565b34801561037e57600080fd5b506101ef610919565b34801561039357600080fd5b506101ef600480360360208110156103aa57600080fd5b5035600160a060020a0316610934565b3480156103c657600080fd5b506103ed600480360360208110156103dd57600080fd5b5035600160a060020a031661094c565b604080519384526020840192909252151582820152519081900360600190f35b34801561041957600080fd5b5061019e610970565b34801561042e57600080fd5b5061019e610976565b34801561044357600080fd5b5061019e61097c565b34801561045857600080fd5b506101ef610982565b34801561046d57600080fd5b5061024261098b565b34801561048257600080fd5b5061048b610996565b6040518082600381111561049b57fe5b60ff16815260200191505060405180910390f35b3480156104bb57600080fd5b50610242600480360360208110156104d257600080fd5b5035600160a060020a031661099f565b3480156104ee57600080fd5b5061019e6109bf565b34801561050357600080fd5b5061016d6109c5565b601154600160a060020a031681565b62093a8081565b60035481565b600f5481565b60085460009060ff161561054157600080fd5b60035442101561055357506000610574565b6008805460ff1916600117905561057061056b6109d4565b6109de565b5060015b90565b600c54600160a060020a031681565b6103e881565b60025442101580156105a057506003544211155b15156105ab57600080fd5b33600090815260096020526040812054116105c557600080fd5b33600090815260096020526040812060018082018054600284018054948690559490915560ff19831690935560075460ff909216916106099163ffffffff610a6a16565b600755801561062d57600554610625908363ffffffff610a6a16565b600555610644565b600654610640908363ffffffff610a6a16565b6006555b5050565b600254421015801561065c57506003544211155b151561066757600080fd5b336000908152600960205260409020541561068157600080fd5b600154604080517f70a082310000000000000000000000000000000000000000000000000000000081523360048201529051600092600160a060020a0316916370a08231916024808301926020929190829003018186803b1580156106e557600080fd5b505afa1580156106f9573d6000803e3d6000fd5b505050506040513d602081101561070f57600080fd5b5051600154604080517f18160ddd00000000000000000000000000000000000000000000000000000000815290519293506000926107b5926103e892600160a060020a03909116916318160ddd91600480820192602092909190829003018186803b15801561077d57600080fd5b505afa158015610791573d6000803e3d6000fd5b505050506040513d60208110156107a757600080fd5b50519063ffffffff610a7f16565b9050808211156107c557806107c7565b815b915082156107ea576005546107e2908363ffffffff610aa316565b600555610801565b6006546107fd908363ffffffff610aa316565b6006555b33600090815260096020526040902042815560018082018490556002909101805460ff191685151517905560075461083891610aa3565b600755505050565b60126020528160005260406000208181548110151561085b57fe5b90600052602060002001600091509150505481565b60065481565b600b805460408051602060026001851615610100026000190190941693909304601f810184900484028201840190925281815292918301828280156108fc5780601f106108d1576101008083540402835291602001916108fc565b820191906000526020600020905b8154815290600101906020018083116108df57829003601f168201915b505050505081565b60025481565b60006109146109d4565b905090565b60006001600e5460ff16600381111561092e57fe5b14905090565b6000610946818363ffffffff610abc16565b92915050565b60096020526000908152604090208054600182015460029092015490919060ff1683565b600d5481565b600a5481565b60075481565b60085460ff1681565b61099433610af3565b565b600e5460ff1681565b6109a833610934565b15156109b357600080fd5b6109bc81610b3b565b50565b60055481565b601054600160a060020a031681565b6006546005541190565b601154600a54604080517f7370407d0000000000000000000000000000000000000000000000000000000081526004810192909252831515602483015251600160a060020a0390921691637370407d9160448082019260009290919082900301818387803b158015610a4f57600080fd5b505af1158015610a63573d6000803e3d6000fd5b5050505050565b600082821115610a7957600080fd5b50900390565b6000808211610a8d57600080fd5b60008284811515610a9a57fe5b04949350505050565b600082820183811015610ab557600080fd5b9392505050565b6000600160a060020a0382161515610ad357600080fd5b50600160a060020a03166000908152602091909152604090205460ff1690565b610b0460008263ffffffff610b8316565b604051600160a060020a038216907f6e76fb4c77256006d9c38ec7d82b45a8c8f3c27b1d6766fffc42dfb8de68449290600090a250565b610b4c60008263ffffffff610bcf16565b604051600160a060020a038216907fb251eb052afc73ffd02ffe85ad79990a8b3fed60d76dbc2fa2fdd7123dffd91490600090a250565b600160a060020a0381161515610b9857600080fd5b610ba28282610abc565b1515610bad57600080fd5b600160a060020a0316600090815260209190915260409020805460ff19169055565b600160a060020a0381161515610be457600080fd5b610bee8282610abc565b15610bf857600080fd5b600160a060020a0316600090815260209190915260409020805460ff1916600117905556fea165627a7a7230582037d3809d794b682e866f08c8afdc540a9fef863ca58781c1c9589c98ac57c01b00296080604052600060045560006005556000600655600060095534801561002457600080fd5b5060405160e0806109fa833981018060405260e081101561004457600080fd5b508051602082015160408301516060840151608085015160a086015160c09096015194959394929391929091908484846000600160a060020a038416151561008b57600080fd5b42831015801561009a57508282115b15156100a557600080fd5b60008054600160a060020a03958616600160a060020a03199182161782556001949094556002929092556007805460ff199081169091556003805492151592909116919091179055600a99909955600993909355600b96909655600c805491909616911617909355506108da928392506101209150396000f3fe6080604052600436106100fb5763ffffffff7c010000000000000000000000000000000000000000000000000000000060003504166316f0115b81146101005780632c24909c146101315780633197cbb614610158578063361810261461016d57806341fdade61461019657806343c14b22146101ab5780634b9f5c98146101c25780634e9e8e73146101ee57806364a90292146102035780636f6a97621461021857806378e979251461022d57806380322cbd14610242578063a7491b4814610257578063af640d0f146102aa578063b3a2273f146102bf578063b3f05b97146102d4578063d74689e4146102e9578063fc0c546a146102fe575b600080fd5b34801561010c57600080fd5b50610115610313565b60408051600160a060020a039092168252519081900360200190f35b34801561013d57600080fd5b50610146610322565b60408051918252519081900360200190f35b34801561016457600080fd5b506101466103fa565b34801561017957600080fd5b50610182610400565b604080519115158252519081900360200190f35b3480156101a257600080fd5b50610146610448565b3480156101b757600080fd5b506101c061044e565b005b3480156101ce57600080fd5b506101c0600480360360208110156101e557600080fd5b5035151561050a565b3480156101fa57600080fd5b50610146610701565b34801561020f57600080fd5b50610146610707565b34801561022457600080fd5b5061014661070d565b34801561023957600080fd5b50610146610713565b34801561024e57600080fd5b50610182610719565b34801561026357600080fd5b5061028a6004803603602081101561027a57600080fd5b5035600160a060020a0316610728565b604080519384526020840192909252151582820152519081900360600190f35b3480156102b657600080fd5b5061014661074c565b3480156102cb57600080fd5b50610146610752565b3480156102e057600080fd5b50610182610758565b3480156102f557600080fd5b50610146610761565b34801561030a57600080fd5b50610115610767565b600c54600160a060020a031681565b60008061033c60055460045461077690919063ffffffff16565b90506103f36000809054906101000a9004600160a060020a0316600160a060020a03166318160ddd6040518163ffffffff167c010000000000000000000000000000000000000000000000000000000002815260040160206040518083038186803b1580156103aa57600080fd5b505afa1580156103be573d6000803e3d6000fd5b505050506040513d60208110156103d457600080fd5b50516103e783606463ffffffff61079116565b9063ffffffff6107bc16565b9150505b90565b60025481565b60075460009060ff161561041357600080fd5b600254421015610425575060006103f7565b6007805460ff1916600117905561044261043d6107e0565b610802565b50600190565b6103e881565b600154421015801561046257506002544211155b151561046d57600080fd5b336000908152600860205260408120541161048757600080fd5b33600090815260086020526040812060018082018054600284018054948690559490915560ff19831690935560065460ff909216916104cb9163ffffffff61089916565b60065580156104ef576004546104e7908363ffffffff61089916565b600455610506565b600554610502908363ffffffff61089916565b6005555b5050565b600154421015801561051e57506002544211155b151561052957600080fd5b336000908152600860205260409020541561054357600080fd5b60008054604080517f70a082310000000000000000000000000000000000000000000000000000000081523360048201529051600160a060020a03909216916370a0823191602480820192602092909190829003018186803b1580156105a857600080fd5b505afa1580156105bc573d6000803e3d6000fd5b505050506040513d60208110156105d257600080fd5b505160008054604080517f18160ddd00000000000000000000000000000000000000000000000000000000815290519394509192610676926103e892600160a060020a0316916318160ddd91600480820192602092909190829003018186803b15801561063e57600080fd5b505afa158015610652573d6000803e3d6000fd5b505050506040513d602081101561066857600080fd5b50519063ffffffff6107bc16565b9050808211156106865780610688565b815b915082156106ab576004546106a3908363ffffffff61077616565b6004556106c2565b6005546106be908363ffffffff61077616565b6005555b33600090815260086020526040902042815560018082018490556002909101805460ff19168515151790556006546106f991610776565b600655505050565b600b5481565b60055481565b60095481565b60015481565b60006107236107e0565b905090565b60086020526000908152604090208054600182015460029092015490919060ff1683565b600a5481565b60065481565b60075460ff1681565b60045481565b600054600160a060020a031681565b60008282018381101561078857600080fd5b90505b92915050565b60008215156107a25750600061078b565b8282028284828115156107b157fe5b041461078857600080fd5b60008082116107ca57600080fd5b600082848115156107d757fe5b04949350505050565b600060055460045411801561072357506009546107fb610322565b1015905090565b600c54600a54600b54604080517f607ca15b00000000000000000000000000000000000000000000000000000000815260048101939093528415156024840152604483019190915251600160a060020a039092169163607ca15b9160648082019260009290919082900301818387803b15801561087e57600080fd5b505af1158015610892573d6000803e3d6000fd5b5050505050565b6000828211156108a857600080fd5b5090039056fea165627a7a723058205b02a3b0949d8033f39fb89d0104262ade2a906b43f9b3da28479c5766e09e2b0029a165627a7a7230582086a6d696675257d03b77a24af456151768fce525a4e1d68fb4242b5ccc832f2a0029",
  "source": "pragma solidity ^0.5.0;\n\nimport './reward/Reward.sol';\nimport './rule/Rules.sol';\nimport './THXToken.sol';\n\ncontract RewardPool is Rules {\n\n    event Deposited(address indexed sender, uint256 amount, uint256 created);\n    event Withdrawn(address indexed beneficiary, uint256 amount, uint256 id, uint256 created);\n\n    event RewardPollFinished(uint256 id, bool approved);\n\n    THXToken public token;\n    string public name;\n    address public creator;\n\n    Reward[] public rewards;\n\n    constructor(string memory _name, address _tokenAddress) public {\n        name = _name;\n        token = THXToken(_tokenAddress);\n        creator = msg.sender;\n    }\n\n    /**\n    * @dev Updates the pool name set initially through the constructor.\n    * @param value The new pool name.\n    */\n    function updatePoolName(string memory value) public onlyManager {\n        name = value;\n    }\n\n    /**\n    * @dev Stores the sent amount as tokens in the Reward Pool.\n    * @param amount The amount the sender deposited.\n    */\n    function deposit(uint256 amount) public {\n        require(token.balanceOf(msg.sender) > 0);\n        require(amount > 0);\n\n        // Approve the token transaction.\n        token.approveDeposit(msg.sender, address(this), amount);\n\n        // Transfer the tokens from the sender to the pool\n        token.transferDeposit(msg.sender, address(this), amount);\n\n        emit Deposited(msg.sender, amount, now);\n    }\n\n    /**\n    * @dev Counts the amount of rewards.\n    */\n    function countRewards() public view returns (uint256) {\n        return rewards.length;\n    }\n\n    /**\n    * @dev Creates the suggested reward.\n    * @param slug Short readable description of reward.\n    * @param amount Reward size suggested for the beneficiary.\n    */\n    function createReward(string memory slug, uint256 amount) public {\n        Reward reward = new Reward(rewards.length, slug, msg.sender, amount, address(token), address(this));\n        rewards.push(reward);\n    }\n\n    /**\n    * @dev Vote for the suggested reward.\n    * @param id Referenced Reward\n    * @param agree Approve or reject reward.\n    */\n    function voteForReward(uint256 id, bool agree) public onlyManager {\n        rewards[id].vote(agree);\n    }\n\n    /**\n    * @dev Vote for the suggested reward.\n    * @param id Reference to thte reward\n    */\n    function revokeVoteForReward(uint256 id) public onlyManager {\n        rewards[id].revokeVote();\n    }\n\n    /**\n    * @dev Called when poll is finished\n    * @param agree Bool for checking the result of the poll.\n    */\n    function onRewardPollFinish(uint256 id, bool agree) internal {\n        require(rewards[id].finalized());\n        if(agree) {\n            _withdraw(id);\n        }\n        emit RewardPollFinished(id, agree);\n    }\n\n    /**\n    * @dev Withdraw accumulated balance for a beneficiary.\n    */\n    function _withdraw(uint256 id) internal onlyMember {\n        uint256 tokenBalance = token.balanceOf(address(this));\n\n        require(rewards[id].withdrawalAllowed());\n        require(rewards[id].amount() > 0);\n        require(tokenBalance >= rewards[id].amount());\n\n        // Approve the token transaction.\n        token.approve(address(this), rewards[id].amount());\n        // Transfer the tokens from the pool to the beneficiary.\n        token.transferFrom(address(this), rewards[id].beneficiary(), rewards[id].amount());\n\n        emit Withdrawn(rewards[id].beneficiary(), rewards[id].amount(), id, now);\n\n        delete rewards[id];\n    }\n\n}\n",
  "sourcePath": "/Users/peterpolman/Sites/thx_client/contracts/RewardPool.sol",
  "compiler": {
    "name": "solc",
    "version": "0.5.0+commit.1d4f565a.Emscripten.clang"
  },
  "schemaVersion": "3.0.1",
  "updatedAt": "2019-08-07T07:08:28.423Z",
  "devdoc": {
    "methods": {
      "countRewards()": {
        "details": "Counts the amount of rewards."
      },
      "countRules()": {
        "details": "Counts the amount of rules."
      },
      "createReward(string,uint256)": {
        "details": "Creates the suggested reward.",
        "params": {
          "amount": "Reward size suggested for the beneficiary.",
          "slug": "Short readable description of reward."
        }
      },
      "createRule(string,uint256)": {
        "details": "Creates the initial reward rule.",
        "params": {
          "amount": "Reward size suggested for the beneficiary.",
          "slug": "Short readable description of rule."
        }
      },
      "deposit(uint256)": {
        "details": "Stores the sent amount as tokens in the Reward Pool.",
        "params": {
          "amount": "The amount the sender deposited."
        }
      },
      "revokeVoteForReward(uint256)": {
        "details": "Vote for the suggested reward.",
        "params": {
          "id": "Reference to thte reward"
        }
      },
      "revokeVoteForRule()": {
        "details": "Vote for the suggested rule."
      },
      "startRulePoll(uint256,uint256)": {
        "details": "Starts the rule poll for chaning the amount."
      },
      "updatePoolName(string)": {
        "details": "Updates the pool name set initially through the constructor.",
        "params": {
          "value": "The new pool name."
        }
      },
      "voteForReward(uint256,bool)": {
        "details": "Vote for the suggested reward.",
        "params": {
          "agree": "Approve or reject reward.",
          "id": "Referenced Reward"
        }
      },
      "voteForRule(bool)": {
        "details": "Vote for the suggested rule.",
        "params": {
          "agree": "Approve or reject rule."
        }
      }
    }
  },
  "userdoc": {
    "methods": {}
  }
}