{
  "contractName": "RewardPool",
  "abi": [
    {
      "constant": true,
      "inputs": [
        {
          "name": "",
          "type": "uint256"
        }
      ],
      "name": "rules",
      "outputs": [
        {
          "name": "id",
          "type": "uint256"
        },
        {
          "name": "key",
          "type": "string"
        },
        {
          "name": "slug",
          "type": "string"
        },
        {
          "name": "amount",
          "type": "uint256"
        },
        {
          "name": "state",
          "type": "uint8"
        },
        {
          "name": "creator",
          "type": "address"
        },
        {
          "name": "created",
          "type": "uint256"
        }
      ],
      "payable": false,
      "stateMutability": "view",
      "type": "function"
    },
    {
      "constant": true,
      "inputs": [],
      "name": "name",
      "outputs": [
        {
          "name": "",
          "type": "string"
        }
      ],
      "payable": false,
      "stateMutability": "view",
      "type": "function"
    },
    {
      "constant": false,
      "inputs": [
        {
          "name": "account",
          "type": "address"
        }
      ],
      "name": "addManager",
      "outputs": [],
      "payable": false,
      "stateMutability": "nonpayable",
      "type": "function"
    },
    {
      "constant": true,
      "inputs": [
        {
          "name": "",
          "type": "address"
        },
        {
          "name": "",
          "type": "uint256"
        }
      ],
      "name": "withdrawels",
      "outputs": [
        {
          "name": "",
          "type": "uint256"
        }
      ],
      "payable": false,
      "stateMutability": "view",
      "type": "function"
    },
    {
      "constant": true,
      "inputs": [
        {
          "name": "",
          "type": "address"
        },
        {
          "name": "",
          "type": "uint256"
        }
      ],
      "name": "beneficiaries",
      "outputs": [
        {
          "name": "",
          "type": "uint256"
        }
      ],
      "payable": false,
      "stateMutability": "view",
      "type": "function"
    },
    {
      "constant": true,
      "inputs": [
        {
          "name": "",
          "type": "uint256"
        }
      ],
      "name": "transactions",
      "outputs": [
        {
          "name": "id",
          "type": "uint256"
        },
        {
          "name": "sender",
          "type": "address"
        },
        {
          "name": "receiver",
          "type": "address"
        },
        {
          "name": "amount",
          "type": "uint256"
        },
        {
          "name": "created",
          "type": "uint256"
        }
      ],
      "payable": false,
      "stateMutability": "view",
      "type": "function"
    },
    {
      "constant": true,
      "inputs": [
        {
          "name": "",
          "type": "address"
        },
        {
          "name": "",
          "type": "uint256"
        }
      ],
      "name": "deposits",
      "outputs": [
        {
          "name": "",
          "type": "uint256"
        }
      ],
      "payable": false,
      "stateMutability": "view",
      "type": "function"
    },
    {
      "constant": true,
      "inputs": [
        {
          "name": "",
          "type": "uint256"
        }
      ],
      "name": "rewards",
      "outputs": [
        {
          "name": "id",
          "type": "uint256"
        },
        {
          "name": "key",
          "type": "string"
        },
        {
          "name": "slug",
          "type": "string"
        },
        {
          "name": "beneficiary",
          "type": "address"
        },
        {
          "name": "amount",
          "type": "uint256"
        },
        {
          "name": "state",
          "type": "uint8"
        },
        {
          "name": "created",
          "type": "uint256"
        }
      ],
      "payable": false,
      "stateMutability": "view",
      "type": "function"
    },
    {
      "constant": true,
      "inputs": [
        {
          "name": "account",
          "type": "address"
        }
      ],
      "name": "isManager",
      "outputs": [
        {
          "name": "",
          "type": "bool"
        }
      ],
      "payable": false,
      "stateMutability": "view",
      "type": "function"
    },
    {
      "constant": false,
      "inputs": [],
      "name": "renounceManager",
      "outputs": [],
      "payable": false,
      "stateMutability": "nonpayable",
      "type": "function"
    },
    {
      "constant": true,
      "inputs": [],
      "name": "token",
      "outputs": [
        {
          "name": "",
          "type": "address"
        }
      ],
      "payable": false,
      "stateMutability": "view",
      "type": "function"
    },
    {
      "inputs": [
        {
          "name": "_name",
          "type": "string"
        },
        {
          "name": "_tokenAddress",
          "type": "address"
        }
      ],
      "payable": false,
      "stateMutability": "nonpayable",
      "type": "constructor"
    },
    {
      "anonymous": false,
      "inputs": [
        {
          "indexed": true,
          "name": "sender",
          "type": "address"
        },
        {
          "indexed": false,
          "name": "amount",
          "type": "uint256"
        },
        {
          "indexed": false,
          "name": "created",
          "type": "uint256"
        }
      ],
      "name": "Deposited",
      "type": "event"
    },
    {
      "anonymous": false,
      "inputs": [
        {
          "indexed": true,
          "name": "beneficiary",
          "type": "address"
        },
        {
          "indexed": false,
          "name": "amount",
          "type": "uint256"
        },
        {
          "indexed": false,
          "name": "id",
          "type": "uint256"
        },
        {
          "indexed": false,
          "name": "created",
          "type": "uint256"
        }
      ],
      "name": "Withdrawn",
      "type": "event"
    },
    {
      "anonymous": false,
      "inputs": [
        {
          "indexed": false,
          "name": "id",
          "type": "uint256"
        },
        {
          "indexed": false,
          "name": "key",
          "type": "string"
        },
        {
          "indexed": false,
          "name": "slug",
          "type": "string"
        },
        {
          "indexed": false,
          "name": "beneficiary",
          "type": "address"
        },
        {
          "indexed": false,
          "name": "amount",
          "type": "uint256"
        },
        {
          "indexed": false,
          "name": "state",
          "type": "uint8"
        },
        {
          "indexed": false,
          "name": "created",
          "type": "uint256"
        }
      ],
      "name": "RewardStateChanged",
      "type": "event"
    },
    {
      "anonymous": false,
      "inputs": [
        {
          "indexed": false,
          "name": "id",
          "type": "uint256"
        },
        {
          "indexed": false,
          "name": "key",
          "type": "string"
        },
        {
          "indexed": false,
          "name": "slug",
          "type": "string"
        },
        {
          "indexed": false,
          "name": "amount",
          "type": "uint256"
        },
        {
          "indexed": false,
          "name": "state",
          "type": "uint8"
        },
        {
          "indexed": false,
          "name": "creator",
          "type": "address"
        },
        {
          "indexed": false,
          "name": "created",
          "type": "uint256"
        }
      ],
      "name": "RuleStateChanged",
      "type": "event"
    },
    {
      "anonymous": false,
      "inputs": [
        {
          "indexed": true,
          "name": "account",
          "type": "address"
        }
      ],
      "name": "ManagerAdded",
      "type": "event"
    },
    {
      "anonymous": false,
      "inputs": [
        {
          "indexed": true,
          "name": "account",
          "type": "address"
        }
      ],
      "name": "ManagerRemoved",
      "type": "event"
    },
    {
      "constant": false,
      "inputs": [
        {
          "name": "amount",
          "type": "uint256"
        }
      ],
      "name": "deposit",
      "outputs": [],
      "payable": false,
      "stateMutability": "nonpayable",
      "type": "function"
    },
    {
      "constant": true,
      "inputs": [
        {
          "name": "id",
          "type": "uint256"
        }
      ],
      "name": "withdrawalAllowed",
      "outputs": [
        {
          "name": "",
          "type": "bool"
        }
      ],
      "payable": false,
      "stateMutability": "view",
      "type": "function"
    },
    {
      "constant": false,
      "inputs": [
        {
          "name": "key",
          "type": "string"
        },
        {
          "name": "slug",
          "type": "string"
        },
        {
          "name": "amount",
          "type": "uint256"
        }
      ],
      "name": "addRule",
      "outputs": [],
      "payable": false,
      "stateMutability": "nonpayable",
      "type": "function"
    },
    {
      "constant": false,
      "inputs": [
        {
          "name": "value",
          "type": "string"
        }
      ],
      "name": "updatePoolName",
      "outputs": [],
      "payable": false,
      "stateMutability": "nonpayable",
      "type": "function"
    },
    {
      "constant": false,
      "inputs": [
        {
          "name": "id",
          "type": "uint256"
        }
      ],
      "name": "approveRule",
      "outputs": [],
      "payable": false,
      "stateMutability": "nonpayable",
      "type": "function"
    },
    {
      "constant": false,
      "inputs": [
        {
          "name": "id",
          "type": "uint256"
        }
      ],
      "name": "rejectRule",
      "outputs": [],
      "payable": false,
      "stateMutability": "nonpayable",
      "type": "function"
    },
    {
      "constant": true,
      "inputs": [],
      "name": "countRules",
      "outputs": [
        {
          "name": "",
          "type": "uint256"
        }
      ],
      "payable": false,
      "stateMutability": "view",
      "type": "function"
    },
    {
      "constant": false,
      "inputs": [
        {
          "name": "key",
          "type": "string"
        },
        {
          "name": "slug",
          "type": "string"
        },
        {
          "name": "amount",
          "type": "uint256"
        }
      ],
      "name": "addReward",
      "outputs": [],
      "payable": false,
      "stateMutability": "nonpayable",
      "type": "function"
    },
    {
      "constant": false,
      "inputs": [
        {
          "name": "id",
          "type": "uint256"
        }
      ],
      "name": "approveReward",
      "outputs": [],
      "payable": false,
      "stateMutability": "nonpayable",
      "type": "function"
    },
    {
      "constant": false,
      "inputs": [
        {
          "name": "id",
          "type": "uint256"
        }
      ],
      "name": "rejectReward",
      "outputs": [],
      "payable": false,
      "stateMutability": "nonpayable",
      "type": "function"
    },
    {
      "constant": true,
      "inputs": [],
      "name": "countRewards",
      "outputs": [
        {
          "name": "",
          "type": "uint256"
        }
      ],
      "payable": false,
      "stateMutability": "view",
      "type": "function"
    },
    {
      "constant": true,
      "inputs": [],
      "name": "countTransactions",
      "outputs": [
        {
          "name": "",
          "type": "uint256"
        }
      ],
      "payable": false,
      "stateMutability": "view",
      "type": "function"
    },
    {
      "constant": true,
      "inputs": [
        {
          "name": "sender",
          "type": "address"
        }
      ],
      "name": "countRewardsOf",
      "outputs": [
        {
          "name": "",
          "type": "uint256"
        }
      ],
      "payable": false,
      "stateMutability": "view",
      "type": "function"
    },
    {
      "constant": true,
      "inputs": [
        {
          "name": "sender",
          "type": "address"
        }
      ],
      "name": "countDepositsOf",
      "outputs": [
        {
          "name": "",
          "type": "uint256"
        }
      ],
      "payable": false,
      "stateMutability": "view",
      "type": "function"
    },
    {
      "constant": true,
      "inputs": [
        {
          "name": "sender",
          "type": "address"
        }
      ],
      "name": "countWithdrawelsOf",
      "outputs": [
        {
          "name": "",
          "type": "uint256"
        }
      ],
      "payable": false,
      "stateMutability": "view",
      "type": "function"
    }
  ],
  "bytecode": "0x60806040523480156200001157600080fd5b50604051620026ea380380620026ea833981018060405260408110156200003757600080fd5b8101908080516401000000008111156200005057600080fd5b820160208101848111156200006457600080fd5b81516401000000008111828201871017156200007f57600080fd5b505060209182015190935091506200009d903390620000da811b901c565b8151620000b2906008906020850190620001b8565b50600780546001600160a01b0319166001600160a01b0392909216919091179055506200025d565b620000f58160006200012c60201b6200224b1790919060201c565b6040516001600160a01b038216907f3b4a40cccf2058c593542587329dd385be4f0b588db5471fbd9598e56dd7093a90600090a250565b6001600160a01b0381166200014057600080fd5b6200015282826200018260201b60201c565b156200015d57600080fd5b6001600160a01b0316600090815260209190915260409020805460ff19166001179055565b60006001600160a01b0382166200019857600080fd5b506001600160a01b03166000908152602091909152604090205460ff1690565b828054600181600116156101000203166002900490600052602060002090601f016020900481019282601f10620001fb57805160ff19168380011785556200022b565b828001600101855582156200022b579182015b828111156200022b5782518255916020019190600101906200020e565b50620002399291506200023d565b5090565b6200025a91905b8082111562000239576000815560010162000244565b90565b61247d806200026d6000396000f3fe608060405234801561001057600080fd5b506004361061018e5760003560e01c80639ace38c2116100de578063f0f9ad1911610097578063f3dbff9111610071578063f3dbff9114610939578063f81fc2301461095f578063f8b91abe14610967578063fc0c546a1461096f5761018e565b8063f0f9ad191461085b578063f301af4214610878578063f3ae2415146109135761018e565b80639ace38c2146106cc578063b6b55f2514610720578063c9ff4fa41461073d578063d6d681771461076e578063e2d7e7221461079a578063f0b33435146107b75761018e565b806331c540321161014b57806357b8e5e21161012557806357b8e5e2146105415780637895a0c51461066c5780639533caa7146106925780639962c782146106af5761018e565b806331c54032146104e1578063505e4b4a146104e9578063529849e9146105155761018e565b806304d6ded4146101935780630586dfc8146102d157806306fdde03146103095780630bd028c0146103865780631138f94e1461038e5780632d06177a146104bb575b600080fd5b6101b0600480360360208110156101a957600080fd5b5035610993565b6040518088815260200180602001806020018781526020018660028111156101d457fe5b60ff168152602001856001600160a01b03166001600160a01b03168152602001848152602001838103835289818151815260200191508051906020019080838360005b8381101561022f578181015183820152602001610217565b50505050905090810190601f16801561025c5780820380516001836020036101000a031916815260200191505b5083810382528851815288516020918201918a019080838360005b8381101561028f578181015183820152602001610277565b50505050905090810190601f1680156102bc5780820380516001836020036101000a031916815260200191505b50995050505050505050505060405180910390f35b6102f7600480360360208110156102e757600080fd5b50356001600160a01b0316610b15565b60408051918252519081900360200190f35b610311610b30565b6040805160208082528351818301528351919283929083019185019080838360005b8381101561034b578181015183820152602001610333565b50505050905090810190601f1680156103785780820380516001836020036101000a031916815260200191505b509250505060405180910390f35b6102f7610bbe565b6104b9600480360360608110156103a457600080fd5b810190602081018135600160201b8111156103be57600080fd5b8201836020820111156103d057600080fd5b803590602001918460018302840111600160201b831117156103f157600080fd5b91908080601f0160208091040260200160405190810160405280939291908181526020018383808284376000920191909152509295949360208101935035915050600160201b81111561044357600080fd5b82018360208201111561045557600080fd5b803590602001918460018302840111600160201b8311171561047657600080fd5b91908080601f0160208091040260200160405190810160405280939291908181526020018383808284376000920191909152509295505091359250610bc5915050565b005b6104b9600480360360208110156104d157600080fd5b50356001600160a01b0316610e33565b6102f7610e51565b6102f7600480360360408110156104ff57600080fd5b506001600160a01b038135169060200135610e57565b6102f76004803603604081101561052b57600080fd5b506001600160a01b038135169060200135610e85565b6104b96004803603606081101561055757600080fd5b810190602081018135600160201b81111561057157600080fd5b82018360208201111561058357600080fd5b803590602001918460018302840111600160201b831117156105a457600080fd5b91908080601f0160208091040260200160405190810160405280939291908181526020018383808284376000920191909152509295949360208101935035915050600160201b8111156105f657600080fd5b82018360208201111561060857600080fd5b803590602001918460018302840111600160201b8311171561062957600080fd5b91908080601f0160208091040260200160405190810160405280939291908181526020018383808284376000920191909152509295505091359250610e9e915050565b6102f76004803603602081101561068257600080fd5b50356001600160a01b031661111a565b6104b9600480360360208110156106a857600080fd5b5035611135565b6104b9600480360360208110156106c557600080fd5b50356111f9565b6106e9600480360360208110156106e257600080fd5b5035611516565b604080519586526001600160a01b039485166020870152929093168483015260608401526080830191909152519081900360a00190f35b6104b96004803603602081101561073657600080fd5b503561155f565b61075a6004803603602081101561075357600080fd5b503561176c565b604080519115158252519081900360200190f35b6102f76004803603604081101561078457600080fd5b506001600160a01b0381351690602001356117a6565b6104b9600480360360208110156107b057600080fd5b50356117bf565b6104b9600480360360208110156107cd57600080fd5b810190602081018135600160201b8111156107e757600080fd5b8201836020820111156107f957600080fd5b803590602001918460018302840111600160201b8311171561081a57600080fd5b91908080601f016020809104026020016040519081016040528093929190818152602001838380828437600092019190915250929550611a6d945050505050565b6104b96004803603602081101561087157600080fd5b5035611a96565b6108956004803603602081101561088e57600080fd5b5035611b85565b604051808881526020018060200180602001876001600160a01b03166001600160a01b031681526020018681526020018560038111156108d157fe5b60ff168152602001848152602001838103835289818151815260200191508051906020019080838360008381101561022f578181015183820152602001610217565b61075a6004803603602081101561092957600080fd5b50356001600160a01b0316611d09565b6102f76004803603602081101561094f57600080fd5b50356001600160a01b0316611d21565b6102f7611d3c565b6104b9611d42565b610977611d4d565b604080516001600160a01b039092168252519081900360200190f35b600681815481106109a057fe5b9060005260206000209060060201600091509050806000015490806001018054600181600116156101000203166002900480601f016020809104026020016040519081016040528092919081815260200182805460018160011615610100020316600290048015610a525780601f10610a2757610100808354040283529160200191610a52565b820191906000526020600020905b815481529060010190602001808311610a3557829003601f168201915b50505060028085018054604080516020601f6000196101006001871615020190941695909504928301859004850281018501909152818152959695945090925090830182828015610ae45780601f10610ab957610100808354040283529160200191610ae4565b820191906000526020600020905b815481529060010190602001808311610ac757829003601f168201915b50505050600383015460048401546005909401549293909260ff821692506101009091046001600160a01b03169087565b6001600160a01b031660009081526001602052604090205490565b6008805460408051602060026001851615610100026000190190941693909304601f81018490048402820184019092528181529291830182828015610bb65780601f10610b8b57610100808354040283529160200191610bb6565b820191906000526020600020905b815481529060010190602001808311610b9957829003601f168201915b505050505081565b6005545b90565b610bcd6122df565b600554808252602080830186905260408084018690523360608086018290526080808701889052600060a08089018290524260c08a0181905286518981529485018690529284018a90527fa4f6ee9b30f956805d63519b8e58b48ca7deb1b47de5dbfec6100373d0796dd197968c968c96958c9593909283019183019083018560ff168152602001848152602001838103835289818151815260200191508051906020019080838360005b83811015610c90578181015183820152602001610c78565b50505050905090810190601f168015610cbd5780820380516001836020036101000a031916815260200191505b5083810382528851815288516020918201918a019080838360005b83811015610cf0578181015183820152602001610cd8565b50505050905090810190601f168015610d1d5780820380516001836020036101000a031916815260200191505b50995050505050505050505060405180910390a16005805460018101808355600092909252825160079091027f036b6384b5eca791c62761152d0c79bb0604c104a5fb6f4eb0703f3154bb3db081019182556020808501518051869493610daa937f036b6384b5eca791c62761152d0c79bb0604c104a5fb6f4eb0703f3154bb3db1909101920190612330565b5060408201518051610dc6916002840191602090910190612330565b506060820151600382810180546001600160a01b0319166001600160a01b03909316929092179091556080830151600483015560a08301516005830180549192909160ff1916906001908490811115610e1b57fe5b021790555060c0820151816006015550505050505050565b610e3c33611d09565b610e4557600080fd5b610e4e81611d5c565b50565b60065490565b60026020528160005260406000208181548110610e7057fe5b90600052602060002001600091509150505481565b60036020528160005260406000208181548110610e7057fe5b610ea66123ae565b600654808252602080830186905260408084018690526060808501869052600060808087018290523360a088018190524260c0890181905285518881529485018a90527fe98998242bb09cae95bec2e97c6b9a224ef4e8e5adc11696fa3b17520aed05c997968c968c968c9695909283019183019083018660ff168152602001856001600160a01b03166001600160a01b03168152602001848152602001838103835289818151815260200191508051906020019080838360005b83811015610f79578181015183820152602001610f61565b50505050905090810190601f168015610fa65780820380516001836020036101000a031916815260200191505b5083810382528851815288516020918201918a019080838360005b83811015610fd9578181015183820152602001610fc1565b50505050905090810190601f1680156110065780820380516001836020036101000a031916815260200191505b50995050505050505050505060405180910390a1600680546001810180835560008390528351919092027ff652222313e28459528d920b65115c16c04f3efc82aaedc97be59f3f377c0d3f81019182556020808501518051869493611091937ff652222313e28459528d920b65115c16c04f3efc82aaedc97be59f3f377c0d40909101920190612330565b50604082015180516110ad916002840191602090910190612330565b5060608201516003820155608082015160048201805460ff191660018360028111156110d557fe5b021790555060a08201516004820180546001600160a01b0390921661010002610100600160a81b031990921691909117905560c0909101516005909101555050505050565b6001600160a01b031660009081526003602052604090205490565b61113e33611d09565b61114757600080fd5b60006006828154811061115657fe5b600091825260209091206004600690920201015460ff16600281111561117857fe5b14806111b2575060016006828154811061118e57fe5b600091825260209091206004600690920201015460ff1660028111156111b057fe5b145b6111bb57600080fd5b6002600682815481106111ca57fe5b60009182526020909120600460069092020101805460ff191660018360028111156111f157fe5b021790555050565b61120233611d09565b61120b57600080fd5b60006006828154811061121a57fe5b600091825260209091206004600690920201015460ff16600281111561123c57fe5b1480611276575060026006828154811061125257fe5b600091825260209091206004600690920201015460ff16600281111561127457fe5b145b61127f57600080fd5b60016006828154811061128e57fe5b60009182526020909120600460069092020101805460ff191660018360028111156112b557fe5b02179055507fe98998242bb09cae95bec2e97c6b9a224ef4e8e5adc11696fa3b17520aed05c9600682815481106112e857fe5b9060005260206000209060060201600001546006838154811061130757fe5b90600052602060002090600602016001016006848154811061132557fe5b90600052602060002090600602016002016006858154811061134357fe5b9060005260206000209060060201600301546006868154811061136257fe5b906000526020600020906006020160040160009054906101000a900460ff166006878154811061138e57fe5b906000526020600020906006020160040160019054906101000a90046001600160a01b0316600688815481106113c057fe5b9060005260206000209060060201600501546040518088815260200180602001806020018781526020018660028111156113f657fe5b60ff1681526001600160a01b0386166020820152604081018590526060848203810184528a54600260018216156101000260001901909116049082018190526080909101908a90801561148a5780601f1061145f5761010080835404028352916020019161148a565b820191906000526020600020905b81548152906001019060200180831161146d57829003601f168201915b50508381038252885460026000196101006001841615020190911604808252602090910190899080156114fe5780601f106114d3576101008083540402835291602001916114fe565b820191906000526020600020905b8154815290600101906020018083116114e157829003601f168201915b5050995050505050505050505060405180910390a150565b6004818154811061152357fe5b6000918252602090912060059091020180546001820154600283015460038401546004909401549294506001600160a01b039182169391169185565b60075460408051600160e01b6370a0823102815233600482015290516000926001600160a01b0316916370a08231916024808301926020929190829003018186803b1580156115ad57600080fd5b505afa1580156115c1573d6000803e3d6000fd5b505050506040513d60208110156115d757600080fd5b5051116115e357600080fd5b600081116115f057600080fd5b60075460408051600160e11b63098157e10281523360048201523060248201526044810184905290516001600160a01b0390921691631302afc2916064808201926020929091908290030181600087803b15801561164d57600080fd5b505af1158015611661573d6000803e3d6000fd5b505050506040513d602081101561167757600080fd5b505060075460408051600160e11b633166b8710281523360048201523060248201526044810184905290516001600160a01b03909216916362cd70e2916064808201926020929091908290030181600087803b1580156116d657600080fd5b505af11580156116ea573d6000803e3d6000fd5b505050506040513d602081101561170057600080fd5b505060408051828152426020820152815133927f73a19dd210f1a7f902193214c0ee91dd35ee5b4d920cba8d519eca65a7b488ca928290030190a2600061174933308442611da4565b336000908152600160208181526040832080549283018155835290912001555050565b600060016005838154811061177d57fe5b600091825260209091206005600790920201015460ff16600381111561179f57fe5b1492915050565b60016020528160005260406000208181548110610e7057fe5b6117c833611d09565b6117d157600080fd5b6000600582815481106117e057fe5b600091825260209091206005600790920201015460ff16600381111561180257fe5b148061183c575060026005828154811061181857fe5b600091825260209091206005600790920201015460ff16600381111561183a57fe5b145b61184557600080fd5b6005818154811061185257fe5b60009182526020909120600790910201600301546001600160a01b031633141561187b57600080fd5b60016005828154811061188a57fe5b60009182526020909120600560079092020101805460ff191660018360038111156118b157fe5b02179055506118bf81611ed2565b7fa4f6ee9b30f956805d63519b8e58b48ca7deb1b47de5dbfec6100373d0796dd1600582815481106118ed57fe5b9060005260206000209060070201600001546005838154811061190c57fe5b90600052602060002090600702016001016005848154811061192a57fe5b90600052602060002090600702016002016005858154811061194857fe5b906000526020600020906007020160030160009054906101000a90046001600160a01b03166005868154811061197a57fe5b9060005260206000209060070201600401546005878154811061199957fe5b906000526020600020906007020160050160009054906101000a900460ff16600588815481106119c557fe5b906000526020600020906007020160060154604051808881526020018060200180602001876001600160a01b03166001600160a01b03168152602001868152602001856003811115611a1357fe5b60ff168152602081018590526040848203810184528a54600260018216156101000260001901909116049082018190526060909101908a90801561148a5780601f1061145f5761010080835404028352916020019161148a565b611a7633611d09565b611a7f57600080fd5b8051611a92906008906020840190612330565b5050565b611a9f33611d09565b611aa857600080fd5b600060058281548110611ab757fe5b600091825260209091206005600790920201015460ff166003811115611ad957fe5b1480611b135750600160058281548110611aef57fe5b600091825260209091206005600790920201015460ff166003811115611b1157fe5b145b611b1c57600080fd5b600260058281548110611b2b57fe5b60009182526020909120600560079092020101805460ff19166001836003811115611b5257fe5b02179055507fa4f6ee9b30f956805d63519b8e58b48ca7deb1b47de5dbfec6100373d0796dd1600582815481106118ed57fe5b60058181548110611b9257fe5b9060005260206000209060070201600091509050806000015490806001018054600181600116156101000203166002900480601f016020809104026020016040519081016040528092919081815260200182805460018160011615610100020316600290048015611c445780601f10611c1957610100808354040283529160200191611c44565b820191906000526020600020905b815481529060010190602001808311611c2757829003601f168201915b50505060028085018054604080516020601f6000196101006001871615020190941695909504928301859004850281018501909152818152959695945090925090830182828015611cd65780601f10611cab57610100808354040283529160200191611cd6565b820191906000526020600020905b815481529060010190602001808311611cb957829003601f168201915b50505060038401546004850154600586015460069096015494956001600160a01b039092169490935060ff909116915087565b6000611d1b818363ffffffff6121ce16565b92915050565b6001600160a01b031660009081526002602052604090205490565b60045490565b611d4b33612203565b565b6007546001600160a01b031681565b611d6d60008263ffffffff61224b16565b6040516001600160a01b038216907f3b4a40cccf2058c593542587329dd385be4f0b588db5471fbd9598e56dd7093a90600090a250565b6000611dae6123f6565b600480548083526001600160a01b0397881660208401908152968816604084019081526060840196875260808401958652600182018355600092909252915160059092027f8a35acfbc15ff81a39ae7d344fd709f28e8600b4aa8c65c6b64bfe7fe36bd19b810183905595517f8a35acfbc15ff81a39ae7d344fd709f28e8600b4aa8c65c6b64bfe7fe36bd19c870180549189166001600160a01b031992831617905590517f8a35acfbc15ff81a39ae7d344fd709f28e8600b4aa8c65c6b64bfe7fe36bd19d87018054919098169116179095555090517f8a35acfbc15ff81a39ae7d344fd709f28e8600b4aa8c65c6b64bfe7fe36bd19e830155517f8a35acfbc15ff81a39ae7d344fd709f28e8600b4aa8c65c6b64bfe7fe36bd19f9091015590565b600060058281548110611ee157fe5b9060005260206000209060070201600401549050600060058381548110611f0457fe5b6000918252602080832060079283020160030154915460408051600160e01b6370a0823102815230600482015290516001600160a01b03948516965093909116926370a0823192602480840193919291829003018186803b158015611f6857600080fd5b505afa158015611f7c573d6000803e3d6000fd5b505050506040513d6020811015611f9257600080fd5b5051905030611fa057600080fd5b611fa98461176c565b611fb257600080fd5b60008311611fbf57600080fd5b82811015611fcc57600080fd5b60075460408051600160e01b63095ea7b30281523060048201526024810186905290516001600160a01b039092169163095ea7b3916044808201926020929091908290030181600087803b15801561202357600080fd5b505af1158015612037573d6000803e3d6000fd5b505050506040513d602081101561204d57600080fd5b505060075460408051600160e01b6323b872dd0281523060048201526001600160a01b03858116602483015260448201879052915191909216916323b872dd9160648083019260209291908290030181600087803b1580156120ae57600080fd5b505af11580156120c2573d6000803e3d6000fd5b505050506040513d60208110156120d857600080fd5b50506005805460039190869081106120ec57fe5b60009182526020909120600560079092020101805460ff1916600183600381111561211357fe5b02179055506040805184815260208101869052428183015290516001600160a01b038416917f75e161b3e824b114fc1a33274bd7091918dd4e639cede50b78b15a4eea956a21919081900360600190a26001600160a01b0382166000908152600360209081526040822080546001810182559083529082200185905561219b30848642611da4565b6001600160a01b039093166000908152600260209081526040822080546001810182559083529120019290925550505050565b60006001600160a01b0382166121e357600080fd5b506001600160a01b03166000908152602091909152604090205460ff1690565b61221460008263ffffffff61229716565b6040516001600160a01b038216907fef69f7d97228658c92417be1b16b19058315de71fecb435d07b7d23728b6bd3190600090a250565b6001600160a01b03811661225e57600080fd5b61226882826121ce565b1561227257600080fd5b6001600160a01b0316600090815260209190915260409020805460ff19166001179055565b6001600160a01b0381166122aa57600080fd5b6122b482826121ce565b6122bd57600080fd5b6001600160a01b0316600090815260209190915260409020805460ff19169055565b6040518060e0016040528060008152602001606081526020016060815260200160006001600160a01b03168152602001600081526020016000600381111561232357fe5b8152602001600081525090565b828054600181600116156101000203166002900490600052602060002090601f016020900481019282601f1061237157805160ff191683800117855561239e565b8280016001018555821561239e579182015b8281111561239e578251825591602001919060010190612383565b506123aa929150612437565b5090565b6040518060e0016040528060008152602001606081526020016060815260200160008152602001600060028111156123e257fe5b815260006020820181905260409091015290565b6040518060a001604052806000815260200160006001600160a01b0316815260200160006001600160a01b0316815260200160008152602001600081525090565b610bc291905b808211156123aa576000815560010161243d56fea165627a7a723058201302fedc46d898f1134f98533f3a772d13cd5af82a892729336352cd91a8ee1c0029",
  "source": "pragma solidity ^0.5.0;\n\nimport './access/roles/ManagerRole.sol';\nimport \"./math/SafeMath.sol\";\nimport './THXToken.sol';\n\ncontract RewardPool is ManagerRole {\n    using SafeMath for uint256;\n\n    struct Reward {\n        uint256 id;\n        string key;\n        string slug;\n        address beneficiary;\n        uint256 amount;\n        RewardState state;\n        uint256 created;\n    }\n\n    struct Rule {\n        uint256 id;\n        string key;\n        string slug;\n        uint256 amount;\n        RuleState state;\n        address creator;\n        uint256 created;\n    }\n\n    struct Transaction {\n      uint256 id;\n      address sender;\n      address receiver;\n      uint256 amount;\n      uint256 created;\n    }\n\n    event Deposited(address indexed sender, uint256 amount, uint256 created);\n    event Withdrawn(address indexed beneficiary, uint256 amount, uint256 id, uint256 created);\n\n    event RewardStateChanged(uint256 id, string key, string slug, address beneficiary, uint256 amount, RewardState state, uint256 created);\n    event RuleStateChanged(uint256 id, string key, string slug, uint256 amount, RuleState state, address creator, uint256 created);\n\n    enum RewardState { Pending, Approved, Rejected, Withdrawn }\n    enum RuleState { Pending, Active, Disabled }\n\n    mapping (address => uint256[]) public deposits;\n    mapping (address => uint256[]) public withdrawels;\n    mapping (address => uint256[]) public beneficiaries;\n\n    Transaction[] public transactions;\n    Reward[] public rewards;\n    Rule[] public rules;\n\n    THXToken public token;\n    string public name;\n\n    constructor(string memory _name, address _tokenAddress) public\n    {\n        name = _name;\n        token = THXToken(_tokenAddress);\n    }\n\n    /**\n    * @dev Stores the sent amount as tokens in the Reward Pool.\n    * @param amount The amount the sender deposited.\n    */\n    function deposit(uint256 amount) public {\n        require(token.balanceOf(msg.sender) > 0);\n        require(amount > 0);\n\n        // Approve the token transaction.\n        token.approveDeposit(msg.sender, address(this), amount);\n        // Transfer the tokens from the sender to the pool\n        token.transferDeposit(msg.sender, address(this), amount);\n\n        emit Deposited(msg.sender, amount, now);\n\n        uint256 tid = _registerTransaction(msg.sender, address(this), amount, now);\n        deposits[msg.sender].push(tid);\n    }\n\n    /**\n    * @dev Checks if the reward is approved.\n    * @param id The id of the reward.\n    */\n    function withdrawalAllowed(uint256 id) public view returns (bool) {\n        return rewards[id].state == RewardState.Approved;\n    }\n\n    /**\n    * @dev Creates the initial reward rule.\n    * @param key Database reference for rule metadata.\n    * @param slug Short readable description of rule.\n    * @param amount Reward size suggested for the beneficiary.\n    */\n    function addRule(string memory key, string memory slug, uint256 amount) public {\n        Rule memory rule;\n\n        rule.id = rules.length;\n        rule.key = key;\n        rule.slug = slug;\n        rule.amount = amount;\n        rule.state = RuleState.Pending;\n        rule.creator = msg.sender;\n        rule.created = now;\n\n        emit RuleStateChanged(rule.id, rule.key, rule.slug, rule.amount, rule.state, rule.creator, rule.created);\n\n        rules.push(rule);\n    }\n\n    /**\n    * @dev Updates the pool name set initially through the constructor.\n    * @param value The new pool name.\n    */\n    function updatePoolName(string memory value) public onlyManager {\n        name = value;\n    }\n\n    /**\n    * @dev Approves the suggested reward rule and sets its state to Active.\n    * @param id The id of the reward.\n    */\n    function approveRule(uint256 id) public onlyManager {\n        require(rules[id].state == RuleState.Pending || rules[id].state == RuleState.Disabled);\n        rules[id].state = RuleState.Active;\n\n        emit RuleStateChanged(rules[id].id, rules[id].key, rules[id].slug, rules[id].amount, rules[id].state, rules[id].creator, rules[id].created);\n    }\n\n    /**\n    * @dev Rejects the suggested reward and sets the state to Disabled.\n    * @param id The id of the reward.\n    */\n    function rejectRule(uint256 id) public onlyManager {\n        require(rules[id].state == RuleState.Pending || rules[id].state == RuleState.Active);\n\n        rules[id].state = RuleState.Disabled;\n    }\n\n    /**\n    * @dev Counts the amount of rules.\n    */\n    function countRules() public view returns (uint256) {\n        return rules.length;\n    }\n\n    /**\n    * @dev Creates the suggested reward.\n    * @param key Database reference for reward metadata.\n    * @param slug Short readable description of reward.\n    * @param amount Reward size suggested for the beneficiary.\n    */\n    function addReward(string memory key, string memory slug, uint256 amount) public {\n        Reward memory reward;\n\n        reward.id = rewards.length;\n        reward.key = key;\n        reward.slug = slug;\n        reward.beneficiary = msg.sender;\n        reward.amount = amount;\n        reward.state = RewardState.Pending;\n        reward.created = now;\n\n        emit RewardStateChanged(reward.id, reward.key, reward.slug, reward.beneficiary, reward.amount, reward.state, reward.created);\n\n        rewards.push(reward);\n    }\n\n    /**\n    * @dev Approves the suggested reward.\n    * @param id The id of the reward.\n    */\n    function approveReward(uint256 id) public onlyManager {\n        require(rewards[id].state == RewardState.Pending || rewards[id].state == RewardState.Rejected);\n        require(msg.sender != rewards[id].beneficiary);\n\n        rewards[id].state = RewardState.Approved;\n\n        // Withdraw the reward\n        _withdraw(id);\n\n        emit RewardStateChanged(rewards[id].id, rewards[id].key, rewards[id].slug, rewards[id].beneficiary, rewards[id].amount, rewards[id].state, rewards[id].created);\n    }\n\n    /**\n    * @dev Rejects the suggested reward.\n    * @param id The id of the reward.\n    */\n    function rejectReward(uint256 id) public onlyManager {\n        require(rewards[id].state == RewardState.Pending || rewards[id].state == RewardState.Approved);\n\n        rewards[id].state = RewardState.Rejected;\n\n        emit RewardStateChanged(rewards[id].id, rewards[id].key, rewards[id].slug, rewards[id].beneficiary, rewards[id].amount, rewards[id].state, rewards[id].created);\n    }\n\n    /**\n    * @dev Counts the amount of rewards.\n    */\n    function countRewards() public view returns (uint256) {\n        return rewards.length;\n    }\n\n    /**\n    * @dev Counts the amount of rewards.\n    */\n    function countTransactions() public view returns (uint256) {\n        return transactions.length;\n    }\n\n    /**\n    * @dev Counts the amount of rewards for a certain Beneficiary.\n    */\n    function countRewardsOf(address sender) public view returns (uint256) {\n        return beneficiaries[sender].length;\n    }\n\n    /**\n    * @dev Counts the amount of deposits.\n    */\n    function countDepositsOf(address sender) public view returns (uint256) {\n        return deposits[sender].length;\n    }\n\n    /**\n    * @dev Counts the amount of withdrawels.\n    */\n    function countWithdrawelsOf(address sender) public view returns (uint256) {\n        return withdrawels[sender].length;\n    }\n\n    /**\n    * @dev Registers a transaction.\n    * @param sender The address of the sender.\n    * @param receiver The address of the receiver.\n    * @param amount The amount the sender sent to the receiver.\n    */\n    function _registerTransaction(address sender, address receiver, uint256 amount, uint256 created) internal returns (uint256) {\n        Transaction memory transaction;\n\n        transaction.id = transactions.length;\n        transaction.sender = sender;\n        transaction.receiver = receiver;\n        transaction.amount = amount;\n        transaction.created = created;\n\n        transactions.push(transaction);\n\n        return transaction.id;\n    }\n\n    /**\n    * @dev Withdraw accumulated balance for a beneficiary.\n    * @param id The id of the reward.\n    */\n    function _withdraw(uint256 id) internal {\n        uint256 amount = rewards[id].amount;\n        address beneficiary = rewards[id].beneficiary;\n        uint256 tokenBalance = token.balanceOf(address(this));\n\n        require(address(this) != address(0));\n        require(withdrawalAllowed(id));\n        require(amount > 0);\n        require(tokenBalance >= amount);\n\n        // Approve the token transaction.\n        token.approve(address(this), amount);\n        // Transfer the tokens from the pool to the beneficiary.\n        token.transferFrom(address(this), beneficiary, amount);\n\n        rewards[id].state = RewardState.Withdrawn;\n\n        emit Withdrawn(beneficiary, amount, id, now);\n\n        beneficiaries[beneficiary].push(id);\n\n        uint256 tid = _registerTransaction(address(this), beneficiary, amount, now);\n        withdrawels[beneficiary].push(tid);\n    }\n}\n",
  "sourcePath": "/Users/peterpolman/Sites/thx_client/contracts/RewardPool.sol",
  "compiler": {
    "name": "solc",
    "version": "0.5.8+commit.23d335f2.Emscripten.clang"
  },
  "schemaVersion": "3.0.11",
  "updatedAt": "2019-08-05T14:33:34.606Z",
  "devdoc": {
    "methods": {
      "addReward(string,string,uint256)": {
        "details": "Creates the suggested reward.",
        "params": {
          "amount": "Reward size suggested for the beneficiary.",
          "key": "Database reference for reward metadata.",
          "slug": "Short readable description of reward."
        }
      },
      "addRule(string,string,uint256)": {
        "details": "Creates the initial reward rule.",
        "params": {
          "amount": "Reward size suggested for the beneficiary.",
          "key": "Database reference for rule metadata.",
          "slug": "Short readable description of rule."
        }
      },
      "approveReward(uint256)": {
        "details": "Approves the suggested reward.",
        "params": {
          "id": "The id of the reward."
        }
      },
      "approveRule(uint256)": {
        "details": "Approves the suggested reward rule and sets its state to Active.",
        "params": {
          "id": "The id of the reward."
        }
      },
      "countDepositsOf(address)": {
        "details": "Counts the amount of deposits."
      },
      "countRewards()": {
        "details": "Counts the amount of rewards."
      },
      "countRewardsOf(address)": {
        "details": "Counts the amount of rewards for a certain Beneficiary."
      },
      "countRules()": {
        "details": "Counts the amount of rules."
      },
      "countTransactions()": {
        "details": "Counts the amount of rewards."
      },
      "countWithdrawelsOf(address)": {
        "details": "Counts the amount of withdrawels."
      },
      "deposit(uint256)": {
        "details": "Stores the sent amount as tokens in the Reward Pool.",
        "params": {
          "amount": "The amount the sender deposited."
        }
      },
      "rejectReward(uint256)": {
        "details": "Rejects the suggested reward.",
        "params": {
          "id": "The id of the reward."
        }
      },
      "rejectRule(uint256)": {
        "details": "Rejects the suggested reward and sets the state to Disabled.",
        "params": {
          "id": "The id of the reward."
        }
      },
      "updatePoolName(string)": {
        "details": "Updates the pool name set initially through the constructor.",
        "params": {
          "value": "The new pool name."
        }
      },
      "withdrawalAllowed(uint256)": {
        "details": "Checks if the reward is approved.",
        "params": {
          "id": "The id of the reward."
        }
      }
    }
  },
  "userdoc": {
    "methods": {}
  }
}