{
  "contractName": "RewardPool",
  "abi": [
    {
      "constant": true,
      "inputs": [],
      "name": "creator",
      "outputs": [
        {
          "name": "",
          "type": "address"
        }
      ],
      "payable": false,
      "stateMutability": "view",
      "type": "function",
      "signature": "0x02d05d3f"
    },
    {
      "constant": true,
      "inputs": [
        {
          "name": "",
          "type": "uint256"
        }
      ],
      "name": "rules",
      "outputs": [
        {
          "name": "id",
          "type": "uint256"
        },
        {
          "name": "slug",
          "type": "string"
        },
        {
          "name": "amount",
          "type": "uint256"
        },
        {
          "name": "state",
          "type": "uint8"
        },
        {
          "name": "poll",
          "type": "address"
        },
        {
          "name": "creator",
          "type": "address"
        },
        {
          "name": "created",
          "type": "uint256"
        }
      ],
      "payable": false,
      "stateMutability": "view",
      "type": "function",
      "signature": "0x04d6ded4"
    },
    {
      "constant": true,
      "inputs": [],
      "name": "name",
      "outputs": [
        {
          "name": "",
          "type": "string"
        }
      ],
      "payable": false,
      "stateMutability": "view",
      "type": "function",
      "signature": "0x06fdde03"
    },
    {
      "constant": false,
      "inputs": [
        {
          "name": "slug",
          "type": "string"
        }
      ],
      "name": "createRule",
      "outputs": [],
      "payable": false,
      "stateMutability": "nonpayable",
      "type": "function",
      "signature": "0x21a21929"
    },
    {
      "constant": false,
      "inputs": [
        {
          "name": "account",
          "type": "address"
        }
      ],
      "name": "addManager",
      "outputs": [],
      "payable": false,
      "stateMutability": "nonpayable",
      "type": "function",
      "signature": "0x2d06177a"
    },
    {
      "constant": true,
      "inputs": [],
      "name": "countRules",
      "outputs": [
        {
          "name": "",
          "type": "uint256"
        }
      ],
      "payable": false,
      "stateMutability": "view",
      "type": "function",
      "signature": "0x31c54032"
    },
    {
      "constant": true,
      "inputs": [],
      "name": "RULE_POLL_DURATION",
      "outputs": [
        {
          "name": "",
          "type": "uint256"
        }
      ],
      "payable": false,
      "stateMutability": "view",
      "type": "function",
      "signature": "0x439c6f17"
    },
    {
      "constant": false,
      "inputs": [
        {
          "name": "id",
          "type": "uint256"
        },
        {
          "name": "proposedAmount",
          "type": "uint256"
        }
      ],
      "name": "startRulePoll",
      "outputs": [],
      "payable": false,
      "stateMutability": "nonpayable",
      "type": "function",
      "signature": "0x563b373d"
    },
    {
      "constant": false,
      "inputs": [
        {
          "name": "id",
          "type": "uint256"
        },
        {
          "name": "agree",
          "type": "bool"
        },
        {
          "name": "proposedAmount",
          "type": "uint256"
        }
      ],
      "name": "onRulePollFinish",
      "outputs": [],
      "payable": false,
      "stateMutability": "nonpayable",
      "type": "function",
      "signature": "0x607ca15b"
    },
    {
      "constant": true,
      "inputs": [],
      "name": "minVotedTokensPerc",
      "outputs": [
        {
          "name": "",
          "type": "uint256"
        }
      ],
      "payable": false,
      "stateMutability": "view",
      "type": "function",
      "signature": "0x84219204"
    },
    {
      "constant": true,
      "inputs": [],
      "name": "MAX_VOTED_TOKEN_PERC",
      "outputs": [
        {
          "name": "",
          "type": "uint256"
        }
      ],
      "payable": false,
      "stateMutability": "view",
      "type": "function",
      "signature": "0x962c9c8d"
    },
    {
      "constant": true,
      "inputs": [
        {
          "name": "account",
          "type": "address"
        }
      ],
      "name": "isMember",
      "outputs": [
        {
          "name": "",
          "type": "bool"
        }
      ],
      "payable": false,
      "stateMutability": "view",
      "type": "function",
      "signature": "0xa230c524"
    },
    {
      "constant": false,
      "inputs": [
        {
          "name": "id",
          "type": "uint256"
        }
      ],
      "name": "revokeVoteForRule",
      "outputs": [],
      "payable": false,
      "stateMutability": "nonpayable",
      "type": "function",
      "signature": "0xb8771a34"
    },
    {
      "constant": false,
      "inputs": [],
      "name": "renounceMember",
      "outputs": [],
      "payable": false,
      "stateMutability": "nonpayable",
      "type": "function",
      "signature": "0xbad5ba01"
    },
    {
      "constant": false,
      "inputs": [
        {
          "name": "account",
          "type": "address"
        }
      ],
      "name": "addMember",
      "outputs": [],
      "payable": false,
      "stateMutability": "nonpayable",
      "type": "function",
      "signature": "0xca6d56dc"
    },
    {
      "constant": false,
      "inputs": [
        {
          "name": "id",
          "type": "uint256"
        },
        {
          "name": "agree",
          "type": "bool"
        }
      ],
      "name": "voteForRule",
      "outputs": [],
      "payable": false,
      "stateMutability": "nonpayable",
      "type": "function",
      "signature": "0xe213cf0f"
    },
    {
      "constant": true,
      "inputs": [
        {
          "name": "",
          "type": "uint256"
        }
      ],
      "name": "rewards",
      "outputs": [
        {
          "name": "",
          "type": "address"
        }
      ],
      "payable": false,
      "stateMutability": "view",
      "type": "function",
      "signature": "0xf301af42"
    },
    {
      "constant": true,
      "inputs": [
        {
          "name": "account",
          "type": "address"
        }
      ],
      "name": "isManager",
      "outputs": [
        {
          "name": "",
          "type": "bool"
        }
      ],
      "payable": false,
      "stateMutability": "view",
      "type": "function",
      "signature": "0xf3ae2415"
    },
    {
      "constant": false,
      "inputs": [],
      "name": "renounceManager",
      "outputs": [],
      "payable": false,
      "stateMutability": "nonpayable",
      "type": "function",
      "signature": "0xf8b91abe"
    },
    {
      "constant": true,
      "inputs": [],
      "name": "token",
      "outputs": [
        {
          "name": "",
          "type": "address"
        }
      ],
      "payable": false,
      "stateMutability": "view",
      "type": "function",
      "signature": "0xfc0c546a"
    },
    {
      "inputs": [
        {
          "name": "_name",
          "type": "string"
        },
        {
          "name": "_tokenAddress",
          "type": "address"
        }
      ],
      "payable": false,
      "stateMutability": "nonpayable",
      "type": "constructor",
      "signature": "constructor"
    },
    {
      "anonymous": false,
      "inputs": [
        {
          "indexed": true,
          "name": "sender",
          "type": "address"
        },
        {
          "indexed": false,
          "name": "amount",
          "type": "uint256"
        },
        {
          "indexed": false,
          "name": "created",
          "type": "uint256"
        }
      ],
      "name": "Deposited",
      "type": "event",
      "signature": "0x73a19dd210f1a7f902193214c0ee91dd35ee5b4d920cba8d519eca65a7b488ca"
    },
    {
      "anonymous": false,
      "inputs": [
        {
          "indexed": true,
          "name": "beneficiary",
          "type": "address"
        },
        {
          "indexed": false,
          "name": "amount",
          "type": "uint256"
        },
        {
          "indexed": false,
          "name": "id",
          "type": "uint256"
        },
        {
          "indexed": false,
          "name": "created",
          "type": "uint256"
        }
      ],
      "name": "Withdrawn",
      "type": "event",
      "signature": "0x75e161b3e824b114fc1a33274bd7091918dd4e639cede50b78b15a4eea956a21"
    },
    {
      "anonymous": false,
      "inputs": [],
      "name": "RewardPollCreated",
      "type": "event",
      "signature": "0x882e77917ea2af100008ff777e1693a7fe22d06b0a7ffaddc50f9d8ef3a92314"
    },
    {
      "anonymous": false,
      "inputs": [
        {
          "indexed": false,
          "name": "id",
          "type": "uint256"
        },
        {
          "indexed": false,
          "name": "approved",
          "type": "bool"
        }
      ],
      "name": "RewardPollFinished",
      "type": "event",
      "signature": "0xb07b6a4d3da57c26eeed54737d6979b2a65101898160f7eb26d9e58626a70c14"
    },
    {
      "anonymous": false,
      "inputs": [
        {
          "indexed": false,
          "name": "id",
          "type": "uint256"
        },
        {
          "indexed": false,
          "name": "proposedAmount",
          "type": "uint256"
        }
      ],
      "name": "RulePollCreated",
      "type": "event",
      "signature": "0x9bd49e167f8ad588627e6f5b6a02b84c5a6ee245ce327afa99ade561bcbc284d"
    },
    {
      "anonymous": false,
      "inputs": [
        {
          "indexed": false,
          "name": "id",
          "type": "uint256"
        },
        {
          "indexed": false,
          "name": "approved",
          "type": "bool"
        }
      ],
      "name": "RulePollFinished",
      "type": "event",
      "signature": "0x118384964387422ef394126dcae83b6fc97ee2a5c14d8729ebc59cc3d1ce3f44"
    },
    {
      "anonymous": false,
      "inputs": [
        {
          "indexed": false,
          "name": "id",
          "type": "uint256"
        },
        {
          "indexed": false,
          "name": "state",
          "type": "uint8"
        }
      ],
      "name": "RuleStateChanged",
      "type": "event",
      "signature": "0x2da08c9afbca94a7781f242bd0193bf9a13ebd681b7fead14822408e3fbe78e9"
    },
    {
      "anonymous": false,
      "inputs": [
        {
          "indexed": true,
          "name": "account",
          "type": "address"
        }
      ],
      "name": "MemberAdded",
      "type": "event",
      "signature": "0xb251eb052afc73ffd02ffe85ad79990a8b3fed60d76dbc2fa2fdd7123dffd914"
    },
    {
      "anonymous": false,
      "inputs": [
        {
          "indexed": true,
          "name": "account",
          "type": "address"
        }
      ],
      "name": "MemberRemoved",
      "type": "event",
      "signature": "0x6e76fb4c77256006d9c38ec7d82b45a8c8f3c27b1d6766fffc42dfb8de684492"
    },
    {
      "anonymous": false,
      "inputs": [
        {
          "indexed": true,
          "name": "account",
          "type": "address"
        }
      ],
      "name": "ManagerAdded",
      "type": "event",
      "signature": "0x3b4a40cccf2058c593542587329dd385be4f0b588db5471fbd9598e56dd7093a"
    },
    {
      "anonymous": false,
      "inputs": [
        {
          "indexed": true,
          "name": "account",
          "type": "address"
        }
      ],
      "name": "ManagerRemoved",
      "type": "event",
      "signature": "0xef69f7d97228658c92417be1b16b19058315de71fecb435d07b7d23728b6bd31"
    },
    {
      "constant": false,
      "inputs": [
        {
          "name": "value",
          "type": "string"
        }
      ],
      "name": "updatePoolName",
      "outputs": [],
      "payable": false,
      "stateMutability": "nonpayable",
      "type": "function",
      "signature": "0xf0b33435"
    },
    {
      "constant": false,
      "inputs": [
        {
          "name": "amount",
          "type": "uint256"
        }
      ],
      "name": "deposit",
      "outputs": [],
      "payable": false,
      "stateMutability": "nonpayable",
      "type": "function",
      "signature": "0xb6b55f25"
    },
    {
      "constant": true,
      "inputs": [],
      "name": "countRewards",
      "outputs": [
        {
          "name": "",
          "type": "uint256"
        }
      ],
      "payable": false,
      "stateMutability": "view",
      "type": "function",
      "signature": "0x0bd028c0"
    },
    {
      "constant": false,
      "inputs": [
        {
          "name": "id",
          "type": "uint256"
        }
      ],
      "name": "createReward",
      "outputs": [],
      "payable": false,
      "stateMutability": "nonpayable",
      "type": "function",
      "signature": "0x1a6a8199"
    },
    {
      "constant": false,
      "inputs": [
        {
          "name": "id",
          "type": "uint256"
        },
        {
          "name": "agree",
          "type": "bool"
        }
      ],
      "name": "voteForReward",
      "outputs": [],
      "payable": false,
      "stateMutability": "nonpayable",
      "type": "function",
      "signature": "0x67218195"
    },
    {
      "constant": false,
      "inputs": [
        {
          "name": "id",
          "type": "uint256"
        }
      ],
      "name": "revokeVoteForReward",
      "outputs": [],
      "payable": false,
      "stateMutability": "nonpayable",
      "type": "function",
      "signature": "0x75d74bed"
    },
    {
      "constant": false,
      "inputs": [
        {
          "name": "id",
          "type": "uint256"
        },
        {
          "name": "agree",
          "type": "bool"
        }
      ],
      "name": "onRewardPollFinish",
      "outputs": [],
      "payable": false,
      "stateMutability": "nonpayable",
      "type": "function",
      "signature": "0x7370407d"
    },
    {
      "constant": false,
      "inputs": [
        {
          "name": "beneficiary",
          "type": "address"
        },
        {
          "name": "amount",
          "type": "uint256"
        },
        {
          "name": "id",
          "type": "uint256"
        },
        {
          "name": "created",
          "type": "uint256"
        }
      ],
      "name": "onWithdrawel",
      "outputs": [],
      "payable": false,
      "stateMutability": "nonpayable",
      "type": "function",
      "signature": "0xb46b20fe"
    }
  ],
  "bytecode": "0x608060405260006003553480156200001657600080fd5b5060405162003a0738038062003a07833981018060405260408110156200003c57600080fd5b8101908080516401000000008111156200005557600080fd5b820160208101848111156200006957600080fd5b81516401000000008111828201871017156200008457600080fd5b505060209182015190935091508190620000a49033906200011b811b901c565b620000b5336200016d60201b60201c565b600280546001600160a01b0319166001600160a01b03929092169190911790558151620000ea9060069060208501906200024b565b50600580546001600160a01b039092166001600160a01b0319928316179055600780549091163317905550620002f0565b62000136816000620001bf60201b62001aaf1790919060201c565b6040516001600160a01b038216907f3b4a40cccf2058c593542587329dd385be4f0b588db5471fbd9598e56dd7093a90600090a250565b62000188816001620001bf60201b62001aaf1790919060201c565b6040516001600160a01b038216907fb251eb052afc73ffd02ffe85ad79990a8b3fed60d76dbc2fa2fdd7123dffd91490600090a250565b6001600160a01b038116620001d357600080fd5b620001e582826200021560201b60201c565b15620001f057600080fd5b6001600160a01b0316600090815260209190915260409020805460ff19166001179055565b60006001600160a01b0382166200022b57600080fd5b506001600160a01b03166000908152602091909152604090205460ff1690565b828054600181600116156101000203166002900490600052602060002090601f016020900481019282601f106200028e57805160ff1916838001178555620002be565b82800160010185558215620002be579182015b82811115620002be578251825591602001919060010190620002a1565b50620002cc929150620002d0565b5090565b620002ed91905b80821115620002cc5760008155600101620002d7565b90565b61370780620003006000396000f3fe60806040523480156200001157600080fd5b5060043610620001f05760003560e01c8063842192041162000111578063ca6d56dc11620000a5578063f301af42116200007b578063f301af421462000753578063f3ae24151462000773578063f8b91abe146200079c578063fc0c546a14620007a657620001f0565b8063ca6d56dc1462000656578063e213cf0f146200067f578063f0b3343514620006a757620001f0565b8063b46b20fe11620000e7578063b46b20fe14620005d1578063b6b55f25146200060c578063b8771a34146200062c578063bad5ba01146200064c57620001f0565b8063842192041462000580578063962c9c8d146200058a578063a230c524146200059457620001f0565b806331c540321162000189578063607ca15b116200015f578063607ca15b14620004e25780636721819514620005105780637370407d146200053857806375d74bed146200056057620001f0565b806331c5403214620004a8578063439c6f1714620004b2578063563b373d14620004bc57620001f0565b80630bd028c011620001cb5780630bd028c014620003955780631a6a819914620003b157806321a2192914620003d35780632d06177a146200047f57620001f0565b806302d05d3f14620001f557806304d6ded4146200021b57806306fdde031462000313575b600080fd5b620001ff620007b0565b604080516001600160a01b039092168252519081900360200190f35b6200023b600480360360208110156200023357600080fd5b5035620007bf565b60405180888152602001806020018781526020018660018111156200025c57fe5b60ff168152602001856001600160a01b03166001600160a01b03168152602001846001600160a01b03166001600160a01b03168152602001838152602001828103825288818151815260200191508051906020019080838360005b83811015620002d1578181015183820152602001620002b7565b50505050905090810190601f168015620002ff5780820380516001836020036101000a031916815260200191505b509850505050505050505060405180910390f35b6200031d620008bd565b6040805160208082528351818301528351919283929083019185019080838360005b83811015620003595781810151838201526020016200033f565b50505050905090810190601f168015620003875780820380516001836020036101000a031916815260200191505b509250505060405180910390f35b6200039f6200094f565b60408051918252519081900360200190f35b620003d160048036036020811015620003c957600080fd5b503562000956565b005b620003d160048036036020811015620003eb57600080fd5b8101906020810181356401000000008111156200040757600080fd5b8201836020820111156200041a57600080fd5b803590602001918460018302840111640100000000831117156200043d57600080fd5b91908080601f01602080910402602001604051908101604052809392919081815260200183838082843760009201919091525092955062000b09945050505050565b620003d1600480360360208110156200049757600080fd5b50356001600160a01b031662000c8b565b6200039f62000cae565b6200039f62000cb4565b620003d160048036036040811015620004d457600080fd5b508035906020013562000cb9565b620003d160048036036060811015620004fa57600080fd5b5080359060208101351515906040013562000ef6565b620003d1600480360360408110156200052857600080fd5b50803590602001351515620010fd565b620003d1600480360360408110156200055057600080fd5b5080359060200135151562001197565b620003d1600480360360208110156200057857600080fd5b5035620011d7565b6200039f62001268565b6200039f6200126e565b620005bd60048036036020811015620005ac57600080fd5b50356001600160a01b031662001273565b604080519115158252519081900360200190f35b620003d160048036036080811015620005e957600080fd5b506001600160a01b0381351690602081013590604081013590606001356200128e565b620003d1600480360360208110156200062457600080fd5b503562001368565b620003d1600480360360208110156200064457600080fd5b503562001552565b620003d16200161b565b620003d1600480360360208110156200066e57600080fd5b50356001600160a01b031662001628565b620003d1600480360360408110156200069757600080fd5b5080359060200135151562001648565b620003d160048036036020811015620006bf57600080fd5b810190602081018135640100000000811115620006db57600080fd5b820183602082011115620006ee57600080fd5b803590602001918460018302840111640100000000831117156200071157600080fd5b91908080601f01602080910402602001604051908101604052809392919081815260200183838082843760009201919091525092955062001719945050505050565b620001ff600480360360208110156200076b57600080fd5b503562001747565b620005bd600480360360208110156200078b57600080fd5b50356001600160a01b03166200176f565b620003d162001783565b620001ff6200178e565b6007546001600160a01b031681565b60048181548110620007cd57fe5b9060005260206000209060060201600091509050806000015490806001018054600181600116156101000203166002900480601f016020809104026020016040519081016040528092919081815260200182805460018160011615610100020316600290048015620008835780601f10620008575761010080835404028352916020019162000883565b820191906000526020600020905b8154815290600101906020018083116200086557829003601f168201915b5050506002840154600385015460048601546005909601549495919460ff821694506001600160a01b036101009092048216935091169087565b6006805460408051602060026001851615610100026000190190941693909304601f81018490048402820184019092528181529291830182828015620009475780601f106200091b5761010080835404028352916020019162000947565b820191906000526020600020905b8154815290600101906020018083116200092957829003601f168201915b505050505081565b6008545b90565b6000600880549050600483815481106200096c57fe5b906000526020600020906006020160010133600485815481106200098c57fe5b906000526020600020906006020160020154600560009054906101000a90046001600160a01b031630604051620009c39062001b6f565b8681526001600160a01b038086166040830152606082018590528381166080830152821660a082015260c0602082018181528754600260001961010060018416150201909116049183018290529060e08301908890801562000a695780601f1062000a3d5761010080835404028352916020019162000a69565b820191906000526020600020905b81548152906001019060200180831162000a4b57829003601f168201915b5050975050505050505050604051809103906000f08015801562000a91573d6000803e3d6000fd5b506008805460018101825560009182527ff3f7a9fe364faab93b216da50a3214154f22a0a2b415b23a84c8169e8b636ee30180546001600160a01b0319166001600160a01b0384161790556040519192507f882e77917ea2af100008ff777e1693a7fe22d06b0a7ffaddc50f9d8ef3a9231491a15050565b62000b14336200176f565b62000b1e57600080fd5b62000b2862001b7d565b600454808252602080830184905260006040808501919091526001606085018190523360a08601524260c086015281519384529183019190915280517f2da08c9afbca94a7781f242bd0193bf9a13ebd681b7fead14822408e3fbe78e99281900390910190a16004805460018101808355600092909252825160069091027f8a35acfbc15ff81a39ae7d344fd709f28e8600b4aa8c65c6b64bfe7fe36bd19b8101918255602080850151805186949362000c09937f8a35acfbc15ff81a39ae7d344fd709f28e8600b4aa8c65c6b64bfe7fe36bd19c90910192019062001bc6565b5060408201516002820155606082015160038201805460ff19166001838181111562000c3157fe5b02179055506080820151600382018054610100600160a81b0319166101006001600160a01b039384160217905560a08301516004830180546001600160a01b0319169190921617905560c090910151600590910155505050565b62000c96336200176f565b62000ca057600080fd5b62000cab816200179d565b50565b60045490565b603c81565b62000cc43362001273565b62000cce57600080fd5b60006001600160a01b03166004838154811062000ce757fe5b600091825260209091206006909102016003015461010090046001600160a01b0316148062000dac57506004828154811062000d1f57fe5b906000526020600020906006020160030160019054906101000a90046001600160a01b03166001600160a01b031663b3f05b976040518163ffffffff1660e01b815260040160206040518083038186803b15801562000d7d57600080fd5b505afa15801562000d92573d6000803e3d6000fd5b505050506040513d602081101562000da957600080fd5b50515b62000db657600080fd5b6004828154811062000dc457fe5b90600052602060002090600602016002015481141562000de357600080fd5b6002546003546040514292603c840192869286926001600160a01b0316918691869190309062000e139062001c4b565b96875260208701959095526001600160a01b039384166040808801919091526060870193909352608086019190915260a0850152911660c0830152519081900360e001906000f08015801562000e6d573d6000803e3d6000fd5b506004858154811062000e7c57fe5b906000526020600020906006020160030160016101000a8154816001600160a01b0302191690836001600160a01b031602179055507f9bd49e167f8ad588627e6f5b6a02b84c5a6ee245ce327afa99ade561bcbc284d8484604051808381526020018281526020019250505060405180910390a150505050565b6004838154811062000f0457fe5b600091825260209091206006909102016003015461010090046001600160a01b03163314801562000fcb57506004838154811062000f3e57fe5b906000526020600020906006020160030160019054906101000a90046001600160a01b03166001600160a01b031663b3f05b976040518163ffffffff1660e01b815260040160206040518083038186803b15801562000f9c57600080fd5b505afa15801562000fb1573d6000803e3d6000fd5b505050506040513d602081101562000fc857600080fd5b50515b62000fd557600080fd5b811562000fe85762000fe88382620017e7565b6200108c6004848154811062000ffa57fe5b906000526020600020906006020160030160019054906101000a90046001600160a01b03166001600160a01b0316632c24909c6040518163ffffffff1660e01b815260040160206040518083038186803b1580156200105857600080fd5b505afa1580156200106d573d6000803e3d6000fd5b505050506040513d60208110156200108457600080fd5b505162001968565b60408051848152831515602082015281517f118384964387422ef394126dcae83b6fc97ee2a5c14d8729ebc59cc3d1ce3f44929181900390910190a160048381548110620010d657fe5b600091825260209091206003600690920201018054610100600160a81b0319169055505050565b62001108336200176f565b6200111257600080fd5b600882815481106200112057fe5b600091825260208220015460408051600160e01b63bd041c4d028152336004820152841515602482015290516001600160a01b039092169263bd041c4d9260448084019382900301818387803b1580156200117a57600080fd5b505af11580156200118f573d6000803e3d6000fd5b505050505050565b60408051838152821515602082015281517fb07b6a4d3da57c26eeed54737d6979b2a65101898160f7eb26d9e58626a70c14929181900390910190a15050565b620011e2336200176f565b620011ec57600080fd5b60088181548110620011fa57fe5b600091825260208220015460408051600160e01b630519bac302815233600482015290516001600160a01b0390921692630519bac39260248084019382900301818387803b1580156200124c57600080fd5b505af115801562001261573d6000803e3d6000fd5b5050505050565b60035481565b600a81565b60006200128860018363ffffffff6200199b16565b92915050565b60055460408051600160e01b63a9059cbb0281526001600160a01b038781166004830152602482018790529151919092169163a9059cbb9160448083019260209291908290030181600087803b158015620012e857600080fd5b505af1158015620012fd573d6000803e3d6000fd5b505050506040513d60208110156200131457600080fd5b5050604080518481526020810184905280820183905290516001600160a01b038616917f75e161b3e824b114fc1a33274bd7091918dd4e639cede50b78b15a4eea956a21919081900360600190a250505050565b60055460408051600160e01b6370a0823102815233600482015290516000926001600160a01b0316916370a08231916024808301926020929190829003018186803b158015620013b757600080fd5b505afa158015620013cc573d6000803e3d6000fd5b505050506040513d6020811015620013e357600080fd5b505111620013f057600080fd5b60008111620013fe57600080fd5b60055460408051600160e11b63098157e10281523360048201523060248201526044810184905290516001600160a01b0390921691631302afc2916064808201926020929091908290030181600087803b1580156200145c57600080fd5b505af115801562001471573d6000803e3d6000fd5b505050506040513d60208110156200148857600080fd5b505060055460408051600160e11b633166b8710281523360048201523060248201526044810184905290516001600160a01b03909216916362cd70e2916064808201926020929091908290030181600087803b158015620014e857600080fd5b505af1158015620014fd573d6000803e3d6000fd5b505050506040513d60208110156200151457600080fd5b505060408051828152426020820152815133927f73a19dd210f1a7f902193214c0ee91dd35ee5b4d920cba8d519eca65a7b488ca928290030190a250565b6200155d3362001273565b6200156757600080fd5b60006001600160a01b0316600482815481106200158057fe5b600091825260209091206006909102016003015461010090046001600160a01b03161415620015ae57600080fd5b60048181548110620015bc57fe5b600091825260208220600691909102016003015460408051600160e01b630519bac302815233600482015290516101009092046001600160a01b031692630519bac39260248084019382900301818387803b1580156200124c57600080fd5b6200162633620019d1565b565b620016333362001273565b6200163d57600080fd5b62000cab8162001a1b565b620016533362001273565b6200165d57600080fd5b60006001600160a01b0316600483815481106200167657fe5b600091825260209091206006909102016003015461010090046001600160a01b03161415620016a457600080fd5b60048281548110620016b257fe5b600091825260208220600691909102016003015460408051600160e01b63bd041c4d028152336004820152841515602482015290516101009092046001600160a01b03169263bd041c4d9260448084019382900301818387803b1580156200117a57600080fd5b62001724336200176f565b6200172e57600080fd5b80516200174390600690602084019062001bc6565b5050565b600881815481106200175557fe5b6000918252602090912001546001600160a01b0316905081565b600062001288818363ffffffff6200199b16565b620016263362001a65565b6005546001600160a01b031681565b620017b060008263ffffffff62001aaf16565b6040516001600160a01b038216907f3b4a40cccf2058c593542587329dd385be4f0b588db5471fbd9598e56dd7093a90600090a250565b806200182a57600160048381548110620017fd57fe5b60009182526020909120600360069092020101805460ff1916600183818111156200182457fe5b02179055505b80158015906200186a57506001600483815481106200184557fe5b600091825260209091206003600690920201015460ff1660018111156200186857fe5b145b15620018ad576000600483815481106200188057fe5b60009182526020909120600360069092020101805460ff191660018381811115620018a757fe5b02179055505b8060048381548110620018bc57fe5b9060005260206000209060060201600201819055507f2da08c9afbca94a7781f242bd0193bf9a13ebd681b7fead14822408e3fbe78e9600483815481106200190057fe5b906000526020600020906006020160000154600484815481106200192057fe5b60009182526020918290206003600690920201015460405183815260ff9091169181018260018111156200195057fe5b60ff1681526020019250505060405180910390a15050565b60006200197d82600263ffffffff62001aff16565b9050600a811115620019955750600a60035562000cab565b60035550565b60006001600160a01b038216620019b157600080fd5b506001600160a01b03166000908152602091909152604090205460ff1690565b620019e460018263ffffffff62001b2316565b6040516001600160a01b038216907f6e76fb4c77256006d9c38ec7d82b45a8c8f3c27b1d6766fffc42dfb8de68449290600090a250565b62001a2e60018263ffffffff62001aaf16565b6040516001600160a01b038216907fb251eb052afc73ffd02ffe85ad79990a8b3fed60d76dbc2fa2fdd7123dffd91490600090a250565b62001a7860008263ffffffff62001b2316565b6040516001600160a01b038216907fef69f7d97228658c92417be1b16b19058315de71fecb435d07b7d23728b6bd3190600090a250565b6001600160a01b03811662001ac357600080fd5b62001acf82826200199b565b1562001ada57600080fd5b6001600160a01b0316600090815260209190915260409020805460ff19166001179055565b600080821162001b0e57600080fd5b600082848162001b1a57fe5b04949350505050565b6001600160a01b03811662001b3757600080fd5b62001b4382826200199b565b62001b4d57600080fd5b6001600160a01b0316600090815260209190915260409020805460ff19169055565b61112a8062001c7783390190565b6040518060e001604052806000815260200160608152602001600081526020016000600181111562001bab57fe5b81526000602082018190526040820181905260609091015290565b828054600181600116156101000203166002900490600052602060002090601f016020900481019282601f1062001c0957805160ff191683800117855562001c39565b8280016001018555821562001c39579182015b8281111562001c3957825182559160200191906001019062001c1c565b5062001c4792915062001c59565b5090565b61093b8062002da183390190565b6200095391905b8082111562001c47576000815560010162001c6056fe60806040526000600555600060065560006007553480156200002057600080fd5b506040516200112a3803806200112a833981018060405260c08110156200004657600080fd5b8151602083018051919392830192916401000000008111156200006857600080fd5b820160208101848111156200007c57600080fd5b81516401000000008111828201871017156200009757600080fd5b50506020820151604083015160608401516080909401519295509093509190818142603c810160006001600160a01b038516620000d357600080fd5b428310158015620000e357508282115b620000ed57600080fd5b600080546001600160a01b039687166001600160a01b03199182161790915560018054959096169416939093179093556002556003919091556008805460ff199081169091556004805492151592909116919091179055620001563362000203602090811b901c565b62000167336200025560201b60201c565b6200017157600080fd5b600b86905584516200018b90600c90602088019062000304565b50600d80546001600160a01b0319166001600160a01b038616179055600e839055600f805460ff1916905542601055600b54604080519182526000602083015280517f90ab42752b8b3a3e8bcb9cba7d57f5bf87db421f9885bb1c203f08d0ef199c209281900390910190a1505050505050620003a9565b6200021e81600a6200027860201b62000cf91790919060201c565b6040516001600160a01b038216907fb251eb052afc73ffd02ffe85ad79990a8b3fed60d76dbc2fa2fdd7123dffd91490600090a250565b60006200027282600a620002ce60201b62000b301790919060201c565b92915050565b6001600160a01b0381166200028c57600080fd5b6200029e8282620002ce60201b60201c565b15620002a957600080fd5b6001600160a01b0316600090815260209190915260409020805460ff19166001179055565b60006001600160a01b038216620002e457600080fd5b506001600160a01b03166000908152602091909152604090205460ff1690565b828054600181600116156101000203166002900490600052602060002090601f016020900481019282601f106200034757805160ff191683800117855562000377565b8280016001018555821562000377579182015b82811115620003775782518255916020019190600101906200035a565b506200038592915062000389565b5090565b620003a691905b8082111562000385576000815560010162000390565b90565b610d7180620003b96000396000f3fe608060405234801561001057600080fd5b50600436106101a95760003560e01c806380322cbd116100f9578063b3f05b9711610097578063c19d93fb11610071578063c19d93fb146103e3578063ca6d56dc1461040f578063d74689e414610435578063fc0c546a1461043d576101a9565b8063b3f05b97146103a5578063bad5ba01146103ad578063bd041c4d146103b5576101a9565b8063a7491b48116100d3578063a7491b4814610347578063aa8c217c1461038d578063af640d0f14610395578063b3a2273f1461039d576101a9565b806380322cbd14610311578063a1d1936114610319578063a230c52414610321576101a9565b806338af3eed116101665780635c134d66116101405780635c134d661461025857806364a90292146102845780636beb79591461028c57806378e9792514610309576101a9565b806338af3eed146102405780633ccfd60b1461024857806341fdade614610250576101a9565b80630519bac3146101ae57806316f0115b146101d657806328d21990146101fa5780633197cbb614610214578063325a19f11461021c5780633618102614610224575b600080fd5b6101d4600480360360208110156101c457600080fd5b50356001600160a01b0316610445565b005b6101de610511565b604080516001600160a01b039092168252519081900360200190f35b610202610520565b60408051918252519081900360200190f35b610202610525565b61020261052b565b61022c610531565b604080519115158252519081900360200190f35b6101de61057a565b6101d4610589565b6102026106ea565b6102026004803603604081101561026e57600080fd5b506001600160a01b0381351690602001356106f0565b61020261071e565b610294610724565b6040805160208082528351818301528351919283929083019185019080838360005b838110156102ce5781810151838201526020016102b6565b50505050905090810190601f1680156102fb5780820380516001836020036101000a031916815260200191505b509250505060405180910390f35b6102026107b2565b61022c6107b8565b61022c6107c7565b61022c6004803603602081101561033757600080fd5b50356001600160a01b03166107e2565b61036d6004803603602081101561035d57600080fd5b50356001600160a01b03166107fb565b604080519384526020840192909252151582820152519081900360600190f35b61020261081f565b610202610825565b61020261082b565b61022c610831565b6101d461083a565b6101d4600480360360408110156103cb57600080fd5b506001600160a01b0381351690602001351515610845565b6103eb610a36565b604051808260038111156103fb57fe5b60ff16815260200191505060405180910390f35b6101d46004803603602081101561042557600080fd5b50356001600160a01b0316610a3f565b610202610a5d565b6101de610a63565b600254421015801561045957506003544211155b61046257600080fd5b6001600160a01b03811660009081526009602052604090205461048457600080fd5b6001600160a01b038116600090815260096020526040812060018082018054600284018054948690559490915560ff19831690935560075460ff909216916104d19163ffffffff610a7216565b60075580156104f5576005546104ed908363ffffffff610a7216565b60055561050c565b600654610508908363ffffffff610a7216565b6006555b505050565b6001546001600160a01b031681565b603c81565b60035481565b60105481565b60085460009060ff161561054457600080fd5b60035442101561055657506000610577565b6008805460ff1916600117905561057361056e610a87565b610a91565b5060015b90565b600d546001600160a01b031681565b6000805460015460408051600160e01b6370a082310281526001600160a01b039283166004820152905191909216916370a08231916024808301926020929190829003018186803b1580156105dd57600080fd5b505afa1580156105f1573d6000803e3d6000fd5b505050506040513d602081101561060757600080fd5b505190506106136107c7565b61061c57600080fd5b600d546001600160a01b0316331461063357600080fd5b6000600e541161064257600080fd5b600e5481101561065157600080fd5b600154600d54600e54600b5460105460408051600160e11b635a35907f0281526001600160a01b03958616600482015260248101949094526044840192909252606483015251919092169163b46b20fe91608480830192600092919082900301818387803b1580156106c257600080fd5b505af11580156106d6573d6000803e3d6000fd5b5050600f805460ff19166003179055505050565b6103e881565b6011602052816000526040600020818154811061070957fe5b90600052602060002001600091509150505481565b60065481565b600c805460408051602060026001851615610100026000190190941693909304601f810184900484028201840190925281815292918301828280156107aa5780601f1061077f576101008083540402835291602001916107aa565b820191906000526020600020905b81548152906001019060200180831161078d57829003601f168201915b505050505081565b60025481565b60006107c2610a87565b905090565b60006001600f5460ff1660038111156107dc57fe5b14905090565b60006107f5600a8363ffffffff610b3016565b92915050565b60096020526000908152604090208054600182015460029092015490919060ff1683565b600e5481565b600b5481565b60075481565b60085460ff1681565b61084333610b65565b565b600254421015801561085957506003544211155b61086257600080fd5b6001600160a01b03821661087557600080fd5b6001600160a01b0382166000908152600960205260409020541561089857600080fd5b6000805460408051600160e01b6370a082310281526001600160a01b038681166004830152915191909216916370a08231916024808301926020929190829003018186803b1580156108e957600080fd5b505afa1580156108fd573d6000803e3d6000fd5b505050506040513d602081101561091357600080fd5b50516000805460408051600160e01b6318160ddd028152905193945091926109a1926103e8926001600160a01b0316916318160ddd91600480820192602092909190829003018186803b15801561096957600080fd5b505afa15801561097d573d6000803e3d6000fd5b505050506040513d602081101561099357600080fd5b50519063ffffffff610bad16565b9050808211156109b157806109b3565b815b915082156109d6576005546109ce908363ffffffff610bcf16565b6005556109ed565b6006546109e9908363ffffffff610bcf16565b6006555b6001600160a01b038416600090815260096020526040902042815560018082018490556002909101805460ff1916851515179055600754610a2d91610bcf565b60075550505050565b600f5460ff1681565b610a48336107e2565b610a5157600080fd5b610a5a81610be8565b50565b60055481565b6000546001600160a01b031681565b600082821115610a8157600080fd5b50900390565b6006546005541190565b808015610aa0575060085460ff165b15610ab257610aad610c30565b610aba565b610aba610c9d565b600154600b5460408051600160e01b637370407d02815260048101929092528315156024830152516001600160a01b0390921691637370407d9160448082019260009290919082900301818387803b158015610b1557600080fd5b505af1158015610b29573d6000803e3d6000fd5b5050505050565b60006001600160a01b038216610b4557600080fd5b506001600160a01b03166000908152602091909152604090205460ff1690565b610b76600a8263ffffffff610cb116565b6040516001600160a01b038216907f6e76fb4c77256006d9c38ec7d82b45a8c8f3c27b1d6766fffc42dfb8de68449290600090a250565b6000808211610bbb57600080fd5b6000828481610bc657fe5b04949350505050565b600082820183811015610be157600080fd5b9392505050565b610bf9600a8263ffffffff610cf916565b6040516001600160a01b038216907fb251eb052afc73ffd02ffe85ad79990a8b3fed60d76dbc2fa2fdd7123dffd91490600090a250565b600f80546001919060ff191682805b0217905550600b54600f546040518281527f90ab42752b8b3a3e8bcb9cba7d57f5bf87db421f9885bb1c203f08d0ef199c20929160ff169060208101826003811115610c8757fe5b60ff1681526020019250505060405180910390a1565b600f80546002919060ff1916600183610c3f565b6001600160a01b038116610cc457600080fd5b610cce8282610b30565b610cd757600080fd5b6001600160a01b0316600090815260209190915260409020805460ff19169055565b6001600160a01b038116610d0c57600080fd5b610d168282610b30565b15610d2057600080fd5b6001600160a01b0316600090815260209190915260409020805460ff1916600117905556fea165627a7a72305820c5e8dd6e2e614eded1894b9ed2aa3c0c22442684cef058d20d4c46802086d55f002960806040526000600555600060065560006007556000600a5534801561002457600080fd5b5060405160e08061093b833981018060405260e081101561004457600080fd5b508051602082015160408301516060840151608085015160a086015160c09096015194959394929391929091908481858560006001600160a01b03851661008a57600080fd5b42831015801561009957508282115b6100a257600080fd5b600080546001600160a01b03199081166001600160a01b03978816178255600180548216968816969096179095556002939093556003919091556008805460ff1990811690915560048054909116911515919091179055600b99909955600a93909355600c96909655600d80549092169516949094179093555061080d9283925061012e9150396000f3fe608060405234801561001057600080fd5b50600436106101165760003560e01c806378e97925116100a2578063b3a2273f11610071578063b3a2273f14610223578063b3f05b971461022b578063bd041c4d14610233578063d74689e414610261578063fc0c546a1461026957610116565b806378e97925146101c557806380322cbd146101cd578063a7491b48146101d5578063af640d0f1461021b57610116565b806336181026116100e9578063361810261461018957806341fdade6146101a55780634e9e8e73146101ad57806364a90292146101b55780636f6a9762146101bd57610116565b80630519bac31461011b57806316f0115b146101435780632c24909c146101675780633197cbb614610181575b600080fd5b6101416004803603602081101561013157600080fd5b50356001600160a01b0316610271565b005b61014b61033d565b604080516001600160a01b039092168252519081900360200190f35b61016f61034c565b60408051918252519081900360200190f35b61016f610408565b61019161040e565b604080519115158252519081900360200190f35b61016f610456565b61016f61045c565b61016f610462565b61016f610468565b61016f61046e565b610191610474565b6101fb600480360360208110156101eb57600080fd5b50356001600160a01b0316610483565b604080519384526020840192909252151582820152519081900360600190f35b61016f6104a7565b61016f6104ad565b6101916104b3565b6101416004803603604081101561024957600080fd5b506001600160a01b03813516906020013515156104bc565b61016f6106ad565b61014b6106b3565b600254421015801561028557506003544211155b61028e57600080fd5b6001600160a01b0381166000908152600960205260409020546102b057600080fd5b6001600160a01b038116600090815260096020526040812060018082018054600284018054948690559490915560ff19831690935560075460ff909216916102fd9163ffffffff6106c216565b600755801561032157600554610319908363ffffffff6106c216565b600555610338565b600654610334908363ffffffff6106c216565b6006555b505050565b600d546001600160a01b031681565b6000806103666006546005546106dc90919063ffffffff16565b90506104016000809054906101000a90046001600160a01b03166001600160a01b03166318160ddd6040518163ffffffff1660e01b815260040160206040518083038186803b1580156103b857600080fd5b505afa1580156103cc573d6000803e3d6000fd5b505050506040513d60208110156103e257600080fd5b50516103f583606463ffffffff6106f516565b9063ffffffff61071c16565b9150505b90565b60035481565b60085460009060ff161561042157600080fd5b60035442101561043357506000610405565b6008805460ff1916600117905561045061044b61073e565b610760565b50600190565b6103e881565b600c5481565b60065481565b600a5481565b60025481565b600061047e61073e565b905090565b60096020526000908152604090208054600182015460029092015490919060ff1683565b600b5481565b60075481565b60085460ff1681565b60025442101580156104d057506003544211155b6104d957600080fd5b6001600160a01b0382166104ec57600080fd5b6001600160a01b0382166000908152600960205260409020541561050f57600080fd5b6000805460408051600160e01b6370a082310281526001600160a01b038681166004830152915191909216916370a08231916024808301926020929190829003018186803b15801561056057600080fd5b505afa158015610574573d6000803e3d6000fd5b505050506040513d602081101561058a57600080fd5b50516000805460408051600160e01b6318160ddd02815290519394509192610618926103e8926001600160a01b0316916318160ddd91600480820192602092909190829003018186803b1580156105e057600080fd5b505afa1580156105f4573d6000803e3d6000fd5b505050506040513d602081101561060a57600080fd5b50519063ffffffff61071c16565b905080821115610628578061062a565b815b9150821561064d57600554610645908363ffffffff6106dc16565b600555610664565b600654610660908363ffffffff6106dc16565b6006555b6001600160a01b038416600090815260096020526040902042815560018082018490556002909101805460ff19168515151790556007546106a4916106dc565b60075550505050565b60055481565b6000546001600160a01b031681565b6000828211156106d157600080fd5b508082035b92915050565b6000828201838110156106ee57600080fd5b9392505050565b600082610704575060006106d6565b8282028284828161071157fe5b04146106ee57600080fd5b600080821161072a57600080fd5b600082848161073557fe5b04949350505050565b600060065460055411801561047e5750600a5461075961034c565b1015905090565b600d54600b54600c5460408051600160e01b63607ca15b028152600481019390935284151560248401526044830191909152516001600160a01b039092169163607ca15b9160648082019260009290919082900301818387803b1580156107c657600080fd5b505af11580156107da573d6000803e3d6000fd5b505050505056fea165627a7a72305820767b767f8f699858ad76f1b06869ae8975b0f8f820124ac775a2ef78741625480029a165627a7a72305820cdf9bd204e078b82d2b26d8be304d55cdb4a4b79b09b97a1b84fdb83ba15b6220029",
  "source": "pragma solidity ^0.5.0;\n\nimport './reward/Reward.sol';\nimport './rule/Rules.sol';\nimport './THXToken.sol';\n\ncontract RewardPool is Rules {\n\n    event Deposited(address indexed sender, uint256 amount, uint256 created);\n    event Withdrawn(address indexed beneficiary, uint256 amount, uint256 id, uint256 created);\n\n    event RewardPollCreated();\n    event RewardPollFinished(uint256 id, bool approved);\n\n    THXToken public token;\n    string public name;\n    address public creator;\n\n    Reward[] public rewards;\n\n    constructor(\n        string memory _name,\n        address _tokenAddress\n    ) public\n        Rules(_tokenAddress)\n    {\n        name = _name;\n        token = THXToken(_tokenAddress);\n        creator = msg.sender;\n    }\n\n    /**\n    * @dev Updates the pool name set initially through the constructor.\n    * @param value The new pool name.\n    */\n    function updatePoolName(string memory value) public onlyManager {\n        name = value;\n    }\n\n    /**\n    * @dev Stores the sent amount as tokens in the Reward Pool.\n    * @param amount The amount the sender deposited.\n    */\n    function deposit(uint256 amount) public {\n        require(token.balanceOf(msg.sender) > 0);\n        require(amount > 0);\n\n        // Approve the token transaction.\n        token.approveDeposit(msg.sender, address(this), amount);\n\n        // Transfer the tokens from the sender to the pool\n        token.transferDeposit(msg.sender, address(this), amount);\n\n        emit Deposited(msg.sender, amount, now);\n    }\n\n    /**\n    * @dev Counts the amount of rewards.\n    */\n    function countRewards() public view returns (uint256) {\n        return rewards.length;\n    }\n\n    /**\n    * @dev Creates the suggested reward.\n    * @param id Reference to the rule\n    */\n    function createReward(uint256 id) public {\n        Reward reward = new Reward(rewards.length, rules[id].slug, msg.sender, rules[id].amount, address(token), address(this));\n        rewards.push(reward);\n\n        emit RewardPollCreated();\n    }\n\n    /**\n    * @dev Vote for the suggested reward.\n    * @param id Referenced Reward\n    * @param agree Approve or reject reward.\n    */\n    function voteForReward(uint256 id, bool agree) public onlyManager {\n        rewards[id].vote(msg.sender, agree);\n    }\n\n    /**\n    * @dev Vote for the suggested reward.\n    * @param id Reference to thte reward\n    */\n    function revokeVoteForReward(uint256 id) public onlyManager {\n        rewards[id].revokeVote(msg.sender);\n    }\n\n    /**\n    * @dev Called when poll is finished\n    * @param agree Bool for checking the result of the poll.\n    */\n    function onRewardPollFinish(uint256 id, bool agree) external {\n        emit RewardPollFinished(id, agree);\n    }\n\n    /**\n    * @dev callback called after reward is withdrawn\n    */\n    function onWithdrawel(address beneficiary, uint256 amount, uint256 id, uint256 created) external {\n        token.transfer(beneficiary, amount);\n\n        emit Withdrawn(beneficiary, amount, id, created);\n    }\n\n}\n",
  "sourcePath": "/Users/peterpolman/Sites/thx/thx-wallet/contracts/RewardPool.sol",
  "compiler": {
    "name": "solc",
    "version": "0.5.8+commit.23d335f2.Emscripten.clang"
  },
  "schemaVersion": "3.0.1",
  "updatedAt": "2019-12-17T15:34:35.543Z",
  "devdoc": {
    "methods": {
      "countRewards()": {
        "details": "Counts the amount of rewards."
      },
      "countRules()": {
        "details": "Counts the amount of rules."
      },
      "createReward(uint256)": {
        "details": "Creates the suggested reward.",
        "params": {
          "id": "Reference to the rule"
        }
      },
      "createRule(string)": {
        "details": "Creates the initial reward rule.",
        "params": {
          "slug": "Short readable description of rule."
        }
      },
      "deposit(uint256)": {
        "details": "Stores the sent amount as tokens in the Reward Pool.",
        "params": {
          "amount": "The amount the sender deposited."
        }
      },
      "onRewardPollFinish(uint256,bool)": {
        "details": "Called when poll is finished",
        "params": {
          "agree": "Bool for checking the result of the poll."
        }
      },
      "onRulePollFinish(uint256,bool,uint256)": {
        "details": "Called when poll is finished",
        "params": {
          "agree": "Bool for checking the result of the poll.",
          "id": "Referenced reward rule",
          "proposedAmount": "The proposed reward size."
        }
      },
      "onWithdrawel(address,uint256,uint256,uint256)": {
        "details": "callback called after reward is withdrawn"
      },
      "revokeVoteForReward(uint256)": {
        "details": "Vote for the suggested reward.",
        "params": {
          "id": "Reference to thte reward"
        }
      },
      "revokeVoteForRule(uint256)": {
        "details": "Vote for the suggested rule.",
        "params": {
          "id": "reference to the rule that the poll runs for"
        }
      },
      "startRulePoll(uint256,uint256)": {
        "details": "Starts the rule poll for chaning the amount.",
        "params": {
          "id": "The new amount for the rule."
        }
      },
      "updatePoolName(string)": {
        "details": "Updates the pool name set initially through the constructor.",
        "params": {
          "value": "The new pool name."
        }
      },
      "voteForReward(uint256,bool)": {
        "details": "Vote for the suggested reward.",
        "params": {
          "agree": "Approve or reject reward.",
          "id": "Referenced Reward"
        }
      },
      "voteForRule(uint256,bool)": {
        "details": "Vote for the suggested rule.",
        "params": {
          "agree": "Approve or reject rule.",
          "id": "reference to the rule that the poll runs for"
        }
      }
    }
  },
  "userdoc": {
    "methods": {}
  }
}