{
  "contractName": "Reward",
  "abi": [
    {
      "constant": false,
      "inputs": [
        {
          "name": "voter",
          "type": "address"
        }
      ],
      "name": "revokeVote",
      "outputs": [],
      "payable": false,
      "stateMutability": "nonpayable",
      "type": "function"
    },
    {
      "constant": true,
      "inputs": [],
      "name": "pool",
      "outputs": [
        {
          "name": "",
          "type": "address"
        }
      ],
      "payable": false,
      "stateMutability": "view",
      "type": "function"
    },
    {
      "constant": true,
      "inputs": [],
      "name": "REWARD_POLL_DURATION",
      "outputs": [
        {
          "name": "",
          "type": "uint256"
        }
      ],
      "payable": false,
      "stateMutability": "view",
      "type": "function"
    },
    {
      "constant": true,
      "inputs": [],
      "name": "endTime",
      "outputs": [
        {
          "name": "",
          "type": "uint256"
        }
      ],
      "payable": false,
      "stateMutability": "view",
      "type": "function"
    },
    {
      "constant": true,
      "inputs": [],
      "name": "created",
      "outputs": [
        {
          "name": "",
          "type": "uint256"
        }
      ],
      "payable": false,
      "stateMutability": "view",
      "type": "function"
    },
    {
      "constant": false,
      "inputs": [],
      "name": "tryToFinalize",
      "outputs": [
        {
          "name": "",
          "type": "bool"
        }
      ],
      "payable": false,
      "stateMutability": "nonpayable",
      "type": "function"
    },
    {
      "constant": true,
      "inputs": [],
      "name": "beneficiary",
      "outputs": [
        {
          "name": "",
          "type": "address"
        }
      ],
      "payable": false,
      "stateMutability": "view",
      "type": "function"
    },
    {
      "constant": true,
      "inputs": [],
      "name": "MAX_TOKENS_WEIGHT_DENOM",
      "outputs": [
        {
          "name": "",
          "type": "uint256"
        }
      ],
      "payable": false,
      "stateMutability": "view",
      "type": "function"
    },
    {
      "constant": true,
      "inputs": [
        {
          "name": "",
          "type": "address"
        },
        {
          "name": "",
          "type": "uint256"
        }
      ],
      "name": "voters",
      "outputs": [
        {
          "name": "",
          "type": "uint256"
        }
      ],
      "payable": false,
      "stateMutability": "view",
      "type": "function"
    },
    {
      "constant": true,
      "inputs": [],
      "name": "noCounter",
      "outputs": [
        {
          "name": "",
          "type": "uint256"
        }
      ],
      "payable": false,
      "stateMutability": "view",
      "type": "function"
    },
    {
      "constant": true,
      "inputs": [],
      "name": "slug",
      "outputs": [
        {
          "name": "",
          "type": "string"
        }
      ],
      "payable": false,
      "stateMutability": "view",
      "type": "function"
    },
    {
      "constant": true,
      "inputs": [],
      "name": "startTime",
      "outputs": [
        {
          "name": "",
          "type": "uint256"
        }
      ],
      "payable": false,
      "stateMutability": "view",
      "type": "function"
    },
    {
      "constant": true,
      "inputs": [],
      "name": "isNowApproved",
      "outputs": [
        {
          "name": "",
          "type": "bool"
        }
      ],
      "payable": false,
      "stateMutability": "view",
      "type": "function"
    },
    {
      "constant": true,
      "inputs": [
        {
          "name": "account",
          "type": "address"
        }
      ],
      "name": "isMember",
      "outputs": [
        {
          "name": "",
          "type": "bool"
        }
      ],
      "payable": false,
      "stateMutability": "view",
      "type": "function"
    },
    {
      "constant": true,
      "inputs": [
        {
          "name": "",
          "type": "address"
        }
      ],
      "name": "votesByAddress",
      "outputs": [
        {
          "name": "time",
          "type": "uint256"
        },
        {
          "name": "weight",
          "type": "uint256"
        },
        {
          "name": "agree",
          "type": "bool"
        }
      ],
      "payable": false,
      "stateMutability": "view",
      "type": "function"
    },
    {
      "constant": true,
      "inputs": [],
      "name": "amount",
      "outputs": [
        {
          "name": "",
          "type": "uint256"
        }
      ],
      "payable": false,
      "stateMutability": "view",
      "type": "function"
    },
    {
      "constant": true,
      "inputs": [],
      "name": "id",
      "outputs": [
        {
          "name": "",
          "type": "uint256"
        }
      ],
      "payable": false,
      "stateMutability": "view",
      "type": "function"
    },
    {
      "constant": true,
      "inputs": [],
      "name": "totalVoted",
      "outputs": [
        {
          "name": "",
          "type": "uint256"
        }
      ],
      "payable": false,
      "stateMutability": "view",
      "type": "function"
    },
    {
      "constant": true,
      "inputs": [],
      "name": "finalized",
      "outputs": [
        {
          "name": "",
          "type": "bool"
        }
      ],
      "payable": false,
      "stateMutability": "view",
      "type": "function"
    },
    {
      "constant": false,
      "inputs": [],
      "name": "renounceMember",
      "outputs": [],
      "payable": false,
      "stateMutability": "nonpayable",
      "type": "function"
    },
    {
      "constant": false,
      "inputs": [
        {
          "name": "voter",
          "type": "address"
        },
        {
          "name": "agree",
          "type": "bool"
        }
      ],
      "name": "vote",
      "outputs": [],
      "payable": false,
      "stateMutability": "nonpayable",
      "type": "function"
    },
    {
      "constant": true,
      "inputs": [],
      "name": "state",
      "outputs": [
        {
          "name": "",
          "type": "uint8"
        }
      ],
      "payable": false,
      "stateMutability": "view",
      "type": "function"
    },
    {
      "constant": false,
      "inputs": [
        {
          "name": "account",
          "type": "address"
        }
      ],
      "name": "addMember",
      "outputs": [],
      "payable": false,
      "stateMutability": "nonpayable",
      "type": "function"
    },
    {
      "constant": true,
      "inputs": [],
      "name": "yesCounter",
      "outputs": [
        {
          "name": "",
          "type": "uint256"
        }
      ],
      "payable": false,
      "stateMutability": "view",
      "type": "function"
    },
    {
      "constant": true,
      "inputs": [],
      "name": "token",
      "outputs": [
        {
          "name": "",
          "type": "address"
        }
      ],
      "payable": false,
      "stateMutability": "view",
      "type": "function"
    },
    {
      "inputs": [
        {
          "name": "_id",
          "type": "uint256"
        },
        {
          "name": "_slug",
          "type": "string"
        },
        {
          "name": "_beneficiary",
          "type": "address"
        },
        {
          "name": "_amount",
          "type": "uint256"
        },
        {
          "name": "_tokenAddress",
          "type": "address"
        },
        {
          "name": "_poolAddress",
          "type": "address"
        }
      ],
      "payable": false,
      "stateMutability": "nonpayable",
      "type": "constructor"
    },
    {
      "anonymous": false,
      "inputs": [
        {
          "indexed": false,
          "name": "id",
          "type": "uint256"
        },
        {
          "indexed": false,
          "name": "state",
          "type": "uint8"
        }
      ],
      "name": "RewardStateChanged",
      "type": "event"
    },
    {
      "anonymous": false,
      "inputs": [
        {
          "indexed": true,
          "name": "account",
          "type": "address"
        }
      ],
      "name": "MemberAdded",
      "type": "event"
    },
    {
      "anonymous": false,
      "inputs": [
        {
          "indexed": true,
          "name": "account",
          "type": "address"
        }
      ],
      "name": "MemberRemoved",
      "type": "event"
    },
    {
      "constant": true,
      "inputs": [],
      "name": "withdrawalAllowed",
      "outputs": [
        {
          "name": "",
          "type": "bool"
        }
      ],
      "payable": false,
      "stateMutability": "view",
      "type": "function"
    },
    {
      "constant": false,
      "inputs": [],
      "name": "withdraw",
      "outputs": [],
      "payable": false,
      "stateMutability": "nonpayable",
      "type": "function"
    }
  ],
  "bytecode": "0x60806040526000600555600060065560006007553480156200002057600080fd5b506040516200112a3803806200112a833981018060405260c08110156200004657600080fd5b8151602083018051919392830192916401000000008111156200006857600080fd5b820160208101848111156200007c57600080fd5b81516401000000008111828201871017156200009757600080fd5b50506020820151604083015160608401516080909401519295509093509190818142603c810160006001600160a01b038516620000d357600080fd5b428310158015620000e357508282115b620000ed57600080fd5b600080546001600160a01b039687166001600160a01b03199182161790915560018054959096169416939093179093556002556003919091556008805460ff199081169091556004805492151592909116919091179055620001563362000203602090811b901c565b62000167336200025560201b60201c565b6200017157600080fd5b600b86905584516200018b90600c90602088019062000304565b50600d80546001600160a01b0319166001600160a01b038616179055600e839055600f805460ff1916905542601055600b54604080519182526000602083015280517f90ab42752b8b3a3e8bcb9cba7d57f5bf87db421f9885bb1c203f08d0ef199c209281900390910190a1505050505050620003a9565b6200021e81600a6200027860201b62000cf91790919060201c565b6040516001600160a01b038216907fb251eb052afc73ffd02ffe85ad79990a8b3fed60d76dbc2fa2fdd7123dffd91490600090a250565b60006200027282600a620002ce60201b62000b301790919060201c565b92915050565b6001600160a01b0381166200028c57600080fd5b6200029e8282620002ce60201b60201c565b15620002a957600080fd5b6001600160a01b0316600090815260209190915260409020805460ff19166001179055565b60006001600160a01b038216620002e457600080fd5b506001600160a01b03166000908152602091909152604090205460ff1690565b828054600181600116156101000203166002900490600052602060002090601f016020900481019282601f106200034757805160ff191683800117855562000377565b8280016001018555821562000377579182015b82811115620003775782518255916020019190600101906200035a565b506200038592915062000389565b5090565b620003a691905b8082111562000385576000815560010162000390565b90565b610d7180620003b96000396000f3fe608060405234801561001057600080fd5b50600436106101a95760003560e01c806380322cbd116100f9578063b3f05b9711610097578063c19d93fb11610071578063c19d93fb146103e3578063ca6d56dc1461040f578063d74689e414610435578063fc0c546a1461043d576101a9565b8063b3f05b97146103a5578063bad5ba01146103ad578063bd041c4d146103b5576101a9565b8063a7491b48116100d3578063a7491b4814610347578063aa8c217c1461038d578063af640d0f14610395578063b3a2273f1461039d576101a9565b806380322cbd14610311578063a1d1936114610319578063a230c52414610321576101a9565b806338af3eed116101665780635c134d66116101405780635c134d661461025857806364a90292146102845780636beb79591461028c57806378e9792514610309576101a9565b806338af3eed146102405780633ccfd60b1461024857806341fdade614610250576101a9565b80630519bac3146101ae57806316f0115b146101d657806328d21990146101fa5780633197cbb614610214578063325a19f11461021c5780633618102614610224575b600080fd5b6101d4600480360360208110156101c457600080fd5b50356001600160a01b0316610445565b005b6101de610511565b604080516001600160a01b039092168252519081900360200190f35b610202610520565b60408051918252519081900360200190f35b610202610525565b61020261052b565b61022c610531565b604080519115158252519081900360200190f35b6101de61057a565b6101d4610589565b6102026106ea565b6102026004803603604081101561026e57600080fd5b506001600160a01b0381351690602001356106f0565b61020261071e565b610294610724565b6040805160208082528351818301528351919283929083019185019080838360005b838110156102ce5781810151838201526020016102b6565b50505050905090810190601f1680156102fb5780820380516001836020036101000a031916815260200191505b509250505060405180910390f35b6102026107b2565b61022c6107b8565b61022c6107c7565b61022c6004803603602081101561033757600080fd5b50356001600160a01b03166107e2565b61036d6004803603602081101561035d57600080fd5b50356001600160a01b03166107fb565b604080519384526020840192909252151582820152519081900360600190f35b61020261081f565b610202610825565b61020261082b565b61022c610831565b6101d461083a565b6101d4600480360360408110156103cb57600080fd5b506001600160a01b0381351690602001351515610845565b6103eb610a36565b604051808260038111156103fb57fe5b60ff16815260200191505060405180910390f35b6101d46004803603602081101561042557600080fd5b50356001600160a01b0316610a3f565b610202610a5d565b6101de610a63565b600254421015801561045957506003544211155b61046257600080fd5b6001600160a01b03811660009081526009602052604090205461048457600080fd5b6001600160a01b038116600090815260096020526040812060018082018054600284018054948690559490915560ff19831690935560075460ff909216916104d19163ffffffff610a7216565b60075580156104f5576005546104ed908363ffffffff610a7216565b60055561050c565b600654610508908363ffffffff610a7216565b6006555b505050565b6001546001600160a01b031681565b603c81565b60035481565b60105481565b60085460009060ff161561054457600080fd5b60035442101561055657506000610577565b6008805460ff1916600117905561057361056e610a87565b610a91565b5060015b90565b600d546001600160a01b031681565b6000805460015460408051600160e01b6370a082310281526001600160a01b039283166004820152905191909216916370a08231916024808301926020929190829003018186803b1580156105dd57600080fd5b505afa1580156105f1573d6000803e3d6000fd5b505050506040513d602081101561060757600080fd5b505190506106136107c7565b61061c57600080fd5b600d546001600160a01b0316331461063357600080fd5b6000600e541161064257600080fd5b600e5481101561065157600080fd5b600154600d54600e54600b5460105460408051600160e11b635a35907f0281526001600160a01b03958616600482015260248101949094526044840192909252606483015251919092169163b46b20fe91608480830192600092919082900301818387803b1580156106c257600080fd5b505af11580156106d6573d6000803e3d6000fd5b5050600f805460ff19166003179055505050565b6103e881565b6011602052816000526040600020818154811061070957fe5b90600052602060002001600091509150505481565b60065481565b600c805460408051602060026001851615610100026000190190941693909304601f810184900484028201840190925281815292918301828280156107aa5780601f1061077f576101008083540402835291602001916107aa565b820191906000526020600020905b81548152906001019060200180831161078d57829003601f168201915b505050505081565b60025481565b60006107c2610a87565b905090565b60006001600f5460ff1660038111156107dc57fe5b14905090565b60006107f5600a8363ffffffff610b3016565b92915050565b60096020526000908152604090208054600182015460029092015490919060ff1683565b600e5481565b600b5481565b60075481565b60085460ff1681565b61084333610b65565b565b600254421015801561085957506003544211155b61086257600080fd5b6001600160a01b03821661087557600080fd5b6001600160a01b0382166000908152600960205260409020541561089857600080fd5b6000805460408051600160e01b6370a082310281526001600160a01b038681166004830152915191909216916370a08231916024808301926020929190829003018186803b1580156108e957600080fd5b505afa1580156108fd573d6000803e3d6000fd5b505050506040513d602081101561091357600080fd5b50516000805460408051600160e01b6318160ddd028152905193945091926109a1926103e8926001600160a01b0316916318160ddd91600480820192602092909190829003018186803b15801561096957600080fd5b505afa15801561097d573d6000803e3d6000fd5b505050506040513d602081101561099357600080fd5b50519063ffffffff610bad16565b9050808211156109b157806109b3565b815b915082156109d6576005546109ce908363ffffffff610bcf16565b6005556109ed565b6006546109e9908363ffffffff610bcf16565b6006555b6001600160a01b038416600090815260096020526040902042815560018082018490556002909101805460ff1916851515179055600754610a2d91610bcf565b60075550505050565b600f5460ff1681565b610a48336107e2565b610a5157600080fd5b610a5a81610be8565b50565b60055481565b6000546001600160a01b031681565b600082821115610a8157600080fd5b50900390565b6006546005541190565b808015610aa0575060085460ff165b15610ab257610aad610c30565b610aba565b610aba610c9d565b600154600b5460408051600160e01b637370407d02815260048101929092528315156024830152516001600160a01b0390921691637370407d9160448082019260009290919082900301818387803b158015610b1557600080fd5b505af1158015610b29573d6000803e3d6000fd5b5050505050565b60006001600160a01b038216610b4557600080fd5b506001600160a01b03166000908152602091909152604090205460ff1690565b610b76600a8263ffffffff610cb116565b6040516001600160a01b038216907f6e76fb4c77256006d9c38ec7d82b45a8c8f3c27b1d6766fffc42dfb8de68449290600090a250565b6000808211610bbb57600080fd5b6000828481610bc657fe5b04949350505050565b600082820183811015610be157600080fd5b9392505050565b610bf9600a8263ffffffff610cf916565b6040516001600160a01b038216907fb251eb052afc73ffd02ffe85ad79990a8b3fed60d76dbc2fa2fdd7123dffd91490600090a250565b600f80546001919060ff191682805b0217905550600b54600f546040518281527f90ab42752b8b3a3e8bcb9cba7d57f5bf87db421f9885bb1c203f08d0ef199c20929160ff169060208101826003811115610c8757fe5b60ff1681526020019250505060405180910390a1565b600f80546002919060ff1916600183610c3f565b6001600160a01b038116610cc457600080fd5b610cce8282610b30565b610cd757600080fd5b6001600160a01b0316600090815260209190915260409020805460ff19169055565b6001600160a01b038116610d0c57600080fd5b610d168282610b30565b15610d2057600080fd5b6001600160a01b0316600090815260209190915260409020805460ff1916600117905556fea165627a7a72305820c5e8dd6e2e614eded1894b9ed2aa3c0c22442684cef058d20d4c46802086d55f0029",
  "source": "pragma solidity ^0.5.0;\n\nimport '../access/roles/MemberRole.sol';\nimport '../math/SafeMath.sol';\nimport '../token/ERC20/IERC20.sol';\nimport '../poll/BasePoll.sol';\n\ncontract Reward is BasePoll, MemberRole {\n    using SafeMath for uint256;\n\n    enum RewardState { Pending, Approved, Rejected, Withdrawn }\n\n    event RewardStateChanged(uint256 id, RewardState state);\n\n    uint256 public constant REWARD_POLL_DURATION = 1 minutes;\n\n    uint256 public id;\n    string public slug;\n    address public beneficiary;\n    uint256 public amount;\n    RewardState public state;\n    uint256 public created;\n\n    mapping (address => uint256[]) public voters;\n\n    constructor(\n        uint256 _id,\n        string memory _slug,\n        address _beneficiary,\n        uint256 _amount,\n        address _tokenAddress,\n        address _poolAddress\n    ) public onlyMember\n        BasePoll(_tokenAddress, _poolAddress, now, now + REWARD_POLL_DURATION, false)\n    {\n        id = _id;\n        slug = _slug;\n        beneficiary = _beneficiary;\n        amount = _amount;\n        state = RewardState.Pending;\n        created = now;\n\n        emit RewardStateChanged(id, state);\n    }\n\n    /**\n    * @dev Check if the reward is approved.\n    */\n    function withdrawalAllowed() public view returns (bool) {\n        return state == RewardState.Approved;\n    }\n\n    /**\n    * @dev Withdraw accumulated balance for a beneficiary.\n    */\n    function withdraw() public {\n        uint256 poolBalance = token.balanceOf(address(pool));\n\n        require(withdrawalAllowed());\n        require(msg.sender == beneficiary);\n        require(amount > 0);\n        require(poolBalance >= amount);\n\n        pool.onWithdrawel(beneficiary, amount, id, created);\n\n        state = RewardState.Withdrawn;\n    }\n\n    /**\n    * @dev callback called after poll finalization\n    */\n    function onPollFinish(bool agree) internal {\n        if (agree && finalized) {\n            _onApproval();\n        }\n        else {\n            _onRejection();\n        }\n\n        pool.onRewardPollFinish(id, agree);\n    }\n\n    /**\n    * @dev callback called after reward is withdrawn\n    */\n    function _onApproval() internal {\n        state = RewardState.Approved;\n        emit RewardStateChanged(id, state);\n    }\n\n    /**\n    * @dev callback called after reward is rejected\n    */\n    function _onRejection() internal {\n        state = RewardState.Rejected;\n        emit RewardStateChanged(id, state);\n    }\n\n}\n",
  "sourcePath": "/Users/peterpolman/Sites/thx/thx-wallet/contracts/reward/Reward.sol",
  "compiler": {
    "name": "solc",
    "version": "0.5.8+commit.23d335f2.Emscripten.clang"
  },
  "schemaVersion": "3.0.12",
  "updatedAt": "2019-10-23T10:02:37.731Z",
  "devdoc": {
    "methods": {
      "revokeVote(address)": {
        "details": "Revoke user`s vote",
        "params": {
          "voter": "The address of the user voting"
        }
      },
      "vote(address,bool)": {
        "details": "Process user`s vote",
        "params": {
          "agree": "True if user endorses the proposal else False",
          "voter": "The address of the user voting"
        }
      },
      "withdraw()": {
        "details": "Withdraw accumulated balance for a beneficiary."
      },
      "withdrawalAllowed()": {
        "details": "Check if the reward is approved."
      }
    }
  },
  "userdoc": {
    "methods": {
      "tryToFinalize()": {
        "notice": "Finalize poll and call onPollFinish callback with result"
      }
    }
  }
}