{
  "contractName": "Reward",
  "abi": [
    {
      "constant": false,
      "inputs": [
        {
          "name": "voter",
          "type": "address"
        }
      ],
      "name": "revokeVote",
      "outputs": [],
      "payable": false,
      "stateMutability": "nonpayable",
      "type": "function"
    },
    {
      "constant": true,
      "inputs": [],
      "name": "pool",
      "outputs": [
        {
          "name": "",
          "type": "address"
        }
      ],
      "payable": false,
      "stateMutability": "view",
      "type": "function"
    },
    {
      "constant": true,
      "inputs": [],
      "name": "rule",
      "outputs": [
        {
          "name": "",
          "type": "uint256"
        }
      ],
      "payable": false,
      "stateMutability": "view",
      "type": "function"
    },
    {
      "constant": true,
      "inputs": [],
      "name": "REWARD_POLL_DURATION",
      "outputs": [
        {
          "name": "",
          "type": "uint256"
        }
      ],
      "payable": false,
      "stateMutability": "view",
      "type": "function"
    },
    {
      "constant": true,
      "inputs": [],
      "name": "endTime",
      "outputs": [
        {
          "name": "",
          "type": "uint256"
        }
      ],
      "payable": false,
      "stateMutability": "view",
      "type": "function"
    },
    {
      "constant": true,
      "inputs": [],
      "name": "created",
      "outputs": [
        {
          "name": "",
          "type": "uint256"
        }
      ],
      "payable": false,
      "stateMutability": "view",
      "type": "function"
    },
    {
      "constant": false,
      "inputs": [],
      "name": "tryToFinalize",
      "outputs": [
        {
          "name": "",
          "type": "bool"
        }
      ],
      "payable": false,
      "stateMutability": "nonpayable",
      "type": "function"
    },
    {
      "constant": true,
      "inputs": [],
      "name": "beneficiary",
      "outputs": [
        {
          "name": "",
          "type": "address"
        }
      ],
      "payable": false,
      "stateMutability": "view",
      "type": "function"
    },
    {
      "constant": true,
      "inputs": [],
      "name": "MAX_TOKENS_WEIGHT_DENOM",
      "outputs": [
        {
          "name": "",
          "type": "uint256"
        }
      ],
      "payable": false,
      "stateMutability": "view",
      "type": "function"
    },
    {
      "constant": true,
      "inputs": [
        {
          "name": "",
          "type": "address"
        },
        {
          "name": "",
          "type": "uint256"
        }
      ],
      "name": "voters",
      "outputs": [
        {
          "name": "",
          "type": "uint256"
        }
      ],
      "payable": false,
      "stateMutability": "view",
      "type": "function"
    },
    {
      "constant": true,
      "inputs": [
        {
          "name": "",
          "type": "uint256"
        }
      ],
      "name": "members",
      "outputs": [
        {
          "name": "",
          "type": "address"
        }
      ],
      "payable": false,
      "stateMutability": "view",
      "type": "function"
    },
    {
      "constant": true,
      "inputs": [],
      "name": "noCounter",
      "outputs": [
        {
          "name": "",
          "type": "uint256"
        }
      ],
      "payable": false,
      "stateMutability": "view",
      "type": "function"
    },
    {
      "constant": true,
      "inputs": [],
      "name": "startTime",
      "outputs": [
        {
          "name": "",
          "type": "uint256"
        }
      ],
      "payable": false,
      "stateMutability": "view",
      "type": "function"
    },
    {
      "constant": true,
      "inputs": [],
      "name": "isNowApproved",
      "outputs": [
        {
          "name": "",
          "type": "bool"
        }
      ],
      "payable": false,
      "stateMutability": "view",
      "type": "function"
    },
    {
      "constant": true,
      "inputs": [
        {
          "name": "account",
          "type": "address"
        }
      ],
      "name": "isMember",
      "outputs": [
        {
          "name": "",
          "type": "bool"
        }
      ],
      "payable": false,
      "stateMutability": "view",
      "type": "function"
    },
    {
      "constant": true,
      "inputs": [
        {
          "name": "",
          "type": "address"
        }
      ],
      "name": "votesByAddress",
      "outputs": [
        {
          "name": "time",
          "type": "uint256"
        },
        {
          "name": "weight",
          "type": "uint256"
        },
        {
          "name": "agree",
          "type": "bool"
        }
      ],
      "payable": false,
      "stateMutability": "view",
      "type": "function"
    },
    {
      "constant": true,
      "inputs": [],
      "name": "amount",
      "outputs": [
        {
          "name": "",
          "type": "uint256"
        }
      ],
      "payable": false,
      "stateMutability": "view",
      "type": "function"
    },
    {
      "constant": true,
      "inputs": [],
      "name": "id",
      "outputs": [
        {
          "name": "",
          "type": "uint256"
        }
      ],
      "payable": false,
      "stateMutability": "view",
      "type": "function"
    },
    {
      "constant": true,
      "inputs": [],
      "name": "totalVoted",
      "outputs": [
        {
          "name": "",
          "type": "uint256"
        }
      ],
      "payable": false,
      "stateMutability": "view",
      "type": "function"
    },
    {
      "constant": true,
      "inputs": [],
      "name": "finalized",
      "outputs": [
        {
          "name": "",
          "type": "bool"
        }
      ],
      "payable": false,
      "stateMutability": "view",
      "type": "function"
    },
    {
      "constant": false,
      "inputs": [],
      "name": "renounceMember",
      "outputs": [],
      "payable": false,
      "stateMutability": "nonpayable",
      "type": "function"
    },
    {
      "constant": false,
      "inputs": [
        {
          "name": "voter",
          "type": "address"
        },
        {
          "name": "agree",
          "type": "bool"
        }
      ],
      "name": "vote",
      "outputs": [],
      "payable": false,
      "stateMutability": "nonpayable",
      "type": "function"
    },
    {
      "constant": true,
      "inputs": [],
      "name": "state",
      "outputs": [
        {
          "name": "",
          "type": "uint8"
        }
      ],
      "payable": false,
      "stateMutability": "view",
      "type": "function"
    },
    {
      "constant": false,
      "inputs": [
        {
          "name": "account",
          "type": "address"
        }
      ],
      "name": "addMember",
      "outputs": [],
      "payable": false,
      "stateMutability": "nonpayable",
      "type": "function"
    },
    {
      "constant": true,
      "inputs": [],
      "name": "yesCounter",
      "outputs": [
        {
          "name": "",
          "type": "uint256"
        }
      ],
      "payable": false,
      "stateMutability": "view",
      "type": "function"
    },
    {
      "constant": true,
      "inputs": [],
      "name": "token",
      "outputs": [
        {
          "name": "",
          "type": "address"
        }
      ],
      "payable": false,
      "stateMutability": "view",
      "type": "function"
    },
    {
      "inputs": [
        {
          "name": "_id",
          "type": "uint256"
        },
        {
          "name": "_rule",
          "type": "uint256"
        },
        {
          "name": "_beneficiary",
          "type": "address"
        },
        {
          "name": "_amount",
          "type": "uint256"
        },
        {
          "name": "_tokenAddress",
          "type": "address"
        },
        {
          "name": "_poolAddress",
          "type": "address"
        }
      ],
      "payable": false,
      "stateMutability": "nonpayable",
      "type": "constructor"
    },
    {
      "anonymous": false,
      "inputs": [
        {
          "indexed": false,
          "name": "id",
          "type": "uint256"
        },
        {
          "indexed": false,
          "name": "state",
          "type": "uint8"
        }
      ],
      "name": "RewardStateChanged",
      "type": "event"
    },
    {
      "anonymous": false,
      "inputs": [
        {
          "indexed": true,
          "name": "account",
          "type": "address"
        }
      ],
      "name": "MemberAdded",
      "type": "event"
    },
    {
      "anonymous": false,
      "inputs": [
        {
          "indexed": true,
          "name": "account",
          "type": "address"
        }
      ],
      "name": "MemberRemoved",
      "type": "event"
    },
    {
      "constant": true,
      "inputs": [],
      "name": "withdrawalAllowed",
      "outputs": [
        {
          "name": "",
          "type": "bool"
        }
      ],
      "payable": false,
      "stateMutability": "view",
      "type": "function"
    },
    {
      "constant": false,
      "inputs": [],
      "name": "withdraw",
      "outputs": [],
      "payable": false,
      "stateMutability": "nonpayable",
      "type": "function"
    }
  ],
  "bytecode": "0x60806040526000600555600060065560006007553480156200002057600080fd5b5060405160c080620011b5833981018060405260c08110156200004257600080fd5b508051602082015160408301516060840151608085015160a090950151939492939192909181814260b481016000600160a060020a03851615156200008657600080fd5b4283101580156200009657508282115b1515620000a257600080fd5b60008054600160a060020a03968716600160a060020a03199182161790915560018054959096169416939093179093556002556003919091556008805460ff1990811690915560048054921515929091169190911790556200010d33640100000000620001ac810204565b62000121336401000000006200023f810204565b15156200012d57600080fd5b600c869055600d859055600e8054600160a060020a031916600160a060020a038616179055600f8390556010805460ff1916905542601155604080518781526000602082015281517f90ab42752b8b3a3e8bcb9cba7d57f5bf87db421f9885bb1c203f08d0ef199c20929181900390910190a1505050505050620002f5565b620001c7600a8264010000000062000e366200026282021704565b600b805460018101825560009182527f0175b7a638427703f0dbe7bb9bbf987a2551717b34e79f33b5b1008d1fa01db9018054600160a060020a031916600160a060020a03841690811790915560405190917fb251eb052afc73ffd02ffe85ad79990a8b3fed60d76dbc2fa2fdd7123dffd91491a250565b60006200025c600a8364010000000062000c17620002bd82021704565b92915050565b600160a060020a03811615156200027857600080fd5b6200028d8282640100000000620002bd810204565b156200029857600080fd5b600160a060020a0316600090815260209190915260409020805460ff19166001179055565b6000600160a060020a0382161515620002d557600080fd5b50600160a060020a03166000908152602091909152604090205460ff1690565b610eb080620003056000396000f3fe6080604052600436106101695763ffffffff7c01000000000000000000000000000000000000000000000000000000006000350416630519bac3811461016e57806316f0115b146101a357806325e3d522146101d457806328d21990146101fb5780633197cbb614610210578063325a19f114610225578063361810261461023a57806338af3eed146102635780633ccfd60b1461027857806341fdade61461028d5780635c134d66146102a25780635daf08ca146102db57806364a902921461030557806378e979251461031a57806380322cbd1461032f578063a1d1936114610344578063a230c52414610359578063a7491b481461038c578063aa8c217c146103df578063af640d0f146103f4578063b3a2273f14610409578063b3f05b971461041e578063bad5ba0114610433578063bd041c4d14610448578063c19d93fb14610483578063ca6d56dc146104bc578063d74689e4146104ef578063fc0c546a14610504575b600080fd5b34801561017a57600080fd5b506101a16004803603602081101561019157600080fd5b5035600160a060020a0316610519565b005b3480156101af57600080fd5b506101b86105e8565b60408051600160a060020a039092168252519081900360200190f35b3480156101e057600080fd5b506101e96105f7565b60408051918252519081900360200190f35b34801561020757600080fd5b506101e96105fd565b34801561021c57600080fd5b506101e9610602565b34801561023157600080fd5b506101e9610608565b34801561024657600080fd5b5061024f61060e565b604080519115158252519081900360200190f35b34801561026f57600080fd5b506101b8610657565b34801561028457600080fd5b506101a1610666565b34801561029957600080fd5b506101e96107ed565b3480156102ae57600080fd5b506101e9600480360360408110156102c557600080fd5b50600160a060020a0381351690602001356107f3565b3480156102e757600080fd5b506101b8600480360360208110156102fe57600080fd5b5035610823565b34801561031157600080fd5b506101e961084b565b34801561032657600080fd5b506101e9610851565b34801561033b57600080fd5b5061024f610857565b34801561035057600080fd5b5061024f610866565b34801561036557600080fd5b5061024f6004803603602081101561037c57600080fd5b5035600160a060020a0316610881565b34801561039857600080fd5b506103bf600480360360208110156103af57600080fd5b5035600160a060020a031661089a565b604080519384526020840192909252151582820152519081900360600190f35b3480156103eb57600080fd5b506101e96108be565b34801561040057600080fd5b506101e96108c4565b34801561041557600080fd5b506101e96108ca565b34801561042a57600080fd5b5061024f6108d0565b34801561043f57600080fd5b506101a16108d9565b34801561045457600080fd5b506101a16004803603604081101561046b57600080fd5b50600160a060020a03813516906020013515156108e4565b34801561048f57600080fd5b50610498610b05565b604051808260038111156104a857fe5b60ff16815260200191505060405180910390f35b3480156104c857600080fd5b506101a1600480360360208110156104df57600080fd5b5035600160a060020a0316610b0e565b3480156104fb57600080fd5b506101e9610b2e565b34801561051057600080fd5b506101b8610b34565b600254421015801561052d57506003544211155b151561053857600080fd5b600160a060020a0381166000908152600960205260408120541161055b57600080fd5b600160a060020a038116600090815260096020526040812060018082018054600284018054948690559490915560ff19831690935560075460ff909216916105a89163ffffffff610b4316565b60075580156105cc576005546105c4908363ffffffff610b4316565b6005556105e3565b6006546105df908363ffffffff610b4316565b6006555b505050565b600154600160a060020a031681565b600d5481565b60b481565b60035481565b60115481565b60085460009060ff161561062157600080fd5b60035442101561063357506000610654565b6008805460ff1916600117905561065061064b610b58565b610b62565b5060015b90565b600e54600160a060020a031681565b60008054600154604080517f70a08231000000000000000000000000000000000000000000000000000000008152600160a060020a039283166004820152905191909216916370a08231916024808301926020929190829003018186803b1580156106d057600080fd5b505afa1580156106e4573d6000803e3d6000fd5b505050506040513d60208110156106fa57600080fd5b50519050610706610866565b151561071157600080fd5b600e54600160a060020a0316331461072857600080fd5b600f5460001061073757600080fd5b600f5481101561074657600080fd5b600154600e54600f54601154604080517fc18b0180000000000000000000000000000000000000000000000000000000008152600160a060020a0394851660048201526024810193909352604483019190915251919092169163c18b018091606480830192600092919082900301818387803b1580156107c557600080fd5b505af11580156107d9573d6000803e3d6000fd5b50506010805460ff19166003179055505050565b6103e881565b60126020528160005260406000208181548110151561080e57fe5b90600052602060002001600091509150505481565b600b80548290811061083157fe5b600091825260209091200154600160a060020a0316905081565b60065481565b60025481565b6000610861610b58565b905090565b6000600160105460ff16600381111561087b57fe5b14905090565b6000610894600a8363ffffffff610c1716565b92915050565b60096020526000908152604090208054600182015460029092015490919060ff1683565b600f5481565b600c5481565b60075481565b60085460ff1681565b6108e233610c4e565b565b60025442101580156108f857506003544211155b151561090357600080fd5b600160a060020a038216151561091857600080fd5b600160a060020a0382166000908152600960205260409020541561093b57600080fd5b60008054604080517f70a08231000000000000000000000000000000000000000000000000000000008152600160a060020a038681166004830152915191909216916370a08231916024808301926020929190829003018186803b1580156109a257600080fd5b505afa1580156109b6573d6000803e3d6000fd5b505050506040513d60208110156109cc57600080fd5b505160008054604080517f18160ddd00000000000000000000000000000000000000000000000000000000815290519394509192610a70926103e892600160a060020a0316916318160ddd91600480820192602092909190829003018186803b158015610a3857600080fd5b505afa158015610a4c573d6000803e3d6000fd5b505050506040513d6020811015610a6257600080fd5b50519063ffffffff610c9616565b905080821115610a805780610a82565b815b91508215610aa557600554610a9d908363ffffffff610cba16565b600555610abc565b600654610ab8908363ffffffff610cba16565b6006555b600160a060020a038416600090815260096020526040902042815560018082018490556002909101805460ff1916851515179055600754610afc91610cba565b60075550505050565b60105460ff1681565b610b1733610881565b1515610b2257600080fd5b610b2b81610cd3565b50565b60055481565b600054600160a060020a031681565b600082821115610b5257600080fd5b50900390565b6006546005541190565b808015610b71575060085460ff165b15610b8357610b7e610d69565b610b8b565b610b8b610dd6565b600154600c54604080517f7370407d0000000000000000000000000000000000000000000000000000000081526004810192909252831515602483015251600160a060020a0390921691637370407d9160448082019260009290919082900301818387803b158015610bfc57600080fd5b505af1158015610c10573d6000803e3d6000fd5b5050505050565b6000600160a060020a0382161515610c2e57600080fd5b50600160a060020a03166000908152602091909152604090205460ff1690565b610c5f600a8263ffffffff610dea16565b604051600160a060020a038216907f6e76fb4c77256006d9c38ec7d82b45a8c8f3c27b1d6766fffc42dfb8de68449290600090a250565b6000808211610ca457600080fd5b60008284811515610cb157fe5b04949350505050565b600082820183811015610ccc57600080fd5b9392505050565b610ce4600a8263ffffffff610e3616565b600b805460018101825560009182527f0175b7a638427703f0dbe7bb9bbf987a2551717b34e79f33b5b1008d1fa01db901805473ffffffffffffffffffffffffffffffffffffffff1916600160a060020a03841690811790915560405190917fb251eb052afc73ffd02ffe85ad79990a8b3fed60d76dbc2fa2fdd7123dffd91491a250565b601080546001919060ff191682805b0217905550600c546010546040518281527f90ab42752b8b3a3e8bcb9cba7d57f5bf87db421f9885bb1c203f08d0ef199c20929160ff169060208101826003811115610dc057fe5b60ff1681526020019250505060405180910390a1565b601080546002919060ff1916600183610d78565b600160a060020a0381161515610dff57600080fd5b610e098282610c17565b1515610e1457600080fd5b600160a060020a0316600090815260209190915260409020805460ff19169055565b600160a060020a0381161515610e4b57600080fd5b610e558282610c17565b15610e5f57600080fd5b600160a060020a0316600090815260209190915260409020805460ff1916600117905556fea165627a7a72305820b5150946383bf33d7f4aa7d09fa5235d158649c3d8f0370243a3306359a73dcb0029",
  "source": "pragma solidity ^0.5.0;\n\nimport '../access/roles/MemberRole.sol';\nimport '../math/SafeMath.sol';\nimport '../token/ERC20/IERC20.sol';\nimport '../poll/BasePoll.sol';\n\ncontract Reward is BasePoll, MemberRole {\n    using SafeMath for uint256;\n\n    enum RewardState { Pending, Approved, Rejected, Withdrawn }\n\n    event RewardStateChanged(uint256 id, RewardState state);\n\n    uint256 public constant REWARD_POLL_DURATION = 3 minutes;\n\n    uint256 public id;\n    uint256 public rule;\n    address public beneficiary;\n    uint256 public amount;\n    RewardState public state;\n    uint256 public created;\n\n    mapping (address => uint256[]) public voters;\n\n    constructor(\n        uint256 _id,\n        uint256 _rule,\n        address _beneficiary,\n        uint256 _amount,\n        address _tokenAddress,\n        address _poolAddress\n    ) public onlyMember\n        BasePoll(_tokenAddress, _poolAddress, now, now + REWARD_POLL_DURATION, false)\n    {\n        id = _id;\n        rule = _rule;\n        beneficiary = _beneficiary;\n        amount = _amount;\n        state = RewardState.Pending;\n        created = now;\n\n        emit RewardStateChanged(id, state);\n    }\n\n    /**\n    * @dev Check if the reward is approved.\n    */\n    function withdrawalAllowed() public view returns (bool) {\n        return state == RewardState.Approved;\n    }\n\n    /**\n    * @dev Withdraw accumulated balance for a beneficiary.\n    */\n    function withdraw() public {\n        uint256 poolBalance = token.balanceOf(address(pool));\n\n        require(withdrawalAllowed());\n        require(msg.sender == beneficiary);\n        require(amount > 0);\n        require(poolBalance >= amount);\n\n        pool.onWithdrawel(beneficiary, amount, created);\n\n        state = RewardState.Withdrawn;\n    }\n\n    /**\n    * @dev callback called after poll finalization\n    */\n    function onPollFinish(bool agree) internal {\n        if (agree && finalized) {\n            _onApproval();\n        }\n        else {\n            _onRejection();\n        }\n\n        pool.onRewardPollFinish(id, agree);\n    }\n\n    /**\n    * @dev callback called after reward is withdrawn\n    */\n    function _onApproval() internal {\n        state = RewardState.Approved;\n        emit RewardStateChanged(id, state);\n    }\n\n    /**\n    * @dev callback called after reward is rejected\n    */\n    function _onRejection() internal {\n        state = RewardState.Rejected;\n        emit RewardStateChanged(id, state);\n    }\n\n}\n",
  "sourcePath": "/Users/peterpolman/Sites/thx/wallet/contracts/reward/Reward.sol",
  "compiler": {
    "name": "solc",
    "version": "0.5.0+commit.1d4f565a.Emscripten.clang"
  },
  "schemaVersion": "3.0.1",
  "updatedAt": "2020-03-16T15:14:29.821Z",
  "devdoc": {
    "methods": {
      "revokeVote(address)": {
        "details": "Revoke user`s vote",
        "params": {
          "voter": "The address of the user voting"
        }
      },
      "vote(address,bool)": {
        "details": "Process user`s vote",
        "params": {
          "agree": "True if user endorses the proposal else False",
          "voter": "The address of the user voting"
        }
      },
      "withdraw()": {
        "details": "Withdraw accumulated balance for a beneficiary."
      },
      "withdrawalAllowed()": {
        "details": "Check if the reward is approved."
      }
    }
  },
  "userdoc": {
    "methods": {
      "tryToFinalize()": {
        "notice": "Finalize poll and call onPollFinish callback with result"
      }
    }
  }
}