{
  "contractName": "Reward",
  "abi": [
    {
      "constant": true,
      "inputs": [],
      "name": "pool",
      "outputs": [
        {
          "name": "",
          "type": "address"
        }
      ],
      "payable": false,
      "stateMutability": "view",
      "type": "function"
    },
    {
      "constant": true,
      "inputs": [],
      "name": "REWARD_POLL_DURATION",
      "outputs": [
        {
          "name": "",
          "type": "uint256"
        }
      ],
      "payable": false,
      "stateMutability": "view",
      "type": "function"
    },
    {
      "constant": true,
      "inputs": [],
      "name": "endTime",
      "outputs": [
        {
          "name": "",
          "type": "uint256"
        }
      ],
      "payable": false,
      "stateMutability": "view",
      "type": "function"
    },
    {
      "constant": true,
      "inputs": [],
      "name": "created",
      "outputs": [
        {
          "name": "",
          "type": "uint256"
        }
      ],
      "payable": false,
      "stateMutability": "view",
      "type": "function"
    },
    {
      "constant": false,
      "inputs": [],
      "name": "tryToFinalize",
      "outputs": [
        {
          "name": "",
          "type": "bool"
        }
      ],
      "payable": false,
      "stateMutability": "nonpayable",
      "type": "function"
    },
    {
      "constant": true,
      "inputs": [],
      "name": "beneficiary",
      "outputs": [
        {
          "name": "",
          "type": "address"
        }
      ],
      "payable": false,
      "stateMutability": "view",
      "type": "function"
    },
    {
      "constant": true,
      "inputs": [],
      "name": "MAX_TOKENS_WEIGHT_DENOM",
      "outputs": [
        {
          "name": "",
          "type": "uint256"
        }
      ],
      "payable": false,
      "stateMutability": "view",
      "type": "function"
    },
    {
      "constant": false,
      "inputs": [],
      "name": "revokeVote",
      "outputs": [],
      "payable": false,
      "stateMutability": "nonpayable",
      "type": "function"
    },
    {
      "constant": false,
      "inputs": [
        {
          "name": "agree",
          "type": "bool"
        }
      ],
      "name": "vote",
      "outputs": [],
      "payable": false,
      "stateMutability": "nonpayable",
      "type": "function"
    },
    {
      "constant": true,
      "inputs": [
        {
          "name": "",
          "type": "address"
        },
        {
          "name": "",
          "type": "uint256"
        }
      ],
      "name": "voters",
      "outputs": [
        {
          "name": "",
          "type": "uint256"
        }
      ],
      "payable": false,
      "stateMutability": "view",
      "type": "function"
    },
    {
      "constant": true,
      "inputs": [],
      "name": "noCounter",
      "outputs": [
        {
          "name": "",
          "type": "uint256"
        }
      ],
      "payable": false,
      "stateMutability": "view",
      "type": "function"
    },
    {
      "constant": true,
      "inputs": [],
      "name": "slug",
      "outputs": [
        {
          "name": "",
          "type": "string"
        }
      ],
      "payable": false,
      "stateMutability": "view",
      "type": "function"
    },
    {
      "constant": true,
      "inputs": [],
      "name": "startTime",
      "outputs": [
        {
          "name": "",
          "type": "uint256"
        }
      ],
      "payable": false,
      "stateMutability": "view",
      "type": "function"
    },
    {
      "constant": true,
      "inputs": [],
      "name": "isNowApproved",
      "outputs": [
        {
          "name": "",
          "type": "bool"
        }
      ],
      "payable": false,
      "stateMutability": "view",
      "type": "function"
    },
    {
      "constant": true,
      "inputs": [
        {
          "name": "account",
          "type": "address"
        }
      ],
      "name": "isMember",
      "outputs": [
        {
          "name": "",
          "type": "bool"
        }
      ],
      "payable": false,
      "stateMutability": "view",
      "type": "function"
    },
    {
      "constant": true,
      "inputs": [
        {
          "name": "",
          "type": "address"
        }
      ],
      "name": "votesByAddress",
      "outputs": [
        {
          "name": "time",
          "type": "uint256"
        },
        {
          "name": "weight",
          "type": "uint256"
        },
        {
          "name": "agree",
          "type": "bool"
        }
      ],
      "payable": false,
      "stateMutability": "view",
      "type": "function"
    },
    {
      "constant": true,
      "inputs": [],
      "name": "amount",
      "outputs": [
        {
          "name": "",
          "type": "uint256"
        }
      ],
      "payable": false,
      "stateMutability": "view",
      "type": "function"
    },
    {
      "constant": true,
      "inputs": [],
      "name": "id",
      "outputs": [
        {
          "name": "",
          "type": "uint256"
        }
      ],
      "payable": false,
      "stateMutability": "view",
      "type": "function"
    },
    {
      "constant": true,
      "inputs": [],
      "name": "totalVoted",
      "outputs": [
        {
          "name": "",
          "type": "uint256"
        }
      ],
      "payable": false,
      "stateMutability": "view",
      "type": "function"
    },
    {
      "constant": true,
      "inputs": [],
      "name": "finalized",
      "outputs": [
        {
          "name": "",
          "type": "bool"
        }
      ],
      "payable": false,
      "stateMutability": "view",
      "type": "function"
    },
    {
      "constant": false,
      "inputs": [],
      "name": "renounceMember",
      "outputs": [],
      "payable": false,
      "stateMutability": "nonpayable",
      "type": "function"
    },
    {
      "constant": true,
      "inputs": [],
      "name": "state",
      "outputs": [
        {
          "name": "",
          "type": "uint8"
        }
      ],
      "payable": false,
      "stateMutability": "view",
      "type": "function"
    },
    {
      "constant": false,
      "inputs": [
        {
          "name": "account",
          "type": "address"
        }
      ],
      "name": "addMember",
      "outputs": [],
      "payable": false,
      "stateMutability": "nonpayable",
      "type": "function"
    },
    {
      "constant": true,
      "inputs": [],
      "name": "yesCounter",
      "outputs": [
        {
          "name": "",
          "type": "uint256"
        }
      ],
      "payable": false,
      "stateMutability": "view",
      "type": "function"
    },
    {
      "constant": true,
      "inputs": [],
      "name": "token",
      "outputs": [
        {
          "name": "",
          "type": "address"
        }
      ],
      "payable": false,
      "stateMutability": "view",
      "type": "function"
    },
    {
      "inputs": [
        {
          "name": "_id",
          "type": "uint256"
        },
        {
          "name": "_slug",
          "type": "string"
        },
        {
          "name": "_beneficiary",
          "type": "address"
        },
        {
          "name": "_amount",
          "type": "uint256"
        },
        {
          "name": "_tokenAddress",
          "type": "address"
        },
        {
          "name": "_poolAddress",
          "type": "address"
        }
      ],
      "payable": false,
      "stateMutability": "nonpayable",
      "type": "constructor"
    },
    {
      "anonymous": false,
      "inputs": [],
      "name": "RewardPollCreated",
      "type": "event"
    },
    {
      "anonymous": false,
      "inputs": [
        {
          "indexed": false,
          "name": "id",
          "type": "uint256"
        },
        {
          "indexed": false,
          "name": "state",
          "type": "uint8"
        }
      ],
      "name": "RewardStateChanged",
      "type": "event"
    },
    {
      "anonymous": false,
      "inputs": [
        {
          "indexed": true,
          "name": "account",
          "type": "address"
        }
      ],
      "name": "MemberAdded",
      "type": "event"
    },
    {
      "anonymous": false,
      "inputs": [
        {
          "indexed": true,
          "name": "account",
          "type": "address"
        }
      ],
      "name": "MemberRemoved",
      "type": "event"
    },
    {
      "constant": true,
      "inputs": [],
      "name": "withdrawalAllowed",
      "outputs": [
        {
          "name": "",
          "type": "bool"
        }
      ],
      "payable": false,
      "stateMutability": "view",
      "type": "function"
    }
  ],
  "bytecode": "0x60806040526000600555600060065560006007553480156200002057600080fd5b506040516200100738038062001007833981018060405260c08110156200004657600080fd5b8151602083018051919392830192916401000000008111156200006857600080fd5b820160208101848111156200007c57600080fd5b81516401000000008111828201871017156200009757600080fd5b50506020820151604083015160608401516080909401516010546002546003549598509396509194939092600160a060020a0390921691906000620000e53364010000000062000210810204565b600160a060020a0384161515620000fb57600080fd5b4283101580156200010b57508282115b15156200011757600080fd5b60018054600160a060020a031916600160a060020a0395909516949094179093556002919091556003556008805460ff1990811690915560048054909116911515919091179055600a86905584516200017890600b906020880190620002f5565b50600c8054600160a060020a03868116600160a060020a031992831617909255600d859055600e805460ff1916905542600f5560108054821685841617905560118054909116918316919091179055600a54604080519182526000602083015280517f90ab42752b8b3a3e8bcb9cba7d57f5bf87db421f9885bb1c203f08d0ef199c209281900390910190a15050505050506200039a565b6200022b60008264010000000062000be36200026282021704565b604051600160a060020a038216907fb251eb052afc73ffd02ffe85ad79990a8b3fed60d76dbc2fa2fdd7123dffd91490600090a250565b600160a060020a03811615156200027857600080fd5b6200028d8282640100000000620002bd810204565b156200029857600080fd5b600160a060020a0316600090815260209190915260409020805460ff19166001179055565b6000600160a060020a0382161515620002d557600080fd5b50600160a060020a03166000908152602091909152604090205460ff1690565b828054600181600116156101000203166002900490600052602060002090601f016020900481019282601f106200033857805160ff191683800117855562000368565b8280016001018555821562000368579182015b82811115620003685782518255916020019190600101906200034b565b50620003769291506200037a565b5090565b6200039791905b8082111562000376576000815560010162000381565b90565b610c5d80620003aa6000396000f3fe6080604052600436106101535763ffffffff7c010000000000000000000000000000000000000000000000000000000060003504166316f0115b811461015857806328d21990146101895780633197cbb6146101b0578063325a19f1146101c557806336181026146101da57806338af3eed1461020357806341fdade61461021857806343c14b221461022d5780634b9f5c98146102445780635c134d661461027057806364a90292146102a95780636beb7959146102be57806378e979251461034857806380322cbd1461035d578063a1d1936114610372578063a230c52414610387578063a7491b48146103ba578063aa8c217c1461040d578063af640d0f14610422578063b3a2273f14610437578063b3f05b971461044c578063bad5ba0114610461578063c19d93fb14610476578063ca6d56dc146104af578063d74689e4146104e2578063fc0c546a146104f7575b600080fd5b34801561016457600080fd5b5061016d61050c565b60408051600160a060020a039092168252519081900360200190f35b34801561019557600080fd5b5061019e61051b565b60408051918252519081900360200190f35b3480156101bc57600080fd5b5061019e610522565b3480156101d157600080fd5b5061019e610528565b3480156101e657600080fd5b506101ef61052e565b604080519115158252519081900360200190f35b34801561020f57600080fd5b5061016d610577565b34801561022457600080fd5b5061019e610586565b34801561023957600080fd5b5061024261058c565b005b34801561025057600080fd5b506102426004803603602081101561026757600080fd5b50351515610648565b34801561027c57600080fd5b5061019e6004803603604081101561029357600080fd5b50600160a060020a038135169060200135610854565b3480156102b557600080fd5b5061019e610884565b3480156102ca57600080fd5b506102d361088a565b6040805160208082528351818301528351919283929083019185019080838360005b8381101561030d5781810151838201526020016102f5565b50505050905090810190601f16801561033a5780820380516001836020036101000a031916815260200191505b509250505060405180910390f35b34801561035457600080fd5b5061019e610918565b34801561036957600080fd5b506101ef61091e565b34801561037e57600080fd5b506101ef61092d565b34801561039357600080fd5b506101ef600480360360208110156103aa57600080fd5b5035600160a060020a0316610948565b3480156103c657600080fd5b506103ed600480360360208110156103dd57600080fd5b5035600160a060020a0316610960565b604080519384526020840192909252151582820152519081900360600190f35b34801561041957600080fd5b5061019e610984565b34801561042e57600080fd5b5061019e61098a565b34801561044357600080fd5b5061019e610990565b34801561045857600080fd5b506101ef610996565b34801561046d57600080fd5b5061024261099f565b34801561048257600080fd5b5061048b6109aa565b6040518082600381111561049b57fe5b60ff16815260200191505060405180910390f35b3480156104bb57600080fd5b50610242600480360360208110156104d257600080fd5b5035600160a060020a03166109b3565b3480156104ee57600080fd5b5061019e6109d3565b34801561050357600080fd5b5061016d6109d9565b601154600160a060020a031681565b62093a8081565b60035481565b600f5481565b60085460009060ff161561054157600080fd5b60035442101561055357506000610574565b6008805460ff1916600117905561057061056b6109e8565b6109f2565b5060015b90565b600c54600160a060020a031681565b6103e881565b60025442101580156105a057506003544211155b15156105ab57600080fd5b33600090815260096020526040812054116105c557600080fd5b33600090815260096020526040812060018082018054600284018054948690559490915560ff19831690935560075460ff909216916106099163ffffffff610a7e16565b600755801561062d57600554610625908363ffffffff610a7e16565b600555610644565b600654610640908363ffffffff610a7e16565b6006555b5050565b600254421015801561065c57506003544211155b151561066757600080fd5b61067033610948565b151561067b57600080fd5b336000908152600960205260409020541561069557600080fd5b600154604080517f70a082310000000000000000000000000000000000000000000000000000000081523360048201529051600092600160a060020a0316916370a08231916024808301926020929190829003018186803b1580156106f957600080fd5b505afa15801561070d573d6000803e3d6000fd5b505050506040513d602081101561072357600080fd5b5051600154604080517f18160ddd00000000000000000000000000000000000000000000000000000000815290519293506000926107c9926103e892600160a060020a03909116916318160ddd91600480820192602092909190829003018186803b15801561079157600080fd5b505afa1580156107a5573d6000803e3d6000fd5b505050506040513d60208110156107bb57600080fd5b50519063ffffffff610a9316565b9050808211156107d957806107db565b815b915082156107fe576005546107f6908363ffffffff610ab716565b600555610815565b600654610811908363ffffffff610ab716565b6006555b33600090815260096020526040902042815560018082018490556002909101805460ff191685151517905560075461084c91610ab7565b600755505050565b60126020528160005260406000208181548110151561086f57fe5b90600052602060002001600091509150505481565b60065481565b600b805460408051602060026001851615610100026000190190941693909304601f810184900484028201840190925281815292918301828280156109105780601f106108e557610100808354040283529160200191610910565b820191906000526020600020905b8154815290600101906020018083116108f357829003601f168201915b505050505081565b60025481565b60006109286109e8565b905090565b60006001600e5460ff16600381111561094257fe5b14905090565b600061095a818363ffffffff610ad016565b92915050565b60096020526000908152604090208054600182015460029092015490919060ff1683565b600d5481565b600a5481565b60075481565b60085460ff1681565b6109a833610b07565b565b600e5460ff1681565b6109bc33610948565b15156109c757600080fd5b6109d081610b4f565b50565b60055481565b601054600160a060020a031681565b6006546005541190565b601154600a54604080517f7370407d0000000000000000000000000000000000000000000000000000000081526004810192909252831515602483015251600160a060020a0390921691637370407d9160448082019260009290919082900301818387803b158015610a6357600080fd5b505af1158015610a77573d6000803e3d6000fd5b5050505050565b600082821115610a8d57600080fd5b50900390565b6000808211610aa157600080fd5b60008284811515610aae57fe5b04949350505050565b600082820183811015610ac957600080fd5b9392505050565b6000600160a060020a0382161515610ae757600080fd5b50600160a060020a03166000908152602091909152604090205460ff1690565b610b1860008263ffffffff610b9716565b604051600160a060020a038216907f6e76fb4c77256006d9c38ec7d82b45a8c8f3c27b1d6766fffc42dfb8de68449290600090a250565b610b6060008263ffffffff610be316565b604051600160a060020a038216907fb251eb052afc73ffd02ffe85ad79990a8b3fed60d76dbc2fa2fdd7123dffd91490600090a250565b600160a060020a0381161515610bac57600080fd5b610bb68282610ad0565b1515610bc157600080fd5b600160a060020a0316600090815260209190915260409020805460ff19169055565b600160a060020a0381161515610bf857600080fd5b610c028282610ad0565b15610c0c57600080fd5b600160a060020a0316600090815260209190915260409020805460ff1916600117905556fea165627a7a72305820ad634d814bce205d350008808e1ec651d9e2fd2a16cf683afdbd45ccadf572560029",
  "source": "pragma solidity ^0.5.0;\n\nimport '../access/roles/MemberRole.sol';\nimport '../math/SafeMath.sol';\nimport '../token/ERC20/IERC20.sol';\nimport '../poll/BasePoll.sol';\nimport '../IRewardPool.sol';\n\ncontract Reward is MemberRole, BasePoll {\n    using SafeMath for uint256;\n\n    enum RewardState { Pending, Approved, Rejected, Withdrawn }\n\n    event RewardPollCreated();\n    event RewardStateChanged(uint256 id, RewardState state);\n\n    uint256 public constant REWARD_POLL_DURATION = 7 days;\n\n    uint256 public id;\n    string public slug;\n    address public beneficiary;\n    uint256 public amount;\n    RewardState public state;\n    uint256 public created;\n\n    IERC20 public token;\n    IRewardPool public pool;\n\n    mapping (address => uint256[]) public voters;\n\n    constructor(\n        uint256 _id,\n        string memory _slug,\n        address _beneficiary,\n        uint256 _amount,\n        address _tokenAddress,\n        address _poolAddress\n    ) public\n        BasePoll(address(token), startTime, endTime, false)\n    {\n        id = _id;\n        slug = _slug;\n        beneficiary = _beneficiary;\n        amount = _amount;\n        state = RewardState.Pending;\n        created = now;\n        token = IERC20(_tokenAddress);\n        pool = IRewardPool(_poolAddress);\n\n        emit RewardStateChanged(id, state);\n    }\n\n    /**\n    * @dev Check if the reward is approved.\n    */\n    function withdrawalAllowed() public view returns (bool) {\n        return state == RewardState.Approved;\n    }\n\n    /**\n    * @dev callback called after poll finalization\n    */\n    function onPollFinish(bool agree) internal {\n        pool.onRewardPollFinish(id, agree);\n    }\n\n}\n",
  "sourcePath": "/Users/peterpolman/Sites/thx_client/contracts/reward/Reward.sol",
  "compiler": {
    "name": "solc",
    "version": "0.5.0+commit.1d4f565a.Emscripten.clang"
  },
  "schemaVersion": "3.0.1",
  "updatedAt": "2019-08-06T12:54:57.837Z",
  "devdoc": {
    "methods": {
      "revokeVote()": {
        "details": "Revoke user`s vote"
      },
      "vote(bool)": {
        "details": "Process user`s vote",
        "params": {
          "agree": "True if user endorses the proposal else False"
        }
      },
      "withdrawalAllowed()": {
        "details": "Check if the reward is approved."
      }
    }
  },
  "userdoc": {
    "methods": {
      "tryToFinalize()": {
        "notice": "Finalize poll and call onPollFinish callback with result"
      }
    }
  }
}