{
  "contractName": "RewardPool",
  "abi": [
    {
      "constant": true,
      "inputs": [],
      "name": "creator",
      "outputs": [
        {
          "name": "",
          "type": "address"
        }
      ],
      "payable": false,
      "stateMutability": "view",
      "type": "function"
    },
    {
      "constant": true,
      "inputs": [
        {
          "name": "",
          "type": "uint256"
        }
      ],
      "name": "rules",
      "outputs": [
        {
          "name": "id",
          "type": "uint256"
        },
        {
          "name": "slug",
          "type": "string"
        },
        {
          "name": "amount",
          "type": "uint256"
        },
        {
          "name": "state",
          "type": "uint8"
        },
        {
          "name": "creator",
          "type": "address"
        },
        {
          "name": "created",
          "type": "uint256"
        }
      ],
      "payable": false,
      "stateMutability": "view",
      "type": "function"
    },
    {
      "constant": true,
      "inputs": [],
      "name": "name",
      "outputs": [
        {
          "name": "",
          "type": "string"
        }
      ],
      "payable": false,
      "stateMutability": "view",
      "type": "function"
    },
    {
      "constant": false,
      "inputs": [
        {
          "name": "account",
          "type": "address"
        }
      ],
      "name": "addManager",
      "outputs": [],
      "payable": false,
      "stateMutability": "nonpayable",
      "type": "function"
    },
    {
      "constant": true,
      "inputs": [],
      "name": "countRules",
      "outputs": [
        {
          "name": "",
          "type": "uint256"
        }
      ],
      "payable": false,
      "stateMutability": "view",
      "type": "function"
    },
    {
      "constant": false,
      "inputs": [
        {
          "name": "slug",
          "type": "string"
        },
        {
          "name": "amount",
          "type": "uint256"
        }
      ],
      "name": "createRule",
      "outputs": [],
      "payable": false,
      "stateMutability": "nonpayable",
      "type": "function"
    },
    {
      "constant": true,
      "inputs": [],
      "name": "RULE_POLL_DURATION",
      "outputs": [
        {
          "name": "",
          "type": "uint256"
        }
      ],
      "payable": false,
      "stateMutability": "view",
      "type": "function"
    },
    {
      "constant": false,
      "inputs": [
        {
          "name": "agree",
          "type": "bool"
        }
      ],
      "name": "voteForRule",
      "outputs": [],
      "payable": false,
      "stateMutability": "nonpayable",
      "type": "function"
    },
    {
      "constant": false,
      "inputs": [
        {
          "name": "id",
          "type": "uint256"
        },
        {
          "name": "proposedAmount",
          "type": "uint256"
        }
      ],
      "name": "startRulePoll",
      "outputs": [],
      "payable": false,
      "stateMutability": "nonpayable",
      "type": "function"
    },
    {
      "constant": true,
      "inputs": [
        {
          "name": "",
          "type": "address"
        },
        {
          "name": "",
          "type": "uint256"
        }
      ],
      "name": "voters",
      "outputs": [
        {
          "name": "",
          "type": "uint256"
        }
      ],
      "payable": false,
      "stateMutability": "view",
      "type": "function"
    },
    {
      "constant": false,
      "inputs": [
        {
          "name": "id",
          "type": "uint256"
        },
        {
          "name": "agree",
          "type": "bool"
        },
        {
          "name": "proposedAmount",
          "type": "uint256"
        }
      ],
      "name": "onRulePollFinish",
      "outputs": [],
      "payable": false,
      "stateMutability": "nonpayable",
      "type": "function"
    },
    {
      "constant": true,
      "inputs": [],
      "name": "rulePoll",
      "outputs": [
        {
          "name": "",
          "type": "address"
        }
      ],
      "payable": false,
      "stateMutability": "view",
      "type": "function"
    },
    {
      "constant": true,
      "inputs": [],
      "name": "minVotedTokensPerc",
      "outputs": [
        {
          "name": "",
          "type": "uint256"
        }
      ],
      "payable": false,
      "stateMutability": "view",
      "type": "function"
    },
    {
      "constant": true,
      "inputs": [],
      "name": "MAX_VOTED_TOKEN_PERC",
      "outputs": [
        {
          "name": "",
          "type": "uint256"
        }
      ],
      "payable": false,
      "stateMutability": "view",
      "type": "function"
    },
    {
      "constant": true,
      "inputs": [
        {
          "name": "account",
          "type": "address"
        }
      ],
      "name": "isMember",
      "outputs": [
        {
          "name": "",
          "type": "bool"
        }
      ],
      "payable": false,
      "stateMutability": "view",
      "type": "function"
    },
    {
      "constant": false,
      "inputs": [],
      "name": "renounceMember",
      "outputs": [],
      "payable": false,
      "stateMutability": "nonpayable",
      "type": "function"
    },
    {
      "constant": false,
      "inputs": [],
      "name": "revokeVoteForRule",
      "outputs": [],
      "payable": false,
      "stateMutability": "nonpayable",
      "type": "function"
    },
    {
      "constant": false,
      "inputs": [
        {
          "name": "account",
          "type": "address"
        }
      ],
      "name": "addMember",
      "outputs": [],
      "payable": false,
      "stateMutability": "nonpayable",
      "type": "function"
    },
    {
      "constant": true,
      "inputs": [
        {
          "name": "",
          "type": "uint256"
        }
      ],
      "name": "rewards",
      "outputs": [
        {
          "name": "",
          "type": "address"
        }
      ],
      "payable": false,
      "stateMutability": "view",
      "type": "function"
    },
    {
      "constant": true,
      "inputs": [
        {
          "name": "account",
          "type": "address"
        }
      ],
      "name": "isManager",
      "outputs": [
        {
          "name": "",
          "type": "bool"
        }
      ],
      "payable": false,
      "stateMutability": "view",
      "type": "function"
    },
    {
      "constant": false,
      "inputs": [],
      "name": "renounceManager",
      "outputs": [],
      "payable": false,
      "stateMutability": "nonpayable",
      "type": "function"
    },
    {
      "constant": true,
      "inputs": [],
      "name": "token",
      "outputs": [
        {
          "name": "",
          "type": "address"
        }
      ],
      "payable": false,
      "stateMutability": "view",
      "type": "function"
    },
    {
      "inputs": [
        {
          "name": "_name",
          "type": "string"
        },
        {
          "name": "_tokenAddress",
          "type": "address"
        }
      ],
      "payable": false,
      "stateMutability": "nonpayable",
      "type": "constructor"
    },
    {
      "anonymous": false,
      "inputs": [
        {
          "indexed": true,
          "name": "sender",
          "type": "address"
        },
        {
          "indexed": false,
          "name": "amount",
          "type": "uint256"
        },
        {
          "indexed": false,
          "name": "created",
          "type": "uint256"
        }
      ],
      "name": "Deposited",
      "type": "event"
    },
    {
      "anonymous": false,
      "inputs": [
        {
          "indexed": true,
          "name": "beneficiary",
          "type": "address"
        },
        {
          "indexed": false,
          "name": "amount",
          "type": "uint256"
        },
        {
          "indexed": false,
          "name": "id",
          "type": "uint256"
        },
        {
          "indexed": false,
          "name": "created",
          "type": "uint256"
        }
      ],
      "name": "Withdrawn",
      "type": "event"
    },
    {
      "anonymous": false,
      "inputs": [],
      "name": "RewardPollCreated",
      "type": "event"
    },
    {
      "anonymous": false,
      "inputs": [
        {
          "indexed": false,
          "name": "id",
          "type": "uint256"
        },
        {
          "indexed": false,
          "name": "approved",
          "type": "bool"
        }
      ],
      "name": "RewardPollFinished",
      "type": "event"
    },
    {
      "anonymous": false,
      "inputs": [
        {
          "indexed": false,
          "name": "id",
          "type": "uint256"
        },
        {
          "indexed": false,
          "name": "proposedAmount",
          "type": "uint256"
        }
      ],
      "name": "RulePollCreated",
      "type": "event"
    },
    {
      "anonymous": false,
      "inputs": [
        {
          "indexed": false,
          "name": "id",
          "type": "uint256"
        },
        {
          "indexed": false,
          "name": "approved",
          "type": "bool"
        }
      ],
      "name": "RulePollFinished",
      "type": "event"
    },
    {
      "anonymous": false,
      "inputs": [
        {
          "indexed": false,
          "name": "id",
          "type": "uint256"
        },
        {
          "indexed": false,
          "name": "state",
          "type": "uint8"
        }
      ],
      "name": "RuleStateChanged",
      "type": "event"
    },
    {
      "anonymous": false,
      "inputs": [
        {
          "indexed": true,
          "name": "account",
          "type": "address"
        }
      ],
      "name": "MemberAdded",
      "type": "event"
    },
    {
      "anonymous": false,
      "inputs": [
        {
          "indexed": true,
          "name": "account",
          "type": "address"
        }
      ],
      "name": "MemberRemoved",
      "type": "event"
    },
    {
      "anonymous": false,
      "inputs": [
        {
          "indexed": true,
          "name": "account",
          "type": "address"
        }
      ],
      "name": "ManagerAdded",
      "type": "event"
    },
    {
      "anonymous": false,
      "inputs": [
        {
          "indexed": true,
          "name": "account",
          "type": "address"
        }
      ],
      "name": "ManagerRemoved",
      "type": "event"
    },
    {
      "constant": false,
      "inputs": [
        {
          "name": "value",
          "type": "string"
        }
      ],
      "name": "updatePoolName",
      "outputs": [],
      "payable": false,
      "stateMutability": "nonpayable",
      "type": "function"
    },
    {
      "constant": false,
      "inputs": [
        {
          "name": "amount",
          "type": "uint256"
        }
      ],
      "name": "deposit",
      "outputs": [],
      "payable": false,
      "stateMutability": "nonpayable",
      "type": "function"
    },
    {
      "constant": true,
      "inputs": [],
      "name": "countRewards",
      "outputs": [
        {
          "name": "",
          "type": "uint256"
        }
      ],
      "payable": false,
      "stateMutability": "view",
      "type": "function"
    },
    {
      "constant": false,
      "inputs": [
        {
          "name": "id",
          "type": "uint256"
        }
      ],
      "name": "createReward",
      "outputs": [],
      "payable": false,
      "stateMutability": "nonpayable",
      "type": "function"
    },
    {
      "constant": false,
      "inputs": [
        {
          "name": "id",
          "type": "uint256"
        },
        {
          "name": "agree",
          "type": "bool"
        }
      ],
      "name": "voteForReward",
      "outputs": [],
      "payable": false,
      "stateMutability": "nonpayable",
      "type": "function"
    },
    {
      "constant": false,
      "inputs": [
        {
          "name": "id",
          "type": "uint256"
        }
      ],
      "name": "revokeVoteForReward",
      "outputs": [],
      "payable": false,
      "stateMutability": "nonpayable",
      "type": "function"
    },
    {
      "constant": false,
      "inputs": [
        {
          "name": "id",
          "type": "uint256"
        },
        {
          "name": "agree",
          "type": "bool"
        }
      ],
      "name": "onRewardPollFinish",
      "outputs": [],
      "payable": false,
      "stateMutability": "nonpayable",
      "type": "function"
    },
    {
      "constant": false,
      "inputs": [
        {
          "name": "beneficiary",
          "type": "address"
        },
        {
          "name": "amount",
          "type": "uint256"
        },
        {
          "name": "id",
          "type": "uint256"
        },
        {
          "name": "created",
          "type": "uint256"
        }
      ],
      "name": "onWithdrawel",
      "outputs": [],
      "payable": false,
      "stateMutability": "nonpayable",
      "type": "function"
    }
  ],
  "bytecode": "0x608060405260006005553480156200001657600080fd5b506040516200387738038062003877833981018060405260408110156200003c57600080fd5b8101908080516401000000008111156200005557600080fd5b820160208101848111156200006957600080fd5b81516401000000008111828201871017156200008457600080fd5b505060209182015190935091508190620000a49033906200011b811b901c565b620000b5336200016d60201b60201c565b600380546001600160a01b0319166001600160a01b03929092169190911790558151620000ea9060089060208501906200024b565b50600780546001600160a01b039092166001600160a01b0319928316179055600980549091163317905550620002f0565b62000136816000620001bf60201b6200194a1790919060201c565b6040516001600160a01b038216907f3b4a40cccf2058c593542587329dd385be4f0b588db5471fbd9598e56dd7093a90600090a250565b62000188816001620001bf60201b6200194a1790919060201c565b6040516001600160a01b038216907fb251eb052afc73ffd02ffe85ad79990a8b3fed60d76dbc2fa2fdd7123dffd91490600090a250565b6001600160a01b038116620001d357600080fd5b620001e582826200021560201b60201c565b15620001f057600080fd5b6001600160a01b0316600090815260209190915260409020805460ff19166001179055565b60006001600160a01b0382166200022b57600080fd5b506001600160a01b03166000908152602091909152604090205460ff1690565b828054600181600116156101000203166002900490600052602060002090601f016020900481019282601f106200028e57805160ff1916838001178555620002be565b82800160010185558215620002be579182015b82811115620002be578251825591602001919060010190620002a1565b50620002cc929150620002d0565b5090565b620002ed91905b80821115620002cc5760008155600101620002d7565b90565b61357780620003006000396000f3fe60806040523480156200001157600080fd5b5060043610620002085760003560e01c80637370407d116200011d578063bad5ba0111620000b1578063f301af42116200007b578063f301af421462000771578063f3ae24151462000791578063f8b91abe14620007ba578063fc0c546a14620007c45762000208565b8063bad5ba011462000688578063c9b194531462000692578063ca6d56dc146200069c578063f0b3343514620006c55762000208565b8063962c9c8d11620000f3578063962c9c8d14620005e6578063a230c52414620005f0578063b46b20fe146200062d578063b6b55f2514620006685762000208565b80637370407d146200059457806375d74bed14620005bc5780638421920414620005dc5762000208565b806335deeb4a11620001a15780635c134d66116200016b5780635c134d661462000505578063607ca15b14620005345780636721819514620005625780636fb1270c146200058a5762000208565b806335deeb4a1462000405578063439c6f1714620004b357806351fece9d14620004bd578063563b373d14620004df5762000208565b80630bd028c011620001e35780630bd028c014620003945780631a6a819914620003b05780632d06177a14620003d257806331c5403214620003fb5762000208565b806302d05d3f146200020d57806304d6ded4146200023357806306fdde031462000312575b600080fd5b62000217620007ce565b604080516001600160a01b039092168252519081900360200190f35b62000253600480360360208110156200024b57600080fd5b5035620007dd565b60405180878152602001806020018681526020018560028111156200027457fe5b60ff168152602001846001600160a01b03166001600160a01b03168152602001838152602001828103825287818151815260200191508051906020019080838360005b83811015620002d1578181015183820152602001620002b7565b50505050905090810190601f168015620002ff5780820380516001836020036101000a031916815260200191505b5097505050505050505060405180910390f35b6200031c620008d2565b6040805160208082528351818301528351919283929083019185019080838360005b83811015620003585781810151838201526020016200033e565b50505050905090810190601f168015620003865780820380516001836020036101000a031916815260200191505b509250505060405180910390f35b6200039e62000964565b60408051918252519081900360200190f35b620003d060048036036020811015620003c857600080fd5b50356200096b565b005b620003d060048036036020811015620003ea57600080fd5b50356001600160a01b031662000b1e565b6200039e62000b41565b620003d0600480360360408110156200041d57600080fd5b8101906020810181356401000000008111156200043957600080fd5b8201836020820111156200044c57600080fd5b803590602001918460018302840111640100000000831117156200046f57600080fd5b91908080601f016020809104026020016040519081016040528093929190818152602001838380828437600092019190915250929550509135925062000b47915050565b6200039e62000ccb565b620003d060048036036020811015620004d557600080fd5b5035151562000cd2565b620003d060048036036040811015620004f757600080fd5b508035906020013562000d72565b6200039e600480360360408110156200051d57600080fd5b506001600160a01b03813516906020013562000f08565b620003d0600480360360608110156200054c57600080fd5b5080359060208101351515906040013562000f37565b620003d0600480360360408110156200057a57600080fd5b50803590602001351515620010b7565b6200021762001151565b620003d060048036036040811015620005ac57600080fd5b5080359060200135151562001160565b620003d060048036036020811015620005d457600080fd5b5035620011a0565b6200039e62001215565b6200039e6200121b565b62000619600480360360208110156200060857600080fd5b50356001600160a01b031662001220565b604080519115158252519081900360200190f35b620003d0600480360360808110156200064557600080fd5b506001600160a01b0381351690602081013590604081013590606001356200123b565b620003d0600480360360208110156200068057600080fd5b503562001315565b620003d0620014ff565b620003d06200150c565b620003d060048036036020811015620006b457600080fd5b50356001600160a01b0316620015a3565b620003d060048036036020811015620006dd57600080fd5b810190602081018135640100000000811115620006f957600080fd5b8201836020820111156200070c57600080fd5b803590602001918460018302840111640100000000831117156200072f57600080fd5b91908080601f016020809104026020016040519081016040528093929190818152602001838380828437600092019190915250929550620015c3945050505050565b62000217600480360360208110156200078957600080fd5b5035620015f1565b6200061960048036036020811015620007a957600080fd5b50356001600160a01b031662001619565b620003d06200162d565b6200021762001638565b6009546001600160a01b031681565b60068181548110620007eb57fe5b9060005260206000209060050201600091509050806000015490806001018054600181600116156101000203166002900480601f016020809104026020016040519081016040528092919081815260200182805460018160011615610100020316600290048015620008a15780601f106200087557610100808354040283529160200191620008a1565b820191906000526020600020905b8154815290600101906020018083116200088357829003601f168201915b50505050600283015460038401546004909401549293909260ff821692506101009091046001600160a01b03169086565b6008805460408051602060026001851615610100026000190190941693909304601f810184900484028201840190925281815292918301828280156200095c5780601f1062000930576101008083540402835291602001916200095c565b820191906000526020600020905b8154815290600101906020018083116200093e57829003601f168201915b505050505081565b600a545b90565b6000600a80549050600683815481106200098157fe5b90600052602060002090600502016001013360068581548110620009a157fe5b906000526020600020906005020160020154600760009054906101000a90046001600160a01b031630604051620009d89062001a0a565b8681526001600160a01b038086166040830152606082018590528381166080830152821660a082015260c0602082018181528754600260001961010060018416150201909116049183018290529060e08301908890801562000a7e5780601f1062000a525761010080835404028352916020019162000a7e565b820191906000526020600020905b81548152906001019060200180831162000a6057829003601f168201915b5050975050505050505050604051809103906000f08015801562000aa6573d6000803e3d6000fd5b50600a805460018101825560009182527fc65a7bb8d6351c1cf70c95a316cc6a92839c986682d98bc35f958f4883f9d2a80180546001600160a01b0319166001600160a01b0384161790556040519192507f882e77917ea2af100008ff777e1693a7fe22d06b0a7ffaddc50f9d8ef3a9231491a15050565b62000b293362001619565b62000b3357600080fd5b62000b3e8162001647565b50565b60065490565b62000b523362001619565b62000b5c57600080fd5b62000b6662001a18565b600654808252602080830185905260408084018590526000606085018190523360808601524260a086015281519384529183019190915280517f2da08c9afbca94a7781f242bd0193bf9a13ebd681b7fead14822408e3fbe78e99281900390910190a16006805460018101808355600092909252825160059091027ff652222313e28459528d920b65115c16c04f3efc82aaedc97be59f3f377c0d3f8101918255602080850151805186949362000c44937ff652222313e28459528d920b65115c16c04f3efc82aaedc97be59f3f377c0d4090910192019062001a5a565b506040820151816002015560608201518160030160006101000a81548160ff0219169083600281111562000c7457fe5b021790555060808201516003820180546001600160a01b0390921661010002610100600160a81b031990921691909117905560a090910151600490910155508051604082015162000cc6919062000d72565b505050565b62093a8081565b62000cdd3362001220565b62000ce757600080fd5b6004546001600160a01b031662000cfd57600080fd5b6004805460408051600160e01b63bd041c4d02815233938101939093528315156024840152516001600160a01b039091169163bd041c4d91604480830192600092919082900301818387803b15801562000d5657600080fd5b505af115801562000d6b573d6000803e3d6000fd5b5050505050565b62000d7d3362001220565b62000d8757600080fd5b6004546001600160a01b0316158062000e1057506004805460408051600160e01b63b3f05b9702815290516001600160a01b039092169263b3f05b97928282019260209290829003018186803b15801562000de157600080fd5b505afa15801562000df6573d6000803e3d6000fd5b505050506040513d602081101562000e0d57600080fd5b50515b62000e1a57600080fd5b600354600554604051429262093a80840192869286926001600160a01b0316918691869190309062000e4c9062001adf565b96875260208701959095526001600160a01b039384166040808801919091526060870193909352608086019190915260a0850152911660c0830152519081900360e001906000f08015801562000ea6573d6000803e3d6000fd5b50600480546001600160a01b0319166001600160a01b0392909216919091179055604080518581526020810185905281517f9bd49e167f8ad588627e6f5b6a02b84c5a6ee245ce327afa99ade561bcbc284d929181900390910190a150505050565b6002602052816000526040600020818154811062000f2257fe5b90600052602060002001600091509150505481565b6004546001600160a01b03163314801562000fc257506004805460408051600160e01b63b3f05b9702815290516001600160a01b039092169263b3f05b97928282019260209290829003018186803b15801562000f9357600080fd5b505afa15801562000fa8573d6000803e3d6000fd5b505050506040513d602081101562000fbf57600080fd5b50515b62000fcc57600080fd5b811562000fdf5762000fdf838262001691565b62001066600460009054906101000a90046001600160a01b03166001600160a01b0316632c24909c6040518163ffffffff1660e01b815260040160206040518083038186803b1580156200103257600080fd5b505afa15801562001047573d6000803e3d6000fd5b505050506040513d60208110156200105e57600080fd5b505162001803565b60408051848152831515602082015281517f118384964387422ef394126dcae83b6fc97ee2a5c14d8729ebc59cc3d1ce3f44929181900390910190a15050600480546001600160a01b031916905550565b620010c23362001619565b620010cc57600080fd5b600a8281548110620010da57fe5b600091825260208220015460408051600160e01b63bd041c4d028152336004820152841515602482015290516001600160a01b039092169263bd041c4d9260448084019382900301818387803b1580156200113457600080fd5b505af115801562001149573d6000803e3d6000fd5b505050505050565b6004546001600160a01b031681565b60408051838152821515602082015281517fb07b6a4d3da57c26eeed54737d6979b2a65101898160f7eb26d9e58626a70c14929181900390910190a15050565b620011ab3362001619565b620011b557600080fd5b600a8181548110620011c357fe5b600091825260208220015460408051600160e01b630519bac302815233600482015290516001600160a01b0390921692630519bac39260248084019382900301818387803b15801562000d5657600080fd5b60055481565b600a81565b60006200123560018363ffffffff6200183616565b92915050565b60075460408051600160e01b63a9059cbb0281526001600160a01b038781166004830152602482018790529151919092169163a9059cbb9160448083019260209291908290030181600087803b1580156200129557600080fd5b505af1158015620012aa573d6000803e3d6000fd5b505050506040513d6020811015620012c157600080fd5b5050604080518481526020810184905280820183905290516001600160a01b038616917f75e161b3e824b114fc1a33274bd7091918dd4e639cede50b78b15a4eea956a21919081900360600190a250505050565b60075460408051600160e01b6370a0823102815233600482015290516000926001600160a01b0316916370a08231916024808301926020929190829003018186803b1580156200136457600080fd5b505afa15801562001379573d6000803e3d6000fd5b505050506040513d60208110156200139057600080fd5b5051116200139d57600080fd5b60008111620013ab57600080fd5b60075460408051600160e11b63098157e10281523360048201523060248201526044810184905290516001600160a01b0390921691631302afc2916064808201926020929091908290030181600087803b1580156200140957600080fd5b505af11580156200141e573d6000803e3d6000fd5b505050506040513d60208110156200143557600080fd5b505060075460408051600160e11b633166b8710281523360048201523060248201526044810184905290516001600160a01b03909216916362cd70e2916064808201926020929091908290030181600087803b1580156200149557600080fd5b505af1158015620014aa573d6000803e3d6000fd5b505050506040513d6020811015620014c157600080fd5b505060408051828152426020820152815133927f73a19dd210f1a7f902193214c0ee91dd35ee5b4d920cba8d519eca65a7b488ca928290030190a250565b6200150a336200186c565b565b620015173362001220565b6200152157600080fd5b6004546001600160a01b03166200153757600080fd5b6004805460408051600160e01b630519bac30281523393810193909352516001600160a01b0390911691630519bac391602480830192600092919082900301818387803b1580156200158857600080fd5b505af11580156200159d573d6000803e3d6000fd5b50505050565b620015ae3362001220565b620015b857600080fd5b62000b3e81620018b6565b620015ce3362001619565b620015d857600080fd5b8051620015ed90600890602084019062001a5a565b5050565b600a8181548110620015ff57fe5b6000918252602090912001546001600160a01b0316905081565b600062001235818363ffffffff6200183616565b6200150a3362001900565b6007546001600160a01b031681565b6200165a60008263ffffffff6200194a16565b6040516001600160a01b038216907f3b4a40cccf2058c593542587329dd385be4f0b588db5471fbd9598e56dd7093a90600090a250565b600060068381548110620016a157fe5b600091825260209091206003600590920201015460ff166002811115620016c457fe5b1480620017015750600260068381548110620016dc57fe5b600091825260209091206003600590920201015460ff166002811115620016ff57fe5b145b6200170b57600080fd5b80600683815481106200171a57fe5b9060005260206000209060050201600201819055506001600683815481106200173f57fe5b60009182526020909120600360059092020101805460ff191660018360028111156200176757fe5b02179055507f2da08c9afbca94a7781f242bd0193bf9a13ebd681b7fead14822408e3fbe78e9600683815481106200179b57fe5b90600052602060002090600502016000015460068481548110620017bb57fe5b60009182526020918290206003600590920201015460405183815260ff909116918101826002811115620017eb57fe5b60ff1681526020019250505060405180910390a15050565b60006200181882600263ffffffff6200199a16565b9050600a811115620018305750600a60055562000b3e565b60055550565b60006001600160a01b0382166200184c57600080fd5b506001600160a01b03166000908152602091909152604090205460ff1690565b6200187f60018263ffffffff620019be16565b6040516001600160a01b038216907f6e76fb4c77256006d9c38ec7d82b45a8c8f3c27b1d6766fffc42dfb8de68449290600090a250565b620018c960018263ffffffff6200194a16565b6040516001600160a01b038216907fb251eb052afc73ffd02ffe85ad79990a8b3fed60d76dbc2fa2fdd7123dffd91490600090a250565b6200191360008263ffffffff620019be16565b6040516001600160a01b038216907fef69f7d97228658c92417be1b16b19058315de71fecb435d07b7d23728b6bd3190600090a250565b6001600160a01b0381166200195e57600080fd5b6200196a828262001836565b156200197557600080fd5b6001600160a01b0316600090815260209190915260409020805460ff19166001179055565b6000808211620019a957600080fd5b6000828481620019b557fe5b04949350505050565b6001600160a01b038116620019d257600080fd5b620019de828262001836565b620019e857600080fd5b6001600160a01b0316600090815260209190915260409020805460ff19169055565b6111068062001b0b83390190565b6040518060c001604052806000815260200160608152602001600081526020016000600281111562001a4657fe5b815260006020820181905260409091015290565b828054600181600116156101000203166002900490600052602060002090601f016020900481019282601f1062001a9d57805160ff191683800117855562001acd565b8280016001018555821562001acd579182015b8281111562001acd57825182559160200191906001019062001ab0565b5062001adb92915062001aed565b5090565b61093b8062002c1183390190565b6200096891905b8082111562001adb576000815560010162001af456fe60806040526000600555600060065560006007553480156200002057600080fd5b506040516200110638038062001106833981018060405260c08110156200004657600080fd5b8151602083018051919392830192916401000000008111156200006857600080fd5b820160208101848111156200007c57600080fd5b81516401000000008111828201871017156200009757600080fd5b5050602082015160408301516060840151608090940151929550909350919081814262093a80810160006001600160a01b038516620000d557600080fd5b428310158015620000e557508282115b620000ef57600080fd5b600080546001600160a01b039687166001600160a01b03199182161790915560018054959096169416939093179093556002556003919091556008805460ff199081169091556004805492151592909116919091179055620001583362000205602090811b901c565b62000169336200025760201b60201c565b6200017357600080fd5b600b86905584516200018d90600c90602088019062000306565b50600d80546001600160a01b0319166001600160a01b038616179055600e839055600f805460ff1916905542601055600b54604080519182526000602083015280517f90ab42752b8b3a3e8bcb9cba7d57f5bf87db421f9885bb1c203f08d0ef199c209281900390910190a1505050505050620003ab565b6200022081600a6200027a60201b62000cd31790919060201c565b6040516001600160a01b038216907fb251eb052afc73ffd02ffe85ad79990a8b3fed60d76dbc2fa2fdd7123dffd91490600090a250565b60006200027482600a620002d060201b62000b0a1790919060201c565b92915050565b6001600160a01b0381166200028e57600080fd5b620002a08282620002d060201b60201c565b15620002ab57600080fd5b6001600160a01b0316600090815260209190915260409020805460ff19166001179055565b60006001600160a01b038216620002e657600080fd5b506001600160a01b03166000908152602091909152604090205460ff1690565b828054600181600116156101000203166002900490600052602060002090601f016020900481019282601f106200034957805160ff191683800117855562000379565b8280016001018555821562000379579182015b82811115620003795782518255916020019190600101906200035c565b50620003879291506200038b565b5090565b620003a891905b8082111562000387576000815560010162000392565b90565b610d4b80620003bb6000396000f3fe608060405234801561001057600080fd5b50600436106101a95760003560e01c806380322cbd116100f9578063b3f05b9711610097578063c19d93fb11610071578063c19d93fb146103e3578063ca6d56dc1461040f578063d74689e414610435578063fc0c546a1461043d576101a9565b8063b3f05b97146103a5578063bad5ba01146103ad578063bd041c4d146103b5576101a9565b8063a7491b48116100d3578063a7491b4814610347578063aa8c217c1461038d578063af640d0f14610395578063b3a2273f1461039d576101a9565b806380322cbd14610311578063a1d1936114610319578063a230c52414610321576101a9565b806338af3eed116101665780635c134d66116101405780635c134d661461025857806364a90292146102845780636beb79591461028c57806378e9792514610309576101a9565b806338af3eed146102405780633ccfd60b1461024857806341fdade614610250576101a9565b80630519bac3146101ae57806316f0115b146101d657806328d21990146101fa5780633197cbb614610214578063325a19f11461021c5780633618102614610224575b600080fd5b6101d4600480360360208110156101c457600080fd5b50356001600160a01b0316610445565b005b6101de610511565b604080516001600160a01b039092168252519081900360200190f35b610202610520565b60408051918252519081900360200190f35b610202610527565b61020261052d565b61022c610533565b604080519115158252519081900360200190f35b6101de61057c565b6101d461058b565b6102026106df565b6102026004803603604081101561026e57600080fd5b506001600160a01b0381351690602001356106e5565b610202610713565b610294610719565b6040805160208082528351818301528351919283929083019185019080838360005b838110156102ce5781810151838201526020016102b6565b50505050905090810190601f1680156102fb5780820380516001836020036101000a031916815260200191505b509250505060405180910390f35b6102026107a7565b61022c6107ad565b61022c6107bc565b61022c6004803603602081101561033757600080fd5b50356001600160a01b03166107d7565b61036d6004803603602081101561035d57600080fd5b50356001600160a01b03166107f0565b604080519384526020840192909252151582820152519081900360600190f35b610202610814565b61020261081a565b610202610820565b61022c610826565b6101d461082f565b6101d4600480360360408110156103cb57600080fd5b506001600160a01b038135169060200135151561083a565b6103eb610a2b565b604051808260028111156103fb57fe5b60ff16815260200191505060405180910390f35b6101d46004803603602081101561042557600080fd5b50356001600160a01b0316610a34565b610202610a52565b6101de610a58565b600254421015801561045957506003544211155b61046257600080fd5b6001600160a01b03811660009081526009602052604090205461048457600080fd5b6001600160a01b038116600090815260096020526040812060018082018054600284018054948690559490915560ff19831690935560075460ff909216916104d19163ffffffff610a6716565b60075580156104f5576005546104ed908363ffffffff610a6716565b60055561050c565b600654610508908363ffffffff610a6716565b6006555b505050565b6001546001600160a01b031681565b62093a8081565b60035481565b60105481565b60085460009060ff161561054657600080fd5b60035442101561055857506000610579565b6008805460ff19166001179055610575610570610a7c565b610a86565b5060015b90565b600d546001600160a01b031681565b6000805460015460408051600160e01b6370a082310281526001600160a01b039283166004820152905191909216916370a08231916024808301926020929190829003018186803b1580156105df57600080fd5b505afa1580156105f3573d6000803e3d6000fd5b505050506040513d602081101561060957600080fd5b505190506106156107bc565b61061e57600080fd5b600d546001600160a01b0316331461063557600080fd5b6000600e541161064457600080fd5b600e5481101561065357600080fd5b600154600d54600e54600b5460105460408051600160e11b635a35907f0281526001600160a01b03958616600482015260248101949094526044840192909252606483015251919092169163b46b20fe91608480830192600092919082900301818387803b1580156106c457600080fd5b505af11580156106d8573d6000803e3d6000fd5b5050505050565b6103e881565b601160205281600052604060002081815481106106fe57fe5b90600052602060002001600091509150505481565b60065481565b600c805460408051602060026001851615610100026000190190941693909304601f8101849004840282018401909252818152929183018282801561079f5780601f106107745761010080835404028352916020019161079f565b820191906000526020600020905b81548152906001019060200180831161078257829003601f168201915b505050505081565b60025481565b60006107b7610a7c565b905090565b60006001600f5460ff1660028111156107d157fe5b14905090565b60006107ea600a8363ffffffff610b0a16565b92915050565b60096020526000908152604090208054600182015460029092015490919060ff1683565b600e5481565b600b5481565b60075481565b60085460ff1681565b61083833610b3f565b565b600254421015801561084e57506003544211155b61085757600080fd5b6001600160a01b03821661086a57600080fd5b6001600160a01b0382166000908152600960205260409020541561088d57600080fd5b6000805460408051600160e01b6370a082310281526001600160a01b038681166004830152915191909216916370a08231916024808301926020929190829003018186803b1580156108de57600080fd5b505afa1580156108f2573d6000803e3d6000fd5b505050506040513d602081101561090857600080fd5b50516000805460408051600160e01b6318160ddd02815290519394509192610996926103e8926001600160a01b0316916318160ddd91600480820192602092909190829003018186803b15801561095e57600080fd5b505afa158015610972573d6000803e3d6000fd5b505050506040513d602081101561098857600080fd5b50519063ffffffff610b8716565b9050808211156109a657806109a8565b815b915082156109cb576005546109c3908363ffffffff610ba916565b6005556109e2565b6006546109de908363ffffffff610ba916565b6006555b6001600160a01b038416600090815260096020526040902042815560018082018490556002909101805460ff1916851515179055600754610a2291610ba9565b60075550505050565b600f5460ff1681565b610a3d336107d7565b610a4657600080fd5b610a4f81610bc2565b50565b60055481565b6000546001600160a01b031681565b600082821115610a7657600080fd5b50900390565b6006546005541190565b808015610a95575060085460ff165b15610aa757610aa2610c0a565b610aaf565b610aaf610c77565b600154600b5460408051600160e01b637370407d02815260048101929092528315156024830152516001600160a01b0390921691637370407d9160448082019260009290919082900301818387803b1580156106c457600080fd5b60006001600160a01b038216610b1f57600080fd5b506001600160a01b03166000908152602091909152604090205460ff1690565b610b50600a8263ffffffff610c8b16565b6040516001600160a01b038216907f6e76fb4c77256006d9c38ec7d82b45a8c8f3c27b1d6766fffc42dfb8de68449290600090a250565b6000808211610b9557600080fd5b6000828481610ba057fe5b04949350505050565b600082820183811015610bbb57600080fd5b9392505050565b610bd3600a8263ffffffff610cd316565b6040516001600160a01b038216907fb251eb052afc73ffd02ffe85ad79990a8b3fed60d76dbc2fa2fdd7123dffd91490600090a250565b600f80546001919060ff191682805b0217905550600b54600f546040518281527f90ab42752b8b3a3e8bcb9cba7d57f5bf87db421f9885bb1c203f08d0ef199c20929160ff169060208101826002811115610c6157fe5b60ff1681526020019250505060405180910390a1565b600f80546002919060ff1916600183610c19565b6001600160a01b038116610c9e57600080fd5b610ca88282610b0a565b610cb157600080fd5b6001600160a01b0316600090815260209190915260409020805460ff19169055565b6001600160a01b038116610ce657600080fd5b610cf08282610b0a565b15610cfa57600080fd5b6001600160a01b0316600090815260209190915260409020805460ff1916600117905556fea165627a7a72305820c913b97e71d6088fe09871c46936559924431d12c87e79a48bbce77c014937cc002960806040526000600555600060065560006007556000600a5534801561002457600080fd5b5060405160e08061093b833981018060405260e081101561004457600080fd5b508051602082015160408301516060840151608085015160a086015160c09096015194959394929391929091908481858560006001600160a01b03851661008a57600080fd5b42831015801561009957508282115b6100a257600080fd5b600080546001600160a01b03199081166001600160a01b03978816178255600180548216968816969096179095556002939093556003919091556008805460ff1990811690915560048054909116911515919091179055600b99909955600a93909355600c96909655600d80549092169516949094179093555061080d9283925061012e9150396000f3fe608060405234801561001057600080fd5b50600436106101165760003560e01c806378e97925116100a2578063b3a2273f11610071578063b3a2273f14610223578063b3f05b971461022b578063bd041c4d14610233578063d74689e414610261578063fc0c546a1461026957610116565b806378e97925146101c557806380322cbd146101cd578063a7491b48146101d5578063af640d0f1461021b57610116565b806336181026116100e9578063361810261461018957806341fdade6146101a55780634e9e8e73146101ad57806364a90292146101b55780636f6a9762146101bd57610116565b80630519bac31461011b57806316f0115b146101435780632c24909c146101675780633197cbb614610181575b600080fd5b6101416004803603602081101561013157600080fd5b50356001600160a01b0316610271565b005b61014b61033d565b604080516001600160a01b039092168252519081900360200190f35b61016f61034c565b60408051918252519081900360200190f35b61016f610408565b61019161040e565b604080519115158252519081900360200190f35b61016f610456565b61016f61045c565b61016f610462565b61016f610468565b61016f61046e565b610191610474565b6101fb600480360360208110156101eb57600080fd5b50356001600160a01b0316610483565b604080519384526020840192909252151582820152519081900360600190f35b61016f6104a7565b61016f6104ad565b6101916104b3565b6101416004803603604081101561024957600080fd5b506001600160a01b03813516906020013515156104bc565b61016f6106ad565b61014b6106b3565b600254421015801561028557506003544211155b61028e57600080fd5b6001600160a01b0381166000908152600960205260409020546102b057600080fd5b6001600160a01b038116600090815260096020526040812060018082018054600284018054948690559490915560ff19831690935560075460ff909216916102fd9163ffffffff6106c216565b600755801561032157600554610319908363ffffffff6106c216565b600555610338565b600654610334908363ffffffff6106c216565b6006555b505050565b600d546001600160a01b031681565b6000806103666006546005546106dc90919063ffffffff16565b90506104016000809054906101000a90046001600160a01b03166001600160a01b03166318160ddd6040518163ffffffff1660e01b815260040160206040518083038186803b1580156103b857600080fd5b505afa1580156103cc573d6000803e3d6000fd5b505050506040513d60208110156103e257600080fd5b50516103f583606463ffffffff6106f516565b9063ffffffff61071c16565b9150505b90565b60035481565b60085460009060ff161561042157600080fd5b60035442101561043357506000610405565b6008805460ff1916600117905561045061044b61073e565b610760565b50600190565b6103e881565b600c5481565b60065481565b600a5481565b60025481565b600061047e61073e565b905090565b60096020526000908152604090208054600182015460029092015490919060ff1683565b600b5481565b60075481565b60085460ff1681565b60025442101580156104d057506003544211155b6104d957600080fd5b6001600160a01b0382166104ec57600080fd5b6001600160a01b0382166000908152600960205260409020541561050f57600080fd5b6000805460408051600160e01b6370a082310281526001600160a01b038681166004830152915191909216916370a08231916024808301926020929190829003018186803b15801561056057600080fd5b505afa158015610574573d6000803e3d6000fd5b505050506040513d602081101561058a57600080fd5b50516000805460408051600160e01b6318160ddd02815290519394509192610618926103e8926001600160a01b0316916318160ddd91600480820192602092909190829003018186803b1580156105e057600080fd5b505afa1580156105f4573d6000803e3d6000fd5b505050506040513d602081101561060a57600080fd5b50519063ffffffff61071c16565b905080821115610628578061062a565b815b9150821561064d57600554610645908363ffffffff6106dc16565b600555610664565b600654610660908363ffffffff6106dc16565b6006555b6001600160a01b038416600090815260096020526040902042815560018082018490556002909101805460ff19168515151790556007546106a4916106dc565b60075550505050565b60055481565b6000546001600160a01b031681565b6000828211156106d157600080fd5b508082035b92915050565b6000828201838110156106ee57600080fd5b9392505050565b600082610704575060006106d6565b8282028284828161071157fe5b04146106ee57600080fd5b600080821161072a57600080fd5b600082848161073557fe5b04949350505050565b600060065460055411801561047e5750600a5461075961034c565b1015905090565b600d54600b54600c5460408051600160e01b63607ca15b028152600481019390935284151560248401526044830191909152516001600160a01b039092169163607ca15b9160648082019260009290919082900301818387803b1580156107c657600080fd5b505af11580156107da573d6000803e3d6000fd5b505050505056fea165627a7a7230582061ddb6cb4d0d954ba96708092c8843df543acab4b3d5b2cc3ef9edfe885e22c40029a165627a7a72305820c6033fb747c6166e861dacc2e626cd7a3b846b627b6767197afffac2ec97b8a70029",
  "source": "pragma solidity ^0.5.0;\n\nimport './reward/Reward.sol';\nimport './rule/Rules.sol';\nimport './THXToken.sol';\n\ncontract RewardPool is Rules {\n\n    event Deposited(address indexed sender, uint256 amount, uint256 created);\n    event Withdrawn(address indexed beneficiary, uint256 amount, uint256 id, uint256 created);\n\n    event RewardPollCreated();\n    event RewardPollFinished(uint256 id, bool approved);\n\n    THXToken public token;\n    string public name;\n    address public creator;\n\n    Reward[] public rewards;\n\n    constructor(\n        string memory _name,\n        address _tokenAddress\n    ) public\n        Rules(_tokenAddress)\n    {\n        name = _name;\n        token = THXToken(_tokenAddress);\n        creator = msg.sender;\n    }\n\n    /**\n    * @dev Updates the pool name set initially through the constructor.\n    * @param value The new pool name.\n    */\n    function updatePoolName(string memory value) public onlyManager {\n        name = value;\n    }\n\n    /**\n    * @dev Stores the sent amount as tokens in the Reward Pool.\n    * @param amount The amount the sender deposited.\n    */\n    function deposit(uint256 amount) public {\n        require(token.balanceOf(msg.sender) > 0);\n        require(amount > 0);\n\n        // Approve the token transaction.\n        token.approveDeposit(msg.sender, address(this), amount);\n\n        // Transfer the tokens from the sender to the pool\n        token.transferDeposit(msg.sender, address(this), amount);\n\n        emit Deposited(msg.sender, amount, now);\n    }\n\n    /**\n    * @dev Counts the amount of rewards.\n    */\n    function countRewards() public view returns (uint256) {\n        return rewards.length;\n    }\n\n    /**\n    * @dev Creates the suggested reward.\n    * @param id Reference to the rule\n    */\n    function createReward(uint256 id) public {\n        Reward reward = new Reward(rewards.length, rules[id].slug, msg.sender, rules[id].amount, address(token), address(this));\n        rewards.push(reward);\n\n        emit RewardPollCreated();\n    }\n\n    /**\n    * @dev Vote for the suggested reward.\n    * @param id Referenced Reward\n    * @param agree Approve or reject reward.\n    */\n    function voteForReward(uint256 id, bool agree) public onlyManager {\n        rewards[id].vote(msg.sender, agree);\n    }\n\n    /**\n    * @dev Vote for the suggested reward.\n    * @param id Reference to thte reward\n    */\n    function revokeVoteForReward(uint256 id) public onlyManager {\n        rewards[id].revokeVote(msg.sender);\n    }\n\n    /**\n    * @dev Called when poll is finished\n    * @param agree Bool for checking the result of the poll.\n    */\n    function onRewardPollFinish(uint256 id, bool agree) external {\n        emit RewardPollFinished(id, agree);\n    }\n\n    /**\n    * @dev callback called after reward is withdrawn\n    */\n    function onWithdrawel(address beneficiary, uint256 amount, uint256 id, uint256 created) external {\n        token.transfer(beneficiary, amount);\n\n        emit Withdrawn(beneficiary, amount, id, created);\n    }\n\n}\n",
  "sourcePath": "/Users/peterpolman/Sites/thx_client/contracts/RewardPool.sol",
  "compiler": {
    "name": "solc",
    "version": "0.5.8+commit.23d335f2.Emscripten.clang"
  },
  "schemaVersion": "3.0.12",
  "updatedAt": "2019-08-20T06:58:34.636Z",
  "devdoc": {
    "methods": {
      "countRewards()": {
        "details": "Counts the amount of rewards."
      },
      "countRules()": {
        "details": "Counts the amount of rules."
      },
      "createReward(uint256)": {
        "details": "Creates the suggested reward.",
        "params": {
          "id": "Reference to the rule"
        }
      },
      "createRule(string,uint256)": {
        "details": "Creates the initial reward rule.",
        "params": {
          "amount": "Reward size suggested for the beneficiary.",
          "slug": "Short readable description of rule."
        }
      },
      "deposit(uint256)": {
        "details": "Stores the sent amount as tokens in the Reward Pool.",
        "params": {
          "amount": "The amount the sender deposited."
        }
      },
      "onRewardPollFinish(uint256,bool)": {
        "details": "Called when poll is finished",
        "params": {
          "agree": "Bool for checking the result of the poll."
        }
      },
      "onRulePollFinish(uint256,bool,uint256)": {
        "details": "Called when poll is finished",
        "params": {
          "agree": "Bool for checking the result of the poll.",
          "id": "Referenced reward rule",
          "proposedAmount": "The proposed reward size."
        }
      },
      "onWithdrawel(address,uint256,uint256,uint256)": {
        "details": "callback called after reward is withdrawn"
      },
      "revokeVoteForReward(uint256)": {
        "details": "Vote for the suggested reward.",
        "params": {
          "id": "Reference to thte reward"
        }
      },
      "revokeVoteForRule()": {
        "details": "Vote for the suggested rule."
      },
      "startRulePoll(uint256,uint256)": {
        "details": "Starts the rule poll for chaning the amount."
      },
      "updatePoolName(string)": {
        "details": "Updates the pool name set initially through the constructor.",
        "params": {
          "value": "The new pool name."
        }
      },
      "voteForReward(uint256,bool)": {
        "details": "Vote for the suggested reward.",
        "params": {
          "agree": "Approve or reject reward.",
          "id": "Referenced Reward"
        }
      },
      "voteForRule(bool)": {
        "details": "Vote for the suggested rule.",
        "params": {
          "agree": "Approve or reject rule."
        }
      }
    }
  },
  "userdoc": {
    "methods": {}
  }
}