{
  "contractName": "RewardPool",
  "abi": [
    {
      "constant": true,
      "inputs": [],
      "name": "creator",
      "outputs": [
        {
          "name": "",
          "type": "address"
        }
      ],
      "payable": false,
      "stateMutability": "view",
      "type": "function",
      "signature": "0x02d05d3f"
    },
    {
      "constant": true,
      "inputs": [
        {
          "name": "",
          "type": "uint256"
        }
      ],
      "name": "rules",
      "outputs": [
        {
          "name": "id",
          "type": "uint256"
        },
        {
          "name": "slug",
          "type": "string"
        },
        {
          "name": "amount",
          "type": "uint256"
        },
        {
          "name": "state",
          "type": "uint8"
        },
        {
          "name": "poll",
          "type": "address"
        },
        {
          "name": "creator",
          "type": "address"
        },
        {
          "name": "created",
          "type": "uint256"
        }
      ],
      "payable": false,
      "stateMutability": "view",
      "type": "function",
      "signature": "0x04d6ded4"
    },
    {
      "constant": true,
      "inputs": [],
      "name": "name",
      "outputs": [
        {
          "name": "",
          "type": "string"
        }
      ],
      "payable": false,
      "stateMutability": "view",
      "type": "function",
      "signature": "0x06fdde03"
    },
    {
      "constant": false,
      "inputs": [
        {
          "name": "slug",
          "type": "string"
        }
      ],
      "name": "createRule",
      "outputs": [],
      "payable": false,
      "stateMutability": "nonpayable",
      "type": "function",
      "signature": "0x21a21929"
    },
    {
      "constant": false,
      "inputs": [
        {
          "name": "account",
          "type": "address"
        }
      ],
      "name": "addManager",
      "outputs": [],
      "payable": false,
      "stateMutability": "nonpayable",
      "type": "function",
      "signature": "0x2d06177a"
    },
    {
      "constant": true,
      "inputs": [],
      "name": "countRules",
      "outputs": [
        {
          "name": "",
          "type": "uint256"
        }
      ],
      "payable": false,
      "stateMutability": "view",
      "type": "function",
      "signature": "0x31c54032"
    },
    {
      "constant": true,
      "inputs": [],
      "name": "RULE_POLL_DURATION",
      "outputs": [
        {
          "name": "",
          "type": "uint256"
        }
      ],
      "payable": false,
      "stateMutability": "view",
      "type": "function",
      "signature": "0x439c6f17"
    },
    {
      "constant": true,
      "inputs": [
        {
          "name": "",
          "type": "address"
        },
        {
          "name": "",
          "type": "uint256"
        }
      ],
      "name": "withdrawels",
      "outputs": [
        {
          "name": "amount",
          "type": "uint256"
        },
        {
          "name": "receiver",
          "type": "address"
        },
        {
          "name": "created",
          "type": "uint256"
        }
      ],
      "payable": false,
      "stateMutability": "view",
      "type": "function",
      "signature": "0x505e4b4a"
    },
    {
      "constant": false,
      "inputs": [
        {
          "name": "id",
          "type": "uint256"
        },
        {
          "name": "proposedAmount",
          "type": "uint256"
        }
      ],
      "name": "startRulePoll",
      "outputs": [],
      "payable": false,
      "stateMutability": "nonpayable",
      "type": "function",
      "signature": "0x563b373d"
    },
    {
      "constant": false,
      "inputs": [
        {
          "name": "id",
          "type": "uint256"
        },
        {
          "name": "agree",
          "type": "bool"
        },
        {
          "name": "proposedAmount",
          "type": "uint256"
        }
      ],
      "name": "onRulePollFinish",
      "outputs": [],
      "payable": false,
      "stateMutability": "nonpayable",
      "type": "function",
      "signature": "0x607ca15b"
    },
    {
      "constant": true,
      "inputs": [],
      "name": "minVotedTokensPerc",
      "outputs": [
        {
          "name": "",
          "type": "uint256"
        }
      ],
      "payable": false,
      "stateMutability": "view",
      "type": "function",
      "signature": "0x84219204"
    },
    {
      "constant": true,
      "inputs": [],
      "name": "MAX_VOTED_TOKEN_PERC",
      "outputs": [
        {
          "name": "",
          "type": "uint256"
        }
      ],
      "payable": false,
      "stateMutability": "view",
      "type": "function",
      "signature": "0x962c9c8d"
    },
    {
      "constant": true,
      "inputs": [
        {
          "name": "account",
          "type": "address"
        }
      ],
      "name": "isMember",
      "outputs": [
        {
          "name": "",
          "type": "bool"
        }
      ],
      "payable": false,
      "stateMutability": "view",
      "type": "function",
      "signature": "0xa230c524"
    },
    {
      "constant": false,
      "inputs": [
        {
          "name": "id",
          "type": "uint256"
        }
      ],
      "name": "revokeVoteForRule",
      "outputs": [],
      "payable": false,
      "stateMutability": "nonpayable",
      "type": "function",
      "signature": "0xb8771a34"
    },
    {
      "constant": false,
      "inputs": [],
      "name": "renounceMember",
      "outputs": [],
      "payable": false,
      "stateMutability": "nonpayable",
      "type": "function",
      "signature": "0xbad5ba01"
    },
    {
      "constant": false,
      "inputs": [
        {
          "name": "account",
          "type": "address"
        }
      ],
      "name": "addMember",
      "outputs": [],
      "payable": false,
      "stateMutability": "nonpayable",
      "type": "function",
      "signature": "0xca6d56dc"
    },
    {
      "constant": true,
      "inputs": [
        {
          "name": "",
          "type": "address"
        },
        {
          "name": "",
          "type": "uint256"
        }
      ],
      "name": "deposits",
      "outputs": [
        {
          "name": "amount",
          "type": "uint256"
        },
        {
          "name": "sender",
          "type": "address"
        },
        {
          "name": "created",
          "type": "uint256"
        }
      ],
      "payable": false,
      "stateMutability": "view",
      "type": "function",
      "signature": "0xd6d68177"
    },
    {
      "constant": false,
      "inputs": [
        {
          "name": "id",
          "type": "uint256"
        },
        {
          "name": "agree",
          "type": "bool"
        }
      ],
      "name": "voteForRule",
      "outputs": [],
      "payable": false,
      "stateMutability": "nonpayable",
      "type": "function",
      "signature": "0xe213cf0f"
    },
    {
      "constant": true,
      "inputs": [
        {
          "name": "",
          "type": "uint256"
        }
      ],
      "name": "rewards",
      "outputs": [
        {
          "name": "",
          "type": "address"
        }
      ],
      "payable": false,
      "stateMutability": "view",
      "type": "function",
      "signature": "0xf301af42"
    },
    {
      "constant": true,
      "inputs": [
        {
          "name": "account",
          "type": "address"
        }
      ],
      "name": "isManager",
      "outputs": [
        {
          "name": "",
          "type": "bool"
        }
      ],
      "payable": false,
      "stateMutability": "view",
      "type": "function",
      "signature": "0xf3ae2415"
    },
    {
      "constant": false,
      "inputs": [],
      "name": "renounceManager",
      "outputs": [],
      "payable": false,
      "stateMutability": "nonpayable",
      "type": "function",
      "signature": "0xf8b91abe"
    },
    {
      "constant": true,
      "inputs": [],
      "name": "token",
      "outputs": [
        {
          "name": "",
          "type": "address"
        }
      ],
      "payable": false,
      "stateMutability": "view",
      "type": "function",
      "signature": "0xfc0c546a"
    },
    {
      "inputs": [
        {
          "name": "_name",
          "type": "string"
        },
        {
          "name": "_tokenAddress",
          "type": "address"
        }
      ],
      "payable": false,
      "stateMutability": "nonpayable",
      "type": "constructor",
      "signature": "constructor"
    },
    {
      "anonymous": false,
      "inputs": [
        {
          "indexed": true,
          "name": "sender",
          "type": "address"
        },
        {
          "indexed": false,
          "name": "amount",
          "type": "uint256"
        },
        {
          "indexed": false,
          "name": "created",
          "type": "uint256"
        }
      ],
      "name": "Deposited",
      "type": "event",
      "signature": "0x73a19dd210f1a7f902193214c0ee91dd35ee5b4d920cba8d519eca65a7b488ca"
    },
    {
      "anonymous": false,
      "inputs": [
        {
          "indexed": true,
          "name": "receiver",
          "type": "address"
        },
        {
          "indexed": false,
          "name": "amount",
          "type": "uint256"
        },
        {
          "indexed": false,
          "name": "created",
          "type": "uint256"
        }
      ],
      "name": "Withdrawn",
      "type": "event",
      "signature": "0x92ccf450a286a957af52509bc1c9939d1a6a481783e142e41e2499f0bb66ebc6"
    },
    {
      "anonymous": false,
      "inputs": [],
      "name": "RewardPollCreated",
      "type": "event",
      "signature": "0x882e77917ea2af100008ff777e1693a7fe22d06b0a7ffaddc50f9d8ef3a92314"
    },
    {
      "anonymous": false,
      "inputs": [
        {
          "indexed": false,
          "name": "id",
          "type": "uint256"
        },
        {
          "indexed": false,
          "name": "approved",
          "type": "bool"
        }
      ],
      "name": "RewardPollFinished",
      "type": "event",
      "signature": "0xb07b6a4d3da57c26eeed54737d6979b2a65101898160f7eb26d9e58626a70c14"
    },
    {
      "anonymous": false,
      "inputs": [
        {
          "indexed": false,
          "name": "id",
          "type": "uint256"
        },
        {
          "indexed": false,
          "name": "proposedAmount",
          "type": "uint256"
        }
      ],
      "name": "RulePollCreated",
      "type": "event",
      "signature": "0x9bd49e167f8ad588627e6f5b6a02b84c5a6ee245ce327afa99ade561bcbc284d"
    },
    {
      "anonymous": false,
      "inputs": [
        {
          "indexed": false,
          "name": "id",
          "type": "uint256"
        },
        {
          "indexed": false,
          "name": "approved",
          "type": "bool"
        }
      ],
      "name": "RulePollFinished",
      "type": "event",
      "signature": "0x118384964387422ef394126dcae83b6fc97ee2a5c14d8729ebc59cc3d1ce3f44"
    },
    {
      "anonymous": false,
      "inputs": [
        {
          "indexed": false,
          "name": "id",
          "type": "uint256"
        },
        {
          "indexed": false,
          "name": "state",
          "type": "uint8"
        }
      ],
      "name": "RuleStateChanged",
      "type": "event",
      "signature": "0x2da08c9afbca94a7781f242bd0193bf9a13ebd681b7fead14822408e3fbe78e9"
    },
    {
      "anonymous": false,
      "inputs": [
        {
          "indexed": true,
          "name": "account",
          "type": "address"
        }
      ],
      "name": "MemberAdded",
      "type": "event",
      "signature": "0xb251eb052afc73ffd02ffe85ad79990a8b3fed60d76dbc2fa2fdd7123dffd914"
    },
    {
      "anonymous": false,
      "inputs": [
        {
          "indexed": true,
          "name": "account",
          "type": "address"
        }
      ],
      "name": "MemberRemoved",
      "type": "event",
      "signature": "0x6e76fb4c77256006d9c38ec7d82b45a8c8f3c27b1d6766fffc42dfb8de684492"
    },
    {
      "anonymous": false,
      "inputs": [
        {
          "indexed": true,
          "name": "account",
          "type": "address"
        }
      ],
      "name": "ManagerAdded",
      "type": "event",
      "signature": "0x3b4a40cccf2058c593542587329dd385be4f0b588db5471fbd9598e56dd7093a"
    },
    {
      "anonymous": false,
      "inputs": [
        {
          "indexed": true,
          "name": "account",
          "type": "address"
        }
      ],
      "name": "ManagerRemoved",
      "type": "event",
      "signature": "0xef69f7d97228658c92417be1b16b19058315de71fecb435d07b7d23728b6bd31"
    },
    {
      "constant": false,
      "inputs": [
        {
          "name": "value",
          "type": "string"
        }
      ],
      "name": "updatePoolName",
      "outputs": [],
      "payable": false,
      "stateMutability": "nonpayable",
      "type": "function",
      "signature": "0xf0b33435"
    },
    {
      "constant": false,
      "inputs": [
        {
          "name": "amount",
          "type": "uint256"
        }
      ],
      "name": "deposit",
      "outputs": [],
      "payable": false,
      "stateMutability": "nonpayable",
      "type": "function",
      "signature": "0xb6b55f25"
    },
    {
      "constant": true,
      "inputs": [],
      "name": "countRewards",
      "outputs": [
        {
          "name": "",
          "type": "uint256"
        }
      ],
      "payable": false,
      "stateMutability": "view",
      "type": "function",
      "signature": "0x0bd028c0"
    },
    {
      "constant": true,
      "inputs": [
        {
          "name": "sender",
          "type": "address"
        }
      ],
      "name": "countDeposits",
      "outputs": [
        {
          "name": "",
          "type": "uint256"
        }
      ],
      "payable": false,
      "stateMutability": "view",
      "type": "function",
      "signature": "0x041d2641"
    },
    {
      "constant": true,
      "inputs": [
        {
          "name": "receiver",
          "type": "address"
        }
      ],
      "name": "countWithdrawels",
      "outputs": [
        {
          "name": "",
          "type": "uint256"
        }
      ],
      "payable": false,
      "stateMutability": "view",
      "type": "function",
      "signature": "0xe51896cc"
    },
    {
      "constant": false,
      "inputs": [
        {
          "name": "id",
          "type": "uint256"
        }
      ],
      "name": "createReward",
      "outputs": [],
      "payable": false,
      "stateMutability": "nonpayable",
      "type": "function",
      "signature": "0x1a6a8199"
    },
    {
      "constant": false,
      "inputs": [
        {
          "name": "id",
          "type": "uint256"
        },
        {
          "name": "agree",
          "type": "bool"
        }
      ],
      "name": "voteForReward",
      "outputs": [],
      "payable": false,
      "stateMutability": "nonpayable",
      "type": "function",
      "signature": "0x67218195"
    },
    {
      "constant": false,
      "inputs": [
        {
          "name": "id",
          "type": "uint256"
        }
      ],
      "name": "revokeVoteForReward",
      "outputs": [],
      "payable": false,
      "stateMutability": "nonpayable",
      "type": "function",
      "signature": "0x75d74bed"
    },
    {
      "constant": false,
      "inputs": [
        {
          "name": "id",
          "type": "uint256"
        },
        {
          "name": "agree",
          "type": "bool"
        }
      ],
      "name": "onRewardPollFinish",
      "outputs": [],
      "payable": false,
      "stateMutability": "nonpayable",
      "type": "function",
      "signature": "0x7370407d"
    },
    {
      "constant": false,
      "inputs": [
        {
          "name": "receiver",
          "type": "address"
        },
        {
          "name": "amount",
          "type": "uint256"
        },
        {
          "name": "created",
          "type": "uint256"
        }
      ],
      "name": "onWithdrawel",
      "outputs": [],
      "payable": false,
      "stateMutability": "nonpayable",
      "type": "function",
      "signature": "0xc18b0180"
    }
  ],
  "bytecode": "0x608060405260006003553480156200001657600080fd5b50604051620041f4380380620041f4833981018060405260408110156200003c57600080fd5b8101908080516401000000008111156200005557600080fd5b820160208101848111156200006957600080fd5b81516401000000008111828201871017156200008457600080fd5b5050602090910151909250905080620000a63364010000000062000120810204565b620000ba3364010000000062000172810204565b60028054600160a060020a031916600160a060020a03929092169190911790558151620000ef90600690602085019062000257565b5060058054600160a060020a03909216600160a060020a0319928316179055600780549091163317905550620002fc565b6200013b60008264010000000062001f75620001c482021704565b604051600160a060020a038216907f3b4a40cccf2058c593542587329dd385be4f0b588db5471fbd9598e56dd7093a90600090a250565b6200018d60018264010000000062001f75620001c482021704565b604051600160a060020a038216907fb251eb052afc73ffd02ffe85ad79990a8b3fed60d76dbc2fa2fdd7123dffd91490600090a250565b600160a060020a0381161515620001da57600080fd5b620001ef82826401000000006200021f810204565b15620001fa57600080fd5b600160a060020a0316600090815260209190915260409020805460ff19166001179055565b6000600160a060020a03821615156200023757600080fd5b50600160a060020a03166000908152602091909152604090205460ff1690565b828054600181600116156101000203166002900490600052602060002090601f016020900481019282601f106200029a57805160ff1916838001178555620002ca565b82800160010185558215620002ca579182015b82811115620002ca578251825591602001919060010190620002ad565b50620002d8929150620002dc565b5090565b620002f991905b80821115620002d85760008155600101620002e3565b90565b613ee8806200030c6000396000f3fe6080604052600436106200019d5763ffffffff60e060020a60003504166302d05d3f8114620001a2578063041d264114620001d657806304d6ded4146200021f57806306fdde0314620003255780630bd028c014620003b55780631a6a819914620003cd57806321a2192914620003fd5780632d06177a14620004b757806331c5403214620004ee578063439c6f171462000506578063505e4b4a146200051e578063563b373d1462000581578063607ca15b14620005b55780636721819514620005f15780637370407d146200062757806375d74bed146200065d57806384219204146200068b578063962c9c8d14620006a3578063a230c52414620006bb578063b6b55f251462000706578063b8771a341462000734578063bad5ba011462000762578063c18b0180146200077a578063ca6d56dc14620007bd578063d6d6817714620007f4578063e213cf0f1462000831578063e51896cc1462000867578063f0b33435146200089e578063f301af421462000958578063f3ae24151462000986578063f8b91abe14620009bd578063fc0c546a14620009d5575b600080fd5b348015620001af57600080fd5b50620001ba620009ed565b60408051600160a060020a039092168252519081900360200190f35b348015620001e357600080fd5b506200020d60048036036020811015620001fc57600080fd5b5035600160a060020a0316620009fc565b60408051918252519081900360200190f35b3480156200022c57600080fd5b506200024d600480360360208110156200024557600080fd5b503562000a17565b60405180888152602001806020018781526020018660018111156200026e57fe5b60ff16815260200185600160a060020a0316600160a060020a0316815260200184600160a060020a0316600160a060020a03168152602001838152602001828103825288818151815260200191508051906020019080838360005b83811015620002e3578181015183820152602001620002c9565b50505050905090810190601f168015620003115780820380516001836020036101000a031916815260200191505b509850505050505050505060405180910390f35b3480156200033257600080fd5b506200033d62000b16565b6040805160208082528351818301528351919283929083019185019080838360005b83811015620003795781810151838201526020016200035f565b50505050905090810190601f168015620003a75780820380516001836020036101000a031916815260200191505b509250505060405180910390f35b348015620003c257600080fd5b506200020d62000ba8565b348015620003da57600080fd5b50620003fb60048036036020811015620003f357600080fd5b503562000baf565b005b3480156200040a57600080fd5b50620003fb600480360360208110156200042357600080fd5b8101906020810181356401000000008111156200043f57600080fd5b8201836020820111156200045257600080fd5b803590602001918460018302840111640100000000831117156200047557600080fd5b91908080601f01602080910402602001604051908101604052809392919081815260200183838082843760009201919091525092955062000d66945050505050565b348015620004c457600080fd5b50620003fb60048036036020811015620004dd57600080fd5b5035600160a060020a031662000f04565b348015620004fb57600080fd5b506200020d62000f29565b3480156200051357600080fd5b506200020d62000f2f565b3480156200052b57600080fd5b506200055b600480360360408110156200054457600080fd5b50600160a060020a03813516906020013562000f34565b60408051938452600160a060020a03909216602084015282820152519081900360600190f35b3480156200058e57600080fd5b50620003fb60048036036040811015620005a757600080fd5b508035906020013562000f80565b348015620005c257600080fd5b50620003fb60048036036060811015620005db57600080fd5b50803590602081013515159060400135620011bf565b348015620005fe57600080fd5b50620003fb600480360360408110156200061757600080fd5b50803590602001351515620013e0565b3480156200063457600080fd5b50620003fb600480360360408110156200064d57600080fd5b5080359060200135151562001493565b3480156200066a57600080fd5b50620003fb600480360360208110156200068357600080fd5b5035620014d3565b3480156200069857600080fd5b506200020d6200157d565b348015620006b057600080fd5b506200020d62001583565b348015620006c857600080fd5b50620006f260048036036020811015620006e157600080fd5b5035600160a060020a031662001588565b604080519115158252519081900360200190f35b3480156200071357600080fd5b50620003fb600480360360208110156200072c57600080fd5b5035620015a3565b3480156200074157600080fd5b50620003fb600480360360208110156200075a57600080fd5b50356200184d565b3480156200076f57600080fd5b50620003fb62001929565b3480156200078757600080fd5b50620003fb60048036036060811015620007a057600080fd5b50600160a060020a03813516906020810135906040013562001936565b348015620007ca57600080fd5b50620003fb60048036036020811015620007e357600080fd5b5035600160a060020a031662001a90565b3480156200080157600080fd5b506200055b600480360360408110156200081a57600080fd5b50600160a060020a03813516906020013562001ab2565b3480156200083e57600080fd5b50620003fb600480360360408110156200085757600080fd5b5080359060200135151562001ace565b3480156200087457600080fd5b506200020d600480360360208110156200088d57600080fd5b5035600160a060020a031662001bb2565b348015620008ab57600080fd5b50620003fb60048036036020811015620008c457600080fd5b810190602081018135640100000000811115620008e057600080fd5b820183602082011115620008f357600080fd5b803590602001918460018302840111640100000000831117156200091657600080fd5b91908080601f01602080910402602001604051908101604052809392919081815260200183838082843760009201919091525092955062001bcd945050505050565b3480156200096557600080fd5b50620001ba600480360360208110156200097e57600080fd5b503562001bfd565b3480156200099357600080fd5b50620006f260048036036020811015620009ac57600080fd5b5035600160a060020a031662001c26565b348015620009ca57600080fd5b50620003fb62001c3a565b348015620009e257600080fd5b50620001ba62001c45565b600754600160a060020a031681565b600160a060020a031660009081526009602052604090205490565b600480548290811062000a2657fe5b9060005260206000209060060201600091509050806000015490806001018054600181600116156101000203166002900480601f01602080910402602001604051908101604052809291908181526020018280546001816001161561010002031660029004801562000adc5780601f1062000ab05761010080835404028352916020019162000adc565b820191906000526020600020905b81548152906001019060200180831162000abe57829003601f168201915b5050506002840154600385015460048601546005909601549495919460ff82169450600160a060020a036101009092048216935091169087565b6006805460408051602060026001851615610100026000190190941693909304601f8101849004840282018401909252818152929183018282801562000ba05780601f1062000b745761010080835404028352916020019162000ba0565b820191906000526020600020905b81548152906001019060200180831162000b8257829003601f168201915b505050505081565b6008545b90565b6008546004805460009291908490811062000bc657fe5b90600052602060002090600602016001013360048581548110151562000be857fe5b6000918252602090912060026006909202010154600554600160a060020a03163062000c136200203d565b868152600160a060020a038086166040830152606082018590528381166080830152821660a082015260c0602082018181528754600260001961010060018416150201909116049183018290529060e08301908890801562000cb95780601f1062000c8d5761010080835404028352916020019162000cb9565b820191906000526020600020905b81548152906001019060200180831162000c9b57829003601f168201915b5050975050505050505050604051809103906000f08015801562000ce1573d6000803e3d6000fd5b506008805460018101825560009182527ff3f7a9fe364faab93b216da50a3214154f22a0a2b415b23a84c8169e8b636ee301805473ffffffffffffffffffffffffffffffffffffffff1916600160a060020a0384161790556040519192507f882e77917ea2af100008ff777e1693a7fe22d06b0a7ffaddc50f9d8ef3a9231491a15050565b62000d713362001c26565b151562000d7d57600080fd5b62000d876200204e565b600454808252602080830184905260006040808501919091526001606085018190523360a08601524260c086015281519384529183019190915280517f2da08c9afbca94a7781f242bd0193bf9a13ebd681b7fead14822408e3fbe78e99281900390910190a16004805460018101808355600092909252825160069091027f8a35acfbc15ff81a39ae7d344fd709f28e8600b4aa8c65c6b64bfe7fe36bd19b8101918255602080850151805186949362000e68937f8a35acfbc15ff81a39ae7d344fd709f28e8600b4aa8c65c6b64bfe7fe36bd19c90910192019062002098565b5060408201516002820155606082015160038201805460ff19166001838181111562000e9057fe5b0217905550608082015160038201805474ffffffffffffffffffffffffffffffffffffffff001916610100600160a060020a039384160217905560a083015160048301805473ffffffffffffffffffffffffffffffffffffffff19169190921617905560c090910151600590910155505050565b62000f0f3362001c26565b151562000f1b57600080fd5b62000f268162001c54565b50565b60045490565b603c81565b600a6020528160005260406000208181548110151562000f5057fe5b6000918252602090912060039091020180546001820154600290920154909350600160a060020a03909116915083565b62000f8b3362001588565b151562000f9757600080fd5b60048054600091908490811062000faa57fe5b60009182526020909120600690910201600301546101009004600160a060020a03161480620010735750600480548390811062000fe357fe5b906000526020600020906006020160030160019054906101000a9004600160a060020a0316600160a060020a031663b3f05b976040518163ffffffff1660e060020a02815260040160206040518083038186803b1580156200104457600080fd5b505afa15801562001059573d6000803e3d6000fd5b505050506040513d60208110156200107057600080fd5b50515b15156200107f57600080fd5b60048054839081106200108e57fe5b9060005260206000209060060201600201548114151515620010af57600080fd5b6002546003544291603c83019185918591600160a060020a03909116908590859030620010db6200211d565b9687526020870195909552600160a060020a039384166040808801919091526060870193909352608086019190915260a0850152911660c0830152519081900360e001906000f08015801562001135573d6000803e3d6000fd5b5060048054869081106200114557fe5b906000526020600020906006020160030160016101000a815481600160a060020a030219169083600160a060020a031602179055507f9bd49e167f8ad588627e6f5b6a02b84c5a6ee245ce327afa99ade561bcbc284d8484604051808381526020018281526020019250505060405180910390a150505050565b6004805484908110620011ce57fe5b60009182526020909120600690910201600301546101009004600160a060020a03163314801562001299575060048054849081106200120957fe5b906000526020600020906006020160030160019054906101000a9004600160a060020a0316600160a060020a031663b3f05b976040518163ffffffff1660e060020a02815260040160206040518083038186803b1580156200126a57600080fd5b505afa1580156200127f573d6000803e3d6000fd5b505050506040513d60208110156200129657600080fd5b50515b1515620012a557600080fd5b8115620012b857620012b8838262001c9e565b62001361600484815481101515620012cc57fe5b906000526020600020906006020160030160019054906101000a9004600160a060020a0316600160a060020a0316632c24909c6040518163ffffffff1660e060020a02815260040160206040518083038186803b1580156200132d57600080fd5b505afa15801562001342573d6000803e3d6000fd5b505050506040513d60208110156200135957600080fd5b505162001e2c565b60408051848152831515602082015281517f118384964387422ef394126dcae83b6fc97ee2a5c14d8729ebc59cc3d1ce3f44929181900390910190a16004805484908110620013ac57fe5b60009182526020909120600360069092020101805474ffffffffffffffffffffffffffffffffffffffff0019169055505050565b620013eb3362001c26565b1515620013f757600080fd5b60088054839081106200140657fe5b6000918252602082200154604080517fbd041c4d00000000000000000000000000000000000000000000000000000000815233600482015284151560248201529051600160a060020a039092169263bd041c4d9260448084019382900301818387803b1580156200147657600080fd5b505af11580156200148b573d6000803e3d6000fd5b505050505050565b60408051838152821515602082015281517fb07b6a4d3da57c26eeed54737d6979b2a65101898160f7eb26d9e58626a70c14929181900390910190a15050565b620014de3362001c26565b1515620014ea57600080fd5b6008805482908110620014f957fe5b6000918252602082200154604080517f0519bac30000000000000000000000000000000000000000000000000000000081523360048201529051600160a060020a0390921692630519bac39260248084019382900301818387803b1580156200156157600080fd5b505af115801562001576573d6000803e3d6000fd5b5050505050565b60035481565b600a81565b60006200159d60018363ffffffff62001e5f16565b92915050565b600554604080517f70a082310000000000000000000000000000000000000000000000000000000081523360048201529051600092600160a060020a0316916370a08231916024808301926020929190829003018186803b1580156200160857600080fd5b505afa1580156200161d573d6000803e3d6000fd5b505050506040513d60208110156200163457600080fd5b5051116200164157600080fd5b600081116200164f57600080fd5b600554604080517f1302afc2000000000000000000000000000000000000000000000000000000008152336004820152306024820152604481018490529051600160a060020a0390921691631302afc2916064808201926020929091908290030181600087803b158015620016c357600080fd5b505af1158015620016d8573d6000803e3d6000fd5b505050506040513d6020811015620016ef57600080fd5b5050600554604080517f62cd70e2000000000000000000000000000000000000000000000000000000008152336004820152306024820152604481018490529051600160a060020a03909216916362cd70e2916064808201926020929091908290030181600087803b1580156200176557600080fd5b505af11580156200177a573d6000803e3d6000fd5b505050506040513d60208110156200179157600080fd5b506200179e90506200212e565b8181523360208083018281524260408086018281526000958652600985528186208054600180820183559188529686902088516003909802018781559451908501805473ffffffffffffffffffffffffffffffffffffffff1916600160a060020a0390921691821790559051600290940193909355805194855292840152815190927f73a19dd210f1a7f902193214c0ee91dd35ee5b4d920cba8d519eca65a7b488ca92908290030190a25050565b620018583362001588565b15156200186457600080fd5b6004805460009190839081106200187757fe5b60009182526020909120600690910201600301546101009004600160a060020a03161415620018a557600080fd5b6004805482908110620018b457fe5b6000918252602082206006919091020160030154604080517f0519bac30000000000000000000000000000000000000000000000000000000081523360048201529051610100909204600160a060020a031692630519bac39260248084019382900301818387803b1580156200156157600080fd5b620019343362001e97565b565b600554604080517fa9059cbb000000000000000000000000000000000000000000000000000000008152600160a060020a038681166004830152602482018690529151919092169163a9059cbb9160448083019260209291908290030181600087803b158015620019a657600080fd5b505af1158015620019bb573d6000803e3d6000fd5b505050506040513d6020811015620019d257600080fd5b50620019df90506200212e565b828152600160a060020a03848116602080840182815260408086018781526000948552600a84528185208054600180820183559187529585902088516003909702018681559351908401805473ffffffffffffffffffffffffffffffffffffffff19169190971690811790965551600290920182905580519384529183015280517f92ccf450a286a957af52509bc1c9939d1a6a481783e142e41e2499f0bb66ebc69281900390910190a250505050565b62001a9b3362001588565b151562001aa757600080fd5b62000f268162001ee1565b60096020528160005260406000208181548110151562000f5057fe5b62001ad93362001588565b151562001ae557600080fd5b60048054600091908490811062001af857fe5b60009182526020909120600690910201600301546101009004600160a060020a0316141562001b2657600080fd5b600480548390811062001b3557fe5b6000918252602082206006919091020160030154604080517fbd041c4d00000000000000000000000000000000000000000000000000000000815233600482015284151560248201529051610100909204600160a060020a03169263bd041c4d9260448084019382900301818387803b1580156200147657600080fd5b600160a060020a03166000908152600a602052604090205490565b62001bd83362001c26565b151562001be457600080fd5b805162001bf990600690602084019062002098565b5050565b600880548290811062001c0c57fe5b600091825260209091200154600160a060020a0316905081565b60006200159d818363ffffffff62001e5f16565b620019343362001f2b565b600554600160a060020a031681565b62001c6760008263ffffffff62001f7516565b604051600160a060020a038216907f3b4a40cccf2058c593542587329dd385be4f0b588db5471fbd9598e56dd7093a90600090a250565b80151562001ce557600160048381548110151562001cb857fe5b60009182526020909120600360069092020101805460ff19166001838181111562001cdf57fe5b02179055505b801580159062001d2657506001600480548490811062001d0157fe5b600091825260209091206003600690920201015460ff16600181111562001d2457fe5b145b1562001d6b57600060048381548110151562001d3e57fe5b60009182526020909120600360069092020101805460ff19166001838181111562001d6557fe5b02179055505b8060048381548110151562001d7c57fe5b9060005260206000209060060201600201819055507f2da08c9afbca94a7781f242bd0193bf9a13ebd681b7fead14822408e3fbe78e960048381548110151562001dc257fe5b90600052602060002090600602016000015460048481548110151562001de457fe5b60009182526020918290206003600690920201015460405183815260ff90911691810182600181111562001e1457fe5b60ff1681526020019250505060405180910390a15050565b600062001e4182600263ffffffff62001fc716565b9050600a81111562001e595750600a60035562000f26565b60035550565b6000600160a060020a038216151562001e7757600080fd5b50600160a060020a03166000908152602091909152604090205460ff1690565b62001eaa60018263ffffffff62001fed16565b604051600160a060020a038216907f6e76fb4c77256006d9c38ec7d82b45a8c8f3c27b1d6766fffc42dfb8de68449290600090a250565b62001ef460018263ffffffff62001f7516565b604051600160a060020a038216907fb251eb052afc73ffd02ffe85ad79990a8b3fed60d76dbc2fa2fdd7123dffd91490600090a250565b62001f3e60008263ffffffff62001fed16565b604051600160a060020a038216907fef69f7d97228658c92417be1b16b19058315de71fecb435d07b7d23728b6bd3190600090a250565b600160a060020a038116151562001f8b57600080fd5b62001f97828262001e5f565b1562001fa257600080fd5b600160a060020a0316600090815260209190915260409020805460ff19166001179055565b600080821162001fd657600080fd5b6000828481151562001fe457fe5b04949350505050565b600160a060020a03811615156200200357600080fd5b6200200f828262001e5f565b15156200201b57600080fd5b600160a060020a0316600090815260209190915260409020805460ff19169055565b6040516112cd806200217783390190565b60e060405190810160405280600081526020016060815260200160008152602001600060018111156200207d57fe5b81526000602082018190526040820181905260609091015290565b828054600181600116156101000203166002900490600052602060002090601f016020900481019282601f10620020db57805160ff19168380011785556200210b565b828001600101855582156200210b579182015b828111156200210b578251825591602001919060010190620020ee565b506200211992915062002159565b5090565b604051610a79806200344483390190565b606060405190810160405280600081526020016000600160a060020a03168152602001600081525090565b62000bac91905b808211156200211957600081556001016200216056fe60806040526000600555600060065560006007553480156200002057600080fd5b50604051620012cd380380620012cd833981018060405260c08110156200004657600080fd5b8151602083018051919392830192916401000000008111156200006857600080fd5b820160208101848111156200007c57600080fd5b81516401000000008111828201871017156200009757600080fd5b50506020820151604083015160608401516080909401519295509093509190818142603c81016000600160a060020a0385161515620000d557600080fd5b428310158015620000e557508282115b1515620000f157600080fd5b60008054600160a060020a03968716600160a060020a03199182161790915560018054959096169416939093179093556002556003919091556008805460ff1990811690915560048054921515929091169190911790556200015c336401000000006200020e810204565b620001703364010000000062000260810204565b15156200017c57600080fd5b600b86905584516200019690600c90602088019062000316565b50600d8054600160a060020a031916600160a060020a038616179055600e839055600f805460ff1916905542601055600b54604080519182526000602083015280517f90ab42752b8b3a3e8bcb9cba7d57f5bf87db421f9885bb1c203f08d0ef199c209281900390910190a1505050505050620003bb565b62000229600a8264010000000062000e886200028382021704565b604051600160a060020a038216907fb251eb052afc73ffd02ffe85ad79990a8b3fed60d76dbc2fa2fdd7123dffd91490600090a250565b60006200027d600a8364010000000062000cb7620002de82021704565b92915050565b600160a060020a03811615156200029957600080fd5b620002ae8282640100000000620002de810204565b15620002b957600080fd5b600160a060020a0316600090815260209190915260409020805460ff19166001179055565b6000600160a060020a0382161515620002f657600080fd5b50600160a060020a03166000908152602091909152604090205460ff1690565b828054600181600116156101000203166002900490600052602060002090601f016020900481019282601f106200035957805160ff191683800117855562000389565b8280016001018555821562000389579182015b82811115620003895782518255916020019190600101906200036c565b50620003979291506200039b565b5090565b620003b891905b80821115620003975760008155600101620003a2565b90565b610f0280620003cb6000396000f3fe60806040526004361061015e5763ffffffff7c01000000000000000000000000000000000000000000000000000000006000350416630519bac3811461016357806316f0115b1461019857806328d21990146101c95780633197cbb6146101f0578063325a19f114610205578063361810261461021a57806338af3eed146102435780633ccfd60b1461025857806341fdade61461026d5780635c134d661461028257806364a90292146102bb5780636beb7959146102d057806378e979251461035a57806380322cbd1461036f578063a1d1936114610384578063a230c52414610399578063a7491b48146103cc578063aa8c217c1461041f578063af640d0f14610434578063b3a2273f14610449578063b3f05b971461045e578063bad5ba0114610473578063bd041c4d14610488578063c19d93fb146104c3578063ca6d56dc146104fc578063d74689e41461052f578063fc0c546a14610544575b600080fd5b34801561016f57600080fd5b506101966004803603602081101561018657600080fd5b5035600160a060020a0316610559565b005b3480156101a457600080fd5b506101ad610628565b60408051600160a060020a039092168252519081900360200190f35b3480156101d557600080fd5b506101de610637565b60408051918252519081900360200190f35b3480156101fc57600080fd5b506101de61063c565b34801561021157600080fd5b506101de610642565b34801561022657600080fd5b5061022f610648565b604080519115158252519081900360200190f35b34801561024f57600080fd5b506101ad610691565b34801561026457600080fd5b506101966106a0565b34801561027957600080fd5b506101de610827565b34801561028e57600080fd5b506101de600480360360408110156102a557600080fd5b50600160a060020a03813516906020013561082d565b3480156102c757600080fd5b506101de61085d565b3480156102dc57600080fd5b506102e5610863565b6040805160208082528351818301528351919283929083019185019080838360005b8381101561031f578181015183820152602001610307565b50505050905090810190601f16801561034c5780820380516001836020036101000a031916815260200191505b509250505060405180910390f35b34801561036657600080fd5b506101de6108f1565b34801561037b57600080fd5b5061022f6108f7565b34801561039057600080fd5b5061022f610906565b3480156103a557600080fd5b5061022f600480360360208110156103bc57600080fd5b5035600160a060020a0316610921565b3480156103d857600080fd5b506103ff600480360360208110156103ef57600080fd5b5035600160a060020a031661093a565b604080519384526020840192909252151582820152519081900360600190f35b34801561042b57600080fd5b506101de61095e565b34801561044057600080fd5b506101de610964565b34801561045557600080fd5b506101de61096a565b34801561046a57600080fd5b5061022f610970565b34801561047f57600080fd5b50610196610979565b34801561049457600080fd5b50610196600480360360408110156104ab57600080fd5b50600160a060020a0381351690602001351515610984565b3480156104cf57600080fd5b506104d8610ba5565b604051808260038111156104e857fe5b60ff16815260200191505060405180910390f35b34801561050857600080fd5b506101966004803603602081101561051f57600080fd5b5035600160a060020a0316610bae565b34801561053b57600080fd5b506101de610bce565b34801561055057600080fd5b506101ad610bd4565b600254421015801561056d57506003544211155b151561057857600080fd5b600160a060020a0381166000908152600960205260408120541161059b57600080fd5b600160a060020a038116600090815260096020526040812060018082018054600284018054948690559490915560ff19831690935560075460ff909216916105e89163ffffffff610be316565b600755801561060c57600554610604908363ffffffff610be316565b600555610623565b60065461061f908363ffffffff610be316565b6006555b505050565b600154600160a060020a031681565b603c81565b60035481565b60105481565b60085460009060ff161561065b57600080fd5b60035442101561066d5750600061068e565b6008805460ff1916600117905561068a610685610bf8565b610c02565b5060015b90565b600d54600160a060020a031681565b60008054600154604080517f70a08231000000000000000000000000000000000000000000000000000000008152600160a060020a039283166004820152905191909216916370a08231916024808301926020929190829003018186803b15801561070a57600080fd5b505afa15801561071e573d6000803e3d6000fd5b505050506040513d602081101561073457600080fd5b50519050610740610906565b151561074b57600080fd5b600d54600160a060020a0316331461076257600080fd5b600e5460001061077157600080fd5b600e5481101561078057600080fd5b600154600d54600e54601054604080517fc18b0180000000000000000000000000000000000000000000000000000000008152600160a060020a0394851660048201526024810193909352604483019190915251919092169163c18b018091606480830192600092919082900301818387803b1580156107ff57600080fd5b505af1158015610813573d6000803e3d6000fd5b5050600f805460ff19166003179055505050565b6103e881565b60116020528160005260406000208181548110151561084857fe5b90600052602060002001600091509150505481565b60065481565b600c805460408051602060026001851615610100026000190190941693909304601f810184900484028201840190925281815292918301828280156108e95780601f106108be576101008083540402835291602001916108e9565b820191906000526020600020905b8154815290600101906020018083116108cc57829003601f168201915b505050505081565b60025481565b6000610901610bf8565b905090565b60006001600f5460ff16600381111561091b57fe5b14905090565b6000610934600a8363ffffffff610cb716565b92915050565b60096020526000908152604090208054600182015460029092015490919060ff1683565b600e5481565b600b5481565b60075481565b60085460ff1681565b61098233610cee565b565b600254421015801561099857506003544211155b15156109a357600080fd5b600160a060020a03821615156109b857600080fd5b600160a060020a038216600090815260096020526040902054156109db57600080fd5b60008054604080517f70a08231000000000000000000000000000000000000000000000000000000008152600160a060020a038681166004830152915191909216916370a08231916024808301926020929190829003018186803b158015610a4257600080fd5b505afa158015610a56573d6000803e3d6000fd5b505050506040513d6020811015610a6c57600080fd5b505160008054604080517f18160ddd00000000000000000000000000000000000000000000000000000000815290519394509192610b10926103e892600160a060020a0316916318160ddd91600480820192602092909190829003018186803b158015610ad857600080fd5b505afa158015610aec573d6000803e3d6000fd5b505050506040513d6020811015610b0257600080fd5b50519063ffffffff610d3616565b905080821115610b205780610b22565b815b91508215610b4557600554610b3d908363ffffffff610d5a16565b600555610b5c565b600654610b58908363ffffffff610d5a16565b6006555b600160a060020a038416600090815260096020526040902042815560018082018490556002909101805460ff1916851515179055600754610b9c91610d5a565b60075550505050565b600f5460ff1681565b610bb733610921565b1515610bc257600080fd5b610bcb81610d73565b50565b60055481565b600054600160a060020a031681565b600082821115610bf257600080fd5b50900390565b6006546005541190565b808015610c11575060085460ff165b15610c2357610c1e610dbb565b610c2b565b610c2b610e28565b600154600b54604080517f7370407d0000000000000000000000000000000000000000000000000000000081526004810192909252831515602483015251600160a060020a0390921691637370407d9160448082019260009290919082900301818387803b158015610c9c57600080fd5b505af1158015610cb0573d6000803e3d6000fd5b5050505050565b6000600160a060020a0382161515610cce57600080fd5b50600160a060020a03166000908152602091909152604090205460ff1690565b610cff600a8263ffffffff610e3c16565b604051600160a060020a038216907f6e76fb4c77256006d9c38ec7d82b45a8c8f3c27b1d6766fffc42dfb8de68449290600090a250565b6000808211610d4457600080fd5b60008284811515610d5157fe5b04949350505050565b600082820183811015610d6c57600080fd5b9392505050565b610d84600a8263ffffffff610e8816565b604051600160a060020a038216907fb251eb052afc73ffd02ffe85ad79990a8b3fed60d76dbc2fa2fdd7123dffd91490600090a250565b600f80546001919060ff191682805b0217905550600b54600f546040518281527f90ab42752b8b3a3e8bcb9cba7d57f5bf87db421f9885bb1c203f08d0ef199c20929160ff169060208101826003811115610e1257fe5b60ff1681526020019250505060405180910390a1565b600f80546002919060ff1916600183610dca565b600160a060020a0381161515610e5157600080fd5b610e5b8282610cb7565b1515610e6657600080fd5b600160a060020a0316600090815260209190915260409020805460ff19169055565b600160a060020a0381161515610e9d57600080fd5b610ea78282610cb7565b15610eb157600080fd5b600160a060020a0316600090815260209190915260409020805460ff1916600117905556fea165627a7a7230582041ae19db6bbd5dad5e19e41d8a669a96c99c75b6fd78f7bdc41d4d13a1a3734d002960806040526000600555600060065560006007556000600a5534801561002457600080fd5b5060405160e080610a79833981018060405260e081101561004457600080fd5b508051602082015160408301516060840151608085015160a086015160c0909601519495939492939192909190848185856000600160a060020a038516151561008c57600080fd5b42831015801561009b57508282115b15156100a657600080fd5b60008054600160a060020a0319908116600160a060020a03978816178255600180548216968816969096179095556002939093556003919091556008805460ff1990811690915560048054909116911515919091179055600b99909955600a93909355600c96909655600d805490921695169490941790935550610947928392506101329150396000f3fe6080604052600436106100fb5763ffffffff7c01000000000000000000000000000000000000000000000000000000006000350416630519bac3811461010057806316f0115b146101355780632c24909c146101665780633197cbb61461018d57806336181026146101a257806341fdade6146101cb5780634e9e8e73146101e057806364a90292146101f55780636f6a97621461020a57806378e979251461021f57806380322cbd14610234578063a7491b4814610249578063af640d0f1461029c578063b3a2273f146102b1578063b3f05b97146102c6578063bd041c4d146102db578063d74689e414610316578063fc0c546a1461032b575b600080fd5b34801561010c57600080fd5b506101336004803603602081101561012357600080fd5b5035600160a060020a0316610340565b005b34801561014157600080fd5b5061014a61040f565b60408051600160a060020a039092168252519081900360200190f35b34801561017257600080fd5b5061017b61041e565b60408051918252519081900360200190f35b34801561019957600080fd5b5061017b6104f6565b3480156101ae57600080fd5b506101b76104fc565b604080519115158252519081900360200190f35b3480156101d757600080fd5b5061017b610544565b3480156101ec57600080fd5b5061017b61054a565b34801561020157600080fd5b5061017b610550565b34801561021657600080fd5b5061017b610556565b34801561022b57600080fd5b5061017b61055c565b34801561024057600080fd5b506101b7610562565b34801561025557600080fd5b5061027c6004803603602081101561026c57600080fd5b5035600160a060020a0316610571565b604080519384526020840192909252151582820152519081900360600190f35b3480156102a857600080fd5b5061017b610595565b3480156102bd57600080fd5b5061017b61059b565b3480156102d257600080fd5b506101b76105a1565b3480156102e757600080fd5b50610133600480360360408110156102fe57600080fd5b50600160a060020a03813516906020013515156105aa565b34801561032257600080fd5b5061017b6107cb565b34801561033757600080fd5b5061014a6107d1565b600254421015801561035457506003544211155b151561035f57600080fd5b600160a060020a0381166000908152600960205260408120541161038257600080fd5b600160a060020a038116600090815260096020526040812060018082018054600284018054948690559490915560ff19831690935560075460ff909216916103cf9163ffffffff6107e016565b60075580156103f3576005546103eb908363ffffffff6107e016565b60055561040a565b600654610406908363ffffffff6107e016565b6006555b505050565b600d54600160a060020a031681565b6000806104386006546005546107fa90919063ffffffff16565b90506104ef6000809054906101000a9004600160a060020a0316600160a060020a03166318160ddd6040518163ffffffff167c010000000000000000000000000000000000000000000000000000000002815260040160206040518083038186803b1580156104a657600080fd5b505afa1580156104ba573d6000803e3d6000fd5b505050506040513d60208110156104d057600080fd5b50516104e383606463ffffffff61081316565b9063ffffffff61083e16565b9150505b90565b60035481565b60085460009060ff161561050f57600080fd5b600354421015610521575060006104f3565b6008805460ff1916600117905561053e610539610862565b610884565b50600190565b6103e881565b600c5481565b60065481565b600a5481565b60025481565b600061056c610862565b905090565b60096020526000908152604090208054600182015460029092015490919060ff1683565b600b5481565b60075481565b60085460ff1681565b60025442101580156105be57506003544211155b15156105c957600080fd5b600160a060020a03821615156105de57600080fd5b600160a060020a0382166000908152600960205260409020541561060157600080fd5b60008054604080517f70a08231000000000000000000000000000000000000000000000000000000008152600160a060020a038681166004830152915191909216916370a08231916024808301926020929190829003018186803b15801561066857600080fd5b505afa15801561067c573d6000803e3d6000fd5b505050506040513d602081101561069257600080fd5b505160008054604080517f18160ddd00000000000000000000000000000000000000000000000000000000815290519394509192610736926103e892600160a060020a0316916318160ddd91600480820192602092909190829003018186803b1580156106fe57600080fd5b505afa158015610712573d6000803e3d6000fd5b505050506040513d602081101561072857600080fd5b50519063ffffffff61083e16565b9050808211156107465780610748565b815b9150821561076b57600554610763908363ffffffff6107fa16565b600555610782565b60065461077e908363ffffffff6107fa16565b6006555b600160a060020a038416600090815260096020526040902042815560018082018490556002909101805460ff19168515151790556007546107c2916107fa565b60075550505050565b60055481565b600054600160a060020a031681565b6000828211156107ef57600080fd5b508082035b92915050565b60008282018381101561080c57600080fd5b9392505050565b6000821515610824575060006107f4565b82820282848281151561083357fe5b041461080c57600080fd5b600080821161084c57600080fd5b6000828481151561085957fe5b04949350505050565b600060065460055411801561056c5750600a5461087d61041e565b1015905090565b600d54600b54600c54604080517f607ca15b00000000000000000000000000000000000000000000000000000000815260048101939093528415156024840152604483019190915251600160a060020a039092169163607ca15b9160648082019260009290919082900301818387803b15801561090057600080fd5b505af1158015610914573d6000803e3d6000fd5b505050505056fea165627a7a72305820204ed578968633adb051122328a6916c4f3a3312cf553a87118fcb62a20eb1cf0029a165627a7a72305820ef77bb0bcc3f8ff5dcc547c56c82f04240bdc3b5935a2f8adc188cc822df94960029",
  "source": "pragma solidity ^0.5.0;\n\nimport './reward/Reward.sol';\nimport './rule/Rules.sol';\nimport './THXToken.sol';\n\ncontract RewardPool is Rules {\n\n    event Deposited(address indexed sender, uint256 amount, uint256 created);\n    event Withdrawn(address indexed receiver, uint256 amount, uint256 created);\n\n    event RewardPollCreated();\n    event RewardPollFinished(uint256 id, bool approved);\n\n    THXToken public token;\n    string public name;\n    address public creator;\n\n    Reward[] public rewards;\n\n    struct Deposit {\n        uint256 amount;\n        address sender;\n        uint256 created;\n    }\n\n    struct Withdrawel {\n        uint256 amount;\n        address receiver;\n        uint256 created;\n    }\n\n    mapping (address => Deposit[]) public deposits;\n    mapping (address => Withdrawel[]) public withdrawels;\n\n    constructor(\n        string memory _name,\n        address _tokenAddress\n    ) public\n        Rules(_tokenAddress)\n    {\n        name = _name;\n        token = THXToken(_tokenAddress);\n        creator = msg.sender;\n    }\n\n    /**\n    * @dev Updates the pool name set initially through the constructor.\n    * @param value The new pool name.\n    */\n    function updatePoolName(string memory value) public onlyManager {\n        name = value;\n    }\n\n    /**\n    * @dev Stores the sent amount as tokens in the Reward Pool.\n    * @param amount The amount the sender deposited.\n    */\n    function deposit(uint256 amount) public {\n        require(token.balanceOf(msg.sender) > 0);\n        require(amount > 0);\n\n        // Approve the token transaction.\n        token.approveDeposit(msg.sender, address(this), amount);\n\n        // Transfer the tokens from the sender to the pool\n        token.transferDeposit(msg.sender, address(this), amount);\n\n        Deposit memory d;\n        d.amount = amount;\n        d.sender = msg.sender;\n        d.created = now;\n\n        deposits[msg.sender].push(d);\n\n        emit Deposited(d.sender, d.amount, now);\n    }\n\n    /**\n    * @dev Counts the amount of Rewards.\n    */\n    function countRewards() public view returns (uint256) {\n        return rewards.length;\n    }\n\n    /**\n    * @dev Counts the amount of Deposits for an address.\n    */\n    function countDeposits(address sender) public view returns (uint256) {\n        return deposits[sender].length;\n    }\n\n    /**\n    * @dev Counts the amount of Withdrawels for an address.\n    */\n    function countWithdrawels(address receiver) public view returns (uint256) {\n        return withdrawels[receiver].length;\n    }\n\n    /**\n    * @dev Creates the suggested reward.\n    * @param id Reference to the rule\n    */\n    function createReward(uint256 id) public {\n        Reward reward = new Reward(rewards.length, rules[id].slug, msg.sender, rules[id].amount, address(token), address(this));\n        rewards.push(reward);\n\n        emit RewardPollCreated();\n    }\n\n    /**\n    * @dev Vote for the suggested reward.\n    * @param id Referenced Reward\n    * @param agree Approve or reject reward.\n    */\n    function voteForReward(uint256 id, bool agree) public onlyManager {\n        rewards[id].vote(msg.sender, agree);\n    }\n\n    /**\n    * @dev Vote for the suggested reward.\n    * @param id Reference to thte reward\n    */\n    function revokeVoteForReward(uint256 id) public onlyManager {\n        rewards[id].revokeVote(msg.sender);\n    }\n\n    /**\n    * @dev Called when poll is finished\n    * @param agree Bool for checking the result of the poll.\n    */\n    function onRewardPollFinish(uint256 id, bool agree) external {\n        emit RewardPollFinished(id, agree);\n    }\n\n    /**\n    * @dev callback called after reward is withdrawn\n    */\n    function onWithdrawel(address receiver, uint256 amount, uint256 created) external {\n        token.transfer(receiver, amount);\n\n        Withdrawel memory w;\n        w.amount = amount;\n        w.receiver = receiver;\n        w.created = created;\n\n        withdrawels[receiver].push(w);\n\n        emit Withdrawn(w.receiver, w.amount, w.created);\n    }\n\n}\n",
  "sourcePath": "/Users/peterpolman/Sites/thx/thx-wallet/contracts/RewardPool.sol",
  "compiler": {
    "name": "solc",
    "version": "0.5.0+commit.1d4f565a.Emscripten.clang"
  },
  "schemaVersion": "3.0.1",
  "updatedAt": "2020-01-06T13:42:01.860Z",
  "devdoc": {
    "methods": {
      "countDeposits(address)": {
        "details": "Counts the amount of Deposits for an address."
      },
      "countRewards()": {
        "details": "Counts the amount of Rewards."
      },
      "countRules()": {
        "details": "Counts the amount of rules."
      },
      "countWithdrawels(address)": {
        "details": "Counts the amount of Withdrawels for an address."
      },
      "createReward(uint256)": {
        "details": "Creates the suggested reward.",
        "params": {
          "id": "Reference to the rule"
        }
      },
      "createRule(string)": {
        "details": "Creates the initial reward rule.",
        "params": {
          "slug": "Short readable description of rule."
        }
      },
      "deposit(uint256)": {
        "details": "Stores the sent amount as tokens in the Reward Pool.",
        "params": {
          "amount": "The amount the sender deposited."
        }
      },
      "onRewardPollFinish(uint256,bool)": {
        "details": "Called when poll is finished",
        "params": {
          "agree": "Bool for checking the result of the poll."
        }
      },
      "onRulePollFinish(uint256,bool,uint256)": {
        "details": "Called when poll is finished",
        "params": {
          "agree": "Bool for checking the result of the poll.",
          "id": "Referenced reward rule",
          "proposedAmount": "The proposed reward size."
        }
      },
      "onWithdrawel(address,uint256,uint256)": {
        "details": "callback called after reward is withdrawn"
      },
      "revokeVoteForReward(uint256)": {
        "details": "Vote for the suggested reward.",
        "params": {
          "id": "Reference to thte reward"
        }
      },
      "revokeVoteForRule(uint256)": {
        "details": "Vote for the suggested rule.",
        "params": {
          "id": "reference to the rule that the poll runs for"
        }
      },
      "startRulePoll(uint256,uint256)": {
        "details": "Starts the rule poll for chaning the amount.",
        "params": {
          "id": "The new amount for the rule."
        }
      },
      "updatePoolName(string)": {
        "details": "Updates the pool name set initially through the constructor.",
        "params": {
          "value": "The new pool name."
        }
      },
      "voteForReward(uint256,bool)": {
        "details": "Vote for the suggested reward.",
        "params": {
          "agree": "Approve or reject reward.",
          "id": "Referenced Reward"
        }
      },
      "voteForRule(uint256,bool)": {
        "details": "Vote for the suggested rule.",
        "params": {
          "agree": "Approve or reject rule.",
          "id": "reference to the rule that the poll runs for"
        }
      }
    }
  },
  "userdoc": {
    "methods": {}
  }
}