{
  "contractName": "Reward",
  "abi": [
    {
      "constant": false,
      "inputs": [
        {
          "name": "voter",
          "type": "address"
        }
      ],
      "name": "revokeVote",
      "outputs": [],
      "payable": false,
      "stateMutability": "nonpayable",
      "type": "function"
    },
    {
      "constant": true,
      "inputs": [],
      "name": "pool",
      "outputs": [
        {
          "name": "",
          "type": "address"
        }
      ],
      "payable": false,
      "stateMutability": "view",
      "type": "function"
    },
    {
      "constant": true,
      "inputs": [],
      "name": "rule",
      "outputs": [
        {
          "name": "",
          "type": "uint256"
        }
      ],
      "payable": false,
      "stateMutability": "view",
      "type": "function"
    },
    {
      "constant": true,
      "inputs": [],
      "name": "REWARD_POLL_DURATION",
      "outputs": [
        {
          "name": "",
          "type": "uint256"
        }
      ],
      "payable": false,
      "stateMutability": "view",
      "type": "function"
    },
    {
      "constant": true,
      "inputs": [],
      "name": "endTime",
      "outputs": [
        {
          "name": "",
          "type": "uint256"
        }
      ],
      "payable": false,
      "stateMutability": "view",
      "type": "function"
    },
    {
      "constant": true,
      "inputs": [],
      "name": "created",
      "outputs": [
        {
          "name": "",
          "type": "uint256"
        }
      ],
      "payable": false,
      "stateMutability": "view",
      "type": "function"
    },
    {
      "constant": false,
      "inputs": [],
      "name": "tryToFinalize",
      "outputs": [
        {
          "name": "",
          "type": "bool"
        }
      ],
      "payable": false,
      "stateMutability": "nonpayable",
      "type": "function"
    },
    {
      "constant": true,
      "inputs": [],
      "name": "beneficiary",
      "outputs": [
        {
          "name": "",
          "type": "address"
        }
      ],
      "payable": false,
      "stateMutability": "view",
      "type": "function"
    },
    {
      "constant": true,
      "inputs": [],
      "name": "MAX_TOKENS_WEIGHT_DENOM",
      "outputs": [
        {
          "name": "",
          "type": "uint256"
        }
      ],
      "payable": false,
      "stateMutability": "view",
      "type": "function"
    },
    {
      "constant": true,
      "inputs": [
        {
          "name": "",
          "type": "address"
        },
        {
          "name": "",
          "type": "uint256"
        }
      ],
      "name": "voters",
      "outputs": [
        {
          "name": "",
          "type": "uint256"
        }
      ],
      "payable": false,
      "stateMutability": "view",
      "type": "function"
    },
    {
      "constant": true,
      "inputs": [
        {
          "name": "",
          "type": "uint256"
        }
      ],
      "name": "members",
      "outputs": [
        {
          "name": "",
          "type": "address"
        }
      ],
      "payable": false,
      "stateMutability": "view",
      "type": "function"
    },
    {
      "constant": true,
      "inputs": [],
      "name": "noCounter",
      "outputs": [
        {
          "name": "",
          "type": "uint256"
        }
      ],
      "payable": false,
      "stateMutability": "view",
      "type": "function"
    },
    {
      "constant": true,
      "inputs": [],
      "name": "startTime",
      "outputs": [
        {
          "name": "",
          "type": "uint256"
        }
      ],
      "payable": false,
      "stateMutability": "view",
      "type": "function"
    },
    {
      "constant": true,
      "inputs": [],
      "name": "isNowApproved",
      "outputs": [
        {
          "name": "",
          "type": "bool"
        }
      ],
      "payable": false,
      "stateMutability": "view",
      "type": "function"
    },
    {
      "constant": true,
      "inputs": [],
      "name": "benefactor",
      "outputs": [
        {
          "name": "",
          "type": "address"
        }
      ],
      "payable": false,
      "stateMutability": "view",
      "type": "function"
    },
    {
      "constant": true,
      "inputs": [
        {
          "name": "account",
          "type": "address"
        }
      ],
      "name": "isMember",
      "outputs": [
        {
          "name": "",
          "type": "bool"
        }
      ],
      "payable": false,
      "stateMutability": "view",
      "type": "function"
    },
    {
      "constant": true,
      "inputs": [
        {
          "name": "",
          "type": "address"
        }
      ],
      "name": "votesByAddress",
      "outputs": [
        {
          "name": "time",
          "type": "uint256"
        },
        {
          "name": "weight",
          "type": "uint256"
        },
        {
          "name": "agree",
          "type": "bool"
        }
      ],
      "payable": false,
      "stateMutability": "view",
      "type": "function"
    },
    {
      "constant": true,
      "inputs": [],
      "name": "amount",
      "outputs": [
        {
          "name": "",
          "type": "uint256"
        }
      ],
      "payable": false,
      "stateMutability": "view",
      "type": "function"
    },
    {
      "constant": true,
      "inputs": [],
      "name": "id",
      "outputs": [
        {
          "name": "",
          "type": "uint256"
        }
      ],
      "payable": false,
      "stateMutability": "view",
      "type": "function"
    },
    {
      "constant": true,
      "inputs": [],
      "name": "totalVoted",
      "outputs": [
        {
          "name": "",
          "type": "uint256"
        }
      ],
      "payable": false,
      "stateMutability": "view",
      "type": "function"
    },
    {
      "constant": true,
      "inputs": [],
      "name": "finalized",
      "outputs": [
        {
          "name": "",
          "type": "bool"
        }
      ],
      "payable": false,
      "stateMutability": "view",
      "type": "function"
    },
    {
      "constant": false,
      "inputs": [],
      "name": "renounceMember",
      "outputs": [],
      "payable": false,
      "stateMutability": "nonpayable",
      "type": "function"
    },
    {
      "constant": false,
      "inputs": [
        {
          "name": "voter",
          "type": "address"
        },
        {
          "name": "agree",
          "type": "bool"
        }
      ],
      "name": "vote",
      "outputs": [],
      "payable": false,
      "stateMutability": "nonpayable",
      "type": "function"
    },
    {
      "constant": true,
      "inputs": [],
      "name": "state",
      "outputs": [
        {
          "name": "",
          "type": "uint8"
        }
      ],
      "payable": false,
      "stateMutability": "view",
      "type": "function"
    },
    {
      "constant": false,
      "inputs": [
        {
          "name": "account",
          "type": "address"
        }
      ],
      "name": "addMember",
      "outputs": [],
      "payable": false,
      "stateMutability": "nonpayable",
      "type": "function"
    },
    {
      "constant": true,
      "inputs": [],
      "name": "yesCounter",
      "outputs": [
        {
          "name": "",
          "type": "uint256"
        }
      ],
      "payable": false,
      "stateMutability": "view",
      "type": "function"
    },
    {
      "constant": true,
      "inputs": [],
      "name": "token",
      "outputs": [
        {
          "name": "",
          "type": "address"
        }
      ],
      "payable": false,
      "stateMutability": "view",
      "type": "function"
    },
    {
      "inputs": [
        {
          "name": "_id",
          "type": "uint256"
        },
        {
          "name": "_rule",
          "type": "uint256"
        },
        {
          "name": "_beneficiary",
          "type": "address"
        },
        {
          "name": "_benefactor",
          "type": "address"
        },
        {
          "name": "_amount",
          "type": "uint256"
        },
        {
          "name": "_tokenAddress",
          "type": "address"
        },
        {
          "name": "_poolAddress",
          "type": "address"
        }
      ],
      "payable": false,
      "stateMutability": "nonpayable",
      "type": "constructor"
    },
    {
      "anonymous": false,
      "inputs": [
        {
          "indexed": false,
          "name": "id",
          "type": "uint256"
        },
        {
          "indexed": false,
          "name": "state",
          "type": "uint8"
        }
      ],
      "name": "RewardStateChanged",
      "type": "event"
    },
    {
      "anonymous": false,
      "inputs": [
        {
          "indexed": true,
          "name": "account",
          "type": "address"
        }
      ],
      "name": "MemberAdded",
      "type": "event"
    },
    {
      "anonymous": false,
      "inputs": [
        {
          "indexed": true,
          "name": "account",
          "type": "address"
        }
      ],
      "name": "MemberRemoved",
      "type": "event"
    },
    {
      "constant": true,
      "inputs": [],
      "name": "withdrawalAllowed",
      "outputs": [
        {
          "name": "",
          "type": "bool"
        }
      ],
      "payable": false,
      "stateMutability": "view",
      "type": "function"
    },
    {
      "constant": false,
      "inputs": [],
      "name": "withdraw",
      "outputs": [],
      "payable": false,
      "stateMutability": "nonpayable",
      "type": "function"
    }
  ],
  "bytecode": "0x60806040526000600555600060065560006007553480156200002057600080fd5b5060405160e08062001202833981018060405260e08110156200004257600080fd5b508051602082015160408301516060840151608085015160a086015160c090960151949593949293919290919081814260b481016000600160a060020a03851615156200008e57600080fd5b4283101580156200009e57508282115b1515620000aa57600080fd5b60008054600160a060020a03968716600160a060020a03199182161790915560018054959096169416939093179093556002556003919091556008805460ff1990811690915560048054921515929091169190911790556200011533640100000000620001ca810204565b62000129336401000000006200025d810204565b15156200013557600080fd5b600c879055600d869055600e8054600160a060020a03878116600160a060020a031992831617909255600f80549287169290911691909117905560108390556011805460ff1916905542601255604080518881526000602082015281517f90ab42752b8b3a3e8bcb9cba7d57f5bf87db421f9885bb1c203f08d0ef199c20929181900390910190a15050505050505062000313565b620001e5600a8264010000000062000e656200028082021704565b600b805460018101825560009182527f0175b7a638427703f0dbe7bb9bbf987a2551717b34e79f33b5b1008d1fa01db9018054600160a060020a031916600160a060020a03841690811790915560405190917fb251eb052afc73ffd02ffe85ad79990a8b3fed60d76dbc2fa2fdd7123dffd91491a250565b60006200027a600a8364010000000062000c46620002db82021704565b92915050565b600160a060020a03811615156200029657600080fd5b620002ab8282640100000000620002db810204565b15620002b657600080fd5b600160a060020a0316600090815260209190915260409020805460ff19166001179055565b6000600160a060020a0382161515620002f357600080fd5b50600160a060020a03166000908152602091909152604090205460ff1690565b610edf80620003236000396000f3fe6080604052600436106101745763ffffffff7c01000000000000000000000000000000000000000000000000000000006000350416630519bac3811461017957806316f0115b146101ae57806325e3d522146101df57806328d21990146102065780633197cbb61461021b578063325a19f114610230578063361810261461024557806338af3eed1461026e5780633ccfd60b1461028357806341fdade6146102985780635c134d66146102ad5780635daf08ca146102e657806364a902921461031057806378e979251461032557806380322cbd1461033a5780638a81694c1461034f578063a1d1936114610364578063a230c52414610379578063a7491b48146103ac578063aa8c217c146103ff578063af640d0f14610414578063b3a2273f14610429578063b3f05b971461043e578063bad5ba0114610453578063bd041c4d14610468578063c19d93fb146104a3578063ca6d56dc146104dc578063d74689e41461050f578063fc0c546a14610524575b600080fd5b34801561018557600080fd5b506101ac6004803603602081101561019c57600080fd5b5035600160a060020a0316610539565b005b3480156101ba57600080fd5b506101c3610608565b60408051600160a060020a039092168252519081900360200190f35b3480156101eb57600080fd5b506101f4610617565b60408051918252519081900360200190f35b34801561021257600080fd5b506101f461061d565b34801561022757600080fd5b506101f4610622565b34801561023c57600080fd5b506101f4610628565b34801561025157600080fd5b5061025a61062e565b604080519115158252519081900360200190f35b34801561027a57600080fd5b506101c3610677565b34801561028f57600080fd5b506101ac610686565b3480156102a457600080fd5b506101f461080d565b3480156102b957600080fd5b506101f4600480360360408110156102d057600080fd5b50600160a060020a038135169060200135610813565b3480156102f257600080fd5b506101c36004803603602081101561030957600080fd5b5035610843565b34801561031c57600080fd5b506101f461086b565b34801561033157600080fd5b506101f4610871565b34801561034657600080fd5b5061025a610877565b34801561035b57600080fd5b506101c3610886565b34801561037057600080fd5b5061025a610895565b34801561038557600080fd5b5061025a6004803603602081101561039c57600080fd5b5035600160a060020a03166108b0565b3480156103b857600080fd5b506103df600480360360208110156103cf57600080fd5b5035600160a060020a03166108c9565b604080519384526020840192909252151582820152519081900360600190f35b34801561040b57600080fd5b506101f46108ed565b34801561042057600080fd5b506101f46108f3565b34801561043557600080fd5b506101f46108f9565b34801561044a57600080fd5b5061025a6108ff565b34801561045f57600080fd5b506101ac610908565b34801561047457600080fd5b506101ac6004803603604081101561048b57600080fd5b50600160a060020a0381351690602001351515610913565b3480156104af57600080fd5b506104b8610b34565b604051808260038111156104c857fe5b60ff16815260200191505060405180910390f35b3480156104e857600080fd5b506101ac600480360360208110156104ff57600080fd5b5035600160a060020a0316610b3d565b34801561051b57600080fd5b506101f4610b5d565b34801561053057600080fd5b506101c3610b63565b600254421015801561054d57506003544211155b151561055857600080fd5b600160a060020a0381166000908152600960205260408120541161057b57600080fd5b600160a060020a038116600090815260096020526040812060018082018054600284018054948690559490915560ff19831690935560075460ff909216916105c89163ffffffff610b7216565b60075580156105ec576005546105e4908363ffffffff610b7216565b600555610603565b6006546105ff908363ffffffff610b7216565b6006555b505050565b600154600160a060020a031681565b600d5481565b60b481565b60035481565b60125481565b60085460009060ff161561064157600080fd5b60035442101561065357506000610674565b6008805460ff1916600117905561067061066b610b87565b610b91565b5060015b90565b600e54600160a060020a031681565b60008054600154604080517f70a08231000000000000000000000000000000000000000000000000000000008152600160a060020a039283166004820152905191909216916370a08231916024808301926020929190829003018186803b1580156106f057600080fd5b505afa158015610704573d6000803e3d6000fd5b505050506040513d602081101561071a57600080fd5b50519050610726610895565b151561073157600080fd5b600e54600160a060020a0316331461074857600080fd5b60105460001061075757600080fd5b60105481101561076657600080fd5b600154600e54601054601254604080517fc18b0180000000000000000000000000000000000000000000000000000000008152600160a060020a0394851660048201526024810193909352604483019190915251919092169163c18b018091606480830192600092919082900301818387803b1580156107e557600080fd5b505af11580156107f9573d6000803e3d6000fd5b50506011805460ff19166003179055505050565b6103e881565b60136020528160005260406000208181548110151561082e57fe5b90600052602060002001600091509150505481565b600b80548290811061085157fe5b600091825260209091200154600160a060020a0316905081565b60065481565b60025481565b6000610881610b87565b905090565b600f54600160a060020a031681565b6000600160115460ff1660038111156108aa57fe5b14905090565b60006108c3600a8363ffffffff610c4616565b92915050565b60096020526000908152604090208054600182015460029092015490919060ff1683565b60105481565b600c5481565b60075481565b60085460ff1681565b61091133610c7d565b565b600254421015801561092757506003544211155b151561093257600080fd5b600160a060020a038216151561094757600080fd5b600160a060020a0382166000908152600960205260409020541561096a57600080fd5b60008054604080517f70a08231000000000000000000000000000000000000000000000000000000008152600160a060020a038681166004830152915191909216916370a08231916024808301926020929190829003018186803b1580156109d157600080fd5b505afa1580156109e5573d6000803e3d6000fd5b505050506040513d60208110156109fb57600080fd5b505160008054604080517f18160ddd00000000000000000000000000000000000000000000000000000000815290519394509192610a9f926103e892600160a060020a0316916318160ddd91600480820192602092909190829003018186803b158015610a6757600080fd5b505afa158015610a7b573d6000803e3d6000fd5b505050506040513d6020811015610a9157600080fd5b50519063ffffffff610cc516565b905080821115610aaf5780610ab1565b815b91508215610ad457600554610acc908363ffffffff610ce916565b600555610aeb565b600654610ae7908363ffffffff610ce916565b6006555b600160a060020a038416600090815260096020526040902042815560018082018490556002909101805460ff1916851515179055600754610b2b91610ce9565b60075550505050565b60115460ff1681565b610b46336108b0565b1515610b5157600080fd5b610b5a81610d02565b50565b60055481565b600054600160a060020a031681565b600082821115610b8157600080fd5b50900390565b6006546005541190565b808015610ba0575060085460ff165b15610bb257610bad610d98565b610bba565b610bba610e05565b600154600c54604080517f7370407d0000000000000000000000000000000000000000000000000000000081526004810192909252831515602483015251600160a060020a0390921691637370407d9160448082019260009290919082900301818387803b158015610c2b57600080fd5b505af1158015610c3f573d6000803e3d6000fd5b5050505050565b6000600160a060020a0382161515610c5d57600080fd5b50600160a060020a03166000908152602091909152604090205460ff1690565b610c8e600a8263ffffffff610e1916565b604051600160a060020a038216907f6e76fb4c77256006d9c38ec7d82b45a8c8f3c27b1d6766fffc42dfb8de68449290600090a250565b6000808211610cd357600080fd5b60008284811515610ce057fe5b04949350505050565b600082820183811015610cfb57600080fd5b9392505050565b610d13600a8263ffffffff610e6516565b600b805460018101825560009182527f0175b7a638427703f0dbe7bb9bbf987a2551717b34e79f33b5b1008d1fa01db901805473ffffffffffffffffffffffffffffffffffffffff1916600160a060020a03841690811790915560405190917fb251eb052afc73ffd02ffe85ad79990a8b3fed60d76dbc2fa2fdd7123dffd91491a250565b601180546001919060ff191682805b0217905550600c546011546040518281527f90ab42752b8b3a3e8bcb9cba7d57f5bf87db421f9885bb1c203f08d0ef199c20929160ff169060208101826003811115610def57fe5b60ff1681526020019250505060405180910390a1565b601180546002919060ff1916600183610da7565b600160a060020a0381161515610e2e57600080fd5b610e388282610c46565b1515610e4357600080fd5b600160a060020a0316600090815260209190915260409020805460ff19169055565b600160a060020a0381161515610e7a57600080fd5b610e848282610c46565b15610e8e57600080fd5b600160a060020a0316600090815260209190915260409020805460ff1916600117905556fea165627a7a72305820222b06412a5d698197540ad17c1bc30b7af62bb79cd92b9db7b0a1f529ac806e0029",
  "source": "pragma solidity ^0.5.0;\n\nimport '../access/roles/MemberRole.sol';\nimport '../math/SafeMath.sol';\nimport '../token/ERC20/IERC20.sol';\nimport '../poll/BasePoll.sol';\n\ncontract Reward is BasePoll, MemberRole {\n    using SafeMath for uint256;\n\n    enum RewardState { Pending, Approved, Rejected, Withdrawn }\n\n    event RewardStateChanged(uint256 id, RewardState state);\n\n    uint256 public constant REWARD_POLL_DURATION = 3 minutes;\n\n    uint256 public id;\n    uint256 public rule;\n    address public beneficiary;\n    address public benefactor;\n    uint256 public amount;\n    RewardState public state;\n    uint256 public created;\n\n    mapping (address => uint256[]) public voters;\n\n    constructor(\n        uint256 _id,\n        uint256 _rule,\n        address _beneficiary,\n        address _benefactor,\n        uint256 _amount,\n        address _tokenAddress,\n        address _poolAddress\n    ) public onlyMember\n        BasePoll(_tokenAddress, _poolAddress, now, now + REWARD_POLL_DURATION, false)\n    {\n        id = _id;\n        rule = _rule;\n        beneficiary = _beneficiary;\n        benefactor = _benefactor;\n        amount = _amount;\n        state = RewardState.Pending;\n        created = now;\n\n        emit RewardStateChanged(id, state);\n    }\n\n    /**\n    * @dev Check if the reward is approved.\n    */\n    function withdrawalAllowed() public view returns (bool) {\n        return state == RewardState.Approved;\n    }\n\n    /**\n    * @dev Withdraw accumulated balance for a beneficiary.\n    */\n    function withdraw() public {\n        uint256 poolBalance = token.balanceOf(address(pool));\n\n        require(withdrawalAllowed());\n        require(msg.sender == beneficiary);\n        require(amount > 0);\n        require(poolBalance >= amount);\n\n        pool.onWithdrawel(beneficiary, amount, created);\n\n        state = RewardState.Withdrawn;\n    }\n\n    /**\n    * @dev callback called after poll finalization\n    */\n    function onPollFinish(bool agree) internal {\n        if (agree && finalized) {\n            _onApproval();\n        }\n        else {\n            _onRejection();\n        }\n\n        pool.onRewardPollFinish(id, agree);\n    }\n\n    /**\n    * @dev callback called after reward is withdrawn\n    */\n    function _onApproval() internal {\n        state = RewardState.Approved;\n        emit RewardStateChanged(id, state);\n    }\n\n    /**\n    * @dev callback called after reward is rejected\n    */\n    function _onRejection() internal {\n        state = RewardState.Rejected;\n        emit RewardStateChanged(id, state);\n    }\n\n}\n",
  "sourcePath": "/Users/peterpolman/Sites/thx/wallet/contracts/reward/Reward.sol",
  "compiler": {
    "name": "solc",
    "version": "0.5.0+commit.1d4f565a.Emscripten.clang"
  },
  "schemaVersion": "3.0.1",
  "updatedAt": "2020-03-31T16:40:02.785Z",
  "devdoc": {
    "methods": {
      "revokeVote(address)": {
        "details": "Revoke user`s vote",
        "params": {
          "voter": "The address of the user voting"
        }
      },
      "vote(address,bool)": {
        "details": "Process user`s vote",
        "params": {
          "agree": "True if user endorses the proposal else False",
          "voter": "The address of the user voting"
        }
      },
      "withdraw()": {
        "details": "Withdraw accumulated balance for a beneficiary."
      },
      "withdrawalAllowed()": {
        "details": "Check if the reward is approved."
      }
    }
  },
  "userdoc": {
    "methods": {
      "tryToFinalize()": {
        "notice": "Finalize poll and call onPollFinish callback with result"
      }
    }
  }
}