{
  "contractName": "RewardPool",
  "abi": [
    {
      "constant": true,
      "inputs": [],
      "name": "name",
      "outputs": [
        {
          "name": "",
          "type": "string"
        }
      ],
      "payable": false,
      "stateMutability": "view",
      "type": "function",
      "signature": "0x06fdde03"
    },
    {
      "constant": false,
      "inputs": [
        {
          "name": "account",
          "type": "address"
        }
      ],
      "name": "addManager",
      "outputs": [],
      "payable": false,
      "stateMutability": "nonpayable",
      "type": "function",
      "signature": "0x2d06177a"
    },
    {
      "constant": true,
      "inputs": [
        {
          "name": "",
          "type": "address"
        },
        {
          "name": "",
          "type": "uint256"
        }
      ],
      "name": "withdrawels",
      "outputs": [
        {
          "name": "",
          "type": "uint256"
        }
      ],
      "payable": false,
      "stateMutability": "view",
      "type": "function",
      "signature": "0x505e4b4a"
    },
    {
      "constant": true,
      "inputs": [
        {
          "name": "",
          "type": "address"
        },
        {
          "name": "",
          "type": "uint256"
        }
      ],
      "name": "beneficiaries",
      "outputs": [
        {
          "name": "",
          "type": "uint256"
        }
      ],
      "payable": false,
      "stateMutability": "view",
      "type": "function",
      "signature": "0x529849e9"
    },
    {
      "constant": true,
      "inputs": [
        {
          "name": "",
          "type": "uint256"
        }
      ],
      "name": "transactions",
      "outputs": [
        {
          "name": "id",
          "type": "uint256"
        },
        {
          "name": "sender",
          "type": "address"
        },
        {
          "name": "receiver",
          "type": "address"
        },
        {
          "name": "amount",
          "type": "uint256"
        }
      ],
      "payable": false,
      "stateMutability": "view",
      "type": "function",
      "signature": "0x9ace38c2"
    },
    {
      "constant": true,
      "inputs": [
        {
          "name": "",
          "type": "address"
        },
        {
          "name": "",
          "type": "uint256"
        }
      ],
      "name": "deposits",
      "outputs": [
        {
          "name": "",
          "type": "uint256"
        }
      ],
      "payable": false,
      "stateMutability": "view",
      "type": "function",
      "signature": "0xd6d68177"
    },
    {
      "constant": true,
      "inputs": [
        {
          "name": "",
          "type": "uint256"
        }
      ],
      "name": "rewards",
      "outputs": [
        {
          "name": "id",
          "type": "uint256"
        },
        {
          "name": "slug",
          "type": "string"
        },
        {
          "name": "beneficiary",
          "type": "address"
        },
        {
          "name": "amount",
          "type": "uint256"
        },
        {
          "name": "state",
          "type": "uint8"
        }
      ],
      "payable": false,
      "stateMutability": "view",
      "type": "function",
      "signature": "0xf301af42"
    },
    {
      "constant": true,
      "inputs": [
        {
          "name": "account",
          "type": "address"
        }
      ],
      "name": "isManager",
      "outputs": [
        {
          "name": "",
          "type": "bool"
        }
      ],
      "payable": false,
      "stateMutability": "view",
      "type": "function",
      "signature": "0xf3ae2415"
    },
    {
      "constant": false,
      "inputs": [],
      "name": "renounceManager",
      "outputs": [],
      "payable": false,
      "stateMutability": "nonpayable",
      "type": "function",
      "signature": "0xf8b91abe"
    },
    {
      "constant": true,
      "inputs": [],
      "name": "token",
      "outputs": [
        {
          "name": "",
          "type": "address"
        }
      ],
      "payable": false,
      "stateMutability": "view",
      "type": "function",
      "signature": "0xfc0c546a"
    },
    {
      "inputs": [
        {
          "name": "_name",
          "type": "string"
        },
        {
          "name": "_tokenAddress",
          "type": "address"
        }
      ],
      "payable": false,
      "stateMutability": "nonpayable",
      "type": "constructor",
      "signature": "constructor"
    },
    {
      "anonymous": false,
      "inputs": [
        {
          "indexed": true,
          "name": "sender",
          "type": "address"
        },
        {
          "indexed": false,
          "name": "amount",
          "type": "uint256"
        }
      ],
      "name": "Deposited",
      "type": "event",
      "signature": "0x2da466a7b24304f47e87fa2e1e5a81b9831ce54fec19055ce277ca2f39ba42c4"
    },
    {
      "anonymous": false,
      "inputs": [
        {
          "indexed": true,
          "name": "beneficiary",
          "type": "address"
        },
        {
          "indexed": false,
          "name": "amount",
          "type": "uint256"
        },
        {
          "indexed": false,
          "name": "id",
          "type": "uint256"
        }
      ],
      "name": "Withdrawn",
      "type": "event",
      "signature": "0x92ccf450a286a957af52509bc1c9939d1a6a481783e142e41e2499f0bb66ebc6"
    },
    {
      "anonymous": false,
      "inputs": [
        {
          "indexed": true,
          "name": "account",
          "type": "address"
        }
      ],
      "name": "ManagerAdded",
      "type": "event",
      "signature": "0x3b4a40cccf2058c593542587329dd385be4f0b588db5471fbd9598e56dd7093a"
    },
    {
      "anonymous": false,
      "inputs": [
        {
          "indexed": true,
          "name": "account",
          "type": "address"
        }
      ],
      "name": "ManagerRemoved",
      "type": "event",
      "signature": "0xef69f7d97228658c92417be1b16b19058315de71fecb435d07b7d23728b6bd31"
    },
    {
      "constant": false,
      "inputs": [
        {
          "name": "amount",
          "type": "uint256"
        }
      ],
      "name": "deposit",
      "outputs": [],
      "payable": false,
      "stateMutability": "nonpayable",
      "type": "function",
      "signature": "0xb6b55f25"
    },
    {
      "constant": true,
      "inputs": [
        {
          "name": "id",
          "type": "uint256"
        }
      ],
      "name": "withdrawalAllowed",
      "outputs": [
        {
          "name": "",
          "type": "bool"
        }
      ],
      "payable": false,
      "stateMutability": "view",
      "type": "function",
      "signature": "0xc9ff4fa4"
    },
    {
      "constant": false,
      "inputs": [
        {
          "name": "slug",
          "type": "string"
        },
        {
          "name": "amount",
          "type": "uint256"
        }
      ],
      "name": "add",
      "outputs": [],
      "payable": false,
      "stateMutability": "nonpayable",
      "type": "function",
      "signature": "0x36555b85"
    },
    {
      "constant": false,
      "inputs": [
        {
          "name": "id",
          "type": "uint256"
        }
      ],
      "name": "approve",
      "outputs": [],
      "payable": false,
      "stateMutability": "nonpayable",
      "type": "function",
      "signature": "0xb759f954"
    },
    {
      "constant": false,
      "inputs": [
        {
          "name": "id",
          "type": "uint256"
        }
      ],
      "name": "reject",
      "outputs": [],
      "payable": false,
      "stateMutability": "nonpayable",
      "type": "function",
      "signature": "0xb8adaa11"
    },
    {
      "constant": true,
      "inputs": [],
      "name": "countRewards",
      "outputs": [
        {
          "name": "",
          "type": "uint256"
        }
      ],
      "payable": false,
      "stateMutability": "view",
      "type": "function",
      "signature": "0x0bd028c0"
    },
    {
      "constant": true,
      "inputs": [],
      "name": "countTransactions",
      "outputs": [
        {
          "name": "",
          "type": "uint256"
        }
      ],
      "payable": false,
      "stateMutability": "view",
      "type": "function",
      "signature": "0xf81fc230"
    },
    {
      "constant": true,
      "inputs": [
        {
          "name": "sender",
          "type": "address"
        }
      ],
      "name": "countRewardsOf",
      "outputs": [
        {
          "name": "",
          "type": "uint256"
        }
      ],
      "payable": false,
      "stateMutability": "view",
      "type": "function",
      "signature": "0x7895a0c5"
    },
    {
      "constant": true,
      "inputs": [
        {
          "name": "sender",
          "type": "address"
        }
      ],
      "name": "countDepositsOf",
      "outputs": [
        {
          "name": "",
          "type": "uint256"
        }
      ],
      "payable": false,
      "stateMutability": "view",
      "type": "function",
      "signature": "0x0586dfc8"
    },
    {
      "constant": true,
      "inputs": [
        {
          "name": "sender",
          "type": "address"
        }
      ],
      "name": "countWithdrawelsOf",
      "outputs": [
        {
          "name": "",
          "type": "uint256"
        }
      ],
      "payable": false,
      "stateMutability": "view",
      "type": "function",
      "signature": "0xf3dbff91"
    }
  ],
  "bytecode": "0x60806040523480156200001157600080fd5b506040516200180338038062001803833981018060405260408110156200003757600080fd5b8101908080516401000000008111156200005057600080fd5b820160208101848111156200006457600080fd5b81516401000000008111828201871017156200007f57600080fd5b50506020909101519092509050620000a033640100000000620000dd810204565b8151620000b5906007906020850190620001c2565b5060068054600160a060020a031916600160a060020a03929092169190911790555062000267565b620000f8600082640100000000620013c46200012f82021704565b604051600160a060020a038216907f3b4a40cccf2058c593542587329dd385be4f0b588db5471fbd9598e56dd7093a90600090a250565b600160a060020a03811615156200014557600080fd5b6200015a82826401000000006200018a810204565b156200016557600080fd5b600160a060020a0316600090815260209190915260409020805460ff19166001179055565b6000600160a060020a0382161515620001a257600080fd5b50600160a060020a03166000908152602091909152604090205460ff1690565b828054600181600116156101000203166002900490600052602060002090601f016020900481019282601f106200020557805160ff191683800117855562000235565b8280016001018555821562000235579182015b828111156200023557825182559160200191906001019062000218565b506200024392915062000247565b5090565b6200026491905b808211156200024357600081556001016200024e565b90565b61158c80620002776000396000f3fe6080604052600436106101115763ffffffff7c01000000000000000000000000000000000000000000000000000000006000350416630586dfc8811461011657806306fdde031461015b5780630bd028c0146101e55780632d06177a146101fa57806336555b851461022f578063505e4b4a146102e4578063529849e91461031d5780637895a0c5146103565780639ace38c214610389578063b6b55f25146103e5578063b759f9541461040f578063b8adaa1114610439578063c9ff4fa414610463578063d6d68177146104a1578063f301af42146104da578063f3ae2415146105b8578063f3dbff91146105eb578063f81fc2301461061e578063f8b91abe14610633578063fc0c546a14610648575b600080fd5b34801561012257600080fd5b506101496004803603602081101561013957600080fd5b5035600160a060020a0316610679565b60408051918252519081900360200190f35b34801561016757600080fd5b50610170610694565b6040805160208082528351818301528351919283929083019185019080838360005b838110156101aa578181015183820152602001610192565b50505050905090810190601f1680156101d75780820380516001836020036101000a031916815260200191505b509250505060405180910390f35b3480156101f157600080fd5b50610149610722565b34801561020657600080fd5b5061022d6004803603602081101561021d57600080fd5b5035600160a060020a0316610729565b005b34801561023b57600080fd5b5061022d6004803603604081101561025257600080fd5b81019060208101813564010000000081111561026d57600080fd5b82018360208201111561027f57600080fd5b803590602001918460018302840111640100000000831117156102a157600080fd5b91908080601f0160208091040260200160405190810160405280939291908181526020018383808284376000920191909152509295505091359250610749915050565b3480156102f057600080fd5b506101496004803603604081101561030757600080fd5b50600160a060020a038135169060200135610854565b34801561032957600080fd5b506101496004803603604081101561034057600080fd5b50600160a060020a038135169060200135610884565b34801561036257600080fd5b506101496004803603602081101561037957600080fd5b5035600160a060020a031661089f565b34801561039557600080fd5b506103b3600480360360208110156103ac57600080fd5b50356108ba565b60408051948552600160a060020a03938416602086015291909216838201526060830191909152519081900360800190f35b3480156103f157600080fd5b5061022d6004803603602081101561040857600080fd5b50356108fe565b34801561041b57600080fd5b5061022d6004803603602081101561043257600080fd5b5035610b49565b34801561044557600080fd5b5061022d6004803603602081101561045c57600080fd5b5035610c52565b34801561046f57600080fd5b5061048d6004803603602081101561048657600080fd5b5035610d1e565b604080519115158252519081900360200190f35b3480156104ad57600080fd5b50610149600480360360408110156104c457600080fd5b50600160a060020a038135169060200135610d59565b3480156104e657600080fd5b50610504600480360360208110156104fd57600080fd5b5035610d74565b604051808681526020018060200185600160a060020a0316600160a060020a0316815260200184815260200183600381111561053c57fe5b60ff168152602001828103825286818151815260200191508051906020019080838360005b83811015610579578181015183820152602001610561565b50505050905090810190601f1680156105a65780820380516001836020036101000a031916815260200191505b50965050505050505060405180910390f35b3480156105c457600080fd5b5061048d600480360360208110156105db57600080fd5b5035600160a060020a0316610e5f565b3480156105f757600080fd5b506101496004803603602081101561060e57600080fd5b5035600160a060020a0316610e77565b34801561062a57600080fd5b50610149610e92565b34801561063f57600080fd5b5061022d610e98565b34801561065457600080fd5b5061065d610ea3565b60408051600160a060020a039092168252519081900360200190f35b600160a060020a031660009081526001602052604090205490565b6007805460408051602060026001851615610100026000190190941693909304601f8101849004840282018401909252818152929183018282801561071a5780601f106106ef5761010080835404028352916020019161071a565b820191906000526020600020905b8154815290600101906020018083116106fd57829003601f168201915b505050505081565b6005545b90565b61073233610e5f565b151561073d57600080fd5b61074681610eb2565b50565b61075161145e565b6005548152602081018390523360408201526060810182905260006080820181905250600580546001810180835560008390528351919092027f036b6384b5eca791c62761152d0c79bb0604c104a5fb6f4eb0703f3154bb3db0810191825560208085015180518694936107eb937f036b6384b5eca791c62761152d0c79bb0604c104a5fb6f4eb0703f3154bb3db19091019201906114a1565b5060408201518160020160006101000a815481600160a060020a030219169083600160a060020a031602179055506060820151816003015560808201518160040160006101000a81548160ff0219169083600381111561084757fe5b0217905550505050505050565b60026020528160005260406000208181548110151561086f57fe5b90600052602060002001600091509150505481565b60036020528160005260406000208181548110151561086f57fe5b600160a060020a031660009081526003602052604090205490565b60048054829081106108c857fe5b60009182526020909120600490910201805460018201546002830154600390930154919350600160a060020a0390811692169084565b600654604080517f70a082310000000000000000000000000000000000000000000000000000000081523360048201529051600092600160a060020a0316916370a08231916024808301926020929190829003018186803b15801561096257600080fd5b505afa158015610976573d6000803e3d6000fd5b505050506040513d602081101561098c57600080fd5b50511161099857600080fd5b600081116109a557600080fd5b600654604080517f1302afc2000000000000000000000000000000000000000000000000000000008152336004820152306024820152604481018490529051600160a060020a0390921691631302afc2916064808201926020929091908290030181600087803b158015610a1857600080fd5b505af1158015610a2c573d6000803e3d6000fd5b505050506040513d6020811015610a4257600080fd5b5050600654604080517f62cd70e2000000000000000000000000000000000000000000000000000000008152336004820152306024820152604481018490529051600160a060020a03909216916362cd70e2916064808201926020929091908290030181600087803b158015610ab757600080fd5b505af1158015610acb573d6000803e3d6000fd5b505050506040513d6020811015610ae157600080fd5b505060408051828152905133917f2da466a7b24304f47e87fa2e1e5a81b9831ce54fec19055ce277ca2f39ba42c4919081900360200190a26000610b26333084610efa565b336000908152600160208181526040832080549283018155835290912001555050565b610b5233610e5f565b1515610b5d57600080fd5b60006005805483908110610b6d57fe5b600091825260209091206004600590920201015460ff166003811115610b8f57fe5b1480610bca575060026005805483908110610ba657fe5b600091825260209091206004600590920201015460ff166003811115610bc857fe5b145b1515610bd557600080fd5b6005805482908110610be357fe5b6000918252602090912060059091020160020154600160a060020a0316331415610c0c57600080fd5b6001600582815481101515610c1d57fe5b60009182526020909120600460059092020101805460ff19166001836003811115610c4457fe5b021790555061074681611007565b610c5b33610e5f565b1515610c6657600080fd5b60006005805483908110610c7657fe5b600091825260209091206004600590920201015460ff166003811115610c9857fe5b1480610cd3575060016005805483908110610caf57fe5b600091825260209091206004600590920201015460ff166003811115610cd157fe5b145b1515610cde57600080fd5b6002600582815481101515610cef57fe5b60009182526020909120600460059092020101805460ff19166001836003811115610d1657fe5b021790555050565b600060016005805484908110610d3057fe5b600091825260209091206004600590920201015460ff166003811115610d5257fe5b1492915050565b60016020528160005260406000208181548110151561086f57fe5b6005805482908110610d8257fe5b9060005260206000209060050201600091509050806000015490806001018054600181600116156101000203166002900480601f016020809104026020016040519081016040528092919081815260200182805460018160011615610100020316600290048015610e345780601f10610e0957610100808354040283529160200191610e34565b820191906000526020600020905b815481529060010190602001808311610e1757829003601f168201915b50505050600283015460038401546004909401549293600160a060020a039091169290915060ff1685565b6000610e71818363ffffffff61134516565b92915050565b600160a060020a031660009081526002602052604090205490565b60045490565b610ea13361137c565b565b600654600160a060020a031681565b610ec360008263ffffffff6113c416565b604051600160a060020a038216907f3b4a40cccf2058c593542587329dd385be4f0b588db5471fbd9598e56dd7093a90600090a250565b6000610f0461151f565b60048054808352600160a060020a039687166020840190815295871660408401908152606084019586526001820183556000839052925191027f8a35acfbc15ff81a39ae7d344fd709f28e8600b4aa8c65c6b64bfe7fe36bd19b810182905594517f8a35acfbc15ff81a39ae7d344fd709f28e8600b4aa8c65c6b64bfe7fe36bd19c8601805491881673ffffffffffffffffffffffffffffffffffffffff1992831617905591517f8a35acfbc15ff81a39ae7d344fd709f28e8600b4aa8c65c6b64bfe7fe36bd19d860180549190971692169190911790945550517f8a35acfbc15ff81a39ae7d344fd709f28e8600b4aa8c65c6b64bfe7fe36bd19e9091015590565b600060058281548110151561101857fe5b9060005260206000209060050201600301549050600060058381548110151561103d57fe5b6000918252602080832060059290920290910160020154600654604080517f70a082310000000000000000000000000000000000000000000000000000000081523060048201529051600160a060020a03938416965092909116926370a0823192602480840193829003018186803b1580156110b857600080fd5b505afa1580156110cc573d6000803e3d6000fd5b505050506040513d60208110156110e257600080fd5b505190503015156110f257600080fd5b6110fb84610d1e565b151561110657600080fd5b6000831161111357600080fd5b8281101561112057600080fd5b600654604080517f095ea7b3000000000000000000000000000000000000000000000000000000008152306004820152602481018690529051600160a060020a039092169163095ea7b3916044808201926020929091908290030181600087803b15801561118d57600080fd5b505af11580156111a1573d6000803e3d6000fd5b505050506040513d60208110156111b757600080fd5b5050600654604080517f23b872dd000000000000000000000000000000000000000000000000000000008152306004820152600160a060020a03858116602483015260448201879052915191909216916323b872dd9160648083019260209291908290030181600087803b15801561122e57600080fd5b505af1158015611242573d6000803e3d6000fd5b505050506040513d602081101561125857600080fd5b505060058054600391908690811061126c57fe5b60009182526020909120600460059092020101805460ff1916600183600381111561129357fe5b021790555060408051848152602081018690528151600160a060020a038516927f92ccf450a286a957af52509bc1c9939d1a6a481783e142e41e2499f0bb66ebc6928290030190a2600160a060020a03821660009081526003602090815260408220805460018101825590835290822001859055611312308486610efa565b600160a060020a039093166000908152600260209081526040822080546001810182559083529120019290925550505050565b6000600160a060020a038216151561135c57600080fd5b50600160a060020a03166000908152602091909152604090205460ff1690565b61138d60008263ffffffff61141216565b604051600160a060020a038216907fef69f7d97228658c92417be1b16b19058315de71fecb435d07b7d23728b6bd3190600090a250565b600160a060020a03811615156113d957600080fd5b6113e38282611345565b156113ed57600080fd5b600160a060020a0316600090815260209190915260409020805460ff19166001179055565b600160a060020a038116151561142757600080fd5b6114318282611345565b151561143c57600080fd5b600160a060020a0316600090815260209190915260409020805460ff19169055565b60a06040519081016040528060008152602001606081526020016000600160a060020a03168152602001600081526020016000600381111561149c57fe5b905290565b828054600181600116156101000203166002900490600052602060002090601f016020900481019282601f106114e257805160ff191683800117855561150f565b8280016001018555821561150f579182015b8281111561150f5782518255916020019190600101906114f4565b5061151b929150611546565b5090565b60408051608081018252600080825260208201819052918101829052606081019190915290565b61072691905b8082111561151b576000815560010161154c56fea165627a7a723058206cf4fea137f6b1e713ca0b7fc0ef1654e011a683d0b22bd6980043ef39cbc0f10029",
  "source": "pragma solidity ^0.5.0;\n\nimport './access/roles/ManagerRole.sol';\nimport \"./math/SafeMath.sol\";\nimport './THXToken.sol';\n\ncontract RewardPool is ManagerRole {\n    using SafeMath for uint256;\n\n    event Deposited(address indexed sender, uint256 amount);\n    event Withdrawn(address indexed beneficiary, uint256 amount, uint256 id);\n\n    enum State { Pending, Approved, Rejected, Withdrawn }\n\n    struct Reward {\n        uint256 id;\n        string slug;\n        address beneficiary;\n        uint256 amount;\n        State state;\n    }\n\n    struct Transaction {\n      uint256 id;\n      address sender;\n      address receiver;\n      uint256 amount;\n    }\n\n    mapping (address => uint256[]) public deposits;\n    mapping (address => uint256[]) public withdrawels;\n    mapping (address => uint256[]) public beneficiaries;\n\n    Transaction[] public transactions;\n    Reward[] public rewards;\n\n    THXToken public token;\n    string public name;\n\n    constructor(string memory _name, address _tokenAddress) public\n    {\n        name = _name;\n        token = THXToken(_tokenAddress);\n    }\n\n    /**\n    * @dev Stores the sent amount as tokens in the Reward Pool.\n    * @param amount The amount the sender deposited.\n    */\n    function deposit(uint256 amount) public {\n        require(token.balanceOf(msg.sender) > 0);\n        require(amount > 0);\n\n        // Approve the token transaction.\n        token.approveDeposit(msg.sender, address(this), amount);\n        // Transfer the tokens from the sender to the pool\n        token.transferDeposit(msg.sender, address(this), amount);\n\n        emit Deposited(msg.sender, amount);\n\n        uint256 tid = _registerTransaction(msg.sender, address(this), amount);\n        deposits[msg.sender].push(tid);\n    }\n\n    /**\n    * @dev Checks if the reward is approved.\n    * @param id The id of the reward.\n    */\n    function withdrawalAllowed(uint256 id) public view returns (bool) {\n        return rewards[id].state == State.Approved;\n    }\n\n    /**\n    * @dev Creates the suggested reward.\n    * @param slug Short name for the reward.\n    * @param amount Reward size suggested for the beneficiary.\n    */\n    function add(string memory slug, uint256 amount) public {\n        Reward memory reward;\n\n        reward.id = rewards.length;\n        reward.slug = slug;\n        reward.beneficiary = msg.sender;\n        reward.amount = amount;\n        reward.state = State.Pending;\n\n        rewards.push(reward);\n    }\n\n    /**\n    * @dev Approves the suggested reward.\n    * @param id The id of the reward.\n    */\n    function approve(uint256 id) public onlyManager {\n        require(rewards[id].state == State.Pending || rewards[id].state == State.Rejected);\n        require(msg.sender != rewards[id].beneficiary);\n\n        rewards[id].state = State.Approved;\n\n        // Withdraw the reward\n        _withdraw(id);\n    }\n\n    /**\n    * @dev Rejects the suggested reward.\n    * @param id The id of the reward.\n    */\n    function reject(uint256 id) public onlyManager {\n        require(rewards[id].state == State.Pending || rewards[id].state == State.Approved);\n\n        rewards[id].state = State.Rejected;\n    }\n\n    /**\n    * @dev Counts the amount of rewards.\n    */\n    function countRewards() public view returns (uint256) {\n        return rewards.length;\n    }\n\n    /**\n    * @dev Counts the amount of rewards.\n    */\n    function countTransactions() public view returns (uint256) {\n        return transactions.length;\n    }\n\n    /**\n    * @dev Counts the amount of rewards for a certain Beneficiary.\n    */\n    function countRewardsOf(address sender) public view returns (uint256) {\n        return beneficiaries[sender].length;\n    }\n\n    /**\n    * @dev Counts the amount of deposits.\n    */\n    function countDepositsOf(address sender) public view returns (uint256) {\n        return deposits[sender].length;\n    }\n\n    /**\n    * @dev Counts the amount of withdrawels.\n    */\n    function countWithdrawelsOf(address sender) public view returns (uint256) {\n        return withdrawels[sender].length;\n    }\n\n    /**\n    * @dev Registers a transaction.\n    * @param sender The address of the sender.\n    * @param receiver The address of the receiver.\n    * @param amount The amount the sender sent to the receiver.\n    */\n    function _registerTransaction(address sender, address receiver, uint256 amount) internal returns (uint256) {\n        Transaction memory transaction;\n\n        transaction.id = transactions.length;\n        transaction.sender = sender;\n        transaction.receiver = receiver;\n        transaction.amount = amount;\n\n        transactions.push(transaction);\n\n        return transaction.id;\n    }\n\n    /**\n    * @dev Withdraw accumulated balance for a beneficiary.\n    * @param id The id of the reward.\n    */\n    function _withdraw(uint256 id) internal {\n        uint256 amount = rewards[id].amount;\n        address beneficiary = rewards[id].beneficiary;\n        uint256 tokenBalance = token.balanceOf(address(this));\n\n        require(address(this) != address(0));\n        require(withdrawalAllowed(id));\n        require(amount > 0);\n        require(tokenBalance >= amount);\n\n        // Approve the token transaction.\n        token.approve(address(this), amount);\n        // Transfer the tokens from the pool to the beneficiary.\n        token.transferFrom(address(this), beneficiary, amount);\n\n        rewards[id].state = State.Withdrawn;\n\n        emit Withdrawn(beneficiary, amount, id);\n\n        beneficiaries[beneficiary].push(id);\n\n        uint256 tid = _registerTransaction(address(this), beneficiary, amount);\n        withdrawels[beneficiary].push(tid);\n    }\n}\n",
  "sourcePath": "/Users/peterpolman/Sites/thx_client/contracts/RewardPool.sol",
  "compiler": {
    "name": "solc",
    "version": "0.5.0+commit.1d4f565a.Emscripten.clang"
  },
  "schemaVersion": "3.0.1",
  "updatedAt": "2019-01-20T15:00:29.170Z",
  "devdoc": {
    "methods": {
      "add(string,uint256)": {
        "details": "Creates the suggested reward.",
        "params": {
          "amount": "Reward size suggested for the beneficiary.",
          "slug": "Short name for the reward."
        }
      },
      "approve(uint256)": {
        "details": "Approves the suggested reward.",
        "params": {
          "id": "The id of the reward."
        }
      },
      "countDepositsOf(address)": {
        "details": "Counts the amount of deposits."
      },
      "countRewards()": {
        "details": "Counts the amount of rewards."
      },
      "countRewardsOf(address)": {
        "details": "Counts the amount of rewards for a certain Beneficiary."
      },
      "countTransactions()": {
        "details": "Counts the amount of rewards."
      },
      "countWithdrawelsOf(address)": {
        "details": "Counts the amount of withdrawels."
      },
      "deposit(uint256)": {
        "details": "Stores the sent amount as tokens in the Reward Pool.",
        "params": {
          "amount": "The amount the sender deposited."
        }
      },
      "reject(uint256)": {
        "details": "Rejects the suggested reward.",
        "params": {
          "id": "The id of the reward."
        }
      },
      "withdrawalAllowed(uint256)": {
        "details": "Checks if the reward is approved.",
        "params": {
          "id": "The id of the reward."
        }
      }
    }
  },
  "userdoc": {
    "methods": {}
  }
}