{
  "contractName": "RewardPool",
  "abi": [
    {
      "constant": true,
      "inputs": [],
      "name": "creator",
      "outputs": [
        {
          "name": "",
          "type": "address"
        }
      ],
      "payable": false,
      "stateMutability": "view",
      "type": "function",
      "signature": "0x02d05d3f"
    },
    {
      "constant": true,
      "inputs": [
        {
          "name": "",
          "type": "uint256"
        }
      ],
      "name": "rules",
      "outputs": [
        {
          "name": "id",
          "type": "uint256"
        },
        {
          "name": "slug",
          "type": "string"
        },
        {
          "name": "amount",
          "type": "uint256"
        },
        {
          "name": "state",
          "type": "uint8"
        },
        {
          "name": "creator",
          "type": "address"
        },
        {
          "name": "created",
          "type": "uint256"
        }
      ],
      "payable": false,
      "stateMutability": "view",
      "type": "function",
      "signature": "0x04d6ded4"
    },
    {
      "constant": true,
      "inputs": [],
      "name": "name",
      "outputs": [
        {
          "name": "",
          "type": "string"
        }
      ],
      "payable": false,
      "stateMutability": "view",
      "type": "function",
      "signature": "0x06fdde03"
    },
    {
      "constant": false,
      "inputs": [
        {
          "name": "account",
          "type": "address"
        }
      ],
      "name": "addManager",
      "outputs": [],
      "payable": false,
      "stateMutability": "nonpayable",
      "type": "function",
      "signature": "0x2d06177a"
    },
    {
      "constant": true,
      "inputs": [],
      "name": "countRules",
      "outputs": [
        {
          "name": "",
          "type": "uint256"
        }
      ],
      "payable": false,
      "stateMutability": "view",
      "type": "function",
      "signature": "0x31c54032"
    },
    {
      "constant": false,
      "inputs": [
        {
          "name": "slug",
          "type": "string"
        },
        {
          "name": "amount",
          "type": "uint256"
        }
      ],
      "name": "createRule",
      "outputs": [],
      "payable": false,
      "stateMutability": "nonpayable",
      "type": "function",
      "signature": "0x35deeb4a"
    },
    {
      "constant": true,
      "inputs": [],
      "name": "RULE_POLL_DURATION",
      "outputs": [
        {
          "name": "",
          "type": "uint256"
        }
      ],
      "payable": false,
      "stateMutability": "view",
      "type": "function",
      "signature": "0x439c6f17"
    },
    {
      "constant": false,
      "inputs": [
        {
          "name": "id",
          "type": "uint256"
        },
        {
          "name": "proposedAmount",
          "type": "uint256"
        }
      ],
      "name": "startRulePoll",
      "outputs": [],
      "payable": false,
      "stateMutability": "nonpayable",
      "type": "function",
      "signature": "0x563b373d"
    },
    {
      "constant": true,
      "inputs": [
        {
          "name": "",
          "type": "address"
        },
        {
          "name": "",
          "type": "uint256"
        }
      ],
      "name": "voters",
      "outputs": [
        {
          "name": "",
          "type": "uint256"
        }
      ],
      "payable": false,
      "stateMutability": "view",
      "type": "function",
      "signature": "0x5c134d66"
    },
    {
      "constant": true,
      "inputs": [],
      "name": "rulePoll",
      "outputs": [
        {
          "name": "",
          "type": "address"
        }
      ],
      "payable": false,
      "stateMutability": "view",
      "type": "function",
      "signature": "0x6fb1270c"
    },
    {
      "constant": true,
      "inputs": [],
      "name": "minVotedTokensPerc",
      "outputs": [
        {
          "name": "",
          "type": "uint256"
        }
      ],
      "payable": false,
      "stateMutability": "view",
      "type": "function",
      "signature": "0x84219204"
    },
    {
      "constant": true,
      "inputs": [],
      "name": "MAX_VOTED_TOKEN_PERC",
      "outputs": [
        {
          "name": "",
          "type": "uint256"
        }
      ],
      "payable": false,
      "stateMutability": "view",
      "type": "function",
      "signature": "0x962c9c8d"
    },
    {
      "constant": true,
      "inputs": [
        {
          "name": "account",
          "type": "address"
        }
      ],
      "name": "isMember",
      "outputs": [
        {
          "name": "",
          "type": "bool"
        }
      ],
      "payable": false,
      "stateMutability": "view",
      "type": "function",
      "signature": "0xa230c524"
    },
    {
      "constant": false,
      "inputs": [],
      "name": "renounceMember",
      "outputs": [],
      "payable": false,
      "stateMutability": "nonpayable",
      "type": "function",
      "signature": "0xbad5ba01"
    },
    {
      "constant": false,
      "inputs": [
        {
          "name": "account",
          "type": "address"
        }
      ],
      "name": "addMember",
      "outputs": [],
      "payable": false,
      "stateMutability": "nonpayable",
      "type": "function",
      "signature": "0xca6d56dc"
    },
    {
      "constant": true,
      "inputs": [
        {
          "name": "",
          "type": "uint256"
        }
      ],
      "name": "rewards",
      "outputs": [
        {
          "name": "",
          "type": "address"
        }
      ],
      "payable": false,
      "stateMutability": "view",
      "type": "function",
      "signature": "0xf301af42"
    },
    {
      "constant": true,
      "inputs": [
        {
          "name": "account",
          "type": "address"
        }
      ],
      "name": "isManager",
      "outputs": [
        {
          "name": "",
          "type": "bool"
        }
      ],
      "payable": false,
      "stateMutability": "view",
      "type": "function",
      "signature": "0xf3ae2415"
    },
    {
      "constant": false,
      "inputs": [],
      "name": "renounceManager",
      "outputs": [],
      "payable": false,
      "stateMutability": "nonpayable",
      "type": "function",
      "signature": "0xf8b91abe"
    },
    {
      "constant": true,
      "inputs": [],
      "name": "token",
      "outputs": [
        {
          "name": "",
          "type": "address"
        }
      ],
      "payable": false,
      "stateMutability": "view",
      "type": "function",
      "signature": "0xfc0c546a"
    },
    {
      "inputs": [
        {
          "name": "_name",
          "type": "string"
        },
        {
          "name": "_tokenAddress",
          "type": "address"
        }
      ],
      "payable": false,
      "stateMutability": "nonpayable",
      "type": "constructor",
      "signature": "constructor"
    },
    {
      "anonymous": false,
      "inputs": [
        {
          "indexed": true,
          "name": "sender",
          "type": "address"
        },
        {
          "indexed": false,
          "name": "amount",
          "type": "uint256"
        },
        {
          "indexed": false,
          "name": "created",
          "type": "uint256"
        }
      ],
      "name": "Deposited",
      "type": "event",
      "signature": "0x73a19dd210f1a7f902193214c0ee91dd35ee5b4d920cba8d519eca65a7b488ca"
    },
    {
      "anonymous": false,
      "inputs": [
        {
          "indexed": true,
          "name": "beneficiary",
          "type": "address"
        },
        {
          "indexed": false,
          "name": "amount",
          "type": "uint256"
        },
        {
          "indexed": false,
          "name": "id",
          "type": "uint256"
        },
        {
          "indexed": false,
          "name": "created",
          "type": "uint256"
        }
      ],
      "name": "Withdrawn",
      "type": "event",
      "signature": "0x75e161b3e824b114fc1a33274bd7091918dd4e639cede50b78b15a4eea956a21"
    },
    {
      "anonymous": false,
      "inputs": [
        {
          "indexed": false,
          "name": "id",
          "type": "uint256"
        },
        {
          "indexed": false,
          "name": "approved",
          "type": "bool"
        }
      ],
      "name": "RewardPollFinished",
      "type": "event",
      "signature": "0xb07b6a4d3da57c26eeed54737d6979b2a65101898160f7eb26d9e58626a70c14"
    },
    {
      "anonymous": false,
      "inputs": [
        {
          "indexed": false,
          "name": "id",
          "type": "uint256"
        },
        {
          "indexed": false,
          "name": "proposedAmount",
          "type": "uint256"
        }
      ],
      "name": "RulePollCreated",
      "type": "event",
      "signature": "0x9bd49e167f8ad588627e6f5b6a02b84c5a6ee245ce327afa99ade561bcbc284d"
    },
    {
      "anonymous": false,
      "inputs": [
        {
          "indexed": false,
          "name": "id",
          "type": "uint256"
        },
        {
          "indexed": false,
          "name": "approved",
          "type": "bool"
        }
      ],
      "name": "RulePollFinished",
      "type": "event",
      "signature": "0x118384964387422ef394126dcae83b6fc97ee2a5c14d8729ebc59cc3d1ce3f44"
    },
    {
      "anonymous": false,
      "inputs": [
        {
          "indexed": false,
          "name": "id",
          "type": "uint256"
        },
        {
          "indexed": false,
          "name": "state",
          "type": "uint8"
        }
      ],
      "name": "RuleStateChanged",
      "type": "event",
      "signature": "0x2da08c9afbca94a7781f242bd0193bf9a13ebd681b7fead14822408e3fbe78e9"
    },
    {
      "anonymous": false,
      "inputs": [
        {
          "indexed": true,
          "name": "account",
          "type": "address"
        }
      ],
      "name": "MemberAdded",
      "type": "event",
      "signature": "0xb251eb052afc73ffd02ffe85ad79990a8b3fed60d76dbc2fa2fdd7123dffd914"
    },
    {
      "anonymous": false,
      "inputs": [
        {
          "indexed": true,
          "name": "account",
          "type": "address"
        }
      ],
      "name": "MemberRemoved",
      "type": "event",
      "signature": "0x6e76fb4c77256006d9c38ec7d82b45a8c8f3c27b1d6766fffc42dfb8de684492"
    },
    {
      "anonymous": false,
      "inputs": [
        {
          "indexed": true,
          "name": "account",
          "type": "address"
        }
      ],
      "name": "ManagerAdded",
      "type": "event",
      "signature": "0x3b4a40cccf2058c593542587329dd385be4f0b588db5471fbd9598e56dd7093a"
    },
    {
      "anonymous": false,
      "inputs": [
        {
          "indexed": true,
          "name": "account",
          "type": "address"
        }
      ],
      "name": "ManagerRemoved",
      "type": "event",
      "signature": "0xef69f7d97228658c92417be1b16b19058315de71fecb435d07b7d23728b6bd31"
    },
    {
      "constant": false,
      "inputs": [
        {
          "name": "value",
          "type": "string"
        }
      ],
      "name": "updatePoolName",
      "outputs": [],
      "payable": false,
      "stateMutability": "nonpayable",
      "type": "function",
      "signature": "0xf0b33435"
    },
    {
      "constant": false,
      "inputs": [
        {
          "name": "amount",
          "type": "uint256"
        }
      ],
      "name": "deposit",
      "outputs": [],
      "payable": false,
      "stateMutability": "nonpayable",
      "type": "function",
      "signature": "0xb6b55f25"
    },
    {
      "constant": true,
      "inputs": [],
      "name": "countRewards",
      "outputs": [
        {
          "name": "",
          "type": "uint256"
        }
      ],
      "payable": false,
      "stateMutability": "view",
      "type": "function",
      "signature": "0x0bd028c0"
    },
    {
      "constant": false,
      "inputs": [
        {
          "name": "slug",
          "type": "string"
        },
        {
          "name": "amount",
          "type": "uint256"
        }
      ],
      "name": "createReward",
      "outputs": [],
      "payable": false,
      "stateMutability": "nonpayable",
      "type": "function",
      "signature": "0x10437844"
    }
  ],
  "bytecode": "0x608060405260006005553480156200001657600080fd5b50604051620034ec380380620034ec833981018060405260408110156200003c57600080fd5b8101908080516401000000008111156200005557600080fd5b820160208101848111156200006957600080fd5b81516401000000008111828201871017156200008457600080fd5b50506020909101519092509050620000a533640100000000620000ff810204565b620000b93364010000000062000151810204565b8151620000ce90600890602085019062000236565b5060078054600160a060020a03909216600160a060020a0319928316179055600980549091163317905550620002db565b6200011a600082640100000000620012e1620001a382021704565b604051600160a060020a038216907f3b4a40cccf2058c593542587329dd385be4f0b588db5471fbd9598e56dd7093a90600090a250565b6200016c600182640100000000620012e1620001a382021704565b604051600160a060020a038216907fb251eb052afc73ffd02ffe85ad79990a8b3fed60d76dbc2fa2fdd7123dffd91490600090a250565b600160a060020a0381161515620001b957600080fd5b620001ce8282640100000000620001fe810204565b15620001d957600080fd5b600160a060020a0316600090815260209190915260409020805460ff19166001179055565b6000600160a060020a03821615156200021657600080fd5b50600160a060020a03166000908152602091909152604090205460ff1690565b828054600181600116156101000203166002900490600052602060002090601f016020900481019282601f106200027957805160ff1916838001178555620002a9565b82800160010185558215620002a9579182015b82811115620002a95782518255916020019190600101906200028c565b50620002b7929150620002bb565b5090565b620002d891905b80821115620002b75760008155600101620002c2565b90565b61320180620002eb6000396000f3fe6080604052600436106200014a5763ffffffff7c010000000000000000000000000000000000000000000000000000000060003504166302d05d3f81146200014f57806304d6ded4146200018357806306fdde0314620002705780630bd028c0146200030057806310437844146200032a5780632d06177a14620003e857806331c54032146200041f57806335deeb4a1462000437578063439c6f1714620004f3578063563b373d146200050b5780635c134d66146200053f5780636fb1270c146200057c578063842192041462000594578063962c9c8d14620005ac578063a230c52414620005c4578063b6b55f25146200060f578063bad5ba01146200063d578063ca6d56dc1462000655578063f0b33435146200068c578063f301af421462000746578063f3ae24151462000774578063f8b91abe14620007ab578063fc0c546a14620007c3575b600080fd5b3480156200015c57600080fd5b5062000167620007db565b60408051600160a060020a039092168252519081900360200190f35b3480156200019057600080fd5b50620001b160048036036020811015620001a957600080fd5b5035620007ea565b6040518087815260200180602001868152602001856002811115620001d257fe5b60ff16815260200184600160a060020a0316600160a060020a03168152602001838152602001828103825287818151815260200191508051906020019080838360005b838110156200022f57818101518382015260200162000215565b50505050905090810190601f1680156200025d5780820380516001836020036101000a031916815260200191505b5097505050505050505060405180910390f35b3480156200027d57600080fd5b5062000288620008e0565b6040805160208082528351818301528351919283929083019185019080838360005b83811015620002c4578181015183820152602001620002aa565b50505050905090810190601f168015620002f25780820380516001836020036101000a031916815260200191505b509250505060405180910390f35b3480156200030d57600080fd5b506200031862000972565b60408051918252519081900360200190f35b3480156200033757600080fd5b50620003e6600480360360408110156200035057600080fd5b8101906020810181356401000000008111156200036c57600080fd5b8201836020820111156200037f57600080fd5b80359060200191846001830284011164010000000083111715620003a257600080fd5b91908080601f016020809104026020016040519081016040528093929190818152602001838380828437600092019190915250929550509135925062000979915050565b005b348015620003f557600080fd5b50620003e6600480360360208110156200040e57600080fd5b5035600160a060020a031662000abb565b3480156200042c57600080fd5b506200031862000ae0565b3480156200044457600080fd5b50620003e6600480360360408110156200045d57600080fd5b8101906020810181356401000000008111156200047957600080fd5b8201836020820111156200048c57600080fd5b80359060200191846001830284011164010000000083111715620004af57600080fd5b91908080601f016020809104026020016040519081016040528093929190818152602001838380828437600092019190915250929550509135925062000ae6915050565b3480156200050057600080fd5b506200031862000c79565b3480156200051857600080fd5b50620003e6600480360360408110156200053157600080fd5b508035906020013562000c80565b3480156200054c57600080fd5b5062000318600480360360408110156200056557600080fd5b50600160a060020a03813516906020013562000e39565b3480156200058957600080fd5b506200016762000e6a565b348015620005a157600080fd5b506200031862000e79565b348015620005b957600080fd5b506200031862000e7f565b348015620005d157600080fd5b50620005fb60048036036020811015620005ea57600080fd5b5035600160a060020a031662000e84565b604080519115158252519081900360200190f35b3480156200061c57600080fd5b50620003e6600480360360208110156200063557600080fd5b503562000e9f565b3480156200064a57600080fd5b50620003e6620010cb565b3480156200066257600080fd5b50620003e6600480360360208110156200067b57600080fd5b5035600160a060020a0316620010d8565b3480156200069957600080fd5b50620003e660048036036020811015620006b257600080fd5b810190602081018135640100000000811115620006ce57600080fd5b820183602082011115620006e157600080fd5b803590602001918460018302840111640100000000831117156200070457600080fd5b91908080601f016020809104026020016040519081016040528093929190818152602001838380828437600092019190915250929550620010fa945050505050565b3480156200075357600080fd5b5062000167600480360360208110156200076c57600080fd5b50356200112a565b3480156200078157600080fd5b50620005fb600480360360208110156200079a57600080fd5b5035600160a060020a031662001153565b348015620007b857600080fd5b50620003e662001167565b348015620007d057600080fd5b506200016762001172565b600954600160a060020a031681565b6006805482908110620007f957fe5b9060005260206000209060050201600091509050806000015490806001018054600181600116156101000203166002900480601f016020809104026020016040519081016040528092919081815260200182805460018160011615610100020316600290048015620008af5780601f106200088357610100808354040283529160200191620008af565b820191906000526020600020905b8154815290600101906020018083116200089157829003601f168201915b50505050600283015460038401546004909401549293909260ff82169250610100909104600160a060020a03169086565b6008805460408051602060026001851615610100026000190190941693909304601f810184900484028201840190925281815292918301828280156200096a5780601f106200093e576101008083540402835291602001916200096a565b820191906000526020600020905b8154815290600101906020018083116200094c57829003601f168201915b505050505081565b600a545b90565b600a5460075460009190849033908590600160a060020a0316306200099d62001383565b868152600160a060020a038086166040830152606082018590528381166080830152821660a082015260c06020808301828152885192840192909252875160e084019189019080838360005b8381101562000a03578181015183820152602001620009e9565b50505050905090810190601f16801562000a315780820380516001836020036101000a031916815260200191505b50975050505050505050604051809103906000f08015801562000a58573d6000803e3d6000fd5b50600a80546001810182556000919091527fc65a7bb8d6351c1cf70c95a316cc6a92839c986682d98bc35f958f4883f9d2a801805473ffffffffffffffffffffffffffffffffffffffff1916600160a060020a0392909216919091179055505050565b62000ac63362001153565b151562000ad257600080fd5b62000add8162001181565b50565b60065490565b62000af13362001153565b151562000afd57600080fd5b62000b0762001394565b600654808252602080830185905260408084018590526000606085018190523360808601524260a086015281519384529183019190915280517f2da08c9afbca94a7781f242bd0193bf9a13ebd681b7fead14822408e3fbe78e99281900390910190a16006805460018101808355600092909252825160059091027ff652222313e28459528d920b65115c16c04f3efc82aaedc97be59f3f377c0d3f8101918255602080850151805186949362000be5937ff652222313e28459528d920b65115c16c04f3efc82aaedc97be59f3f377c0d40909101920190620013d7565b506040820151816002015560608201518160030160006101000a81548160ff0219169083600281111562000c1557fe5b02179055506080820151600382018054600160a060020a039092166101000274ffffffffffffffffffffffffffffffffffffffff001990921691909117905560a090910151600490910155508051604082015162000c74919062000c80565b505050565b62093a8081565b62000c8b3362000e84565b151562000c9757600080fd5b600454600160a060020a0316158062000d36575060048054604080517fb3f05b970000000000000000000000000000000000000000000000000000000081529051600160a060020a039092169263b3f05b97928282019260209290829003018186803b15801562000d0757600080fd5b505afa15801562000d1c573d6000803e3d6000fd5b505050506040513d602081101562000d3357600080fd5b50515b151562000d4257600080fd5b600354600554429162093a8083019185918591600160a060020a0390911690859085903062000d706200145c565b9687526020870195909552600160a060020a039384166040808801919091526060870193909352608086019190915260a0850152911660c0830152519081900360e001906000f08015801562000dca573d6000803e3d6000fd5b506004805473ffffffffffffffffffffffffffffffffffffffff1916600160a060020a0392909216919091179055604080518581526020810185905281517f9bd49e167f8ad588627e6f5b6a02b84c5a6ee245ce327afa99ade561bcbc284d929181900390910190a150505050565b60026020528160005260406000208181548110151562000e5557fe5b90600052602060002001600091509150505481565b600454600160a060020a031681565b60055481565b600a81565b600062000e9960018363ffffffff620011cb16565b92915050565b600754604080517f70a082310000000000000000000000000000000000000000000000000000000081523360048201529051600092600160a060020a0316916370a08231916024808301926020929190829003018186803b15801562000f0457600080fd5b505afa15801562000f19573d6000803e3d6000fd5b505050506040513d602081101562000f3057600080fd5b50511162000f3d57600080fd5b6000811162000f4b57600080fd5b600754604080517f1302afc2000000000000000000000000000000000000000000000000000000008152336004820152306024820152604481018490529051600160a060020a0390921691631302afc2916064808201926020929091908290030181600087803b15801562000fbf57600080fd5b505af115801562000fd4573d6000803e3d6000fd5b505050506040513d602081101562000feb57600080fd5b5050600754604080517f62cd70e2000000000000000000000000000000000000000000000000000000008152336004820152306024820152604481018490529051600160a060020a03909216916362cd70e2916064808201926020929091908290030181600087803b1580156200106157600080fd5b505af115801562001076573d6000803e3d6000fd5b505050506040513d60208110156200108d57600080fd5b505060408051828152426020820152815133927f73a19dd210f1a7f902193214c0ee91dd35ee5b4d920cba8d519eca65a7b488ca928290030190a250565b620010d63362001203565b565b620010e33362000e84565b1515620010ef57600080fd5b62000add816200124d565b620011053362001153565b15156200111157600080fd5b805162001126906008906020840190620013d7565b5050565b600a8054829081106200113957fe5b600091825260209091200154600160a060020a0316905081565b600062000e99818363ffffffff620011cb16565b620010d63362001297565b600754600160a060020a031681565b6200119460008263ffffffff620012e116565b604051600160a060020a038216907f3b4a40cccf2058c593542587329dd385be4f0b588db5471fbd9598e56dd7093a90600090a250565b6000600160a060020a0382161515620011e357600080fd5b50600160a060020a03166000908152602091909152604090205460ff1690565b6200121660018263ffffffff6200133316565b604051600160a060020a038216907f6e76fb4c77256006d9c38ec7d82b45a8c8f3c27b1d6766fffc42dfb8de68449290600090a250565b6200126060018263ffffffff620012e116565b604051600160a060020a038216907fb251eb052afc73ffd02ffe85ad79990a8b3fed60d76dbc2fa2fdd7123dffd91490600090a250565b620012aa60008263ffffffff6200133316565b604051600160a060020a038216907fef69f7d97228658c92417be1b16b19058315de71fecb435d07b7d23728b6bd3190600090a250565b600160a060020a0381161515620012f757600080fd5b620013038282620011cb565b156200130e57600080fd5b600160a060020a0316600090815260209190915260409020805460ff19166001179055565b600160a060020a03811615156200134957600080fd5b620013558282620011cb565b15156200136157600080fd5b600160a060020a0316600090815260209190915260409020805460ff19169055565b604051611007806200148b83390190565b60c06040519081016040528060008152602001606081526020016000815260200160006002811115620013c357fe5b815260006020820181905260409091015290565b828054600181600116156101000203166002900490600052602060002090601f016020900481019282601f106200141a57805160ff19168380011785556200144a565b828001600101855582156200144a579182015b828111156200144a5782518255916020019190600101906200142d565b50620014589291506200146d565b5090565b604051610d44806200249283390190565b6200097691905b808211156200145857600081556001016200147456fe60806040526000600555600060065560006007553480156200002057600080fd5b506040516200100738038062001007833981018060405260c08110156200004657600080fd5b8151602083018051919392830192916401000000008111156200006857600080fd5b820160208101848111156200007c57600080fd5b81516401000000008111828201871017156200009757600080fd5b50506020820151604083015160608401516080909401516010546002546003549598509396509194939092600160a060020a0390921691906000620000e53364010000000062000210810204565b600160a060020a0384161515620000fb57600080fd5b4283101580156200010b57508282115b15156200011757600080fd5b60018054600160a060020a031916600160a060020a0395909516949094179093556002919091556003556008805460ff1990811690915560048054909116911515919091179055600a86905584516200017890600b906020880190620002f5565b50600c8054600160a060020a03868116600160a060020a031992831617909255600d859055600e805460ff1916905542600f5560108054821685841617905560118054909116918316919091179055600a54604080519182526000602083015280517f90ab42752b8b3a3e8bcb9cba7d57f5bf87db421f9885bb1c203f08d0ef199c209281900390910190a15050505050506200039a565b6200022b60008264010000000062000be36200026282021704565b604051600160a060020a038216907fb251eb052afc73ffd02ffe85ad79990a8b3fed60d76dbc2fa2fdd7123dffd91490600090a250565b600160a060020a03811615156200027857600080fd5b6200028d8282640100000000620002bd810204565b156200029857600080fd5b600160a060020a0316600090815260209190915260409020805460ff19166001179055565b6000600160a060020a0382161515620002d557600080fd5b50600160a060020a03166000908152602091909152604090205460ff1690565b828054600181600116156101000203166002900490600052602060002090601f016020900481019282601f106200033857805160ff191683800117855562000368565b8280016001018555821562000368579182015b82811115620003685782518255916020019190600101906200034b565b50620003769291506200037a565b5090565b6200039791905b8082111562000376576000815560010162000381565b90565b610c5d80620003aa6000396000f3fe6080604052600436106101535763ffffffff7c010000000000000000000000000000000000000000000000000000000060003504166316f0115b811461015857806328d21990146101895780633197cbb6146101b0578063325a19f1146101c557806336181026146101da57806338af3eed1461020357806341fdade61461021857806343c14b221461022d5780634b9f5c98146102445780635c134d661461027057806364a90292146102a95780636beb7959146102be57806378e979251461034857806380322cbd1461035d578063a1d1936114610372578063a230c52414610387578063a7491b48146103ba578063aa8c217c1461040d578063af640d0f14610422578063b3a2273f14610437578063b3f05b971461044c578063bad5ba0114610461578063c19d93fb14610476578063ca6d56dc146104af578063d74689e4146104e2578063fc0c546a146104f7575b600080fd5b34801561016457600080fd5b5061016d61050c565b60408051600160a060020a039092168252519081900360200190f35b34801561019557600080fd5b5061019e61051b565b60408051918252519081900360200190f35b3480156101bc57600080fd5b5061019e610522565b3480156101d157600080fd5b5061019e610528565b3480156101e657600080fd5b506101ef61052e565b604080519115158252519081900360200190f35b34801561020f57600080fd5b5061016d610577565b34801561022457600080fd5b5061019e610586565b34801561023957600080fd5b5061024261058c565b005b34801561025057600080fd5b506102426004803603602081101561026757600080fd5b50351515610648565b34801561027c57600080fd5b5061019e6004803603604081101561029357600080fd5b50600160a060020a038135169060200135610854565b3480156102b557600080fd5b5061019e610884565b3480156102ca57600080fd5b506102d361088a565b6040805160208082528351818301528351919283929083019185019080838360005b8381101561030d5781810151838201526020016102f5565b50505050905090810190601f16801561033a5780820380516001836020036101000a031916815260200191505b509250505060405180910390f35b34801561035457600080fd5b5061019e610918565b34801561036957600080fd5b506101ef61091e565b34801561037e57600080fd5b506101ef61092d565b34801561039357600080fd5b506101ef600480360360208110156103aa57600080fd5b5035600160a060020a0316610948565b3480156103c657600080fd5b506103ed600480360360208110156103dd57600080fd5b5035600160a060020a0316610960565b604080519384526020840192909252151582820152519081900360600190f35b34801561041957600080fd5b5061019e610984565b34801561042e57600080fd5b5061019e61098a565b34801561044357600080fd5b5061019e610990565b34801561045857600080fd5b506101ef610996565b34801561046d57600080fd5b5061024261099f565b34801561048257600080fd5b5061048b6109aa565b6040518082600381111561049b57fe5b60ff16815260200191505060405180910390f35b3480156104bb57600080fd5b50610242600480360360208110156104d257600080fd5b5035600160a060020a03166109b3565b3480156104ee57600080fd5b5061019e6109d3565b34801561050357600080fd5b5061016d6109d9565b601154600160a060020a031681565b62093a8081565b60035481565b600f5481565b60085460009060ff161561054157600080fd5b60035442101561055357506000610574565b6008805460ff1916600117905561057061056b6109e8565b6109f2565b5060015b90565b600c54600160a060020a031681565b6103e881565b60025442101580156105a057506003544211155b15156105ab57600080fd5b33600090815260096020526040812054116105c557600080fd5b33600090815260096020526040812060018082018054600284018054948690559490915560ff19831690935560075460ff909216916106099163ffffffff610a7e16565b600755801561062d57600554610625908363ffffffff610a7e16565b600555610644565b600654610640908363ffffffff610a7e16565b6006555b5050565b600254421015801561065c57506003544211155b151561066757600080fd5b61067033610948565b151561067b57600080fd5b336000908152600960205260409020541561069557600080fd5b600154604080517f70a082310000000000000000000000000000000000000000000000000000000081523360048201529051600092600160a060020a0316916370a08231916024808301926020929190829003018186803b1580156106f957600080fd5b505afa15801561070d573d6000803e3d6000fd5b505050506040513d602081101561072357600080fd5b5051600154604080517f18160ddd00000000000000000000000000000000000000000000000000000000815290519293506000926107c9926103e892600160a060020a03909116916318160ddd91600480820192602092909190829003018186803b15801561079157600080fd5b505afa1580156107a5573d6000803e3d6000fd5b505050506040513d60208110156107bb57600080fd5b50519063ffffffff610a9316565b9050808211156107d957806107db565b815b915082156107fe576005546107f6908363ffffffff610ab716565b600555610815565b600654610811908363ffffffff610ab716565b6006555b33600090815260096020526040902042815560018082018490556002909101805460ff191685151517905560075461084c91610ab7565b600755505050565b60126020528160005260406000208181548110151561086f57fe5b90600052602060002001600091509150505481565b60065481565b600b805460408051602060026001851615610100026000190190941693909304601f810184900484028201840190925281815292918301828280156109105780601f106108e557610100808354040283529160200191610910565b820191906000526020600020905b8154815290600101906020018083116108f357829003601f168201915b505050505081565b60025481565b60006109286109e8565b905090565b60006001600e5460ff16600381111561094257fe5b14905090565b600061095a818363ffffffff610ad016565b92915050565b60096020526000908152604090208054600182015460029092015490919060ff1683565b600d5481565b600a5481565b60075481565b60085460ff1681565b6109a833610b07565b565b600e5460ff1681565b6109bc33610948565b15156109c757600080fd5b6109d081610b4f565b50565b60055481565b601054600160a060020a031681565b6006546005541190565b601154600a54604080517f7370407d0000000000000000000000000000000000000000000000000000000081526004810192909252831515602483015251600160a060020a0390921691637370407d9160448082019260009290919082900301818387803b158015610a6357600080fd5b505af1158015610a77573d6000803e3d6000fd5b5050505050565b600082821115610a8d57600080fd5b50900390565b6000808211610aa157600080fd5b60008284811515610aae57fe5b04949350505050565b600082820183811015610ac957600080fd5b9392505050565b6000600160a060020a0382161515610ae757600080fd5b50600160a060020a03166000908152602091909152604090205460ff1690565b610b1860008263ffffffff610b9716565b604051600160a060020a038216907f6e76fb4c77256006d9c38ec7d82b45a8c8f3c27b1d6766fffc42dfb8de68449290600090a250565b610b6060008263ffffffff610be316565b604051600160a060020a038216907fb251eb052afc73ffd02ffe85ad79990a8b3fed60d76dbc2fa2fdd7123dffd91490600090a250565b600160a060020a0381161515610bac57600080fd5b610bb68282610ad0565b1515610bc157600080fd5b600160a060020a0316600090815260209190915260409020805460ff19169055565b600160a060020a0381161515610bf857600080fd5b610c028282610ad0565b15610c0c57600080fd5b600160a060020a0316600090815260209190915260409020805460ff1916600117905556fea165627a7a72305820ad634d814bce205d350008808e1ec651d9e2fd2a16cf683afdbd45ccadf57256002960806040526000600555600060065560006007556000600a5534801561002457600080fd5b5060405160e080610d44833981018060405260e081101561004457600080fd5b508051602082015160408301516060840151608085015160a086015160c090960151949593949293919290919084848460006100883364010000000061012a810204565b600160a060020a038416151561009d57600080fd5b4283101580156100ac57508282115b15156100b757600080fd5b60018054600160a060020a0319908116600160a060020a03968716179091556002939093556003919091556008805460ff1990811690915560048054909116911515919091179055600b98909855600a92909255600c95909555600d805490961694169390931790935550610207915050565b610142600082640100000000610ab461017982021704565b604051600160a060020a038216907fb251eb052afc73ffd02ffe85ad79990a8b3fed60d76dbc2fa2fdd7123dffd91490600090a250565b600160a060020a038116151561018e57600080fd5b6101a182826401000000006101d0810204565b156101ab57600080fd5b600160a060020a0316600090815260209190915260409020805460ff19166001179055565b6000600160a060020a03821615156101e757600080fd5b50600160a060020a03166000908152602091909152604090205460ff1690565b610b2e806102166000396000f3fe60806040526004361061011c5763ffffffff7c010000000000000000000000000000000000000000000000000000000060003504166316f0115b81146101215780632c24909c146101525780633197cbb614610179578063361810261461018e57806341fdade6146101b757806343c14b22146101cc5780634b9f5c98146101e35780634e9e8e731461020f57806364a90292146102245780636f6a97621461023957806378e979251461024e57806380322cbd14610263578063a230c52414610278578063a7491b48146102ab578063af640d0f146102fe578063b3a2273f14610313578063b3f05b9714610328578063bad5ba011461033d578063ca6d56dc14610352578063d74689e414610385578063fc0c546a1461039a575b600080fd5b34801561012d57600080fd5b506101366103af565b60408051600160a060020a039092168252519081900360200190f35b34801561015e57600080fd5b506101676103be565b60408051918252519081900360200190f35b34801561018557600080fd5b50610167610497565b34801561019a57600080fd5b506101a361049d565b604080519115158252519081900360200190f35b3480156101c357600080fd5b506101676104e5565b3480156101d857600080fd5b506101e16104eb565b005b3480156101ef57600080fd5b506101e16004803603602081101561020657600080fd5b503515156105a7565b34801561021b57600080fd5b506101676107b3565b34801561023057600080fd5b506101676107b9565b34801561024557600080fd5b506101676107bf565b34801561025a57600080fd5b506101676107c5565b34801561026f57600080fd5b506101a36107cb565b34801561028457600080fd5b506101a36004803603602081101561029b57600080fd5b5035600160a060020a03166107da565b3480156102b757600080fd5b506102de600480360360208110156102ce57600080fd5b5035600160a060020a03166107f2565b604080519384526020840192909252151582820152519081900360600190f35b34801561030a57600080fd5b50610167610816565b34801561031f57600080fd5b5061016761081c565b34801561033457600080fd5b506101a3610822565b34801561034957600080fd5b506101e161082b565b34801561035e57600080fd5b506101e16004803603602081101561037557600080fd5b5035600160a060020a0316610836565b34801561039157600080fd5b50610167610856565b3480156103a657600080fd5b5061013661085c565b600d54600160a060020a031681565b6000806103d860065460055461086b90919063ffffffff16565b9050610490600160009054906101000a9004600160a060020a0316600160a060020a03166318160ddd6040518163ffffffff167c010000000000000000000000000000000000000000000000000000000002815260040160206040518083038186803b15801561044757600080fd5b505afa15801561045b573d6000803e3d6000fd5b505050506040513d602081101561047157600080fd5b505161048483606463ffffffff61088416565b9063ffffffff6108af16565b9150505b90565b60035481565b60085460009060ff16156104b057600080fd5b6003544210156104c257506000610494565b6008805460ff191660011790556104df6104da6108d3565b6108f5565b50600190565b6103e881565b60025442101580156104ff57506003544211155b151561050a57600080fd5b336000908152600960205260408120541161052457600080fd5b33600090815260096020526040812060018082018054600284018054948690559490915560ff19831690935560075460ff909216916105689163ffffffff61098c16565b600755801561058c57600554610584908363ffffffff61098c16565b6005556105a3565b60065461059f908363ffffffff61098c16565b6006555b5050565b60025442101580156105bb57506003544211155b15156105c657600080fd5b6105cf336107da565b15156105da57600080fd5b33600090815260096020526040902054156105f457600080fd5b600154604080517f70a082310000000000000000000000000000000000000000000000000000000081523360048201529051600092600160a060020a0316916370a08231916024808301926020929190829003018186803b15801561065857600080fd5b505afa15801561066c573d6000803e3d6000fd5b505050506040513d602081101561068257600080fd5b5051600154604080517f18160ddd0000000000000000000000000000000000000000000000000000000081529051929350600092610728926103e892600160a060020a03909116916318160ddd91600480820192602092909190829003018186803b1580156106f057600080fd5b505afa158015610704573d6000803e3d6000fd5b505050506040513d602081101561071a57600080fd5b50519063ffffffff6108af16565b905080821115610738578061073a565b815b9150821561075d57600554610755908363ffffffff61086b16565b600555610774565b600654610770908363ffffffff61086b16565b6006555b33600090815260096020526040902042815560018082018490556002909101805460ff19168515151790556007546107ab9161086b565b600755505050565b600c5481565b60065481565b600a5481565b60025481565b60006107d56108d3565b905090565b60006107ec818363ffffffff6109a116565b92915050565b60096020526000908152604090208054600182015460029092015490919060ff1683565b600b5481565b60075481565b60085460ff1681565b610834336109d8565b565b61083f336107da565b151561084a57600080fd5b61085381610a20565b50565b60055481565b600154600160a060020a031681565b60008282018381101561087d57600080fd5b9392505050565b6000821515610895575060006107ec565b8282028284828115156108a457fe5b041461087d57600080fd5b60008082116108bd57600080fd5b600082848115156108ca57fe5b04949350505050565b60006006546005541180156107d55750600a546108ee6103be565b1015905090565b600d54600b54600c54604080517f607ca15b00000000000000000000000000000000000000000000000000000000815260048101939093528415156024840152604483019190915251600160a060020a039092169163607ca15b9160648082019260009290919082900301818387803b15801561097157600080fd5b505af1158015610985573d6000803e3d6000fd5b5050505050565b60008282111561099b57600080fd5b50900390565b6000600160a060020a03821615156109b857600080fd5b50600160a060020a03166000908152602091909152604090205460ff1690565b6109e960008263ffffffff610a6816565b604051600160a060020a038216907f6e76fb4c77256006d9c38ec7d82b45a8c8f3c27b1d6766fffc42dfb8de68449290600090a250565b610a3160008263ffffffff610ab416565b604051600160a060020a038216907fb251eb052afc73ffd02ffe85ad79990a8b3fed60d76dbc2fa2fdd7123dffd91490600090a250565b600160a060020a0381161515610a7d57600080fd5b610a8782826109a1565b1515610a9257600080fd5b600160a060020a0316600090815260209190915260409020805460ff19169055565b600160a060020a0381161515610ac957600080fd5b610ad382826109a1565b15610add57600080fd5b600160a060020a0316600090815260209190915260409020805460ff1916600117905556fea165627a7a723058207dc36f79452532cd62a93d2ba9603e76511c07e357d04faa1920b67c33ebd9600029a165627a7a7230582007cbc23424182c05786e43f2b3127dcf8e4e9b9c04f0161e0119dd049b975ea10029",
  "source": "pragma solidity ^0.5.0;\n\nimport './reward/Reward.sol';\nimport './rule/Rules.sol';\nimport './THXToken.sol';\n\ncontract RewardPool is ManagerRole, Rules {\n\n    event Deposited(address indexed sender, uint256 amount, uint256 created);\n    event Withdrawn(address indexed beneficiary, uint256 amount, uint256 id, uint256 created);\n\n    event RewardPollFinished(uint256 id, bool approved);\n\n    THXToken public token;\n    string public name;\n    address public creator;\n\n    Reward[] public rewards;\n\n    constructor(string memory _name, address _tokenAddress) public {\n        name = _name;\n        token = THXToken(_tokenAddress);\n        creator = msg.sender;\n    }\n\n    /**\n    * @dev Updates the pool name set initially through the constructor.\n    * @param value The new pool name.\n    */\n    function updatePoolName(string memory value) public onlyManager {\n        name = value;\n    }\n\n    /**\n    * @dev Stores the sent amount as tokens in the Reward Pool.\n    * @param amount The amount the sender deposited.\n    */\n    function deposit(uint256 amount) public {\n        require(token.balanceOf(msg.sender) > 0);\n        require(amount > 0);\n\n        // Approve the token transaction.\n        token.approveDeposit(msg.sender, address(this), amount);\n\n        // Transfer the tokens from the sender to the pool\n        token.transferDeposit(msg.sender, address(this), amount);\n\n        emit Deposited(msg.sender, amount, now);\n    }\n\n    /**\n    * @dev Counts the amount of rewards.\n    */\n    function countRewards() public view returns (uint256) {\n        return rewards.length;\n    }\n\n    /**\n    * @dev Creates the suggested reward.\n    * @param slug Short readable description of reward.\n    * @param amount Reward size suggested for the beneficiary.\n    */\n    function createReward(string memory slug, uint256 amount) public {\n        Reward reward = new Reward(rewards.length, slug, msg.sender, amount, address(token), address(this));\n        rewards.push(reward);\n    }\n\n    /**\n    * @dev Called when poll is finished\n    * @param agree Bool for checking the result of the poll.\n    */\n    function onRewardPollFinish(uint256 id, bool agree) internal {\n        require(rewards[id].finalized());\n        if(agree) {\n            _withdraw(id);\n        }\n        emit RewardPollFinished(id, agree);\n    }\n\n    /**\n    * @dev Withdraw accumulated balance for a beneficiary.\n    */\n    function _withdraw(uint256 id) internal onlyMember {\n        uint256 tokenBalance = token.balanceOf(address(this));\n\n        require(rewards[id].withdrawalAllowed());\n        require(rewards[id].amount() > 0);\n        require(tokenBalance >= rewards[id].amount());\n\n        // Approve the token transaction.\n        token.approve(address(this), rewards[id].amount());\n        // Transfer the tokens from the pool to the beneficiary.\n        token.transferFrom(address(this), rewards[id].beneficiary(), rewards[id].amount());\n\n        emit Withdrawn(rewards[id].beneficiary(), rewards[id].amount(), id, now);\n\n        delete rewards[id];\n    }\n\n}\n",
  "sourcePath": "/Users/peterpolman/Sites/thx_client/contracts/RewardPool.sol",
  "compiler": {
    "name": "solc",
    "version": "0.5.0+commit.1d4f565a.Emscripten.clang"
  },
  "schemaVersion": "3.0.1",
  "updatedAt": "2019-08-06T12:57:06.696Z",
  "devdoc": {
    "methods": {
      "countRewards()": {
        "details": "Counts the amount of rewards."
      },
      "countRules()": {
        "details": "Counts the amount of rules."
      },
      "createReward(string,uint256)": {
        "details": "Creates the suggested reward.",
        "params": {
          "amount": "Reward size suggested for the beneficiary.",
          "slug": "Short readable description of reward."
        }
      },
      "createRule(string,uint256)": {
        "details": "Creates the initial reward rule.",
        "params": {
          "amount": "Reward size suggested for the beneficiary.",
          "slug": "Short readable description of rule."
        }
      },
      "deposit(uint256)": {
        "details": "Stores the sent amount as tokens in the Reward Pool.",
        "params": {
          "amount": "The amount the sender deposited."
        }
      },
      "startRulePoll(uint256,uint256)": {
        "details": "Starts the rule poll for chaning the amount."
      },
      "updatePoolName(string)": {
        "details": "Updates the pool name set initially through the constructor.",
        "params": {
          "value": "The new pool name."
        }
      }
    }
  },
  "userdoc": {
    "methods": {}
  }
}