{
  "contractName": "RewardPool",
  "abi": [
    {
      "constant": true,
      "inputs": [
        {
          "name": "",
          "type": "uint256"
        }
      ],
      "name": "rules",
      "outputs": [
        {
          "name": "id",
          "type": "uint256"
        },
        {
          "name": "key",
          "type": "string"
        },
        {
          "name": "slug",
          "type": "string"
        },
        {
          "name": "amount",
          "type": "uint256"
        },
        {
          "name": "state",
          "type": "uint8"
        },
        {
          "name": "creator",
          "type": "address"
        },
        {
          "name": "created",
          "type": "uint256"
        }
      ],
      "payable": false,
      "stateMutability": "view",
      "type": "function",
      "signature": "0x04d6ded4"
    },
    {
      "constant": true,
      "inputs": [],
      "name": "name",
      "outputs": [
        {
          "name": "",
          "type": "string"
        }
      ],
      "payable": false,
      "stateMutability": "view",
      "type": "function",
      "signature": "0x06fdde03"
    },
    {
      "constant": false,
      "inputs": [
        {
          "name": "account",
          "type": "address"
        }
      ],
      "name": "addManager",
      "outputs": [],
      "payable": false,
      "stateMutability": "nonpayable",
      "type": "function",
      "signature": "0x2d06177a"
    },
    {
      "constant": true,
      "inputs": [
        {
          "name": "",
          "type": "address"
        },
        {
          "name": "",
          "type": "uint256"
        }
      ],
      "name": "withdrawels",
      "outputs": [
        {
          "name": "",
          "type": "uint256"
        }
      ],
      "payable": false,
      "stateMutability": "view",
      "type": "function",
      "signature": "0x505e4b4a"
    },
    {
      "constant": true,
      "inputs": [
        {
          "name": "",
          "type": "address"
        },
        {
          "name": "",
          "type": "uint256"
        }
      ],
      "name": "beneficiaries",
      "outputs": [
        {
          "name": "",
          "type": "uint256"
        }
      ],
      "payable": false,
      "stateMutability": "view",
      "type": "function",
      "signature": "0x529849e9"
    },
    {
      "constant": true,
      "inputs": [
        {
          "name": "",
          "type": "uint256"
        }
      ],
      "name": "transactions",
      "outputs": [
        {
          "name": "id",
          "type": "uint256"
        },
        {
          "name": "sender",
          "type": "address"
        },
        {
          "name": "receiver",
          "type": "address"
        },
        {
          "name": "amount",
          "type": "uint256"
        }
      ],
      "payable": false,
      "stateMutability": "view",
      "type": "function",
      "signature": "0x9ace38c2"
    },
    {
      "constant": true,
      "inputs": [
        {
          "name": "",
          "type": "address"
        },
        {
          "name": "",
          "type": "uint256"
        }
      ],
      "name": "deposits",
      "outputs": [
        {
          "name": "",
          "type": "uint256"
        }
      ],
      "payable": false,
      "stateMutability": "view",
      "type": "function",
      "signature": "0xd6d68177"
    },
    {
      "constant": true,
      "inputs": [
        {
          "name": "",
          "type": "uint256"
        }
      ],
      "name": "rewards",
      "outputs": [
        {
          "name": "id",
          "type": "uint256"
        },
        {
          "name": "key",
          "type": "string"
        },
        {
          "name": "slug",
          "type": "string"
        },
        {
          "name": "beneficiary",
          "type": "address"
        },
        {
          "name": "amount",
          "type": "uint256"
        },
        {
          "name": "state",
          "type": "uint8"
        },
        {
          "name": "created",
          "type": "uint256"
        }
      ],
      "payable": false,
      "stateMutability": "view",
      "type": "function",
      "signature": "0xf301af42"
    },
    {
      "constant": true,
      "inputs": [
        {
          "name": "account",
          "type": "address"
        }
      ],
      "name": "isManager",
      "outputs": [
        {
          "name": "",
          "type": "bool"
        }
      ],
      "payable": false,
      "stateMutability": "view",
      "type": "function",
      "signature": "0xf3ae2415"
    },
    {
      "constant": false,
      "inputs": [],
      "name": "renounceManager",
      "outputs": [],
      "payable": false,
      "stateMutability": "nonpayable",
      "type": "function",
      "signature": "0xf8b91abe"
    },
    {
      "constant": true,
      "inputs": [],
      "name": "token",
      "outputs": [
        {
          "name": "",
          "type": "address"
        }
      ],
      "payable": false,
      "stateMutability": "view",
      "type": "function",
      "signature": "0xfc0c546a"
    },
    {
      "inputs": [
        {
          "name": "_name",
          "type": "string"
        },
        {
          "name": "_tokenAddress",
          "type": "address"
        }
      ],
      "payable": false,
      "stateMutability": "nonpayable",
      "type": "constructor",
      "signature": "constructor"
    },
    {
      "anonymous": false,
      "inputs": [
        {
          "indexed": true,
          "name": "sender",
          "type": "address"
        },
        {
          "indexed": false,
          "name": "amount",
          "type": "uint256"
        }
      ],
      "name": "Deposited",
      "type": "event",
      "signature": "0x2da466a7b24304f47e87fa2e1e5a81b9831ce54fec19055ce277ca2f39ba42c4"
    },
    {
      "anonymous": false,
      "inputs": [
        {
          "indexed": true,
          "name": "beneficiary",
          "type": "address"
        },
        {
          "indexed": false,
          "name": "amount",
          "type": "uint256"
        },
        {
          "indexed": false,
          "name": "id",
          "type": "uint256"
        }
      ],
      "name": "Withdrawn",
      "type": "event",
      "signature": "0x92ccf450a286a957af52509bc1c9939d1a6a481783e142e41e2499f0bb66ebc6"
    },
    {
      "anonymous": false,
      "inputs": [
        {
          "indexed": false,
          "name": "id",
          "type": "uint256"
        },
        {
          "indexed": false,
          "name": "key",
          "type": "string"
        },
        {
          "indexed": false,
          "name": "slug",
          "type": "string"
        },
        {
          "indexed": false,
          "name": "beneficiary",
          "type": "address"
        },
        {
          "indexed": false,
          "name": "amount",
          "type": "uint256"
        },
        {
          "indexed": false,
          "name": "state",
          "type": "uint8"
        },
        {
          "indexed": false,
          "name": "created",
          "type": "uint256"
        }
      ],
      "name": "RewardStateChanged",
      "type": "event",
      "signature": "0xa4f6ee9b30f956805d63519b8e58b48ca7deb1b47de5dbfec6100373d0796dd1"
    },
    {
      "anonymous": false,
      "inputs": [
        {
          "indexed": false,
          "name": "id",
          "type": "uint256"
        },
        {
          "indexed": false,
          "name": "key",
          "type": "string"
        },
        {
          "indexed": false,
          "name": "slug",
          "type": "string"
        },
        {
          "indexed": false,
          "name": "amount",
          "type": "uint256"
        },
        {
          "indexed": false,
          "name": "state",
          "type": "uint8"
        },
        {
          "indexed": false,
          "name": "creator",
          "type": "address"
        },
        {
          "indexed": false,
          "name": "created",
          "type": "uint256"
        }
      ],
      "name": "RuleStateChanged",
      "type": "event",
      "signature": "0xe98998242bb09cae95bec2e97c6b9a224ef4e8e5adc11696fa3b17520aed05c9"
    },
    {
      "anonymous": false,
      "inputs": [
        {
          "indexed": true,
          "name": "account",
          "type": "address"
        }
      ],
      "name": "ManagerAdded",
      "type": "event",
      "signature": "0x3b4a40cccf2058c593542587329dd385be4f0b588db5471fbd9598e56dd7093a"
    },
    {
      "anonymous": false,
      "inputs": [
        {
          "indexed": true,
          "name": "account",
          "type": "address"
        }
      ],
      "name": "ManagerRemoved",
      "type": "event",
      "signature": "0xef69f7d97228658c92417be1b16b19058315de71fecb435d07b7d23728b6bd31"
    },
    {
      "constant": false,
      "inputs": [
        {
          "name": "amount",
          "type": "uint256"
        }
      ],
      "name": "deposit",
      "outputs": [],
      "payable": false,
      "stateMutability": "nonpayable",
      "type": "function",
      "signature": "0xb6b55f25"
    },
    {
      "constant": true,
      "inputs": [
        {
          "name": "id",
          "type": "uint256"
        }
      ],
      "name": "withdrawalAllowed",
      "outputs": [
        {
          "name": "",
          "type": "bool"
        }
      ],
      "payable": false,
      "stateMutability": "view",
      "type": "function",
      "signature": "0xc9ff4fa4"
    },
    {
      "constant": false,
      "inputs": [
        {
          "name": "key",
          "type": "string"
        },
        {
          "name": "slug",
          "type": "string"
        },
        {
          "name": "amount",
          "type": "uint256"
        }
      ],
      "name": "addRule",
      "outputs": [],
      "payable": false,
      "stateMutability": "nonpayable",
      "type": "function",
      "signature": "0x57b8e5e2"
    },
    {
      "constant": false,
      "inputs": [
        {
          "name": "value",
          "type": "string"
        }
      ],
      "name": "updatePoolName",
      "outputs": [],
      "payable": false,
      "stateMutability": "nonpayable",
      "type": "function",
      "signature": "0xf0b33435"
    },
    {
      "constant": false,
      "inputs": [
        {
          "name": "id",
          "type": "uint256"
        }
      ],
      "name": "approveRule",
      "outputs": [],
      "payable": false,
      "stateMutability": "nonpayable",
      "type": "function",
      "signature": "0x9962c782"
    },
    {
      "constant": false,
      "inputs": [
        {
          "name": "id",
          "type": "uint256"
        }
      ],
      "name": "rejectRule",
      "outputs": [],
      "payable": false,
      "stateMutability": "nonpayable",
      "type": "function",
      "signature": "0x9533caa7"
    },
    {
      "constant": true,
      "inputs": [],
      "name": "countRules",
      "outputs": [
        {
          "name": "",
          "type": "uint256"
        }
      ],
      "payable": false,
      "stateMutability": "view",
      "type": "function",
      "signature": "0x31c54032"
    },
    {
      "constant": false,
      "inputs": [
        {
          "name": "key",
          "type": "string"
        },
        {
          "name": "slug",
          "type": "string"
        },
        {
          "name": "amount",
          "type": "uint256"
        }
      ],
      "name": "addReward",
      "outputs": [],
      "payable": false,
      "stateMutability": "nonpayable",
      "type": "function",
      "signature": "0x1138f94e"
    },
    {
      "constant": false,
      "inputs": [
        {
          "name": "id",
          "type": "uint256"
        }
      ],
      "name": "approveReward",
      "outputs": [],
      "payable": false,
      "stateMutability": "nonpayable",
      "type": "function",
      "signature": "0xe2d7e722"
    },
    {
      "constant": false,
      "inputs": [
        {
          "name": "id",
          "type": "uint256"
        }
      ],
      "name": "rejectReward",
      "outputs": [],
      "payable": false,
      "stateMutability": "nonpayable",
      "type": "function",
      "signature": "0xf0f9ad19"
    },
    {
      "constant": true,
      "inputs": [],
      "name": "countRewards",
      "outputs": [
        {
          "name": "",
          "type": "uint256"
        }
      ],
      "payable": false,
      "stateMutability": "view",
      "type": "function",
      "signature": "0x0bd028c0"
    },
    {
      "constant": true,
      "inputs": [],
      "name": "countTransactions",
      "outputs": [
        {
          "name": "",
          "type": "uint256"
        }
      ],
      "payable": false,
      "stateMutability": "view",
      "type": "function",
      "signature": "0xf81fc230"
    },
    {
      "constant": true,
      "inputs": [
        {
          "name": "sender",
          "type": "address"
        }
      ],
      "name": "countRewardsOf",
      "outputs": [
        {
          "name": "",
          "type": "uint256"
        }
      ],
      "payable": false,
      "stateMutability": "view",
      "type": "function",
      "signature": "0x7895a0c5"
    },
    {
      "constant": true,
      "inputs": [
        {
          "name": "sender",
          "type": "address"
        }
      ],
      "name": "countDepositsOf",
      "outputs": [
        {
          "name": "",
          "type": "uint256"
        }
      ],
      "payable": false,
      "stateMutability": "view",
      "type": "function",
      "signature": "0x0586dfc8"
    },
    {
      "constant": true,
      "inputs": [
        {
          "name": "sender",
          "type": "address"
        }
      ],
      "name": "countWithdrawelsOf",
      "outputs": [
        {
          "name": "",
          "type": "uint256"
        }
      ],
      "payable": false,
      "stateMutability": "view",
      "type": "function",
      "signature": "0xf3dbff91"
    }
  ],
  "bytecode": "0x60806040523480156200001157600080fd5b50604051620028b3380380620028b3833981018060405260408110156200003757600080fd5b8101908080516401000000008111156200005057600080fd5b820160208101848111156200006457600080fd5b81516401000000008111828201871017156200007f57600080fd5b50506020909101519092509050620000a033640100000000620000dd810204565b8151620000b5906008906020850190620001c2565b5060078054600160a060020a031916600160a060020a03929092169190911790555062000267565b620000f86000826401000000006200241c6200012f82021704565b604051600160a060020a038216907f3b4a40cccf2058c593542587329dd385be4f0b588db5471fbd9598e56dd7093a90600090a250565b600160a060020a03811615156200014557600080fd5b6200015a82826401000000006200018a810204565b156200016557600080fd5b600160a060020a0316600090815260209190915260409020805460ff19166001179055565b6000600160a060020a0382161515620001a257600080fd5b50600160a060020a03166000908152602091909152604090205460ff1690565b828054600181600116156101000203166002900490600052602060002090601f016020900481019282601f106200020557805160ff191683800117855562000235565b8280016001018555821562000235579182015b828111156200023557825182559160200191906001019062000218565b506200024392915062000247565b5090565b6200026491905b808211156200024357600081556001016200024e565b90565b61263c80620002776000396000f3fe6080604052600436106101535763ffffffff7c010000000000000000000000000000000000000000000000000000000060003504166304d6ded481146101585780630586dfc8146102a357806306fdde03146102e85780630bd028c0146103725780631138f94e146103875780632d06177a146104c557806331c54032146104f8578063505e4b4a1461050d578063529849e91461054657806357b8e5e21461057f5780637895a0c5146106bb5780639533caa7146106ee5780639962c782146107185780639ace38c214610742578063b6b55f251461079e578063c9ff4fa4146107c8578063d6d6817714610806578063e2d7e7221461083f578063f0b3343514610869578063f0f9ad191461091c578063f301af4214610946578063f3ae2415146109ee578063f3dbff9114610a21578063f81fc23014610a54578063f8b91abe14610a69578063fc0c546a14610a7e575b600080fd5b34801561016457600080fd5b506101826004803603602081101561017b57600080fd5b5035610aaf565b6040518088815260200180602001806020018781526020018660028111156101a657fe5b60ff16815260200185600160a060020a0316600160a060020a03168152602001848152602001838103835289818151815260200191508051906020019080838360005b838110156102015781810151838201526020016101e9565b50505050905090810190601f16801561022e5780820380516001836020036101000a031916815260200191505b5083810382528851815288516020918201918a019080838360005b83811015610261578181015183820152602001610249565b50505050905090810190601f16801561028e5780820380516001836020036101000a031916815260200191505b50995050505050505050505060405180910390f35b3480156102af57600080fd5b506102d6600480360360208110156102c657600080fd5b5035600160a060020a0316610c32565b60408051918252519081900360200190f35b3480156102f457600080fd5b506102fd610c4d565b6040805160208082528351818301528351919283929083019185019080838360005b8381101561033757818101518382015260200161031f565b50505050905090810190601f1680156103645780820380516001836020036101000a031916815260200191505b509250505060405180910390f35b34801561037e57600080fd5b506102d6610cdb565b34801561039357600080fd5b506104c3600480360360608110156103aa57600080fd5b8101906020810181356401000000008111156103c557600080fd5b8201836020820111156103d757600080fd5b803590602001918460018302840111640100000000831117156103f957600080fd5b91908080601f016020809104026020016040519081016040528093929190818152602001838380828437600092019190915250929594936020810193503591505064010000000081111561044c57600080fd5b82018360208201111561045e57600080fd5b8035906020019184600183028401116401000000008311171561048057600080fd5b91908080601f0160208091040260200160405190810160405280939291908181526020018383808284376000920191909152509295505091359250610ce2915050565b005b3480156104d157600080fd5b506104c3600480360360208110156104e857600080fd5b5035600160a060020a0316610f5d565b34801561050457600080fd5b506102d6610f7d565b34801561051957600080fd5b506102d66004803603604081101561053057600080fd5b50600160a060020a038135169060200135610f83565b34801561055257600080fd5b506102d66004803603604081101561056957600080fd5b50600160a060020a038135169060200135610fb3565b34801561058b57600080fd5b506104c3600480360360608110156105a257600080fd5b8101906020810181356401000000008111156105bd57600080fd5b8201836020820111156105cf57600080fd5b803590602001918460018302840111640100000000831117156105f157600080fd5b91908080601f016020809104026020016040519081016040528093929190818152602001838380828437600092019190915250929594936020810193503591505064010000000081111561064457600080fd5b82018360208201111561065657600080fd5b8035906020019184600183028401116401000000008311171561067857600080fd5b91908080601f0160208091040260200160405190810160405280939291908181526020018383808284376000920191909152509295505091359250610fce915050565b3480156106c757600080fd5b506102d6600480360360208110156106de57600080fd5b5035600160a060020a0316611257565b3480156106fa57600080fd5b506104c36004803603602081101561071157600080fd5b5035611272565b34801561072457600080fd5b506104c36004803603602081101561073b57600080fd5b503561133e565b34801561074e57600080fd5b5061076c6004803603602081101561076557600080fd5b5035611671565b60408051948552600160a060020a03938416602086015291909216838201526060830191909152519081900360800190f35b3480156107aa57600080fd5b506104c3600480360360208110156107c157600080fd5b50356116b5565b3480156107d457600080fd5b506107f2600480360360208110156107eb57600080fd5b5035611900565b604080519115158252519081900360200190f35b34801561081257600080fd5b506102d66004803603604081101561082957600080fd5b50600160a060020a03813516906020013561193b565b34801561084b57600080fd5b506104c36004803603602081101561086257600080fd5b5035611956565b34801561087557600080fd5b506104c36004803603602081101561088c57600080fd5b8101906020810181356401000000008111156108a757600080fd5b8201836020820111156108b957600080fd5b803590602001918460018302840111640100000000831117156108db57600080fd5b91908080601f016020809104026020016040519081016040528093929190818152602001838380828437600092019190915250929550611c0f945050505050565b34801561092857600080fd5b506104c36004803603602081101561093f57600080fd5b5035611c3a565b34801561095257600080fd5b506109706004803603602081101561096957600080fd5b5035611d33565b60405180888152602001806020018060200187600160a060020a0316600160a060020a031681526020018681526020018560038111156109ac57fe5b60ff16815260200184815260200183810383528981815181526020019150805190602001908083836000838110156102015781810151838201526020016101e9565b3480156109fa57600080fd5b506107f260048036036020811015610a1157600080fd5b5035600160a060020a0316611eb8565b348015610a2d57600080fd5b506102d660048036036020811015610a4457600080fd5b5035600160a060020a0316611ed0565b348015610a6057600080fd5b506102d6611eeb565b348015610a7557600080fd5b506104c3611ef1565b348015610a8a57600080fd5b50610a93611efc565b60408051600160a060020a039092168252519081900360200190f35b6006805482908110610abd57fe5b9060005260206000209060060201600091509050806000015490806001018054600181600116156101000203166002900480601f016020809104026020016040519081016040528092919081815260200182805460018160011615610100020316600290048015610b6f5780601f10610b4457610100808354040283529160200191610b6f565b820191906000526020600020905b815481529060010190602001808311610b5257829003601f168201915b50505060028085018054604080516020601f6000196101006001871615020190941695909504928301859004850281018501909152818152959695945090925090830182828015610c015780601f10610bd657610100808354040283529160200191610c01565b820191906000526020600020905b815481529060010190602001808311610be457829003601f168201915b50505050600383015460048401546005909401549293909260ff82169250610100909104600160a060020a03169087565b600160a060020a031660009081526001602052604090205490565b6008805460408051602060026001851615610100026000190190941693909304601f81018490048402820184019092528181529291830182828015610cd35780601f10610ca857610100808354040283529160200191610cd3565b820191906000526020600020905b815481529060010190602001808311610cb657829003601f168201915b505050505081565b6005545b90565b610cea6124b6565b600554808252602080830186905260408084018690523360608086018290526080808701889052600060a08089018290524260c08a0181905286518981529485018690529284018a90527fa4f6ee9b30f956805d63519b8e58b48ca7deb1b47de5dbfec6100373d0796dd197968c968c96958c9593909283019183019083018560ff168152602001848152602001838103835289818151815260200191508051906020019080838360005b83811015610dad578181015183820152602001610d95565b50505050905090810190601f168015610dda5780820380516001836020036101000a031916815260200191505b5083810382528851815288516020918201918a019080838360005b83811015610e0d578181015183820152602001610df5565b50505050905090810190601f168015610e3a5780820380516001836020036101000a031916815260200191505b50995050505050505050505060405180910390a16005805460018101808355600092909252825160079091027f036b6384b5eca791c62761152d0c79bb0604c104a5fb6f4eb0703f3154bb3db081019182556020808501518051869493610ec7937f036b6384b5eca791c62761152d0c79bb0604c104a5fb6f4eb0703f3154bb3db1909101920190612508565b5060408201518051610ee3916002840191602090910190612508565b5060608201516003828101805473ffffffffffffffffffffffffffffffffffffffff1916600160a060020a03909316929092179091556080830151600483015560a08301516005830180549192909160ff1916906001908490811115610f4557fe5b021790555060c0820151816006015550505050505050565b610f6633611eb8565b1515610f7157600080fd5b610f7a81611f0b565b50565b60065490565b600260205281600052604060002081815481101515610f9e57fe5b90600052602060002001600091509150505481565b600360205281600052604060002081815481101515610f9e57fe5b610fd6612586565b600654808252602080830186905260408084018690526060808501869052600060808087018290523360a088018190524260c0890181905285518881529485018a90527fe98998242bb09cae95bec2e97c6b9a224ef4e8e5adc11696fa3b17520aed05c997968c968c968c9695909283019183019083018660ff16815260200185600160a060020a0316600160a060020a03168152602001848152602001838103835289818151815260200191508051906020019080838360005b838110156110a9578181015183820152602001611091565b50505050905090810190601f1680156110d65780820380516001836020036101000a031916815260200191505b5083810382528851815288516020918201918a019080838360005b838110156111095781810151838201526020016110f1565b50505050905090810190601f1680156111365780820380516001836020036101000a031916815260200191505b50995050505050505050505060405180910390a1600680546001810180835560008390528351919092027ff652222313e28459528d920b65115c16c04f3efc82aaedc97be59f3f377c0d3f810191825560208085015180518694936111c1937ff652222313e28459528d920b65115c16c04f3efc82aaedc97be59f3f377c0d40909101920190612508565b50604082015180516111dd916002840191602090910190612508565b5060608201516003820155608082015160048201805460ff1916600183600281111561120557fe5b021790555060a0820151600482018054600160a060020a039092166101000274ffffffffffffffffffffffffffffffffffffffff001990921691909117905560c0909101516005909101555050505050565b600160a060020a031660009081526003602052604090205490565b61127b33611eb8565b151561128657600080fd5b6000600680548390811061129657fe5b600091825260209091206004600690920201015460ff1660028111156112b857fe5b14806112f35750600160068054839081106112cf57fe5b600091825260209091206004600690920201015460ff1660028111156112f157fe5b145b15156112fe57600080fd5b600260068281548110151561130f57fe5b60009182526020909120600460069092020101805460ff1916600183600281111561133657fe5b021790555050565b61134733611eb8565b151561135257600080fd5b6000600680548390811061136257fe5b600091825260209091206004600690920201015460ff16600281111561138457fe5b14806113bf57506002600680548390811061139b57fe5b600091825260209091206004600690920201015460ff1660028111156113bd57fe5b145b15156113ca57600080fd5b60016006828154811015156113db57fe5b60009182526020909120600460069092020101805460ff1916600183600281111561140257fe5b02179055507fe98998242bb09cae95bec2e97c6b9a224ef4e8e5adc11696fa3b17520aed05c960068281548110151561143757fe5b90600052602060002090600602016000015460068381548110151561145857fe5b906000526020600020906006020160010160068481548110151561147857fe5b906000526020600020906006020160020160068581548110151561149857fe5b9060005260206000209060060201600301546006868154811015156114b957fe5b906000526020600020906006020160040160009054906101000a900460ff166006878154811015156114e757fe5b906000526020600020906006020160040160019054906101000a9004600160a060020a031660068881548110151561151b57fe5b90600052602060002090600602016005015460405180888152602001806020018060200187815260200186600281111561155157fe5b60ff168152600160a060020a0386166020820152604081018590526060848203810184528a54600260018216156101000260001901909116049082018190526080909101908a9080156115e55780601f106115ba576101008083540402835291602001916115e5565b820191906000526020600020905b8154815290600101906020018083116115c857829003601f168201915b50508381038252885460026000196101006001841615020190911604808252602090910190899080156116595780601f1061162e57610100808354040283529160200191611659565b820191906000526020600020905b81548152906001019060200180831161163c57829003601f168201915b5050995050505050505050505060405180910390a150565b600480548290811061167f57fe5b60009182526020909120600490910201805460018201546002830154600390930154919350600160a060020a0390811692169084565b600754604080517f70a082310000000000000000000000000000000000000000000000000000000081523360048201529051600092600160a060020a0316916370a08231916024808301926020929190829003018186803b15801561171957600080fd5b505afa15801561172d573d6000803e3d6000fd5b505050506040513d602081101561174357600080fd5b50511161174f57600080fd5b6000811161175c57600080fd5b600754604080517f1302afc2000000000000000000000000000000000000000000000000000000008152336004820152306024820152604481018490529051600160a060020a0390921691631302afc2916064808201926020929091908290030181600087803b1580156117cf57600080fd5b505af11580156117e3573d6000803e3d6000fd5b505050506040513d60208110156117f957600080fd5b5050600754604080517f62cd70e2000000000000000000000000000000000000000000000000000000008152336004820152306024820152604481018490529051600160a060020a03909216916362cd70e2916064808201926020929091908290030181600087803b15801561186e57600080fd5b505af1158015611882573d6000803e3d6000fd5b505050506040513d602081101561189857600080fd5b505060408051828152905133917f2da466a7b24304f47e87fa2e1e5a81b9831ce54fec19055ce277ca2f39ba42c4919081900360200190a260006118dd333084611f53565b336000908152600160208181526040832080549283018155835290912001555050565b60006001600580548490811061191257fe5b600091825260209091206005600790920201015460ff16600381111561193457fe5b1492915050565b600160205281600052604060002081815481101515610f9e57fe5b61195f33611eb8565b151561196a57600080fd5b6000600580548390811061197a57fe5b600091825260209091206005600790920201015460ff16600381111561199c57fe5b14806119d75750600260058054839081106119b357fe5b600091825260209091206005600790920201015460ff1660038111156119d557fe5b145b15156119e257600080fd5b60058054829081106119f057fe5b6000918252602090912060079091020160030154600160a060020a0316331415611a1957600080fd5b6001600582815481101515611a2a57fe5b60009182526020909120600560079092020101805460ff19166001836003811115611a5157fe5b0217905550611a5f81612060565b7fa4f6ee9b30f956805d63519b8e58b48ca7deb1b47de5dbfec6100373d0796dd1600582815481101515611a8f57fe5b906000526020600020906007020160000154600583815481101515611ab057fe5b9060005260206000209060070201600101600584815481101515611ad057fe5b9060005260206000209060070201600201600585815481101515611af057fe5b600091825260209091206003600790920201015460058054600160a060020a039092169187908110611b1e57fe5b906000526020600020906007020160040154600587815481101515611b3f57fe5b600091825260209091206005600790920201810154815460ff909116919089908110611b6757fe5b90600052602060002090600702016006015460405180888152602001806020018060200187600160a060020a0316600160a060020a03168152602001868152602001856003811115611bb557fe5b60ff168152602081018590526040848203810184528a54600260018216156101000260001901909116049082018190526060909101908a9080156115e55780601f106115ba576101008083540402835291602001916115e5565b611c1833611eb8565b1515611c2357600080fd5b8051611c36906008906020840190612508565b5050565b611c4333611eb8565b1515611c4e57600080fd5b60006005805483908110611c5e57fe5b600091825260209091206005600790920201015460ff166003811115611c8057fe5b1480611cbb575060016005805483908110611c9757fe5b600091825260209091206005600790920201015460ff166003811115611cb957fe5b145b1515611cc657600080fd5b6002600582815481101515611cd757fe5b60009182526020909120600560079092020101805460ff19166001836003811115611cfe57fe5b02179055507fa4f6ee9b30f956805d63519b8e58b48ca7deb1b47de5dbfec6100373d0796dd1600582815481101515611a8f57fe5b6005805482908110611d4157fe5b9060005260206000209060070201600091509050806000015490806001018054600181600116156101000203166002900480601f016020809104026020016040519081016040528092919081815260200182805460018160011615610100020316600290048015611df35780601f10611dc857610100808354040283529160200191611df3565b820191906000526020600020905b815481529060010190602001808311611dd657829003601f168201915b50505060028085018054604080516020601f6000196101006001871615020190941695909504928301859004850281018501909152818152959695945090925090830182828015611e855780601f10611e5a57610100808354040283529160200191611e85565b820191906000526020600020905b815481529060010190602001808311611e6857829003601f168201915b5050506003840154600485015460058601546006909601549495600160a060020a039092169490935060ff909116915087565b6000611eca818363ffffffff61239d16565b92915050565b600160a060020a031660009081526002602052604090205490565b60045490565b611efa336123d4565b565b600754600160a060020a031681565b611f1c60008263ffffffff61241c16565b604051600160a060020a038216907f3b4a40cccf2058c593542587329dd385be4f0b588db5471fbd9598e56dd7093a90600090a250565b6000611f5d6125cf565b60048054808352600160a060020a039687166020840190815295871660408401908152606084019586526001820183556000839052925191027f8a35acfbc15ff81a39ae7d344fd709f28e8600b4aa8c65c6b64bfe7fe36bd19b810182905594517f8a35acfbc15ff81a39ae7d344fd709f28e8600b4aa8c65c6b64bfe7fe36bd19c8601805491881673ffffffffffffffffffffffffffffffffffffffff1992831617905591517f8a35acfbc15ff81a39ae7d344fd709f28e8600b4aa8c65c6b64bfe7fe36bd19d860180549190971692169190911790945550517f8a35acfbc15ff81a39ae7d344fd709f28e8600b4aa8c65c6b64bfe7fe36bd19e9091015590565b600060058281548110151561207157fe5b9060005260206000209060070201600401549050600060058381548110151561209657fe5b60009182526020808320600792830201600301549154604080517f70a082310000000000000000000000000000000000000000000000000000000081523060048201529051600160a060020a03948516965093909116926370a0823192602480840193919291829003018186803b15801561211057600080fd5b505afa158015612124573d6000803e3d6000fd5b505050506040513d602081101561213a57600080fd5b5051905030151561214a57600080fd5b61215384611900565b151561215e57600080fd5b6000831161216b57600080fd5b8281101561217857600080fd5b600754604080517f095ea7b3000000000000000000000000000000000000000000000000000000008152306004820152602481018690529051600160a060020a039092169163095ea7b3916044808201926020929091908290030181600087803b1580156121e557600080fd5b505af11580156121f9573d6000803e3d6000fd5b505050506040513d602081101561220f57600080fd5b5050600754604080517f23b872dd000000000000000000000000000000000000000000000000000000008152306004820152600160a060020a03858116602483015260448201879052915191909216916323b872dd9160648083019260209291908290030181600087803b15801561228657600080fd5b505af115801561229a573d6000803e3d6000fd5b505050506040513d60208110156122b057600080fd5b50506005805460039190869081106122c457fe5b60009182526020909120600560079092020101805460ff191660018360038111156122eb57fe5b021790555060408051848152602081018690528151600160a060020a038516927f92ccf450a286a957af52509bc1c9939d1a6a481783e142e41e2499f0bb66ebc6928290030190a2600160a060020a0382166000908152600360209081526040822080546001810182559083529082200185905561236a308486611f53565b600160a060020a039093166000908152600260209081526040822080546001810182559083529120019290925550505050565b6000600160a060020a03821615156123b457600080fd5b50600160a060020a03166000908152602091909152604090205460ff1690565b6123e560008263ffffffff61246a16565b604051600160a060020a038216907fef69f7d97228658c92417be1b16b19058315de71fecb435d07b7d23728b6bd3190600090a250565b600160a060020a038116151561243157600080fd5b61243b828261239d565b1561244557600080fd5b600160a060020a0316600090815260209190915260409020805460ff19166001179055565b600160a060020a038116151561247f57600080fd5b612489828261239d565b151561249457600080fd5b600160a060020a0316600090815260209190915260409020805460ff19169055565b60e0604051908101604052806000815260200160608152602001606081526020016000600160a060020a0316815260200160008152602001600060038111156124fb57fe5b8152602001600081525090565b828054600181600116156101000203166002900490600052602060002090601f016020900481019282601f1061254957805160ff1916838001178555612576565b82800160010185558215612576579182015b8281111561257657825182559160200191906001019061255b565b506125829291506125f6565b5090565b60e06040519081016040528060008152602001606081526020016060815260200160008152602001600060028111156125bb57fe5b815260006020820181905260409091015290565b60408051608081018252600080825260208201819052918101829052606081019190915290565b610cdf91905b8082111561258257600081556001016125fc56fea165627a7a723058209a670d9f74d416af1efeb93fb3259ed8fb364542edf6c5898bfba03c773d2a0c0029",
  "source": "pragma solidity ^0.5.0;\n\nimport './access/roles/ManagerRole.sol';\nimport \"./math/SafeMath.sol\";\nimport './THXToken.sol';\n\ncontract RewardPool is ManagerRole {\n    using SafeMath for uint256;\n\n    struct Reward {\n        uint256 id;\n        string key;\n        string slug;\n        address beneficiary;\n        uint256 amount;\n        RewardState state;\n        uint256 created;\n    }\n\n    struct Rule {\n        uint256 id;\n        string key;\n        string slug;\n        uint256 amount;\n        RuleState state;\n        address creator;\n        uint256 created;\n    }\n\n    struct Transaction {\n      uint256 id;\n      address sender;\n      address receiver;\n      uint256 amount;\n    }\n\n    event Deposited(address indexed sender, uint256 amount);\n    event Withdrawn(address indexed beneficiary, uint256 amount, uint256 id);\n\n    event RewardStateChanged(uint256 id, string key, string slug, address beneficiary, uint256 amount, RewardState state, uint256 created);\n    event RuleStateChanged(uint256 id, string key, string slug, uint256 amount, RuleState state, address creator, uint256 created);\n\n    enum RewardState { Pending, Approved, Rejected, Withdrawn }\n    enum RuleState { Pending, Active, Disabled }\n\n    mapping (address => uint256[]) public deposits;\n    mapping (address => uint256[]) public withdrawels;\n    mapping (address => uint256[]) public beneficiaries;\n\n    Transaction[] public transactions;\n    Reward[] public rewards;\n    Rule[] public rules;\n\n    THXToken public token;\n    string public name;\n\n    constructor(string memory _name, address _tokenAddress) public\n    {\n        name = _name;\n        token = THXToken(_tokenAddress);\n    }\n\n    /**\n    * @dev Stores the sent amount as tokens in the Reward Pool.\n    * @param amount The amount the sender deposited.\n    */\n    function deposit(uint256 amount) public {\n        require(token.balanceOf(msg.sender) > 0);\n        require(amount > 0);\n\n        // Approve the token transaction.\n        token.approveDeposit(msg.sender, address(this), amount);\n        // Transfer the tokens from the sender to the pool\n        token.transferDeposit(msg.sender, address(this), amount);\n\n        emit Deposited(msg.sender, amount);\n\n        uint256 tid = _registerTransaction(msg.sender, address(this), amount);\n        deposits[msg.sender].push(tid);\n    }\n\n    /**\n    * @dev Checks if the reward is approved.\n    * @param id The id of the reward.\n    */\n    function withdrawalAllowed(uint256 id) public view returns (bool) {\n        return rewards[id].state == RewardState.Approved;\n    }\n\n    /**\n    * @dev Creates the initial reward rule.\n    * @param key Database reference for rule metadata.\n    * @param slug Short readable description of rule.\n    * @param amount Reward size suggested for the beneficiary.\n    */\n    function addRule(string memory key, string memory slug, uint256 amount) public {\n        Rule memory rule;\n\n        rule.id = rules.length;\n        rule.key = key;\n        rule.slug = slug;\n        rule.amount = amount;\n        rule.state = RuleState.Pending;\n        rule.creator = msg.sender;\n        rule.created = now;\n\n        emit RuleStateChanged(rule.id, rule.key, rule.slug, rule.amount, rule.state, rule.creator, rule.created);\n\n        rules.push(rule);\n    }\n\n    /**\n    * @dev Updates the pool name set initially through the constructor.\n    * @param value The new pool name.\n    */\n    function updatePoolName(string memory value) public onlyManager {\n        name = value;\n    }\n\n    /**\n    * @dev Approves the suggested reward rule and sets its state to Active.\n    * @param id The id of the reward.\n    */\n    function approveRule(uint256 id) public onlyManager {\n        require(rules[id].state == RuleState.Pending || rules[id].state == RuleState.Disabled);\n        rules[id].state = RuleState.Active;\n\n        emit RuleStateChanged(rules[id].id, rules[id].key, rules[id].slug, rules[id].amount, rules[id].state, rules[id].creator, rules[id].created);\n    }\n\n    /**\n    * @dev Rejects the suggested reward and sets the state to Disabled.\n    * @param id The id of the reward.\n    */\n    function rejectRule(uint256 id) public onlyManager {\n        require(rules[id].state == RuleState.Pending || rules[id].state == RuleState.Active);\n\n        rules[id].state = RuleState.Disabled;\n    }\n\n    /**\n    * @dev Counts the amount of rules.\n    */\n    function countRules() public view returns (uint256) {\n        return rules.length;\n    }\n\n    /**\n    * @dev Creates the suggested reward.\n    * @param key Database reference for reward metadata.\n    * @param slug Short readable description of reward.\n    * @param amount Reward size suggested for the beneficiary.\n    */\n    function addReward(string memory key, string memory slug, uint256 amount) public {\n        Reward memory reward;\n\n        reward.id = rewards.length;\n        reward.key = key;\n        reward.slug = slug;\n        reward.beneficiary = msg.sender;\n        reward.amount = amount;\n        reward.state = RewardState.Pending;\n        reward.created = now;\n\n        emit RewardStateChanged(reward.id, reward.key, reward.slug, reward.beneficiary, reward.amount, reward.state, reward.created);\n\n        rewards.push(reward);\n    }\n\n    /**\n    * @dev Approves the suggested reward.\n    * @param id The id of the reward.\n    */\n    function approveReward(uint256 id) public onlyManager {\n        require(rewards[id].state == RewardState.Pending || rewards[id].state == RewardState.Rejected);\n        require(msg.sender != rewards[id].beneficiary);\n\n        rewards[id].state = RewardState.Approved;\n\n        // Withdraw the reward\n        _withdraw(id);\n\n        emit RewardStateChanged(rewards[id].id, rewards[id].key, rewards[id].slug, rewards[id].beneficiary, rewards[id].amount, rewards[id].state, rewards[id].created);\n    }\n\n    /**\n    * @dev Rejects the suggested reward.\n    * @param id The id of the reward.\n    */\n    function rejectReward(uint256 id) public onlyManager {\n        require(rewards[id].state == RewardState.Pending || rewards[id].state == RewardState.Approved);\n\n        rewards[id].state = RewardState.Rejected;\n\n        emit RewardStateChanged(rewards[id].id, rewards[id].key, rewards[id].slug, rewards[id].beneficiary, rewards[id].amount, rewards[id].state, rewards[id].created);\n    }\n\n    /**\n    * @dev Counts the amount of rewards.\n    */\n    function countRewards() public view returns (uint256) {\n        return rewards.length;\n    }\n\n    /**\n    * @dev Counts the amount of rewards.\n    */\n    function countTransactions() public view returns (uint256) {\n        return transactions.length;\n    }\n\n    /**\n    * @dev Counts the amount of rewards for a certain Beneficiary.\n    */\n    function countRewardsOf(address sender) public view returns (uint256) {\n        return beneficiaries[sender].length;\n    }\n\n    /**\n    * @dev Counts the amount of deposits.\n    */\n    function countDepositsOf(address sender) public view returns (uint256) {\n        return deposits[sender].length;\n    }\n\n    /**\n    * @dev Counts the amount of withdrawels.\n    */\n    function countWithdrawelsOf(address sender) public view returns (uint256) {\n        return withdrawels[sender].length;\n    }\n\n    /**\n    * @dev Registers a transaction.\n    * @param sender The address of the sender.\n    * @param receiver The address of the receiver.\n    * @param amount The amount the sender sent to the receiver.\n    */\n    function _registerTransaction(address sender, address receiver, uint256 amount) internal returns (uint256) {\n        Transaction memory transaction;\n\n        transaction.id = transactions.length;\n        transaction.sender = sender;\n        transaction.receiver = receiver;\n        transaction.amount = amount;\n\n        transactions.push(transaction);\n\n        return transaction.id;\n    }\n\n    /**\n    * @dev Withdraw accumulated balance for a beneficiary.\n    * @param id The id of the reward.\n    */\n    function _withdraw(uint256 id) internal {\n        uint256 amount = rewards[id].amount;\n        address beneficiary = rewards[id].beneficiary;\n        uint256 tokenBalance = token.balanceOf(address(this));\n\n        require(address(this) != address(0));\n        require(withdrawalAllowed(id));\n        require(amount > 0);\n        require(tokenBalance >= amount);\n\n        // Approve the token transaction.\n        token.approve(address(this), amount);\n        // Transfer the tokens from the pool to the beneficiary.\n        token.transferFrom(address(this), beneficiary, amount);\n\n        rewards[id].state = RewardState.Withdrawn;\n\n        emit Withdrawn(beneficiary, amount, id);\n\n        beneficiaries[beneficiary].push(id);\n\n        uint256 tid = _registerTransaction(address(this), beneficiary, amount);\n        withdrawels[beneficiary].push(tid);\n    }\n}\n",
  "sourcePath": "/Users/peterpolman/Sites/thx_client/contracts/RewardPool.sol",
  "compiler": {
    "name": "solc",
    "version": "0.5.0+commit.1d4f565a.Emscripten.clang"
  },
  "schemaVersion": "3.0.1",
  "updatedAt": "2019-07-09T14:16:46.155Z",
  "devdoc": {
    "methods": {
      "addReward(string,string,uint256)": {
        "details": "Creates the suggested reward.",
        "params": {
          "amount": "Reward size suggested for the beneficiary.",
          "key": "Database reference for reward metadata.",
          "slug": "Short readable description of reward."
        }
      },
      "addRule(string,string,uint256)": {
        "details": "Creates the initial reward rule.",
        "params": {
          "amount": "Reward size suggested for the beneficiary.",
          "key": "Database reference for rule metadata.",
          "slug": "Short readable description of rule."
        }
      },
      "approveReward(uint256)": {
        "details": "Approves the suggested reward.",
        "params": {
          "id": "The id of the reward."
        }
      },
      "approveRule(uint256)": {
        "details": "Approves the suggested reward rule and sets its state to Active.",
        "params": {
          "id": "The id of the reward."
        }
      },
      "countDepositsOf(address)": {
        "details": "Counts the amount of deposits."
      },
      "countRewards()": {
        "details": "Counts the amount of rewards."
      },
      "countRewardsOf(address)": {
        "details": "Counts the amount of rewards for a certain Beneficiary."
      },
      "countRules()": {
        "details": "Counts the amount of rules."
      },
      "countTransactions()": {
        "details": "Counts the amount of rewards."
      },
      "countWithdrawelsOf(address)": {
        "details": "Counts the amount of withdrawels."
      },
      "deposit(uint256)": {
        "details": "Stores the sent amount as tokens in the Reward Pool.",
        "params": {
          "amount": "The amount the sender deposited."
        }
      },
      "rejectReward(uint256)": {
        "details": "Rejects the suggested reward.",
        "params": {
          "id": "The id of the reward."
        }
      },
      "rejectRule(uint256)": {
        "details": "Rejects the suggested reward and sets the state to Disabled.",
        "params": {
          "id": "The id of the reward."
        }
      },
      "updatePoolName(string)": {
        "details": "Updates the pool name set initially through the constructor.",
        "params": {
          "value": "The new pool name."
        }
      },
      "withdrawalAllowed(uint256)": {
        "details": "Checks if the reward is approved.",
        "params": {
          "id": "The id of the reward."
        }
      }
    }
  },
  "userdoc": {
    "methods": {}
  }
}