{
  "contractName": "Reward",
  "abi": [
    {
      "constant": false,
      "inputs": [
        {
          "name": "voter",
          "type": "address"
        }
      ],
      "name": "revokeVote",
      "outputs": [],
      "payable": false,
      "stateMutability": "nonpayable",
      "type": "function"
    },
    {
      "constant": true,
      "inputs": [],
      "name": "pool",
      "outputs": [
        {
          "name": "",
          "type": "address"
        }
      ],
      "payable": false,
      "stateMutability": "view",
      "type": "function"
    },
    {
      "constant": true,
      "inputs": [],
      "name": "REWARD_POLL_DURATION",
      "outputs": [
        {
          "name": "",
          "type": "uint256"
        }
      ],
      "payable": false,
      "stateMutability": "view",
      "type": "function"
    },
    {
      "constant": true,
      "inputs": [],
      "name": "endTime",
      "outputs": [
        {
          "name": "",
          "type": "uint256"
        }
      ],
      "payable": false,
      "stateMutability": "view",
      "type": "function"
    },
    {
      "constant": true,
      "inputs": [],
      "name": "created",
      "outputs": [
        {
          "name": "",
          "type": "uint256"
        }
      ],
      "payable": false,
      "stateMutability": "view",
      "type": "function"
    },
    {
      "constant": false,
      "inputs": [],
      "name": "tryToFinalize",
      "outputs": [
        {
          "name": "",
          "type": "bool"
        }
      ],
      "payable": false,
      "stateMutability": "nonpayable",
      "type": "function"
    },
    {
      "constant": true,
      "inputs": [],
      "name": "beneficiary",
      "outputs": [
        {
          "name": "",
          "type": "address"
        }
      ],
      "payable": false,
      "stateMutability": "view",
      "type": "function"
    },
    {
      "constant": true,
      "inputs": [],
      "name": "MAX_TOKENS_WEIGHT_DENOM",
      "outputs": [
        {
          "name": "",
          "type": "uint256"
        }
      ],
      "payable": false,
      "stateMutability": "view",
      "type": "function"
    },
    {
      "constant": true,
      "inputs": [
        {
          "name": "",
          "type": "address"
        },
        {
          "name": "",
          "type": "uint256"
        }
      ],
      "name": "voters",
      "outputs": [
        {
          "name": "",
          "type": "uint256"
        }
      ],
      "payable": false,
      "stateMutability": "view",
      "type": "function"
    },
    {
      "constant": true,
      "inputs": [],
      "name": "noCounter",
      "outputs": [
        {
          "name": "",
          "type": "uint256"
        }
      ],
      "payable": false,
      "stateMutability": "view",
      "type": "function"
    },
    {
      "constant": true,
      "inputs": [],
      "name": "slug",
      "outputs": [
        {
          "name": "",
          "type": "string"
        }
      ],
      "payable": false,
      "stateMutability": "view",
      "type": "function"
    },
    {
      "constant": true,
      "inputs": [],
      "name": "startTime",
      "outputs": [
        {
          "name": "",
          "type": "uint256"
        }
      ],
      "payable": false,
      "stateMutability": "view",
      "type": "function"
    },
    {
      "constant": true,
      "inputs": [],
      "name": "isNowApproved",
      "outputs": [
        {
          "name": "",
          "type": "bool"
        }
      ],
      "payable": false,
      "stateMutability": "view",
      "type": "function"
    },
    {
      "constant": true,
      "inputs": [
        {
          "name": "account",
          "type": "address"
        }
      ],
      "name": "isMember",
      "outputs": [
        {
          "name": "",
          "type": "bool"
        }
      ],
      "payable": false,
      "stateMutability": "view",
      "type": "function"
    },
    {
      "constant": true,
      "inputs": [
        {
          "name": "",
          "type": "address"
        }
      ],
      "name": "votesByAddress",
      "outputs": [
        {
          "name": "time",
          "type": "uint256"
        },
        {
          "name": "weight",
          "type": "uint256"
        },
        {
          "name": "agree",
          "type": "bool"
        }
      ],
      "payable": false,
      "stateMutability": "view",
      "type": "function"
    },
    {
      "constant": true,
      "inputs": [],
      "name": "amount",
      "outputs": [
        {
          "name": "",
          "type": "uint256"
        }
      ],
      "payable": false,
      "stateMutability": "view",
      "type": "function"
    },
    {
      "constant": true,
      "inputs": [],
      "name": "id",
      "outputs": [
        {
          "name": "",
          "type": "uint256"
        }
      ],
      "payable": false,
      "stateMutability": "view",
      "type": "function"
    },
    {
      "constant": true,
      "inputs": [],
      "name": "totalVoted",
      "outputs": [
        {
          "name": "",
          "type": "uint256"
        }
      ],
      "payable": false,
      "stateMutability": "view",
      "type": "function"
    },
    {
      "constant": true,
      "inputs": [],
      "name": "finalized",
      "outputs": [
        {
          "name": "",
          "type": "bool"
        }
      ],
      "payable": false,
      "stateMutability": "view",
      "type": "function"
    },
    {
      "constant": false,
      "inputs": [],
      "name": "renounceMember",
      "outputs": [],
      "payable": false,
      "stateMutability": "nonpayable",
      "type": "function"
    },
    {
      "constant": false,
      "inputs": [
        {
          "name": "voter",
          "type": "address"
        },
        {
          "name": "agree",
          "type": "bool"
        }
      ],
      "name": "vote",
      "outputs": [],
      "payable": false,
      "stateMutability": "nonpayable",
      "type": "function"
    },
    {
      "constant": true,
      "inputs": [],
      "name": "state",
      "outputs": [
        {
          "name": "",
          "type": "uint8"
        }
      ],
      "payable": false,
      "stateMutability": "view",
      "type": "function"
    },
    {
      "constant": false,
      "inputs": [
        {
          "name": "account",
          "type": "address"
        }
      ],
      "name": "addMember",
      "outputs": [],
      "payable": false,
      "stateMutability": "nonpayable",
      "type": "function"
    },
    {
      "constant": true,
      "inputs": [],
      "name": "yesCounter",
      "outputs": [
        {
          "name": "",
          "type": "uint256"
        }
      ],
      "payable": false,
      "stateMutability": "view",
      "type": "function"
    },
    {
      "constant": true,
      "inputs": [],
      "name": "token",
      "outputs": [
        {
          "name": "",
          "type": "address"
        }
      ],
      "payable": false,
      "stateMutability": "view",
      "type": "function"
    },
    {
      "inputs": [
        {
          "name": "_id",
          "type": "uint256"
        },
        {
          "name": "_slug",
          "type": "string"
        },
        {
          "name": "_beneficiary",
          "type": "address"
        },
        {
          "name": "_amount",
          "type": "uint256"
        },
        {
          "name": "_tokenAddress",
          "type": "address"
        },
        {
          "name": "_poolAddress",
          "type": "address"
        }
      ],
      "payable": false,
      "stateMutability": "nonpayable",
      "type": "constructor"
    },
    {
      "anonymous": false,
      "inputs": [
        {
          "indexed": false,
          "name": "id",
          "type": "uint256"
        },
        {
          "indexed": false,
          "name": "state",
          "type": "uint8"
        }
      ],
      "name": "RewardStateChanged",
      "type": "event"
    },
    {
      "anonymous": false,
      "inputs": [
        {
          "indexed": true,
          "name": "account",
          "type": "address"
        }
      ],
      "name": "MemberAdded",
      "type": "event"
    },
    {
      "anonymous": false,
      "inputs": [
        {
          "indexed": true,
          "name": "account",
          "type": "address"
        }
      ],
      "name": "MemberRemoved",
      "type": "event"
    },
    {
      "constant": true,
      "inputs": [],
      "name": "withdrawalAllowed",
      "outputs": [
        {
          "name": "",
          "type": "bool"
        }
      ],
      "payable": false,
      "stateMutability": "view",
      "type": "function"
    }
  ],
  "bytecode": "0x60806040526000600555600060065560006007553480156200002057600080fd5b506040516200108938038062001089833981018060405260c08110156200004657600080fd5b8151602083018051919392830192916401000000008111156200006857600080fd5b820160208101848111156200007c57600080fd5b81516401000000008111828201871017156200009757600080fd5b50506020820151604083015160608401516080909401519295509093509190814262093a8081016000620000d4336401000000006200021f810204565b600160a060020a0384161515620000ea57600080fd5b428310158015620000fa57508282115b15156200010657600080fd5b60018054600160a060020a031916600160a060020a0395909516949094179093556002919091556003556008805460ff1990811690915560048054909116911515919091179055620001613364010000000062000271810204565b15156200016d57600080fd5b600a86905584516200018790600b90602088019062000326565b50600c8054600160a060020a03868116600160a060020a031992831617909255600d859055600e805460ff1916905542600f5560108054821685841617905560118054909116918316919091179055600a54604080519182526000602083015280517f90ab42752b8b3a3e8bcb9cba7d57f5bf87db421f9885bb1c203f08d0ef199c209281900390910190a1505050505050620003cb565b6200023a60008264010000000062000c346200029382021704565b604051600160a060020a038216907fb251eb052afc73ffd02ffe85ad79990a8b3fed60d76dbc2fa2fdd7123dffd91490600090a250565b60006200028d818364010000000062000ae4620002ee82021704565b92915050565b600160a060020a0381161515620002a957600080fd5b620002be8282640100000000620002ee810204565b15620002c957600080fd5b600160a060020a0316600090815260209190915260409020805460ff19166001179055565b6000600160a060020a03821615156200030657600080fd5b50600160a060020a03166000908152602091909152604090205460ff1690565b828054600181600116156101000203166002900490600052602060002090601f016020900481019282601f106200036957805160ff191683800117855562000399565b8280016001018555821562000399579182015b82811115620003995782518255916020019190600101906200037c565b50620003a7929150620003ab565b5090565b620003c891905b80821115620003a75760008155600101620003b2565b90565b610cae80620003db6000396000f3fe6080604052600436106101535763ffffffff7c01000000000000000000000000000000000000000000000000000000006000350416630519bac3811461015857806316f0115b1461018d57806328d21990146101be5780633197cbb6146101e5578063325a19f1146101fa578063361810261461020f57806338af3eed1461023857806341fdade61461024d5780635c134d661461026257806364a902921461029b5780636beb7959146102b057806378e979251461033a57806380322cbd1461034f578063a1d1936114610364578063a230c52414610379578063a7491b48146103ac578063aa8c217c146103ff578063af640d0f14610414578063b3a2273f14610429578063b3f05b971461043e578063bad5ba0114610453578063bd041c4d14610468578063c19d93fb146104a3578063ca6d56dc146104dc578063d74689e41461050f578063fc0c546a14610524575b600080fd5b34801561016457600080fd5b5061018b6004803603602081101561017b57600080fd5b5035600160a060020a0316610539565b005b34801561019957600080fd5b506101a2610608565b60408051600160a060020a039092168252519081900360200190f35b3480156101ca57600080fd5b506101d3610617565b60408051918252519081900360200190f35b3480156101f157600080fd5b506101d361061e565b34801561020657600080fd5b506101d3610624565b34801561021b57600080fd5b5061022461062a565b604080519115158252519081900360200190f35b34801561024457600080fd5b506101a2610673565b34801561025957600080fd5b506101d3610682565b34801561026e57600080fd5b506101d36004803603604081101561028557600080fd5b50600160a060020a038135169060200135610688565b3480156102a757600080fd5b506101d36106b8565b3480156102bc57600080fd5b506102c56106be565b6040805160208082528351818301528351919283929083019185019080838360005b838110156102ff5781810151838201526020016102e7565b50505050905090810190601f16801561032c5780820380516001836020036101000a031916815260200191505b509250505060405180910390f35b34801561034657600080fd5b506101d361074c565b34801561035b57600080fd5b50610224610752565b34801561037057600080fd5b50610224610761565b34801561038557600080fd5b506102246004803603602081101561039c57600080fd5b5035600160a060020a031661077c565b3480156103b857600080fd5b506103df600480360360208110156103cf57600080fd5b5035600160a060020a0316610794565b604080519384526020840192909252151582820152519081900360600190f35b34801561040b57600080fd5b506101d36107b8565b34801561042057600080fd5b506101d36107be565b34801561043557600080fd5b506101d36107c4565b34801561044a57600080fd5b506102246107ca565b34801561045f57600080fd5b5061018b6107d3565b34801561047457600080fd5b5061018b6004803603604081101561048b57600080fd5b50600160a060020a03813516906020013515156107de565b3480156104af57600080fd5b506104b86109fb565b604051808260038111156104c857fe5b60ff16815260200191505060405180910390f35b3480156104e857600080fd5b5061018b600480360360208110156104ff57600080fd5b5035600160a060020a0316610a04565b34801561051b57600080fd5b506101d3610a24565b34801561053057600080fd5b506101a2610a2a565b600254421015801561054d57506003544211155b151561055857600080fd5b600160a060020a0381166000908152600960205260408120541161057b57600080fd5b600160a060020a038116600090815260096020526040812060018082018054600284018054948690559490915560ff19831690935560075460ff909216916105c89163ffffffff610a3916565b60075580156105ec576005546105e4908363ffffffff610a3916565b600555610603565b6006546105ff908363ffffffff610a3916565b6006555b505050565b601154600160a060020a031681565b62093a8081565b60035481565b600f5481565b60085460009060ff161561063d57600080fd5b60035442101561064f57506000610670565b6008805460ff1916600117905561066c610667610a4e565b610a58565b5060015b90565b600c54600160a060020a031681565b6103e881565b6012602052816000526040600020818154811015156106a357fe5b90600052602060002001600091509150505481565b60065481565b600b805460408051602060026001851615610100026000190190941693909304601f810184900484028201840190925281815292918301828280156107445780601f1061071957610100808354040283529160200191610744565b820191906000526020600020905b81548152906001019060200180831161072757829003601f168201915b505050505081565b60025481565b600061075c610a4e565b905090565b60006001600e5460ff16600381111561077657fe5b14905090565b600061078e818363ffffffff610ae416565b92915050565b60096020526000908152604090208054600182015460029092015490919060ff1683565b600d5481565b600a5481565b60075481565b60085460ff1681565b6107dc33610b1b565b565b60025442101580156107f257506003544211155b15156107fd57600080fd5b600160a060020a038216151561081257600080fd5b336000908152600960205260409020541561082c57600080fd5b600154604080517f70a08231000000000000000000000000000000000000000000000000000000008152600160a060020a038581166004830152915160009392909216916370a0823191602480820192602092909190829003018186803b15801561089657600080fd5b505afa1580156108aa573d6000803e3d6000fd5b505050506040513d60208110156108c057600080fd5b5051600154604080517f18160ddd0000000000000000000000000000000000000000000000000000000081529051929350600092610966926103e892600160a060020a03909116916318160ddd91600480820192602092909190829003018186803b15801561092e57600080fd5b505afa158015610942573d6000803e3d6000fd5b505050506040513d602081101561095857600080fd5b50519063ffffffff610b6316565b9050808211156109765780610978565b815b9150821561099b57600554610993908363ffffffff610b8716565b6005556109b2565b6006546109ae908363ffffffff610b8716565b6006555b600160a060020a038416600090815260096020526040902042815560018082018490556002909101805460ff19168515151790556007546109f291610b87565b60075550505050565b600e5460ff1681565b610a0d3361077c565b1515610a1857600080fd5b610a2181610ba0565b50565b60055481565b601054600160a060020a031681565b600082821115610a4857600080fd5b50900390565b6006546005541190565b601154600a54604080517f7370407d0000000000000000000000000000000000000000000000000000000081526004810192909252831515602483015251600160a060020a0390921691637370407d9160448082019260009290919082900301818387803b158015610ac957600080fd5b505af1158015610add573d6000803e3d6000fd5b5050505050565b6000600160a060020a0382161515610afb57600080fd5b50600160a060020a03166000908152602091909152604090205460ff1690565b610b2c60008263ffffffff610be816565b604051600160a060020a038216907f6e76fb4c77256006d9c38ec7d82b45a8c8f3c27b1d6766fffc42dfb8de68449290600090a250565b6000808211610b7157600080fd5b60008284811515610b7e57fe5b04949350505050565b600082820183811015610b9957600080fd5b9392505050565b610bb160008263ffffffff610c3416565b604051600160a060020a038216907fb251eb052afc73ffd02ffe85ad79990a8b3fed60d76dbc2fa2fdd7123dffd91490600090a250565b600160a060020a0381161515610bfd57600080fd5b610c078282610ae4565b1515610c1257600080fd5b600160a060020a0316600090815260209190915260409020805460ff19169055565b600160a060020a0381161515610c4957600080fd5b610c538282610ae4565b15610c5d57600080fd5b600160a060020a0316600090815260209190915260409020805460ff1916600117905556fea165627a7a723058204627b99831f61d4e5420afca22d596219ccb97df1d553f3b49a5570cacb9766b0029",
  "source": "pragma solidity ^0.5.0;\n\nimport '../access/roles/MemberRole.sol';\nimport '../math/SafeMath.sol';\nimport '../token/ERC20/IERC20.sol';\nimport '../poll/BasePoll.sol';\nimport '../IRewardPool.sol';\n\ncontract Reward is MemberRole, BasePoll {\n    using SafeMath for uint256;\n\n    enum RewardState { Pending, Approved, Rejected, Withdrawn }\n\n    event RewardStateChanged(uint256 id, RewardState state);\n\n    uint256 public constant REWARD_POLL_DURATION = 7 days;\n\n    uint256 public id;\n    string public slug;\n    address public beneficiary;\n    uint256 public amount;\n    RewardState public state;\n    uint256 public created;\n\n    IERC20 public token;\n    IRewardPool public pool;\n\n    mapping (address => uint256[]) public voters;\n\n    constructor(\n        uint256 _id,\n        string memory _slug,\n        address _beneficiary,\n        uint256 _amount,\n        address _tokenAddress,\n        address _poolAddress\n    ) public onlyMember\n        BasePoll(_tokenAddress, now, now + 7 days, false)\n    {\n        id = _id;\n        slug = _slug;\n        beneficiary = _beneficiary;\n        amount = _amount;\n        state = RewardState.Pending;\n        created = now;\n        token = IERC20(_tokenAddress);\n        pool = IRewardPool(_poolAddress);\n\n        emit RewardStateChanged(id, state);\n    }\n\n    /**\n    * @dev Check if the reward is approved.\n    */\n    function withdrawalAllowed() public view returns (bool) {\n        return state == RewardState.Approved;\n    }\n\n    /**\n    * @dev callback called after poll finalization\n    */\n    function onPollFinish(bool agree) internal {\n        pool.onRewardPollFinish(id, agree);\n    }\n\n}\n",
  "sourcePath": "/Users/peterpolman/Sites/thx_client/contracts/reward/Reward.sol",
  "compiler": {
    "name": "solc",
    "version": "0.5.0+commit.1d4f565a.Emscripten.clang"
  },
  "schemaVersion": "3.0.1",
  "updatedAt": "2019-08-14T12:05:16.131Z",
  "devdoc": {
    "methods": {
      "revokeVote(address)": {
        "details": "Revoke user`s vote",
        "params": {
          "voter": "The address of the user voting"
        }
      },
      "vote(address,bool)": {
        "details": "Process user`s vote",
        "params": {
          "agree": "True if user endorses the proposal else False",
          "voter": "The address of the user voting"
        }
      },
      "withdrawalAllowed()": {
        "details": "Check if the reward is approved."
      }
    }
  },
  "userdoc": {
    "methods": {
      "tryToFinalize()": {
        "notice": "Finalize poll and call onPollFinish callback with result"
      }
    }
  }
}