{
  "contractName": "RewardPool",
  "abi": [
    {
      "constant": true,
      "inputs": [],
      "name": "creator",
      "outputs": [
        {
          "name": "",
          "type": "address"
        }
      ],
      "payable": false,
      "stateMutability": "view",
      "type": "function",
      "signature": "0x02d05d3f"
    },
    {
      "constant": true,
      "inputs": [
        {
          "name": "",
          "type": "uint256"
        }
      ],
      "name": "rules",
      "outputs": [
        {
          "name": "id",
          "type": "uint256"
        },
        {
          "name": "slug",
          "type": "string"
        },
        {
          "name": "amount",
          "type": "uint256"
        },
        {
          "name": "state",
          "type": "uint8"
        },
        {
          "name": "creator",
          "type": "address"
        },
        {
          "name": "created",
          "type": "uint256"
        }
      ],
      "payable": false,
      "stateMutability": "view",
      "type": "function",
      "signature": "0x04d6ded4"
    },
    {
      "constant": true,
      "inputs": [],
      "name": "name",
      "outputs": [
        {
          "name": "",
          "type": "string"
        }
      ],
      "payable": false,
      "stateMutability": "view",
      "type": "function",
      "signature": "0x06fdde03"
    },
    {
      "constant": false,
      "inputs": [
        {
          "name": "account",
          "type": "address"
        }
      ],
      "name": "addManager",
      "outputs": [],
      "payable": false,
      "stateMutability": "nonpayable",
      "type": "function",
      "signature": "0x2d06177a"
    },
    {
      "constant": true,
      "inputs": [],
      "name": "countRules",
      "outputs": [
        {
          "name": "",
          "type": "uint256"
        }
      ],
      "payable": false,
      "stateMutability": "view",
      "type": "function",
      "signature": "0x31c54032"
    },
    {
      "constant": false,
      "inputs": [
        {
          "name": "slug",
          "type": "string"
        },
        {
          "name": "amount",
          "type": "uint256"
        }
      ],
      "name": "createRule",
      "outputs": [],
      "payable": false,
      "stateMutability": "nonpayable",
      "type": "function",
      "signature": "0x35deeb4a"
    },
    {
      "constant": true,
      "inputs": [],
      "name": "RULE_POLL_DURATION",
      "outputs": [
        {
          "name": "",
          "type": "uint256"
        }
      ],
      "payable": false,
      "stateMutability": "view",
      "type": "function",
      "signature": "0x439c6f17"
    },
    {
      "constant": false,
      "inputs": [
        {
          "name": "agree",
          "type": "bool"
        }
      ],
      "name": "voteForRule",
      "outputs": [],
      "payable": false,
      "stateMutability": "nonpayable",
      "type": "function",
      "signature": "0x51fece9d"
    },
    {
      "constant": false,
      "inputs": [
        {
          "name": "id",
          "type": "uint256"
        },
        {
          "name": "proposedAmount",
          "type": "uint256"
        }
      ],
      "name": "startRulePoll",
      "outputs": [],
      "payable": false,
      "stateMutability": "nonpayable",
      "type": "function",
      "signature": "0x563b373d"
    },
    {
      "constant": true,
      "inputs": [
        {
          "name": "",
          "type": "address"
        },
        {
          "name": "",
          "type": "uint256"
        }
      ],
      "name": "voters",
      "outputs": [
        {
          "name": "",
          "type": "uint256"
        }
      ],
      "payable": false,
      "stateMutability": "view",
      "type": "function",
      "signature": "0x5c134d66"
    },
    {
      "constant": true,
      "inputs": [],
      "name": "rulePoll",
      "outputs": [
        {
          "name": "",
          "type": "address"
        }
      ],
      "payable": false,
      "stateMutability": "view",
      "type": "function",
      "signature": "0x6fb1270c"
    },
    {
      "constant": true,
      "inputs": [],
      "name": "minVotedTokensPerc",
      "outputs": [
        {
          "name": "",
          "type": "uint256"
        }
      ],
      "payable": false,
      "stateMutability": "view",
      "type": "function",
      "signature": "0x84219204"
    },
    {
      "constant": true,
      "inputs": [],
      "name": "MAX_VOTED_TOKEN_PERC",
      "outputs": [
        {
          "name": "",
          "type": "uint256"
        }
      ],
      "payable": false,
      "stateMutability": "view",
      "type": "function",
      "signature": "0x962c9c8d"
    },
    {
      "constant": true,
      "inputs": [
        {
          "name": "account",
          "type": "address"
        }
      ],
      "name": "isMember",
      "outputs": [
        {
          "name": "",
          "type": "bool"
        }
      ],
      "payable": false,
      "stateMutability": "view",
      "type": "function",
      "signature": "0xa230c524"
    },
    {
      "constant": false,
      "inputs": [],
      "name": "renounceMember",
      "outputs": [],
      "payable": false,
      "stateMutability": "nonpayable",
      "type": "function",
      "signature": "0xbad5ba01"
    },
    {
      "constant": false,
      "inputs": [],
      "name": "revokeVoteForRule",
      "outputs": [],
      "payable": false,
      "stateMutability": "nonpayable",
      "type": "function",
      "signature": "0xc9b19453"
    },
    {
      "constant": false,
      "inputs": [
        {
          "name": "account",
          "type": "address"
        }
      ],
      "name": "addMember",
      "outputs": [],
      "payable": false,
      "stateMutability": "nonpayable",
      "type": "function",
      "signature": "0xca6d56dc"
    },
    {
      "constant": true,
      "inputs": [
        {
          "name": "",
          "type": "uint256"
        }
      ],
      "name": "rewards",
      "outputs": [
        {
          "name": "",
          "type": "address"
        }
      ],
      "payable": false,
      "stateMutability": "view",
      "type": "function",
      "signature": "0xf301af42"
    },
    {
      "constant": true,
      "inputs": [
        {
          "name": "account",
          "type": "address"
        }
      ],
      "name": "isManager",
      "outputs": [
        {
          "name": "",
          "type": "bool"
        }
      ],
      "payable": false,
      "stateMutability": "view",
      "type": "function",
      "signature": "0xf3ae2415"
    },
    {
      "constant": false,
      "inputs": [],
      "name": "renounceManager",
      "outputs": [],
      "payable": false,
      "stateMutability": "nonpayable",
      "type": "function",
      "signature": "0xf8b91abe"
    },
    {
      "constant": true,
      "inputs": [],
      "name": "token",
      "outputs": [
        {
          "name": "",
          "type": "address"
        }
      ],
      "payable": false,
      "stateMutability": "view",
      "type": "function",
      "signature": "0xfc0c546a"
    },
    {
      "inputs": [
        {
          "name": "_name",
          "type": "string"
        },
        {
          "name": "_tokenAddress",
          "type": "address"
        }
      ],
      "payable": false,
      "stateMutability": "nonpayable",
      "type": "constructor",
      "signature": "constructor"
    },
    {
      "anonymous": false,
      "inputs": [
        {
          "indexed": true,
          "name": "sender",
          "type": "address"
        },
        {
          "indexed": false,
          "name": "amount",
          "type": "uint256"
        },
        {
          "indexed": false,
          "name": "created",
          "type": "uint256"
        }
      ],
      "name": "Deposited",
      "type": "event",
      "signature": "0x73a19dd210f1a7f902193214c0ee91dd35ee5b4d920cba8d519eca65a7b488ca"
    },
    {
      "anonymous": false,
      "inputs": [
        {
          "indexed": true,
          "name": "beneficiary",
          "type": "address"
        },
        {
          "indexed": false,
          "name": "amount",
          "type": "uint256"
        },
        {
          "indexed": false,
          "name": "id",
          "type": "uint256"
        },
        {
          "indexed": false,
          "name": "created",
          "type": "uint256"
        }
      ],
      "name": "Withdrawn",
      "type": "event",
      "signature": "0x75e161b3e824b114fc1a33274bd7091918dd4e639cede50b78b15a4eea956a21"
    },
    {
      "anonymous": false,
      "inputs": [],
      "name": "RewardPollCreated",
      "type": "event",
      "signature": "0x882e77917ea2af100008ff777e1693a7fe22d06b0a7ffaddc50f9d8ef3a92314"
    },
    {
      "anonymous": false,
      "inputs": [
        {
          "indexed": false,
          "name": "id",
          "type": "uint256"
        },
        {
          "indexed": false,
          "name": "approved",
          "type": "bool"
        }
      ],
      "name": "RewardPollFinished",
      "type": "event",
      "signature": "0xb07b6a4d3da57c26eeed54737d6979b2a65101898160f7eb26d9e58626a70c14"
    },
    {
      "anonymous": false,
      "inputs": [
        {
          "indexed": false,
          "name": "id",
          "type": "uint256"
        },
        {
          "indexed": false,
          "name": "proposedAmount",
          "type": "uint256"
        }
      ],
      "name": "RulePollCreated",
      "type": "event",
      "signature": "0x9bd49e167f8ad588627e6f5b6a02b84c5a6ee245ce327afa99ade561bcbc284d"
    },
    {
      "anonymous": false,
      "inputs": [
        {
          "indexed": false,
          "name": "id",
          "type": "uint256"
        },
        {
          "indexed": false,
          "name": "approved",
          "type": "bool"
        }
      ],
      "name": "RulePollFinished",
      "type": "event",
      "signature": "0x118384964387422ef394126dcae83b6fc97ee2a5c14d8729ebc59cc3d1ce3f44"
    },
    {
      "anonymous": false,
      "inputs": [
        {
          "indexed": false,
          "name": "id",
          "type": "uint256"
        },
        {
          "indexed": false,
          "name": "state",
          "type": "uint8"
        }
      ],
      "name": "RuleStateChanged",
      "type": "event",
      "signature": "0x2da08c9afbca94a7781f242bd0193bf9a13ebd681b7fead14822408e3fbe78e9"
    },
    {
      "anonymous": false,
      "inputs": [
        {
          "indexed": true,
          "name": "account",
          "type": "address"
        }
      ],
      "name": "MemberAdded",
      "type": "event",
      "signature": "0xb251eb052afc73ffd02ffe85ad79990a8b3fed60d76dbc2fa2fdd7123dffd914"
    },
    {
      "anonymous": false,
      "inputs": [
        {
          "indexed": true,
          "name": "account",
          "type": "address"
        }
      ],
      "name": "MemberRemoved",
      "type": "event",
      "signature": "0x6e76fb4c77256006d9c38ec7d82b45a8c8f3c27b1d6766fffc42dfb8de684492"
    },
    {
      "anonymous": false,
      "inputs": [
        {
          "indexed": true,
          "name": "account",
          "type": "address"
        }
      ],
      "name": "ManagerAdded",
      "type": "event",
      "signature": "0x3b4a40cccf2058c593542587329dd385be4f0b588db5471fbd9598e56dd7093a"
    },
    {
      "anonymous": false,
      "inputs": [
        {
          "indexed": true,
          "name": "account",
          "type": "address"
        }
      ],
      "name": "ManagerRemoved",
      "type": "event",
      "signature": "0xef69f7d97228658c92417be1b16b19058315de71fecb435d07b7d23728b6bd31"
    },
    {
      "constant": false,
      "inputs": [
        {
          "name": "value",
          "type": "string"
        }
      ],
      "name": "updatePoolName",
      "outputs": [],
      "payable": false,
      "stateMutability": "nonpayable",
      "type": "function",
      "signature": "0xf0b33435"
    },
    {
      "constant": false,
      "inputs": [
        {
          "name": "amount",
          "type": "uint256"
        }
      ],
      "name": "deposit",
      "outputs": [],
      "payable": false,
      "stateMutability": "nonpayable",
      "type": "function",
      "signature": "0xb6b55f25"
    },
    {
      "constant": true,
      "inputs": [],
      "name": "countRewards",
      "outputs": [
        {
          "name": "",
          "type": "uint256"
        }
      ],
      "payable": false,
      "stateMutability": "view",
      "type": "function",
      "signature": "0x0bd028c0"
    },
    {
      "constant": false,
      "inputs": [
        {
          "name": "id",
          "type": "uint256"
        }
      ],
      "name": "createReward",
      "outputs": [],
      "payable": false,
      "stateMutability": "nonpayable",
      "type": "function",
      "signature": "0x1a6a8199"
    },
    {
      "constant": false,
      "inputs": [
        {
          "name": "id",
          "type": "uint256"
        },
        {
          "name": "agree",
          "type": "bool"
        }
      ],
      "name": "voteForReward",
      "outputs": [],
      "payable": false,
      "stateMutability": "nonpayable",
      "type": "function",
      "signature": "0x67218195"
    },
    {
      "constant": false,
      "inputs": [
        {
          "name": "id",
          "type": "uint256"
        }
      ],
      "name": "revokeVoteForReward",
      "outputs": [],
      "payable": false,
      "stateMutability": "nonpayable",
      "type": "function",
      "signature": "0x75d74bed"
    }
  ],
  "bytecode": "0x608060405260006005553480156200001657600080fd5b506040516200361838038062003618833981018060405260408110156200003c57600080fd5b8101908080516401000000008111156200005557600080fd5b820160208101848111156200006957600080fd5b81516401000000008111828201871017156200008457600080fd5b5050602090910151909250905080620000a63364010000000062000120810204565b620000ba3364010000000062000172810204565b60038054600160a060020a031916600160a060020a03929092169190911790558151620000ef90600890602085019062000257565b5060078054600160a060020a03909216600160a060020a0319928316179055600980549091163317905550620002fc565b6200013b60008264010000000062001650620001c482021704565b604051600160a060020a038216907f3b4a40cccf2058c593542587329dd385be4f0b588db5471fbd9598e56dd7093a90600090a250565b6200018d60018264010000000062001650620001c482021704565b604051600160a060020a038216907fb251eb052afc73ffd02ffe85ad79990a8b3fed60d76dbc2fa2fdd7123dffd91490600090a250565b600160a060020a0381161515620001da57600080fd5b620001ef82826401000000006200021f810204565b15620001fa57600080fd5b600160a060020a0316600090815260209190915260409020805460ff19166001179055565b6000600160a060020a03821615156200023757600080fd5b50600160a060020a03166000908152602091909152604090205460ff1690565b828054600181600116156101000203166002900490600052602060002090601f016020900481019282601f106200029a57805160ff1916838001178555620002ca565b82800160010185558215620002ca579182015b82811115620002ca578251825591602001919060010190620002ad565b50620002d8929150620002dc565b5090565b620002f991905b80821115620002d85760008155600101620002e3565b90565b61330c806200030c6000396000f3fe6080604052600436106200017a5763ffffffff7c010000000000000000000000000000000000000000000000000000000060003504166302d05d3f81146200017f57806304d6ded414620001b357806306fdde0314620002a05780630bd028c014620003305780631a6a8199146200035a5780632d06177a146200038a57806331c5403214620003c157806335deeb4a14620003d9578063439c6f17146200049557806351fece9d14620004ad578063563b373d14620004dd5780635c134d66146200051157806367218195146200054e5780636fb1270c146200058457806375d74bed146200059c5780638421920414620005ca578063962c9c8d14620005e2578063a230c52414620005fa578063b6b55f251462000645578063bad5ba011462000673578063c9b19453146200068b578063ca6d56dc14620006a3578063f0b3343514620006da578063f301af421462000794578063f3ae241514620007c2578063f8b91abe14620007f9578063fc0c546a1462000811575b600080fd5b3480156200018c57600080fd5b506200019762000829565b60408051600160a060020a039092168252519081900360200190f35b348015620001c057600080fd5b50620001e160048036036020811015620001d957600080fd5b503562000838565b60405180878152602001806020018681526020018560028111156200020257fe5b60ff16815260200184600160a060020a0316600160a060020a03168152602001838152602001828103825287818151815260200191508051906020019080838360005b838110156200025f57818101518382015260200162000245565b50505050905090810190601f1680156200028d5780820380516001836020036101000a031916815260200191505b5097505050505050505060405180910390f35b348015620002ad57600080fd5b50620002b86200092e565b6040805160208082528351818301528351919283929083019185019080838360005b83811015620002f4578181015183820152602001620002da565b50505050905090810190601f168015620003225780820380516001836020036101000a031916815260200191505b509250505060405180910390f35b3480156200033d57600080fd5b5062000348620009c0565b60408051918252519081900360200190f35b3480156200036757600080fd5b5062000388600480360360208110156200038057600080fd5b5035620009c7565b005b3480156200039757600080fd5b506200038860048036036020811015620003b057600080fd5b5035600160a060020a031662000b7e565b348015620003ce57600080fd5b506200034862000ba3565b348015620003e657600080fd5b506200038860048036036040811015620003ff57600080fd5b8101906020810181356401000000008111156200041b57600080fd5b8201836020820111156200042e57600080fd5b803590602001918460018302840111640100000000831117156200045157600080fd5b91908080601f016020809104026020016040519081016040528093929190818152602001838380828437600092019190915250929550509135925062000ba9915050565b348015620004a257600080fd5b506200034862000d3c565b348015620004ba57600080fd5b506200038860048036036020811015620004d357600080fd5b5035151562000d43565b348015620004ea57600080fd5b5062000388600480360360408110156200050357600080fd5b508035906020013562000dfd565b3480156200051e57600080fd5b5062000348600480360360408110156200053757600080fd5b50600160a060020a03813516906020013562000fb6565b3480156200055b57600080fd5b5062000388600480360360408110156200057457600080fd5b5080359060200135151562000fe7565b3480156200059157600080fd5b50620001976200109a565b348015620005a957600080fd5b506200038860048036036020811015620005c257600080fd5b5035620010a9565b348015620005d757600080fd5b506200034862001137565b348015620005ef57600080fd5b50620003486200113d565b3480156200060757600080fd5b5062000631600480360360208110156200062057600080fd5b5035600160a060020a031662001142565b604080519115158252519081900360200190f35b3480156200065257600080fd5b5062000388600480360360208110156200066b57600080fd5b50356200115d565b3480156200068057600080fd5b506200038862001389565b3480156200069857600080fd5b506200038862001396565b348015620006b057600080fd5b506200038860048036036020811015620006c957600080fd5b5035600160a060020a031662001447565b348015620006e757600080fd5b5062000388600480360360208110156200070057600080fd5b8101906020810181356401000000008111156200071c57600080fd5b8201836020820111156200072f57600080fd5b803590602001918460018302840111640100000000831117156200075257600080fd5b91908080601f01602080910402602001604051908101604052809392919081815260200183838082843760009201919091525092955062001469945050505050565b348015620007a157600080fd5b506200019760048036036020811015620007ba57600080fd5b503562001499565b348015620007cf57600080fd5b506200063160048036036020811015620007e857600080fd5b5035600160a060020a0316620014c2565b3480156200080657600080fd5b5062000388620014d6565b3480156200081e57600080fd5b5062000197620014e1565b600954600160a060020a031681565b60068054829081106200084757fe5b9060005260206000209060050201600091509050806000015490806001018054600181600116156101000203166002900480601f016020809104026020016040519081016040528092919081815260200182805460018160011615610100020316600290048015620008fd5780601f10620008d157610100808354040283529160200191620008fd565b820191906000526020600020905b815481529060010190602001808311620008df57829003601f168201915b50505050600283015460038401546004909401549293909260ff82169250610100909104600160a060020a03169086565b6008805460408051602060026001851615610100026000190190941693909304601f81018490048402820184019092528181529291830182828015620009b85780601f106200098c57610100808354040283529160200191620009b8565b820191906000526020600020905b8154815290600101906020018083116200099a57829003601f168201915b505050505081565b600a545b90565b600a5460068054600092919084908110620009de57fe5b90600052602060002090600502016001013360068581548110151562000a0057fe5b6000918252602090912060026005909202010154600754600160a060020a03163062000a2b620016f2565b868152600160a060020a038086166040830152606082018590528381166080830152821660a082015260c0602082018181528754600260001961010060018416150201909116049183018290529060e08301908890801562000ad15780601f1062000aa55761010080835404028352916020019162000ad1565b820191906000526020600020905b81548152906001019060200180831162000ab357829003601f168201915b5050975050505050505050604051809103906000f08015801562000af9573d6000803e3d6000fd5b50600a805460018101825560009182527fc65a7bb8d6351c1cf70c95a316cc6a92839c986682d98bc35f958f4883f9d2a801805473ffffffffffffffffffffffffffffffffffffffff1916600160a060020a0384161790556040519192507f882e77917ea2af100008ff777e1693a7fe22d06b0a7ffaddc50f9d8ef3a9231491a15050565b62000b8933620014c2565b151562000b9557600080fd5b62000ba081620014f0565b50565b60065490565b62000bb433620014c2565b151562000bc057600080fd5b62000bca62001703565b600654808252602080830185905260408084018590526000606085018190523360808601524260a086015281519384529183019190915280517f2da08c9afbca94a7781f242bd0193bf9a13ebd681b7fead14822408e3fbe78e99281900390910190a16006805460018101808355600092909252825160059091027ff652222313e28459528d920b65115c16c04f3efc82aaedc97be59f3f377c0d3f8101918255602080850151805186949362000ca8937ff652222313e28459528d920b65115c16c04f3efc82aaedc97be59f3f377c0d4090910192019062001746565b506040820151816002015560608201518160030160006101000a81548160ff0219169083600281111562000cd857fe5b02179055506080820151600382018054600160a060020a039092166101000274ffffffffffffffffffffffffffffffffffffffff001990921691909117905560a090910151600490910155508051604082015162000d37919062000dfd565b505050565b62093a8081565b62000d4e3362001142565b151562000d5a57600080fd5b600454600160a060020a0316151562000d7257600080fd5b60048054604080517fbd041c4d0000000000000000000000000000000000000000000000000000000081523393810193909352831515602484015251600160a060020a039091169163bd041c4d91604480830192600092919082900301818387803b15801562000de157600080fd5b505af115801562000df6573d6000803e3d6000fd5b5050505050565b62000e083362001142565b151562000e1457600080fd5b600454600160a060020a0316158062000eb3575060048054604080517fb3f05b970000000000000000000000000000000000000000000000000000000081529051600160a060020a039092169263b3f05b97928282019260209290829003018186803b15801562000e8457600080fd5b505afa15801562000e99573d6000803e3d6000fd5b505050506040513d602081101562000eb057600080fd5b50515b151562000ebf57600080fd5b600354600554429162093a8083019185918591600160a060020a0390911690859085903062000eed620017cb565b9687526020870195909552600160a060020a039384166040808801919091526060870193909352608086019190915260a0850152911660c0830152519081900360e001906000f08015801562000f47573d6000803e3d6000fd5b506004805473ffffffffffffffffffffffffffffffffffffffff1916600160a060020a0392909216919091179055604080518581526020810185905281517f9bd49e167f8ad588627e6f5b6a02b84c5a6ee245ce327afa99ade561bcbc284d929181900390910190a150505050565b60026020528160005260406000208181548110151562000fd257fe5b90600052602060002001600091509150505481565b62000ff233620014c2565b151562000ffe57600080fd5b600a8054839081106200100d57fe5b6000918252602082200154604080517fbd041c4d00000000000000000000000000000000000000000000000000000000815233600482015284151560248201529051600160a060020a039092169263bd041c4d9260448084019382900301818387803b1580156200107d57600080fd5b505af115801562001092573d6000803e3d6000fd5b505050505050565b600454600160a060020a031681565b620010b433620014c2565b1515620010c057600080fd5b600a805482908110620010cf57fe5b6000918252602082200154604080517f0519bac30000000000000000000000000000000000000000000000000000000081523360048201529051600160a060020a0390921692630519bac39260248084019382900301818387803b15801562000de157600080fd5b60055481565b600a81565b60006200115760018363ffffffff6200153a16565b92915050565b600754604080517f70a082310000000000000000000000000000000000000000000000000000000081523360048201529051600092600160a060020a0316916370a08231916024808301926020929190829003018186803b158015620011c257600080fd5b505afa158015620011d7573d6000803e3d6000fd5b505050506040513d6020811015620011ee57600080fd5b505111620011fb57600080fd5b600081116200120957600080fd5b600754604080517f1302afc2000000000000000000000000000000000000000000000000000000008152336004820152306024820152604481018490529051600160a060020a0390921691631302afc2916064808201926020929091908290030181600087803b1580156200127d57600080fd5b505af115801562001292573d6000803e3d6000fd5b505050506040513d6020811015620012a957600080fd5b5050600754604080517f62cd70e2000000000000000000000000000000000000000000000000000000008152336004820152306024820152604481018490529051600160a060020a03909216916362cd70e2916064808201926020929091908290030181600087803b1580156200131f57600080fd5b505af115801562001334573d6000803e3d6000fd5b505050506040513d60208110156200134b57600080fd5b505060408051828152426020820152815133927f73a19dd210f1a7f902193214c0ee91dd35ee5b4d920cba8d519eca65a7b488ca928290030190a250565b620013943362001572565b565b620013a13362001142565b1515620013ad57600080fd5b600454600160a060020a03161515620013c557600080fd5b60048054604080517f0519bac3000000000000000000000000000000000000000000000000000000008152339381019390935251600160a060020a0390911691630519bac391602480830192600092919082900301818387803b1580156200142c57600080fd5b505af115801562001441573d6000803e3d6000fd5b50505050565b620014523362001142565b15156200145e57600080fd5b62000ba081620015bc565b6200147433620014c2565b15156200148057600080fd5b80516200149590600890602084019062001746565b5050565b600a805482908110620014a857fe5b600091825260209091200154600160a060020a0316905081565b600062001157818363ffffffff6200153a16565b620013943362001606565b600754600160a060020a031681565b6200150360008263ffffffff6200165016565b604051600160a060020a038216907f3b4a40cccf2058c593542587329dd385be4f0b588db5471fbd9598e56dd7093a90600090a250565b6000600160a060020a03821615156200155257600080fd5b50600160a060020a03166000908152602091909152604090205460ff1690565b6200158560018263ffffffff620016a216565b604051600160a060020a038216907f6e76fb4c77256006d9c38ec7d82b45a8c8f3c27b1d6766fffc42dfb8de68449290600090a250565b620015cf60018263ffffffff6200165016565b604051600160a060020a038216907fb251eb052afc73ffd02ffe85ad79990a8b3fed60d76dbc2fa2fdd7123dffd91490600090a250565b6200161960008263ffffffff620016a216565b604051600160a060020a038216907fef69f7d97228658c92417be1b16b19058315de71fecb435d07b7d23728b6bd3190600090a250565b600160a060020a03811615156200166657600080fd5b6200167282826200153a565b156200167d57600080fd5b600160a060020a0316600090815260209190915260409020805460ff19166001179055565b600160a060020a0381161515620016b857600080fd5b620016c482826200153a565b1515620016d057600080fd5b600160a060020a0316600090815260209190915260409020805460ff19169055565b60405161108980620017fa83390190565b60c060405190810160405280600081526020016060815260200160008152602001600060028111156200173257fe5b815260006020820181905260409091015290565b828054600181600116156101000203166002900490600052602060002090601f016020900481019282601f106200178957805160ff1916838001178555620017b9565b82800160010185558215620017b9579182015b82811115620017b95782518255916020019190600101906200179c565b50620017c7929150620017dc565b5090565b604051610a5e806200288383390190565b620009c491905b80821115620017c75760008155600101620017e356fe60806040526000600555600060065560006007553480156200002057600080fd5b506040516200108938038062001089833981018060405260c08110156200004657600080fd5b8151602083018051919392830192916401000000008111156200006857600080fd5b820160208101848111156200007c57600080fd5b81516401000000008111828201871017156200009757600080fd5b50506020820151604083015160608401516080909401519295509093509190814262093a8081016000620000d4336401000000006200021f810204565b600160a060020a0384161515620000ea57600080fd5b428310158015620000fa57508282115b15156200010657600080fd5b60018054600160a060020a031916600160a060020a0395909516949094179093556002919091556003556008805460ff1990811690915560048054909116911515919091179055620001613364010000000062000271810204565b15156200016d57600080fd5b600a86905584516200018790600b90602088019062000326565b50600c8054600160a060020a03868116600160a060020a031992831617909255600d859055600e805460ff1916905542600f5560108054821685841617905560118054909116918316919091179055600a54604080519182526000602083015280517f90ab42752b8b3a3e8bcb9cba7d57f5bf87db421f9885bb1c203f08d0ef199c209281900390910190a1505050505050620003cb565b6200023a60008264010000000062000c346200029382021704565b604051600160a060020a038216907fb251eb052afc73ffd02ffe85ad79990a8b3fed60d76dbc2fa2fdd7123dffd91490600090a250565b60006200028d818364010000000062000ae4620002ee82021704565b92915050565b600160a060020a0381161515620002a957600080fd5b620002be8282640100000000620002ee810204565b15620002c957600080fd5b600160a060020a0316600090815260209190915260409020805460ff19166001179055565b6000600160a060020a03821615156200030657600080fd5b50600160a060020a03166000908152602091909152604090205460ff1690565b828054600181600116156101000203166002900490600052602060002090601f016020900481019282601f106200036957805160ff191683800117855562000399565b8280016001018555821562000399579182015b82811115620003995782518255916020019190600101906200037c565b50620003a7929150620003ab565b5090565b620003c891905b80821115620003a75760008155600101620003b2565b90565b610cae80620003db6000396000f3fe6080604052600436106101535763ffffffff7c01000000000000000000000000000000000000000000000000000000006000350416630519bac3811461015857806316f0115b1461018d57806328d21990146101be5780633197cbb6146101e5578063325a19f1146101fa578063361810261461020f57806338af3eed1461023857806341fdade61461024d5780635c134d661461026257806364a902921461029b5780636beb7959146102b057806378e979251461033a57806380322cbd1461034f578063a1d1936114610364578063a230c52414610379578063a7491b48146103ac578063aa8c217c146103ff578063af640d0f14610414578063b3a2273f14610429578063b3f05b971461043e578063bad5ba0114610453578063bd041c4d14610468578063c19d93fb146104a3578063ca6d56dc146104dc578063d74689e41461050f578063fc0c546a14610524575b600080fd5b34801561016457600080fd5b5061018b6004803603602081101561017b57600080fd5b5035600160a060020a0316610539565b005b34801561019957600080fd5b506101a2610608565b60408051600160a060020a039092168252519081900360200190f35b3480156101ca57600080fd5b506101d3610617565b60408051918252519081900360200190f35b3480156101f157600080fd5b506101d361061e565b34801561020657600080fd5b506101d3610624565b34801561021b57600080fd5b5061022461062a565b604080519115158252519081900360200190f35b34801561024457600080fd5b506101a2610673565b34801561025957600080fd5b506101d3610682565b34801561026e57600080fd5b506101d36004803603604081101561028557600080fd5b50600160a060020a038135169060200135610688565b3480156102a757600080fd5b506101d36106b8565b3480156102bc57600080fd5b506102c56106be565b6040805160208082528351818301528351919283929083019185019080838360005b838110156102ff5781810151838201526020016102e7565b50505050905090810190601f16801561032c5780820380516001836020036101000a031916815260200191505b509250505060405180910390f35b34801561034657600080fd5b506101d361074c565b34801561035b57600080fd5b50610224610752565b34801561037057600080fd5b50610224610761565b34801561038557600080fd5b506102246004803603602081101561039c57600080fd5b5035600160a060020a031661077c565b3480156103b857600080fd5b506103df600480360360208110156103cf57600080fd5b5035600160a060020a0316610794565b604080519384526020840192909252151582820152519081900360600190f35b34801561040b57600080fd5b506101d36107b8565b34801561042057600080fd5b506101d36107be565b34801561043557600080fd5b506101d36107c4565b34801561044a57600080fd5b506102246107ca565b34801561045f57600080fd5b5061018b6107d3565b34801561047457600080fd5b5061018b6004803603604081101561048b57600080fd5b50600160a060020a03813516906020013515156107de565b3480156104af57600080fd5b506104b86109fb565b604051808260038111156104c857fe5b60ff16815260200191505060405180910390f35b3480156104e857600080fd5b5061018b600480360360208110156104ff57600080fd5b5035600160a060020a0316610a04565b34801561051b57600080fd5b506101d3610a24565b34801561053057600080fd5b506101a2610a2a565b600254421015801561054d57506003544211155b151561055857600080fd5b600160a060020a0381166000908152600960205260408120541161057b57600080fd5b600160a060020a038116600090815260096020526040812060018082018054600284018054948690559490915560ff19831690935560075460ff909216916105c89163ffffffff610a3916565b60075580156105ec576005546105e4908363ffffffff610a3916565b600555610603565b6006546105ff908363ffffffff610a3916565b6006555b505050565b601154600160a060020a031681565b62093a8081565b60035481565b600f5481565b60085460009060ff161561063d57600080fd5b60035442101561064f57506000610670565b6008805460ff1916600117905561066c610667610a4e565b610a58565b5060015b90565b600c54600160a060020a031681565b6103e881565b6012602052816000526040600020818154811015156106a357fe5b90600052602060002001600091509150505481565b60065481565b600b805460408051602060026001851615610100026000190190941693909304601f810184900484028201840190925281815292918301828280156107445780601f1061071957610100808354040283529160200191610744565b820191906000526020600020905b81548152906001019060200180831161072757829003601f168201915b505050505081565b60025481565b600061075c610a4e565b905090565b60006001600e5460ff16600381111561077657fe5b14905090565b600061078e818363ffffffff610ae416565b92915050565b60096020526000908152604090208054600182015460029092015490919060ff1683565b600d5481565b600a5481565b60075481565b60085460ff1681565b6107dc33610b1b565b565b60025442101580156107f257506003544211155b15156107fd57600080fd5b600160a060020a038216151561081257600080fd5b336000908152600960205260409020541561082c57600080fd5b600154604080517f70a08231000000000000000000000000000000000000000000000000000000008152600160a060020a038581166004830152915160009392909216916370a0823191602480820192602092909190829003018186803b15801561089657600080fd5b505afa1580156108aa573d6000803e3d6000fd5b505050506040513d60208110156108c057600080fd5b5051600154604080517f18160ddd0000000000000000000000000000000000000000000000000000000081529051929350600092610966926103e892600160a060020a03909116916318160ddd91600480820192602092909190829003018186803b15801561092e57600080fd5b505afa158015610942573d6000803e3d6000fd5b505050506040513d602081101561095857600080fd5b50519063ffffffff610b6316565b9050808211156109765780610978565b815b9150821561099b57600554610993908363ffffffff610b8716565b6005556109b2565b6006546109ae908363ffffffff610b8716565b6006555b600160a060020a038416600090815260096020526040902042815560018082018490556002909101805460ff19168515151790556007546109f291610b87565b60075550505050565b600e5460ff1681565b610a0d3361077c565b1515610a1857600080fd5b610a2181610ba0565b50565b60055481565b601054600160a060020a031681565b600082821115610a4857600080fd5b50900390565b6006546005541190565b601154600a54604080517f7370407d0000000000000000000000000000000000000000000000000000000081526004810192909252831515602483015251600160a060020a0390921691637370407d9160448082019260009290919082900301818387803b158015610ac957600080fd5b505af1158015610add573d6000803e3d6000fd5b5050505050565b6000600160a060020a0382161515610afb57600080fd5b50600160a060020a03166000908152602091909152604090205460ff1690565b610b2c60008263ffffffff610be816565b604051600160a060020a038216907f6e76fb4c77256006d9c38ec7d82b45a8c8f3c27b1d6766fffc42dfb8de68449290600090a250565b6000808211610b7157600080fd5b60008284811515610b7e57fe5b04949350505050565b600082820183811015610b9957600080fd5b9392505050565b610bb160008263ffffffff610c3416565b604051600160a060020a038216907fb251eb052afc73ffd02ffe85ad79990a8b3fed60d76dbc2fa2fdd7123dffd91490600090a250565b600160a060020a0381161515610bfd57600080fd5b610c078282610ae4565b1515610c1257600080fd5b600160a060020a0316600090815260209190915260409020805460ff19169055565b600160a060020a0381161515610c4957600080fd5b610c538282610ae4565b15610c5d57600080fd5b600160a060020a0316600090815260209190915260409020805460ff1916600117905556fea165627a7a723058204627b99831f61d4e5420afca22d596219ccb97df1d553f3b49a5570cacb9766b00296080604052600060045560006005556000600655600060095534801561002457600080fd5b5060405160e080610a5e833981018060405260e081101561004457600080fd5b508051602082015160408301516060840151608085015160a086015160c09096015194959394929391929091908484846000600160a060020a038416151561008b57600080fd5b42831015801561009a57508282115b15156100a557600080fd5b60008054600160a060020a03958616600160a060020a03199182161782556001949094556002929092556007805460ff199081169091556003805492151592909116919091179055600a99909955600993909355600b96909655600c8054919096169116179093555061093e928392506101209150396000f3fe6080604052600436106100fb5763ffffffff7c01000000000000000000000000000000000000000000000000000000006000350416630519bac3811461010057806316f0115b146101355780632c24909c146101665780633197cbb61461018d57806336181026146101a257806341fdade6146101cb5780634e9e8e73146101e057806364a90292146101f55780636f6a97621461020a57806378e979251461021f57806380322cbd14610234578063a7491b4814610249578063af640d0f1461029c578063b3a2273f146102b1578063b3f05b97146102c6578063bd041c4d146102db578063d74689e414610316578063fc0c546a1461032b575b600080fd5b34801561010c57600080fd5b506101336004803603602081101561012357600080fd5b5035600160a060020a0316610340565b005b34801561014157600080fd5b5061014a61040f565b60408051600160a060020a039092168252519081900360200190f35b34801561017257600080fd5b5061017b61041e565b60408051918252519081900360200190f35b34801561019957600080fd5b5061017b6104f6565b3480156101ae57600080fd5b506101b76104fc565b604080519115158252519081900360200190f35b3480156101d757600080fd5b5061017b610544565b3480156101ec57600080fd5b5061017b61054a565b34801561020157600080fd5b5061017b610550565b34801561021657600080fd5b5061017b610556565b34801561022b57600080fd5b5061017b61055c565b34801561024057600080fd5b506101b7610562565b34801561025557600080fd5b5061027c6004803603602081101561026c57600080fd5b5035600160a060020a0316610571565b604080519384526020840192909252151582820152519081900360600190f35b3480156102a857600080fd5b5061017b610595565b3480156102bd57600080fd5b5061017b61059b565b3480156102d257600080fd5b506101b76105a1565b3480156102e757600080fd5b50610133600480360360408110156102fe57600080fd5b50600160a060020a03813516906020013515156105aa565b34801561032257600080fd5b5061017b6107c2565b34801561033757600080fd5b5061014a6107c8565b600154421015801561035457506002544211155b151561035f57600080fd5b600160a060020a0381166000908152600860205260408120541161038257600080fd5b600160a060020a038116600090815260086020526040812060018082018054600284018054948690559490915560ff19831690935560065460ff909216916103cf9163ffffffff6107d716565b60065580156103f3576004546103eb908363ffffffff6107d716565b60045561040a565b600554610406908363ffffffff6107d716565b6005555b505050565b600c54600160a060020a031681565b6000806104386005546004546107f190919063ffffffff16565b90506104ef6000809054906101000a9004600160a060020a0316600160a060020a03166318160ddd6040518163ffffffff167c010000000000000000000000000000000000000000000000000000000002815260040160206040518083038186803b1580156104a657600080fd5b505afa1580156104ba573d6000803e3d6000fd5b505050506040513d60208110156104d057600080fd5b50516104e383606463ffffffff61080a16565b9063ffffffff61083516565b9150505b90565b60025481565b60075460009060ff161561050f57600080fd5b600254421015610521575060006104f3565b6007805460ff1916600117905561053e610539610859565b61087b565b50600190565b6103e881565b600b5481565b60055481565b60095481565b60015481565b600061056c610859565b905090565b60086020526000908152604090208054600182015460029092015490919060ff1683565b600a5481565b60065481565b60075460ff1681565b60015442101580156105be57506002544211155b15156105c957600080fd5b600160a060020a03821615156105de57600080fd5b33600090815260086020526040902054156105f857600080fd5b60008054604080517f70a08231000000000000000000000000000000000000000000000000000000008152600160a060020a038681166004830152915191909216916370a08231916024808301926020929190829003018186803b15801561065f57600080fd5b505afa158015610673573d6000803e3d6000fd5b505050506040513d602081101561068957600080fd5b505160008054604080517f18160ddd0000000000000000000000000000000000000000000000000000000081529051939450919261072d926103e892600160a060020a0316916318160ddd91600480820192602092909190829003018186803b1580156106f557600080fd5b505afa158015610709573d6000803e3d6000fd5b505050506040513d602081101561071f57600080fd5b50519063ffffffff61083516565b90508082111561073d578061073f565b815b915082156107625760045461075a908363ffffffff6107f116565b600455610779565b600554610775908363ffffffff6107f116565b6005555b600160a060020a038416600090815260086020526040902042815560018082018490556002909101805460ff19168515151790556006546107b9916107f1565b60065550505050565b60045481565b600054600160a060020a031681565b6000828211156107e657600080fd5b508082035b92915050565b60008282018381101561080357600080fd5b9392505050565b600082151561081b575060006107eb565b82820282848281151561082a57fe5b041461080357600080fd5b600080821161084357600080fd5b6000828481151561085057fe5b04949350505050565b600060055460045411801561056c575060095461087461041e565b1015905090565b600c54600a54600b54604080517f607ca15b00000000000000000000000000000000000000000000000000000000815260048101939093528415156024840152604483019190915251600160a060020a039092169163607ca15b9160648082019260009290919082900301818387803b1580156108f757600080fd5b505af115801561090b573d6000803e3d6000fd5b505050505056fea165627a7a72305820d609193e76ce64691ddf927d8caf9b77453f6a789e1fce43485d47b057b02e410029a165627a7a7230582002db90a5f05786c656e36723849735e855ecd9d2f4c26bb7b4703073f3949d090029",
  "source": "pragma solidity ^0.5.0;\n\nimport './reward/Reward.sol';\nimport './rule/Rules.sol';\nimport './THXToken.sol';\n\ncontract RewardPool is Rules {\n\n    event Deposited(address indexed sender, uint256 amount, uint256 created);\n    event Withdrawn(address indexed beneficiary, uint256 amount, uint256 id, uint256 created);\n\n    event RewardPollCreated();\n    event RewardPollFinished(uint256 id, bool approved);\n\n    THXToken public token;\n    string public name;\n    address public creator;\n\n    Reward[] public rewards;\n\n    constructor(\n        string memory _name,\n        address _tokenAddress\n    ) public\n        Rules(_tokenAddress)\n    {\n        name = _name;\n        token = THXToken(_tokenAddress);\n        creator = msg.sender;\n    }\n\n    /**\n    * @dev Updates the pool name set initially through the constructor.\n    * @param value The new pool name.\n    */\n    function updatePoolName(string memory value) public onlyManager {\n        name = value;\n    }\n\n    /**\n    * @dev Stores the sent amount as tokens in the Reward Pool.\n    * @param amount The amount the sender deposited.\n    */\n    function deposit(uint256 amount) public {\n        require(token.balanceOf(msg.sender) > 0);\n        require(amount > 0);\n\n        // Approve the token transaction.\n        token.approveDeposit(msg.sender, address(this), amount);\n\n        // Transfer the tokens from the sender to the pool\n        token.transferDeposit(msg.sender, address(this), amount);\n\n        emit Deposited(msg.sender, amount, now);\n    }\n\n    /**\n    * @dev Counts the amount of rewards.\n    */\n    function countRewards() public view returns (uint256) {\n        return rewards.length;\n    }\n\n    /**\n    * @dev Creates the suggested reward.\n    * @param id Reference to the rule\n    */\n    function createReward(uint256 id) public {\n        Reward reward = new Reward(rewards.length, rules[id].slug, msg.sender, rules[id].amount, address(token), address(this));\n        rewards.push(reward);\n\n        emit RewardPollCreated();\n    }\n\n    /**\n    * @dev Vote for the suggested reward.\n    * @param id Referenced Reward\n    * @param agree Approve or reject reward.\n    */\n    function voteForReward(uint256 id, bool agree) public onlyManager {\n        rewards[id].vote(msg.sender, agree);\n    }\n\n    /**\n    * @dev Vote for the suggested reward.\n    * @param id Reference to thte reward\n    */\n    function revokeVoteForReward(uint256 id) public onlyManager {\n        rewards[id].revokeVote(msg.sender);\n    }\n\n    /**\n    * @dev Called when poll is finished\n    * @param agree Bool for checking the result of the poll.\n    */\n    function onRewardPollFinish(uint256 id, bool agree) internal {\n        require(rewards[id].finalized());\n        if(agree) {\n            _withdraw(id);\n        }\n        emit RewardPollFinished(id, agree);\n    }\n\n    /**\n    * @dev Withdraw accumulated balance for a beneficiary.\n    */\n    function _withdraw(uint256 id) internal onlyMember {\n        uint256 tokenBalance = token.balanceOf(address(this));\n\n        require(rewards[id].withdrawalAllowed());\n        require(rewards[id].amount() > 0);\n        require(tokenBalance >= rewards[id].amount());\n\n        // Approve the token transaction.\n        token.approve(address(this), rewards[id].amount());\n        // Transfer the tokens from the pool to the beneficiary.\n        token.transferFrom(address(this), rewards[id].beneficiary(), rewards[id].amount());\n\n        emit Withdrawn(rewards[id].beneficiary(), rewards[id].amount(), id, now);\n\n        delete rewards[id];\n    }\n\n}\n",
  "sourcePath": "/Users/peterpolman/Sites/thx_client/contracts/RewardPool.sol",
  "compiler": {
    "name": "solc",
    "version": "0.5.0+commit.1d4f565a.Emscripten.clang"
  },
  "schemaVersion": "3.0.1",
  "updatedAt": "2019-08-14T12:54:51.469Z",
  "devdoc": {
    "methods": {
      "countRewards()": {
        "details": "Counts the amount of rewards."
      },
      "countRules()": {
        "details": "Counts the amount of rules."
      },
      "createReward(uint256)": {
        "details": "Creates the suggested reward.",
        "params": {
          "id": "Reference to the rule"
        }
      },
      "createRule(string,uint256)": {
        "details": "Creates the initial reward rule.",
        "params": {
          "amount": "Reward size suggested for the beneficiary.",
          "slug": "Short readable description of rule."
        }
      },
      "deposit(uint256)": {
        "details": "Stores the sent amount as tokens in the Reward Pool.",
        "params": {
          "amount": "The amount the sender deposited."
        }
      },
      "revokeVoteForReward(uint256)": {
        "details": "Vote for the suggested reward.",
        "params": {
          "id": "Reference to thte reward"
        }
      },
      "revokeVoteForRule()": {
        "details": "Vote for the suggested rule."
      },
      "startRulePoll(uint256,uint256)": {
        "details": "Starts the rule poll for chaning the amount."
      },
      "updatePoolName(string)": {
        "details": "Updates the pool name set initially through the constructor.",
        "params": {
          "value": "The new pool name."
        }
      },
      "voteForReward(uint256,bool)": {
        "details": "Vote for the suggested reward.",
        "params": {
          "agree": "Approve or reject reward.",
          "id": "Referenced Reward"
        }
      },
      "voteForRule(bool)": {
        "details": "Vote for the suggested rule.",
        "params": {
          "agree": "Approve or reject rule."
        }
      }
    }
  },
  "userdoc": {
    "methods": {}
  }
}