{
  "contractName": "Rules",
  "abi": [
    {
      "constant": true,
      "inputs": [
        {
          "name": "",
          "type": "uint256"
        }
      ],
      "name": "rules",
      "outputs": [
        {
          "name": "id",
          "type": "uint256"
        },
        {
          "name": "slug",
          "type": "string"
        },
        {
          "name": "amount",
          "type": "uint256"
        },
        {
          "name": "state",
          "type": "uint8"
        },
        {
          "name": "creator",
          "type": "address"
        },
        {
          "name": "created",
          "type": "uint256"
        }
      ],
      "payable": false,
      "stateMutability": "view",
      "type": "function"
    },
    {
      "constant": false,
      "inputs": [
        {
          "name": "account",
          "type": "address"
        }
      ],
      "name": "addManager",
      "outputs": [],
      "payable": false,
      "stateMutability": "nonpayable",
      "type": "function"
    },
    {
      "constant": true,
      "inputs": [],
      "name": "RULE_POLL_DURATION",
      "outputs": [
        {
          "name": "",
          "type": "uint256"
        }
      ],
      "payable": false,
      "stateMutability": "view",
      "type": "function"
    },
    {
      "constant": true,
      "inputs": [
        {
          "name": "",
          "type": "address"
        },
        {
          "name": "",
          "type": "uint256"
        }
      ],
      "name": "voters",
      "outputs": [
        {
          "name": "",
          "type": "uint256"
        }
      ],
      "payable": false,
      "stateMutability": "view",
      "type": "function"
    },
    {
      "constant": true,
      "inputs": [],
      "name": "rulePoll",
      "outputs": [
        {
          "name": "",
          "type": "address"
        }
      ],
      "payable": false,
      "stateMutability": "view",
      "type": "function"
    },
    {
      "constant": true,
      "inputs": [],
      "name": "minVotedTokensPerc",
      "outputs": [
        {
          "name": "",
          "type": "uint256"
        }
      ],
      "payable": false,
      "stateMutability": "view",
      "type": "function"
    },
    {
      "constant": true,
      "inputs": [],
      "name": "MAX_VOTED_TOKEN_PERC",
      "outputs": [
        {
          "name": "",
          "type": "uint256"
        }
      ],
      "payable": false,
      "stateMutability": "view",
      "type": "function"
    },
    {
      "constant": true,
      "inputs": [
        {
          "name": "account",
          "type": "address"
        }
      ],
      "name": "isMember",
      "outputs": [
        {
          "name": "",
          "type": "bool"
        }
      ],
      "payable": false,
      "stateMutability": "view",
      "type": "function"
    },
    {
      "constant": false,
      "inputs": [],
      "name": "renounceMember",
      "outputs": [],
      "payable": false,
      "stateMutability": "nonpayable",
      "type": "function"
    },
    {
      "constant": false,
      "inputs": [
        {
          "name": "account",
          "type": "address"
        }
      ],
      "name": "addMember",
      "outputs": [],
      "payable": false,
      "stateMutability": "nonpayable",
      "type": "function"
    },
    {
      "constant": true,
      "inputs": [
        {
          "name": "account",
          "type": "address"
        }
      ],
      "name": "isManager",
      "outputs": [
        {
          "name": "",
          "type": "bool"
        }
      ],
      "payable": false,
      "stateMutability": "view",
      "type": "function"
    },
    {
      "constant": false,
      "inputs": [],
      "name": "renounceManager",
      "outputs": [],
      "payable": false,
      "stateMutability": "nonpayable",
      "type": "function"
    },
    {
      "constant": true,
      "inputs": [],
      "name": "token",
      "outputs": [
        {
          "name": "",
          "type": "address"
        }
      ],
      "payable": false,
      "stateMutability": "view",
      "type": "function"
    },
    {
      "inputs": [
        {
          "name": "_tokenAddress",
          "type": "address"
        }
      ],
      "payable": false,
      "stateMutability": "nonpayable",
      "type": "constructor"
    },
    {
      "anonymous": false,
      "inputs": [
        {
          "indexed": false,
          "name": "id",
          "type": "uint256"
        },
        {
          "indexed": false,
          "name": "proposedAmount",
          "type": "uint256"
        }
      ],
      "name": "RulePollCreated",
      "type": "event"
    },
    {
      "anonymous": false,
      "inputs": [
        {
          "indexed": false,
          "name": "id",
          "type": "uint256"
        },
        {
          "indexed": false,
          "name": "approved",
          "type": "bool"
        }
      ],
      "name": "RulePollFinished",
      "type": "event"
    },
    {
      "anonymous": false,
      "inputs": [
        {
          "indexed": false,
          "name": "id",
          "type": "uint256"
        },
        {
          "indexed": false,
          "name": "state",
          "type": "uint8"
        }
      ],
      "name": "RuleStateChanged",
      "type": "event"
    },
    {
      "anonymous": false,
      "inputs": [
        {
          "indexed": true,
          "name": "account",
          "type": "address"
        }
      ],
      "name": "MemberAdded",
      "type": "event"
    },
    {
      "anonymous": false,
      "inputs": [
        {
          "indexed": true,
          "name": "account",
          "type": "address"
        }
      ],
      "name": "MemberRemoved",
      "type": "event"
    },
    {
      "anonymous": false,
      "inputs": [
        {
          "indexed": true,
          "name": "account",
          "type": "address"
        }
      ],
      "name": "ManagerAdded",
      "type": "event"
    },
    {
      "anonymous": false,
      "inputs": [
        {
          "indexed": true,
          "name": "account",
          "type": "address"
        }
      ],
      "name": "ManagerRemoved",
      "type": "event"
    },
    {
      "constant": false,
      "inputs": [
        {
          "name": "slug",
          "type": "string"
        },
        {
          "name": "amount",
          "type": "uint256"
        }
      ],
      "name": "createRule",
      "outputs": [],
      "payable": false,
      "stateMutability": "nonpayable",
      "type": "function"
    },
    {
      "constant": false,
      "inputs": [
        {
          "name": "agree",
          "type": "bool"
        }
      ],
      "name": "voteForRule",
      "outputs": [],
      "payable": false,
      "stateMutability": "nonpayable",
      "type": "function"
    },
    {
      "constant": false,
      "inputs": [],
      "name": "revokeVoteForRule",
      "outputs": [],
      "payable": false,
      "stateMutability": "nonpayable",
      "type": "function"
    },
    {
      "constant": false,
      "inputs": [
        {
          "name": "id",
          "type": "uint256"
        },
        {
          "name": "proposedAmount",
          "type": "uint256"
        }
      ],
      "name": "startRulePoll",
      "outputs": [],
      "payable": false,
      "stateMutability": "nonpayable",
      "type": "function"
    },
    {
      "constant": false,
      "inputs": [
        {
          "name": "id",
          "type": "uint256"
        },
        {
          "name": "agree",
          "type": "bool"
        },
        {
          "name": "proposedAmount",
          "type": "uint256"
        }
      ],
      "name": "onRulePollFinish",
      "outputs": [],
      "payable": false,
      "stateMutability": "nonpayable",
      "type": "function"
    },
    {
      "constant": true,
      "inputs": [],
      "name": "countRules",
      "outputs": [
        {
          "name": "",
          "type": "uint256"
        }
      ],
      "payable": false,
      "stateMutability": "view",
      "type": "function"
    }
  ],
  "bytecode": "0x608060405260006005553480156200001657600080fd5b5060405160208062001b83833981018060405260208110156200003857600080fd5b50516200004c3362000083602090811b901c565b6200005d33620000d560201b60201c565b600380546001600160a01b0319166001600160a01b0392909216919091179055620001b3565b6200009e8160006200012760201b62000ebd1790919060201c565b6040516001600160a01b038216907f3b4a40cccf2058c593542587329dd385be4f0b588db5471fbd9598e56dd7093a90600090a250565b620000f08160016200012760201b62000ebd1790919060201c565b6040516001600160a01b038216907fb251eb052afc73ffd02ffe85ad79990a8b3fed60d76dbc2fa2fdd7123dffd91490600090a250565b6001600160a01b0381166200013b57600080fd5b6200014d82826200017d60201b60201c565b156200015857600080fd5b6001600160a01b0316600090815260209190915260409020805460ff19166001179055565b60006001600160a01b0382166200019357600080fd5b506001600160a01b03166000908152602091909152604090205460ff1690565b6119c080620001c36000396000f3fe608060405234801561001057600080fd5b50600436106101215760003560e01c80636fb1270c116100ad578063c9b1945311610071578063c9b19453146103ff578063ca6d56dc14610407578063f3ae24151461042d578063f8b91abe14610453578063fc0c546a1461045b57610121565b80636fb1270c1461038957806384219204146103ad578063962c9c8d146103b5578063a230c524146103bd578063bad5ba01146103f757610121565b8063439c6f17116100f4578063439c6f17146102e857806351fece9d146102f0578063563b373d1461030f5780635c134d6614610332578063607ca15b1461035e57610121565b806304d6ded4146101265780632d06177a146101fe57806331c540321461022657806335deeb4a14610240575b600080fd5b6101436004803603602081101561013c57600080fd5b5035610463565b604051808781526020018060200186815260200185600281111561016357fe5b60ff168152602001846001600160a01b03166001600160a01b03168152602001838152602001828103825287818151815260200191508051906020019080838360005b838110156101be5781810151838201526020016101a6565b50505050905090810190601f1680156101eb5780820380516001836020036101000a031916815260200191505b5097505050505050505060405180910390f35b6102246004803603602081101561021457600080fd5b50356001600160a01b0316610553565b005b61022e610571565b60408051918252519081900360200190f35b6102246004803603604081101561025657600080fd5b81019060208101813564010000000081111561027157600080fd5b82018360208201111561028357600080fd5b803590602001918460018302840111640100000000831117156102a557600080fd5b91908080601f0160208091040260200160405190810160405280939291908181526020018383808284376000920191909152509295505091359250610578915050565b61022e6106f2565b6102246004803603602081101561030657600080fd5b503515156106f9565b6102246004803603604081101561032557600080fd5b5080359060200135610793565b61022e6004803603604081101561034857600080fd5b506001600160a01b03813516906020013561091e565b6102246004803603606081101561037457600080fd5b5080359060208101351515906040013561094c565b610391610abf565b604080516001600160a01b039092168252519081900360200190f35b61022e610ace565b61022e610ad4565b6103e3600480360360208110156103d357600080fd5b50356001600160a01b0316610ad9565b604080519115158252519081900360200190f35b610224610af2565b610224610afd565b6102246004803603602081101561041d57600080fd5b50356001600160a01b0316610b8e565b6103e36004803603602081101561044357600080fd5b50356001600160a01b0316610ba9565b610224610bbb565b610391610bc4565b6006818154811061047057fe5b9060005260206000209060050201600091509050806000015490806001018054600181600116156101000203166002900480601f0160208091040260200160405190810160405280929190818152602001828054600181600116156101000203166002900480156105225780601f106104f757610100808354040283529160200191610522565b820191906000526020600020905b81548152906001019060200180831161050557829003601f168201915b50505050600283015460038401546004909401549293909260ff821692506101009091046001600160a01b03169086565b61055c33610ba9565b61056557600080fd5b61056e81610bd3565b50565b6006545b90565b61058133610ba9565b61058a57600080fd5b610592610f73565b600654808252602080830185905260408084018590526000606085018190523360808601524260a086015281519384529183019190915280517f2da08c9afbca94a7781f242bd0193bf9a13ebd681b7fead14822408e3fbe78e99281900390910190a16006805460018101808355600092909252825160059091027ff652222313e28459528d920b65115c16c04f3efc82aaedc97be59f3f377c0d3f8101918255602080850151805186949361066e937ff652222313e28459528d920b65115c16c04f3efc82aaedc97be59f3f377c0d40909101920190610fb4565b506040820151816002015560608201518160030160006101000a81548160ff0219169083600281111561069d57fe5b021790555060808201516003820180546001600160a01b0390921661010002610100600160a81b031990921691909117905560a09091015160049091015550805160408201516106ed9190610793565b505050565b62093a8081565b61070233610ad9565b61070b57600080fd5b6004546001600160a01b031661072057600080fd5b6004805460408051600160e01b63bd041c4d02815233938101939093528315156024840152516001600160a01b039091169163bd041c4d91604480830192600092919082900301818387803b15801561077857600080fd5b505af115801561078c573d6000803e3d6000fd5b5050505050565b61079c33610ad9565b6107a557600080fd5b6004546001600160a01b0316158061082a57506004805460408051600160e01b63b3f05b9702815290516001600160a01b039092169263b3f05b97928282019260209290829003018186803b1580156107fd57600080fd5b505afa158015610811573d6000803e3d6000fd5b505050506040513d602081101561082757600080fd5b50515b61083357600080fd5b600354600554604051429262093a80840192869286926001600160a01b0316918691869190309061086390611032565b96875260208701959095526001600160a01b039384166040808801919091526060870193909352608086019190915260a0850152911660c0830152519081900360e001906000f0801580156108bc573d6000803e3d6000fd5b50600480546001600160a01b0319166001600160a01b0392909216919091179055604080518581526020810185905281517f9bd49e167f8ad588627e6f5b6a02b84c5a6ee245ce327afa99ade561bcbc284d929181900390910190a150505050565b6002602052816000526040600020818154811061093757fe5b90600052602060002001600091509150505481565b6004546001600160a01b0316331480156109d357506004805460408051600160e01b63b3f05b9702815290516001600160a01b039092169263b3f05b97928282019260209290829003018186803b1580156109a657600080fd5b505afa1580156109ba573d6000803e3d6000fd5b505050506040513d60208110156109d057600080fd5b50515b6109dc57600080fd5b81156109ec576109ec8382610c1b565b610a6e600460009054906101000a90046001600160a01b03166001600160a01b0316632c24909c6040518163ffffffff1660e01b815260040160206040518083038186803b158015610a3d57600080fd5b505afa158015610a51573d6000803e3d6000fd5b505050506040513d6020811015610a6757600080fd5b5051610d81565b60408051848152831515602082015281517f118384964387422ef394126dcae83b6fc97ee2a5c14d8729ebc59cc3d1ce3f44929181900390910190a15050600480546001600160a01b031916905550565b6004546001600160a01b031681565b60055481565b600a81565b6000610aec60018363ffffffff610db016565b92915050565b610afb33610de5565b565b610b0633610ad9565b610b0f57600080fd5b6004546001600160a01b0316610b2457600080fd5b6004805460408051600160e01b630519bac30281523393810193909352516001600160a01b0390911691630519bac391602480830192600092919082900301818387803b158015610b7457600080fd5b505af1158015610b88573d6000803e3d6000fd5b50505050565b610b9733610ad9565b610ba057600080fd5b61056e81610e2d565b6000610aec818363ffffffff610db016565b610afb33610e75565b6003546001600160a01b031681565b610be460008263ffffffff610ebd16565b6040516001600160a01b038216907f3b4a40cccf2058c593542587329dd385be4f0b588db5471fbd9598e56dd7093a90600090a250565b600060068381548110610c2a57fe5b600091825260209091206003600590920201015460ff166002811115610c4c57fe5b1480610c865750600260068381548110610c6257fe5b600091825260209091206003600590920201015460ff166002811115610c8457fe5b145b610c8f57600080fd5b8060068381548110610c9d57fe5b906000526020600020906005020160020181905550600160068381548110610cc157fe5b60009182526020909120600360059092020101805460ff19166001836002811115610ce857fe5b02179055507f2da08c9afbca94a7781f242bd0193bf9a13ebd681b7fead14822408e3fbe78e960068381548110610d1b57fe5b90600052602060002090600502016000015460068481548110610d3a57fe5b60009182526020918290206003600590920201015460405183815260ff909116918101826002811115610d6957fe5b60ff1681526020019250505060405180910390a15050565b6000610d9482600263ffffffff610f0916565b9050600a811115610daa5750600a60055561056e565b60055550565b60006001600160a01b038216610dc557600080fd5b506001600160a01b03166000908152602091909152604090205460ff1690565b610df660018263ffffffff610f2b16565b6040516001600160a01b038216907f6e76fb4c77256006d9c38ec7d82b45a8c8f3c27b1d6766fffc42dfb8de68449290600090a250565b610e3e60018263ffffffff610ebd16565b6040516001600160a01b038216907fb251eb052afc73ffd02ffe85ad79990a8b3fed60d76dbc2fa2fdd7123dffd91490600090a250565b610e8660008263ffffffff610f2b16565b6040516001600160a01b038216907fef69f7d97228658c92417be1b16b19058315de71fecb435d07b7d23728b6bd3190600090a250565b6001600160a01b038116610ed057600080fd5b610eda8282610db0565b15610ee457600080fd5b6001600160a01b0316600090815260209190915260409020805460ff19166001179055565b6000808211610f1757600080fd5b6000828481610f2257fe5b04949350505050565b6001600160a01b038116610f3e57600080fd5b610f488282610db0565b610f5157600080fd5b6001600160a01b0316600090815260209190915260409020805460ff19169055565b6040518060c0016040528060008152602001606081526020016000815260200160006002811115610fa057fe5b815260006020820181905260409091015290565b828054600181600116156101000203166002900490600052602060002090601f016020900481019282601f10610ff557805160ff1916838001178555611022565b82800160010185558215611022579182015b82811115611022578251825591602001919060010190611007565b5061102e92915061103f565b5090565b61093b8061105a83390190565b61057591905b8082111561102e576000815560010161104556fe60806040526000600555600060065560006007556000600a5534801561002457600080fd5b5060405160e08061093b833981018060405260e081101561004457600080fd5b508051602082015160408301516060840151608085015160a086015160c09096015194959394929391929091908481858560006001600160a01b03851661008a57600080fd5b42831015801561009957508282115b6100a257600080fd5b600080546001600160a01b03199081166001600160a01b03978816178255600180548216968816969096179095556002939093556003919091556008805460ff1990811690915560048054909116911515919091179055600b99909955600a93909355600c96909655600d80549092169516949094179093555061080d9283925061012e9150396000f3fe608060405234801561001057600080fd5b50600436106101165760003560e01c806378e97925116100a2578063b3a2273f11610071578063b3a2273f14610223578063b3f05b971461022b578063bd041c4d14610233578063d74689e414610261578063fc0c546a1461026957610116565b806378e97925146101c557806380322cbd146101cd578063a7491b48146101d5578063af640d0f1461021b57610116565b806336181026116100e9578063361810261461018957806341fdade6146101a55780634e9e8e73146101ad57806364a90292146101b55780636f6a9762146101bd57610116565b80630519bac31461011b57806316f0115b146101435780632c24909c146101675780633197cbb614610181575b600080fd5b6101416004803603602081101561013157600080fd5b50356001600160a01b0316610271565b005b61014b61033d565b604080516001600160a01b039092168252519081900360200190f35b61016f61034c565b60408051918252519081900360200190f35b61016f610408565b61019161040e565b604080519115158252519081900360200190f35b61016f610456565b61016f61045c565b61016f610462565b61016f610468565b61016f61046e565b610191610474565b6101fb600480360360208110156101eb57600080fd5b50356001600160a01b0316610483565b604080519384526020840192909252151582820152519081900360600190f35b61016f6104a7565b61016f6104ad565b6101916104b3565b6101416004803603604081101561024957600080fd5b506001600160a01b03813516906020013515156104bc565b61016f6106ad565b61014b6106b3565b600254421015801561028557506003544211155b61028e57600080fd5b6001600160a01b0381166000908152600960205260409020546102b057600080fd5b6001600160a01b038116600090815260096020526040812060018082018054600284018054948690559490915560ff19831690935560075460ff909216916102fd9163ffffffff6106c216565b600755801561032157600554610319908363ffffffff6106c216565b600555610338565b600654610334908363ffffffff6106c216565b6006555b505050565b600d546001600160a01b031681565b6000806103666006546005546106dc90919063ffffffff16565b90506104016000809054906101000a90046001600160a01b03166001600160a01b03166318160ddd6040518163ffffffff1660e01b815260040160206040518083038186803b1580156103b857600080fd5b505afa1580156103cc573d6000803e3d6000fd5b505050506040513d60208110156103e257600080fd5b50516103f583606463ffffffff6106f516565b9063ffffffff61071c16565b9150505b90565b60035481565b60085460009060ff161561042157600080fd5b60035442101561043357506000610405565b6008805460ff1916600117905561045061044b61073e565b610760565b50600190565b6103e881565b600c5481565b60065481565b600a5481565b60025481565b600061047e61073e565b905090565b60096020526000908152604090208054600182015460029092015490919060ff1683565b600b5481565b60075481565b60085460ff1681565b60025442101580156104d057506003544211155b6104d957600080fd5b6001600160a01b0382166104ec57600080fd5b6001600160a01b0382166000908152600960205260409020541561050f57600080fd5b6000805460408051600160e01b6370a082310281526001600160a01b038681166004830152915191909216916370a08231916024808301926020929190829003018186803b15801561056057600080fd5b505afa158015610574573d6000803e3d6000fd5b505050506040513d602081101561058a57600080fd5b50516000805460408051600160e01b6318160ddd02815290519394509192610618926103e8926001600160a01b0316916318160ddd91600480820192602092909190829003018186803b1580156105e057600080fd5b505afa1580156105f4573d6000803e3d6000fd5b505050506040513d602081101561060a57600080fd5b50519063ffffffff61071c16565b905080821115610628578061062a565b815b9150821561064d57600554610645908363ffffffff6106dc16565b600555610664565b600654610660908363ffffffff6106dc16565b6006555b6001600160a01b038416600090815260096020526040902042815560018082018490556002909101805460ff19168515151790556007546106a4916106dc565b60075550505050565b60055481565b6000546001600160a01b031681565b6000828211156106d157600080fd5b508082035b92915050565b6000828201838110156106ee57600080fd5b9392505050565b600082610704575060006106d6565b8282028284828161071157fe5b04146106ee57600080fd5b600080821161072a57600080fd5b600082848161073557fe5b04949350505050565b600060065460055411801561047e5750600a5461075961034c565b1015905090565b600d54600b54600c5460408051600160e01b63607ca15b028152600481019390935284151560248401526044830191909152516001600160a01b039092169163607ca15b9160648082019260009290919082900301818387803b1580156107c657600080fd5b505af11580156107da573d6000803e3d6000fd5b505050505056fea165627a7a7230582061ddb6cb4d0d954ba96708092c8843df543acab4b3d5b2cc3ef9edfe885e22c40029a165627a7a723058208b708985dfcbb8d5579ba5ca3d46f0fae96d65e215b267bdda2ced4815b3a50b0029",
  "source": "pragma solidity ^0.5.0;\n\nimport '../access/roles/MemberRole.sol';\nimport '../access/roles/ManagerRole.sol';\nimport '../math/SafeMath.sol';\nimport '../token/ERC20/IERC20.sol';\nimport '../poll/polls/RulePoll.sol';\n\ncontract Rules is ManagerRole, MemberRole {\n    using SafeMath for uint256;\n\n    struct Rule {\n        uint256 id;\n        string slug;\n        uint256 amount;\n        RuleState state;\n        address creator;\n        uint256 created;\n    }\n\n    enum RuleState { Pending, Approved, Rejected }\n\n    event RulePollCreated(uint256 id, uint256 proposedAmount);\n    event RulePollFinished(uint256 id, bool approved);\n    event RuleStateChanged(uint256 id, RuleState state);\n\n    mapping (address => uint256[]) public voters;\n\n    uint256 public constant RULE_POLL_DURATION = 7 days;\n    uint256 public constant MAX_VOTED_TOKEN_PERC = 10;\n\n    IERC20 public token;\n    RulePoll public rulePoll;\n    uint256 public minVotedTokensPerc = 0;\n\n    Rule[] public rules;\n\n    constructor(address _tokenAddress) public {\n        token = IERC20(_tokenAddress);\n    }\n\n    /**\n    * @dev Creates the initial reward rule.\n    * @param slug Short readable description of rule.\n    * @param amount Reward size suggested for the beneficiary.\n    */\n    function createRule(string memory slug, uint256 amount) public onlyManager {\n        Rule memory rule;\n\n        rule.id = rules.length;\n        rule.slug = slug;\n        rule.amount = amount;\n        rule.state = RuleState.Pending;\n        rule.creator = msg.sender;\n        rule.created = now;\n\n        emit RuleStateChanged(rule.id, rule.state);\n        rules.push(rule);\n\n        startRulePoll(rule.id, rule.amount);\n    }\n\n    /**\n    * @dev Vote for the suggested rule.\n    * @param agree Approve or reject rule.\n    */\n    function voteForRule(bool agree) public onlyMember {\n        require(address(rulePoll) != address(0));\n\n        rulePoll.vote(msg.sender, agree);\n    }\n\n    /**\n    * @dev Vote for the suggested rule.\n    */\n    function revokeVoteForRule() public onlyMember {\n        require(address(rulePoll) != address(0));\n\n        rulePoll.revokeVote(msg.sender);\n    }\n\n    /**\n    * @dev Starts the rule poll for chaning the amount.\n    */\n    function startRulePoll(uint256 id, uint256 proposedAmount) public onlyMember {\n        require(address(rulePoll) == address(0) || rulePoll.finalized());\n\n        uint256 startTime = now;\n        uint256 endTime = startTime + RULE_POLL_DURATION;\n\n        rulePoll = new RulePoll(id, proposedAmount, address(token), startTime, endTime, minVotedTokensPerc, address(this));\n\n        emit RulePollCreated(id, proposedAmount);\n    }\n\n    /**\n    * @dev Approves the suggested rule and sets its state to Active.\n    * @param id The id of the rule.\n    */\n    function _approve(uint256 id, uint256 proposedAmount) internal {\n        require(rules[id].state == RuleState.Pending || rules[id].state == RuleState.Rejected);\n        rules[id].amount = proposedAmount;\n        rules[id].state = RuleState.Approved;\n\n        emit RuleStateChanged(rules[id].id, rules[id].state);\n    }\n\n    /**\n    * @dev Rejects the rule and sets the state to Disabled.\n    * @param id The id of the rule.\n    */\n    /* function _reject(uint256 id) internal {\n        require(rules[id].state == RuleState.Pending || rules[id].state == RuleState.Approved);\n        rules[id].state = RuleState.Rejected;\n    } */\n\n    /**\n     * @dev Update minVotedTokensPerc value after tap poll.\n     * Set new value == 50% from current voted tokens amount\n     */\n    function updateMinVotedTokens(uint256 _minVotedTokensPerc) internal {\n        uint256 newPerc = _minVotedTokensPerc.div(2);\n        if(newPerc > MAX_VOTED_TOKEN_PERC) {\n            minVotedTokensPerc = MAX_VOTED_TOKEN_PERC;\n            return;\n        }\n        minVotedTokensPerc = newPerc;\n    }\n\n    /**\n    * @dev Called when poll is finished\n    * @param id Referenced reward rule\n    * @param agree Bool for checking the result of the poll.\n    * @param proposedAmount The proposed reward size.\n    */\n    function onRulePollFinish(uint256 id, bool agree, uint256 proposedAmount) external {\n        require(msg.sender == address(rulePoll) && rulePoll.finalized());\n\n        if(agree) {\n            _approve(id, proposedAmount);\n        }\n        /* else {\n            _reject(id);\n        } */\n\n        updateMinVotedTokens(rulePoll.getVotedTokensPerc());\n        emit RulePollFinished(id, agree);\n\n        delete rulePoll;\n    }\n\n    /**\n    * @dev Counts the amount of rules.\n    */\n    function countRules() public view returns (uint256) {\n        return rules.length;\n    }\n\n}\n",
  "sourcePath": "/Users/peterpolman/Sites/thx_client/contracts/rule/Rules.sol",
  "compiler": {
    "name": "solc",
    "version": "0.5.8+commit.23d335f2.Emscripten.clang"
  },
  "schemaVersion": "3.0.12",
  "updatedAt": "2019-08-20T13:01:32.280Z",
  "devdoc": {
    "methods": {
      "countRules()": {
        "details": "Counts the amount of rules."
      },
      "createRule(string,uint256)": {
        "details": "Creates the initial reward rule.",
        "params": {
          "amount": "Reward size suggested for the beneficiary.",
          "slug": "Short readable description of rule."
        }
      },
      "onRulePollFinish(uint256,bool,uint256)": {
        "details": "Called when poll is finished",
        "params": {
          "agree": "Bool for checking the result of the poll.",
          "id": "Referenced reward rule",
          "proposedAmount": "The proposed reward size."
        }
      },
      "revokeVoteForRule()": {
        "details": "Vote for the suggested rule."
      },
      "startRulePoll(uint256,uint256)": {
        "details": "Starts the rule poll for chaning the amount."
      },
      "voteForRule(bool)": {
        "details": "Vote for the suggested rule.",
        "params": {
          "agree": "Approve or reject rule."
        }
      }
    }
  },
  "userdoc": {
    "methods": {}
  }
}