{
  "contractName": "Rules",
  "abi": [
    {
      "constant": true,
      "inputs": [
        {
          "name": "",
          "type": "uint256"
        }
      ],
      "name": "rules",
      "outputs": [
        {
          "name": "id",
          "type": "uint256"
        },
        {
          "name": "slug",
          "type": "string"
        },
        {
          "name": "amount",
          "type": "uint256"
        },
        {
          "name": "state",
          "type": "uint8"
        },
        {
          "name": "poll",
          "type": "address"
        },
        {
          "name": "creator",
          "type": "address"
        },
        {
          "name": "created",
          "type": "uint256"
        }
      ],
      "payable": false,
      "stateMutability": "view",
      "type": "function"
    },
    {
      "constant": false,
      "inputs": [
        {
          "name": "account",
          "type": "address"
        }
      ],
      "name": "addManager",
      "outputs": [],
      "payable": false,
      "stateMutability": "nonpayable",
      "type": "function"
    },
    {
      "constant": true,
      "inputs": [],
      "name": "RULE_POLL_DURATION",
      "outputs": [
        {
          "name": "",
          "type": "uint256"
        }
      ],
      "payable": false,
      "stateMutability": "view",
      "type": "function"
    },
    {
      "constant": true,
      "inputs": [],
      "name": "minVotedTokensPerc",
      "outputs": [
        {
          "name": "",
          "type": "uint256"
        }
      ],
      "payable": false,
      "stateMutability": "view",
      "type": "function"
    },
    {
      "constant": true,
      "inputs": [],
      "name": "MAX_VOTED_TOKEN_PERC",
      "outputs": [
        {
          "name": "",
          "type": "uint256"
        }
      ],
      "payable": false,
      "stateMutability": "view",
      "type": "function"
    },
    {
      "constant": true,
      "inputs": [
        {
          "name": "account",
          "type": "address"
        }
      ],
      "name": "isMember",
      "outputs": [
        {
          "name": "",
          "type": "bool"
        }
      ],
      "payable": false,
      "stateMutability": "view",
      "type": "function"
    },
    {
      "constant": false,
      "inputs": [],
      "name": "renounceMember",
      "outputs": [],
      "payable": false,
      "stateMutability": "nonpayable",
      "type": "function"
    },
    {
      "constant": false,
      "inputs": [
        {
          "name": "account",
          "type": "address"
        }
      ],
      "name": "addMember",
      "outputs": [],
      "payable": false,
      "stateMutability": "nonpayable",
      "type": "function"
    },
    {
      "constant": true,
      "inputs": [
        {
          "name": "account",
          "type": "address"
        }
      ],
      "name": "isManager",
      "outputs": [
        {
          "name": "",
          "type": "bool"
        }
      ],
      "payable": false,
      "stateMutability": "view",
      "type": "function"
    },
    {
      "constant": false,
      "inputs": [],
      "name": "renounceManager",
      "outputs": [],
      "payable": false,
      "stateMutability": "nonpayable",
      "type": "function"
    },
    {
      "constant": true,
      "inputs": [],
      "name": "token",
      "outputs": [
        {
          "name": "",
          "type": "address"
        }
      ],
      "payable": false,
      "stateMutability": "view",
      "type": "function"
    },
    {
      "inputs": [
        {
          "name": "_tokenAddress",
          "type": "address"
        }
      ],
      "payable": false,
      "stateMutability": "nonpayable",
      "type": "constructor"
    },
    {
      "anonymous": false,
      "inputs": [
        {
          "indexed": false,
          "name": "id",
          "type": "uint256"
        },
        {
          "indexed": false,
          "name": "proposedAmount",
          "type": "uint256"
        }
      ],
      "name": "RulePollCreated",
      "type": "event"
    },
    {
      "anonymous": false,
      "inputs": [
        {
          "indexed": false,
          "name": "id",
          "type": "uint256"
        },
        {
          "indexed": false,
          "name": "approved",
          "type": "bool"
        }
      ],
      "name": "RulePollFinished",
      "type": "event"
    },
    {
      "anonymous": false,
      "inputs": [
        {
          "indexed": false,
          "name": "id",
          "type": "uint256"
        },
        {
          "indexed": false,
          "name": "state",
          "type": "uint8"
        }
      ],
      "name": "RuleStateChanged",
      "type": "event"
    },
    {
      "anonymous": false,
      "inputs": [
        {
          "indexed": true,
          "name": "account",
          "type": "address"
        }
      ],
      "name": "MemberAdded",
      "type": "event"
    },
    {
      "anonymous": false,
      "inputs": [
        {
          "indexed": true,
          "name": "account",
          "type": "address"
        }
      ],
      "name": "MemberRemoved",
      "type": "event"
    },
    {
      "anonymous": false,
      "inputs": [
        {
          "indexed": true,
          "name": "account",
          "type": "address"
        }
      ],
      "name": "ManagerAdded",
      "type": "event"
    },
    {
      "anonymous": false,
      "inputs": [
        {
          "indexed": true,
          "name": "account",
          "type": "address"
        }
      ],
      "name": "ManagerRemoved",
      "type": "event"
    },
    {
      "constant": false,
      "inputs": [
        {
          "name": "slug",
          "type": "string"
        }
      ],
      "name": "createRule",
      "outputs": [],
      "payable": false,
      "stateMutability": "nonpayable",
      "type": "function"
    },
    {
      "constant": false,
      "inputs": [
        {
          "name": "id",
          "type": "uint256"
        },
        {
          "name": "agree",
          "type": "bool"
        }
      ],
      "name": "voteForRule",
      "outputs": [],
      "payable": false,
      "stateMutability": "nonpayable",
      "type": "function"
    },
    {
      "constant": false,
      "inputs": [
        {
          "name": "id",
          "type": "uint256"
        }
      ],
      "name": "revokeVoteForRule",
      "outputs": [],
      "payable": false,
      "stateMutability": "nonpayable",
      "type": "function"
    },
    {
      "constant": false,
      "inputs": [
        {
          "name": "id",
          "type": "uint256"
        },
        {
          "name": "proposedAmount",
          "type": "uint256"
        }
      ],
      "name": "startRulePoll",
      "outputs": [],
      "payable": false,
      "stateMutability": "nonpayable",
      "type": "function"
    },
    {
      "constant": false,
      "inputs": [
        {
          "name": "id",
          "type": "uint256"
        },
        {
          "name": "agree",
          "type": "bool"
        },
        {
          "name": "proposedAmount",
          "type": "uint256"
        }
      ],
      "name": "onRulePollFinish",
      "outputs": [],
      "payable": false,
      "stateMutability": "nonpayable",
      "type": "function"
    },
    {
      "constant": true,
      "inputs": [],
      "name": "countRules",
      "outputs": [
        {
          "name": "",
          "type": "uint256"
        }
      ],
      "payable": false,
      "stateMutability": "view",
      "type": "function"
    }
  ],
  "bytecode": "0x608060405260006003553480156200001657600080fd5b5060405160208062001d07833981018060405260208110156200003857600080fd5b50516200004c3362000083602090811b901c565b6200005d33620000d560201b60201c565b600280546001600160a01b0319166001600160a01b0392909216919091179055620001b3565b6200009e8160006200012760201b6200103a1790919060201c565b6040516001600160a01b038216907f3b4a40cccf2058c593542587329dd385be4f0b588db5471fbd9598e56dd7093a90600090a250565b620000f08160016200012760201b6200103a1790919060201c565b6040516001600160a01b038216907fb251eb052afc73ffd02ffe85ad79990a8b3fed60d76dbc2fa2fdd7123dffd91490600090a250565b6001600160a01b0381166200013b57600080fd5b6200014d82826200017d60201b60201c565b156200015857600080fd5b6001600160a01b0316600090815260209190915260409020805460ff19166001179055565b60006001600160a01b0382166200019357600080fd5b506001600160a01b03166000908152602091909152604090205460ff1690565b611b4480620001c36000396000f3fe608060405234801561001057600080fd5b506004361061010b5760003560e01c8063962c9c8d116100a2578063ca6d56dc11610071578063ca6d56dc146103ae578063e213cf0f146103d4578063f3ae2415146103f9578063f8b91abe1461041f578063fc0c546a146104275761010b565b8063962c9c8d14610347578063a230c5241461034f578063b8771a3414610389578063bad5ba01146103a65761010b565b8063439c6f17116100de578063439c6f17146102e9578063563b373d146102f1578063607ca15b14610314578063842192041461033f5761010b565b806304d6ded41461011057806321a21929146102015780632d06177a146102a957806331c54032146102cf575b600080fd5b61012d6004803603602081101561012657600080fd5b503561044b565b604051808881526020018060200187815260200186600181111561014d57fe5b60ff168152602001856001600160a01b03166001600160a01b03168152602001846001600160a01b03166001600160a01b03168152602001838152602001828103825288818151815260200191508051906020019080838360005b838110156101c05781810151838201526020016101a8565b50505050905090810190601f1680156101ed5780820380516001836020036101000a031916815260200191505b509850505050505050505060405180910390f35b6102a76004803603602081101561021757600080fd5b81019060208101813564010000000081111561023257600080fd5b82018360208201111561024457600080fd5b8035906020019184600183028401116401000000008311171561026657600080fd5b91908080601f016020809104026020016040519081016040528093929190818152602001838380828437600092019190915250929550610544945050505050565b005b6102a7600480360360208110156102bf57600080fd5b50356001600160a01b03166106be565b6102d76106dc565b60408051918252519081900360200190f35b6102d76106e3565b6102a76004803603604081101561030757600080fd5b50803590602001356106e8565b6102a76004803603606081101561032a57600080fd5b50803590602081013515159060400135610915565b6102d7610b0b565b6102d7610b11565b6103756004803603602081101561036557600080fd5b50356001600160a01b0316610b16565b604080519115158252519081900360200190f35b6102a76004803603602081101561039f57600080fd5b5035610b2f565b6102a7610c0c565b6102a7600480360360208110156103c457600080fd5b50356001600160a01b0316610c17565b6102a7600480360360408110156103ea57600080fd5b50803590602001351515610c32565b6103756004803603602081101561040f57600080fd5b50356001600160a01b0316610d18565b6102a7610d2a565b61042f610d33565b604080516001600160a01b039092168252519081900360200190f35b6004818154811061045857fe5b9060005260206000209060060201600091509050806000015490806001018054600181600116156101000203166002900480601f01602080910402602001604051908101604052809291908181526020018280546001816001161561010002031660029004801561050a5780601f106104df5761010080835404028352916020019161050a565b820191906000526020600020905b8154815290600101906020018083116104ed57829003601f168201915b5050506002840154600385015460048601546005909601549495919460ff821694506001600160a01b036101009092048216935091169087565b61054d33610d18565b61055657600080fd5b61055e6110f0565b600454808252602080830184905260006040808501919091526001606085018190523360a08601524260c086015281519384529183019190915280517f2da08c9afbca94a7781f242bd0193bf9a13ebd681b7fead14822408e3fbe78e99281900390910190a16004805460018101808355600092909252825160069091027f8a35acfbc15ff81a39ae7d344fd709f28e8600b4aa8c65c6b64bfe7fe36bd19b8101918255602080850151805186949361063d937f8a35acfbc15ff81a39ae7d344fd709f28e8600b4aa8c65c6b64bfe7fe36bd19c909101920190611138565b5060408201516002820155606082015160038201805460ff19166001838181111561066457fe5b02179055506080820151600382018054610100600160a81b0319166101006001600160a01b039384160217905560a08301516004830180546001600160a01b0319169190921617905560c090910151600590910155505050565b6106c733610d18565b6106d057600080fd5b6106d981610d42565b50565b6004545b90565b603c81565b6106f133610b16565b6106fa57600080fd5b60006001600160a01b03166004838154811061071257fe5b600091825260209091206006909102016003015461010090046001600160a01b031614806107d257506004828154811061074857fe5b906000526020600020906006020160030160019054906101000a90046001600160a01b03166001600160a01b031663b3f05b976040518163ffffffff1660e01b815260040160206040518083038186803b1580156107a557600080fd5b505afa1580156107b9573d6000803e3d6000fd5b505050506040513d60208110156107cf57600080fd5b50515b6107db57600080fd5b600482815481106107e857fe5b90600052602060002090600602016002015481141561080657600080fd5b6002546003546040514292603c840192869286926001600160a01b03169186918691903090610834906111b6565b96875260208701959095526001600160a01b039384166040808801919091526060870193909352608086019190915260a0850152911660c0830152519081900360e001906000f08015801561088d573d6000803e3d6000fd5b506004858154811061089b57fe5b906000526020600020906006020160030160016101000a8154816001600160a01b0302191690836001600160a01b031602179055507f9bd49e167f8ad588627e6f5b6a02b84c5a6ee245ce327afa99ade561bcbc284d8484604051808381526020018281526020019250505060405180910390a150505050565b6004838154811061092257fe5b600091825260209091206006909102016003015461010090046001600160a01b0316331480156109e457506004838154811061095a57fe5b906000526020600020906006020160030160019054906101000a90046001600160a01b03166001600160a01b031663b3f05b976040518163ffffffff1660e01b815260040160206040518083038186803b1580156109b757600080fd5b505afa1580156109cb573d6000803e3d6000fd5b505050506040513d60208110156109e157600080fd5b50515b6109ed57600080fd5b81156109fd576109fd8382610d8a565b610a9b60048481548110610a0d57fe5b906000526020600020906006020160030160019054906101000a90046001600160a01b03166001600160a01b0316632c24909c6040518163ffffffff1660e01b815260040160206040518083038186803b158015610a6a57600080fd5b505afa158015610a7e573d6000803e3d6000fd5b505050506040513d6020811015610a9457600080fd5b5051610efe565b60408051848152831515602082015281517f118384964387422ef394126dcae83b6fc97ee2a5c14d8729ebc59cc3d1ce3f44929181900390910190a160048381548110610ae457fe5b600091825260209091206003600690920201018054610100600160a81b0319169055505050565b60035481565b600a81565b6000610b2960018363ffffffff610f2d16565b92915050565b610b3833610b16565b610b4157600080fd5b60006001600160a01b031660048281548110610b5957fe5b600091825260209091206006909102016003015461010090046001600160a01b03161415610b8657600080fd5b60048181548110610b9357fe5b600091825260208220600691909102016003015460408051600160e01b630519bac302815233600482015290516101009092046001600160a01b031692630519bac39260248084019382900301818387803b158015610bf157600080fd5b505af1158015610c05573d6000803e3d6000fd5b5050505050565b610c1533610f62565b565b610c2033610b16565b610c2957600080fd5b6106d981610faa565b610c3b33610b16565b610c4457600080fd5b60006001600160a01b031660048381548110610c5c57fe5b600091825260209091206006909102016003015461010090046001600160a01b03161415610c8957600080fd5b60048281548110610c9657fe5b600091825260208220600691909102016003015460408051600160e01b63bd041c4d028152336004820152841515602482015290516101009092046001600160a01b03169263bd041c4d9260448084019382900301818387803b158015610cfc57600080fd5b505af1158015610d10573d6000803e3d6000fd5b505050505050565b6000610b29818363ffffffff610f2d16565b610c1533610ff2565b6002546001600160a01b031681565b610d5360008263ffffffff61103a16565b6040516001600160a01b038216907f3b4a40cccf2058c593542587329dd385be4f0b588db5471fbd9598e56dd7093a90600090a250565b80610dca57600160048381548110610d9e57fe5b60009182526020909120600360069092020101805460ff191660018381811115610dc457fe5b02179055505b8015801590610e075750600160048381548110610de357fe5b600091825260209091206003600690920201015460ff166001811115610e0557fe5b145b15610e4757600060048381548110610e1b57fe5b60009182526020909120600360069092020101805460ff191660018381811115610e4157fe5b02179055505b8060048381548110610e5557fe5b9060005260206000209060060201600201819055507f2da08c9afbca94a7781f242bd0193bf9a13ebd681b7fead14822408e3fbe78e960048381548110610e9857fe5b90600052602060002090600602016000015460048481548110610eb757fe5b60009182526020918290206003600690920201015460405183815260ff909116918101826001811115610ee657fe5b60ff1681526020019250505060405180910390a15050565b6000610f1182600263ffffffff61108616565b9050600a811115610f275750600a6003556106d9565b60035550565b60006001600160a01b038216610f4257600080fd5b506001600160a01b03166000908152602091909152604090205460ff1690565b610f7360018263ffffffff6110a816565b6040516001600160a01b038216907f6e76fb4c77256006d9c38ec7d82b45a8c8f3c27b1d6766fffc42dfb8de68449290600090a250565b610fbb60018263ffffffff61103a16565b6040516001600160a01b038216907fb251eb052afc73ffd02ffe85ad79990a8b3fed60d76dbc2fa2fdd7123dffd91490600090a250565b61100360008263ffffffff6110a816565b6040516001600160a01b038216907fef69f7d97228658c92417be1b16b19058315de71fecb435d07b7d23728b6bd3190600090a250565b6001600160a01b03811661104d57600080fd5b6110578282610f2d565b1561106157600080fd5b6001600160a01b0316600090815260209190915260409020805460ff19166001179055565b600080821161109457600080fd5b600082848161109f57fe5b04949350505050565b6001600160a01b0381166110bb57600080fd5b6110c58282610f2d565b6110ce57600080fd5b6001600160a01b0316600090815260209190915260409020805460ff19169055565b6040518060e001604052806000815260200160608152602001600081526020016000600181111561111d57fe5b81526000602082018190526040820181905260609091015290565b828054600181600116156101000203166002900490600052602060002090601f016020900481019282601f1061117957805160ff19168380011785556111a6565b828001600101855582156111a6579182015b828111156111a657825182559160200191906001019061118b565b506111b29291506111c3565b5090565b61093b806111de83390190565b6106e091905b808211156111b257600081556001016111c956fe60806040526000600555600060065560006007556000600a5534801561002457600080fd5b5060405160e08061093b833981018060405260e081101561004457600080fd5b508051602082015160408301516060840151608085015160a086015160c09096015194959394929391929091908481858560006001600160a01b03851661008a57600080fd5b42831015801561009957508282115b6100a257600080fd5b600080546001600160a01b03199081166001600160a01b03978816178255600180548216968816969096179095556002939093556003919091556008805460ff1990811690915560048054909116911515919091179055600b99909955600a93909355600c96909655600d80549092169516949094179093555061080d9283925061012e9150396000f3fe608060405234801561001057600080fd5b50600436106101165760003560e01c806378e97925116100a2578063b3a2273f11610071578063b3a2273f14610223578063b3f05b971461022b578063bd041c4d14610233578063d74689e414610261578063fc0c546a1461026957610116565b806378e97925146101c557806380322cbd146101cd578063a7491b48146101d5578063af640d0f1461021b57610116565b806336181026116100e9578063361810261461018957806341fdade6146101a55780634e9e8e73146101ad57806364a90292146101b55780636f6a9762146101bd57610116565b80630519bac31461011b57806316f0115b146101435780632c24909c146101675780633197cbb614610181575b600080fd5b6101416004803603602081101561013157600080fd5b50356001600160a01b0316610271565b005b61014b61033d565b604080516001600160a01b039092168252519081900360200190f35b61016f61034c565b60408051918252519081900360200190f35b61016f610408565b61019161040e565b604080519115158252519081900360200190f35b61016f610456565b61016f61045c565b61016f610462565b61016f610468565b61016f61046e565b610191610474565b6101fb600480360360208110156101eb57600080fd5b50356001600160a01b0316610483565b604080519384526020840192909252151582820152519081900360600190f35b61016f6104a7565b61016f6104ad565b6101916104b3565b6101416004803603604081101561024957600080fd5b506001600160a01b03813516906020013515156104bc565b61016f6106ad565b61014b6106b3565b600254421015801561028557506003544211155b61028e57600080fd5b6001600160a01b0381166000908152600960205260409020546102b057600080fd5b6001600160a01b038116600090815260096020526040812060018082018054600284018054948690559490915560ff19831690935560075460ff909216916102fd9163ffffffff6106c216565b600755801561032157600554610319908363ffffffff6106c216565b600555610338565b600654610334908363ffffffff6106c216565b6006555b505050565b600d546001600160a01b031681565b6000806103666006546005546106dc90919063ffffffff16565b90506104016000809054906101000a90046001600160a01b03166001600160a01b03166318160ddd6040518163ffffffff1660e01b815260040160206040518083038186803b1580156103b857600080fd5b505afa1580156103cc573d6000803e3d6000fd5b505050506040513d60208110156103e257600080fd5b50516103f583606463ffffffff6106f516565b9063ffffffff61071c16565b9150505b90565b60035481565b60085460009060ff161561042157600080fd5b60035442101561043357506000610405565b6008805460ff1916600117905561045061044b61073e565b610760565b50600190565b6103e881565b600c5481565b60065481565b600a5481565b60025481565b600061047e61073e565b905090565b60096020526000908152604090208054600182015460029092015490919060ff1683565b600b5481565b60075481565b60085460ff1681565b60025442101580156104d057506003544211155b6104d957600080fd5b6001600160a01b0382166104ec57600080fd5b6001600160a01b0382166000908152600960205260409020541561050f57600080fd5b6000805460408051600160e01b6370a082310281526001600160a01b038681166004830152915191909216916370a08231916024808301926020929190829003018186803b15801561056057600080fd5b505afa158015610574573d6000803e3d6000fd5b505050506040513d602081101561058a57600080fd5b50516000805460408051600160e01b6318160ddd02815290519394509192610618926103e8926001600160a01b0316916318160ddd91600480820192602092909190829003018186803b1580156105e057600080fd5b505afa1580156105f4573d6000803e3d6000fd5b505050506040513d602081101561060a57600080fd5b50519063ffffffff61071c16565b905080821115610628578061062a565b815b9150821561064d57600554610645908363ffffffff6106dc16565b600555610664565b600654610660908363ffffffff6106dc16565b6006555b6001600160a01b038416600090815260096020526040902042815560018082018490556002909101805460ff19168515151790556007546106a4916106dc565b60075550505050565b60055481565b6000546001600160a01b031681565b6000828211156106d157600080fd5b508082035b92915050565b6000828201838110156106ee57600080fd5b9392505050565b600082610704575060006106d6565b8282028284828161071157fe5b04146106ee57600080fd5b600080821161072a57600080fd5b600082848161073557fe5b04949350505050565b600060065460055411801561047e5750600a5461075961034c565b1015905090565b600d54600b54600c5460408051600160e01b63607ca15b028152600481019390935284151560248401526044830191909152516001600160a01b039092169163607ca15b9160648082019260009290919082900301818387803b1580156107c657600080fd5b505af11580156107da573d6000803e3d6000fd5b505050505056fea165627a7a723058209d1939a676638fa4379350740cffa5f8dfffb2e35fbc4e9ce2e6e6f27effdc940029a165627a7a72305820cfb93cbf3be616ee12e900fe1561bd20d943c337ab5e005ee280a82d87c839500029",
  "source": "pragma solidity ^0.5.0;\n\nimport '../access/roles/MemberRole.sol';\nimport '../access/roles/ManagerRole.sol';\nimport '../math/SafeMath.sol';\nimport '../token/ERC20/IERC20.sol';\nimport '../poll/polls/RulePoll.sol';\n\ncontract Rules is ManagerRole, MemberRole {\n    using SafeMath for uint256;\n\n    struct Rule {\n        uint256 id;\n        string slug;\n        uint256 amount;\n        RuleState state;\n        RulePoll poll;\n        address creator;\n        uint256 created;\n    }\n\n    enum RuleState { Active, Disabled }\n\n    event RulePollCreated(uint256 id, uint256 proposedAmount);\n    event RulePollFinished(uint256 id, bool approved);\n    event RuleStateChanged(uint256 id, RuleState state);\n\n    uint256 public constant RULE_POLL_DURATION = 1 minutes;\n    uint256 public constant MAX_VOTED_TOKEN_PERC = 10;\n\n    IERC20 public token;\n    uint256 public minVotedTokensPerc = 0;\n\n    Rule[] public rules;\n\n    constructor(address _tokenAddress) public {\n        token = IERC20(_tokenAddress);\n    }\n\n    /**\n    * @dev Creates the initial reward rule.\n    * @param slug Short readable description of rule.\n    */\n    function createRule(string memory slug) public onlyManager {\n        Rule memory rule;\n\n        rule.id = rules.length;\n        rule.slug = slug;\n        rule.amount = 0;\n        rule.state = RuleState.Disabled;\n        rule.creator = msg.sender;\n        rule.created = now;\n\n        emit RuleStateChanged(rule.id, rule.state);\n        rules.push(rule);\n    }\n\n    /**\n    * @dev Vote for the suggested rule.\n    * @param id reference to the rule that the poll runs for\n    * @param agree Approve or reject rule.\n    */\n    function voteForRule(uint256 id, bool agree) public onlyMember {\n        require(address(rules[id].poll) != address(0));\n\n        rules[id].poll.vote(msg.sender, agree);\n    }\n\n    /**\n    * @dev Vote for the suggested rule.\n    * @param id reference to the rule that the poll runs for\n    */\n    function revokeVoteForRule(uint256 id) public onlyMember {\n        require(address(rules[id].poll) != address(0));\n\n        rules[id].poll.revokeVote(msg.sender);\n    }\n\n    /**\n    * @dev Starts the rule poll for chaning the amount.\n    * @param id The id of the rule.\n    * @param id The new amount for the rule.\n    */\n    function startRulePoll(uint256 id, uint256 proposedAmount) public onlyMember {\n        require(address(rules[id].poll) == address(0) || rules[id].poll.finalized());\n        require(proposedAmount != rules[id].amount);\n\n        uint256 startTime = now;\n        uint256 endTime = startTime + RULE_POLL_DURATION;\n\n        rules[id].poll = new RulePoll(id, proposedAmount, address(token), startTime, endTime, minVotedTokensPerc, address(this));\n\n        emit RulePollCreated(id, proposedAmount);\n    }\n\n    /**\n    * @dev Approves the suggested rule and sets its state to Active.\n    * @param id The id of the rule.\n    * @param id The new amount for the rule.\n    */\n    function _approve(uint256 id, uint256 proposedAmount) internal {\n        if (proposedAmount == 0) {\n            rules[id].state = RuleState.Disabled;\n        }\n\n        if (proposedAmount != 0 && rules[id].state == RuleState.Disabled) {\n            rules[id].state = RuleState.Active;\n        }\n\n        rules[id].amount = proposedAmount;\n\n        emit RuleStateChanged(rules[id].id, rules[id].state);\n    }\n\n    /**\n    * @dev Rejects the rule and sets the state to Disabled.\n    * @param id The id of the rule.\n    */\n    /* function _reject(uint256 id) internal {\n        require(rules[id].state == RuleState.Pending || rules[id].state == RuleState.Active);\n        rules[id].state = RuleState.Disabled;\n    } */\n\n    /**\n     * @dev Update minVotedTokensPerc value after tap poll.\n     * Set new value == 50% from current voted tokens amount\n     */\n    function updateMinVotedTokens(uint256 _minVotedTokensPerc) internal {\n        uint256 newPerc = _minVotedTokensPerc.div(2);\n        if(newPerc > MAX_VOTED_TOKEN_PERC) {\n            minVotedTokensPerc = MAX_VOTED_TOKEN_PERC;\n            return;\n        }\n        minVotedTokensPerc = newPerc;\n    }\n\n    /**\n    * @dev Called when poll is finished\n    * @param id Referenced reward rule\n    * @param agree Bool for checking the result of the poll.\n    * @param proposedAmount The proposed reward size.\n    */\n    function onRulePollFinish(uint256 id, bool agree, uint256 proposedAmount) external {\n        require(msg.sender == address(rules[id].poll) && rules[id].poll.finalized());\n\n        if(agree) {\n            _approve(id, proposedAmount);\n        }\n\n        updateMinVotedTokens(rules[id].poll.getVotedTokensPerc());\n        emit RulePollFinished(id, agree);\n\n        delete rules[id].poll;\n    }\n\n    /**\n    * @dev Counts the amount of rules.\n    */\n    function countRules() public view returns (uint256) {\n        return rules.length;\n    }\n\n}\n",
  "sourcePath": "/Users/peterpolman/Sites/thx_client/contracts/rule/Rules.sol",
  "compiler": {
    "name": "solc",
    "version": "0.5.8+commit.23d335f2.Emscripten.clang"
  },
  "schemaVersion": "3.0.12",
  "updatedAt": "2019-09-03T14:47:56.485Z",
  "devdoc": {
    "methods": {
      "countRules()": {
        "details": "Counts the amount of rules."
      },
      "createRule(string)": {
        "details": "Creates the initial reward rule.",
        "params": {
          "slug": "Short readable description of rule."
        }
      },
      "onRulePollFinish(uint256,bool,uint256)": {
        "details": "Called when poll is finished",
        "params": {
          "agree": "Bool for checking the result of the poll.",
          "id": "Referenced reward rule",
          "proposedAmount": "The proposed reward size."
        }
      },
      "revokeVoteForRule(uint256)": {
        "details": "Vote for the suggested rule.",
        "params": {
          "id": "reference to the rule that the poll runs for"
        }
      },
      "startRulePoll(uint256,uint256)": {
        "details": "Starts the rule poll for chaning the amount.",
        "params": {
          "id": "The new amount for the rule."
        }
      },
      "voteForRule(uint256,bool)": {
        "details": "Vote for the suggested rule.",
        "params": {
          "agree": "Approve or reject rule.",
          "id": "reference to the rule that the poll runs for"
        }
      }
    }
  },
  "userdoc": {
    "methods": {}
  }
}