{
  "contractName": "RulePoll",
  "abi": [
    {
      "constant": true,
      "inputs": [],
      "name": "pool",
      "outputs": [
        {
          "name": "",
          "type": "address"
        }
      ],
      "payable": false,
      "stateMutability": "view",
      "type": "function"
    },
    {
      "constant": true,
      "inputs": [],
      "name": "endTime",
      "outputs": [
        {
          "name": "",
          "type": "uint256"
        }
      ],
      "payable": false,
      "stateMutability": "view",
      "type": "function"
    },
    {
      "constant": false,
      "inputs": [],
      "name": "tryToFinalize",
      "outputs": [
        {
          "name": "",
          "type": "bool"
        }
      ],
      "payable": false,
      "stateMutability": "nonpayable",
      "type": "function"
    },
    {
      "constant": true,
      "inputs": [],
      "name": "MAX_TOKENS_WEIGHT_DENOM",
      "outputs": [
        {
          "name": "",
          "type": "uint256"
        }
      ],
      "payable": false,
      "stateMutability": "view",
      "type": "function"
    },
    {
      "constant": false,
      "inputs": [],
      "name": "revokeVote",
      "outputs": [],
      "payable": false,
      "stateMutability": "nonpayable",
      "type": "function"
    },
    {
      "constant": false,
      "inputs": [
        {
          "name": "agree",
          "type": "bool"
        }
      ],
      "name": "vote",
      "outputs": [],
      "payable": false,
      "stateMutability": "nonpayable",
      "type": "function"
    },
    {
      "constant": true,
      "inputs": [],
      "name": "proposedAmount",
      "outputs": [
        {
          "name": "",
          "type": "uint256"
        }
      ],
      "payable": false,
      "stateMutability": "view",
      "type": "function"
    },
    {
      "constant": true,
      "inputs": [],
      "name": "noCounter",
      "outputs": [
        {
          "name": "",
          "type": "uint256"
        }
      ],
      "payable": false,
      "stateMutability": "view",
      "type": "function"
    },
    {
      "constant": true,
      "inputs": [],
      "name": "minTokensPerc",
      "outputs": [
        {
          "name": "",
          "type": "uint256"
        }
      ],
      "payable": false,
      "stateMutability": "view",
      "type": "function"
    },
    {
      "constant": true,
      "inputs": [],
      "name": "startTime",
      "outputs": [
        {
          "name": "",
          "type": "uint256"
        }
      ],
      "payable": false,
      "stateMutability": "view",
      "type": "function"
    },
    {
      "constant": true,
      "inputs": [],
      "name": "isNowApproved",
      "outputs": [
        {
          "name": "",
          "type": "bool"
        }
      ],
      "payable": false,
      "stateMutability": "view",
      "type": "function"
    },
    {
      "constant": true,
      "inputs": [
        {
          "name": "account",
          "type": "address"
        }
      ],
      "name": "isMember",
      "outputs": [
        {
          "name": "",
          "type": "bool"
        }
      ],
      "payable": false,
      "stateMutability": "view",
      "type": "function"
    },
    {
      "constant": true,
      "inputs": [
        {
          "name": "",
          "type": "address"
        }
      ],
      "name": "votesByAddress",
      "outputs": [
        {
          "name": "time",
          "type": "uint256"
        },
        {
          "name": "weight",
          "type": "uint256"
        },
        {
          "name": "agree",
          "type": "bool"
        }
      ],
      "payable": false,
      "stateMutability": "view",
      "type": "function"
    },
    {
      "constant": true,
      "inputs": [],
      "name": "id",
      "outputs": [
        {
          "name": "",
          "type": "uint256"
        }
      ],
      "payable": false,
      "stateMutability": "view",
      "type": "function"
    },
    {
      "constant": true,
      "inputs": [],
      "name": "totalVoted",
      "outputs": [
        {
          "name": "",
          "type": "uint256"
        }
      ],
      "payable": false,
      "stateMutability": "view",
      "type": "function"
    },
    {
      "constant": true,
      "inputs": [],
      "name": "finalized",
      "outputs": [
        {
          "name": "",
          "type": "bool"
        }
      ],
      "payable": false,
      "stateMutability": "view",
      "type": "function"
    },
    {
      "constant": false,
      "inputs": [],
      "name": "renounceMember",
      "outputs": [],
      "payable": false,
      "stateMutability": "nonpayable",
      "type": "function"
    },
    {
      "constant": false,
      "inputs": [
        {
          "name": "account",
          "type": "address"
        }
      ],
      "name": "addMember",
      "outputs": [],
      "payable": false,
      "stateMutability": "nonpayable",
      "type": "function"
    },
    {
      "constant": true,
      "inputs": [],
      "name": "yesCounter",
      "outputs": [
        {
          "name": "",
          "type": "uint256"
        }
      ],
      "payable": false,
      "stateMutability": "view",
      "type": "function"
    },
    {
      "constant": true,
      "inputs": [],
      "name": "token",
      "outputs": [
        {
          "name": "",
          "type": "address"
        }
      ],
      "payable": false,
      "stateMutability": "view",
      "type": "function"
    },
    {
      "inputs": [
        {
          "name": "_id",
          "type": "uint256"
        },
        {
          "name": "_proposedAmount",
          "type": "uint256"
        },
        {
          "name": "_tokenAddress",
          "type": "address"
        },
        {
          "name": "_startTime",
          "type": "uint256"
        },
        {
          "name": "_endTime",
          "type": "uint256"
        },
        {
          "name": "_minTokensPerc",
          "type": "uint256"
        },
        {
          "name": "_poolAddress",
          "type": "address"
        }
      ],
      "payable": false,
      "stateMutability": "nonpayable",
      "type": "constructor"
    },
    {
      "anonymous": false,
      "inputs": [
        {
          "indexed": true,
          "name": "account",
          "type": "address"
        }
      ],
      "name": "MemberAdded",
      "type": "event"
    },
    {
      "anonymous": false,
      "inputs": [
        {
          "indexed": true,
          "name": "account",
          "type": "address"
        }
      ],
      "name": "MemberRemoved",
      "type": "event"
    },
    {
      "constant": true,
      "inputs": [],
      "name": "getVotedTokensPerc",
      "outputs": [
        {
          "name": "",
          "type": "uint256"
        }
      ],
      "payable": false,
      "stateMutability": "view",
      "type": "function"
    }
  ],
  "bytecode": "0x60806040526000600555600060065560006007556000600a5534801561002457600080fd5b5060405160e080610d44833981018060405260e081101561004457600080fd5b508051602082015160408301516060840151608085015160a086015160c090960151949593949293919290919084848460006100883364010000000061012a810204565b600160a060020a038416151561009d57600080fd5b4283101580156100ac57508282115b15156100b757600080fd5b60018054600160a060020a0319908116600160a060020a03968716179091556002939093556003919091556008805460ff1990811690915560048054909116911515919091179055600b98909855600a92909255600c95909555600d805490961694169390931790935550610207915050565b610142600082640100000000610ab461017982021704565b604051600160a060020a038216907fb251eb052afc73ffd02ffe85ad79990a8b3fed60d76dbc2fa2fdd7123dffd91490600090a250565b600160a060020a038116151561018e57600080fd5b6101a182826401000000006101d0810204565b156101ab57600080fd5b600160a060020a0316600090815260209190915260409020805460ff19166001179055565b6000600160a060020a03821615156101e757600080fd5b50600160a060020a03166000908152602091909152604090205460ff1690565b610b2e806102166000396000f3fe60806040526004361061011c5763ffffffff7c010000000000000000000000000000000000000000000000000000000060003504166316f0115b81146101215780632c24909c146101525780633197cbb614610179578063361810261461018e57806341fdade6146101b757806343c14b22146101cc5780634b9f5c98146101e35780634e9e8e731461020f57806364a90292146102245780636f6a97621461023957806378e979251461024e57806380322cbd14610263578063a230c52414610278578063a7491b48146102ab578063af640d0f146102fe578063b3a2273f14610313578063b3f05b9714610328578063bad5ba011461033d578063ca6d56dc14610352578063d74689e414610385578063fc0c546a1461039a575b600080fd5b34801561012d57600080fd5b506101366103af565b60408051600160a060020a039092168252519081900360200190f35b34801561015e57600080fd5b506101676103be565b60408051918252519081900360200190f35b34801561018557600080fd5b50610167610497565b34801561019a57600080fd5b506101a361049d565b604080519115158252519081900360200190f35b3480156101c357600080fd5b506101676104e5565b3480156101d857600080fd5b506101e16104eb565b005b3480156101ef57600080fd5b506101e16004803603602081101561020657600080fd5b503515156105a7565b34801561021b57600080fd5b506101676107b3565b34801561023057600080fd5b506101676107b9565b34801561024557600080fd5b506101676107bf565b34801561025a57600080fd5b506101676107c5565b34801561026f57600080fd5b506101a36107cb565b34801561028457600080fd5b506101a36004803603602081101561029b57600080fd5b5035600160a060020a03166107da565b3480156102b757600080fd5b506102de600480360360208110156102ce57600080fd5b5035600160a060020a03166107f2565b604080519384526020840192909252151582820152519081900360600190f35b34801561030a57600080fd5b50610167610816565b34801561031f57600080fd5b5061016761081c565b34801561033457600080fd5b506101a3610822565b34801561034957600080fd5b506101e161082b565b34801561035e57600080fd5b506101e16004803603602081101561037557600080fd5b5035600160a060020a0316610836565b34801561039157600080fd5b50610167610856565b3480156103a657600080fd5b5061013661085c565b600d54600160a060020a031681565b6000806103d860065460055461086b90919063ffffffff16565b9050610490600160009054906101000a9004600160a060020a0316600160a060020a03166318160ddd6040518163ffffffff167c010000000000000000000000000000000000000000000000000000000002815260040160206040518083038186803b15801561044757600080fd5b505afa15801561045b573d6000803e3d6000fd5b505050506040513d602081101561047157600080fd5b505161048483606463ffffffff61088416565b9063ffffffff6108af16565b9150505b90565b60035481565b60085460009060ff16156104b057600080fd5b6003544210156104c257506000610494565b6008805460ff191660011790556104df6104da6108d3565b6108f5565b50600190565b6103e881565b60025442101580156104ff57506003544211155b151561050a57600080fd5b336000908152600960205260408120541161052457600080fd5b33600090815260096020526040812060018082018054600284018054948690559490915560ff19831690935560075460ff909216916105689163ffffffff61098c16565b600755801561058c57600554610584908363ffffffff61098c16565b6005556105a3565b60065461059f908363ffffffff61098c16565b6006555b5050565b60025442101580156105bb57506003544211155b15156105c657600080fd5b6105cf336107da565b15156105da57600080fd5b33600090815260096020526040902054156105f457600080fd5b600154604080517f70a082310000000000000000000000000000000000000000000000000000000081523360048201529051600092600160a060020a0316916370a08231916024808301926020929190829003018186803b15801561065857600080fd5b505afa15801561066c573d6000803e3d6000fd5b505050506040513d602081101561068257600080fd5b5051600154604080517f18160ddd0000000000000000000000000000000000000000000000000000000081529051929350600092610728926103e892600160a060020a03909116916318160ddd91600480820192602092909190829003018186803b1580156106f057600080fd5b505afa158015610704573d6000803e3d6000fd5b505050506040513d602081101561071a57600080fd5b50519063ffffffff6108af16565b905080821115610738578061073a565b815b9150821561075d57600554610755908363ffffffff61086b16565b600555610774565b600654610770908363ffffffff61086b16565b6006555b33600090815260096020526040902042815560018082018490556002909101805460ff19168515151790556007546107ab9161086b565b600755505050565b600c5481565b60065481565b600a5481565b60025481565b60006107d56108d3565b905090565b60006107ec818363ffffffff6109a116565b92915050565b60096020526000908152604090208054600182015460029092015490919060ff1683565b600b5481565b60075481565b60085460ff1681565b610834336109d8565b565b61083f336107da565b151561084a57600080fd5b61085381610a20565b50565b60055481565b600154600160a060020a031681565b60008282018381101561087d57600080fd5b9392505050565b6000821515610895575060006107ec565b8282028284828115156108a457fe5b041461087d57600080fd5b60008082116108bd57600080fd5b600082848115156108ca57fe5b04949350505050565b60006006546005541180156107d55750600a546108ee6103be565b1015905090565b600d54600b54600c54604080517f607ca15b00000000000000000000000000000000000000000000000000000000815260048101939093528415156024840152604483019190915251600160a060020a039092169163607ca15b9160648082019260009290919082900301818387803b15801561097157600080fd5b505af1158015610985573d6000803e3d6000fd5b5050505050565b60008282111561099b57600080fd5b50900390565b6000600160a060020a03821615156109b857600080fd5b50600160a060020a03166000908152602091909152604090205460ff1690565b6109e960008263ffffffff610a6816565b604051600160a060020a038216907f6e76fb4c77256006d9c38ec7d82b45a8c8f3c27b1d6766fffc42dfb8de68449290600090a250565b610a3160008263ffffffff610ab416565b604051600160a060020a038216907fb251eb052afc73ffd02ffe85ad79990a8b3fed60d76dbc2fa2fdd7123dffd91490600090a250565b600160a060020a0381161515610a7d57600080fd5b610a8782826109a1565b1515610a9257600080fd5b600160a060020a0316600090815260209190915260409020805460ff19169055565b600160a060020a0381161515610ac957600080fd5b610ad382826109a1565b15610add57600080fd5b600160a060020a0316600090815260209190915260409020805460ff1916600117905556fea165627a7a723058207dc36f79452532cd62a93d2ba9603e76511c07e357d04faa1920b67c33ebd9600029",
  "source": "pragma solidity ^0.5.0;\n\nimport '../../IRewardPool.sol';\nimport '../../math/SafeMath.sol';\nimport '../BasePoll.sol';\n\ncontract RulePoll is BasePoll {\n    using SafeMath for uint256;\n\n    uint256 public minTokensPerc = 0;\n    uint256 public id;\n    uint256 public proposedAmount;\n\n    IRewardPool public pool;\n\n    /**\n     * @dev RulePoll constructor\n     * @param _id Id of the referenced Reward\n     * @param _tokenAddress ERC20 compatible token contract address\n     * @param _startTime Poll start time\n     * @param _endTime Poll end time\n     * @param _minTokensPerc Minimum token percentage for this vote\n     */\n    constructor(\n        uint256 _id,\n        uint256 _proposedAmount,\n        address _tokenAddress,\n        uint256 _startTime,\n        uint256 _endTime,\n        uint256 _minTokensPerc,\n        address _poolAddress\n    ) public\n        BasePoll(_tokenAddress, _startTime, _endTime, false)\n    {\n        id = _id;\n        minTokensPerc = _minTokensPerc;\n        proposedAmount = _proposedAmount;\n\n        pool = IRewardPool(_poolAddress);\n    }\n\n    /**\n     * @dev calculate the new votedTokensPercentage based on the last votes compared to the total supply.\n     */\n    function getVotedTokensPerc() public view returns(uint256) {\n        uint256 totalVotes = yesCounter.add(noCounter);\n        return totalVotes.mul(100).div(token.totalSupply());\n    }\n\n    /**\n     * @dev override default approval check and implements the new votedTokensPercentage\n     */\n    function isSubjectApproved() internal view returns(bool) {\n        return yesCounter > noCounter && getVotedTokensPerc() >= minTokensPerc;\n    }\n\n    /**\n     * @dev callback called after poll finalization\n     */\n     function onPollFinish(bool agree) internal {\n         pool.onRulePollFinish(id, agree, proposedAmount);\n     }\n\n}\n",
  "sourcePath": "/Users/peterpolman/Sites/thx_client/contracts/poll/polls/RulePoll.sol",
  "compiler": {
    "name": "solc",
    "version": "0.5.0+commit.1d4f565a.Emscripten.clang"
  },
  "schemaVersion": "3.0.1",
  "updatedAt": "2019-08-06T12:52:33.032Z",
  "devdoc": {
    "methods": {
      "constructor": {
        "details": "RulePoll constructor",
        "params": {
          "_endTime": "Poll end time",
          "_id": "Id of the referenced Reward",
          "_minTokensPerc": "Minimum token percentage for this vote",
          "_startTime": "Poll start time",
          "_tokenAddress": "ERC20 compatible token contract address"
        }
      },
      "getVotedTokensPerc()": {
        "details": "calculate the new votedTokensPercentage based on the last votes compared to the total supply."
      },
      "revokeVote()": {
        "details": "Revoke user`s vote"
      },
      "vote(bool)": {
        "details": "Process user`s vote",
        "params": {
          "agree": "True if user endorses the proposal else False"
        }
      }
    }
  },
  "userdoc": {
    "methods": {
      "tryToFinalize()": {
        "notice": "Finalize poll and call onPollFinish callback with result"
      }
    }
  }
}