{
  "contractName": "Rules",
  "abi": [
    {
      "constant": true,
      "inputs": [
        {
          "name": "",
          "type": "uint256"
        }
      ],
      "name": "rules",
      "outputs": [
        {
          "name": "id",
          "type": "uint256"
        },
        {
          "name": "slug",
          "type": "string"
        },
        {
          "name": "amount",
          "type": "uint256"
        },
        {
          "name": "state",
          "type": "uint8"
        },
        {
          "name": "creator",
          "type": "address"
        },
        {
          "name": "created",
          "type": "uint256"
        }
      ],
      "payable": false,
      "stateMutability": "view",
      "type": "function"
    },
    {
      "constant": false,
      "inputs": [
        {
          "name": "account",
          "type": "address"
        }
      ],
      "name": "addManager",
      "outputs": [],
      "payable": false,
      "stateMutability": "nonpayable",
      "type": "function"
    },
    {
      "constant": true,
      "inputs": [],
      "name": "RULE_POLL_DURATION",
      "outputs": [
        {
          "name": "",
          "type": "uint256"
        }
      ],
      "payable": false,
      "stateMutability": "view",
      "type": "function"
    },
    {
      "constant": true,
      "inputs": [
        {
          "name": "",
          "type": "address"
        },
        {
          "name": "",
          "type": "uint256"
        }
      ],
      "name": "voters",
      "outputs": [
        {
          "name": "",
          "type": "uint256"
        }
      ],
      "payable": false,
      "stateMutability": "view",
      "type": "function"
    },
    {
      "constant": true,
      "inputs": [],
      "name": "rulePoll",
      "outputs": [
        {
          "name": "",
          "type": "address"
        }
      ],
      "payable": false,
      "stateMutability": "view",
      "type": "function"
    },
    {
      "constant": true,
      "inputs": [],
      "name": "minVotedTokensPerc",
      "outputs": [
        {
          "name": "",
          "type": "uint256"
        }
      ],
      "payable": false,
      "stateMutability": "view",
      "type": "function"
    },
    {
      "constant": true,
      "inputs": [],
      "name": "MAX_VOTED_TOKEN_PERC",
      "outputs": [
        {
          "name": "",
          "type": "uint256"
        }
      ],
      "payable": false,
      "stateMutability": "view",
      "type": "function"
    },
    {
      "constant": true,
      "inputs": [
        {
          "name": "account",
          "type": "address"
        }
      ],
      "name": "isMember",
      "outputs": [
        {
          "name": "",
          "type": "bool"
        }
      ],
      "payable": false,
      "stateMutability": "view",
      "type": "function"
    },
    {
      "constant": false,
      "inputs": [],
      "name": "renounceMember",
      "outputs": [],
      "payable": false,
      "stateMutability": "nonpayable",
      "type": "function"
    },
    {
      "constant": false,
      "inputs": [
        {
          "name": "account",
          "type": "address"
        }
      ],
      "name": "addMember",
      "outputs": [],
      "payable": false,
      "stateMutability": "nonpayable",
      "type": "function"
    },
    {
      "constant": true,
      "inputs": [
        {
          "name": "account",
          "type": "address"
        }
      ],
      "name": "isManager",
      "outputs": [
        {
          "name": "",
          "type": "bool"
        }
      ],
      "payable": false,
      "stateMutability": "view",
      "type": "function"
    },
    {
      "constant": false,
      "inputs": [],
      "name": "renounceManager",
      "outputs": [],
      "payable": false,
      "stateMutability": "nonpayable",
      "type": "function"
    },
    {
      "constant": true,
      "inputs": [],
      "name": "token",
      "outputs": [
        {
          "name": "",
          "type": "address"
        }
      ],
      "payable": false,
      "stateMutability": "view",
      "type": "function"
    },
    {
      "inputs": [
        {
          "name": "_tokenAddress",
          "type": "address"
        }
      ],
      "payable": false,
      "stateMutability": "nonpayable",
      "type": "constructor"
    },
    {
      "anonymous": false,
      "inputs": [
        {
          "indexed": false,
          "name": "id",
          "type": "uint256"
        },
        {
          "indexed": false,
          "name": "proposedAmount",
          "type": "uint256"
        }
      ],
      "name": "RulePollCreated",
      "type": "event"
    },
    {
      "anonymous": false,
      "inputs": [
        {
          "indexed": false,
          "name": "id",
          "type": "uint256"
        },
        {
          "indexed": false,
          "name": "approved",
          "type": "bool"
        }
      ],
      "name": "RulePollFinished",
      "type": "event"
    },
    {
      "anonymous": false,
      "inputs": [
        {
          "indexed": false,
          "name": "id",
          "type": "uint256"
        },
        {
          "indexed": false,
          "name": "state",
          "type": "uint8"
        }
      ],
      "name": "RuleStateChanged",
      "type": "event"
    },
    {
      "anonymous": false,
      "inputs": [
        {
          "indexed": true,
          "name": "account",
          "type": "address"
        }
      ],
      "name": "MemberAdded",
      "type": "event"
    },
    {
      "anonymous": false,
      "inputs": [
        {
          "indexed": true,
          "name": "account",
          "type": "address"
        }
      ],
      "name": "MemberRemoved",
      "type": "event"
    },
    {
      "anonymous": false,
      "inputs": [
        {
          "indexed": true,
          "name": "account",
          "type": "address"
        }
      ],
      "name": "ManagerAdded",
      "type": "event"
    },
    {
      "anonymous": false,
      "inputs": [
        {
          "indexed": true,
          "name": "account",
          "type": "address"
        }
      ],
      "name": "ManagerRemoved",
      "type": "event"
    },
    {
      "constant": false,
      "inputs": [
        {
          "name": "slug",
          "type": "string"
        },
        {
          "name": "amount",
          "type": "uint256"
        }
      ],
      "name": "createRule",
      "outputs": [],
      "payable": false,
      "stateMutability": "nonpayable",
      "type": "function"
    },
    {
      "constant": false,
      "inputs": [
        {
          "name": "agree",
          "type": "bool"
        }
      ],
      "name": "voteForRule",
      "outputs": [],
      "payable": false,
      "stateMutability": "nonpayable",
      "type": "function"
    },
    {
      "constant": false,
      "inputs": [],
      "name": "revokeVoteForRule",
      "outputs": [],
      "payable": false,
      "stateMutability": "nonpayable",
      "type": "function"
    },
    {
      "constant": false,
      "inputs": [
        {
          "name": "id",
          "type": "uint256"
        },
        {
          "name": "proposedAmount",
          "type": "uint256"
        }
      ],
      "name": "startRulePoll",
      "outputs": [],
      "payable": false,
      "stateMutability": "nonpayable",
      "type": "function"
    },
    {
      "constant": true,
      "inputs": [],
      "name": "countRules",
      "outputs": [
        {
          "name": "",
          "type": "uint256"
        }
      ],
      "payable": false,
      "stateMutability": "view",
      "type": "function"
    }
  ],
  "bytecode": "0x608060405260006005553480156200001657600080fd5b5060405160208062001a9a833981018060405260208110156200003857600080fd5b50516200004e3364010000000062000088810204565b6200006233640100000000620000da810204565b60038054600160a060020a031916600160a060020a0392909216919091179055620001bf565b620000a360008264010000000062000cbd6200012c82021704565b604051600160a060020a038216907f3b4a40cccf2058c593542587329dd385be4f0b588db5471fbd9598e56dd7093a90600090a250565b620000f560018264010000000062000cbd6200012c82021704565b604051600160a060020a038216907fb251eb052afc73ffd02ffe85ad79990a8b3fed60d76dbc2fa2fdd7123dffd91490600090a250565b600160a060020a03811615156200014257600080fd5b62000157828264010000000062000187810204565b156200016257600080fd5b600160a060020a0316600090815260209190915260409020805460ff19166001179055565b6000600160a060020a03821615156200019f57600080fd5b50600160a060020a03166000908152602091909152604090205460ff1690565b6118cb80620001cf6000396000f3fe6080604052600436106100fb5763ffffffff7c010000000000000000000000000000000000000000000000000000000060003504166304d6ded481146101005780632d06177a146101e557806331c540321461021a57806335deeb4a14610241578063439c6f17146102f657806351fece9d1461030b578063563b373d146103375780635c134d66146103675780636fb1270c146103a057806384219204146103d1578063962c9c8d146103e6578063a230c524146103fb578063bad5ba0114610442578063c9b1945314610457578063ca6d56dc1461046c578063f3ae24151461049f578063f8b91abe146104d2578063fc0c546a146104e7575b600080fd5b34801561010c57600080fd5b5061012a6004803603602081101561012357600080fd5b50356104fc565b604051808781526020018060200186815260200185600281111561014a57fe5b60ff16815260200184600160a060020a0316600160a060020a03168152602001838152602001828103825287818151815260200191508051906020019080838360005b838110156101a557818101518382015260200161018d565b50505050905090810190601f1680156101d25780820380516001836020036101000a031916815260200191505b5097505050505050505060405180910390f35b3480156101f157600080fd5b506102186004803603602081101561020857600080fd5b5035600160a060020a03166105ed565b005b34801561022657600080fd5b5061022f61060d565b60408051918252519081900360200190f35b34801561024d57600080fd5b506102186004803603604081101561026457600080fd5b81019060208101813564010000000081111561027f57600080fd5b82018360208201111561029157600080fd5b803590602001918460018302840111640100000000831117156102b357600080fd5b91908080601f0160208091040260200160405190810160405280939291908181526020018383808284376000920191909152509295505091359250610614915050565b34801561030257600080fd5b5061022f61079d565b34801561031757600080fd5b506102186004803603602081101561032e57600080fd5b503515156107a4565b34801561034357600080fd5b506102186004803603604081101561035a57600080fd5b5080359060200135610858565b34801561037357600080fd5b5061022f6004803603604081101561038a57600080fd5b50600160a060020a038135169060200135610a06565b3480156103ac57600080fd5b506103b5610a36565b60408051600160a060020a039092168252519081900360200190f35b3480156103dd57600080fd5b5061022f610a45565b3480156103f257600080fd5b5061022f610a4b565b34801561040757600080fd5b5061042e6004803603602081101561041e57600080fd5b5035600160a060020a0316610a50565b604080519115158252519081900360200190f35b34801561044e57600080fd5b50610218610a69565b34801561046357600080fd5b50610218610a74565b34801561047857600080fd5b506102186004803603602081101561048f57600080fd5b5035600160a060020a0316610b1f565b3480156104ab57600080fd5b5061042e600480360360208110156104c257600080fd5b5035600160a060020a0316610b3c565b3480156104de57600080fd5b50610218610b4e565b3480156104f357600080fd5b506103b5610b57565b600680548290811061050a57fe5b9060005260206000209060050201600091509050806000015490806001018054600181600116156101000203166002900480601f0160208091040260200160405190810160405280929190818152602001828054600181600116156101000203166002900480156105bc5780601f10610591576101008083540402835291602001916105bc565b820191906000526020600020905b81548152906001019060200180831161059f57829003601f168201915b50505050600283015460038401546004909401549293909260ff82169250610100909104600160a060020a03169086565b6105f633610b3c565b151561060157600080fd5b61060a81610b66565b50565b6006545b90565b61061d33610b3c565b151561062857600080fd5b610630610d57565b600654808252602080830185905260408084018590526000606085018190523360808601524260a086015281519384529183019190915280517f2da08c9afbca94a7781f242bd0193bf9a13ebd681b7fead14822408e3fbe78e99281900390910190a16006805460018101808355600092909252825160059091027ff652222313e28459528d920b65115c16c04f3efc82aaedc97be59f3f377c0d3f8101918255602080850151805186949361070c937ff652222313e28459528d920b65115c16c04f3efc82aaedc97be59f3f377c0d40909101920190610d99565b506040820151816002015560608201518160030160006101000a81548160ff0219169083600281111561073b57fe5b02179055506080820151600382018054600160a060020a039092166101000274ffffffffffffffffffffffffffffffffffffffff001990921691909117905560a09091015160049091015550805160408201516107989190610858565b505050565b62093a8081565b6107ad33610a50565b15156107b857600080fd5b600454600160a060020a031615156107cf57600080fd5b60048054604080517fbd041c4d0000000000000000000000000000000000000000000000000000000081523393810193909352831515602484015251600160a060020a039091169163bd041c4d91604480830192600092919082900301818387803b15801561083d57600080fd5b505af1158015610851573d6000803e3d6000fd5b5050505050565b61086133610a50565b151561086c57600080fd5b600454600160a060020a03161580610907575060048054604080517fb3f05b970000000000000000000000000000000000000000000000000000000081529051600160a060020a039092169263b3f05b97928282019260209290829003018186803b1580156108da57600080fd5b505afa1580156108ee573d6000803e3d6000fd5b505050506040513d602081101561090457600080fd5b50515b151561091257600080fd5b600354600554429162093a8083019185918591600160a060020a0390911690859085903061093e610e17565b9687526020870195909552600160a060020a039384166040808801919091526060870193909352608086019190915260a0850152911660c0830152519081900360e001906000f080158015610997573d6000803e3d6000fd5b506004805473ffffffffffffffffffffffffffffffffffffffff1916600160a060020a0392909216919091179055604080518581526020810185905281517f9bd49e167f8ad588627e6f5b6a02b84c5a6ee245ce327afa99ade561bcbc284d929181900390910190a150505050565b600260205281600052604060002081815481101515610a2157fe5b90600052602060002001600091509150505481565b600454600160a060020a031681565b60055481565b600a81565b6000610a6360018363ffffffff610bae16565b92915050565b610a7233610be5565b565b610a7d33610a50565b1515610a8857600080fd5b600454600160a060020a03161515610a9f57600080fd5b60048054604080517f0519bac3000000000000000000000000000000000000000000000000000000008152339381019390935251600160a060020a0390911691630519bac391602480830192600092919082900301818387803b158015610b0557600080fd5b505af1158015610b19573d6000803e3d6000fd5b50505050565b610b2833610a50565b1515610b3357600080fd5b61060a81610c2d565b6000610a63818363ffffffff610bae16565b610a7233610c75565b600354600160a060020a031681565b610b7760008263ffffffff610cbd16565b604051600160a060020a038216907f3b4a40cccf2058c593542587329dd385be4f0b588db5471fbd9598e56dd7093a90600090a250565b6000600160a060020a0382161515610bc557600080fd5b50600160a060020a03166000908152602091909152604090205460ff1690565b610bf660018263ffffffff610d0b16565b604051600160a060020a038216907f6e76fb4c77256006d9c38ec7d82b45a8c8f3c27b1d6766fffc42dfb8de68449290600090a250565b610c3e60018263ffffffff610cbd16565b604051600160a060020a038216907fb251eb052afc73ffd02ffe85ad79990a8b3fed60d76dbc2fa2fdd7123dffd91490600090a250565b610c8660008263ffffffff610d0b16565b604051600160a060020a038216907fef69f7d97228658c92417be1b16b19058315de71fecb435d07b7d23728b6bd3190600090a250565b600160a060020a0381161515610cd257600080fd5b610cdc8282610bae565b15610ce657600080fd5b600160a060020a0316600090815260209190915260409020805460ff19166001179055565b600160a060020a0381161515610d2057600080fd5b610d2a8282610bae565b1515610d3557600080fd5b600160a060020a0316600090815260209190915260409020805460ff19169055565b60c06040519081016040528060008152602001606081526020016000815260200160006002811115610d8557fe5b815260006020820181905260409091015290565b828054600181600116156101000203166002900490600052602060002090601f016020900481019282601f10610dda57805160ff1916838001178555610e07565b82800160010185558215610e07579182015b82811115610e07578251825591602001919060010190610dec565b50610e13929150610e27565b5090565b604051610a5e80610e4283390190565b61061191905b80821115610e135760008155600101610e2d56fe6080604052600060045560006005556000600655600060095534801561002457600080fd5b5060405160e080610a5e833981018060405260e081101561004457600080fd5b508051602082015160408301516060840151608085015160a086015160c09096015194959394929391929091908484846000600160a060020a038416151561008b57600080fd5b42831015801561009a57508282115b15156100a557600080fd5b60008054600160a060020a03958616600160a060020a03199182161782556001949094556002929092556007805460ff199081169091556003805492151592909116919091179055600a99909955600993909355600b96909655600c8054919096169116179093555061093e928392506101209150396000f3fe6080604052600436106100fb5763ffffffff7c01000000000000000000000000000000000000000000000000000000006000350416630519bac3811461010057806316f0115b146101355780632c24909c146101665780633197cbb61461018d57806336181026146101a257806341fdade6146101cb5780634e9e8e73146101e057806364a90292146101f55780636f6a97621461020a57806378e979251461021f57806380322cbd14610234578063a7491b4814610249578063af640d0f1461029c578063b3a2273f146102b1578063b3f05b97146102c6578063bd041c4d146102db578063d74689e414610316578063fc0c546a1461032b575b600080fd5b34801561010c57600080fd5b506101336004803603602081101561012357600080fd5b5035600160a060020a0316610340565b005b34801561014157600080fd5b5061014a61040f565b60408051600160a060020a039092168252519081900360200190f35b34801561017257600080fd5b5061017b61041e565b60408051918252519081900360200190f35b34801561019957600080fd5b5061017b6104f6565b3480156101ae57600080fd5b506101b76104fc565b604080519115158252519081900360200190f35b3480156101d757600080fd5b5061017b610544565b3480156101ec57600080fd5b5061017b61054a565b34801561020157600080fd5b5061017b610550565b34801561021657600080fd5b5061017b610556565b34801561022b57600080fd5b5061017b61055c565b34801561024057600080fd5b506101b7610562565b34801561025557600080fd5b5061027c6004803603602081101561026c57600080fd5b5035600160a060020a0316610571565b604080519384526020840192909252151582820152519081900360600190f35b3480156102a857600080fd5b5061017b610595565b3480156102bd57600080fd5b5061017b61059b565b3480156102d257600080fd5b506101b76105a1565b3480156102e757600080fd5b50610133600480360360408110156102fe57600080fd5b50600160a060020a03813516906020013515156105aa565b34801561032257600080fd5b5061017b6107c2565b34801561033757600080fd5b5061014a6107c8565b600154421015801561035457506002544211155b151561035f57600080fd5b600160a060020a0381166000908152600860205260408120541161038257600080fd5b600160a060020a038116600090815260086020526040812060018082018054600284018054948690559490915560ff19831690935560065460ff909216916103cf9163ffffffff6107d716565b60065580156103f3576004546103eb908363ffffffff6107d716565b60045561040a565b600554610406908363ffffffff6107d716565b6005555b505050565b600c54600160a060020a031681565b6000806104386005546004546107f190919063ffffffff16565b90506104ef6000809054906101000a9004600160a060020a0316600160a060020a03166318160ddd6040518163ffffffff167c010000000000000000000000000000000000000000000000000000000002815260040160206040518083038186803b1580156104a657600080fd5b505afa1580156104ba573d6000803e3d6000fd5b505050506040513d60208110156104d057600080fd5b50516104e383606463ffffffff61080a16565b9063ffffffff61083516565b9150505b90565b60025481565b60075460009060ff161561050f57600080fd5b600254421015610521575060006104f3565b6007805460ff1916600117905561053e610539610859565b61087b565b50600190565b6103e881565b600b5481565b60055481565b60095481565b60015481565b600061056c610859565b905090565b60086020526000908152604090208054600182015460029092015490919060ff1683565b600a5481565b60065481565b60075460ff1681565b60015442101580156105be57506002544211155b15156105c957600080fd5b600160a060020a03821615156105de57600080fd5b33600090815260086020526040902054156105f857600080fd5b60008054604080517f70a08231000000000000000000000000000000000000000000000000000000008152600160a060020a038681166004830152915191909216916370a08231916024808301926020929190829003018186803b15801561065f57600080fd5b505afa158015610673573d6000803e3d6000fd5b505050506040513d602081101561068957600080fd5b505160008054604080517f18160ddd0000000000000000000000000000000000000000000000000000000081529051939450919261072d926103e892600160a060020a0316916318160ddd91600480820192602092909190829003018186803b1580156106f557600080fd5b505afa158015610709573d6000803e3d6000fd5b505050506040513d602081101561071f57600080fd5b50519063ffffffff61083516565b90508082111561073d578061073f565b815b915082156107625760045461075a908363ffffffff6107f116565b600455610779565b600554610775908363ffffffff6107f116565b6005555b600160a060020a038416600090815260086020526040902042815560018082018490556002909101805460ff19168515151790556006546107b9916107f1565b60065550505050565b60045481565b600054600160a060020a031681565b6000828211156107e657600080fd5b508082035b92915050565b60008282018381101561080357600080fd5b9392505050565b600082151561081b575060006107eb565b82820282848281151561082a57fe5b041461080357600080fd5b600080821161084357600080fd5b6000828481151561085057fe5b04949350505050565b600060055460045411801561056c575060095461087461041e565b1015905090565b600c54600a54600b54604080517f607ca15b00000000000000000000000000000000000000000000000000000000815260048101939093528415156024840152604483019190915251600160a060020a039092169163607ca15b9160648082019260009290919082900301818387803b1580156108f757600080fd5b505af115801561090b573d6000803e3d6000fd5b505050505056fea165627a7a72305820d609193e76ce64691ddf927d8caf9b77453f6a789e1fce43485d47b057b02e410029a165627a7a7230582031624e54fdb95bb85e1b24f54b2037c4c73fc5f748295fc177fc50644478435e0029",
  "source": "pragma solidity ^0.5.0;\n\nimport '../access/roles/MemberRole.sol';\nimport '../access/roles/ManagerRole.sol';\nimport '../math/SafeMath.sol';\nimport '../token/ERC20/IERC20.sol';\nimport '../poll/polls/RulePoll.sol';\n\ncontract Rules is ManagerRole, MemberRole {\n    using SafeMath for uint256;\n\n    struct Rule {\n        uint256 id;\n        string slug;\n        uint256 amount;\n        RuleState state;\n        address creator;\n        uint256 created;\n    }\n\n    enum RuleState { Pending, Approved, Rejected }\n\n    event RulePollCreated(uint256 id, uint256 proposedAmount);\n    event RulePollFinished(uint256 id, bool approved);\n    event RuleStateChanged(uint256 id, RuleState state);\n\n    mapping (address => uint256[]) public voters;\n\n    uint256 public constant RULE_POLL_DURATION = 7 days;\n    uint256 public constant MAX_VOTED_TOKEN_PERC = 10;\n\n    IERC20 public token;\n    RulePoll public rulePoll;\n    uint256 public minVotedTokensPerc = 0;\n\n    Rule[] public rules;\n\n    constructor(address _tokenAddress) public {\n        token = IERC20(_tokenAddress);\n    }\n\n    /**\n    * @dev Creates the initial reward rule.\n    * @param slug Short readable description of rule.\n    * @param amount Reward size suggested for the beneficiary.\n    */\n    function createRule(string memory slug, uint256 amount) public onlyManager {\n        Rule memory rule;\n\n        rule.id = rules.length;\n        rule.slug = slug;\n        rule.amount = amount;\n        rule.state = RuleState.Pending;\n        rule.creator = msg.sender;\n        rule.created = now;\n\n        emit RuleStateChanged(rule.id, rule.state);\n        rules.push(rule);\n\n        startRulePoll(rule.id, rule.amount);\n    }\n\n    /**\n    * @dev Vote for the suggested rule.\n    * @param agree Approve or reject rule.\n    */\n    function voteForRule(bool agree) public onlyMember {\n        require(address(rulePoll) != address(0));\n\n        rulePoll.vote(msg.sender, agree);\n    }\n\n    /**\n    * @dev Vote for the suggested rule.\n    */\n    function revokeVoteForRule() public onlyMember {\n        require(address(rulePoll) != address(0));\n\n        rulePoll.revokeVote(msg.sender);\n    }\n\n    /**\n    * @dev Starts the rule poll for chaning the amount.\n    */\n    function startRulePoll(uint256 id, uint256 proposedAmount) public onlyMember {\n        require(address(rulePoll) == address(0) || rulePoll.finalized());\n\n        uint256 startTime = now;\n        uint256 endTime = startTime + RULE_POLL_DURATION;\n\n        rulePoll = new RulePoll(id, proposedAmount, address(token), startTime, endTime, minVotedTokensPerc, address(this));\n\n        emit RulePollCreated(id, proposedAmount);\n    }\n\n    /**\n    * @dev Approves the suggested rule and sets its state to Active.\n    * @param id The id of the rule.\n    */\n    function _approve(uint256 id, uint256 proposedAmount) internal {\n        require(rules[id].state == RuleState.Pending || rules[id].state == RuleState.Rejected);\n        rules[id].amount = proposedAmount;\n        rules[id].state = RuleState.Approved;\n\n        emit RuleStateChanged(rules[id].id, rules[id].state);\n    }\n\n    /**\n    * @dev Rejects the rule and sets the state to Disabled.\n    * @param id The id of the rule.\n    */\n    /* function _reject(uint256 id) internal {\n        require(rules[id].state == RuleState.Pending || rules[id].state == RuleState.Approved);\n        rules[id].state = RuleState.Rejected;\n    } */\n\n    /**\n     * @dev Update minVotedTokensPerc value after tap poll.\n     * Set new value == 50% from current voted tokens amount\n     */\n    function updateMinVotedTokens(uint256 _minVotedTokensPerc) internal {\n        uint256 newPerc = _minVotedTokensPerc.div(2);\n        if(newPerc > MAX_VOTED_TOKEN_PERC) {\n            minVotedTokensPerc = MAX_VOTED_TOKEN_PERC;\n            return;\n        }\n        minVotedTokensPerc = newPerc;\n    }\n\n    /**\n    * @dev Called when poll is finished\n    * @param id Referenced reward rule\n    * @param agree Bool for checking the result of the poll.\n    * @param proposedAmount The proposed reward size.\n    */\n    function onRulePollFinish(uint256 id, bool agree, uint256 proposedAmount) internal {\n        require(msg.sender == address(rulePoll) && rulePoll.finalized());\n\n        if(agree) {\n            _approve(id, proposedAmount);\n        }\n        /* else {\n            _reject(id);\n        } */\n\n        updateMinVotedTokens(rulePoll.getVotedTokensPerc());\n        emit RulePollFinished(id, agree);\n\n        delete rulePoll;\n    }\n\n    /**\n    * @dev Counts the amount of rules.\n    */\n    function countRules() public view returns (uint256) {\n        return rules.length;\n    }\n\n}\n",
  "sourcePath": "/Users/peterpolman/Sites/thx_client/contracts/rule/Rules.sol",
  "compiler": {
    "name": "solc",
    "version": "0.5.0+commit.1d4f565a.Emscripten.clang"
  },
  "schemaVersion": "3.0.1",
  "updatedAt": "2019-08-14T12:05:16.235Z",
  "devdoc": {
    "methods": {
      "countRules()": {
        "details": "Counts the amount of rules."
      },
      "createRule(string,uint256)": {
        "details": "Creates the initial reward rule.",
        "params": {
          "amount": "Reward size suggested for the beneficiary.",
          "slug": "Short readable description of rule."
        }
      },
      "revokeVoteForRule()": {
        "details": "Vote for the suggested rule."
      },
      "startRulePoll(uint256,uint256)": {
        "details": "Starts the rule poll for chaning the amount."
      },
      "voteForRule(bool)": {
        "details": "Vote for the suggested rule.",
        "params": {
          "agree": "Approve or reject rule."
        }
      }
    }
  },
  "userdoc": {
    "methods": {}
  }
}