{
  "contractName": "RulePoll",
  "abi": [
    {
      "constant": false,
      "inputs": [
        {
          "name": "voter",
          "type": "address"
        }
      ],
      "name": "revokeVote",
      "outputs": [],
      "payable": false,
      "stateMutability": "nonpayable",
      "type": "function"
    },
    {
      "constant": true,
      "inputs": [],
      "name": "pool",
      "outputs": [
        {
          "name": "",
          "type": "address"
        }
      ],
      "payable": false,
      "stateMutability": "view",
      "type": "function"
    },
    {
      "constant": true,
      "inputs": [],
      "name": "endTime",
      "outputs": [
        {
          "name": "",
          "type": "uint256"
        }
      ],
      "payable": false,
      "stateMutability": "view",
      "type": "function"
    },
    {
      "constant": false,
      "inputs": [],
      "name": "tryToFinalize",
      "outputs": [
        {
          "name": "",
          "type": "bool"
        }
      ],
      "payable": false,
      "stateMutability": "nonpayable",
      "type": "function"
    },
    {
      "constant": true,
      "inputs": [],
      "name": "MAX_TOKENS_WEIGHT_DENOM",
      "outputs": [
        {
          "name": "",
          "type": "uint256"
        }
      ],
      "payable": false,
      "stateMutability": "view",
      "type": "function"
    },
    {
      "constant": true,
      "inputs": [],
      "name": "proposedAmount",
      "outputs": [
        {
          "name": "",
          "type": "uint256"
        }
      ],
      "payable": false,
      "stateMutability": "view",
      "type": "function"
    },
    {
      "constant": true,
      "inputs": [],
      "name": "noCounter",
      "outputs": [
        {
          "name": "",
          "type": "uint256"
        }
      ],
      "payable": false,
      "stateMutability": "view",
      "type": "function"
    },
    {
      "constant": true,
      "inputs": [],
      "name": "minTokensPerc",
      "outputs": [
        {
          "name": "",
          "type": "uint256"
        }
      ],
      "payable": false,
      "stateMutability": "view",
      "type": "function"
    },
    {
      "constant": true,
      "inputs": [],
      "name": "startTime",
      "outputs": [
        {
          "name": "",
          "type": "uint256"
        }
      ],
      "payable": false,
      "stateMutability": "view",
      "type": "function"
    },
    {
      "constant": true,
      "inputs": [],
      "name": "isNowApproved",
      "outputs": [
        {
          "name": "",
          "type": "bool"
        }
      ],
      "payable": false,
      "stateMutability": "view",
      "type": "function"
    },
    {
      "constant": true,
      "inputs": [
        {
          "name": "",
          "type": "address"
        }
      ],
      "name": "votesByAddress",
      "outputs": [
        {
          "name": "time",
          "type": "uint256"
        },
        {
          "name": "weight",
          "type": "uint256"
        },
        {
          "name": "agree",
          "type": "bool"
        }
      ],
      "payable": false,
      "stateMutability": "view",
      "type": "function"
    },
    {
      "constant": true,
      "inputs": [],
      "name": "id",
      "outputs": [
        {
          "name": "",
          "type": "uint256"
        }
      ],
      "payable": false,
      "stateMutability": "view",
      "type": "function"
    },
    {
      "constant": true,
      "inputs": [],
      "name": "totalVoted",
      "outputs": [
        {
          "name": "",
          "type": "uint256"
        }
      ],
      "payable": false,
      "stateMutability": "view",
      "type": "function"
    },
    {
      "constant": true,
      "inputs": [],
      "name": "finalized",
      "outputs": [
        {
          "name": "",
          "type": "bool"
        }
      ],
      "payable": false,
      "stateMutability": "view",
      "type": "function"
    },
    {
      "constant": false,
      "inputs": [
        {
          "name": "voter",
          "type": "address"
        },
        {
          "name": "agree",
          "type": "bool"
        }
      ],
      "name": "vote",
      "outputs": [],
      "payable": false,
      "stateMutability": "nonpayable",
      "type": "function"
    },
    {
      "constant": true,
      "inputs": [],
      "name": "yesCounter",
      "outputs": [
        {
          "name": "",
          "type": "uint256"
        }
      ],
      "payable": false,
      "stateMutability": "view",
      "type": "function"
    },
    {
      "constant": true,
      "inputs": [],
      "name": "token",
      "outputs": [
        {
          "name": "",
          "type": "address"
        }
      ],
      "payable": false,
      "stateMutability": "view",
      "type": "function"
    },
    {
      "inputs": [
        {
          "name": "_id",
          "type": "uint256"
        },
        {
          "name": "_proposedAmount",
          "type": "uint256"
        },
        {
          "name": "_tokenAddress",
          "type": "address"
        },
        {
          "name": "_startTime",
          "type": "uint256"
        },
        {
          "name": "_endTime",
          "type": "uint256"
        },
        {
          "name": "_minTokensPerc",
          "type": "uint256"
        },
        {
          "name": "_poolAddress",
          "type": "address"
        }
      ],
      "payable": false,
      "stateMutability": "nonpayable",
      "type": "constructor"
    },
    {
      "constant": true,
      "inputs": [],
      "name": "getVotedTokensPerc",
      "outputs": [
        {
          "name": "",
          "type": "uint256"
        }
      ],
      "payable": false,
      "stateMutability": "view",
      "type": "function"
    }
  ],
  "bytecode": "0x60806040526000600555600060065560006007556000600a5534801561002457600080fd5b5060405160e080610a79833981018060405260e081101561004457600080fd5b508051602082015160408301516060840151608085015160a086015160c0909601519495939492939192909190848185856000600160a060020a038516151561008c57600080fd5b42831015801561009b57508282115b15156100a657600080fd5b60008054600160a060020a0319908116600160a060020a03978816178255600180548216968816969096179095556002939093556003919091556008805460ff1990811690915560048054909116911515919091179055600b99909955600a93909355600c96909655600d805490921695169490941790935550610947928392506101329150396000f3fe6080604052600436106100fb5763ffffffff7c01000000000000000000000000000000000000000000000000000000006000350416630519bac3811461010057806316f0115b146101355780632c24909c146101665780633197cbb61461018d57806336181026146101a257806341fdade6146101cb5780634e9e8e73146101e057806364a90292146101f55780636f6a97621461020a57806378e979251461021f57806380322cbd14610234578063a7491b4814610249578063af640d0f1461029c578063b3a2273f146102b1578063b3f05b97146102c6578063bd041c4d146102db578063d74689e414610316578063fc0c546a1461032b575b600080fd5b34801561010c57600080fd5b506101336004803603602081101561012357600080fd5b5035600160a060020a0316610340565b005b34801561014157600080fd5b5061014a61040f565b60408051600160a060020a039092168252519081900360200190f35b34801561017257600080fd5b5061017b61041e565b60408051918252519081900360200190f35b34801561019957600080fd5b5061017b6104f6565b3480156101ae57600080fd5b506101b76104fc565b604080519115158252519081900360200190f35b3480156101d757600080fd5b5061017b610544565b3480156101ec57600080fd5b5061017b61054a565b34801561020157600080fd5b5061017b610550565b34801561021657600080fd5b5061017b610556565b34801561022b57600080fd5b5061017b61055c565b34801561024057600080fd5b506101b7610562565b34801561025557600080fd5b5061027c6004803603602081101561026c57600080fd5b5035600160a060020a0316610571565b604080519384526020840192909252151582820152519081900360600190f35b3480156102a857600080fd5b5061017b610595565b3480156102bd57600080fd5b5061017b61059b565b3480156102d257600080fd5b506101b76105a1565b3480156102e757600080fd5b50610133600480360360408110156102fe57600080fd5b50600160a060020a03813516906020013515156105aa565b34801561032257600080fd5b5061017b6107cb565b34801561033757600080fd5b5061014a6107d1565b600254421015801561035457506003544211155b151561035f57600080fd5b600160a060020a0381166000908152600960205260408120541161038257600080fd5b600160a060020a038116600090815260096020526040812060018082018054600284018054948690559490915560ff19831690935560075460ff909216916103cf9163ffffffff6107e016565b60075580156103f3576005546103eb908363ffffffff6107e016565b60055561040a565b600654610406908363ffffffff6107e016565b6006555b505050565b600d54600160a060020a031681565b6000806104386006546005546107fa90919063ffffffff16565b90506104ef6000809054906101000a9004600160a060020a0316600160a060020a03166318160ddd6040518163ffffffff167c010000000000000000000000000000000000000000000000000000000002815260040160206040518083038186803b1580156104a657600080fd5b505afa1580156104ba573d6000803e3d6000fd5b505050506040513d60208110156104d057600080fd5b50516104e383606463ffffffff61081316565b9063ffffffff61083e16565b9150505b90565b60035481565b60085460009060ff161561050f57600080fd5b600354421015610521575060006104f3565b6008805460ff1916600117905561053e610539610862565b610884565b50600190565b6103e881565b600c5481565b60065481565b600a5481565b60025481565b600061056c610862565b905090565b60096020526000908152604090208054600182015460029092015490919060ff1683565b600b5481565b60075481565b60085460ff1681565b60025442101580156105be57506003544211155b15156105c957600080fd5b600160a060020a03821615156105de57600080fd5b600160a060020a0382166000908152600960205260409020541561060157600080fd5b60008054604080517f70a08231000000000000000000000000000000000000000000000000000000008152600160a060020a038681166004830152915191909216916370a08231916024808301926020929190829003018186803b15801561066857600080fd5b505afa15801561067c573d6000803e3d6000fd5b505050506040513d602081101561069257600080fd5b505160008054604080517f18160ddd00000000000000000000000000000000000000000000000000000000815290519394509192610736926103e892600160a060020a0316916318160ddd91600480820192602092909190829003018186803b1580156106fe57600080fd5b505afa158015610712573d6000803e3d6000fd5b505050506040513d602081101561072857600080fd5b50519063ffffffff61083e16565b9050808211156107465780610748565b815b9150821561076b57600554610763908363ffffffff6107fa16565b600555610782565b60065461077e908363ffffffff6107fa16565b6006555b600160a060020a038416600090815260096020526040902042815560018082018490556002909101805460ff19168515151790556007546107c2916107fa565b60075550505050565b60055481565b600054600160a060020a031681565b6000828211156107ef57600080fd5b508082035b92915050565b60008282018381101561080c57600080fd5b9392505050565b6000821515610824575060006107f4565b82820282848281151561083357fe5b041461080c57600080fd5b600080821161084c57600080fd5b6000828481151561085957fe5b04949350505050565b600060065460055411801561056c5750600a5461087d61041e565b1015905090565b600d54600b54600c54604080517f607ca15b00000000000000000000000000000000000000000000000000000000815260048101939093528415156024840152604483019190915251600160a060020a039092169163607ca15b9160648082019260009290919082900301818387803b15801561090057600080fd5b505af1158015610914573d6000803e3d6000fd5b505050505056fea165627a7a72305820dfb6199f83c7ac3f0a02e0659882cd305b1c9fcde6cb779f9f089ee9302fc0730029",
  "source": "pragma solidity ^0.5.0;\n\nimport '../../IRewardPool.sol';\nimport '../../math/SafeMath.sol';\nimport '../BasePoll.sol';\n\ncontract RulePoll is BasePoll {\n    using SafeMath for uint256;\n\n    uint256 public minTokensPerc = 0;\n    uint256 public id;\n    uint256 public proposedAmount;\n\n    IRewardPool public pool;\n\n    /**\n     * @dev RulePoll constructor\n     * @param _id Id of the referenced Rule\n     * @param _tokenAddress ERC20 compatible token contract address\n     * @param _startTime Poll start time\n     * @param _endTime Poll end time\n     * @param _minTokensPerc Minimum token percentage for this vote\n     * @param _poolAddress Reward Pool contract address\n     */\n    constructor(\n        uint256 _id,\n        uint256 _proposedAmount,\n        address _tokenAddress,\n        uint256 _startTime,\n        uint256 _endTime,\n        uint256 _minTokensPerc,\n        address _poolAddress\n    ) public\n        BasePoll(_tokenAddress, _poolAddress, _startTime, _endTime, false)\n    {\n        id = _id;\n        minTokensPerc = _minTokensPerc;\n        proposedAmount = _proposedAmount;\n\n        pool = IRewardPool(_poolAddress);\n    }\n\n    /**\n     * @dev calculate the new votedTokensPercentage based on the last votes compared to the total supply.\n     */\n    function getVotedTokensPerc() public view returns(uint256) {\n        uint256 totalVotes = yesCounter.add(noCounter);\n        return totalVotes.mul(100).div(token.totalSupply());\n    }\n\n    /**\n     * @dev override default approval check and implements the new votedTokensPercentage\n     */\n    function isSubjectApproved() internal view returns(bool) {\n        return yesCounter > noCounter && getVotedTokensPerc() >= minTokensPerc;\n    }\n\n    /**\n     * @dev callback called after poll finalization\n     */\n     function onPollFinish(bool agree) internal {\n         pool.onRulePollFinish(id, agree, proposedAmount);\n     }\n\n}\n",
  "sourcePath": "/Users/peterpolman/Sites/thx/wallet/contracts/poll/polls/RulePoll.sol",
  "compiler": {
    "name": "solc",
    "version": "0.5.0+commit.1d4f565a.Emscripten.clang"
  },
  "schemaVersion": "3.0.1",
  "updatedAt": "2020-03-09T13:20:31.897Z",
  "devdoc": {
    "methods": {
      "constructor": {
        "details": "RulePoll constructor",
        "params": {
          "_endTime": "Poll end time",
          "_id": "Id of the referenced Rule",
          "_minTokensPerc": "Minimum token percentage for this vote",
          "_poolAddress": "Reward Pool contract address",
          "_startTime": "Poll start time",
          "_tokenAddress": "ERC20 compatible token contract address"
        }
      },
      "getVotedTokensPerc()": {
        "details": "calculate the new votedTokensPercentage based on the last votes compared to the total supply."
      },
      "revokeVote(address)": {
        "details": "Revoke user`s vote",
        "params": {
          "voter": "The address of the user voting"
        }
      },
      "vote(address,bool)": {
        "details": "Process user`s vote",
        "params": {
          "agree": "True if user endorses the proposal else False",
          "voter": "The address of the user voting"
        }
      }
    }
  },
  "userdoc": {
    "methods": {
      "tryToFinalize()": {
        "notice": "Finalize poll and call onPollFinish callback with result"
      }
    }
  }
}