{
  "contractName": "RulePoll",
  "abi": [
    {
      "constant": true,
      "inputs": [],
      "name": "pool",
      "outputs": [
        {
          "name": "",
          "type": "address"
        }
      ],
      "payable": false,
      "stateMutability": "view",
      "type": "function"
    },
    {
      "constant": true,
      "inputs": [],
      "name": "endTime",
      "outputs": [
        {
          "name": "",
          "type": "uint256"
        }
      ],
      "payable": false,
      "stateMutability": "view",
      "type": "function"
    },
    {
      "constant": false,
      "inputs": [],
      "name": "tryToFinalize",
      "outputs": [
        {
          "name": "",
          "type": "bool"
        }
      ],
      "payable": false,
      "stateMutability": "nonpayable",
      "type": "function"
    },
    {
      "constant": true,
      "inputs": [],
      "name": "MAX_TOKENS_WEIGHT_DENOM",
      "outputs": [
        {
          "name": "",
          "type": "uint256"
        }
      ],
      "payable": false,
      "stateMutability": "view",
      "type": "function"
    },
    {
      "constant": false,
      "inputs": [],
      "name": "revokeVote",
      "outputs": [],
      "payable": false,
      "stateMutability": "nonpayable",
      "type": "function"
    },
    {
      "constant": false,
      "inputs": [
        {
          "name": "agree",
          "type": "bool"
        }
      ],
      "name": "vote",
      "outputs": [],
      "payable": false,
      "stateMutability": "nonpayable",
      "type": "function"
    },
    {
      "constant": true,
      "inputs": [],
      "name": "proposedAmount",
      "outputs": [
        {
          "name": "",
          "type": "uint256"
        }
      ],
      "payable": false,
      "stateMutability": "view",
      "type": "function"
    },
    {
      "constant": true,
      "inputs": [],
      "name": "noCounter",
      "outputs": [
        {
          "name": "",
          "type": "uint256"
        }
      ],
      "payable": false,
      "stateMutability": "view",
      "type": "function"
    },
    {
      "constant": true,
      "inputs": [],
      "name": "minTokensPerc",
      "outputs": [
        {
          "name": "",
          "type": "uint256"
        }
      ],
      "payable": false,
      "stateMutability": "view",
      "type": "function"
    },
    {
      "constant": true,
      "inputs": [],
      "name": "startTime",
      "outputs": [
        {
          "name": "",
          "type": "uint256"
        }
      ],
      "payable": false,
      "stateMutability": "view",
      "type": "function"
    },
    {
      "constant": true,
      "inputs": [],
      "name": "isNowApproved",
      "outputs": [
        {
          "name": "",
          "type": "bool"
        }
      ],
      "payable": false,
      "stateMutability": "view",
      "type": "function"
    },
    {
      "constant": true,
      "inputs": [
        {
          "name": "",
          "type": "address"
        }
      ],
      "name": "votesByAddress",
      "outputs": [
        {
          "name": "time",
          "type": "uint256"
        },
        {
          "name": "weight",
          "type": "uint256"
        },
        {
          "name": "agree",
          "type": "bool"
        }
      ],
      "payable": false,
      "stateMutability": "view",
      "type": "function"
    },
    {
      "constant": true,
      "inputs": [],
      "name": "id",
      "outputs": [
        {
          "name": "",
          "type": "uint256"
        }
      ],
      "payable": false,
      "stateMutability": "view",
      "type": "function"
    },
    {
      "constant": true,
      "inputs": [],
      "name": "totalVoted",
      "outputs": [
        {
          "name": "",
          "type": "uint256"
        }
      ],
      "payable": false,
      "stateMutability": "view",
      "type": "function"
    },
    {
      "constant": true,
      "inputs": [],
      "name": "finalized",
      "outputs": [
        {
          "name": "",
          "type": "bool"
        }
      ],
      "payable": false,
      "stateMutability": "view",
      "type": "function"
    },
    {
      "constant": true,
      "inputs": [],
      "name": "yesCounter",
      "outputs": [
        {
          "name": "",
          "type": "uint256"
        }
      ],
      "payable": false,
      "stateMutability": "view",
      "type": "function"
    },
    {
      "constant": true,
      "inputs": [],
      "name": "token",
      "outputs": [
        {
          "name": "",
          "type": "address"
        }
      ],
      "payable": false,
      "stateMutability": "view",
      "type": "function"
    },
    {
      "inputs": [
        {
          "name": "_id",
          "type": "uint256"
        },
        {
          "name": "_proposedAmount",
          "type": "uint256"
        },
        {
          "name": "_tokenAddress",
          "type": "address"
        },
        {
          "name": "_startTime",
          "type": "uint256"
        },
        {
          "name": "_endTime",
          "type": "uint256"
        },
        {
          "name": "_minTokensPerc",
          "type": "uint256"
        },
        {
          "name": "_poolAddress",
          "type": "address"
        }
      ],
      "payable": false,
      "stateMutability": "nonpayable",
      "type": "constructor"
    },
    {
      "constant": true,
      "inputs": [],
      "name": "getVotedTokensPerc",
      "outputs": [
        {
          "name": "",
          "type": "uint256"
        }
      ],
      "payable": false,
      "stateMutability": "view",
      "type": "function"
    }
  ],
  "bytecode": "0x6080604052600060045560006005556000600655600060095534801561002457600080fd5b5060405160e0806109fa833981018060405260e081101561004457600080fd5b508051602082015160408301516060840151608085015160a086015160c09096015194959394929391929091908484846000600160a060020a038416151561008b57600080fd5b42831015801561009a57508282115b15156100a557600080fd5b60008054600160a060020a03958616600160a060020a03199182161782556001949094556002929092556007805460ff199081169091556003805492151592909116919091179055600a99909955600993909355600b96909655600c805491909616911617909355506108da928392506101209150396000f3fe6080604052600436106100fb5763ffffffff7c010000000000000000000000000000000000000000000000000000000060003504166316f0115b81146101005780632c24909c146101315780633197cbb614610158578063361810261461016d57806341fdade61461019657806343c14b22146101ab5780634b9f5c98146101c25780634e9e8e73146101ee57806364a90292146102035780636f6a97621461021857806378e979251461022d57806380322cbd14610242578063a7491b4814610257578063af640d0f146102aa578063b3a2273f146102bf578063b3f05b97146102d4578063d74689e4146102e9578063fc0c546a146102fe575b600080fd5b34801561010c57600080fd5b50610115610313565b60408051600160a060020a039092168252519081900360200190f35b34801561013d57600080fd5b50610146610322565b60408051918252519081900360200190f35b34801561016457600080fd5b506101466103fa565b34801561017957600080fd5b50610182610400565b604080519115158252519081900360200190f35b3480156101a257600080fd5b50610146610448565b3480156101b757600080fd5b506101c061044e565b005b3480156101ce57600080fd5b506101c0600480360360208110156101e557600080fd5b5035151561050a565b3480156101fa57600080fd5b50610146610701565b34801561020f57600080fd5b50610146610707565b34801561022457600080fd5b5061014661070d565b34801561023957600080fd5b50610146610713565b34801561024e57600080fd5b50610182610719565b34801561026357600080fd5b5061028a6004803603602081101561027a57600080fd5b5035600160a060020a0316610728565b604080519384526020840192909252151582820152519081900360600190f35b3480156102b657600080fd5b5061014661074c565b3480156102cb57600080fd5b50610146610752565b3480156102e057600080fd5b50610182610758565b3480156102f557600080fd5b50610146610761565b34801561030a57600080fd5b50610115610767565b600c54600160a060020a031681565b60008061033c60055460045461077690919063ffffffff16565b90506103f36000809054906101000a9004600160a060020a0316600160a060020a03166318160ddd6040518163ffffffff167c010000000000000000000000000000000000000000000000000000000002815260040160206040518083038186803b1580156103aa57600080fd5b505afa1580156103be573d6000803e3d6000fd5b505050506040513d60208110156103d457600080fd5b50516103e783606463ffffffff61079116565b9063ffffffff6107bc16565b9150505b90565b60025481565b60075460009060ff161561041357600080fd5b600254421015610425575060006103f7565b6007805460ff1916600117905561044261043d6107e0565b610802565b50600190565b6103e881565b600154421015801561046257506002544211155b151561046d57600080fd5b336000908152600860205260408120541161048757600080fd5b33600090815260086020526040812060018082018054600284018054948690559490915560ff19831690935560065460ff909216916104cb9163ffffffff61089916565b60065580156104ef576004546104e7908363ffffffff61089916565b600455610506565b600554610502908363ffffffff61089916565b6005555b5050565b600154421015801561051e57506002544211155b151561052957600080fd5b336000908152600860205260409020541561054357600080fd5b60008054604080517f70a082310000000000000000000000000000000000000000000000000000000081523360048201529051600160a060020a03909216916370a0823191602480820192602092909190829003018186803b1580156105a857600080fd5b505afa1580156105bc573d6000803e3d6000fd5b505050506040513d60208110156105d257600080fd5b505160008054604080517f18160ddd00000000000000000000000000000000000000000000000000000000815290519394509192610676926103e892600160a060020a0316916318160ddd91600480820192602092909190829003018186803b15801561063e57600080fd5b505afa158015610652573d6000803e3d6000fd5b505050506040513d602081101561066857600080fd5b50519063ffffffff6107bc16565b9050808211156106865780610688565b815b915082156106ab576004546106a3908363ffffffff61077616565b6004556106c2565b6005546106be908363ffffffff61077616565b6005555b33600090815260086020526040902042815560018082018490556002909101805460ff19168515151790556006546106f991610776565b600655505050565b600b5481565b60055481565b60095481565b60015481565b60006107236107e0565b905090565b60086020526000908152604090208054600182015460029092015490919060ff1683565b600a5481565b60065481565b60075460ff1681565b60045481565b600054600160a060020a031681565b60008282018381101561078857600080fd5b90505b92915050565b60008215156107a25750600061078b565b8282028284828115156107b157fe5b041461078857600080fd5b60008082116107ca57600080fd5b600082848115156107d757fe5b04949350505050565b600060055460045411801561072357506009546107fb610322565b1015905090565b600c54600a54600b54604080517f607ca15b00000000000000000000000000000000000000000000000000000000815260048101939093528415156024840152604483019190915251600160a060020a039092169163607ca15b9160648082019260009290919082900301818387803b15801561087e57600080fd5b505af1158015610892573d6000803e3d6000fd5b5050505050565b6000828211156108a857600080fd5b5090039056fea165627a7a723058205b02a3b0949d8033f39fb89d0104262ade2a906b43f9b3da28479c5766e09e2b0029",
  "source": "pragma solidity ^0.5.0;\n\nimport '../../IRewardPool.sol';\nimport '../../math/SafeMath.sol';\nimport '../BasePoll.sol';\n\ncontract RulePoll is BasePoll {\n    using SafeMath for uint256;\n\n    uint256 public minTokensPerc = 0;\n    uint256 public id;\n    uint256 public proposedAmount;\n\n    IRewardPool public pool;\n\n    /**\n     * @dev RulePoll constructor\n     * @param _id Id of the referenced Reward\n     * @param _tokenAddress ERC20 compatible token contract address\n     * @param _startTime Poll start time\n     * @param _endTime Poll end time\n     * @param _minTokensPerc Minimum token percentage for this vote\n     */\n    constructor(\n        uint256 _id,\n        uint256 _proposedAmount,\n        address _tokenAddress,\n        uint256 _startTime,\n        uint256 _endTime,\n        uint256 _minTokensPerc,\n        address _poolAddress\n    ) public\n        BasePoll(_tokenAddress, _startTime, _endTime, false)\n    {\n        id = _id;\n        minTokensPerc = _minTokensPerc;\n        proposedAmount = _proposedAmount;\n\n        pool = IRewardPool(_poolAddress);\n    }\n\n    /**\n     * @dev calculate the new votedTokensPercentage based on the last votes compared to the total supply.\n     */\n    function getVotedTokensPerc() public view returns(uint256) {\n        uint256 totalVotes = yesCounter.add(noCounter);\n        return totalVotes.mul(100).div(token.totalSupply());\n    }\n\n    /**\n     * @dev override default approval check and implements the new votedTokensPercentage\n     */\n    function isSubjectApproved() internal view returns(bool) {\n        return yesCounter > noCounter && getVotedTokensPerc() >= minTokensPerc;\n    }\n\n    /**\n     * @dev callback called after poll finalization\n     */\n     function onPollFinish(bool agree) internal {\n         pool.onRulePollFinish(id, agree, proposedAmount);\n     }\n\n}\n",
  "sourcePath": "/Users/peterpolman/Sites/thx_client/contracts/poll/polls/RulePoll.sol",
  "compiler": {
    "name": "solc",
    "version": "0.5.0+commit.1d4f565a.Emscripten.clang"
  },
  "schemaVersion": "3.0.1",
  "updatedAt": "2019-08-07T07:08:12.795Z",
  "devdoc": {
    "methods": {
      "constructor": {
        "details": "RulePoll constructor",
        "params": {
          "_endTime": "Poll end time",
          "_id": "Id of the referenced Reward",
          "_minTokensPerc": "Minimum token percentage for this vote",
          "_startTime": "Poll start time",
          "_tokenAddress": "ERC20 compatible token contract address"
        }
      },
      "getVotedTokensPerc()": {
        "details": "calculate the new votedTokensPercentage based on the last votes compared to the total supply."
      },
      "revokeVote()": {
        "details": "Revoke user`s vote"
      },
      "vote(bool)": {
        "details": "Process user`s vote",
        "params": {
          "agree": "True if user endorses the proposal else False"
        }
      }
    }
  },
  "userdoc": {
    "methods": {
      "tryToFinalize()": {
        "notice": "Finalize poll and call onPollFinish callback with result"
      }
    }
  }
}