{
  "contractName": "Rules",
  "abi": [
    {
      "constant": true,
      "inputs": [
        {
          "name": "",
          "type": "uint256"
        }
      ],
      "name": "rules",
      "outputs": [
        {
          "name": "id",
          "type": "uint256"
        },
        {
          "name": "slug",
          "type": "string"
        },
        {
          "name": "amount",
          "type": "uint256"
        },
        {
          "name": "state",
          "type": "uint8"
        },
        {
          "name": "creator",
          "type": "address"
        },
        {
          "name": "created",
          "type": "uint256"
        }
      ],
      "payable": false,
      "stateMutability": "view",
      "type": "function"
    },
    {
      "constant": false,
      "inputs": [
        {
          "name": "account",
          "type": "address"
        }
      ],
      "name": "addManager",
      "outputs": [],
      "payable": false,
      "stateMutability": "nonpayable",
      "type": "function"
    },
    {
      "constant": true,
      "inputs": [],
      "name": "RULE_POLL_DURATION",
      "outputs": [
        {
          "name": "",
          "type": "uint256"
        }
      ],
      "payable": false,
      "stateMutability": "view",
      "type": "function"
    },
    {
      "constant": true,
      "inputs": [
        {
          "name": "",
          "type": "address"
        },
        {
          "name": "",
          "type": "uint256"
        }
      ],
      "name": "voters",
      "outputs": [
        {
          "name": "",
          "type": "uint256"
        }
      ],
      "payable": false,
      "stateMutability": "view",
      "type": "function"
    },
    {
      "constant": true,
      "inputs": [],
      "name": "rulePoll",
      "outputs": [
        {
          "name": "",
          "type": "address"
        }
      ],
      "payable": false,
      "stateMutability": "view",
      "type": "function"
    },
    {
      "constant": true,
      "inputs": [],
      "name": "minVotedTokensPerc",
      "outputs": [
        {
          "name": "",
          "type": "uint256"
        }
      ],
      "payable": false,
      "stateMutability": "view",
      "type": "function"
    },
    {
      "constant": true,
      "inputs": [],
      "name": "MAX_VOTED_TOKEN_PERC",
      "outputs": [
        {
          "name": "",
          "type": "uint256"
        }
      ],
      "payable": false,
      "stateMutability": "view",
      "type": "function"
    },
    {
      "constant": true,
      "inputs": [
        {
          "name": "account",
          "type": "address"
        }
      ],
      "name": "isMember",
      "outputs": [
        {
          "name": "",
          "type": "bool"
        }
      ],
      "payable": false,
      "stateMutability": "view",
      "type": "function"
    },
    {
      "constant": false,
      "inputs": [],
      "name": "renounceMember",
      "outputs": [],
      "payable": false,
      "stateMutability": "nonpayable",
      "type": "function"
    },
    {
      "constant": false,
      "inputs": [
        {
          "name": "account",
          "type": "address"
        }
      ],
      "name": "addMember",
      "outputs": [],
      "payable": false,
      "stateMutability": "nonpayable",
      "type": "function"
    },
    {
      "constant": true,
      "inputs": [
        {
          "name": "account",
          "type": "address"
        }
      ],
      "name": "isManager",
      "outputs": [
        {
          "name": "",
          "type": "bool"
        }
      ],
      "payable": false,
      "stateMutability": "view",
      "type": "function"
    },
    {
      "constant": false,
      "inputs": [],
      "name": "renounceManager",
      "outputs": [],
      "payable": false,
      "stateMutability": "nonpayable",
      "type": "function"
    },
    {
      "constant": true,
      "inputs": [],
      "name": "token",
      "outputs": [
        {
          "name": "",
          "type": "address"
        }
      ],
      "payable": false,
      "stateMutability": "view",
      "type": "function"
    },
    {
      "anonymous": false,
      "inputs": [
        {
          "indexed": false,
          "name": "id",
          "type": "uint256"
        },
        {
          "indexed": false,
          "name": "proposedAmount",
          "type": "uint256"
        }
      ],
      "name": "RulePollCreated",
      "type": "event"
    },
    {
      "anonymous": false,
      "inputs": [
        {
          "indexed": false,
          "name": "id",
          "type": "uint256"
        },
        {
          "indexed": false,
          "name": "approved",
          "type": "bool"
        }
      ],
      "name": "RulePollFinished",
      "type": "event"
    },
    {
      "anonymous": false,
      "inputs": [
        {
          "indexed": false,
          "name": "id",
          "type": "uint256"
        },
        {
          "indexed": false,
          "name": "state",
          "type": "uint8"
        }
      ],
      "name": "RuleStateChanged",
      "type": "event"
    },
    {
      "anonymous": false,
      "inputs": [
        {
          "indexed": true,
          "name": "account",
          "type": "address"
        }
      ],
      "name": "MemberAdded",
      "type": "event"
    },
    {
      "anonymous": false,
      "inputs": [
        {
          "indexed": true,
          "name": "account",
          "type": "address"
        }
      ],
      "name": "MemberRemoved",
      "type": "event"
    },
    {
      "anonymous": false,
      "inputs": [
        {
          "indexed": true,
          "name": "account",
          "type": "address"
        }
      ],
      "name": "ManagerAdded",
      "type": "event"
    },
    {
      "anonymous": false,
      "inputs": [
        {
          "indexed": true,
          "name": "account",
          "type": "address"
        }
      ],
      "name": "ManagerRemoved",
      "type": "event"
    },
    {
      "constant": false,
      "inputs": [
        {
          "name": "slug",
          "type": "string"
        },
        {
          "name": "amount",
          "type": "uint256"
        }
      ],
      "name": "createRule",
      "outputs": [],
      "payable": false,
      "stateMutability": "nonpayable",
      "type": "function"
    },
    {
      "constant": false,
      "inputs": [
        {
          "name": "agree",
          "type": "bool"
        }
      ],
      "name": "voteForRule",
      "outputs": [],
      "payable": false,
      "stateMutability": "nonpayable",
      "type": "function"
    },
    {
      "constant": false,
      "inputs": [],
      "name": "revokeVoteForRule",
      "outputs": [],
      "payable": false,
      "stateMutability": "nonpayable",
      "type": "function"
    },
    {
      "constant": false,
      "inputs": [
        {
          "name": "id",
          "type": "uint256"
        },
        {
          "name": "proposedAmount",
          "type": "uint256"
        }
      ],
      "name": "startRulePoll",
      "outputs": [],
      "payable": false,
      "stateMutability": "nonpayable",
      "type": "function"
    },
    {
      "constant": true,
      "inputs": [],
      "name": "countRules",
      "outputs": [
        {
          "name": "",
          "type": "uint256"
        }
      ],
      "payable": false,
      "stateMutability": "view",
      "type": "function"
    }
  ],
  "bytecode": "0x6080604052600060055561001b33640100000000610032810204565b61002d33640100000000610081810204565b61015e565b61004a600082640100000000610cad6100d082021704565b604051600160a060020a038216907f3b4a40cccf2058c593542587329dd385be4f0b588db5471fbd9598e56dd7093a90600090a250565b610099600182640100000000610cad6100d082021704565b604051600160a060020a038216907fb251eb052afc73ffd02ffe85ad79990a8b3fed60d76dbc2fa2fdd7123dffd91490600090a250565b600160a060020a03811615156100e557600080fd5b6100f88282640100000000610127810204565b1561010257600080fd5b600160a060020a0316600090815260209190915260409020805460ff19166001179055565b6000600160a060020a038216151561013e57600080fd5b50600160a060020a03166000908152602091909152604090205460ff1690565b611857806200016e6000396000f3fe6080604052600436106100fb5763ffffffff7c010000000000000000000000000000000000000000000000000000000060003504166304d6ded481146101005780632d06177a146101e557806331c540321461021a57806335deeb4a14610241578063439c6f17146102f657806351fece9d1461030b578063563b373d146103375780635c134d66146103675780636fb1270c146103a057806384219204146103d1578063962c9c8d146103e6578063a230c524146103fb578063bad5ba0114610442578063c9b1945314610457578063ca6d56dc1461046c578063f3ae24151461049f578063f8b91abe146104d2578063fc0c546a146104e7575b600080fd5b34801561010c57600080fd5b5061012a6004803603602081101561012357600080fd5b50356104fc565b604051808781526020018060200186815260200185600281111561014a57fe5b60ff16815260200184600160a060020a0316600160a060020a03168152602001838152602001828103825287818151815260200191508051906020019080838360005b838110156101a557818101518382015260200161018d565b50505050905090810190601f1680156101d25780820380516001836020036101000a031916815260200191505b5097505050505050505060405180910390f35b3480156101f157600080fd5b506102186004803603602081101561020857600080fd5b5035600160a060020a03166105ed565b005b34801561022657600080fd5b5061022f61060d565b60408051918252519081900360200190f35b34801561024d57600080fd5b506102186004803603604081101561026457600080fd5b81019060208101813564010000000081111561027f57600080fd5b82018360208201111561029157600080fd5b803590602001918460018302840111640100000000831117156102b357600080fd5b91908080601f0160208091040260200160405190810160405280939291908181526020018383808284376000920191909152509295505091359250610614915050565b34801561030257600080fd5b5061022f61079d565b34801561031757600080fd5b506102186004803603602081101561032e57600080fd5b503515156107a4565b34801561034357600080fd5b506102186004803603604081101561035a57600080fd5b5080359060200135610852565b34801561037357600080fd5b5061022f6004803603604081101561038a57600080fd5b50600160a060020a038135169060200135610a00565b3480156103ac57600080fd5b506103b5610a30565b60408051600160a060020a039092168252519081900360200190f35b3480156103dd57600080fd5b5061022f610a3f565b3480156103f257600080fd5b5061022f610a45565b34801561040757600080fd5b5061042e6004803603602081101561041e57600080fd5b5035600160a060020a0316610a4a565b604080519115158252519081900360200190f35b34801561044e57600080fd5b50610218610a63565b34801561046357600080fd5b50610218610a6e565b34801561047857600080fd5b506102186004803603602081101561048f57600080fd5b5035600160a060020a0316610b0f565b3480156104ab57600080fd5b5061042e600480360360208110156104c257600080fd5b5035600160a060020a0316610b2c565b3480156104de57600080fd5b50610218610b3e565b3480156104f357600080fd5b506103b5610b47565b600680548290811061050a57fe5b9060005260206000209060050201600091509050806000015490806001018054600181600116156101000203166002900480601f0160208091040260200160405190810160405280929190818152602001828054600181600116156101000203166002900480156105bc5780601f10610591576101008083540402835291602001916105bc565b820191906000526020600020905b81548152906001019060200180831161059f57829003601f168201915b50505050600283015460038401546004909401549293909260ff82169250610100909104600160a060020a03169086565b6105f633610b2c565b151561060157600080fd5b61060a81610b56565b50565b6006545b90565b61061d33610b2c565b151561062857600080fd5b610630610d47565b600654808252602080830185905260408084018590526000606085018190523360808601524260a086015281519384529183019190915280517f2da08c9afbca94a7781f242bd0193bf9a13ebd681b7fead14822408e3fbe78e99281900390910190a16006805460018101808355600092909252825160059091027ff652222313e28459528d920b65115c16c04f3efc82aaedc97be59f3f377c0d3f8101918255602080850151805186949361070c937ff652222313e28459528d920b65115c16c04f3efc82aaedc97be59f3f377c0d40909101920190610d89565b506040820151816002015560608201518160030160006101000a81548160ff0219169083600281111561073b57fe5b02179055506080820151600382018054600160a060020a039092166101000274ffffffffffffffffffffffffffffffffffffffff001990921691909117905560a09091015160049091015550805160408201516107989190610852565b505050565b62093a8081565b6107ad33610a4a565b15156107b857600080fd5b600454600160a060020a031615156107cf57600080fd5b60048054604080517f4b9f5c980000000000000000000000000000000000000000000000000000000081528415159381019390935251600160a060020a0390911691634b9f5c9891602480830192600092919082900301818387803b15801561083757600080fd5b505af115801561084b573d6000803e3d6000fd5b5050505050565b61085b33610a4a565b151561086657600080fd5b600454600160a060020a03161580610901575060048054604080517fb3f05b970000000000000000000000000000000000000000000000000000000081529051600160a060020a039092169263b3f05b97928282019260209290829003018186803b1580156108d457600080fd5b505afa1580156108e8573d6000803e3d6000fd5b505050506040513d60208110156108fe57600080fd5b50515b151561090c57600080fd5b600354600554429162093a8083019185918591600160a060020a03909116908590859030610938610e07565b9687526020870195909552600160a060020a039384166040808801919091526060870193909352608086019190915260a0850152911660c0830152519081900360e001906000f080158015610991573d6000803e3d6000fd5b506004805473ffffffffffffffffffffffffffffffffffffffff1916600160a060020a0392909216919091179055604080518581526020810185905281517f9bd49e167f8ad588627e6f5b6a02b84c5a6ee245ce327afa99ade561bcbc284d929181900390910190a150505050565b600260205281600052604060002081815481101515610a1b57fe5b90600052602060002001600091509150505481565b600454600160a060020a031681565b60055481565b600a81565b6000610a5d60018363ffffffff610b9e16565b92915050565b610a6c33610bd5565b565b610a7733610a4a565b1515610a8257600080fd5b600454600160a060020a03161515610a9957600080fd5b60048054604080517f43c14b220000000000000000000000000000000000000000000000000000000081529051600160a060020a03909216926343c14b2292828201926000929082900301818387803b158015610af557600080fd5b505af1158015610b09573d6000803e3d6000fd5b50505050565b610b1833610a4a565b1515610b2357600080fd5b61060a81610c1d565b6000610a5d818363ffffffff610b9e16565b610a6c33610c65565b600354600160a060020a031681565b610b6760008263ffffffff610cad16565b604051600160a060020a038216907f3b4a40cccf2058c593542587329dd385be4f0b588db5471fbd9598e56dd7093a90600090a250565b6000600160a060020a0382161515610bb557600080fd5b50600160a060020a03166000908152602091909152604090205460ff1690565b610be660018263ffffffff610cfb16565b604051600160a060020a038216907f6e76fb4c77256006d9c38ec7d82b45a8c8f3c27b1d6766fffc42dfb8de68449290600090a250565b610c2e60018263ffffffff610cad16565b604051600160a060020a038216907fb251eb052afc73ffd02ffe85ad79990a8b3fed60d76dbc2fa2fdd7123dffd91490600090a250565b610c7660008263ffffffff610cfb16565b604051600160a060020a038216907fef69f7d97228658c92417be1b16b19058315de71fecb435d07b7d23728b6bd3190600090a250565b600160a060020a0381161515610cc257600080fd5b610ccc8282610b9e565b15610cd657600080fd5b600160a060020a0316600090815260209190915260409020805460ff19166001179055565b600160a060020a0381161515610d1057600080fd5b610d1a8282610b9e565b1515610d2557600080fd5b600160a060020a0316600090815260209190915260409020805460ff19169055565b60c06040519081016040528060008152602001606081526020016000815260200160006002811115610d7557fe5b815260006020820181905260409091015290565b828054600181600116156101000203166002900490600052602060002090601f016020900481019282601f10610dca57805160ff1916838001178555610df7565b82800160010185558215610df7579182015b82811115610df7578251825591602001919060010190610ddc565b50610e03929150610e17565b5090565b6040516109fa80610e3283390190565b61061191905b80821115610e035760008155600101610e1d56fe6080604052600060045560006005556000600655600060095534801561002457600080fd5b5060405160e0806109fa833981018060405260e081101561004457600080fd5b508051602082015160408301516060840151608085015160a086015160c09096015194959394929391929091908484846000600160a060020a038416151561008b57600080fd5b42831015801561009a57508282115b15156100a557600080fd5b60008054600160a060020a03958616600160a060020a03199182161782556001949094556002929092556007805460ff199081169091556003805492151592909116919091179055600a99909955600993909355600b96909655600c805491909616911617909355506108da928392506101209150396000f3fe6080604052600436106100fb5763ffffffff7c010000000000000000000000000000000000000000000000000000000060003504166316f0115b81146101005780632c24909c146101315780633197cbb614610158578063361810261461016d57806341fdade61461019657806343c14b22146101ab5780634b9f5c98146101c25780634e9e8e73146101ee57806364a90292146102035780636f6a97621461021857806378e979251461022d57806380322cbd14610242578063a7491b4814610257578063af640d0f146102aa578063b3a2273f146102bf578063b3f05b97146102d4578063d74689e4146102e9578063fc0c546a146102fe575b600080fd5b34801561010c57600080fd5b50610115610313565b60408051600160a060020a039092168252519081900360200190f35b34801561013d57600080fd5b50610146610322565b60408051918252519081900360200190f35b34801561016457600080fd5b506101466103fa565b34801561017957600080fd5b50610182610400565b604080519115158252519081900360200190f35b3480156101a257600080fd5b50610146610448565b3480156101b757600080fd5b506101c061044e565b005b3480156101ce57600080fd5b506101c0600480360360208110156101e557600080fd5b5035151561050a565b3480156101fa57600080fd5b50610146610701565b34801561020f57600080fd5b50610146610707565b34801561022457600080fd5b5061014661070d565b34801561023957600080fd5b50610146610713565b34801561024e57600080fd5b50610182610719565b34801561026357600080fd5b5061028a6004803603602081101561027a57600080fd5b5035600160a060020a0316610728565b604080519384526020840192909252151582820152519081900360600190f35b3480156102b657600080fd5b5061014661074c565b3480156102cb57600080fd5b50610146610752565b3480156102e057600080fd5b50610182610758565b3480156102f557600080fd5b50610146610761565b34801561030a57600080fd5b50610115610767565b600c54600160a060020a031681565b60008061033c60055460045461077690919063ffffffff16565b90506103f36000809054906101000a9004600160a060020a0316600160a060020a03166318160ddd6040518163ffffffff167c010000000000000000000000000000000000000000000000000000000002815260040160206040518083038186803b1580156103aa57600080fd5b505afa1580156103be573d6000803e3d6000fd5b505050506040513d60208110156103d457600080fd5b50516103e783606463ffffffff61079116565b9063ffffffff6107bc16565b9150505b90565b60025481565b60075460009060ff161561041357600080fd5b600254421015610425575060006103f7565b6007805460ff1916600117905561044261043d6107e0565b610802565b50600190565b6103e881565b600154421015801561046257506002544211155b151561046d57600080fd5b336000908152600860205260408120541161048757600080fd5b33600090815260086020526040812060018082018054600284018054948690559490915560ff19831690935560065460ff909216916104cb9163ffffffff61089916565b60065580156104ef576004546104e7908363ffffffff61089916565b600455610506565b600554610502908363ffffffff61089916565b6005555b5050565b600154421015801561051e57506002544211155b151561052957600080fd5b336000908152600860205260409020541561054357600080fd5b60008054604080517f70a082310000000000000000000000000000000000000000000000000000000081523360048201529051600160a060020a03909216916370a0823191602480820192602092909190829003018186803b1580156105a857600080fd5b505afa1580156105bc573d6000803e3d6000fd5b505050506040513d60208110156105d257600080fd5b505160008054604080517f18160ddd00000000000000000000000000000000000000000000000000000000815290519394509192610676926103e892600160a060020a0316916318160ddd91600480820192602092909190829003018186803b15801561063e57600080fd5b505afa158015610652573d6000803e3d6000fd5b505050506040513d602081101561066857600080fd5b50519063ffffffff6107bc16565b9050808211156106865780610688565b815b915082156106ab576004546106a3908363ffffffff61077616565b6004556106c2565b6005546106be908363ffffffff61077616565b6005555b33600090815260086020526040902042815560018082018490556002909101805460ff19168515151790556006546106f991610776565b600655505050565b600b5481565b60055481565b60095481565b60015481565b60006107236107e0565b905090565b60086020526000908152604090208054600182015460029092015490919060ff1683565b600a5481565b60065481565b60075460ff1681565b60045481565b600054600160a060020a031681565b60008282018381101561078857600080fd5b90505b92915050565b60008215156107a25750600061078b565b8282028284828115156107b157fe5b041461078857600080fd5b60008082116107ca57600080fd5b600082848115156107d757fe5b04949350505050565b600060055460045411801561072357506009546107fb610322565b1015905090565b600c54600a54600b54604080517f607ca15b00000000000000000000000000000000000000000000000000000000815260048101939093528415156024840152604483019190915251600160a060020a039092169163607ca15b9160648082019260009290919082900301818387803b15801561087e57600080fd5b505af1158015610892573d6000803e3d6000fd5b5050505050565b6000828211156108a857600080fd5b5090039056fea165627a7a723058205b02a3b0949d8033f39fb89d0104262ade2a906b43f9b3da28479c5766e09e2b0029a165627a7a72305820fd58c6723f1d8218db1d4518a83e82062ce5f6161f945714ed408b2bf78cc8aa0029",
  "source": "pragma solidity ^0.5.0;\n\nimport '../access/roles/MemberRole.sol';\nimport '../access/roles/ManagerRole.sol';\nimport '../math/SafeMath.sol';\nimport '../token/ERC20/IERC20.sol';\nimport '../poll/polls/RulePoll.sol';\n\ncontract Rules is ManagerRole, MemberRole {\n    using SafeMath for uint256;\n\n    struct Rule {\n        uint256 id;\n        string slug;\n        uint256 amount;\n        RuleState state;\n        address creator;\n        uint256 created;\n    }\n\n    enum RuleState { Pending, Approved, Rejected }\n\n    event RulePollCreated(uint256 id, uint256 proposedAmount);\n    event RulePollFinished(uint256 id, bool approved);\n    event RuleStateChanged(uint256 id, RuleState state);\n\n    mapping (address => uint256[]) public voters;\n\n    uint256 public constant RULE_POLL_DURATION = 7 days;\n    uint256 public constant MAX_VOTED_TOKEN_PERC = 10;\n\n    IERC20 public token;\n    RulePoll public rulePoll;\n    uint256 public minVotedTokensPerc = 0;\n\n    Rule[] public rules;\n\n    /**\n    * @dev Creates the initial reward rule.\n    * @param slug Short readable description of rule.\n    * @param amount Reward size suggested for the beneficiary.\n    */\n    function createRule(string memory slug, uint256 amount) public onlyManager {\n        Rule memory rule;\n\n        rule.id = rules.length;\n        rule.slug = slug;\n        rule.amount = amount;\n        rule.state = RuleState.Pending;\n        rule.creator = msg.sender;\n        rule.created = now;\n\n        emit RuleStateChanged(rule.id, rule.state);\n        rules.push(rule);\n\n        startRulePoll(rule.id, rule.amount);\n    }\n\n    /**\n    * @dev Vote for the suggested rule.\n    * @param agree Approve or reject rule.\n    */\n    function voteForRule(bool agree) public onlyMember {\n        require(address(rulePoll) != address(0));\n\n        rulePoll.vote(agree);\n    }\n\n    /**\n    * @dev Vote for the suggested rule.\n    */\n    function revokeVoteForRule() public onlyMember {\n        require(address(rulePoll) != address(0));\n\n        rulePoll.revokeVote();\n    }\n\n    /**\n    * @dev Starts the rule poll for chaning the amount.\n    */\n    function startRulePoll(uint256 id, uint256 proposedAmount) public onlyMember {\n        require(address(rulePoll) == address(0) || rulePoll.finalized());\n\n        uint256 startTime = now;\n        uint256 endTime = startTime + RULE_POLL_DURATION;\n\n        rulePoll = new RulePoll(id, proposedAmount, address(token), startTime, endTime, minVotedTokensPerc, address(this));\n\n        emit RulePollCreated(id, proposedAmount);\n    }\n\n    /**\n    * @dev Approves the suggested rule and sets its state to Active.\n    * @param id The id of the rule.\n    */\n    function _approve(uint256 id, uint256 proposedAmount) internal {\n        require(rules[id].state == RuleState.Pending || rules[id].state == RuleState.Rejected);\n        rules[id].amount = proposedAmount;\n        rules[id].state = RuleState.Approved;\n\n        emit RuleStateChanged(rules[id].id, rules[id].state);\n    }\n\n    /**\n    * @dev Rejects the rule and sets the state to Disabled.\n    * @param id The id of the rule.\n    */\n    /* function _reject(uint256 id) internal {\n        require(rules[id].state == RuleState.Pending || rules[id].state == RuleState.Approved);\n        rules[id].state = RuleState.Rejected;\n    } */\n\n    /**\n     * @dev Update minVotedTokensPerc value after tap poll.\n     * Set new value == 50% from current voted tokens amount\n     */\n    function updateMinVotedTokens(uint256 _minVotedTokensPerc) internal {\n        uint256 newPerc = _minVotedTokensPerc.div(2);\n        if(newPerc > MAX_VOTED_TOKEN_PERC) {\n            minVotedTokensPerc = MAX_VOTED_TOKEN_PERC;\n            return;\n        }\n        minVotedTokensPerc = newPerc;\n    }\n\n    /**\n    * @dev Called when poll is finished\n    * @param id Referenced reward rule\n    * @param agree Bool for checking the result of the poll.\n    * @param proposedAmount The proposed reward size.\n    */\n    function onRulePollFinish(uint256 id, bool agree, uint256 proposedAmount) internal {\n        require(msg.sender == address(rulePoll) && rulePoll.finalized());\n\n        if(agree) {\n            _approve(id, proposedAmount);\n        }\n        /* else {\n            _reject(id);\n        } */\n\n        updateMinVotedTokens(rulePoll.getVotedTokensPerc());\n        emit RulePollFinished(id, agree);\n\n        delete rulePoll;\n    }\n\n    /**\n    * @dev Counts the amount of rules.\n    */\n    function countRules() public view returns (uint256) {\n        return rules.length;\n    }\n\n}\n",
  "sourcePath": "/Users/peterpolman/Sites/thx_client/contracts/rule/Rules.sol",
  "compiler": {
    "name": "solc",
    "version": "0.5.0+commit.1d4f565a.Emscripten.clang"
  },
  "schemaVersion": "3.0.1",
  "updatedAt": "2019-08-07T07:08:12.820Z",
  "devdoc": {
    "methods": {
      "countRules()": {
        "details": "Counts the amount of rules."
      },
      "createRule(string,uint256)": {
        "details": "Creates the initial reward rule.",
        "params": {
          "amount": "Reward size suggested for the beneficiary.",
          "slug": "Short readable description of rule."
        }
      },
      "revokeVoteForRule()": {
        "details": "Vote for the suggested rule."
      },
      "startRulePoll(uint256,uint256)": {
        "details": "Starts the rule poll for chaning the amount."
      },
      "voteForRule(bool)": {
        "details": "Vote for the suggested rule.",
        "params": {
          "agree": "Approve or reject rule."
        }
      }
    }
  },
  "userdoc": {
    "methods": {}
  }
}