{
  "contractName": "Rules",
  "abi": [
    {
      "constant": true,
      "inputs": [
        {
          "name": "",
          "type": "uint256"
        }
      ],
      "name": "rules",
      "outputs": [
        {
          "name": "id",
          "type": "uint256"
        },
        {
          "name": "slug",
          "type": "string"
        },
        {
          "name": "amount",
          "type": "uint256"
        },
        {
          "name": "state",
          "type": "uint8"
        },
        {
          "name": "poll",
          "type": "address"
        },
        {
          "name": "creator",
          "type": "address"
        },
        {
          "name": "created",
          "type": "uint256"
        }
      ],
      "payable": false,
      "stateMutability": "view",
      "type": "function"
    },
    {
      "constant": false,
      "inputs": [
        {
          "name": "account",
          "type": "address"
        }
      ],
      "name": "addManager",
      "outputs": [],
      "payable": false,
      "stateMutability": "nonpayable",
      "type": "function"
    },
    {
      "constant": true,
      "inputs": [],
      "name": "RULE_POLL_DURATION",
      "outputs": [
        {
          "name": "",
          "type": "uint256"
        }
      ],
      "payable": false,
      "stateMutability": "view",
      "type": "function"
    },
    {
      "constant": true,
      "inputs": [],
      "name": "minVotedTokensPerc",
      "outputs": [
        {
          "name": "",
          "type": "uint256"
        }
      ],
      "payable": false,
      "stateMutability": "view",
      "type": "function"
    },
    {
      "constant": true,
      "inputs": [],
      "name": "MAX_VOTED_TOKEN_PERC",
      "outputs": [
        {
          "name": "",
          "type": "uint256"
        }
      ],
      "payable": false,
      "stateMutability": "view",
      "type": "function"
    },
    {
      "constant": true,
      "inputs": [
        {
          "name": "account",
          "type": "address"
        }
      ],
      "name": "isMember",
      "outputs": [
        {
          "name": "",
          "type": "bool"
        }
      ],
      "payable": false,
      "stateMutability": "view",
      "type": "function"
    },
    {
      "constant": false,
      "inputs": [],
      "name": "renounceMember",
      "outputs": [],
      "payable": false,
      "stateMutability": "nonpayable",
      "type": "function"
    },
    {
      "constant": false,
      "inputs": [
        {
          "name": "account",
          "type": "address"
        }
      ],
      "name": "addMember",
      "outputs": [],
      "payable": false,
      "stateMutability": "nonpayable",
      "type": "function"
    },
    {
      "constant": true,
      "inputs": [
        {
          "name": "account",
          "type": "address"
        }
      ],
      "name": "isManager",
      "outputs": [
        {
          "name": "",
          "type": "bool"
        }
      ],
      "payable": false,
      "stateMutability": "view",
      "type": "function"
    },
    {
      "constant": false,
      "inputs": [],
      "name": "renounceManager",
      "outputs": [],
      "payable": false,
      "stateMutability": "nonpayable",
      "type": "function"
    },
    {
      "constant": true,
      "inputs": [],
      "name": "token",
      "outputs": [
        {
          "name": "",
          "type": "address"
        }
      ],
      "payable": false,
      "stateMutability": "view",
      "type": "function"
    },
    {
      "inputs": [
        {
          "name": "_tokenAddress",
          "type": "address"
        }
      ],
      "payable": false,
      "stateMutability": "nonpayable",
      "type": "constructor"
    },
    {
      "anonymous": false,
      "inputs": [
        {
          "indexed": false,
          "name": "id",
          "type": "uint256"
        },
        {
          "indexed": false,
          "name": "proposedAmount",
          "type": "uint256"
        }
      ],
      "name": "RulePollCreated",
      "type": "event"
    },
    {
      "anonymous": false,
      "inputs": [
        {
          "indexed": false,
          "name": "id",
          "type": "uint256"
        },
        {
          "indexed": false,
          "name": "approved",
          "type": "bool"
        }
      ],
      "name": "RulePollFinished",
      "type": "event"
    },
    {
      "anonymous": false,
      "inputs": [
        {
          "indexed": false,
          "name": "id",
          "type": "uint256"
        },
        {
          "indexed": false,
          "name": "state",
          "type": "uint8"
        }
      ],
      "name": "RuleStateChanged",
      "type": "event"
    },
    {
      "anonymous": false,
      "inputs": [
        {
          "indexed": true,
          "name": "account",
          "type": "address"
        }
      ],
      "name": "MemberAdded",
      "type": "event"
    },
    {
      "anonymous": false,
      "inputs": [
        {
          "indexed": true,
          "name": "account",
          "type": "address"
        }
      ],
      "name": "MemberRemoved",
      "type": "event"
    },
    {
      "anonymous": false,
      "inputs": [
        {
          "indexed": true,
          "name": "account",
          "type": "address"
        }
      ],
      "name": "ManagerAdded",
      "type": "event"
    },
    {
      "anonymous": false,
      "inputs": [
        {
          "indexed": true,
          "name": "account",
          "type": "address"
        }
      ],
      "name": "ManagerRemoved",
      "type": "event"
    },
    {
      "constant": false,
      "inputs": [
        {
          "name": "slug",
          "type": "string"
        }
      ],
      "name": "createRule",
      "outputs": [],
      "payable": false,
      "stateMutability": "nonpayable",
      "type": "function"
    },
    {
      "constant": false,
      "inputs": [
        {
          "name": "id",
          "type": "uint256"
        },
        {
          "name": "agree",
          "type": "bool"
        }
      ],
      "name": "voteForRule",
      "outputs": [],
      "payable": false,
      "stateMutability": "nonpayable",
      "type": "function"
    },
    {
      "constant": false,
      "inputs": [
        {
          "name": "id",
          "type": "uint256"
        }
      ],
      "name": "revokeVoteForRule",
      "outputs": [],
      "payable": false,
      "stateMutability": "nonpayable",
      "type": "function"
    },
    {
      "constant": false,
      "inputs": [
        {
          "name": "id",
          "type": "uint256"
        },
        {
          "name": "proposedAmount",
          "type": "uint256"
        }
      ],
      "name": "startRulePoll",
      "outputs": [],
      "payable": false,
      "stateMutability": "nonpayable",
      "type": "function"
    },
    {
      "constant": false,
      "inputs": [
        {
          "name": "id",
          "type": "uint256"
        },
        {
          "name": "agree",
          "type": "bool"
        },
        {
          "name": "proposedAmount",
          "type": "uint256"
        }
      ],
      "name": "onRulePollFinish",
      "outputs": [],
      "payable": false,
      "stateMutability": "nonpayable",
      "type": "function"
    },
    {
      "constant": true,
      "inputs": [],
      "name": "countRules",
      "outputs": [
        {
          "name": "",
          "type": "uint256"
        }
      ],
      "payable": false,
      "stateMutability": "view",
      "type": "function"
    }
  ],
  "bytecode": "0x608060405260006003553480156200001657600080fd5b5060405160208062001f78833981018060405260208110156200003857600080fd5b50516200004e3364010000000062000088810204565b6200006233640100000000620000da810204565b60028054600160a060020a031916600160a060020a0392909216919091179055620001bf565b620000a3600082640100000000620011556200012c82021704565b604051600160a060020a038216907f3b4a40cccf2058c593542587329dd385be4f0b588db5471fbd9598e56dd7093a90600090a250565b620000f5600182640100000000620011556200012c82021704565b604051600160a060020a038216907fb251eb052afc73ffd02ffe85ad79990a8b3fed60d76dbc2fa2fdd7123dffd91490600090a250565b600160a060020a03811615156200014257600080fd5b62000157828264010000000062000187810204565b156200016257600080fd5b600160a060020a0316600090815260209190915260409020805460ff19166001179055565b6000600160a060020a03821615156200019f57600080fd5b50600160a060020a03166000908152602091909152604090205460ff1690565b611da980620001cf6000396000f3fe6080604052600436106100d75763ffffffff60e060020a60003504166304d6ded481146100dc57806321a21929146101da5780632d06177a1461028f57806331c54032146102c2578063439c6f17146102e9578063563b373d146102fe578063607ca15b1461032e5780638421920414610366578063962c9c8d1461037b578063a230c52414610390578063b8771a34146103d7578063bad5ba0114610401578063ca6d56dc14610416578063e213cf0f14610449578063f3ae24151461047b578063f8b91abe146104ae578063fc0c546a146104c3575b600080fd5b3480156100e857600080fd5b50610106600480360360208110156100ff57600080fd5b50356104f4565b604051808881526020018060200187815260200186600181111561012657fe5b60ff16815260200185600160a060020a0316600160a060020a0316815260200184600160a060020a0316600160a060020a03168152602001838152602001828103825288818151815260200191508051906020019080838360005b83811015610199578181015183820152602001610181565b50505050905090810190601f1680156101c65780820380516001836020036101000a031916815260200191505b509850505050505050505060405180910390f35b3480156101e657600080fd5b5061028d600480360360208110156101fd57600080fd5b81019060208101813564010000000081111561021857600080fd5b82018360208201111561022a57600080fd5b8035906020019184600183028401116401000000008311171561024c57600080fd5b91908080601f0160208091040260200160405190810160405280939291908181526020018383808284376000920191909152509295506105ee945050505050565b005b34801561029b57600080fd5b5061028d600480360360208110156102b257600080fd5b5035600160a060020a0316610784565b3480156102ce57600080fd5b506102d76107a4565b60408051918252519081900360200190f35b3480156102f557600080fd5b506102d76107ab565b34801561030a57600080fd5b5061028d6004803603604081101561032157600080fd5b50803590602001356107b0565b34801561033a57600080fd5b5061028d6004803603606081101561035157600080fd5b508035906020810135151590604001356109df565b34801561037257600080fd5b506102d7610bef565b34801561038757600080fd5b506102d7610bf5565b34801561039c57600080fd5b506103c3600480360360208110156103b357600080fd5b5035600160a060020a0316610bfa565b604080519115158252519081900360200190f35b3480156103e357600080fd5b5061028d600480360360208110156103fa57600080fd5b5035610c13565b34801561040d57600080fd5b5061028d610d03565b34801561042257600080fd5b5061028d6004803603602081101561043957600080fd5b5035600160a060020a0316610d0e565b34801561045557600080fd5b5061028d6004803603604081101561046c57600080fd5b50803590602001351515610d2b565b34801561048757600080fd5b506103c36004803603602081101561049e57600080fd5b5035600160a060020a0316610e24565b3480156104ba57600080fd5b5061028d610e36565b3480156104cf57600080fd5b506104d8610e3f565b60408051600160a060020a039092168252519081900360200190f35b600480548290811061050257fe5b9060005260206000209060060201600091509050806000015490806001018054600181600116156101000203166002900480601f0160208091040260200160405190810160405280929190818152602001828054600181600116156101000203166002900480156105b45780601f10610589576101008083540402835291602001916105b4565b820191906000526020600020905b81548152906001019060200180831161059757829003601f168201915b5050506002840154600385015460048601546005909601549495919460ff82169450600160a060020a036101009092048216935091169087565b6105f733610e24565b151561060257600080fd5b61060a611213565b600454808252602080830184905260006040808501919091526001606085018190523360a08601524260c086015281519384529183019190915280517f2da08c9afbca94a7781f242bd0193bf9a13ebd681b7fead14822408e3fbe78e99281900390910190a16004805460018101808355600092909252825160069091027f8a35acfbc15ff81a39ae7d344fd709f28e8600b4aa8c65c6b64bfe7fe36bd19b810191825560208085015180518694936106e9937f8a35acfbc15ff81a39ae7d344fd709f28e8600b4aa8c65c6b64bfe7fe36bd19c90910192019061125c565b5060408201516002820155606082015160038201805460ff19166001838181111561071057fe5b0217905550608082015160038201805474ffffffffffffffffffffffffffffffffffffffff001916610100600160a060020a039384160217905560a083015160048301805473ffffffffffffffffffffffffffffffffffffffff19169190921617905560c090910151600590910155505050565b61078d33610e24565b151561079857600080fd5b6107a181610e4e565b50565b6004545b90565b603c81565b6107b933610bfa565b15156107c457600080fd5b6004805460009190849081106107d657fe5b60009182526020909120600690910201600301546101009004600160a060020a0316148061089a5750600480548390811061080d57fe5b906000526020600020906006020160030160019054906101000a9004600160a060020a0316600160a060020a031663b3f05b976040518163ffffffff1660e060020a02815260040160206040518083038186803b15801561086d57600080fd5b505afa158015610881573d6000803e3d6000fd5b505050506040513d602081101561089757600080fd5b50515b15156108a557600080fd5b60048054839081106108b357fe5b90600052602060002090600602016002015481141515156108d357600080fd5b6002546003544291603c83019185918591600160a060020a039091169085908590306108fd6112da565b9687526020870195909552600160a060020a039384166040808801919091526060870193909352608086019190915260a0850152911660c0830152519081900360e001906000f080158015610956573d6000803e3d6000fd5b50600480548690811061096557fe5b906000526020600020906006020160030160016101000a815481600160a060020a030219169083600160a060020a031602179055507f9bd49e167f8ad588627e6f5b6a02b84c5a6ee245ce327afa99ade561bcbc284d8484604051808381526020018281526020019250505060405180910390a150505050565b60048054849081106109ed57fe5b60009182526020909120600690910201600301546101009004600160a060020a031633148015610ab357506004805484908110610a2657fe5b906000526020600020906006020160030160019054906101000a9004600160a060020a0316600160a060020a031663b3f05b976040518163ffffffff1660e060020a02815260040160206040518083038186803b158015610a8657600080fd5b505afa158015610a9a573d6000803e3d6000fd5b505050506040513d6020811015610ab057600080fd5b50515b1515610abe57600080fd5b8115610ace57610ace8382610e96565b610b71600484815481101515610ae057fe5b906000526020600020906006020160030160019054906101000a9004600160a060020a0316600160a060020a0316632c24909c6040518163ffffffff1660e060020a02815260040160206040518083038186803b158015610b4057600080fd5b505afa158015610b54573d6000803e3d6000fd5b505050506040513d6020811015610b6a57600080fd5b5051611017565b60408051848152831515602082015281517f118384964387422ef394126dcae83b6fc97ee2a5c14d8729ebc59cc3d1ce3f44929181900390910190a16004805484908110610bbb57fe5b60009182526020909120600360069092020101805474ffffffffffffffffffffffffffffffffffffffff0019169055505050565b60035481565b600a81565b6000610c0d60018363ffffffff61104616565b92915050565b610c1c33610bfa565b1515610c2757600080fd5b600480546000919083908110610c3957fe5b60009182526020909120600690910201600301546101009004600160a060020a03161415610c6657600080fd5b6004805482908110610c7457fe5b6000918252602082206006919091020160030154604080517f0519bac30000000000000000000000000000000000000000000000000000000081523360048201529051610100909204600160a060020a031692630519bac39260248084019382900301818387803b158015610ce857600080fd5b505af1158015610cfc573d6000803e3d6000fd5b5050505050565b610d0c3361107d565b565b610d1733610bfa565b1515610d2257600080fd5b6107a1816110c5565b610d3433610bfa565b1515610d3f57600080fd5b600480546000919084908110610d5157fe5b60009182526020909120600690910201600301546101009004600160a060020a03161415610d7e57600080fd5b6004805483908110610d8c57fe5b6000918252602082206006919091020160030154604080517fbd041c4d00000000000000000000000000000000000000000000000000000000815233600482015284151560248201529051610100909204600160a060020a03169263bd041c4d9260448084019382900301818387803b158015610e0857600080fd5b505af1158015610e1c573d6000803e3d6000fd5b505050505050565b6000610c0d818363ffffffff61104616565b610d0c3361110d565b600254600160a060020a031681565b610e5f60008263ffffffff61115516565b604051600160a060020a038216907f3b4a40cccf2058c593542587329dd385be4f0b588db5471fbd9598e56dd7093a90600090a250565b801515610eda576001600483815481101515610eae57fe5b60009182526020909120600360069092020101805460ff191660018381811115610ed457fe5b02179055505b8015801590610f18575060016004805484908110610ef457fe5b600091825260209091206003600690920201015460ff166001811115610f1657fe5b145b15610f5a576000600483815481101515610f2e57fe5b60009182526020909120600360069092020101805460ff191660018381811115610f5457fe5b02179055505b80600483815481101515610f6a57fe5b9060005260206000209060060201600201819055507f2da08c9afbca94a7781f242bd0193bf9a13ebd681b7fead14822408e3fbe78e9600483815481101515610faf57fe5b906000526020600020906006020160000154600484815481101515610fd057fe5b60009182526020918290206003600690920201015460405183815260ff909116918101826001811115610fff57fe5b60ff1681526020019250505060405180910390a15050565b600061102a82600263ffffffff6111a316565b9050600a8111156110405750600a6003556107a1565b60035550565b6000600160a060020a038216151561105d57600080fd5b50600160a060020a03166000908152602091909152604090205460ff1690565b61108e60018263ffffffff6111c716565b604051600160a060020a038216907f6e76fb4c77256006d9c38ec7d82b45a8c8f3c27b1d6766fffc42dfb8de68449290600090a250565b6110d660018263ffffffff61115516565b604051600160a060020a038216907fb251eb052afc73ffd02ffe85ad79990a8b3fed60d76dbc2fa2fdd7123dffd91490600090a250565b61111e60008263ffffffff6111c716565b604051600160a060020a038216907fef69f7d97228658c92417be1b16b19058315de71fecb435d07b7d23728b6bd3190600090a250565b600160a060020a038116151561116a57600080fd5b6111748282611046565b1561117e57600080fd5b600160a060020a0316600090815260209190915260409020805460ff19166001179055565b60008082116111b157600080fd5b600082848115156111be57fe5b04949350505050565b600160a060020a03811615156111dc57600080fd5b6111e68282611046565b15156111f157600080fd5b600160a060020a0316600090815260209190915260409020805460ff19169055565b60e0604051908101604052806000815260200160608152602001600081526020016000600181111561124157fe5b81526000602082018190526040820181905260609091015290565b828054600181600116156101000203166002900490600052602060002090601f016020900481019282601f1061129d57805160ff19168380011785556112ca565b828001600101855582156112ca579182015b828111156112ca5782518255916020019190600101906112af565b506112d69291506112ea565b5090565b604051610a798061130583390190565b6107a891905b808211156112d657600081556001016112f056fe60806040526000600555600060065560006007556000600a5534801561002457600080fd5b5060405160e080610a79833981018060405260e081101561004457600080fd5b508051602082015160408301516060840151608085015160a086015160c0909601519495939492939192909190848185856000600160a060020a038516151561008c57600080fd5b42831015801561009b57508282115b15156100a657600080fd5b60008054600160a060020a0319908116600160a060020a03978816178255600180548216968816969096179095556002939093556003919091556008805460ff1990811690915560048054909116911515919091179055600b99909955600a93909355600c96909655600d805490921695169490941790935550610947928392506101329150396000f3fe6080604052600436106100fb5763ffffffff7c01000000000000000000000000000000000000000000000000000000006000350416630519bac3811461010057806316f0115b146101355780632c24909c146101665780633197cbb61461018d57806336181026146101a257806341fdade6146101cb5780634e9e8e73146101e057806364a90292146101f55780636f6a97621461020a57806378e979251461021f57806380322cbd14610234578063a7491b4814610249578063af640d0f1461029c578063b3a2273f146102b1578063b3f05b97146102c6578063bd041c4d146102db578063d74689e414610316578063fc0c546a1461032b575b600080fd5b34801561010c57600080fd5b506101336004803603602081101561012357600080fd5b5035600160a060020a0316610340565b005b34801561014157600080fd5b5061014a61040f565b60408051600160a060020a039092168252519081900360200190f35b34801561017257600080fd5b5061017b61041e565b60408051918252519081900360200190f35b34801561019957600080fd5b5061017b6104f6565b3480156101ae57600080fd5b506101b76104fc565b604080519115158252519081900360200190f35b3480156101d757600080fd5b5061017b610544565b3480156101ec57600080fd5b5061017b61054a565b34801561020157600080fd5b5061017b610550565b34801561021657600080fd5b5061017b610556565b34801561022b57600080fd5b5061017b61055c565b34801561024057600080fd5b506101b7610562565b34801561025557600080fd5b5061027c6004803603602081101561026c57600080fd5b5035600160a060020a0316610571565b604080519384526020840192909252151582820152519081900360600190f35b3480156102a857600080fd5b5061017b610595565b3480156102bd57600080fd5b5061017b61059b565b3480156102d257600080fd5b506101b76105a1565b3480156102e757600080fd5b50610133600480360360408110156102fe57600080fd5b50600160a060020a03813516906020013515156105aa565b34801561032257600080fd5b5061017b6107cb565b34801561033757600080fd5b5061014a6107d1565b600254421015801561035457506003544211155b151561035f57600080fd5b600160a060020a0381166000908152600960205260408120541161038257600080fd5b600160a060020a038116600090815260096020526040812060018082018054600284018054948690559490915560ff19831690935560075460ff909216916103cf9163ffffffff6107e016565b60075580156103f3576005546103eb908363ffffffff6107e016565b60055561040a565b600654610406908363ffffffff6107e016565b6006555b505050565b600d54600160a060020a031681565b6000806104386006546005546107fa90919063ffffffff16565b90506104ef6000809054906101000a9004600160a060020a0316600160a060020a03166318160ddd6040518163ffffffff167c010000000000000000000000000000000000000000000000000000000002815260040160206040518083038186803b1580156104a657600080fd5b505afa1580156104ba573d6000803e3d6000fd5b505050506040513d60208110156104d057600080fd5b50516104e383606463ffffffff61081316565b9063ffffffff61083e16565b9150505b90565b60035481565b60085460009060ff161561050f57600080fd5b600354421015610521575060006104f3565b6008805460ff1916600117905561053e610539610862565b610884565b50600190565b6103e881565b600c5481565b60065481565b600a5481565b60025481565b600061056c610862565b905090565b60096020526000908152604090208054600182015460029092015490919060ff1683565b600b5481565b60075481565b60085460ff1681565b60025442101580156105be57506003544211155b15156105c957600080fd5b600160a060020a03821615156105de57600080fd5b600160a060020a0382166000908152600960205260409020541561060157600080fd5b60008054604080517f70a08231000000000000000000000000000000000000000000000000000000008152600160a060020a038681166004830152915191909216916370a08231916024808301926020929190829003018186803b15801561066857600080fd5b505afa15801561067c573d6000803e3d6000fd5b505050506040513d602081101561069257600080fd5b505160008054604080517f18160ddd00000000000000000000000000000000000000000000000000000000815290519394509192610736926103e892600160a060020a0316916318160ddd91600480820192602092909190829003018186803b1580156106fe57600080fd5b505afa158015610712573d6000803e3d6000fd5b505050506040513d602081101561072857600080fd5b50519063ffffffff61083e16565b9050808211156107465780610748565b815b9150821561076b57600554610763908363ffffffff6107fa16565b600555610782565b60065461077e908363ffffffff6107fa16565b6006555b600160a060020a038416600090815260096020526040902042815560018082018490556002909101805460ff19168515151790556007546107c2916107fa565b60075550505050565b60055481565b600054600160a060020a031681565b6000828211156107ef57600080fd5b508082035b92915050565b60008282018381101561080c57600080fd5b9392505050565b6000821515610824575060006107f4565b82820282848281151561083357fe5b041461080c57600080fd5b600080821161084c57600080fd5b6000828481151561085957fe5b04949350505050565b600060065460055411801561056c5750600a5461087d61041e565b1015905090565b600d54600b54600c54604080517f607ca15b00000000000000000000000000000000000000000000000000000000815260048101939093528415156024840152604483019190915251600160a060020a039092169163607ca15b9160648082019260009290919082900301818387803b15801561090057600080fd5b505af1158015610914573d6000803e3d6000fd5b505050505056fea165627a7a72305820204ed578968633adb051122328a6916c4f3a3312cf553a87118fcb62a20eb1cf0029a165627a7a72305820a46f775b3d0f136b9fda5be31b838a75eb181daa9f3a7162debcba6ea79d13190029",
  "source": "pragma solidity ^0.5.0;\n\nimport '../access/roles/MemberRole.sol';\nimport '../access/roles/ManagerRole.sol';\nimport '../math/SafeMath.sol';\nimport '../token/ERC20/IERC20.sol';\nimport '../poll/polls/RulePoll.sol';\n\ncontract Rules is ManagerRole, MemberRole {\n    using SafeMath for uint256;\n\n    struct Rule {\n        uint256 id;\n        string slug;\n        uint256 amount;\n        RuleState state;\n        RulePoll poll;\n        address creator;\n        uint256 created;\n    }\n\n    enum RuleState { Active, Disabled }\n\n    event RulePollCreated(uint256 id, uint256 proposedAmount);\n    event RulePollFinished(uint256 id, bool approved);\n    event RuleStateChanged(uint256 id, RuleState state);\n\n    uint256 public constant RULE_POLL_DURATION = 1 minutes;\n    uint256 public constant MAX_VOTED_TOKEN_PERC = 10;\n\n    IERC20 public token;\n    uint256 public minVotedTokensPerc = 0;\n\n    Rule[] public rules;\n\n    constructor(address _tokenAddress) public {\n        token = IERC20(_tokenAddress);\n    }\n\n    /**\n    * @dev Creates the initial reward rule.\n    * @param slug Short readable description of rule.\n    */\n    function createRule(string memory slug) public onlyManager {\n        Rule memory rule;\n\n        rule.id = rules.length;\n        rule.slug = slug;\n        rule.amount = 0;\n        rule.state = RuleState.Disabled;\n        rule.creator = msg.sender;\n        rule.created = now;\n\n        emit RuleStateChanged(rule.id, rule.state);\n        rules.push(rule);\n    }\n\n    /**\n    * @dev Vote for the suggested rule.\n    * @param id reference to the rule that the poll runs for\n    * @param agree Approve or reject rule.\n    */\n    function voteForRule(uint256 id, bool agree) public onlyMember {\n        require(address(rules[id].poll) != address(0));\n\n        rules[id].poll.vote(msg.sender, agree);\n    }\n\n    /**\n    * @dev Vote for the suggested rule.\n    * @param id reference to the rule that the poll runs for\n    */\n    function revokeVoteForRule(uint256 id) public onlyMember {\n        require(address(rules[id].poll) != address(0));\n\n        rules[id].poll.revokeVote(msg.sender);\n    }\n\n    /**\n    * @dev Starts the rule poll for chaning the amount.\n    * @param id The id of the rule.\n    * @param id The new amount for the rule.\n    */\n    function startRulePoll(uint256 id, uint256 proposedAmount) public onlyMember {\n        require(address(rules[id].poll) == address(0) || rules[id].poll.finalized());\n        require(proposedAmount != rules[id].amount);\n\n        uint256 startTime = now;\n        uint256 endTime = startTime + RULE_POLL_DURATION;\n\n        rules[id].poll = new RulePoll(id, proposedAmount, address(token), startTime, endTime, minVotedTokensPerc, address(this));\n\n        emit RulePollCreated(id, proposedAmount);\n    }\n\n    /**\n    * @dev Approves the suggested rule and sets its state to Active.\n    * @param id The id of the rule.\n    * @param id The new amount for the rule.\n    */\n    function _approve(uint256 id, uint256 proposedAmount) internal {\n        if (proposedAmount == 0) {\n            rules[id].state = RuleState.Disabled;\n        }\n\n        if (proposedAmount != 0 && rules[id].state == RuleState.Disabled) {\n            rules[id].state = RuleState.Active;\n        }\n\n        rules[id].amount = proposedAmount;\n\n        emit RuleStateChanged(rules[id].id, rules[id].state);\n    }\n\n    /**\n    * @dev Rejects the rule and sets the state to Disabled.\n    * @param id The id of the rule.\n    */\n    /* function _reject(uint256 id) internal {\n        require(rules[id].state == RuleState.Pending || rules[id].state == RuleState.Active);\n        rules[id].state = RuleState.Disabled;\n    } */\n\n    /**\n     * @dev Update minVotedTokensPerc value after tap poll.\n     * Set new value == 50% from current voted tokens amount\n     */\n    function updateMinVotedTokens(uint256 _minVotedTokensPerc) internal {\n        uint256 newPerc = _minVotedTokensPerc.div(2);\n        if(newPerc > MAX_VOTED_TOKEN_PERC) {\n            minVotedTokensPerc = MAX_VOTED_TOKEN_PERC;\n            return;\n        }\n        minVotedTokensPerc = newPerc;\n    }\n\n    /**\n    * @dev Called when poll is finished\n    * @param id Referenced reward rule\n    * @param agree Bool for checking the result of the poll.\n    * @param proposedAmount The proposed reward size.\n    */\n    function onRulePollFinish(uint256 id, bool agree, uint256 proposedAmount) external {\n        require(msg.sender == address(rules[id].poll) && rules[id].poll.finalized());\n\n        if(agree) {\n            _approve(id, proposedAmount);\n        }\n\n        updateMinVotedTokens(rules[id].poll.getVotedTokensPerc());\n        emit RulePollFinished(id, agree);\n\n        delete rules[id].poll;\n    }\n\n    /**\n    * @dev Counts the amount of rules.\n    */\n    function countRules() public view returns (uint256) {\n        return rules.length;\n    }\n\n}\n",
  "sourcePath": "/Users/peterpolman/Sites/thx/thx-wallet/contracts/rule/Rules.sol",
  "compiler": {
    "name": "solc",
    "version": "0.5.0+commit.1d4f565a.Emscripten.clang"
  },
  "schemaVersion": "3.0.1",
  "updatedAt": "2020-01-06T13:05:10.060Z",
  "devdoc": {
    "methods": {
      "countRules()": {
        "details": "Counts the amount of rules."
      },
      "createRule(string)": {
        "details": "Creates the initial reward rule.",
        "params": {
          "slug": "Short readable description of rule."
        }
      },
      "onRulePollFinish(uint256,bool,uint256)": {
        "details": "Called when poll is finished",
        "params": {
          "agree": "Bool for checking the result of the poll.",
          "id": "Referenced reward rule",
          "proposedAmount": "The proposed reward size."
        }
      },
      "revokeVoteForRule(uint256)": {
        "details": "Vote for the suggested rule.",
        "params": {
          "id": "reference to the rule that the poll runs for"
        }
      },
      "startRulePoll(uint256,uint256)": {
        "details": "Starts the rule poll for chaning the amount.",
        "params": {
          "id": "The new amount for the rule."
        }
      },
      "voteForRule(uint256,bool)": {
        "details": "Vote for the suggested rule.",
        "params": {
          "agree": "Approve or reject rule.",
          "id": "reference to the rule that the poll runs for"
        }
      }
    }
  },
  "userdoc": {
    "methods": {}
  }
}