{
    "contractName": "Rules",
    "abi": [
        {
            "constant": true,
            "inputs": [
                {
                    "name": "",
                    "type": "uint256"
                }
            ],
            "name": "rules",
            "outputs": [
                {
                    "name": "id",
                    "type": "uint256"
                },
                {
                    "name": "amount",
                    "type": "uint256"
                },
                {
                    "name": "state",
                    "type": "uint8"
                },
                {
                    "name": "poll",
                    "type": "address"
                },
                {
                    "name": "creator",
                    "type": "address"
                },
                {
                    "name": "created",
                    "type": "uint256"
                }
            ],
            "payable": false,
            "stateMutability": "view",
            "type": "function"
        },
        {
            "constant": false,
            "inputs": [
                {
                    "name": "account",
                    "type": "address"
                }
            ],
            "name": "addManager",
            "outputs": [],
            "payable": false,
            "stateMutability": "nonpayable",
            "type": "function"
        },
        {
            "constant": true,
            "inputs": [
                {
                    "name": "",
                    "type": "uint256"
                }
            ],
            "name": "managers",
            "outputs": [
                {
                    "name": "",
                    "type": "address"
                }
            ],
            "payable": false,
            "stateMutability": "view",
            "type": "function"
        },
        {
            "constant": true,
            "inputs": [],
            "name": "RULE_POLL_DURATION",
            "outputs": [
                {
                    "name": "",
                    "type": "uint256"
                }
            ],
            "payable": false,
            "stateMutability": "view",
            "type": "function"
        },
        {
            "constant": true,
            "inputs": [
                {
                    "name": "",
                    "type": "uint256"
                }
            ],
            "name": "members",
            "outputs": [
                {
                    "name": "",
                    "type": "address"
                }
            ],
            "payable": false,
            "stateMutability": "view",
            "type": "function"
        },
        {
            "constant": true,
            "inputs": [],
            "name": "minVotedTokensPerc",
            "outputs": [
                {
                    "name": "",
                    "type": "uint256"
                }
            ],
            "payable": false,
            "stateMutability": "view",
            "type": "function"
        },
        {
            "constant": true,
            "inputs": [],
            "name": "MAX_VOTED_TOKEN_PERC",
            "outputs": [
                {
                    "name": "",
                    "type": "uint256"
                }
            ],
            "payable": false,
            "stateMutability": "view",
            "type": "function"
        },
        {
            "constant": true,
            "inputs": [
                {
                    "name": "account",
                    "type": "address"
                }
            ],
            "name": "isMember",
            "outputs": [
                {
                    "name": "",
                    "type": "bool"
                }
            ],
            "payable": false,
            "stateMutability": "view",
            "type": "function"
        },
        {
            "constant": false,
            "inputs": [],
            "name": "renounceMember",
            "outputs": [],
            "payable": false,
            "stateMutability": "nonpayable",
            "type": "function"
        },
        {
            "constant": false,
            "inputs": [
                {
                    "name": "account",
                    "type": "address"
                }
            ],
            "name": "addMember",
            "outputs": [],
            "payable": false,
            "stateMutability": "nonpayable",
            "type": "function"
        },
        {
            "constant": true,
            "inputs": [
                {
                    "name": "account",
                    "type": "address"
                }
            ],
            "name": "isManager",
            "outputs": [
                {
                    "name": "",
                    "type": "bool"
                }
            ],
            "payable": false,
            "stateMutability": "view",
            "type": "function"
        },
        {
            "constant": false,
            "inputs": [],
            "name": "renounceManager",
            "outputs": [],
            "payable": false,
            "stateMutability": "nonpayable",
            "type": "function"
        },
        {
            "constant": true,
            "inputs": [],
            "name": "token",
            "outputs": [
                {
                    "name": "",
                    "type": "address"
                }
            ],
            "payable": false,
            "stateMutability": "view",
            "type": "function"
        },
        {
            "inputs": [
                {
                    "name": "_tokenAddress",
                    "type": "address"
                }
            ],
            "payable": false,
            "stateMutability": "nonpayable",
            "type": "constructor"
        },
        {
            "anonymous": false,
            "inputs": [
                {
                    "indexed": false,
                    "name": "id",
                    "type": "uint256"
                },
                {
                    "indexed": false,
                    "name": "proposedAmount",
                    "type": "uint256"
                },
                {
                    "indexed": false,
                    "name": "sender",
                    "type": "address"
                }
            ],
            "name": "RulePollCreated",
            "type": "event"
        },
        {
            "anonymous": false,
            "inputs": [
                {
                    "indexed": false,
                    "name": "id",
                    "type": "uint256"
                },
                {
                    "indexed": false,
                    "name": "approved",
                    "type": "bool"
                },
                {
                    "indexed": false,
                    "name": "sender",
                    "type": "address"
                }
            ],
            "name": "RulePollFinished",
            "type": "event"
        },
        {
            "anonymous": false,
            "inputs": [
                {
                    "indexed": false,
                    "name": "id",
                    "type": "uint256"
                },
                {
                    "indexed": false,
                    "name": "state",
                    "type": "uint8"
                },
                {
                    "indexed": false,
                    "name": "sender",
                    "type": "address"
                }
            ],
            "name": "RuleStateChanged",
            "type": "event"
        },
        {
            "anonymous": false,
            "inputs": [
                {
                    "indexed": true,
                    "name": "account",
                    "type": "address"
                }
            ],
            "name": "MemberAdded",
            "type": "event"
        },
        {
            "anonymous": false,
            "inputs": [
                {
                    "indexed": true,
                    "name": "account",
                    "type": "address"
                }
            ],
            "name": "MemberRemoved",
            "type": "event"
        },
        {
            "anonymous": false,
            "inputs": [
                {
                    "indexed": true,
                    "name": "account",
                    "type": "address"
                }
            ],
            "name": "ManagerAdded",
            "type": "event"
        },
        {
            "anonymous": false,
            "inputs": [
                {
                    "indexed": true,
                    "name": "account",
                    "type": "address"
                }
            ],
            "name": "ManagerRemoved",
            "type": "event"
        },
        {
            "constant": false,
            "inputs": [],
            "name": "createRule",
            "outputs": [],
            "payable": false,
            "stateMutability": "nonpayable",
            "type": "function"
        },
        {
            "constant": false,
            "inputs": [
                {
                    "name": "id",
                    "type": "uint256"
                },
                {
                    "name": "agree",
                    "type": "bool"
                }
            ],
            "name": "voteForRule",
            "outputs": [],
            "payable": false,
            "stateMutability": "nonpayable",
            "type": "function"
        },
        {
            "constant": false,
            "inputs": [
                {
                    "name": "id",
                    "type": "uint256"
                }
            ],
            "name": "revokeVoteForRule",
            "outputs": [],
            "payable": false,
            "stateMutability": "nonpayable",
            "type": "function"
        },
        {
            "constant": false,
            "inputs": [
                {
                    "name": "id",
                    "type": "uint256"
                },
                {
                    "name": "proposedAmount",
                    "type": "uint256"
                }
            ],
            "name": "startRulePoll",
            "outputs": [],
            "payable": false,
            "stateMutability": "nonpayable",
            "type": "function"
        },
        {
            "constant": false,
            "inputs": [
                {
                    "name": "id",
                    "type": "uint256"
                },
                {
                    "name": "agree",
                    "type": "bool"
                },
                {
                    "name": "proposedAmount",
                    "type": "uint256"
                }
            ],
            "name": "onRulePollFinish",
            "outputs": [],
            "payable": false,
            "stateMutability": "nonpayable",
            "type": "function"
        },
        {
            "constant": true,
            "inputs": [],
            "name": "countRules",
            "outputs": [
                {
                    "name": "",
                    "type": "uint256"
                }
            ],
            "payable": false,
            "stateMutability": "view",
            "type": "function"
        }
    ],
    "bytecode": "0x608060405260006005553480156200001657600080fd5b5060405160208062001f11833981018060405260208110156200003857600080fd5b50516200004e3364010000000062000088810204565b62000062336401000000006200011a810204565b60048054600160a060020a031916600160a060020a039290921691909117905562000240565b620000a360008264010000000062001118620001ad82021704565b60018054808201825560009182527fb10e2d527612073b26eecdfd717e6a320cf44b4afac2b0732d9fcbe2b7fa0cf6018054600160a060020a031916600160a060020a03841690811790915560405190917f3b4a40cccf2058c593542587329dd385be4f0b588db5471fbd9598e56dd7093a91a250565b6200013560028264010000000062001118620001ad82021704565b6003805460018101825560009182527fc2575a0e9e593c00f959f8c92f12db2869c3395a3b0502d05e2516446f71f85b018054600160a060020a031916600160a060020a03841690811790915560405190917fb251eb052afc73ffd02ffe85ad79990a8b3fed60d76dbc2fa2fdd7123dffd91491a250565b600160a060020a0381161515620001c357600080fd5b620001d8828264010000000062000208810204565b15620001e357600080fd5b600160a060020a0316600090815260209190915260409020805460ff19166001179055565b6000600160a060020a03821615156200022057600080fd5b50600160a060020a03166000908152602091909152604090205460ff1690565b611cc180620002506000396000f3fe6080604052600436106100ed5763ffffffff60e060020a60003504166304d6ded481146100f25780632d06177a1461018757806331c54032146101bc5780633d39c260146101e3578063439c6f1714610229578063563b373d1461023e5780635daf08ca1461026e578063607ca15b1461029857806383e7eb87146102d057806384219204146102e5578063962c9c8d146102fa578063a230c5241461030f578063b8771a3414610356578063bad5ba0114610380578063ca6d56dc14610395578063e213cf0f146103c8578063f3ae2415146103fa578063f8b91abe1461042d578063fc0c546a14610442575b600080fd5b3480156100fe57600080fd5b5061011c6004803603602081101561011557600080fd5b5035610457565b6040518087815260200186815260200185600181111561013857fe5b60ff16815260200184600160a060020a0316600160a060020a0316815260200183600160a060020a0316600160a060020a03168152602001828152602001965050505050505060405180910390f35b34801561019357600080fd5b506101ba600480360360208110156101aa57600080fd5b5035600160a060020a03166104ae565b005b3480156101c857600080fd5b506101d16104ce565b60408051918252519081900360200190f35b3480156101ef57600080fd5b5061020d6004803603602081101561020657600080fd5b50356104d4565b60408051600160a060020a039092168252519081900360200190f35b34801561023557600080fd5b506101d16104fc565b34801561024a57600080fd5b506101ba6004803603604081101561026157600080fd5b5080359060200135610501565b34801561027a57600080fd5b5061020d6004803603602081101561029157600080fd5b5035610740565b3480156102a457600080fd5b506101ba600480360360608110156102bb57600080fd5b5080359060208101351515906040013561074e565b3480156102dc57600080fd5b506101ba610962565b3480156102f157600080fd5b506101d1610b00565b34801561030657600080fd5b506101d1610b06565b34801561031b57600080fd5b506103426004803603602081101561033257600080fd5b5035600160a060020a0316610b0b565b604080519115158252519081900360200190f35b34801561036257600080fd5b506101ba6004803603602081101561037957600080fd5b5035610b24565b34801561038c57600080fd5b506101ba610c14565b3480156103a157600080fd5b506101ba600480360360208110156103b857600080fd5b5035600160a060020a0316610c1f565b3480156103d457600080fd5b506101ba600480360360408110156103eb57600080fd5b50803590602001351515610c3c565b34801561040657600080fd5b506103426004803603602081101561041d57600080fd5b5035600160a060020a0316610d35565b34801561043957600080fd5b506101ba610d47565b34801561044e57600080fd5b5061020d610d50565b600680548290811061046557fe5b600091825260209091206005909102018054600182015460028301546003840154600490940154929450909260ff821692610100909204600160a060020a039081169291169086565b6104b733610d35565b15156104c257600080fd5b6104cb81610d5f565b50565b60065490565b60018054829081106104e257fe5b600091825260209091200154600160a060020a0316905081565b603c81565b61050a33610b0b565b151561051557600080fd5b60068054600091908490811061052757fe5b60009182526020909120600590910201600201546101009004600160a060020a031614806105eb5750600680548390811061055e57fe5b906000526020600020906005020160020160019054906101000a9004600160a060020a0316600160a060020a031663b3f05b976040518163ffffffff1660e060020a02815260040160206040518083038186803b1580156105be57600080fd5b505afa1580156105d2573d6000803e3d6000fd5b505050506040513d60208110156105e857600080fd5b50515b15156105f657600080fd5b600680548390811061060457fe5b906000526020600020906005020160010154811415151561062457600080fd5b6004546005544291603c83019185918591600160a060020a0390911690859085903061064e6111d6565b9687526020870195909552600160a060020a039384166040808801919091526060870193909352608086019190915260a0850152911660c0830152519081900360e001906000f0801580156106a7573d6000803e3d6000fd5b5060068054869081106106b657fe5b60009182526020918290206002600590920201018054600160a060020a03939093166101000274ffffffffffffffffffffffffffffffffffffffff001990931692909217909155604080518681529182018590523382820152517fdeea9f03d34191891f4d710d13235d67f125d54b82595f43bd61bb85eee1361e9181900360600190a150505050565b60038054829081106104e257fe5b600680548490811061075c57fe5b60009182526020909120600590910201600201546101009004600160a060020a0316331480156108225750600680548490811061079557fe5b906000526020600020906005020160020160019054906101000a9004600160a060020a0316600160a060020a031663b3f05b976040518163ffffffff1660e060020a02815260040160206040518083038186803b1580156107f557600080fd5b505afa158015610809573d6000803e3d6000fd5b505050506040513d602081101561081f57600080fd5b50515b151561082d57600080fd5b811561083d5761083d8382610df4565b6108e060068481548110151561084f57fe5b906000526020600020906005020160020160019054906101000a9004600160a060020a0316600160a060020a0316632c24909c6040518163ffffffff1660e060020a02815260040160206040518083038186803b1580156108af57600080fd5b505afa1580156108c3573d6000803e3d6000fd5b505050506040513d60208110156108d957600080fd5b5051610f8c565b604080518481528315156020820152338183015290517fa90fbb743f484212bbeda1b7afa164217b7fec13335136f21f67705f327978549181900360600190a1600680548490811061092e57fe5b60009182526020909120600260059092020101805474ffffffffffffffffffffffffffffffffffffffff0019169055505050565b61096b33610d35565b151561097657600080fd5b61097e6111e6565b60065480825260006020808401919091526001604080850182905233608086018190524260a087015281519485529284019190915282810191909152517f37aec22f64fe69a8fd1e8fd9b7fdb5803c56fb5f8794371fbcf23e4337f78dcb9181900360600190a1600680546001818101808455600093909352835160059092027ff652222313e28459528d920b65115c16c04f3efc82aaedc97be59f3f377c0d3f810192835560208501517ff652222313e28459528d920b65115c16c04f3efc82aaedc97be59f3f377c0d4082015560408501517ff652222313e28459528d920b65115c16c04f3efc82aaedc97be59f3f377c0d41909101805486949360ff19909116908381811115610a8d57fe5b0217905550606082015160028201805474ffffffffffffffffffffffffffffffffffffffff001916610100600160a060020a0393841602179055608083015160038301805473ffffffffffffffffffffffffffffffffffffffff19169190921617905560a0909101516004909101555050565b60055481565b600a81565b6000610b1e60028363ffffffff610fbb16565b92915050565b610b2d33610b0b565b1515610b3857600080fd5b600680546000919083908110610b4a57fe5b60009182526020909120600590910201600201546101009004600160a060020a03161415610b7757600080fd5b6006805482908110610b8557fe5b6000918252602082206005919091020160020154604080517f0519bac30000000000000000000000000000000000000000000000000000000081523360048201529051610100909204600160a060020a031692630519bac39260248084019382900301818387803b158015610bf957600080fd5b505af1158015610c0d573d6000803e3d6000fd5b5050505050565b610c1d33610ff2565b565b610c2833610b0b565b1515610c3357600080fd5b6104cb8161103a565b610c4533610b0b565b1515610c5057600080fd5b600680546000919084908110610c6257fe5b60009182526020909120600590910201600201546101009004600160a060020a03161415610c8f57600080fd5b6006805483908110610c9d57fe5b6000918252602082206005919091020160020154604080517fbd041c4d00000000000000000000000000000000000000000000000000000000815233600482015284151560248201529051610100909204600160a060020a03169263bd041c4d9260448084019382900301818387803b158015610d1957600080fd5b505af1158015610d2d573d6000803e3d6000fd5b505050505050565b6000610b1e818363ffffffff610fbb16565b610c1d336110d0565b600454600160a060020a031681565b610d7060008263ffffffff61111816565b60018054808201825560009182527fb10e2d527612073b26eecdfd717e6a320cf44b4afac2b0732d9fcbe2b7fa0cf601805473ffffffffffffffffffffffffffffffffffffffff1916600160a060020a03841690811790915560405190917f3b4a40cccf2058c593542587329dd385be4f0b588db5471fbd9598e56dd7093a91a250565b801515610e38576001600683815481101515610e0c57fe5b60009182526020909120600260059092020101805460ff191660018381811115610e3257fe5b02179055505b8015801590610e76575060016006805484908110610e5257fe5b600091825260209091206002600590920201015460ff166001811115610e7457fe5b145b15610eb8576000600683815481101515610e8c57fe5b60009182526020909120600260059092020101805460ff191660018381811115610eb257fe5b02179055505b80600683815481101515610ec857fe5b9060005260206000209060050201600101819055507f37aec22f64fe69a8fd1e8fd9b7fdb5803c56fb5f8794371fbcf23e4337f78dcb600683815481101515610f0d57fe5b906000526020600020906005020160000154600684815481101515610f2e57fe5b906000526020600020906005020160020160009054906101000a900460ff163360405180848152602001836001811115610f6457fe5b60ff168152600160a060020a0390921660208301525060408051918290030192509050a15050565b6000610f9f82600263ffffffff61116616565b9050600a811115610fb55750600a6005556104cb565b60055550565b6000600160a060020a0382161515610fd257600080fd5b50600160a060020a03166000908152602091909152604090205460ff1690565b61100360028263ffffffff61118a16565b604051600160a060020a038216907f6e76fb4c77256006d9c38ec7d82b45a8c8f3c27b1d6766fffc42dfb8de68449290600090a250565b61104b60028263ffffffff61111816565b6003805460018101825560009182527fc2575a0e9e593c00f959f8c92f12db2869c3395a3b0502d05e2516446f71f85b01805473ffffffffffffffffffffffffffffffffffffffff1916600160a060020a03841690811790915560405190917fb251eb052afc73ffd02ffe85ad79990a8b3fed60d76dbc2fa2fdd7123dffd91491a250565b6110e160008263ffffffff61118a16565b604051600160a060020a038216907fef69f7d97228658c92417be1b16b19058315de71fecb435d07b7d23728b6bd3190600090a250565b600160a060020a038116151561112d57600080fd5b6111378282610fbb565b1561114157600080fd5b600160a060020a0316600090815260209190915260409020805460ff19166001179055565b600080821161117457600080fd5b6000828481151561118157fe5b04949350505050565b600160a060020a038116151561119f57600080fd5b6111a98282610fbb565b15156111b457600080fd5b600160a060020a0316600090815260209190915260409020805460ff19169055565b604051610a798061121d83390190565b6040805160c08101825260008082526020820181905290918201908152600060208201819052604082018190526060909101529056fe60806040526000600555600060065560006007556000600a5534801561002457600080fd5b5060405160e080610a79833981018060405260e081101561004457600080fd5b508051602082015160408301516060840151608085015160a086015160c0909601519495939492939192909190848185856000600160a060020a038516151561008c57600080fd5b42831015801561009b57508282115b15156100a657600080fd5b60008054600160a060020a0319908116600160a060020a03978816178255600180548216968816969096179095556002939093556003919091556008805460ff1990811690915560048054909116911515919091179055600b99909955600a93909355600c96909655600d805490921695169490941790935550610947928392506101329150396000f3fe6080604052600436106100fb5763ffffffff7c01000000000000000000000000000000000000000000000000000000006000350416630519bac3811461010057806316f0115b146101355780632c24909c146101665780633197cbb61461018d57806336181026146101a257806341fdade6146101cb5780634e9e8e73146101e057806364a90292146101f55780636f6a97621461020a57806378e979251461021f57806380322cbd14610234578063a7491b4814610249578063af640d0f1461029c578063b3a2273f146102b1578063b3f05b97146102c6578063bd041c4d146102db578063d74689e414610316578063fc0c546a1461032b575b600080fd5b34801561010c57600080fd5b506101336004803603602081101561012357600080fd5b5035600160a060020a0316610340565b005b34801561014157600080fd5b5061014a61040f565b60408051600160a060020a039092168252519081900360200190f35b34801561017257600080fd5b5061017b61041e565b60408051918252519081900360200190f35b34801561019957600080fd5b5061017b6104f6565b3480156101ae57600080fd5b506101b76104fc565b604080519115158252519081900360200190f35b3480156101d757600080fd5b5061017b610544565b3480156101ec57600080fd5b5061017b61054a565b34801561020157600080fd5b5061017b610550565b34801561021657600080fd5b5061017b610556565b34801561022b57600080fd5b5061017b61055c565b34801561024057600080fd5b506101b7610562565b34801561025557600080fd5b5061027c6004803603602081101561026c57600080fd5b5035600160a060020a0316610571565b604080519384526020840192909252151582820152519081900360600190f35b3480156102a857600080fd5b5061017b610595565b3480156102bd57600080fd5b5061017b61059b565b3480156102d257600080fd5b506101b76105a1565b3480156102e757600080fd5b50610133600480360360408110156102fe57600080fd5b50600160a060020a03813516906020013515156105aa565b34801561032257600080fd5b5061017b6107cb565b34801561033757600080fd5b5061014a6107d1565b600254421015801561035457506003544211155b151561035f57600080fd5b600160a060020a0381166000908152600960205260408120541161038257600080fd5b600160a060020a038116600090815260096020526040812060018082018054600284018054948690559490915560ff19831690935560075460ff909216916103cf9163ffffffff6107e016565b60075580156103f3576005546103eb908363ffffffff6107e016565b60055561040a565b600654610406908363ffffffff6107e016565b6006555b505050565b600d54600160a060020a031681565b6000806104386006546005546107fa90919063ffffffff16565b90506104ef6000809054906101000a9004600160a060020a0316600160a060020a03166318160ddd6040518163ffffffff167c010000000000000000000000000000000000000000000000000000000002815260040160206040518083038186803b1580156104a657600080fd5b505afa1580156104ba573d6000803e3d6000fd5b505050506040513d60208110156104d057600080fd5b50516104e383606463ffffffff61081316565b9063ffffffff61083e16565b9150505b90565b60035481565b60085460009060ff161561050f57600080fd5b600354421015610521575060006104f3565b6008805460ff1916600117905561053e610539610862565b610884565b50600190565b6103e881565b600c5481565b60065481565b600a5481565b60025481565b600061056c610862565b905090565b60096020526000908152604090208054600182015460029092015490919060ff1683565b600b5481565b60075481565b60085460ff1681565b60025442101580156105be57506003544211155b15156105c957600080fd5b600160a060020a03821615156105de57600080fd5b600160a060020a0382166000908152600960205260409020541561060157600080fd5b60008054604080517f70a08231000000000000000000000000000000000000000000000000000000008152600160a060020a038681166004830152915191909216916370a08231916024808301926020929190829003018186803b15801561066857600080fd5b505afa15801561067c573d6000803e3d6000fd5b505050506040513d602081101561069257600080fd5b505160008054604080517f18160ddd00000000000000000000000000000000000000000000000000000000815290519394509192610736926103e892600160a060020a0316916318160ddd91600480820192602092909190829003018186803b1580156106fe57600080fd5b505afa158015610712573d6000803e3d6000fd5b505050506040513d602081101561072857600080fd5b50519063ffffffff61083e16565b9050808211156107465780610748565b815b9150821561076b57600554610763908363ffffffff6107fa16565b600555610782565b60065461077e908363ffffffff6107fa16565b6006555b600160a060020a038416600090815260096020526040902042815560018082018490556002909101805460ff19168515151790556007546107c2916107fa565b60075550505050565b60055481565b600054600160a060020a031681565b6000828211156107ef57600080fd5b508082035b92915050565b60008282018381101561080c57600080fd5b9392505050565b6000821515610824575060006107f4565b82820282848281151561083357fe5b041461080c57600080fd5b600080821161084c57600080fd5b6000828481151561085957fe5b04949350505050565b600060065460055411801561056c5750600a5461087d61041e565b1015905090565b600d54600b54600c54604080517f607ca15b00000000000000000000000000000000000000000000000000000000815260048101939093528415156024840152604483019190915251600160a060020a039092169163607ca15b9160648082019260009290919082900301818387803b15801561090057600080fd5b505af1158015610914573d6000803e3d6000fd5b505050505056fea165627a7a72305820dfb6199f83c7ac3f0a02e0659882cd305b1c9fcde6cb779f9f089ee9302fc0730029a165627a7a72305820f4b6bf2d6e628ed7e9eb3de772fce40837efc08cf8e455d2ec4f4bbd8301751e0029",
    "source": "pragma solidity ^0.5.0;\n\nimport '../access/roles/MemberRole.sol';\nimport '../access/roles/ManagerRole.sol';\nimport '../math/SafeMath.sol';\nimport '../token/ERC20/IERC20.sol';\nimport '../poll/polls/RulePoll.sol';\n\ncontract Rules is ManagerRole, MemberRole {\n    using SafeMath for uint256;\n\n    struct Rule {\n        uint256 id;\n        uint256 amount;\n        RuleState state;\n        RulePoll poll;\n        address creator;\n        uint256 created;\n    }\n\n    enum RuleState { Active, Disabled }\n\n    event RulePollCreated(uint256 id, uint256 proposedAmount, address sender);\n    event RulePollFinished(uint256 id, bool approved, address sender);\n    event RuleStateChanged(uint256 id, RuleState state, address sender);\n\n    uint256 public constant RULE_POLL_DURATION = 1 minutes;\n    uint256 public constant MAX_VOTED_TOKEN_PERC = 10;\n\n    IERC20 public token;\n    uint256 public minVotedTokensPerc = 0;\n\n    Rule[] public rules;\n\n    constructor(address _tokenAddress) public {\n        token = IERC20(_tokenAddress);\n    }\n\n    /**\n    * @dev Creates the initial reward rule.\n    */\n    function createRule() public onlyManager {\n        Rule memory rule;\n\n        rule.id = rules.length;\n        rule.amount = 0;\n        rule.state = RuleState.Disabled;\n        rule.creator = msg.sender;\n        rule.created = now;\n\n        emit RuleStateChanged(rule.id, rule.state, msg.sender);\n\n        rules.push(rule);\n    }\n\n    /**\n    * @dev Vote for the suggested rule.\n    * @param id reference to the rule that the poll runs for\n    * @param agree Approve or reject rule.\n    */\n    function voteForRule(uint256 id, bool agree) public onlyMember {\n        require(address(rules[id].poll) != address(0));\n\n        rules[id].poll.vote(msg.sender, agree);\n    }\n\n    /**\n    * @dev Vote for the suggested rule.\n    * @param id reference to the rule that the poll runs for\n    */\n    function revokeVoteForRule(uint256 id) public onlyMember {\n        require(address(rules[id].poll) != address(0));\n\n        rules[id].poll.revokeVote(msg.sender);\n    }\n\n    /**\n    * @dev Starts the rule poll for chaning the amount.\n    * @param id The id of the rule.\n    * @param id The new amount for the rule.\n    */\n    function startRulePoll(uint256 id, uint256 proposedAmount) public onlyMember {\n        require(address(rules[id].poll) == address(0) || rules[id].poll.finalized());\n        require(proposedAmount != rules[id].amount);\n\n        uint256 startTime = now;\n        uint256 endTime = startTime + RULE_POLL_DURATION;\n\n        rules[id].poll = new RulePoll(id, proposedAmount, address(token), startTime, endTime, minVotedTokensPerc, address(this));\n\n        emit RulePollCreated(id, proposedAmount, msg.sender);\n    }\n\n    /**\n    * @dev Approves the suggested rule and sets its state to Active.\n    * @param id The id of the rule.\n    * @param id The new amount for the rule.\n    */\n    function _approve(uint256 id, uint256 proposedAmount) internal {\n        if (proposedAmount == 0) {\n            rules[id].state = RuleState.Disabled;\n        }\n\n        if (proposedAmount != 0 && rules[id].state == RuleState.Disabled) {\n            rules[id].state = RuleState.Active;\n        }\n\n        rules[id].amount = proposedAmount;\n\n        emit RuleStateChanged(rules[id].id, rules[id].state, msg.sender);\n    }\n\n    /**\n    * @dev Rejects the rule and sets the state to Disabled.\n    * @param id The id of the rule.\n    */\n    /* function _reject(uint256 id) internal {\n        require(rules[id].state == RuleState.Pending || rules[id].state == RuleState.Active);\n        rules[id].state = RuleState.Disabled;\n    } */\n\n    /**\n     * @dev Update minVotedTokensPerc value after tap poll.\n     * Set new value == 50% from current voted tokens amount\n     */\n    function updateMinVotedTokens(uint256 _minVotedTokensPerc) internal {\n        uint256 newPerc = _minVotedTokensPerc.div(2);\n        if(newPerc > MAX_VOTED_TOKEN_PERC) {\n            minVotedTokensPerc = MAX_VOTED_TOKEN_PERC;\n            return;\n        }\n        minVotedTokensPerc = newPerc;\n    }\n\n    /**\n    * @dev Called when poll is finished\n    * @param id Referenced reward rule\n    * @param agree Bool for checking the result of the poll.\n    * @param proposedAmount The proposed reward size.\n    */\n    function onRulePollFinish(uint256 id, bool agree, uint256 proposedAmount) external {\n        require(msg.sender == address(rules[id].poll) && rules[id].poll.finalized());\n\n        if(agree) {\n            _approve(id, proposedAmount);\n        }\n\n        updateMinVotedTokens(rules[id].poll.getVotedTokensPerc());\n        emit RulePollFinished(id, agree, msg.sender);\n\n        delete rules[id].poll;\n    }\n\n    /**\n    * @dev Counts the amount of rules.\n    */\n    function countRules() public view returns (uint256) {\n        return rules.length;\n    }\n\n}\n",
    "sourcePath": "/Users/peterpolman/Sites/thx/wallet/contracts/rule/Rules.sol",
    "compiler": {
        "name": "solc",
        "version": "0.5.0+commit.1d4f565a.Emscripten.clang"
    },
    "schemaVersion": "3.0.1",
    "updatedAt": "2020-03-16T15:14:29.826Z",
    "devdoc": {
        "methods": {
            "countRules()": {
                "details": "Counts the amount of rules."
            },
            "createRule()": {
                "details": "Creates the initial reward rule."
            },
            "onRulePollFinish(uint256,bool,uint256)": {
                "details": "Called when poll is finished",
                "params": {
                    "agree": "Bool for checking the result of the poll.",
                    "id": "Referenced reward rule",
                    "proposedAmount": "The proposed reward size."
                }
            },
            "revokeVoteForRule(uint256)": {
                "details": "Vote for the suggested rule.",
                "params": {
                    "id": "reference to the rule that the poll runs for"
                }
            },
            "startRulePoll(uint256,uint256)": {
                "details": "Starts the rule poll for chaning the amount.",
                "params": {
                    "id": "The new amount for the rule."
                }
            },
            "voteForRule(uint256,bool)": {
                "details": "Vote for the suggested rule.",
                "params": {
                    "agree": "Approve or reject rule.",
                    "id": "reference to the rule that the poll runs for"
                }
            }
        }
    },
    "userdoc": {
        "methods": {}
    }
}