{
  "contractName": "Rules",
  "abi": [
    {
      "constant": true,
      "inputs": [
        {
          "name": "",
          "type": "uint256"
        }
      ],
      "name": "rules",
      "outputs": [
        {
          "name": "id",
          "type": "uint256"
        },
        {
          "name": "slug",
          "type": "string"
        },
        {
          "name": "amount",
          "type": "uint256"
        },
        {
          "name": "state",
          "type": "uint8"
        },
        {
          "name": "creator",
          "type": "address"
        },
        {
          "name": "created",
          "type": "uint256"
        }
      ],
      "payable": false,
      "stateMutability": "view",
      "type": "function"
    },
    {
      "constant": false,
      "inputs": [
        {
          "name": "account",
          "type": "address"
        }
      ],
      "name": "addManager",
      "outputs": [],
      "payable": false,
      "stateMutability": "nonpayable",
      "type": "function"
    },
    {
      "constant": true,
      "inputs": [],
      "name": "RULE_POLL_DURATION",
      "outputs": [
        {
          "name": "",
          "type": "uint256"
        }
      ],
      "payable": false,
      "stateMutability": "view",
      "type": "function"
    },
    {
      "constant": true,
      "inputs": [
        {
          "name": "",
          "type": "address"
        },
        {
          "name": "",
          "type": "uint256"
        }
      ],
      "name": "voters",
      "outputs": [
        {
          "name": "",
          "type": "uint256"
        }
      ],
      "payable": false,
      "stateMutability": "view",
      "type": "function"
    },
    {
      "constant": true,
      "inputs": [],
      "name": "rulePoll",
      "outputs": [
        {
          "name": "",
          "type": "address"
        }
      ],
      "payable": false,
      "stateMutability": "view",
      "type": "function"
    },
    {
      "constant": true,
      "inputs": [],
      "name": "minVotedTokensPerc",
      "outputs": [
        {
          "name": "",
          "type": "uint256"
        }
      ],
      "payable": false,
      "stateMutability": "view",
      "type": "function"
    },
    {
      "constant": true,
      "inputs": [],
      "name": "MAX_VOTED_TOKEN_PERC",
      "outputs": [
        {
          "name": "",
          "type": "uint256"
        }
      ],
      "payable": false,
      "stateMutability": "view",
      "type": "function"
    },
    {
      "constant": true,
      "inputs": [
        {
          "name": "account",
          "type": "address"
        }
      ],
      "name": "isMember",
      "outputs": [
        {
          "name": "",
          "type": "bool"
        }
      ],
      "payable": false,
      "stateMutability": "view",
      "type": "function"
    },
    {
      "constant": false,
      "inputs": [],
      "name": "renounceMember",
      "outputs": [],
      "payable": false,
      "stateMutability": "nonpayable",
      "type": "function"
    },
    {
      "constant": false,
      "inputs": [
        {
          "name": "account",
          "type": "address"
        }
      ],
      "name": "addMember",
      "outputs": [],
      "payable": false,
      "stateMutability": "nonpayable",
      "type": "function"
    },
    {
      "constant": true,
      "inputs": [
        {
          "name": "account",
          "type": "address"
        }
      ],
      "name": "isManager",
      "outputs": [
        {
          "name": "",
          "type": "bool"
        }
      ],
      "payable": false,
      "stateMutability": "view",
      "type": "function"
    },
    {
      "constant": false,
      "inputs": [],
      "name": "renounceManager",
      "outputs": [],
      "payable": false,
      "stateMutability": "nonpayable",
      "type": "function"
    },
    {
      "constant": true,
      "inputs": [],
      "name": "token",
      "outputs": [
        {
          "name": "",
          "type": "address"
        }
      ],
      "payable": false,
      "stateMutability": "view",
      "type": "function"
    },
    {
      "anonymous": false,
      "inputs": [
        {
          "indexed": false,
          "name": "id",
          "type": "uint256"
        },
        {
          "indexed": false,
          "name": "proposedAmount",
          "type": "uint256"
        }
      ],
      "name": "RulePollCreated",
      "type": "event"
    },
    {
      "anonymous": false,
      "inputs": [
        {
          "indexed": false,
          "name": "id",
          "type": "uint256"
        },
        {
          "indexed": false,
          "name": "approved",
          "type": "bool"
        }
      ],
      "name": "RulePollFinished",
      "type": "event"
    },
    {
      "anonymous": false,
      "inputs": [
        {
          "indexed": false,
          "name": "id",
          "type": "uint256"
        },
        {
          "indexed": false,
          "name": "state",
          "type": "uint8"
        }
      ],
      "name": "RuleStateChanged",
      "type": "event"
    },
    {
      "anonymous": false,
      "inputs": [
        {
          "indexed": true,
          "name": "account",
          "type": "address"
        }
      ],
      "name": "MemberAdded",
      "type": "event"
    },
    {
      "anonymous": false,
      "inputs": [
        {
          "indexed": true,
          "name": "account",
          "type": "address"
        }
      ],
      "name": "MemberRemoved",
      "type": "event"
    },
    {
      "anonymous": false,
      "inputs": [
        {
          "indexed": true,
          "name": "account",
          "type": "address"
        }
      ],
      "name": "ManagerAdded",
      "type": "event"
    },
    {
      "anonymous": false,
      "inputs": [
        {
          "indexed": true,
          "name": "account",
          "type": "address"
        }
      ],
      "name": "ManagerRemoved",
      "type": "event"
    },
    {
      "constant": false,
      "inputs": [
        {
          "name": "slug",
          "type": "string"
        },
        {
          "name": "amount",
          "type": "uint256"
        }
      ],
      "name": "createRule",
      "outputs": [],
      "payable": false,
      "stateMutability": "nonpayable",
      "type": "function"
    },
    {
      "constant": false,
      "inputs": [
        {
          "name": "id",
          "type": "uint256"
        },
        {
          "name": "proposedAmount",
          "type": "uint256"
        }
      ],
      "name": "startRulePoll",
      "outputs": [],
      "payable": false,
      "stateMutability": "nonpayable",
      "type": "function"
    },
    {
      "constant": true,
      "inputs": [],
      "name": "countRules",
      "outputs": [
        {
          "name": "",
          "type": "uint256"
        }
      ],
      "payable": false,
      "stateMutability": "view",
      "type": "function"
    }
  ],
  "bytecode": "0x6080604052600060055561001b33640100000000610032810204565b61002d33640100000000610081810204565b61015e565b61004a600082640100000000610b8d6100d082021704565b604051600160a060020a038216907f3b4a40cccf2058c593542587329dd385be4f0b588db5471fbd9598e56dd7093a90600090a250565b610099600182640100000000610b8d6100d082021704565b604051600160a060020a038216907fb251eb052afc73ffd02ffe85ad79990a8b3fed60d76dbc2fa2fdd7123dffd91490600090a250565b600160a060020a03811615156100e557600080fd5b6100f88282640100000000610127810204565b1561010257600080fd5b600160a060020a0316600090815260209190915260409020805460ff19166001179055565b6000600160a060020a038216151561013e57600080fd5b50600160a060020a03166000908152602091909152604090205460ff1690565b611a958061016d6000396000f3fe608060405260043610620000f65763ffffffff7c010000000000000000000000000000000000000000000000000000000060003504166304d6ded48114620000fb5780632d06177a14620001e857806331c54032146200022157806335deeb4a146200024b578063439c6f171462000307578063563b373d146200031f5780635c134d6614620003535780636fb1270c14620003905780638421920414620003c4578063962c9c8d14620003dc578063a230c52414620003f4578063bad5ba01146200043f578063ca6d56dc1462000457578063f3ae2415146200048e578063f8b91abe14620004c5578063fc0c546a14620004dd575b600080fd5b3480156200010857600080fd5b5062000129600480360360208110156200012157600080fd5b5035620004f5565b60405180878152602001806020018681526020018560028111156200014a57fe5b60ff16815260200184600160a060020a0316600160a060020a03168152602001838152602001828103825287818151815260200191508051906020019080838360005b83811015620001a75781810151838201526020016200018d565b50505050905090810190601f168015620001d55780820380516001836020036101000a031916815260200191505b5097505050505050505060405180910390f35b348015620001f557600080fd5b506200021f600480360360208110156200020e57600080fd5b5035600160a060020a0316620005eb565b005b3480156200022e57600080fd5b506200023962000610565b60408051918252519081900360200190f35b3480156200025857600080fd5b506200021f600480360360408110156200027157600080fd5b8101906020810181356401000000008111156200028d57600080fd5b820183602082011115620002a057600080fd5b80359060200191846001830284011164010000000083111715620002c357600080fd5b91908080601f016020809104026020016040519081016040528093929190818152602001838380828437600092019190915250929550509135925062000617915050565b3480156200031457600080fd5b5062000239620007aa565b3480156200032c57600080fd5b506200021f600480360360408110156200034557600080fd5b5080359060200135620007b1565b3480156200036057600080fd5b5062000239600480360360408110156200037957600080fd5b50600160a060020a0381351690602001356200096a565b3480156200039d57600080fd5b50620003a86200099b565b60408051600160a060020a039092168252519081900360200190f35b348015620003d157600080fd5b5062000239620009aa565b348015620003e957600080fd5b5062000239620009b0565b3480156200040157600080fd5b506200042b600480360360208110156200041a57600080fd5b5035600160a060020a0316620009b5565b604080519115158252519081900360200190f35b3480156200044c57600080fd5b506200021f620009d0565b3480156200046457600080fd5b506200021f600480360360208110156200047d57600080fd5b5035600160a060020a0316620009dd565b3480156200049b57600080fd5b506200042b60048036036020811015620004b457600080fd5b5035600160a060020a0316620009ff565b348015620004d257600080fd5b506200021f62000a13565b348015620004ea57600080fd5b50620003a862000a1e565b60068054829081106200050457fe5b9060005260206000209060050201600091509050806000015490806001018054600181600116156101000203166002900480601f016020809104026020016040519081016040528092919081815260200182805460018160011615610100020316600290048015620005ba5780601f106200058e57610100808354040283529160200191620005ba565b820191906000526020600020905b8154815290600101906020018083116200059c57829003601f168201915b50505050600283015460038401546004909401549293909260ff82169250610100909104600160a060020a03169086565b620005f633620009ff565b15156200060257600080fd5b6200060d8162000a2d565b50565b6006545b90565b6200062233620009ff565b15156200062e57600080fd5b6200063862000c2f565b600654808252602080830185905260408084018590526000606085018190523360808601524260a086015281519384529183019190915280517f2da08c9afbca94a7781f242bd0193bf9a13ebd681b7fead14822408e3fbe78e99281900390910190a16006805460018101808355600092909252825160059091027ff652222313e28459528d920b65115c16c04f3efc82aaedc97be59f3f377c0d3f8101918255602080850151805186949362000716937ff652222313e28459528d920b65115c16c04f3efc82aaedc97be59f3f377c0d4090910192019062000c72565b506040820151816002015560608201518160030160006101000a81548160ff021916908360028111156200074657fe5b02179055506080820151600382018054600160a060020a039092166101000274ffffffffffffffffffffffffffffffffffffffff001990921691909117905560a0909101516004909101555080516040820151620007a59190620007b1565b505050565b62093a8081565b620007bc33620009b5565b1515620007c857600080fd5b600454600160a060020a0316158062000867575060048054604080517fb3f05b970000000000000000000000000000000000000000000000000000000081529051600160a060020a039092169263b3f05b97928282019260209290829003018186803b1580156200083857600080fd5b505afa1580156200084d573d6000803e3d6000fd5b505050506040513d60208110156200086457600080fd5b50515b15156200087357600080fd5b600354600554429162093a8083019185918591600160a060020a03909116908590859030620008a162000cf7565b9687526020870195909552600160a060020a039384166040808801919091526060870193909352608086019190915260a0850152911660c0830152519081900360e001906000f080158015620008fb573d6000803e3d6000fd5b506004805473ffffffffffffffffffffffffffffffffffffffff1916600160a060020a0392909216919091179055604080518581526020810185905281517f9bd49e167f8ad588627e6f5b6a02b84c5a6ee245ce327afa99ade561bcbc284d929181900390910190a150505050565b6002602052816000526040600020818154811015156200098657fe5b90600052602060002001600091509150505481565b600454600160a060020a031681565b60055481565b600a81565b6000620009ca60018363ffffffff62000a7716565b92915050565b620009db3362000aaf565b565b620009e833620009b5565b1515620009f457600080fd5b6200060d8162000af9565b6000620009ca818363ffffffff62000a7716565b620009db3362000b43565b600354600160a060020a031681565b62000a4060008263ffffffff62000b8d16565b604051600160a060020a038216907f3b4a40cccf2058c593542587329dd385be4f0b588db5471fbd9598e56dd7093a90600090a250565b6000600160a060020a038216151562000a8f57600080fd5b50600160a060020a03166000908152602091909152604090205460ff1690565b62000ac260018263ffffffff62000bdf16565b604051600160a060020a038216907f6e76fb4c77256006d9c38ec7d82b45a8c8f3c27b1d6766fffc42dfb8de68449290600090a250565b62000b0c60018263ffffffff62000b8d16565b604051600160a060020a038216907fb251eb052afc73ffd02ffe85ad79990a8b3fed60d76dbc2fa2fdd7123dffd91490600090a250565b62000b5660008263ffffffff62000bdf16565b604051600160a060020a038216907fef69f7d97228658c92417be1b16b19058315de71fecb435d07b7d23728b6bd3190600090a250565b600160a060020a038116151562000ba357600080fd5b62000baf828262000a77565b1562000bba57600080fd5b600160a060020a0316600090815260209190915260409020805460ff19166001179055565b600160a060020a038116151562000bf557600080fd5b62000c01828262000a77565b151562000c0d57600080fd5b600160a060020a0316600090815260209190915260409020805460ff19169055565b60c0604051908101604052806000815260200160608152602001600081526020016000600281111562000c5e57fe5b815260006020820181905260409091015290565b828054600181600116156101000203166002900490600052602060002090601f016020900481019282601f1062000cb557805160ff191683800117855562000ce5565b8280016001018555821562000ce5579182015b8281111562000ce557825182559160200191906001019062000cc8565b5062000cf392915062000d08565b5090565b604051610d448062000d2683390190565b6200061491905b8082111562000cf3576000815560010162000d0f56fe60806040526000600555600060065560006007556000600a5534801561002457600080fd5b5060405160e080610d44833981018060405260e081101561004457600080fd5b508051602082015160408301516060840151608085015160a086015160c090960151949593949293919290919084848460006100883364010000000061012a810204565b600160a060020a038416151561009d57600080fd5b4283101580156100ac57508282115b15156100b757600080fd5b60018054600160a060020a0319908116600160a060020a03968716179091556002939093556003919091556008805460ff1990811690915560048054909116911515919091179055600b98909855600a92909255600c95909555600d805490961694169390931790935550610207915050565b610142600082640100000000610ab461017982021704565b604051600160a060020a038216907fb251eb052afc73ffd02ffe85ad79990a8b3fed60d76dbc2fa2fdd7123dffd91490600090a250565b600160a060020a038116151561018e57600080fd5b6101a182826401000000006101d0810204565b156101ab57600080fd5b600160a060020a0316600090815260209190915260409020805460ff19166001179055565b6000600160a060020a03821615156101e757600080fd5b50600160a060020a03166000908152602091909152604090205460ff1690565b610b2e806102166000396000f3fe60806040526004361061011c5763ffffffff7c010000000000000000000000000000000000000000000000000000000060003504166316f0115b81146101215780632c24909c146101525780633197cbb614610179578063361810261461018e57806341fdade6146101b757806343c14b22146101cc5780634b9f5c98146101e35780634e9e8e731461020f57806364a90292146102245780636f6a97621461023957806378e979251461024e57806380322cbd14610263578063a230c52414610278578063a7491b48146102ab578063af640d0f146102fe578063b3a2273f14610313578063b3f05b9714610328578063bad5ba011461033d578063ca6d56dc14610352578063d74689e414610385578063fc0c546a1461039a575b600080fd5b34801561012d57600080fd5b506101366103af565b60408051600160a060020a039092168252519081900360200190f35b34801561015e57600080fd5b506101676103be565b60408051918252519081900360200190f35b34801561018557600080fd5b50610167610497565b34801561019a57600080fd5b506101a361049d565b604080519115158252519081900360200190f35b3480156101c357600080fd5b506101676104e5565b3480156101d857600080fd5b506101e16104eb565b005b3480156101ef57600080fd5b506101e16004803603602081101561020657600080fd5b503515156105a7565b34801561021b57600080fd5b506101676107b3565b34801561023057600080fd5b506101676107b9565b34801561024557600080fd5b506101676107bf565b34801561025a57600080fd5b506101676107c5565b34801561026f57600080fd5b506101a36107cb565b34801561028457600080fd5b506101a36004803603602081101561029b57600080fd5b5035600160a060020a03166107da565b3480156102b757600080fd5b506102de600480360360208110156102ce57600080fd5b5035600160a060020a03166107f2565b604080519384526020840192909252151582820152519081900360600190f35b34801561030a57600080fd5b50610167610816565b34801561031f57600080fd5b5061016761081c565b34801561033457600080fd5b506101a3610822565b34801561034957600080fd5b506101e161082b565b34801561035e57600080fd5b506101e16004803603602081101561037557600080fd5b5035600160a060020a0316610836565b34801561039157600080fd5b50610167610856565b3480156103a657600080fd5b5061013661085c565b600d54600160a060020a031681565b6000806103d860065460055461086b90919063ffffffff16565b9050610490600160009054906101000a9004600160a060020a0316600160a060020a03166318160ddd6040518163ffffffff167c010000000000000000000000000000000000000000000000000000000002815260040160206040518083038186803b15801561044757600080fd5b505afa15801561045b573d6000803e3d6000fd5b505050506040513d602081101561047157600080fd5b505161048483606463ffffffff61088416565b9063ffffffff6108af16565b9150505b90565b60035481565b60085460009060ff16156104b057600080fd5b6003544210156104c257506000610494565b6008805460ff191660011790556104df6104da6108d3565b6108f5565b50600190565b6103e881565b60025442101580156104ff57506003544211155b151561050a57600080fd5b336000908152600960205260408120541161052457600080fd5b33600090815260096020526040812060018082018054600284018054948690559490915560ff19831690935560075460ff909216916105689163ffffffff61098c16565b600755801561058c57600554610584908363ffffffff61098c16565b6005556105a3565b60065461059f908363ffffffff61098c16565b6006555b5050565b60025442101580156105bb57506003544211155b15156105c657600080fd5b6105cf336107da565b15156105da57600080fd5b33600090815260096020526040902054156105f457600080fd5b600154604080517f70a082310000000000000000000000000000000000000000000000000000000081523360048201529051600092600160a060020a0316916370a08231916024808301926020929190829003018186803b15801561065857600080fd5b505afa15801561066c573d6000803e3d6000fd5b505050506040513d602081101561068257600080fd5b5051600154604080517f18160ddd0000000000000000000000000000000000000000000000000000000081529051929350600092610728926103e892600160a060020a03909116916318160ddd91600480820192602092909190829003018186803b1580156106f057600080fd5b505afa158015610704573d6000803e3d6000fd5b505050506040513d602081101561071a57600080fd5b50519063ffffffff6108af16565b905080821115610738578061073a565b815b9150821561075d57600554610755908363ffffffff61086b16565b600555610774565b600654610770908363ffffffff61086b16565b6006555b33600090815260096020526040902042815560018082018490556002909101805460ff19168515151790556007546107ab9161086b565b600755505050565b600c5481565b60065481565b600a5481565b60025481565b60006107d56108d3565b905090565b60006107ec818363ffffffff6109a116565b92915050565b60096020526000908152604090208054600182015460029092015490919060ff1683565b600b5481565b60075481565b60085460ff1681565b610834336109d8565b565b61083f336107da565b151561084a57600080fd5b61085381610a20565b50565b60055481565b600154600160a060020a031681565b60008282018381101561087d57600080fd5b9392505050565b6000821515610895575060006107ec565b8282028284828115156108a457fe5b041461087d57600080fd5b60008082116108bd57600080fd5b600082848115156108ca57fe5b04949350505050565b60006006546005541180156107d55750600a546108ee6103be565b1015905090565b600d54600b54600c54604080517f607ca15b00000000000000000000000000000000000000000000000000000000815260048101939093528415156024840152604483019190915251600160a060020a039092169163607ca15b9160648082019260009290919082900301818387803b15801561097157600080fd5b505af1158015610985573d6000803e3d6000fd5b5050505050565b60008282111561099b57600080fd5b50900390565b6000600160a060020a03821615156109b857600080fd5b50600160a060020a03166000908152602091909152604090205460ff1690565b6109e960008263ffffffff610a6816565b604051600160a060020a038216907f6e76fb4c77256006d9c38ec7d82b45a8c8f3c27b1d6766fffc42dfb8de68449290600090a250565b610a3160008263ffffffff610ab416565b604051600160a060020a038216907fb251eb052afc73ffd02ffe85ad79990a8b3fed60d76dbc2fa2fdd7123dffd91490600090a250565b600160a060020a0381161515610a7d57600080fd5b610a8782826109a1565b1515610a9257600080fd5b600160a060020a0316600090815260209190915260409020805460ff19169055565b600160a060020a0381161515610ac957600080fd5b610ad382826109a1565b15610add57600080fd5b600160a060020a0316600090815260209190915260409020805460ff1916600117905556fea165627a7a723058207dc36f79452532cd62a93d2ba9603e76511c07e357d04faa1920b67c33ebd9600029a165627a7a723058207d3431c1120fe39d7e96eab51fe6c26942cf11ef59fa4771bc8eaf77c84ef8330029",
  "source": "pragma solidity ^0.5.0;\n\nimport '../access/roles/MemberRole.sol';\nimport '../access/roles/ManagerRole.sol';\nimport '../math/SafeMath.sol';\nimport '../token/ERC20/IERC20.sol';\nimport '../poll/polls/RulePoll.sol';\n\ncontract Rules is ManagerRole, MemberRole {\n    using SafeMath for uint256;\n\n    struct Rule {\n        uint256 id;\n        string slug;\n        uint256 amount;\n        RuleState state;\n        address creator;\n        uint256 created;\n    }\n\n    enum RuleState { Pending, Approved, Rejected }\n\n    event RulePollCreated(uint256 id, uint256 proposedAmount);\n    event RulePollFinished(uint256 id, bool approved);\n    event RuleStateChanged(uint256 id, RuleState state);\n\n    mapping (address => uint256[]) public voters;\n\n    uint256 public constant RULE_POLL_DURATION = 7 days;\n    uint256 public constant MAX_VOTED_TOKEN_PERC = 10;\n\n    IERC20 public token;\n    RulePoll public rulePoll;\n    uint256 public minVotedTokensPerc = 0;\n\n    Rule[] public rules;\n\n    /**\n    * @dev Creates the initial reward rule.\n    * @param slug Short readable description of rule.\n    * @param amount Reward size suggested for the beneficiary.\n    */\n    function createRule(string memory slug, uint256 amount) public onlyManager {\n        Rule memory rule;\n\n        rule.id = rules.length;\n        rule.slug = slug;\n        rule.amount = amount;\n        rule.state = RuleState.Pending;\n        rule.creator = msg.sender;\n        rule.created = now;\n\n        emit RuleStateChanged(rule.id, rule.state);\n        rules.push(rule);\n\n        startRulePoll(rule.id, rule.amount);\n    }\n\n    /**\n    * @dev Starts the rule poll for chaning the amount.\n    */\n    function startRulePoll(uint256 id, uint256 proposedAmount) public onlyMember {\n        require(address(rulePoll) == address(0) || rulePoll.finalized());\n\n        uint256 startTime = now;\n        uint256 endTime = startTime + RULE_POLL_DURATION;\n\n        rulePoll = new RulePoll(id, proposedAmount, address(token), startTime, endTime, minVotedTokensPerc, address(this));\n\n        emit RulePollCreated(id, proposedAmount);\n    }\n\n    /**\n    * @dev Approves the suggested rule and sets its state to Active.\n    * @param id The id of the rule.\n    */\n    function _approve(uint256 id, uint256 proposedAmount) internal {\n        require(rules[id].state == RuleState.Pending || rules[id].state == RuleState.Rejected);\n        rules[id].amount = proposedAmount;\n        rules[id].state = RuleState.Approved;\n\n        emit RuleStateChanged(rules[id].id, rules[id].state);\n    }\n\n    /**\n    * @dev Rejects the rule and sets the state to Disabled.\n    * @param id The id of the rule.\n    */\n    /* function _reject(uint256 id) internal {\n        require(rules[id].state == RuleState.Pending || rules[id].state == RuleState.Approved);\n        rules[id].state = RuleState.Rejected;\n    } */\n\n    /**\n     * @dev Update minVotedTokensPerc value after tap poll.\n     * Set new value == 50% from current voted tokens amount\n     */\n    function updateMinVotedTokens(uint256 _minVotedTokensPerc) internal {\n        uint256 newPerc = _minVotedTokensPerc.div(2);\n        if(newPerc > MAX_VOTED_TOKEN_PERC) {\n            minVotedTokensPerc = MAX_VOTED_TOKEN_PERC;\n            return;\n        }\n        minVotedTokensPerc = newPerc;\n    }\n\n    /**\n    * @dev Called when poll is finished\n    * @param id Referenced reward rule\n    * @param agree Bool for checking the result of the poll.\n    * @param proposedAmount The proposed reward size.\n    */\n    function onRulePollFinish(uint256 id, bool agree, uint256 proposedAmount) internal {\n        require(msg.sender == address(rulePoll) && rulePoll.finalized());\n\n        if(agree) {\n            _approve(id, proposedAmount);\n        }\n        /* else {\n            _reject(id);\n        } */\n\n        updateMinVotedTokens(rulePoll.getVotedTokensPerc());\n        emit RulePollFinished(id, agree);\n\n        delete rulePoll;\n    }\n\n    /**\n    * @dev Counts the amount of rules.\n    */\n    function countRules() public view returns (uint256) {\n        return rules.length;\n    }\n\n}\n",
  "sourcePath": "/Users/peterpolman/Sites/thx_client/contracts/rule/Rules.sol",
  "compiler": {
    "name": "solc",
    "version": "0.5.0+commit.1d4f565a.Emscripten.clang"
  },
  "schemaVersion": "3.0.1",
  "updatedAt": "2019-08-06T12:56:51.079Z",
  "devdoc": {
    "methods": {
      "countRules()": {
        "details": "Counts the amount of rules."
      },
      "createRule(string,uint256)": {
        "details": "Creates the initial reward rule.",
        "params": {
          "amount": "Reward size suggested for the beneficiary.",
          "slug": "Short readable description of rule."
        }
      },
      "startRulePoll(uint256,uint256)": {
        "details": "Starts the rule poll for chaning the amount."
      }
    }
  },
  "userdoc": {
    "methods": {}
  }
}