{
  "contractName": "WhitelistedRole",
  "abi": [
    {
      "constant": true,
      "inputs": [
        {
          "name": "account",
          "type": "address"
        }
      ],
      "name": "isWhitelister",
      "outputs": [
        {
          "name": "",
          "type": "bool"
        }
      ],
      "payable": false,
      "stateMutability": "view",
      "type": "function"
    },
    {
      "constant": false,
      "inputs": [],
      "name": "renounceWhitelister",
      "outputs": [],
      "payable": false,
      "stateMutability": "nonpayable",
      "type": "function"
    },
    {
      "constant": false,
      "inputs": [
        {
          "name": "account",
          "type": "address"
        }
      ],
      "name": "addWhitelister",
      "outputs": [],
      "payable": false,
      "stateMutability": "nonpayable",
      "type": "function"
    },
    {
      "anonymous": false,
      "inputs": [
        {
          "indexed": true,
          "name": "account",
          "type": "address"
        }
      ],
      "name": "WhitelistedAdded",
      "type": "event"
    },
    {
      "anonymous": false,
      "inputs": [
        {
          "indexed": true,
          "name": "account",
          "type": "address"
        }
      ],
      "name": "WhitelistedRemoved",
      "type": "event"
    },
    {
      "anonymous": false,
      "inputs": [
        {
          "indexed": true,
          "name": "account",
          "type": "address"
        }
      ],
      "name": "WhitelisterAdded",
      "type": "event"
    },
    {
      "anonymous": false,
      "inputs": [
        {
          "indexed": true,
          "name": "account",
          "type": "address"
        }
      ],
      "name": "WhitelisterRemoved",
      "type": "event"
    },
    {
      "constant": true,
      "inputs": [
        {
          "name": "account",
          "type": "address"
        }
      ],
      "name": "isWhitelisted",
      "outputs": [
        {
          "name": "",
          "type": "bool"
        }
      ],
      "payable": false,
      "stateMutability": "view",
      "type": "function"
    },
    {
      "constant": false,
      "inputs": [
        {
          "name": "account",
          "type": "address"
        }
      ],
      "name": "addWhitelisted",
      "outputs": [],
      "payable": false,
      "stateMutability": "nonpayable",
      "type": "function"
    },
    {
      "constant": false,
      "inputs": [
        {
          "name": "account",
          "type": "address"
        }
      ],
      "name": "removeWhitelisted",
      "outputs": [],
      "payable": false,
      "stateMutability": "nonpayable",
      "type": "function"
    },
    {
      "constant": false,
      "inputs": [],
      "name": "renounceWhitelisted",
      "outputs": [],
      "payable": false,
      "stateMutability": "nonpayable",
      "type": "function"
    }
  ],
  "bytecode": "0x60806040526100133361001860201b60201c565b6100ee565b61003081600061006760201b61034e1790919060201c565b6040516001600160a01b038216907f25f05eb2b87548a4d5f3b374af0482149441d4fe9264ff9be277dc1d37a3bf1a90600090a250565b6001600160a01b03811661007a57600080fd5b61008a82826100b960201b60201c565b1561009457600080fd5b6001600160a01b0316600090815260209190915260409020805460ff19166001179055565b60006001600160a01b0382166100ce57600080fd5b506001600160a01b03166000908152602091909152604090205460ff1690565b61040e806100fd6000396000f3fe608060405234801561001057600080fd5b506004361061007d5760003560e01c80637d0c269f1161005b5780637d0c269f1461010a5780639ad3a7ba14610130578063d6cd947314610138578063eaf9144a146101405761007d565b806310154bad14610082578063291d9549146100aa5780633af32abf146100d0575b600080fd5b6100a86004803603602081101561009857600080fd5b50356001600160a01b0316610166565b005b6100a8600480360360208110156100c057600080fd5b50356001600160a01b0316610184565b6100f6600480360360208110156100e657600080fd5b50356001600160a01b031661019f565b604080519115158252519081900360200190f35b6100f66004803603602081101561012057600080fd5b50356001600160a01b03166101b8565b6100a86101ca565b6100a86101d5565b6100a86004803603602081101561015657600080fd5b50356001600160a01b03166101de565b61016f336101b8565b61017857600080fd5b610181816101f9565b50565b61018d336101b8565b61019657600080fd5b61018181610241565b60006101b260018363ffffffff61028916565b92915050565b60006101b2818363ffffffff61028916565b6101d3336102be565b565b6101d333610241565b6101e7336101b8565b6101f057600080fd5b61018181610306565b61020a60018263ffffffff61034e16565b6040516001600160a01b038216907fee1504a83b6d4a361f4c1dc78ab59bfa30d6a3b6612c403e86bb01ef2984295f90600090a250565b61025260018263ffffffff61039a16565b6040516001600160a01b038216907f270d9b30cf5b0793bbfd54c9d5b94aeb49462b8148399000265144a8722da6b690600090a250565b60006001600160a01b03821661029e57600080fd5b506001600160a01b03166000908152602091909152604090205460ff1690565b6102cf60008263ffffffff61039a16565b6040516001600160a01b038216907f8514ebf39bc709d98437cc704235ba0864bfdae7563b87a6583d2920cf2e835490600090a250565b61031760008263ffffffff61034e16565b6040516001600160a01b038216907f25f05eb2b87548a4d5f3b374af0482149441d4fe9264ff9be277dc1d37a3bf1a90600090a250565b6001600160a01b03811661036157600080fd5b61036b8282610289565b1561037557600080fd5b6001600160a01b0316600090815260209190915260409020805460ff19166001179055565b6001600160a01b0381166103ad57600080fd5b6103b78282610289565b6103c057600080fd5b6001600160a01b0316600090815260209190915260409020805460ff1916905556fea165627a7a723058202e9ab2ff9d109d7922ed1c8280f028c2e8a92dd7feef6efe5d687c5a2c7c2a3d0029",
  "source": "pragma solidity ^0.5.0;\n\nimport \"../Roles.sol\";\nimport \"./WhitelisterRole.sol\";\n\n/**\n * @title WhitelistedRole\n * @dev Whitelisted accounts have been approved by a Whitelister to perform certain actions (e.g. participate in a\n * crowdsale). This role is special in that the only accounts that can add it are Whitelisters (who can also remove it),\n * and not Whitelisteds themselves.\n */\ncontract WhitelistedRole is WhitelisterRole {\n    using Roles for Roles.Role;\n\n    event WhitelistedAdded(address indexed account);\n    event WhitelistedRemoved(address indexed account);\n\n    Roles.Role private _whitelisteds;\n\n    modifier onlyWhitelisted() {\n        require(isWhitelisted(msg.sender));\n        _;\n    }\n\n    function isWhitelisted(address account) public view returns (bool) {\n        return _whitelisteds.has(account);\n    }\n\n    function addWhitelisted(address account) public onlyWhitelister {\n        _addWhitelisted(account);\n    }\n\n    function removeWhitelisted(address account) public onlyWhitelister {\n        _removeWhitelisted(account);\n    }\n\n    function renounceWhitelisted() public {\n        _removeWhitelisted(msg.sender);\n    }\n\n    function _addWhitelisted(address account) internal {\n        _whitelisteds.add(account);\n        emit WhitelistedAdded(account);\n    }\n\n    function _removeWhitelisted(address account) internal {\n        _whitelisteds.remove(account);\n        emit WhitelistedRemoved(account);\n    }\n}\n",
  "sourcePath": "/Users/peterpolman/Sites/thx/thx-wallet/contracts/access/roles/WhitelistedRole.sol",
  "compiler": {
    "name": "solc",
    "version": "0.5.8+commit.23d335f2.Emscripten.clang"
  },
  "schemaVersion": "3.0.12",
  "updatedAt": "2019-10-23T10:02:37.710Z",
  "devdoc": {
    "details": "Whitelisted accounts have been approved by a Whitelister to perform certain actions (e.g. participate in a crowdsale). This role is special in that the only accounts that can add it are Whitelisters (who can also remove it), and not Whitelisteds themselves.",
    "methods": {},
    "title": "WhitelistedRole"
  },
  "userdoc": {
    "methods": {}
  }
}