{
  "_format": "hh-sol-artifact-1",
  "contractName": "RewardPoll",
  "sourceName": "contracts/contracts/06-Reward/RewardPoll.sol",
  "abi": [
    {
      "anonymous": false,
      "inputs": [
        {
          "indexed": false,
          "internalType": "uint256",
          "name": "id",
          "type": "uint256"
        }
      ],
      "name": "RewardPollDisabled",
      "type": "event"
    },
    {
      "anonymous": false,
      "inputs": [
        {
          "indexed": false,
          "internalType": "uint256",
          "name": "id",
          "type": "uint256"
        }
      ],
      "name": "RewardPollEnabled",
      "type": "event"
    },
    {
      "anonymous": false,
      "inputs": [
        {
          "indexed": false,
          "internalType": "uint256",
          "name": "id",
          "type": "uint256"
        },
        {
          "indexed": false,
          "internalType": "bool",
          "name": "approved",
          "type": "bool"
        }
      ],
      "name": "RewardPollFinalized",
      "type": "event"
    },
    {
      "anonymous": false,
      "inputs": [
        {
          "indexed": false,
          "internalType": "uint256",
          "name": "id",
          "type": "uint256"
        },
        {
          "indexed": true,
          "internalType": "address",
          "name": "member",
          "type": "address"
        }
      ],
      "name": "RewardPollRevokedVote",
      "type": "event"
    },
    {
      "anonymous": false,
      "inputs": [
        {
          "indexed": false,
          "internalType": "uint256",
          "name": "id",
          "type": "uint256"
        },
        {
          "indexed": false,
          "internalType": "uint256",
          "name": "amount",
          "type": "uint256"
        },
        {
          "indexed": false,
          "internalType": "uint256",
          "name": "duration",
          "type": "uint256"
        }
      ],
      "name": "RewardPollUpdated",
      "type": "event"
    },
    {
      "anonymous": false,
      "inputs": [
        {
          "indexed": false,
          "internalType": "uint256",
          "name": "id",
          "type": "uint256"
        },
        {
          "indexed": true,
          "internalType": "address",
          "name": "member",
          "type": "address"
        },
        {
          "indexed": false,
          "internalType": "bool",
          "name": "vote",
          "type": "bool"
        }
      ],
      "name": "RewardPollVoted",
      "type": "event"
    },
    {
      "anonymous": false,
      "inputs": [
        {
          "indexed": true,
          "internalType": "bytes32",
          "name": "role",
          "type": "bytes32"
        },
        {
          "indexed": true,
          "internalType": "bytes32",
          "name": "previousAdminRole",
          "type": "bytes32"
        },
        {
          "indexed": true,
          "internalType": "bytes32",
          "name": "newAdminRole",
          "type": "bytes32"
        }
      ],
      "name": "RoleAdminChanged",
      "type": "event"
    },
    {
      "anonymous": false,
      "inputs": [
        {
          "indexed": true,
          "internalType": "bytes32",
          "name": "role",
          "type": "bytes32"
        },
        {
          "indexed": true,
          "internalType": "address",
          "name": "account",
          "type": "address"
        },
        {
          "indexed": true,
          "internalType": "address",
          "name": "sender",
          "type": "address"
        }
      ],
      "name": "RoleGranted",
      "type": "event"
    },
    {
      "anonymous": false,
      "inputs": [
        {
          "indexed": true,
          "internalType": "bytes32",
          "name": "role",
          "type": "bytes32"
        },
        {
          "indexed": true,
          "internalType": "address",
          "name": "account",
          "type": "address"
        },
        {
          "indexed": true,
          "internalType": "address",
          "name": "sender",
          "type": "address"
        }
      ],
      "name": "RoleRevoked",
      "type": "event"
    },
    {
      "inputs": [],
      "name": "_rewardPollApprovalState",
      "outputs": [
        {
          "internalType": "bool",
          "name": "",
          "type": "bool"
        }
      ],
      "stateMutability": "view",
      "type": "function"
    },
    {
      "inputs": [],
      "name": "_rewardPollFinalize",
      "outputs": [],
      "stateMutability": "nonpayable",
      "type": "function"
    },
    {
      "inputs": [],
      "name": "_rewardPollRevokeVote",
      "outputs": [],
      "stateMutability": "nonpayable",
      "type": "function"
    },
    {
      "inputs": [
        {
          "internalType": "bool",
          "name": "_agree",
          "type": "bool"
        }
      ],
      "name": "_rewardPollVote",
      "outputs": [],
      "stateMutability": "nonpayable",
      "type": "function"
    },
    {
      "inputs": [
        {
          "internalType": "uint256",
          "name": "_id",
          "type": "uint256"
        }
      ],
      "name": "getRewardIndex",
      "outputs": [
        {
          "internalType": "uint256",
          "name": "",
          "type": "uint256"
        }
      ],
      "stateMutability": "view",
      "type": "function"
    },
    {
      "inputs": [
        {
          "internalType": "uint256",
          "name": "_id",
          "type": "uint256"
        }
      ],
      "name": "getWithdrawAmount",
      "outputs": [
        {
          "internalType": "uint256",
          "name": "",
          "type": "uint256"
        }
      ],
      "stateMutability": "view",
      "type": "function"
    },
    {
      "inputs": [
        {
          "internalType": "uint256",
          "name": "_id",
          "type": "uint256"
        }
      ],
      "name": "getWithdrawDuration",
      "outputs": [
        {
          "internalType": "uint256",
          "name": "",
          "type": "uint256"
        }
      ],
      "stateMutability": "view",
      "type": "function"
    }
  ],
  "bytecode": "0x608060405234801561001057600080fd5b50611497806100206000396000f3fe608060405234801561001057600080fd5b506004361061007d5760003560e01c8063703504a11161005b578063703504a1146100da578063d07d58a2146100f6578063e445dc4314610100578063f626a8c7146101305761007d565b80631f2099ca146100825780631f5f33291461008c578063682eb28e146100bc575b600080fd5b61008a610160565b005b6100a660048036038101906100a1919061124a565b610231565b6040516100b3919061136c565b60405180910390f35b6100c4610247565b6040516100d19190611311565b60405180910390f35b6100f460048036038101906100ef9190611221565b6102cc565b005b6100fe6103a1565b005b61011a6004803603810190610115919061124a565b610412565b604051610127919061136c565b60405180910390f35b61014a6004803603810190610145919061124a565b610428565b604051610157919061136c565b60405180910390f35b600061016a61043e565b9050600061017b8260000154610455565b90506000816001015414156101c5576040517f08c379a00000000000000000000000000000000000000000000000000000000081526004016101bc9061132c565b60405180910390fd5b6101cd61046c565b6101d56107d5565b73ffffffffffffffffffffffffffffffffffffffff167f96bd8a63b091fc2c277a752ef055a3b096928812dcd25312eb94f1b8f73d6ca861021461043e565b60000154604051610225919061136c565b60405180910390a25050565b600061023c82610455565b600001549050919050565b60008061025261043e565b905060006102638260000154610455565b90506000816001015414156102ad576040517f08c379a00000000000000000000000000000000000000000000000000000000081526004016102a49061132c565b60405180910390fd5b60006102b761043e565b90508060040154816003015411935050505090565b60006102d661043e565b905060006102e78260000154610455565b9050600081600101541415610331576040517f08c379a00000000000000000000000000000000000000000000000000000000081526004016103289061132c565b60405180910390fd5b61033a8361084a565b6103426107d5565b73ffffffffffffffffffffffffffffffffffffffff167fbcda6307e08d9217c70abefe87671990e45c7971ac38e4f59e28d097d9ca0c2961038161043e565b6000015485604051610394929190611387565b60405180910390a2505050565b60006103ab61043e565b905060006103bc8260000154610455565b9050600081600101541415610406576040517f08c379a00000000000000000000000000000000000000000000000000000000081526004016103fd9061132c565b60405180910390fd5b61040e610b37565b5050565b600061041d82610455565b600101549050919050565b600061043382610455565b600201549050919050565b600061045061044b610bfd565b610c60565b905090565b60008061046183610c6a565b905080915050919050565b600061047661043e565b905080600101544210158015610490575080600201544211155b610502576040517f08c379a00000000000000000000000000000000000000000000000000000000081526004018080602001828103825260108152602001807f49535f4e4f5f56414c49445f54494d450000000000000000000000000000000081525060200191505060405180910390fd5b600061050c61043e565b905060006105186107d5565b905060008260060160008373ffffffffffffffffffffffffffffffffffffffff1673ffffffffffffffffffffffffffffffffffffffff16815260200190815260200160002060000154116105d4576040517f08c379a000000000000000000000000000000000000000000000000000000000815260040180806020018281038252600d8152602001807f4841535f4e4f545f564f5445440000000000000000000000000000000000000081525060200191505060405180910390fd5b60008260060160008373ffffffffffffffffffffffffffffffffffffffff1673ffffffffffffffffffffffffffffffffffffffff16815260200190815260200160002060010154905060008360060160008473ffffffffffffffffffffffffffffffffffffffff1673ffffffffffffffffffffffffffffffffffffffff16815260200190815260200160002060020160009054906101000a900460ff16905060008460060160008573ffffffffffffffffffffffffffffffffffffffff1673ffffffffffffffffffffffffffffffffffffffff1681526020019081526020016000206000018190555060008460060160008573ffffffffffffffffffffffffffffffffffffffff1673ffffffffffffffffffffffffffffffffffffffff1681526020019081526020016000206001018190555060008460060160008573ffffffffffffffffffffffffffffffffffffffff1673ffffffffffffffffffffffffffffffffffffffff16815260200190815260200160002060020160006101000a81548160ff02191690831515021790555061077c60018560050154610cb690919063ffffffff16565b846005018190555080156107ae576107a1828560030154610cb690919063ffffffff16565b84600301819055506107ce565b6107c5828560040154610cb690919063ffffffff16565b84600401819055505b5050505050565b600060606000368080601f016020809104026020016040519081016040528093929190818152602001838380828437600081840152601f19601f820116905080830192505050505050509050600080369050905073ffffffffffffffffffffffffffffffffffffffff81830151169250505090565b600061085461043e565b90508060010154421015801561086e575080600201544211155b6108e0576040517f08c379a00000000000000000000000000000000000000000000000000000000081526004018080602001828103825260108152602001807f49535f4e4f5f56414c49445f54494d450000000000000000000000000000000081525060200191505060405180910390fd5b6108f1826108ec6107d5565b610d39565b60006108fb61043e565b9050600081600601600061090d6107d5565b73ffffffffffffffffffffffffffffffffffffffff1673ffffffffffffffffffffffffffffffffffffffff16815260200190815260200160002060000154146109be576040517f08c379a00000000000000000000000000000000000000000000000000000000081526004018080602001828103825260098152602001807f4841535f564f544544000000000000000000000000000000000000000000000081525060200191505060405180910390fd5b60006001905083156109ee576109e1818360030154610d8590919063ffffffff16565b8260030181905550610a0e565b610a05818360040154610d8590919063ffffffff16565b82600401819055505b42826006016000610a1d6107d5565b73ffffffffffffffffffffffffffffffffffffffff1673ffffffffffffffffffffffffffffffffffffffff1681526020019081526020016000206000018190555080826006016000610a6d6107d5565b73ffffffffffffffffffffffffffffffffffffffff1673ffffffffffffffffffffffffffffffffffffffff1681526020019081526020016000206001018190555083826006016000610abd6107d5565b73ffffffffffffffffffffffffffffffffffffffff1673ffffffffffffffffffffffffffffffffffffffff16815260200190815260200160002060020160006101000a81548160ff021916908315150217905550610b2960018360050154610d8590919063ffffffff16565b826005018190555050505050565b6000610b4161043e565b90508060020154421015610bbd576040517f08c379a000000000000000000000000000000000000000000000000000000000815260040180806020018281038252600b8152602001807f57524f4e475f535441544500000000000000000000000000000000000000000081525060200191505060405180910390fd5b610bca8160000154610e0d565b80600001600090558060010160009055806002016000905580600301600090558060040160009055806005016000905550565b600060606000368080601f016020809104026020016040519081016040528093929190818152602001838380828437600081840152601f19601f820116905080830192505050505050509050600060146000369050039050808201519250505090565b6000819050919050565b60008160405160200180806020018381526020018281038252602581526020018061143d6025913960400192505050604051602081830303815290604052805190602001209050919050565b600082821115610d2e576040517f08c379a000000000000000000000000000000000000000000000000000000000815260040180806020018281038252601e8152602001807f536166654d6174683a207375627472616374696f6e206f766572666c6f77000081525060200191505060405180910390fd5b818303905092915050565b610d42816110a6565b610d81576040517f08c379a0000000000000000000000000000000000000000000000000000000008152600401610d789061134c565b60405180910390fd5b5050565b600080828401905083811015610e03576040517f08c379a000000000000000000000000000000000000000000000000000000000815260040180806020018281038252601b8152602001807f536166654d6174683a206164646974696f6e206f766572666c6f77000000000081525060200191505060405180910390fd5b8091505092915050565b6000610e1882610455565b90506000610e2461110a565b600101826000015481548110610e3657fe5b906000526020600020906005020190506000610e50610247565b9050801561104f577f040000000000000000000000000000000000000000000000000000000000000083600101541415610ee65760018260040160006101000a81548160ff02191690836001811115610ea557fe5b02179055507f660e8265d5bc42d5139afa68db77817960c522fdad5ce9968cd7ab0c3286ca0d84604051610ed9919061136c565b60405180910390a161104e565b7f080000000000000000000000000000000000000000000000000000000000000083600101541415610f745760008260040160006101000a81548160ff02191690836001811115610f3357fe5b02179055507fca07d0c99b0be7b96d2358d7ccef8f5bcca66433998b9b6dd63c62bc42a484c484604051610f67919061136c565b60405180910390a161104d565b60008260010154148015610f8c575060008260020154145b15610fef5760018260040160006101000a81548160ff02191690836001811115610fb257fe5b02179055507f660e8265d5bc42d5139afa68db77817960c522fdad5ce9968cd7ab0c3286ca0d84604051610fe6919061136c565b60405180910390a15b82600101548260010181905550826002015482600201819055507f956351643d8ae623c1b47fcc4525c357bd164da74b9161f0e42fb9b5c20a6ec38483600101548460020154604051611044939291906113b0565b60405180910390a15b5b5b7f96c9e2b876cc09c4e1f1e5d154f8241806cb94511e3c55fd5a29b7f2d620dedd8482604051611080929190611387565b60405180910390a181600301600090558260010160009055826002016000905550505050565b60006110d27f829b824e2329e205435d941c9f13baf578548505283d29261236d8e6596d463683611137565b8061110357506111027f241ecf16d79d0f8dbfb92cbc07fe17840425976cf0667f022fe9877caa831b0883611137565b5b9050919050565b6000807f631ba92ab8eb0c7c19aa90ebce8ff250a95acd664966559209d622b596e0787b90508091505090565b600080611142611177565b905061116e838260000160008781526020019081526020016000206000016111a490919063ffffffff16565b91505092915050565b6000807f6282190449f76f72a9f692e4d8619a03764b7253394788948e36a7a57ba4a00e90508091505090565b60006111cc836000018373ffffffffffffffffffffffffffffffffffffffff1660001b6111d4565b905092915050565b600080836001016000848152602001908152602001600020541415905092915050565b6000813590506112068161140e565b92915050565b60008135905061121b81611425565b92915050565b60006020828403121561123357600080fd5b6000611241848285016111f7565b91505092915050565b60006020828403121561125c57600080fd5b600061126a8482850161120c565b91505092915050565b61127c816113f8565b82525050565b600061128f600f836113e7565b91507f4e4f545f5245574152445f504f4c4c00000000000000000000000000000000006000830152602082019050919050565b60006112cf6009836113e7565b91507f4e4f5f4d454d42455200000000000000000000000000000000000000000000006000830152602082019050919050565b61130b81611404565b82525050565b60006020820190506113266000830184611273565b92915050565b6000602082019050818103600083015261134581611282565b9050919050565b60006020820190508181036000830152611365816112c2565b9050919050565b60006020820190506113816000830184611302565b92915050565b600060408201905061139c6000830185611302565b6113a96020830184611273565b9392505050565b60006060820190506113c56000830186611302565b6113d26020830185611302565b6113df6040830184611302565b949350505050565b600082825260208201905092915050565b60008115159050919050565b6000819050919050565b611417816113f8565b811461142257600080fd5b50565b61142e81611404565b811461143957600080fd5b5056fe6469616d6f6e642e636f6e74726163742e6173736574706f6f6c2e726577617264706f6c6ca2646970667358221220ecb677edb1461770b7a7264ea6464983f097f4c2d2196cda88b62bb0d05fb8ee64736f6c63430007040033",
  "linkReferences": {},
  "deployedLinkReferences": {}
}