{
  "contractName": "WhitelistedRole",
  "abi": [
    {
      "constant": true,
      "inputs": [
        {
          "name": "account",
          "type": "address"
        }
      ],
      "name": "isWhitelister",
      "outputs": [
        {
          "name": "",
          "type": "bool"
        }
      ],
      "payable": false,
      "stateMutability": "view",
      "type": "function"
    },
    {
      "constant": false,
      "inputs": [],
      "name": "renounceWhitelister",
      "outputs": [],
      "payable": false,
      "stateMutability": "nonpayable",
      "type": "function"
    },
    {
      "constant": false,
      "inputs": [
        {
          "name": "account",
          "type": "address"
        }
      ],
      "name": "addWhitelister",
      "outputs": [],
      "payable": false,
      "stateMutability": "nonpayable",
      "type": "function"
    },
    {
      "anonymous": false,
      "inputs": [
        {
          "indexed": true,
          "name": "account",
          "type": "address"
        }
      ],
      "name": "WhitelistedAdded",
      "type": "event"
    },
    {
      "anonymous": false,
      "inputs": [
        {
          "indexed": true,
          "name": "account",
          "type": "address"
        }
      ],
      "name": "WhitelistedRemoved",
      "type": "event"
    },
    {
      "anonymous": false,
      "inputs": [
        {
          "indexed": true,
          "name": "account",
          "type": "address"
        }
      ],
      "name": "WhitelisterAdded",
      "type": "event"
    },
    {
      "anonymous": false,
      "inputs": [
        {
          "indexed": true,
          "name": "account",
          "type": "address"
        }
      ],
      "name": "WhitelisterRemoved",
      "type": "event"
    },
    {
      "constant": true,
      "inputs": [
        {
          "name": "account",
          "type": "address"
        }
      ],
      "name": "isWhitelisted",
      "outputs": [
        {
          "name": "",
          "type": "bool"
        }
      ],
      "payable": false,
      "stateMutability": "view",
      "type": "function"
    },
    {
      "constant": false,
      "inputs": [
        {
          "name": "account",
          "type": "address"
        }
      ],
      "name": "addWhitelisted",
      "outputs": [],
      "payable": false,
      "stateMutability": "nonpayable",
      "type": "function"
    },
    {
      "constant": false,
      "inputs": [
        {
          "name": "account",
          "type": "address"
        }
      ],
      "name": "removeWhitelisted",
      "outputs": [],
      "payable": false,
      "stateMutability": "nonpayable",
      "type": "function"
    },
    {
      "constant": false,
      "inputs": [],
      "name": "renounceWhitelisted",
      "outputs": [],
      "payable": false,
      "stateMutability": "nonpayable",
      "type": "function"
    }
  ],
  "bytecode": "0x60806040526100163364010000000061001b810204565b6100f8565b6100336000826401000000006103b661006a82021704565b604051600160a060020a038216907f25f05eb2b87548a4d5f3b374af0482149441d4fe9264ff9be277dc1d37a3bf1a90600090a250565b600160a060020a038116151561007f57600080fd5b61009282826401000000006100c1810204565b1561009c57600080fd5b600160a060020a0316600090815260209190915260409020805460ff19166001179055565b6000600160a060020a03821615156100d857600080fd5b50600160a060020a03166000908152602091909152604090205460ff1690565b61047c806101076000396000f3fe6080604052600436106100825763ffffffff7c010000000000000000000000000000000000000000000000000000000060003504166310154bad8114610087578063291d9549146100bc5780633af32abf146100ef5780637d0c269f146101365780639ad3a7ba14610169578063d6cd94731461017e578063eaf9144a14610193575b600080fd5b34801561009357600080fd5b506100ba600480360360208110156100aa57600080fd5b5035600160a060020a03166101c6565b005b3480156100c857600080fd5b506100ba600480360360208110156100df57600080fd5b5035600160a060020a03166101e6565b3480156100fb57600080fd5b506101226004803603602081101561011257600080fd5b5035600160a060020a0316610203565b604080519115158252519081900360200190f35b34801561014257600080fd5b506101226004803603602081101561015957600080fd5b5035600160a060020a031661021c565b34801561017557600080fd5b506100ba61022e565b34801561018a57600080fd5b506100ba610239565b34801561019f57600080fd5b506100ba600480360360208110156101b657600080fd5b5035600160a060020a0316610242565b6101cf3361021c565b15156101da57600080fd5b6101e38161025f565b50565b6101ef3361021c565b15156101fa57600080fd5b6101e3816102a7565b600061021660018363ffffffff6102ef16565b92915050565b6000610216818363ffffffff6102ef16565b61023733610326565b565b610237336102a7565b61024b3361021c565b151561025657600080fd5b6101e38161036e565b61027060018263ffffffff6103b616565b604051600160a060020a038216907fee1504a83b6d4a361f4c1dc78ab59bfa30d6a3b6612c403e86bb01ef2984295f90600090a250565b6102b860018263ffffffff61040416565b604051600160a060020a038216907f270d9b30cf5b0793bbfd54c9d5b94aeb49462b8148399000265144a8722da6b690600090a250565b6000600160a060020a038216151561030657600080fd5b50600160a060020a03166000908152602091909152604090205460ff1690565b61033760008263ffffffff61040416565b604051600160a060020a038216907f8514ebf39bc709d98437cc704235ba0864bfdae7563b87a6583d2920cf2e835490600090a250565b61037f60008263ffffffff6103b616565b604051600160a060020a038216907f25f05eb2b87548a4d5f3b374af0482149441d4fe9264ff9be277dc1d37a3bf1a90600090a250565b600160a060020a03811615156103cb57600080fd5b6103d582826102ef565b156103df57600080fd5b600160a060020a0316600090815260209190915260409020805460ff19166001179055565b600160a060020a038116151561041957600080fd5b61042382826102ef565b151561042e57600080fd5b600160a060020a0316600090815260209190915260409020805460ff1916905556fea165627a7a72305820e1123ad58f76c13adce576e65951a0d568dc621ed7622fb8cc0c3e3c8bd440230029",
  "source": "pragma solidity ^0.5.0;\n\nimport \"../Roles.sol\";\nimport \"./WhitelisterRole.sol\";\n\n/**\n * @title WhitelistedRole\n * @dev Whitelisted accounts have been approved by a Whitelister to perform certain actions (e.g. participate in a\n * crowdsale). This role is special in that the only accounts that can add it are Whitelisters (who can also remove it),\n * and not Whitelisteds themselves.\n */\ncontract WhitelistedRole is WhitelisterRole {\n    using Roles for Roles.Role;\n\n    event WhitelistedAdded(address indexed account);\n    event WhitelistedRemoved(address indexed account);\n\n    Roles.Role private _whitelisteds;\n\n    modifier onlyWhitelisted() {\n        require(isWhitelisted(msg.sender));\n        _;\n    }\n\n    function isWhitelisted(address account) public view returns (bool) {\n        return _whitelisteds.has(account);\n    }\n\n    function addWhitelisted(address account) public onlyWhitelister {\n        _addWhitelisted(account);\n    }\n\n    function removeWhitelisted(address account) public onlyWhitelister {\n        _removeWhitelisted(account);\n    }\n\n    function renounceWhitelisted() public {\n        _removeWhitelisted(msg.sender);\n    }\n\n    function _addWhitelisted(address account) internal {\n        _whitelisteds.add(account);\n        emit WhitelistedAdded(account);\n    }\n\n    function _removeWhitelisted(address account) internal {\n        _whitelisteds.remove(account);\n        emit WhitelistedRemoved(account);\n    }\n}\n",
  "sourcePath": "/Users/peterpolman/Sites/thx/contracts/access/roles/WhitelistedRole.sol",
  "compiler": {
    "name": "solc",
    "version": "0.5.0+commit.1d4f565a.Emscripten.clang"
  },
  "schemaVersion": "3.0.1",
  "updatedAt": "2019-01-14T21:12:05.093Z",
  "devdoc": {
    "details": "Whitelisted accounts have been approved by a Whitelister to perform certain actions (e.g. participate in a crowdsale). This role is special in that the only accounts that can add it are Whitelisters (who can also remove it), and not Whitelisteds themselves.",
    "methods": {},
    "title": "WhitelistedRole"
  },
  "userdoc": {
    "methods": {}
  }
}